{
  "contractName": "Comment",
  "abi": [
    {
      "constant": true,
      "inputs": [],
      "name": "commentInfo",
      "outputs": [
        {
          "name": "ipfsHash",
          "type": "bytes32"
        },
        {
          "name": "creator",
          "type": "address"
        },
        {
          "name": "target",
          "type": "address"
        },
        {
          "name": "time",
          "type": "uint256"
        },
        {
          "name": "votes",
          "type": "int32"
        }
      ],
      "payable": false,
      "stateMutability": "view",
      "type": "function"
    },
    {
      "constant": false,
      "inputs": [],
      "name": "renounceOwnership",
      "outputs": [],
      "payable": false,
      "stateMutability": "nonpayable",
      "type": "function"
    },
    {
      "constant": true,
      "inputs": [],
      "name": "owner",
      "outputs": [
        {
          "name": "",
          "type": "address"
        }
      ],
      "payable": false,
      "stateMutability": "view",
      "type": "function"
    },
    {
      "constant": false,
      "inputs": [
        {
          "name": "_newOwner",
          "type": "address"
        }
      ],
      "name": "transferOwnership",
      "outputs": [],
      "payable": false,
      "stateMutability": "nonpayable",
      "type": "function"
    },
    {
      "anonymous": false,
      "inputs": [
        {
          "indexed": true,
          "name": "previousOwner",
          "type": "address"
        }
      ],
      "name": "OwnershipRenounced",
      "type": "event"
    },
    {
      "anonymous": false,
      "inputs": [
        {
          "indexed": true,
          "name": "previousOwner",
          "type": "address"
        },
        {
          "indexed": true,
          "name": "newOwner",
          "type": "address"
        }
      ],
      "name": "OwnershipTransferred",
      "type": "event"
    },
    {
      "constant": false,
      "inputs": [
        {
          "name": "_ipfsHash",
          "type": "bytes32"
        },
        {
          "name": "_creatorAddress",
          "type": "address"
        },
        {
          "name": "_targetAddress",
          "type": "address"
        }
      ],
      "name": "initialize",
      "outputs": [],
      "payable": false,
      "stateMutability": "nonpayable",
      "type": "function"
    }
  ],
  "bytecode": "0x608060405260008054600160a060020a0319163317905561044c806100256000396000f30060806040526004361061006c5763ffffffff7c010000000000000000000000000000000000000000000000000000000060003504166309b205188114610071578063715018a6146100cf57806388b117b3146100e65780638da5cb5b1461011d578063f2fde38b1461015b575b600080fd5b34801561007d57600080fd5b50610086610189565b6040805195865273ffffffffffffffffffffffffffffffffffffffff948516602087015292909316848301526060840152600391820b90910b6080830152519081900360a00190f35b3480156100db57600080fd5b506100e46101bd565b005b3480156100f257600080fd5b506100e460043573ffffffffffffffffffffffffffffffffffffffff60243581169060443516610243565b34801561012957600080fd5b50610132610330565b6040805173ffffffffffffffffffffffffffffffffffffffff9092168252519081900360200190f35b34801561016757600080fd5b506100e473ffffffffffffffffffffffffffffffffffffffff6004351661034c565b6001546002546003805460045460055473ffffffffffffffffffffffffffffffffffffffff94851694909216929091900b85565b60005473ffffffffffffffffffffffffffffffffffffffff1633146101e157600080fd5b6000805460405173ffffffffffffffffffffffffffffffffffffffff909116917ff8df31144d9c2f0f6b59d69b8b98abd5459d07f2742c4df920b25aae33c6482091a26000805473ffffffffffffffffffffffffffffffffffffffff19169055565b60005473ffffffffffffffffffffffffffffffffffffffff16156102c857604080517f08c379a000000000000000000000000000000000000000000000000000000000815260206004820152600860248201527f4e69636520747279000000000000000000000000000000000000000000000000604482015290519081900360640190fd5b600080543373ffffffffffffffffffffffffffffffffffffffff199182161790915560019390935560028054841673ffffffffffffffffffffffffffffffffffffffff938416179055600380549093169116179055426004556005805463ffffffff19169055565b60005473ffffffffffffffffffffffffffffffffffffffff1681565b60005473ffffffffffffffffffffffffffffffffffffffff16331461037057600080fd5b6103798161037c565b50565b73ffffffffffffffffffffffffffffffffffffffff8116151561039e57600080fd5b6000805460405173ffffffffffffffffffffffffffffffffffffffff808516939216917f8be0079c531659141344cd1fd0a4f28419497f9722a3daafe3b4186f6b6457e091a36000805473ffffffffffffffffffffffffffffffffffffffff191673ffffffffffffffffffffffffffffffffffffffff929092169190911790555600a165627a7a72305820d6136dfc3d38f897b90f44293144cf0c3e23033396895d4fec25ce14050f08710029",
  "source": "pragma solidity ^0.4.24;\n\nimport \"./Ownable.sol\";\n\ncontract Comment is Ownable {\n    struct CommentInfo {\n        bytes32 ipfsHash;\n        address creator;\n        address target;\n        uint time;\n        int32 votes;\n        mapping(address => bool) voters;\n    }\n    \n    CommentInfo public commentInfo;\n\n    function initialize(bytes32 _ipfsHash, address _creatorAddress, address _targetAddress) public {\n        require(owner == address(0), \"Nice try\");\n        owner = msg.sender;\n        commentInfo.ipfsHash = _ipfsHash;\n        commentInfo.creator = _creatorAddress;\n        commentInfo.target = _targetAddress;\n        commentInfo.time = now;\n        commentInfo.votes = 0;\n    }\n\n    // function getCreator () public view returns(address) {\n    //     return commentInfo.creator;\n    // }\n}\n\n    ",
  "sourcePath": "/Users/jarenlynch/Ethereum/Tartarus/contracts/Comment.sol",
  "compiler": {
    "name": "solc",
    "version": "0.4.24+commit.e67f0147.Emscripten.clang"
  },
  "schemaVersion": "2.0.1",
  "updatedAt": "2019-02-24T22:32:21.261Z"
}