{
  "contractName": "Comment",
  "abi": [
    {
      "constant": true,
      "inputs": [],
      "name": "commentInfo",
      "outputs": [
        {
          "name": "ipfsHash",
          "type": "string"
        },
        {
          "name": "creator",
          "type": "address"
        },
        {
          "name": "target",
          "type": "address"
        },
        {
          "name": "time",
          "type": "uint256"
        }
      ],
      "payable": false,
      "stateMutability": "view",
      "type": "function"
    },
    {
      "constant": false,
      "inputs": [],
      "name": "renounceOwnership",
      "outputs": [],
      "payable": false,
      "stateMutability": "nonpayable",
      "type": "function"
    },
    {
      "constant": true,
      "inputs": [],
      "name": "owner",
      "outputs": [
        {
          "name": "",
          "type": "address"
        }
      ],
      "payable": false,
      "stateMutability": "view",
      "type": "function"
    },
    {
      "constant": false,
      "inputs": [
        {
          "name": "_newOwner",
          "type": "address"
        }
      ],
      "name": "transferOwnership",
      "outputs": [],
      "payable": false,
      "stateMutability": "nonpayable",
      "type": "function"
    },
    {
      "anonymous": false,
      "inputs": [
        {
          "indexed": true,
          "name": "previousOwner",
          "type": "address"
        }
      ],
      "name": "OwnershipRenounced",
      "type": "event"
    },
    {
      "anonymous": false,
      "inputs": [
        {
          "indexed": true,
          "name": "previousOwner",
          "type": "address"
        },
        {
          "indexed": true,
          "name": "newOwner",
          "type": "address"
        }
      ],
      "name": "OwnershipTransferred",
      "type": "event"
    },
    {
      "constant": false,
      "inputs": [
        {
          "name": "_ipfsHash",
          "type": "string"
        },
        {
          "name": "_creator",
          "type": "address"
        },
        {
          "name": "_target",
          "type": "address"
        }
      ],
      "name": "initialize",
      "outputs": [],
      "payable": false,
      "stateMutability": "nonpayable",
      "type": "function"
    }
  ],
  "bytecode": "0x608060405260008054600160a060020a0319163317905561058c806100256000396000f30060806040526004361061006c5763ffffffff7c010000000000000000000000000000000000000000000000000000000060003504166309b205188114610071578063463fd1af14610137578063715018a6146101a85780638da5cb5b146101bd578063f2fde38b146101ee575b600080fd5b34801561007d57600080fd5b5061008661020f565b604051808060200185600160a060020a0316600160a060020a0316815260200184600160a060020a0316600160a060020a03168152602001838152602001828103825286818151815260200191508051906020019080838360005b838110156100f95781810151838201526020016100e1565b50505050905090810190601f1680156101265780820380516001836020036101000a031916815260200191505b509550505050505060405180910390f35b34801561014357600080fd5b506040805160206004803580820135601f81018490048402850184019095528484526101a694369492936024939284019190819084018382808284375094975050600160a060020a0385358116965060209095013590941693506102bf92505050565b005b3480156101b457600080fd5b506101a66103aa565b3480156101c957600080fd5b506101d2610416565b60408051600160a060020a039092168252519081900360200190f35b3480156101fa57600080fd5b506101a6600160a060020a0360043516610425565b60018054604080516020601f6002600019610100878916150201909516949094049384018190048102820181019092528281529183918301828280156102965780601f1061026b57610100808354040283529160200191610296565b820191906000526020600020905b81548152906001019060200180831161027957829003601f168201915b50505050600183015460028401546003909401549293600160a060020a03918216939116915084565b600054600160a060020a03161561033757604080517f08c379a000000000000000000000000000000000000000000000000000000000815260206004820152600860248201527f4e69636520747279000000000000000000000000000000000000000000000000604482015290519081900360640190fd5b6000805473ffffffffffffffffffffffffffffffffffffffff19163317905582516103699060019060208601906104c5565b5060028054600160a060020a0393841673ffffffffffffffffffffffffffffffffffffffff1991821617909155600380549290931691161790555042600455565b600054600160a060020a031633146103c157600080fd5b60008054604051600160a060020a03909116917ff8df31144d9c2f0f6b59d69b8b98abd5459d07f2742c4df920b25aae33c6482091a26000805473ffffffffffffffffffffffffffffffffffffffff19169055565b600054600160a060020a031681565b600054600160a060020a0316331461043c57600080fd5b61044581610448565b50565b600160a060020a038116151561045d57600080fd5b60008054604051600160a060020a03808516939216917f8be0079c531659141344cd1fd0a4f28419497f9722a3daafe3b4186f6b6457e091a36000805473ffffffffffffffffffffffffffffffffffffffff1916600160a060020a0392909216919091179055565b828054600181600116156101000203166002900490600052602060002090601f016020900481019282601f1061050657805160ff1916838001178555610533565b82800160010185558215610533579182015b82811115610533578251825591602001919060010190610518565b5061053f929150610543565b5090565b61055d91905b8082111561053f5760008155600101610549565b905600a165627a7a72305820311f84db81f1e05968cc4e3d9489e854ee85856f4299d8c594b7b6754adfd7cf0029",
  "source": "pragma solidity ^0.4.24;\n\nimport \"./Ownable.sol\";\n\ncontract Comment is Ownable {\n    struct CommentInfo {\n        string ipfsHash;\n        address creator;\n        address target;\n        uint time;\n    }\n    CommentInfo public commentInfo;\n\n    function initialize(string _ipfsHash, address _creator, address _target) public {\n        require(owner == address(0), \"Nice try\");\n        owner = msg.sender;\n        commentInfo.ipfsHash = _ipfsHash;\n        commentInfo.creator = _creator;\n        commentInfo.target = _target;\n        commentInfo.time = now;\n    }\n\n    // function getCreator () public view returns(address) {\n    //     return commentInfo.creator;\n    // }\n}",
  "sourcePath": "/Users/jarenlynch/Ethereum/Tartarus/contracts/Comment.sol",
  "compiler": {
    "name": "solc",
    "version": "0.4.24+commit.e67f0147.Emscripten.clang"
  },
  "schemaVersion": "2.0.1",
  "updatedAt": "2018-12-24T06:51:51.020Z"
}