{
  "contractName": "CommentFactory",
  "abi": [
    {
      "inputs": [],
      "payable": false,
      "stateMutability": "nonpayable",
      "type": "constructor",
      "signature": "constructor"
    },
    {
      "constant": false,
      "inputs": [
        {
          "name": "_targetAddress",
          "type": "address"
        },
        {
          "name": "_commentCreator",
          "type": "address"
        },
        {
          "name": "_comment",
          "type": "bytes32"
        }
      ],
      "name": "createComment",
      "outputs": [
        {
          "name": "",
          "type": "address"
        }
      ],
      "payable": false,
      "stateMutability": "nonpayable",
      "type": "function",
      "signature": "0x5dfb6df8"
    }
  ],
  "bytecode": "0x608060405234801561001057600080fd5b5061001961005b565b604051809103906000f080158015610035573d6000803e3d6000fd5b5060008054600160a060020a031916600160a060020a039290921691909117905561006b565b6040516104c8806102a083390190565b6102268061007a6000396000f3fe608060405234801561001057600080fd5b5060043610610047577c010000000000000000000000000000000000000000000000000000000060003504635dfb6df8811461004c575b600080fd5b61008f6004803603606081101561006257600080fd5b5073ffffffffffffffffffffffffffffffffffffffff8135811691602081013590911690604001356100b8565b6040805173ffffffffffffffffffffffffffffffffffffffff9092168252519081900360200190f35b6000805481906100dd9073ffffffffffffffffffffffffffffffffffffffff16610187565b604080517f63acc14d00000000000000000000000000000000000000000000000000000000815233600482015273ffffffffffffffffffffffffffffffffffffffff88811660248301528781166044830152606482018790529151929350908316916363acc14d9160848082019260009290919082900301818387803b15801561016657600080fd5b505af115801561017a573d6000803e3d6000fd5b5092979650505050505050565b6040517f3d602d80600a3d3981f3363d3d373d3d3d363d7300000000000000000000000081526c010000000000000000000000008202601482018190527f5af43d82803e903d91602b57fd5bf30000000000000000000000000000000000602883015260009160378184f094935050505056fea165627a7a723058206254e78dbfd9af23cf24846b2b5edfde459e1df17da582350c4f28794998974d0029608060405260008054600160a060020a031916331790556104a3806100256000396000f3fe608060405234801561001057600080fd5b506004361061009a576000357c010000000000000000000000000000000000000000000000000000000090048063715018a611610078578063715018a6146101555780638da5cb5b1461015d578063a6e28bdd14610181578063f2fde38b146101895761009a565b806309b205181461009f578063116125d0146100d957806363acc14d14610119575b600080fd5b6100a76101af565b60408051948552600160a060020a03938416602086015291909216838201526060830191909152519081900360800190f35b610117600480360360808110156100ef57600080fd5b5080351515906020810135151590600160a060020a03604082013581169160600135166101ce565b005b6101176004803603608081101561012f57600080fd5b50600160a060020a0381358116916020810135821691604082013516906060013561027f565b61011761034d565b6101656103b9565b60408051600160a060020a039092168252519081900360200190f35b6101656103c8565b6101176004803603602081101561019f57600080fd5b5035600160a060020a03166103d7565b600154600254600354600454600160a060020a03928316929091169084565b600054600160a060020a031633146101e557600080fd5b83806101ee5750825b806102065750600254600160a060020a038381169116145b151561027357604080517f08c379a000000000000000000000000000000000000000000000000000000000815260206004820152601d60248201527f5573657220646f6573206e6f742068617665207065726d697373696f6e000000604482015290519081900360640190fd5b80600160a060020a0316ff5b600054600160a060020a0316156102f757604080517f08c379a000000000000000000000000000000000000000000000000000000000815260206004820152600860248201527f4e69636520747279000000000000000000000000000000000000000000000000604482015290519081900360640190fd5b60008054600160a060020a0395861673ffffffffffffffffffffffffffffffffffffffff199182161790915560019190915560028054928516928216929092179091556003805492909316911617905542600455565b600054600160a060020a0316331461036457600080fd5b60008054604051600160a060020a03909116917ff8df31144d9c2f0f6b59d69b8b98abd5459d07f2742c4df920b25aae33c6482091a26000805473ffffffffffffffffffffffffffffffffffffffff19169055565b600054600160a060020a031681565b600254600160a060020a031690565b600054600160a060020a031633146103ee57600080fd5b6103f7816103fa565b50565b600160a060020a038116151561040f57600080fd5b60008054604051600160a060020a03808516939216917f8be0079c531659141344cd1fd0a4f28419497f9722a3daafe3b4186f6b6457e091a36000805473ffffffffffffffffffffffffffffffffffffffff1916600160a060020a039290921691909117905556fea165627a7a7230582080c20e4a16dbf1ecab89e1c3f494d0afd26b31b6ce621d684870d2f113aa5bdc0029",
  "source": "pragma solidity ^0.5.2;\n\nimport \"./Comment.sol\";\nimport \"./CloneFactory.sol\";\n\ncontract CommentFactory is CloneFactory {\n    address cloneComment;\n\n    constructor() public {\n        cloneComment = address(new Comment());\n    }\n\n    function createComment (address _targetAddress, address _commentCreator, bytes32 _comment) \n    external returns(address) {\n        address clone = createClone(cloneComment);\n        Comment(clone).initialize(msg.sender, _targetAddress, _commentCreator, _comment);\n        return clone;\n    }\n}",
  "sourcePath": "/Users/jarenlynch/Ethereum/Tartarus/contracts/CommentFactory.sol",
  "compiler": {
    "name": "solc",
    "version": "0.5.2+commit.1df8f40c.Emscripten.clang"
  },
  "schemaVersion": "3.0.6",
  "updatedAt": "2019-04-11T23:40:35.254Z",
  "devdoc": {
    "methods": {}
  },
  "userdoc": {
    "methods": {}
  }
}