{
  "contractName": "Comment",
  "abi": [
    {
      "constant": true,
      "inputs": [],
      "name": "commentInfo",
      "outputs": [
        {
          "name": "comment",
          "type": "bytes32"
        },
        {
          "name": "creator",
          "type": "address"
        },
        {
          "name": "target",
          "type": "address"
        },
        {
          "name": "time",
          "type": "uint256"
        }
      ],
      "payable": false,
      "stateMutability": "view",
      "type": "function"
    },
    {
      "constant": false,
      "inputs": [],
      "name": "renounceOwnership",
      "outputs": [],
      "payable": false,
      "stateMutability": "nonpayable",
      "type": "function"
    },
    {
      "constant": true,
      "inputs": [],
      "name": "owner",
      "outputs": [
        {
          "name": "",
          "type": "address"
        }
      ],
      "payable": false,
      "stateMutability": "view",
      "type": "function"
    },
    {
      "constant": false,
      "inputs": [
        {
          "name": "_newOwner",
          "type": "address"
        }
      ],
      "name": "transferOwnership",
      "outputs": [],
      "payable": false,
      "stateMutability": "nonpayable",
      "type": "function"
    },
    {
      "anonymous": false,
      "inputs": [
        {
          "indexed": true,
          "name": "previousOwner",
          "type": "address"
        }
      ],
      "name": "OwnershipRenounced",
      "type": "event"
    },
    {
      "anonymous": false,
      "inputs": [
        {
          "indexed": true,
          "name": "previousOwner",
          "type": "address"
        },
        {
          "indexed": true,
          "name": "newOwner",
          "type": "address"
        }
      ],
      "name": "OwnershipTransferred",
      "type": "event"
    },
    {
      "constant": false,
      "inputs": [
        {
          "name": "_owner",
          "type": "address"
        },
        {
          "name": "_targetAddress",
          "type": "address"
        },
        {
          "name": "_creatorAddress",
          "type": "address"
        },
        {
          "name": "_comment",
          "type": "bytes32"
        }
      ],
      "name": "initialize",
      "outputs": [],
      "payable": false,
      "stateMutability": "nonpayable",
      "type": "function"
    },
    {
      "constant": false,
      "inputs": [
        {
          "name": "_admin",
          "type": "bool"
        },
        {
          "name": "_moderator",
          "type": "bool"
        },
        {
          "name": "_userAddress",
          "type": "address"
        },
        {
          "name": "_suicideAddress",
          "type": "address"
        }
      ],
      "name": "deleteComment",
      "outputs": [],
      "payable": false,
      "stateMutability": "nonpayable",
      "type": "function"
    },
    {
      "constant": true,
      "inputs": [],
      "name": "getCommentCreator",
      "outputs": [
        {
          "name": "",
          "type": "address"
        }
      ],
      "payable": false,
      "stateMutability": "view",
      "type": "function"
    }
  ],
  "bytecode": "0x608060405260008054600160a060020a031916331790556104a3806100256000396000f3fe608060405234801561001057600080fd5b506004361061009a576000357c010000000000000000000000000000000000000000000000000000000090048063715018a611610078578063715018a6146101555780638da5cb5b1461015d578063a6e28bdd14610181578063f2fde38b146101895761009a565b806309b205181461009f578063116125d0146100d957806363acc14d14610119575b600080fd5b6100a76101af565b60408051948552600160a060020a03938416602086015291909216838201526060830191909152519081900360800190f35b610117600480360360808110156100ef57600080fd5b5080351515906020810135151590600160a060020a03604082013581169160600135166101ce565b005b6101176004803603608081101561012f57600080fd5b50600160a060020a0381358116916020810135821691604082013516906060013561027f565b61011761034d565b6101656103b9565b60408051600160a060020a039092168252519081900360200190f35b6101656103c8565b6101176004803603602081101561019f57600080fd5b5035600160a060020a03166103d7565b600154600254600354600454600160a060020a03928316929091169084565b600054600160a060020a031633146101e557600080fd5b83806101ee5750825b806102065750600254600160a060020a038381169116145b151561027357604080517f08c379a000000000000000000000000000000000000000000000000000000000815260206004820152601d60248201527f5573657220646f6573206e6f742068617665207065726d697373696f6e000000604482015290519081900360640190fd5b80600160a060020a0316ff5b600054600160a060020a0316156102f757604080517f08c379a000000000000000000000000000000000000000000000000000000000815260206004820152600860248201527f4e69636520747279000000000000000000000000000000000000000000000000604482015290519081900360640190fd5b60008054600160a060020a0395861673ffffffffffffffffffffffffffffffffffffffff199182161790915560019190915560028054928516928216929092179091556003805492909316911617905542600455565b600054600160a060020a0316331461036457600080fd5b60008054604051600160a060020a03909116917ff8df31144d9c2f0f6b59d69b8b98abd5459d07f2742c4df920b25aae33c6482091a26000805473ffffffffffffffffffffffffffffffffffffffff19169055565b600054600160a060020a031681565b600254600160a060020a031690565b600054600160a060020a031633146103ee57600080fd5b6103f7816103fa565b50565b600160a060020a038116151561040f57600080fd5b60008054604051600160a060020a03808516939216917f8be0079c531659141344cd1fd0a4f28419497f9722a3daafe3b4186f6b6457e091a36000805473ffffffffffffffffffffffffffffffffffffffff1916600160a060020a039290921691909117905556fea165627a7a7230582080c20e4a16dbf1ecab89e1c3f494d0afd26b31b6ce621d684870d2f113aa5bdc0029",
  "source": "pragma solidity ^0.5.2;\n\nimport \"./Ownable.sol\";\n\ncontract Comment is Ownable {\n    struct CommentInfo {\n        bytes32 comment;\n        address creator;\n        address target;\n        uint time;\n    }\n    \n    CommentInfo public commentInfo;\n\n    function initialize(address _owner, address _targetAddress, address _creatorAddress, bytes32 _comment) public {\n        require(owner == address(0), \"Nice try\");\n        owner = _owner;\n        commentInfo.comment = _comment;\n        commentInfo.creator = _creatorAddress;\n        commentInfo.target = _targetAddress;\n        commentInfo.time = now;\n    }\n\n    function deleteComment(bool _admin, bool _moderator, address _userAddress, address payable _suicideAddress) external onlyOwner {\n        require(\n            _admin || \n            _moderator || \n            _userAddress == commentInfo.creator, \n            \"User does not have permission\"\n        );\n        selfdestruct(_suicideAddress);\n    }\n\n    function getCommentCreator() public view returns(address) {\n        return commentInfo.creator;\n    }\n}",
  "sourcePath": "/Users/jarenlynch/Ethereum/Tartarus/contracts/Comment.sol",
  "compiler": {
    "name": "solc",
    "version": "0.5.2+commit.1df8f40c.Emscripten.clang"
  },
  "schemaVersion": "3.0.6",
  "updatedAt": "2019-04-11T23:32:48.868Z",
  "devdoc": {
    "methods": {
      "renounceOwnership()": {
        "details": "Allows the current owner to relinquish control of the contract."
      },
      "transferOwnership(address)": {
        "details": "Allows the current owner to transfer control of the contract to a newOwner.",
        "params": {
          "_newOwner": "The address to transfer ownership to."
        }
      }
    }
  },
  "userdoc": {
    "methods": {
      "renounceOwnership()": {
        "notice": "Renouncing to ownership will leave the contract without an owner. It will not be possible to call the functions with the `onlyOwner` modifier anymore."
      }
    }
  }
}