{
  "contractName": "ForumFactory",
  "abi": [
    {
      "inputs": [],
      "payable": false,
      "stateMutability": "nonpayable",
      "type": "constructor",
      "signature": "constructor"
    },
    {
      "constant": false,
      "inputs": [
        {
          "name": "_forumName",
          "type": "bytes32"
        },
        {
          "name": "_forumCreator",
          "type": "address"
        }
      ],
      "name": "createForum",
      "outputs": [
        {
          "name": "",
          "type": "address"
        }
      ],
      "payable": false,
      "stateMutability": "nonpayable",
      "type": "function",
      "signature": "0x733677b7"
    }
  ],
  "bytecode": "0x608060405234801561001057600080fd5b5061001961005b565b604051809103906000f080158015610035573d6000803e3d6000fd5b5060008054600160a060020a031916600160a060020a039290921691909117905561006b565b604051611cb48061028d83390190565b6102138061007a6000396000f3fe608060405234801561001057600080fd5b5060043610610047577c01000000000000000000000000000000000000000000000000000000006000350463733677b7811461004c575b600080fd5b6100856004803603604081101561006257600080fd5b508035906020013573ffffffffffffffffffffffffffffffffffffffff166100ae565b6040805173ffffffffffffffffffffffffffffffffffffffff9092168252519081900360200190f35b6000805481906100d39073ffffffffffffffffffffffffffffffffffffffff16610174565b604080517f88b117b30000000000000000000000000000000000000000000000000000000081526004810187905233602482015273ffffffffffffffffffffffffffffffffffffffff86811660448301529151929350908316916388b117b39160648082019260009290919082900301818387803b15801561015457600080fd5b505af1158015610168573d6000803e3d6000fd5b50929695505050505050565b6040517f3d602d80600a3d3981f3363d3d373d3d3d363d7300000000000000000000000081526c010000000000000000000000008202601482018190527f5af43d82803e903d91602b57fd5bf30000000000000000000000000000000000602883015260009160378184f094935050505056fea165627a7a72305820f05fb443d446b8dc971a2c03db95bf036969bdd374a725b1c20a46c2f4a7c5600029608060405260008054600160a060020a03191633179055611c8f806100256000396000f3fe608060405234801561001057600080fd5b50600436106101d35760003560e060020a900480636cdeefe311610108578063b10d6b46116100a6578063f28d4bce11610075578063f28d4bce1461060e578063f2fde38b14610642578063fa477a4914610668578063ff22370c146106ae576101d3565b8063b10d6b4614610550578063c965d3111461057e578063d8705f25146105b4578063e3c0d8b9146105e2576101d3565b806388b117b3116100e257806388b117b3146104c05780638da5cb5b146104f45780639c8d83bb146104fc578063adcddc5814610522576101d3565b80636cdeefe31461048a578063715018a6146104b05780637284e416146104b8576101d3565b80631f317520116101755780632ae434f31161014f5780632ae434f3146103c6578063404628c6146103fc57806352f6747a1461043c5780636c3993e714610444576101d3565b80631f3175201461033e578063243d14881461036c578063289b4a5514610398576101d3565b8063123f0a48116101b1578063123f0a481461025057806314d0f1ba1461026d57806316ada547146102d35780631c732557146102db576101d3565b806302d05d3f146101d857806303eaf317146101fc57806306fdde0314610236575b600080fd5b6101e06106dc565b60408051600160a060020a039092168252519081900360200190f35b6102226004803603602081101561021257600080fd5b5035600160a060020a03166106eb565b604080519115158252519081900360200190f35b61023e610700565b60408051918252519081900360200190f35b6101e06004803603602081101561026657600080fd5b5035610706565b6102936004803603602081101561028357600080fd5b5035600160a060020a031661072e565b604080519715158852951515602088015293151586860152911515606086015215156080850152151560a0840152151560c0830152519081900360e00190f35b61023e610784565b61033c60048036036101008110156102f257600080fd5b50600160a060020a03813581169160208101359091169060408101351515906060810135151590608081013515159060a081013515159060c081013515159060e00135151561078a565b005b61033c6004803603604081101561035457600080fd5b50600160a060020a0381358116916020013516610914565b61033c6004803603604081101561038257600080fd5b5080359060200135600160a060020a03166109ba565b61033c600480360360408110156103ae57600080fd5b50600160a060020a0381358116916020013516610a3c565b61033c600480360360608110156103dc57600080fd5b508035151590600160a060020a0360208201358116916040013516610b6c565b61033c6004803603608081101561041257600080fd5b508035151590600160a060020a036020820135811691604081013582169160609091013516610bec565b61023e610d35565b6101e0600480360360a081101561045a57600080fd5b50600160a060020a0381358116916020810135821691604082013581169160608101359160809091013516610d3b565b610222600480360360208110156104a057600080fd5b5035600160a060020a0316610f64565b61033c610f79565b61023e610fe5565b61033c600480360360608110156104d657600080fd5b50803590600160a060020a0360208201358116916040013516610feb565b6101e0611090565b6102226004803603602081101561051257600080fd5b5035600160a060020a031661109f565b61033c6004803603604081101561053857600080fd5b50600160a060020a03813581169160200135166110b4565b61033c6004803603604081101561056657600080fd5b50600160a060020a03813581169160200135166111c1565b61033c6004803603606081101561059457600080fd5b50600160a060020a038135811691602081013591604090910135166112cc565b61033c600480360360408110156105ca57600080fd5b50600160a060020a038135811691602001351661150e565b61033c600480360360408110156105f857600080fd5b5080359060200135600160a060020a0316611622565b6101e06004803603606081101561062457600080fd5b50803590600160a060020a03602082013581169160400135166116a5565b61033c6004803603602081101561065857600080fd5b5035600160a060020a03166117e1565b61033c600480360360a081101561067e57600080fd5b508035151590600160a060020a036020820135811691604081013582169160608201358116916080013516611804565b61033c600480360360408110156106c457600080fd5b50600160a060020a03813581169160200135166119c1565b600954600160a060020a031681565b60036020526000908152604090205460ff1681565b60065481565b600a80548290811061071457fe5b600091825260209091200154600160a060020a0316905081565b60016020526000908152604090205460ff80821691610100810482169162010000820481169163010000008104821691640100000000820481169165010000000000810482169166010000000000009091041687565b60055481565b600054600160a060020a031633146107a157600080fd5b600160a060020a0387166000908152600160205260409020546301000000900460ff161515610808576040805160e560020a62461bcd02815260206004820152601d6024820152600080516020611c44833981519152604482015290519081900360640190fd5b610810611b7d565b9515158652931515602080870191825293151560408088019182529315156060880190815292151560a0880190815295151560c08801908152600160a060020a03999099166000908152600190955292909320855181549451935192516080909701519551985160ff199095169015151761ff001916610100931515939093029290921762ff0000191662010000911515919091021763ff00000019166301000000941515949094029390931764ff000000001916640100000000921515929092029190911765ff0000000000191665010000000000941515949094029390931766ff00000000000019166601000000000000931515939093029290921790915550565b600054600160a060020a0316331461092b57600080fd5b600160a060020a0381166000908152600160205260409020546301000000900460ff161515610992576040805160e560020a62461bcd02815260206004820152601d6024820152600080516020611c44833981519152604482015290519081900360640190fd5b50600160a060020a03166000908152600160205260409020805466ffffffffffffff19169055565b600054600160a060020a031633146109d157600080fd5b600160a060020a038116600090815260016020526040902054610100900460ff161515610a36576040805160e560020a62461bcd02815260206004820152601d6024820152600080516020611c44833981519152604482015290519081900360640190fd5b50600755565b600054600160a060020a03163314610a5357600080fd5b600160a060020a03821660009081526003602052604090205460ff161515610ab3576040805160e560020a62461bcd0281526020600482015260136024820152600080516020611c24833981519152604482015290519081900360640190fd5b600160a060020a03811660009081526002602052604090205460ff1615610b12576040805160e560020a62461bcd02815260206004820152601e6024820152600080516020611c04833981519152604482015290519081900360640190fd5b81600160a060020a031663a8df84df6040518163ffffffff1660e060020a028152600401600060405180830381600087803b158015610b5057600080fd5b505af1158015610b64573d6000803e3d6000fd5b505050505050565b600054600160a060020a03163314610b8357600080fd5b8280610b9c5750600954600160a060020a038381169116145b1515610be0576040805160e560020a62461bcd02815260206004820152601d6024820152600080516020611c44833981519152604482015290519081900360640190fd5b80600160a060020a0316ff5b600054600160a060020a03163314610c0357600080fd5b600160a060020a03821660009081526003602052604090205460ff161515610c63576040805160e560020a62461bcd0281526020600482015260136024820152600080516020611c24833981519152604482015290519081900360640190fd5b600160a060020a038381166000818152600160205260408082205481517f58cd149700000000000000000000000000000000000000000000000000000000815289151560048201526501000000000090910460ff16151560248201526044810193909352848416606484015251928516926358cd149792608480820193929182900301818387803b158015610cf757600080fd5b505af1158015610d0b573d6000803e3d6000fd5b505050600160a060020a039092166000908152600360205260409020805460ff1916905550505050565b60075481565b60008054600160a060020a03163314610d5357600080fd5b600160a060020a03861660009081526003602052604090205460ff161515610dc5576040805160e560020a62461bcd02815260206004820152601460248201527f506f737420646f6573206e6f742065786973742e000000000000000000000000604482015290519081900360640190fd5b600160a060020a03851660009081526003602052604090205460ff1680610e045750600160a060020a03851660009081526004602052604090205460ff165b1515610e5a576040805160e560020a62461bcd02815260206004820152601660248201527f54617267657420646f6573206e6f742065786973742e00000000000000000000604482015290519081900360640190fd5b600160a060020a03841660009081526002602052604090205460ff1615610eb9576040805160e560020a62461bcd02815260206004820152601e6024820152600080516020611c04833981519152604482015290519081900360640190fd5b604080517f5dfb6df8000000000000000000000000000000000000000000000000000000008152600160a060020a0387811660048301528681166024830152604482018690529151600092851691635dfb6df891606480830192602092919082900301818787803b158015610f2d57600080fd5b505af1158015610f41573d6000803e3d6000fd5b505050506040513d6020811015610f5757600080fd5b5051979650505050505050565b60046020526000908152604090205460ff1681565b600054600160a060020a03163314610f9057600080fd5b60008054604051600160a060020a03909116917ff8df31144d9c2f0f6b59d69b8b98abd5459d07f2742c4df920b25aae33c6482091a26000805473ffffffffffffffffffffffffffffffffffffffff19169055565b60085481565b600054600160a060020a03161561104c576040805160e560020a62461bcd02815260206004820152600860248201527f4e69636520747279000000000000000000000000000000000000000000000000604482015290519081900360640190fd5b6000805473ffffffffffffffffffffffffffffffffffffffff19908116600160a060020a039485161790915560069390935542600555600980549093169116179055565b600054600160a060020a031681565b60026020526000908152604090205460ff1681565b600054600160a060020a031633146110cb57600080fd5b600160a060020a03821660009081526002602052604090205460ff161561113c576040805160e560020a62461bcd02815260206004820152601360248201527f5573657220616c72656164792062616e6e656400000000000000000000000000604482015290519081900360640190fd5b600160a060020a03811660009081526001602052604090205460ff16151561119c576040805160e560020a62461bcd02815260206004820152601d6024820152600080516020611c44833981519152604482015290519081900360640190fd5b50600160a060020a03166000908152600260205260409020805460ff19166001179055565b600054600160a060020a031633146111d857600080fd5b600160a060020a03821660009081526002602052604090205460ff16151561124a576040805160e560020a62461bcd02815260206004820152600f60248201527f55736572206e6f742062616e6e65640000000000000000000000000000000000604482015290519081900360640190fd5b600160a060020a03811660009081526001602052604090205460ff1615156112aa576040805160e560020a62461bcd02815260206004820152601d6024820152600080516020611c44833981519152604482015290519081900360640190fd5b50600160a060020a03166000908152600260205260409020805460ff19169055565b600054600160a060020a031633146112e357600080fd5b600160a060020a03831660009081526003602052604090205460ff161515611343576040805160e560020a62461bcd0281526020600482015260136024820152600080516020611c24833981519152604482015290519081900360640190fd5b600160a060020a038116600090815260016020526040902054640100000000900460ff1615156113ab576040805160e560020a62461bcd02815260206004820152601d6024820152600080516020611c44833981519152604482015290519081900360640190fd5b600a548210611404576040805160e560020a62461bcd02815260206004820152600d60248201527f496e76616c696420696e64657800000000000000000000000000000000000000604482015290519081900360640190fd5b82600160a060020a0316600a8381548110151561141d57fe5b600091825260209091200154600160a060020a031614611487576040805160e560020a62461bcd02815260206004820152601560248201527f50696e6e656420706f7374206e6f7420666f756e640000000000000000000000604482015290519081900360640190fd5b600a8054600019810190811061149957fe5b600091825260209091200154600a8054600160a060020a0390921691849081106114bf57fe5b6000918252602090912001805473ffffffffffffffffffffffffffffffffffffffff1916600160a060020a0392909216919091179055600a805490611508906000198301611bb9565b50505050565b600054600160a060020a0316331461152557600080fd5b600160a060020a03821660009081526003602052604090205460ff161515611585576040805160e560020a62461bcd0281526020600482015260136024820152600080516020611c24833981519152604482015290519081900360640190fd5b600160a060020a03811660009081526002602052604090205460ff16156115e4576040805160e560020a62461bcd02815260206004820152601e6024820152600080516020611c04833981519152604482015290519081900360640190fd5b81600160a060020a03166392d7727c6040518163ffffffff1660e060020a028152600401600060405180830381600087803b158015610b5057600080fd5b600054600160a060020a0316331461163957600080fd5b600160a060020a03811660009081526001602052604090205462010000900460ff16151561169f576040805160e560020a62461bcd02815260206004820152601d6024820152600080516020611c44833981519152604482015290519081900360640190fd5b50600855565b60008054600160a060020a031633146116bd57600080fd5b600160a060020a03831660009081526002602052604090205460ff161561171c576040805160e560020a62461bcd02815260206004820152601e6024820152600080516020611c04833981519152604482015290519081900360640190fd5b604080517f9dc0070c00000000000000000000000000000000000000000000000000000000815260048101869052600160a060020a0385811660248301529151600092851691639dc0070c91604480830192602092919082900301818787803b15801561178857600080fd5b505af115801561179c573d6000803e3d6000fd5b505050506040513d60208110156117b257600080fd5b5051600160a060020a0381166000908152600360205260409020805460ff191660011790559150509392505050565b600054600160a060020a031633146117f857600080fd5b61180181611b00565b50565b600054600160a060020a0316331461181b57600080fd5b600160a060020a03831660009081526003602052604090205460ff16151561187b576040805160e560020a62461bcd0281526020600482015260136024820152600080516020611c24833981519152604482015290519081900360640190fd5b600160a060020a03821660009081526004602052604090205460ff1615156118ed576040805160e560020a62461bcd02815260206004820152601660248201527f436f6d6d656e7420646f6573206e6f7420657869737400000000000000000000604482015290519081900360640190fd5b600160a060020a038481166000818152600160205260408082205481517f116125d00000000000000000000000000000000000000000000000000000000081528a15156004820152660100000000000090910460ff161515602482015260448101939093528484166064840152519285169263116125d092608480820193929182900301818387803b15801561198257600080fd5b505af1158015611996573d6000803e3d6000fd5b505050600160a060020a039092166000908152600460205260409020805460ff191690555050505050565b600054600160a060020a031633146119d857600080fd5b600160a060020a03821660009081526003602052604090205460ff161515611a38576040805160e560020a62461bcd0281526020600482015260136024820152600080516020611c24833981519152604482015290519081900360640190fd5b600160a060020a038116600090815260016020526040902054640100000000900460ff161515611aa0576040805160e560020a62461bcd02815260206004820152601d6024820152600080516020611c44833981519152604482015290519081900360640190fd5b50600a80546001810182556000919091527fc65a7bb8d6351c1cf70c95a316cc6a92839c986682d98bc35f958f4883f9d2a801805473ffffffffffffffffffffffffffffffffffffffff1916600160a060020a0392909216919091179055565b600160a060020a0381161515611b1557600080fd5b60008054604051600160a060020a03808516939216917f8be0079c531659141344cd1fd0a4f28419497f9722a3daafe3b4186f6b6457e091a36000805473ffffffffffffffffffffffffffffffffffffffff1916600160a060020a0392909216919091179055565b6040805160e081018252600080825260208201819052918101829052606081018290526080810182905260a0810182905260c081019190915290565b815481835581811115611bdd57600083815260209020611bdd918101908301611be2565b505050565b611c0091905b80821115611bfc5760008155600101611be8565b5090565b9056fe557365722069732062616e6e65642066726f6d207468697320666f72756d0000506f737420646f6573206e6f74206578697374000000000000000000000000005573657220646f6573206e6f742068617665207065726d697373696f6e000000a165627a7a723058206b1e3acb217fdf82d434be629e5590e6b2334c8786108ddca01a552737fa1d030029",
  "source": "pragma solidity ^0.5.2;\n\nimport \"./Forum.sol\";\nimport \"./CloneFactory.sol\";\n\ncontract ForumFactory is CloneFactory {\n    address cloneForum;\n\n    constructor() public {\n        cloneForum = address(new Forum());\n    }\n\n    function createForum(bytes32 _forumName, address _forumCreator) external returns(address) {\n        address clone = createClone(cloneForum);\n        Forum(clone).initialize(_forumName, msg.sender, _forumCreator);\n        return clone;\n    } \n}",
  "sourcePath": "/Users/jarenlynch/Ethereum/Tartarus/contracts/ForumFactory.sol",
  "compiler": {
    "name": "solc",
    "version": "0.5.2+commit.1df8f40c.Emscripten.clang"
  },
  "schemaVersion": "3.0.6",
  "updatedAt": "2019-04-11T23:40:35.264Z",
  "devdoc": {
    "methods": {}
  },
  "userdoc": {
    "methods": {}
  }
}