{
  "contractName": "Forum",
  "abi": [
    {
      "constant": true,
      "inputs": [],
      "name": "creator",
      "outputs": [
        {
          "name": "",
          "type": "address"
        }
      ],
      "payable": false,
      "stateMutability": "view",
      "type": "function"
    },
    {
      "constant": true,
      "inputs": [],
      "name": "name",
      "outputs": [
        {
          "name": "",
          "type": "bytes32"
        }
      ],
      "payable": false,
      "stateMutability": "view",
      "type": "function"
    },
    {
      "constant": true,
      "inputs": [
        {
          "name": "",
          "type": "uint256"
        }
      ],
      "name": "pinnedPosts",
      "outputs": [
        {
          "name": "",
          "type": "address"
        }
      ],
      "payable": false,
      "stateMutability": "view",
      "type": "function"
    },
    {
      "constant": true,
      "inputs": [],
      "name": "time",
      "outputs": [
        {
          "name": "",
          "type": "uint256"
        }
      ],
      "payable": false,
      "stateMutability": "view",
      "type": "function"
    },
    {
      "constant": true,
      "inputs": [],
      "name": "rules",
      "outputs": [
        {
          "name": "",
          "type": "bytes32"
        }
      ],
      "payable": false,
      "stateMutability": "view",
      "type": "function"
    },
    {
      "constant": false,
      "inputs": [],
      "name": "renounceOwnership",
      "outputs": [],
      "payable": false,
      "stateMutability": "nonpayable",
      "type": "function"
    },
    {
      "constant": true,
      "inputs": [],
      "name": "description",
      "outputs": [
        {
          "name": "",
          "type": "bytes32"
        }
      ],
      "payable": false,
      "stateMutability": "view",
      "type": "function"
    },
    {
      "constant": true,
      "inputs": [],
      "name": "owner",
      "outputs": [
        {
          "name": "",
          "type": "address"
        }
      ],
      "payable": false,
      "stateMutability": "view",
      "type": "function"
    },
    {
      "constant": false,
      "inputs": [
        {
          "name": "_newOwner",
          "type": "address"
        }
      ],
      "name": "transferOwnership",
      "outputs": [],
      "payable": false,
      "stateMutability": "nonpayable",
      "type": "function"
    },
    {
      "anonymous": false,
      "inputs": [
        {
          "indexed": false,
          "name": "userAddress",
          "type": "address"
        }
      ],
      "name": "UserBanned",
      "type": "event"
    },
    {
      "anonymous": false,
      "inputs": [
        {
          "indexed": false,
          "name": "userAddress",
          "type": "address"
        }
      ],
      "name": "ModeratorCreated",
      "type": "event"
    },
    {
      "anonymous": false,
      "inputs": [
        {
          "indexed": true,
          "name": "previousOwner",
          "type": "address"
        }
      ],
      "name": "OwnershipRenounced",
      "type": "event"
    },
    {
      "anonymous": false,
      "inputs": [
        {
          "indexed": true,
          "name": "previousOwner",
          "type": "address"
        },
        {
          "indexed": true,
          "name": "newOwner",
          "type": "address"
        }
      ],
      "name": "OwnershipTransferred",
      "type": "event"
    },
    {
      "constant": false,
      "inputs": [
        {
          "name": "_forumName",
          "type": "bytes32"
        },
        {
          "name": "_forumCreator",
          "type": "address"
        }
      ],
      "name": "initialize",
      "outputs": [],
      "payable": false,
      "stateMutability": "nonpayable",
      "type": "function"
    },
    {
      "constant": false,
      "inputs": [
        {
          "name": "_post",
          "type": "bytes32"
        },
        {
          "name": "_postCreator",
          "type": "address"
        },
        {
          "name": "_clonePost",
          "type": "address"
        }
      ],
      "name": "createPost",
      "outputs": [
        {
          "name": "",
          "type": "address"
        }
      ],
      "payable": false,
      "stateMutability": "nonpayable",
      "type": "function"
    },
    {
      "constant": false,
      "inputs": [
        {
          "name": "_admin",
          "type": "bool"
        },
        {
          "name": "_userAddress",
          "type": "address"
        },
        {
          "name": "_postAddress",
          "type": "address"
        },
        {
          "name": "_suicideAddress",
          "type": "address"
        }
      ],
      "name": "deletePost",
      "outputs": [],
      "payable": false,
      "stateMutability": "nonpayable",
      "type": "function"
    },
    {
      "constant": false,
      "inputs": [
        {
          "name": "_postAddress",
          "type": "address"
        },
        {
          "name": "_userAddress",
          "type": "address"
        }
      ],
      "name": "pinPost",
      "outputs": [],
      "payable": false,
      "stateMutability": "nonpayable",
      "type": "function"
    },
    {
      "constant": false,
      "inputs": [
        {
          "name": "_postAddress",
          "type": "address"
        },
        {
          "name": "_postIndex",
          "type": "uint256"
        },
        {
          "name": "_userAddress",
          "type": "address"
        }
      ],
      "name": "unpinPost",
      "outputs": [],
      "payable": false,
      "stateMutability": "nonpayable",
      "type": "function"
    },
    {
      "constant": false,
      "inputs": [
        {
          "name": "_postAddress",
          "type": "address"
        },
        {
          "name": "_userAddress",
          "type": "address"
        }
      ],
      "name": "upvote",
      "outputs": [],
      "payable": false,
      "stateMutability": "nonpayable",
      "type": "function"
    },
    {
      "constant": false,
      "inputs": [
        {
          "name": "_postAddress",
          "type": "address"
        },
        {
          "name": "_userAddress",
          "type": "address"
        }
      ],
      "name": "downvote",
      "outputs": [],
      "payable": false,
      "stateMutability": "nonpayable",
      "type": "function"
    },
    {
      "constant": false,
      "inputs": [
        {
          "name": "_postAddress",
          "type": "address"
        },
        {
          "name": "_targetAddress",
          "type": "address"
        },
        {
          "name": "_commentCreator",
          "type": "address"
        },
        {
          "name": "_comment",
          "type": "bytes32"
        },
        {
          "name": "_cloneComment",
          "type": "address"
        }
      ],
      "name": "createComment",
      "outputs": [
        {
          "name": "",
          "type": "address"
        }
      ],
      "payable": false,
      "stateMutability": "nonpayable",
      "type": "function"
    },
    {
      "constant": false,
      "inputs": [
        {
          "name": "_admin",
          "type": "bool"
        },
        {
          "name": "_moderatorAddress",
          "type": "address"
        },
        {
          "name": "_postAddress",
          "type": "address"
        },
        {
          "name": "_commentAddress",
          "type": "address"
        },
        {
          "name": "_suicideAddress",
          "type": "address"
        }
      ],
      "name": "deleteComment",
      "outputs": [],
      "payable": false,
      "stateMutability": "nonpayable",
      "type": "function"
    },
    {
      "constant": false,
      "inputs": [
        {
          "name": "_userAddress",
          "type": "address"
        },
        {
          "name": "_moderatorAddress",
          "type": "address"
        }
      ],
      "name": "banUser",
      "outputs": [],
      "payable": false,
      "stateMutability": "nonpayable",
      "type": "function"
    },
    {
      "constant": false,
      "inputs": [
        {
          "name": "_userAddress",
          "type": "address"
        },
        {
          "name": "_moderatorAddress",
          "type": "address"
        }
      ],
      "name": "unbanUser",
      "outputs": [],
      "payable": false,
      "stateMutability": "nonpayable",
      "type": "function"
    },
    {
      "constant": false,
      "inputs": [
        {
          "name": "_rules",
          "type": "bytes32"
        },
        {
          "name": "_moderatorAddress",
          "type": "address"
        }
      ],
      "name": "updateRules",
      "outputs": [],
      "payable": false,
      "stateMutability": "nonpayable",
      "type": "function"
    },
    {
      "constant": false,
      "inputs": [
        {
          "name": "_description",
          "type": "bytes32"
        },
        {
          "name": "_moderatorAddress",
          "type": "address"
        }
      ],
      "name": "updateDescription",
      "outputs": [],
      "payable": false,
      "stateMutability": "nonpayable",
      "type": "function"
    },
    {
      "constant": false,
      "inputs": [
        {
          "name": "_newModeratorAddress",
          "type": "address"
        },
        {
          "name": "_moderatorAddress",
          "type": "address"
        },
        {
          "name": "_ban",
          "type": "bool"
        },
        {
          "name": "_editRules",
          "type": "bool"
        },
        {
          "name": "_editDescription",
          "type": "bool"
        },
        {
          "name": "_editModerators",
          "type": "bool"
        },
        {
          "name": "_deletePost",
          "type": "bool"
        },
        {
          "name": "_deleteComment",
          "type": "bool"
        }
      ],
      "name": "createModerator",
      "outputs": [],
      "payable": false,
      "stateMutability": "nonpayable",
      "type": "function"
    },
    {
      "constant": false,
      "inputs": [
        {
          "name": "_targetModeratorAddress",
          "type": "address"
        },
        {
          "name": "_moderatorAddress",
          "type": "address"
        }
      ],
      "name": "removeModerator",
      "outputs": [],
      "payable": false,
      "stateMutability": "nonpayable",
      "type": "function"
    },
    {
      "constant": false,
      "inputs": [
        {
          "name": "_admin",
          "type": "bool"
        },
        {
          "name": "_userAddress",
          "type": "address"
        },
        {
          "name": "_suicideAddress",
          "type": "address"
        }
      ],
      "name": "deleteForum",
      "outputs": [],
      "payable": false,
      "stateMutability": "nonpayable",
      "type": "function"
    }
  ],
  "bytecode": "0x608060405260008054600160a060020a03191633179055611a2f806100256000396000f3fe608060405234801561001057600080fd5b50600436106101775760003560e060020a900480636c3993e7116100e2578063c965d3111161009b578063f28d4bce11610075578063f28d4bce146104be578063f2fde38b146104f2578063fa477a4914610518578063ff22370c1461055e57610177565b8063c965d3111461042e578063d8705f2514610464578063e3c0d8b91461049257610177565b80636c3993e714610374578063715018a6146103ba5780637284e416146103c25780638da5cb5b146103ca578063adcddc58146103d2578063b10d6b461461040057610177565b8063243d148811610134578063243d148814610270578063289b4a551461029c5780632ae434f3146102ca578063404628c61461030057806352f6747a146103405780636910e3341461034857610177565b806302d05d3f1461017c57806306fdde03146101a0578063123f0a48146101ba57806316ada547146101d75780631c732557146101df5780631f31752014610242575b600080fd5b61018461058c565b60408051600160a060020a039092168252519081900360200190f35b6101a861059b565b60408051918252519081900360200190f35b610184600480360360208110156101d057600080fd5b50356105a1565b6101a86105c9565b61024060048036036101008110156101f657600080fd5b50600160a060020a03813581169160208101359091169060408101351515906060810135151590608081013515159060a081013515159060c081013515159060e0013515156105cf565b005b6102406004803603604081101561025857600080fd5b50600160a060020a0381358116916020013516610759565b6102406004803603604081101561028657600080fd5b5080359060200135600160a060020a03166107ff565b610240600480360360408110156102b257600080fd5b50600160a060020a0381358116916020013516610881565b610240600480360360608110156102e057600080fd5b508035151590600160a060020a03602082013581169160400135166109ce565b6102406004803603608081101561031657600080fd5b508035151590600160a060020a036020820135811691604081013582169160609091013516610a4e565b6101a8610b97565b6102406004803603604081101561035e57600080fd5b5080359060200135600160a060020a0316610b9d565b610184600480360360a081101561038a57600080fd5b50600160a060020a0381358116916020810135821691604082013581169160608101359160809091013516610c42565b610240610dde565b6101a8610e4a565b610184610e50565b610240600480360360408110156103e857600080fd5b50600160a060020a0381358116916020013516610e5f565b6102406004803603604081101561041657600080fd5b50600160a060020a0381358116916020013516610f6c565b6102406004803603606081101561044457600080fd5b50600160a060020a03813581169160208101359160409091013516611077565b6102406004803603604081101561047a57600080fd5b50600160a060020a03813581169160200135166112b9565b610240600480360360408110156104a857600080fd5b5080359060200135600160a060020a03166113ea565b610184600480360360608110156104d457600080fd5b50803590600160a060020a036020820135811691604001351661146d565b6102406004803603602081101561050857600080fd5b5035600160a060020a0316611598565b610240600480360360a081101561052e57600080fd5b508035151590600160a060020a0360208201358116916040810135821691606082013581169160800135166115bb565b6102406004803603604081101561057457600080fd5b50600160a060020a03813581169160200135166116ee565b600854600160a060020a031681565b60055481565b60098054829081106105af57fe5b600091825260209091200154600160a060020a0316905081565b60045481565b600054600160a060020a031633146105e657600080fd5b600160a060020a0387166000908152600160205260409020546301000000900460ff16151561064d576040805160e560020a62461bcd02815260206004820152601d60248201526000805160206119e4833981519152604482015290519081900360640190fd5b61065561191d565b9515158652931515602080870191825293151560408088019182529315156060880190815292151560a0880190815295151560c08801908152600160a060020a03999099166000908152600190955292909320855181549451935192516080909701519551985160ff199095169015151761ff001916610100931515939093029290921762ff0000191662010000911515919091021763ff00000019166301000000941515949094029390931764ff000000001916640100000000921515929092029190911765ff0000000000191665010000000000941515949094029390931766ff00000000000019166601000000000000931515939093029290921790915550565b600054600160a060020a0316331461077057600080fd5b600160a060020a0381166000908152600160205260409020546301000000900460ff1615156107d7576040805160e560020a62461bcd02815260206004820152601d60248201526000805160206119e4833981519152604482015290519081900360640190fd5b50600160a060020a03166000908152600160205260409020805466ffffffffffffff19169055565b600054600160a060020a0316331461081657600080fd5b600160a060020a038116600090815260016020526040902054610100900460ff16151561087b576040805160e560020a62461bcd02815260206004820152601d60248201526000805160206119e4833981519152604482015290519081900360640190fd5b50600655565b600054600160a060020a0316331461089857600080fd5b600160a060020a03821660009081526003602052604090205460ff1615156108f8576040805160e560020a62461bcd02815260206004820152601360248201526000805160206119c4833981519152604482015290519081900360640190fd5b600160a060020a03811660009081526002602052604090205460ff1615610957576040805160e560020a62461bcd02815260206004820152601e60248201526000805160206119a4833981519152604482015290519081900360640190fd5b81600160a060020a03166389179bdb826040518263ffffffff1660e060020a0281526004018082600160a060020a0316600160a060020a03168152602001915050600060405180830381600087803b1580156109b257600080fd5b505af11580156109c6573d6000803e3d6000fd5b505050505050565b600054600160a060020a031633146109e557600080fd5b82806109fe5750600854600160a060020a038381169116145b1515610a42576040805160e560020a62461bcd02815260206004820152601d60248201526000805160206119e4833981519152604482015290519081900360640190fd5b80600160a060020a0316ff5b600054600160a060020a03163314610a6557600080fd5b600160a060020a03821660009081526003602052604090205460ff161515610ac5576040805160e560020a62461bcd02815260206004820152601360248201526000805160206119c4833981519152604482015290519081900360640190fd5b600160a060020a038381166000818152600160205260408082205481517f58cd149700000000000000000000000000000000000000000000000000000000815289151560048201526501000000000090910460ff16151560248201526044810193909352848416606484015251928516926358cd149792608480820193929182900301818387803b158015610b5957600080fd5b505af1158015610b6d573d6000803e3d6000fd5b505050600160a060020a039092166000908152600360205260409020805460ff1916905550505050565b60065481565b600054600160a060020a031615610bfe576040805160e560020a62461bcd02815260206004820152600860248201527f4e69636520747279000000000000000000000000000000000000000000000000604482015290519081900360640190fd5b600080543373ffffffffffffffffffffffffffffffffffffffff19918216179091556005929092554260045560088054909216600160a060020a0391909116179055565b60008054600160a060020a03163314610c5a57600080fd5b600160a060020a03861660009081526003602052604090205460ff161515610ccc576040805160e560020a62461bcd02815260206004820152601460248201527f506f737420646f6573206e6f742065786973742e000000000000000000000000604482015290519081900360640190fd5b600160a060020a03841660009081526002602052604090205460ff1615610d2b576040805160e560020a62461bcd02815260206004820152601e60248201526000805160206119a4833981519152604482015290519081900360640190fd5b604080517f399cd856000000000000000000000000000000000000000000000000000000008152600160a060020a0387811660048301528681166024830152604482018690528481166064830152915160009289169163399cd85691608480830192602092919082900301818787803b158015610da757600080fd5b505af1158015610dbb573d6000803e3d6000fd5b505050506040513d6020811015610dd157600080fd5b5051979650505050505050565b600054600160a060020a03163314610df557600080fd5b60008054604051600160a060020a03909116917ff8df31144d9c2f0f6b59d69b8b98abd5459d07f2742c4df920b25aae33c6482091a26000805473ffffffffffffffffffffffffffffffffffffffff19169055565b60075481565b600054600160a060020a031681565b600054600160a060020a03163314610e7657600080fd5b600160a060020a03821660009081526002602052604090205460ff1615610ee7576040805160e560020a62461bcd02815260206004820152601360248201527f5573657220616c72656164792062616e6e656400000000000000000000000000604482015290519081900360640190fd5b600160a060020a03811660009081526001602052604090205460ff161515610f47576040805160e560020a62461bcd02815260206004820152601d60248201526000805160206119e4833981519152604482015290519081900360640190fd5b50600160a060020a03166000908152600260205260409020805460ff19166001179055565b600054600160a060020a03163314610f8357600080fd5b600160a060020a03821660009081526002602052604090205460ff161515610ff5576040805160e560020a62461bcd02815260206004820152600f60248201527f55736572206e6f742062616e6e65640000000000000000000000000000000000604482015290519081900360640190fd5b600160a060020a03811660009081526001602052604090205460ff161515611055576040805160e560020a62461bcd02815260206004820152601d60248201526000805160206119e4833981519152604482015290519081900360640190fd5b50600160a060020a03166000908152600260205260409020805460ff19169055565b600054600160a060020a0316331461108e57600080fd5b600160a060020a03831660009081526003602052604090205460ff1615156110ee576040805160e560020a62461bcd02815260206004820152601360248201526000805160206119c4833981519152604482015290519081900360640190fd5b600160a060020a038116600090815260016020526040902054640100000000900460ff161515611156576040805160e560020a62461bcd02815260206004820152601d60248201526000805160206119e4833981519152604482015290519081900360640190fd5b60095482106111af576040805160e560020a62461bcd02815260206004820152600d60248201527f496e76616c696420696e64657800000000000000000000000000000000000000604482015290519081900360640190fd5b82600160a060020a03166009838154811015156111c857fe5b600091825260209091200154600160a060020a031614611232576040805160e560020a62461bcd02815260206004820152601560248201527f50696e6e656420706f7374206e6f7420666f756e640000000000000000000000604482015290519081900360640190fd5b60098054600019810190811061124457fe5b60009182526020909120015460098054600160a060020a03909216918490811061126a57fe5b6000918252602090912001805473ffffffffffffffffffffffffffffffffffffffff1916600160a060020a039290921691909117905560098054906112b3906000198301611959565b50505050565b600054600160a060020a031633146112d057600080fd5b600160a060020a03821660009081526003602052604090205460ff161515611330576040805160e560020a62461bcd02815260206004820152601360248201526000805160206119c4833981519152604482015290519081900360640190fd5b600160a060020a03811660009081526002602052604090205460ff161561138f576040805160e560020a62461bcd02815260206004820152601e60248201526000805160206119a4833981519152604482015290519081900360640190fd5b81600160a060020a0316630839b596826040518263ffffffff1660e060020a0281526004018082600160a060020a0316600160a060020a03168152602001915050600060405180830381600087803b1580156109b257600080fd5b600054600160a060020a0316331461140157600080fd5b600160a060020a03811660009081526001602052604090205462010000900460ff161515611467576040805160e560020a62461bcd02815260206004820152601d60248201526000805160206119e4833981519152604482015290519081900360640190fd5b50600755565b60008054600160a060020a0316331461148557600080fd5b600160a060020a03831660009081526002602052604090205460ff16156114e4576040805160e560020a62461bcd02815260206004820152601e60248201526000805160206119a4833981519152604482015290519081900360640190fd5b60006114ef8361182d565b905080600160a060020a0316636910e33486866040518363ffffffff1660e060020a0281526004018083815260200182600160a060020a0316600160a060020a0316815260200192505050600060405180830381600087803b15801561155457600080fd5b505af1158015611568573d6000803e3d6000fd5b505050600160a060020a0382166000908152600360205260409020805460ff191660011790555090509392505050565b600054600160a060020a031633146115af57600080fd5b6115b8816118a0565b50565b600054600160a060020a031633146115d257600080fd5b600160a060020a03831660009081526003602052604090205460ff161515611632576040805160e560020a62461bcd02815260206004820152601360248201526000805160206119c4833981519152604482015290519081900360640190fd5b600160a060020a038481166000818152600160205260408082205481517f8a6955f40000000000000000000000000000000000000000000000000000000081528a15156004820152660100000000000090910460ff16151560248201526044810193909352858416606484015284841660848401525192861692638a6955f49260a480820193929182900301818387803b1580156116cf57600080fd5b505af11580156116e3573d6000803e3d6000fd5b505050505050505050565b600054600160a060020a0316331461170557600080fd5b600160a060020a03821660009081526003602052604090205460ff161515611765576040805160e560020a62461bcd02815260206004820152601360248201526000805160206119c4833981519152604482015290519081900360640190fd5b600160a060020a038116600090815260016020526040902054640100000000900460ff1615156117cd576040805160e560020a62461bcd02815260206004820152601d60248201526000805160206119e4833981519152604482015290519081900360640190fd5b50600980546001810182556000919091527f6e1540171b6c0c960b71a7020d9f60077f6af931a8bbf590da0223dacf75c7af01805473ffffffffffffffffffffffffffffffffffffffff1916600160a060020a0392909216919091179055565b6040517f3d602d80600a3d3981f3363d3d373d3d3d363d7300000000000000000000000081526c010000000000000000000000008202601482018190527f5af43d82803e903d91602b57fd5bf30000000000000000000000000000000000602883015260009160378184f0949350505050565b600160a060020a03811615156118b557600080fd5b60008054604051600160a060020a03808516939216917f8be0079c531659141344cd1fd0a4f28419497f9722a3daafe3b4186f6b6457e091a36000805473ffffffffffffffffffffffffffffffffffffffff1916600160a060020a0392909216919091179055565b6040805160e081018252600080825260208201819052918101829052606081018290526080810182905260a0810182905260c081019190915290565b81548183558181111561197d5760008381526020902061197d918101908301611982565b505050565b6119a091905b8082111561199c5760008155600101611988565b5090565b9056fe557365722069732062616e6e65642066726f6d207468697320666f72756d0000506f737420646f6573206e6f74206578697374000000000000000000000000005573657220646f6573206e6f742068617665207065726d697373696f6e000000a165627a7a72305820b4ee24c47b5da58c582361af29f99532002294a7ba4e7b5ec23fb287622f9db10029",
  "source": "pragma solidity ^0.5.2;\n\nimport \"./Post.sol\"; \nimport \"./User.sol\"; \nimport \"./CloneFactory.sol\";\n\ncontract Forum is Ownable, CloneFactory {\n    event UserBanned(address userAddress);\n    event ModeratorCreated(address userAddress);\n\n    mapping(address => ModeratorPermissions) moderators;\n    mapping(address => bool) banned;\n    mapping(address => bool) posts;\n\n    uint public time;\n    bytes32 public name;\n    bytes32 public rules;\n    bytes32 public description;\n    address public creator;\n    address[] public pinnedPosts;\n\n    struct ModeratorPermissions {\n        bool ban;\n        bool editRules;\n        bool editDescription;\n        bool editModerator;\n        bool editPinned;\n        bool deletePost;\n        bool deleteComment;\n    }\n\n    function initialize(bytes32 _forumName, address _forumCreator) external {\n        require(owner == address(0), \"Nice try\");\n        owner = msg.sender;\n        name = _forumName;\n        time = now;\n        creator = _forumCreator;\n    }\n\n    function createPost(bytes32 _post, address _postCreator, address _clonePost) external onlyOwner returns(address){\n        require(!banned[_postCreator], \"User is banned from this forum\");\n        address newPostAddress = createClone(_clonePost);\n        Post(newPostAddress).initialize(_post, _postCreator);\n        posts[newPostAddress] = true;\n        return newPostAddress;\n    }\n\n    function deletePost(\n        bool _admin, address _userAddress, address _postAddress, address payable _suicideAddress\n    ) external onlyOwner {\n        require(posts[_postAddress], \"Post does not exist\");\n        Post(_postAddress).deletePost(_admin, moderators[_userAddress].deletePost, _userAddress, _suicideAddress);\n        delete(posts[_postAddress]);\n    }\n\n    function pinPost(address _postAddress, address _userAddress) external onlyOwner {\n        require(posts[_postAddress], \"Post does not exist\");\n        require(\n            moderators[_userAddress].editPinned, \n            \"User does not have permission\"\n        );\n        pinnedPosts.push(_postAddress);\n    }\n\n    function unpinPost(address _postAddress, uint _postIndex, address _userAddress) external onlyOwner {\n        require(posts[_postAddress], \"Post does not exist\");\n        require(\n            moderators[_userAddress].editPinned, \n            \"User does not have permission\"\n        );\n        require(pinnedPosts.length > _postIndex, \"Invalid index\");\n        require(pinnedPosts[_postIndex] == _postAddress, \"Pinned post not found\");\n        pinnedPosts[_postIndex] = pinnedPosts[pinnedPosts.length - 1];\n        pinnedPosts.length--;\n    }\n\n    function upvote(address _postAddress, address _userAddress) external onlyOwner {\n        require(posts[_postAddress], \"Post does not exist\");\n        require(!banned[_userAddress], \"User is banned from this forum\");\n        Post(_postAddress).upvote(_userAddress);\n    }\n\n    function downvote(address _postAddress, address _userAddress) external onlyOwner {\n        require(posts[_postAddress], \"Post does not exist\");\n        require(!banned[_userAddress], \"User is banned from this forum\");\n        Post(_postAddress).downvote(_userAddress);\n    }\n\n    function createComment(address _postAddress, address _targetAddress, address _commentCreator, bytes32 _comment, address _cloneComment) \n    external onlyOwner returns(address) {\n        require(posts[_postAddress], \"Post does not exist.\");\n        require(!banned[_commentCreator], \"User is banned from this forum\");\n        address newCommentAddress = Post(_postAddress).createComment(_targetAddress, _commentCreator, _comment, _cloneComment);\n        return newCommentAddress;\n    }\n\n    function deleteComment(\n        bool _admin, \n        address _moderatorAddress, \n        address _postAddress, \n        address _commentAddress, \n        address payable _suicideAddress\n    ) external onlyOwner {\n        require(posts[_postAddress], \"Post does not exist\");\n        Post(_postAddress).deleteComment(\n            _admin, \n            moderators[_moderatorAddress].deleteComment, \n            _moderatorAddress,\n            _commentAddress, \n            _suicideAddress\n        );\n    }\n\n    function banUser(address _userAddress, address _moderatorAddress) external onlyOwner {\n        require(!banned[_userAddress], \"User already banned\");\n        require(moderators[_moderatorAddress].ban, \"User does not have permission\");\n        banned[_userAddress] = true;\n    }\n\n    function unbanUser(address _userAddress, address _moderatorAddress) external onlyOwner {\n        require(banned[_userAddress], \"User not banned\");\n        require(moderators[_moderatorAddress].ban, \"User does not have permission\");\n        delete banned[_userAddress];\n    }\n\n    function updateRules(bytes32 _rules, address _moderatorAddress) external onlyOwner {\n        require (moderators[_moderatorAddress].editRules, \"User does not have permission\");\n        rules = _rules;\n    }\n\n    function updateDescription(bytes32 _description, address _moderatorAddress) external onlyOwner {\n        require (moderators[_moderatorAddress].editDescription, \"User does not have permission\");\n        description = _description;\n    }\n\n    function createModerator(\n        address _newModeratorAddress, \n        address _moderatorAddress,\n        bool _ban, \n        bool _editRules, \n        bool _editDescription, \n        bool _editModerators, \n        bool _deletePost, \n        bool _deleteComment) external onlyOwner {\n        require (moderators[_moderatorAddress].editModerator, \"User does not have permission\");\n        ModeratorPermissions memory newModeratorPermissions;\n        newModeratorPermissions.ban = _ban;\n        newModeratorPermissions.editRules = _editRules;\n        newModeratorPermissions.editDescription = _editDescription;\n        newModeratorPermissions.editModerator = _editModerators;\n        newModeratorPermissions.deletePost = _deletePost;\n        newModeratorPermissions.deleteComment = _deleteComment;\n        moderators[_newModeratorAddress] = newModeratorPermissions;\n    }\n\n    function removeModerator(address _targetModeratorAddress, address _moderatorAddress) external onlyOwner {\n        require (moderators[_moderatorAddress].editModerator, \"User does not have permission\");\n        delete moderators[_targetModeratorAddress];\n    }\n\n    function deleteForum(bool _admin, address _userAddress, address payable _suicideAddress) external onlyOwner {\n        require(\n            _admin || \n            _userAddress == creator, \n            \"User does not have permission\"\n        );\n        selfdestruct(_suicideAddress);\n    }\n}",
  "sourcePath": "/Users/jarenlynch/Ethereum/Tartarus/contracts/Forum.sol",
  "compiler": {
    "name": "solc",
    "version": "0.5.2+commit.1df8f40c.Emscripten.clang"
  },
  "schemaVersion": "3.0.6",
  "updatedAt": "2019-04-10T08:06:45.696Z",
  "devdoc": {
    "methods": {
      "renounceOwnership()": {
        "details": "Allows the current owner to relinquish control of the contract."
      },
      "transferOwnership(address)": {
        "details": "Allows the current owner to transfer control of the contract to a newOwner.",
        "params": {
          "_newOwner": "The address to transfer ownership to."
        }
      }
    }
  },
  "userdoc": {
    "methods": {
      "renounceOwnership()": {
        "notice": "Renouncing to ownership will leave the contract without an owner. It will not be possible to call the functions with the `onlyOwner` modifier anymore."
      }
    }
  }
}