{
  "contractName": "ForumFactory",
  "abi": [
    {
      "inputs": [],
      "payable": false,
      "stateMutability": "nonpayable",
      "type": "constructor",
      "signature": "constructor"
    },
    {
      "constant": false,
      "inputs": [
        {
          "name": "_forumName",
          "type": "bytes32"
        },
        {
          "name": "_forumCreator",
          "type": "address"
        }
      ],
      "name": "createForum",
      "outputs": [
        {
          "name": "",
          "type": "address"
        }
      ],
      "payable": false,
      "stateMutability": "nonpayable",
      "type": "function",
      "signature": "0x733677b7"
    }
  ],
  "bytecode": "0x608060405234801561001057600080fd5b5061001961005b565b604051809103906000f080158015610035573d6000803e3d6000fd5b5060008054600160a060020a031916600160a060020a039290921691909117905561006b565b6040516119fa8061028d83390190565b6102138061007a6000396000f3fe608060405234801561001057600080fd5b5060043610610047577c01000000000000000000000000000000000000000000000000000000006000350463733677b7811461004c575b600080fd5b6100856004803603604081101561006257600080fd5b508035906020013573ffffffffffffffffffffffffffffffffffffffff166100ae565b6040805173ffffffffffffffffffffffffffffffffffffffff9092168252519081900360200190f35b6000805481906100d39073ffffffffffffffffffffffffffffffffffffffff16610174565b604080517f88b117b30000000000000000000000000000000000000000000000000000000081526004810187905233602482015273ffffffffffffffffffffffffffffffffffffffff86811660448301529151929350908316916388b117b39160648082019260009290919082900301818387803b15801561015457600080fd5b505af1158015610168573d6000803e3d6000fd5b50929695505050505050565b6040517f3d602d80600a3d3981f3363d3d373d3d3d363d7300000000000000000000000081526c010000000000000000000000008202601482018190527f5af43d82803e903d91602b57fd5bf30000000000000000000000000000000000602883015260009160378184f094935050505056fea165627a7a72305820d0aa7dfd811e283e4ad262af1226cfcd56370c4ae24717f75e0e4db70cbe72fd0029608060405260008054600160a060020a031916331790556119d5806100256000396000f3fe608060405234801561001057600080fd5b50600436106101775760003560e060020a90048063715018a6116100e2578063c965d3111161009b578063f28d4bce11610075578063f28d4bce146104c6578063f2fde38b146104fa578063fa477a4914610520578063ff22370c1461056657610177565b8063c965d31114610436578063d8705f251461046c578063e3c0d8b91461049a57610177565b8063715018a61461038e5780637284e4161461039657806388b117b31461039e5780638da5cb5b146103d2578063adcddc58146103da578063b10d6b461461040857610177565b8063243d148811610134578063243d148814610270578063289b4a551461029c5780632ae434f3146102ca578063404628c61461030057806352f6747a146103405780636c3993e71461034857610177565b806302d05d3f1461017c57806306fdde03146101a0578063123f0a48146101ba57806316ada547146101d75780631c732557146101df5780631f31752014610242575b600080fd5b610184610594565b60408051600160a060020a039092168252519081900360200190f35b6101a86105a3565b60408051918252519081900360200190f35b610184600480360360208110156101d057600080fd5b50356105a9565b6101a86105d1565b61024060048036036101008110156101f657600080fd5b50600160a060020a03813581169160208101359091169060408101351515906060810135151590608081013515159060a081013515159060c081013515159060e0013515156105d7565b005b6102406004803603604081101561025857600080fd5b50600160a060020a0381358116916020013516610761565b6102406004803603604081101561028657600080fd5b5080359060200135600160a060020a0316610807565b610240600480360360408110156102b257600080fd5b50600160a060020a0381358116916020013516610889565b610240600480360360608110156102e057600080fd5b508035151590600160a060020a03602082013581169160400135166109d6565b6102406004803603608081101561031657600080fd5b508035151590600160a060020a036020820135811691604081013582169160609091013516610a56565b6101a8610b9f565b610184600480360360a081101561035e57600080fd5b50600160a060020a0381358116916020810135821691604082013581169160608101359160809091013516610ba5565b610240610d41565b6101a8610dad565b610240600480360360608110156103b457600080fd5b50803590600160a060020a0360208201358116916040013516610db3565b610184610e58565b610240600480360360408110156103f057600080fd5b50600160a060020a0381358116916020013516610e67565b6102406004803603604081101561041e57600080fd5b50600160a060020a0381358116916020013516610f74565b6102406004803603606081101561044c57600080fd5b50600160a060020a0381358116916020810135916040909101351661107f565b6102406004803603604081101561048257600080fd5b50600160a060020a03813581169160200135166112c1565b610240600480360360408110156104b057600080fd5b5080359060200135600160a060020a03166113f2565b610184600480360360608110156104dc57600080fd5b50803590600160a060020a0360208201358116916040013516611475565b6102406004803603602081101561051057600080fd5b5035600160a060020a03166115b1565b610240600480360360a081101561053657600080fd5b508035151590600160a060020a0360208201358116916040810135821691606082013581169160800135166115d4565b6102406004803603604081101561057c57600080fd5b50600160a060020a0381358116916020013516611707565b600854600160a060020a031681565b60055481565b60098054829081106105b757fe5b600091825260209091200154600160a060020a0316905081565b60045481565b600054600160a060020a031633146105ee57600080fd5b600160a060020a0387166000908152600160205260409020546301000000900460ff161515610655576040805160e560020a62461bcd02815260206004820152601d602482015260008051602061198a833981519152604482015290519081900360640190fd5b61065d6118c3565b9515158652931515602080870191825293151560408088019182529315156060880190815292151560a0880190815295151560c08801908152600160a060020a03999099166000908152600190955292909320855181549451935192516080909701519551985160ff199095169015151761ff001916610100931515939093029290921762ff0000191662010000911515919091021763ff00000019166301000000941515949094029390931764ff000000001916640100000000921515929092029190911765ff0000000000191665010000000000941515949094029390931766ff00000000000019166601000000000000931515939093029290921790915550565b600054600160a060020a0316331461077857600080fd5b600160a060020a0381166000908152600160205260409020546301000000900460ff1615156107df576040805160e560020a62461bcd02815260206004820152601d602482015260008051602061198a833981519152604482015290519081900360640190fd5b50600160a060020a03166000908152600160205260409020805466ffffffffffffff19169055565b600054600160a060020a0316331461081e57600080fd5b600160a060020a038116600090815260016020526040902054610100900460ff161515610883576040805160e560020a62461bcd02815260206004820152601d602482015260008051602061198a833981519152604482015290519081900360640190fd5b50600655565b600054600160a060020a031633146108a057600080fd5b600160a060020a03821660009081526003602052604090205460ff161515610900576040805160e560020a62461bcd028152602060048201526013602482015260008051602061196a833981519152604482015290519081900360640190fd5b600160a060020a03811660009081526002602052604090205460ff161561095f576040805160e560020a62461bcd02815260206004820152601e602482015260008051602061194a833981519152604482015290519081900360640190fd5b81600160a060020a03166389179bdb826040518263ffffffff1660e060020a0281526004018082600160a060020a0316600160a060020a03168152602001915050600060405180830381600087803b1580156109ba57600080fd5b505af11580156109ce573d6000803e3d6000fd5b505050505050565b600054600160a060020a031633146109ed57600080fd5b8280610a065750600854600160a060020a038381169116145b1515610a4a576040805160e560020a62461bcd02815260206004820152601d602482015260008051602061198a833981519152604482015290519081900360640190fd5b80600160a060020a0316ff5b600054600160a060020a03163314610a6d57600080fd5b600160a060020a03821660009081526003602052604090205460ff161515610acd576040805160e560020a62461bcd028152602060048201526013602482015260008051602061196a833981519152604482015290519081900360640190fd5b600160a060020a038381166000818152600160205260408082205481517f58cd149700000000000000000000000000000000000000000000000000000000815289151560048201526501000000000090910460ff16151560248201526044810193909352848416606484015251928516926358cd149792608480820193929182900301818387803b158015610b6157600080fd5b505af1158015610b75573d6000803e3d6000fd5b505050600160a060020a039092166000908152600360205260409020805460ff1916905550505050565b60065481565b60008054600160a060020a03163314610bbd57600080fd5b600160a060020a03861660009081526003602052604090205460ff161515610c2f576040805160e560020a62461bcd02815260206004820152601460248201527f506f737420646f6573206e6f742065786973742e000000000000000000000000604482015290519081900360640190fd5b600160a060020a03841660009081526002602052604090205460ff1615610c8e576040805160e560020a62461bcd02815260206004820152601e602482015260008051602061194a833981519152604482015290519081900360640190fd5b604080517f399cd856000000000000000000000000000000000000000000000000000000008152600160a060020a0387811660048301528681166024830152604482018690528481166064830152915160009289169163399cd85691608480830192602092919082900301818787803b158015610d0a57600080fd5b505af1158015610d1e573d6000803e3d6000fd5b505050506040513d6020811015610d3457600080fd5b5051979650505050505050565b600054600160a060020a03163314610d5857600080fd5b60008054604051600160a060020a03909116917ff8df31144d9c2f0f6b59d69b8b98abd5459d07f2742c4df920b25aae33c6482091a26000805473ffffffffffffffffffffffffffffffffffffffff19169055565b60075481565b600054600160a060020a031615610e14576040805160e560020a62461bcd02815260206004820152600860248201527f4e69636520747279000000000000000000000000000000000000000000000000604482015290519081900360640190fd5b6000805473ffffffffffffffffffffffffffffffffffffffff19908116600160a060020a039485161790915560059390935542600455600880549093169116179055565b600054600160a060020a031681565b600054600160a060020a03163314610e7e57600080fd5b600160a060020a03821660009081526002602052604090205460ff1615610eef576040805160e560020a62461bcd02815260206004820152601360248201527f5573657220616c72656164792062616e6e656400000000000000000000000000604482015290519081900360640190fd5b600160a060020a03811660009081526001602052604090205460ff161515610f4f576040805160e560020a62461bcd02815260206004820152601d602482015260008051602061198a833981519152604482015290519081900360640190fd5b50600160a060020a03166000908152600260205260409020805460ff19166001179055565b600054600160a060020a03163314610f8b57600080fd5b600160a060020a03821660009081526002602052604090205460ff161515610ffd576040805160e560020a62461bcd02815260206004820152600f60248201527f55736572206e6f742062616e6e65640000000000000000000000000000000000604482015290519081900360640190fd5b600160a060020a03811660009081526001602052604090205460ff16151561105d576040805160e560020a62461bcd02815260206004820152601d602482015260008051602061198a833981519152604482015290519081900360640190fd5b50600160a060020a03166000908152600260205260409020805460ff19169055565b600054600160a060020a0316331461109657600080fd5b600160a060020a03831660009081526003602052604090205460ff1615156110f6576040805160e560020a62461bcd028152602060048201526013602482015260008051602061196a833981519152604482015290519081900360640190fd5b600160a060020a038116600090815260016020526040902054640100000000900460ff16151561115e576040805160e560020a62461bcd02815260206004820152601d602482015260008051602061198a833981519152604482015290519081900360640190fd5b60095482106111b7576040805160e560020a62461bcd02815260206004820152600d60248201527f496e76616c696420696e64657800000000000000000000000000000000000000604482015290519081900360640190fd5b82600160a060020a03166009838154811015156111d057fe5b600091825260209091200154600160a060020a03161461123a576040805160e560020a62461bcd02815260206004820152601560248201527f50696e6e656420706f7374206e6f7420666f756e640000000000000000000000604482015290519081900360640190fd5b60098054600019810190811061124c57fe5b60009182526020909120015460098054600160a060020a03909216918490811061127257fe5b6000918252602090912001805473ffffffffffffffffffffffffffffffffffffffff1916600160a060020a039290921691909117905560098054906112bb9060001983016118ff565b50505050565b600054600160a060020a031633146112d857600080fd5b600160a060020a03821660009081526003602052604090205460ff161515611338576040805160e560020a62461bcd028152602060048201526013602482015260008051602061196a833981519152604482015290519081900360640190fd5b600160a060020a03811660009081526002602052604090205460ff1615611397576040805160e560020a62461bcd02815260206004820152601e602482015260008051602061194a833981519152604482015290519081900360640190fd5b81600160a060020a0316630839b596826040518263ffffffff1660e060020a0281526004018082600160a060020a0316600160a060020a03168152602001915050600060405180830381600087803b1580156109ba57600080fd5b600054600160a060020a0316331461140957600080fd5b600160a060020a03811660009081526001602052604090205462010000900460ff16151561146f576040805160e560020a62461bcd02815260206004820152601d602482015260008051602061198a833981519152604482015290519081900360640190fd5b50600755565b60008054600160a060020a0316331461148d57600080fd5b600160a060020a03831660009081526002602052604090205460ff16156114ec576040805160e560020a62461bcd02815260206004820152601e602482015260008051602061194a833981519152604482015290519081900360640190fd5b604080517f9dc0070c00000000000000000000000000000000000000000000000000000000815260048101869052600160a060020a0385811660248301529151600092851691639dc0070c91604480830192602092919082900301818787803b15801561155857600080fd5b505af115801561156c573d6000803e3d6000fd5b505050506040513d602081101561158257600080fd5b5051600160a060020a0381166000908152600360205260409020805460ff191660011790559150509392505050565b600054600160a060020a031633146115c857600080fd5b6115d181611846565b50565b600054600160a060020a031633146115eb57600080fd5b600160a060020a03831660009081526003602052604090205460ff16151561164b576040805160e560020a62461bcd028152602060048201526013602482015260008051602061196a833981519152604482015290519081900360640190fd5b600160a060020a038481166000818152600160205260408082205481517f8a6955f40000000000000000000000000000000000000000000000000000000081528a15156004820152660100000000000090910460ff16151560248201526044810193909352858416606484015284841660848401525192861692638a6955f49260a480820193929182900301818387803b1580156116e857600080fd5b505af11580156116fc573d6000803e3d6000fd5b505050505050505050565b600054600160a060020a0316331461171e57600080fd5b600160a060020a03821660009081526003602052604090205460ff16151561177e576040805160e560020a62461bcd028152602060048201526013602482015260008051602061196a833981519152604482015290519081900360640190fd5b600160a060020a038116600090815260016020526040902054640100000000900460ff1615156117e6576040805160e560020a62461bcd02815260206004820152601d602482015260008051602061198a833981519152604482015290519081900360640190fd5b50600980546001810182556000919091527f6e1540171b6c0c960b71a7020d9f60077f6af931a8bbf590da0223dacf75c7af01805473ffffffffffffffffffffffffffffffffffffffff1916600160a060020a0392909216919091179055565b600160a060020a038116151561185b57600080fd5b60008054604051600160a060020a03808516939216917f8be0079c531659141344cd1fd0a4f28419497f9722a3daafe3b4186f6b6457e091a36000805473ffffffffffffffffffffffffffffffffffffffff1916600160a060020a0392909216919091179055565b6040805160e081018252600080825260208201819052918101829052606081018290526080810182905260a0810182905260c081019190915290565b81548183558181111561192357600083815260209020611923918101908301611928565b505050565b61194691905b80821115611942576000815560010161192e565b5090565b9056fe557365722069732062616e6e65642066726f6d207468697320666f72756d0000506f737420646f6573206e6f74206578697374000000000000000000000000005573657220646f6573206e6f742068617665207065726d697373696f6e000000a165627a7a72305820bbd4d4ecb7e5d517e1c0e1cd742dfe2f0088137055aa25ffc297b5ca2d5cd24d0029",
  "source": "pragma solidity ^0.5.2;\n\nimport \"./Forum.sol\";\nimport \"./CloneFactory.sol\";\n\ncontract ForumFactory is CloneFactory {\n    address cloneForum;\n\n    constructor() public {\n        cloneForum = address(new Forum());\n    }\n\n    function createForum(bytes32 _forumName, address _forumCreator) external returns(address) {\n        address clone = createClone(cloneForum);\n        Forum(clone).initialize(_forumName, msg.sender, _forumCreator);\n        return clone;\n    } \n}",
  "sourcePath": "/Users/jarenlynch/Ethereum/Tartarus/contracts/ForumFactory.sol",
  "compiler": {
    "name": "solc",
    "version": "0.5.2+commit.1df8f40c.Emscripten.clang"
  },
  "schemaVersion": "3.0.6",
  "updatedAt": "2019-04-11T00:14:02.404Z",
  "devdoc": {
    "methods": {}
  },
  "userdoc": {
    "methods": {}
  }
}