{
  "contractName": "Forum",
  "abi": [
    {
      "constant": true,
      "inputs": [],
      "name": "creator",
      "outputs": [
        {
          "name": "",
          "type": "address"
        }
      ],
      "payable": false,
      "stateMutability": "view",
      "type": "function"
    },
    {
      "constant": true,
      "inputs": [],
      "name": "name",
      "outputs": [
        {
          "name": "",
          "type": "string"
        }
      ],
      "payable": false,
      "stateMutability": "view",
      "type": "function"
    },
    {
      "constant": true,
      "inputs": [],
      "name": "rules",
      "outputs": [
        {
          "name": "",
          "type": "string"
        }
      ],
      "payable": false,
      "stateMutability": "view",
      "type": "function"
    },
    {
      "constant": false,
      "inputs": [],
      "name": "renounceOwnership",
      "outputs": [],
      "payable": false,
      "stateMutability": "nonpayable",
      "type": "function"
    },
    {
      "constant": true,
      "inputs": [],
      "name": "owner",
      "outputs": [
        {
          "name": "",
          "type": "address"
        }
      ],
      "payable": false,
      "stateMutability": "view",
      "type": "function"
    },
    {
      "constant": false,
      "inputs": [
        {
          "name": "_newOwner",
          "type": "address"
        }
      ],
      "name": "transferOwnership",
      "outputs": [],
      "payable": false,
      "stateMutability": "nonpayable",
      "type": "function"
    },
    {
      "anonymous": false,
      "inputs": [
        {
          "indexed": false,
          "name": "userAddress",
          "type": "address"
        }
      ],
      "name": "UserBanned",
      "type": "event"
    },
    {
      "anonymous": false,
      "inputs": [
        {
          "indexed": false,
          "name": "userAddress",
          "type": "address"
        }
      ],
      "name": "UserUnbanned",
      "type": "event"
    },
    {
      "anonymous": false,
      "inputs": [
        {
          "indexed": false,
          "name": "postAddress",
          "type": "address"
        }
      ],
      "name": "PostCreated",
      "type": "event"
    },
    {
      "anonymous": false,
      "inputs": [
        {
          "indexed": false,
          "name": "postAddress",
          "type": "address"
        }
      ],
      "name": "PostDeleted",
      "type": "event"
    },
    {
      "anonymous": false,
      "inputs": [
        {
          "indexed": true,
          "name": "previousOwner",
          "type": "address"
        }
      ],
      "name": "OwnershipRenounced",
      "type": "event"
    },
    {
      "anonymous": false,
      "inputs": [
        {
          "indexed": true,
          "name": "previousOwner",
          "type": "address"
        },
        {
          "indexed": true,
          "name": "newOwner",
          "type": "address"
        }
      ],
      "name": "OwnershipTransferred",
      "type": "event"
    },
    {
      "constant": false,
      "inputs": [
        {
          "name": "_forumName",
          "type": "string"
        },
        {
          "name": "_forumCreator",
          "type": "address"
        }
      ],
      "name": "initialize",
      "outputs": [],
      "payable": false,
      "stateMutability": "nonpayable",
      "type": "function"
    },
    {
      "constant": false,
      "inputs": [
        {
          "name": "_ipfsHash",
          "type": "string"
        },
        {
          "name": "_postCreator",
          "type": "address"
        },
        {
          "name": "_clonePost",
          "type": "address"
        }
      ],
      "name": "createPost",
      "outputs": [
        {
          "name": "",
          "type": "address"
        }
      ],
      "payable": false,
      "stateMutability": "nonpayable",
      "type": "function"
    },
    {
      "constant": false,
      "inputs": [
        {
          "name": "_postAddress",
          "type": "address"
        },
        {
          "name": "_targetAddress",
          "type": "address"
        },
        {
          "name": "_commentCreator",
          "type": "address"
        },
        {
          "name": "_ipfsHash",
          "type": "string"
        },
        {
          "name": "_cloneComment",
          "type": "address"
        }
      ],
      "name": "createComment",
      "outputs": [
        {
          "name": "",
          "type": "address"
        }
      ],
      "payable": false,
      "stateMutability": "nonpayable",
      "type": "function"
    },
    {
      "constant": false,
      "inputs": [
        {
          "name": "_userAddress",
          "type": "address"
        }
      ],
      "name": "banUser",
      "outputs": [],
      "payable": false,
      "stateMutability": "nonpayable",
      "type": "function"
    },
    {
      "constant": false,
      "inputs": [
        {
          "name": "_userAddress",
          "type": "address"
        }
      ],
      "name": "unBanUser",
      "outputs": [],
      "payable": false,
      "stateMutability": "nonpayable",
      "type": "function"
    }
  ],
  "bytecode": "0x608060405260008054600160a060020a03191633179055610db7806100256000396000f3006080604052600436106100ae5763ffffffff7c010000000000000000000000000000000000000000000000000000000060003504166302d05d3f81146100b357806306fdde03146100e457806310d86b1f1461016e57806352f6747a1461019157806362701fd3146101a6578063715018a6146102155780637ab4339d1461022a5780638da5cb5b1461028e578063908e5a8f146102a3578063c7224189146102c4578063f2fde38b14610341575b600080fd5b3480156100bf57600080fd5b506100c8610362565b60408051600160a060020a039092168252519081900360200190f35b3480156100f057600080fd5b506100f9610371565b6040805160208082528351818301528351919283929083019185019080838360005b8381101561013357818101518382015260200161011b565b50505050905090810190601f1680156101605780820380516001836020036101000a031916815260200191505b509250505060405180910390f35b34801561017a57600080fd5b5061018f600160a060020a03600435166103fe565b005b34801561019d57600080fd5b506100f96104f8565b3480156101b257600080fd5b506040805160206004803580820135601f81018490048402850184019095528484526100c894369492936024939284019190819084018382808284375094975050600160a060020a03853581169650602090950135909416935061055392505050565b34801561022157600080fd5b5061018f610742565b34801561023657600080fd5b506040805160206004803580820135601f810184900484028501840190955284845261018f94369492936024939284019190819084018382808284375094975050509235600160a060020a031693506107ae92505050565b34801561029a57600080fd5b506100c8610889565b3480156102af57600080fd5b5061018f600160a060020a0360043516610898565b3480156102d057600080fd5b50604080516020601f6064356004818101359283018490048402850184019095528184526100c894600160a060020a03813581169560248035831696604435909316953695608494920191819084018382808284375094975050509235600160a060020a0316935061099092505050565b34801561034d57600080fd5b5061018f600160a060020a0360043516610bdd565b600254600160a060020a031681565b60018054604080516020600284861615610100026000190190941693909304601f810184900484028201840190925281815292918301828280156103f65780601f106103cb576101008083540402835291602001916103f6565b820191906000526020600020905b8154815290600101906020018083116103d957829003601f168201915b505050505081565b600054600160a060020a0316331461041557600080fd5b600160a060020a03811660009081526004602052604090205460ff161561049d57604080517f08c379a000000000000000000000000000000000000000000000000000000000815260206004820152601360248201527f5573657220616c72656164792062616e6e656400000000000000000000000000604482015290519081900360640190fd5b600160a060020a038116600081815260046020908152604091829020805460ff19166001179055815192835290517f8f411ad66fd8225d9c3c7c72fd2429139958913fa5c5114dce1c984e069a4f699281900390910190a150565b6003805460408051602060026001851615610100026000190190941693909304601f810184900484028201840190925281815292918301828280156103f65780601f106103cb576101008083540402835291602001916103f6565b600080548190600160a060020a0316331461056d57600080fd5b600160a060020a03841660009081526004602052604090205460ff16156105f557604080517f08c379a000000000000000000000000000000000000000000000000000000000815260206004820152601e60248201527f557365722069732062616e6e65642066726f6d207468697320666f72756d0000604482015290519081900360640190fd5b6105fe83610c00565b604080517f7ab4339d000000000000000000000000000000000000000000000000000000008152600160a060020a03878116602483015260048201928352885160448301528851939450841692637ab4339d9289928992829160640190602086019080838360005b8381101561067e578181015183820152602001610666565b50505050905090810190601f1680156106ab5780820380516001836020036101000a031916815260200191505b509350505050600060405180830381600087803b1580156106cb57600080fd5b505af11580156106df573d6000803e3d6000fd5b505050600160a060020a038216600081815260056020908152604091829020805460ff19166001179055815192835290517fb28b103e6296194f6aecace93990102a06a5ae0720dc23aaf51589d563d52dde9350918290030190a1949350505050565b600054600160a060020a0316331461075957600080fd5b60008054604051600160a060020a03909116917ff8df31144d9c2f0f6b59d69b8b98abd5459d07f2742c4df920b25aae33c6482091a26000805473ffffffffffffffffffffffffffffffffffffffff19169055565b600054600160a060020a03161561082657604080517f08c379a000000000000000000000000000000000000000000000000000000000815260206004820152600860248201527f4e69636520747279000000000000000000000000000000000000000000000000604482015290519081900360640190fd5b6000805473ffffffffffffffffffffffffffffffffffffffff1916331790558151610858906001906020850190610cf0565b506002805473ffffffffffffffffffffffffffffffffffffffff1916600160a060020a039290921691909117905550565b600054600160a060020a031681565b600054600160a060020a031633146108af57600080fd5b600160a060020a03811660009081526004602052604090205460ff16151561093857604080517f08c379a000000000000000000000000000000000000000000000000000000000815260206004820152600f60248201527f55736572206e6f742062616e6e65640000000000000000000000000000000000604482015290519081900360640190fd5b600160a060020a038116600081815260046020908152604091829020805460ff19169055815192835290517f26d6a37a4abb33fb6e942eb5bf6c659ea2b3031d99159305ec4fdd0adc7551cf9281900390910190a150565b6000805481908190600160a060020a031633146109ac57600080fd5b600160a060020a03861660009081526004602052604090205460ff1615610a3457604080517f08c379a000000000000000000000000000000000000000000000000000000000815260206004820152601e60248201527f557365722069732062616e6e65642066726f6d207468697320666f72756d0000604482015290519081900360640190fd5b600160a060020a03881660009081526005602052604090205460ff161515610abd57604080517f08c379a000000000000000000000000000000000000000000000000000000000815260206004820152601460248201527f506f737420646f6573206e6f742065786973742e000000000000000000000000604482015290519081900360640190fd5b6040517fe9e4c919000000000000000000000000000000000000000000000000000000008152600160a060020a038781166024830152888116604483015285811660648301526080600483019081528751608484015287518b95509185169263e9e4c9199289928b928d928b9291829160a490910190602088019080838360005b83811015610b56578181015183820152602001610b3e565b50505050905090810190601f168015610b835780820380516001836020036101000a031916815260200191505b5095505050505050602060405180830381600087803b158015610ba557600080fd5b505af1158015610bb9573d6000803e3d6000fd5b505050506040513d6020811015610bcf57600080fd5b505198975050505050505050565b600054600160a060020a03163314610bf457600080fd5b610bfd81610c73565b50565b6040517f3d602d80600a3d3981f3363d3d373d3d3d363d7300000000000000000000000081526c010000000000000000000000008202601482018190527f5af43d82803e903d91602b57fd5bf30000000000000000000000000000000000602883015260009160378184f0949350505050565b600160a060020a0381161515610c8857600080fd5b60008054604051600160a060020a03808516939216917f8be0079c531659141344cd1fd0a4f28419497f9722a3daafe3b4186f6b6457e091a36000805473ffffffffffffffffffffffffffffffffffffffff1916600160a060020a0392909216919091179055565b828054600181600116156101000203166002900490600052602060002090601f016020900481019282601f10610d3157805160ff1916838001178555610d5e565b82800160010185558215610d5e579182015b82811115610d5e578251825591602001919060010190610d43565b50610d6a929150610d6e565b5090565b610d8891905b80821115610d6a5760008155600101610d74565b905600a165627a7a723058201a2b25ccc30407a5b4ecd2c46a96bbc077707ffe45c05fc71f9cfce1abd42d7a0029",
  "source": "pragma solidity ^0.4.24;\n\nimport \"./Post.sol\"; \nimport \"./User.sol\"; \nimport \"./CloneFactory.sol\";\nimport \"./Ownable.sol\";\n\ncontract Forum is Ownable, CloneFactory {\n    event UserBanned(address userAddress);\n    event UserUnbanned(address userAddress);\n    event PostCreated(address postAddress);  \n    event PostDeleted(address postAddress);\n    \n    string public name;\n    address public creator;\n    string public rules;\n\n    mapping(address => bool) banned;\n    mapping(address => bool) posts;\n\n    function initialize(string _forumName, address _forumCreator) public {\n        require(owner == address(0), \"Nice try\");\n        owner = msg.sender;\n        name = _forumName;\n        creator = _forumCreator;\n    }\n\n    function createPost(string _ipfsHash, address _postCreator, address _clonePost) public onlyOwner returns(address){\n        require(!banned[_postCreator], \"User is banned from this forum\");\n        address clone = createClone(_clonePost);\n        Post(clone).initialize(_ipfsHash, _postCreator);\n        posts[clone] = true;\n        emit PostCreated(clone);\n        return clone;\n    }\n\n    function createComment(address _postAddress, address _targetAddress, address _commentCreator, string _ipfsHash, address _cloneComment) \n    public onlyOwner returns(address) {\n        require(!banned[_commentCreator], \"User is banned from this forum\");\n        require(posts[_postAddress], \"Post does not exist.\");\n        Post targetPost = Post(_postAddress);\n        address newCommentAddress = targetPost.createComment(_ipfsHash, _commentCreator, _targetAddress, _cloneComment);\n        return newCommentAddress;\n    }\n\n    function banUser(address _userAddress) public onlyOwner {\n        require(!banned[_userAddress], \"User already banned\");\n        banned[_userAddress] = true;\n        emit UserBanned(_userAddress);\n    }\n\n    function unBanUser(address _userAddress) public onlyOwner {\n        require(banned[_userAddress], \"User not banned\");\n        delete banned[_userAddress];\n        emit UserUnbanned(_userAddress);\n    }\n}",
  "sourcePath": "/Users/jarenlynch/Ethereum/Tartarus/contracts/Forum.sol",
  "compiler": {
    "name": "solc",
    "version": "0.4.24+commit.e67f0147.Emscripten.clang"
  },
  "schemaVersion": "2.0.1",
  "updatedAt": "2018-12-24T06:51:51.032Z"
}