{
  "contractName": "Post",
  "abi": [
    {
      "constant": false,
      "inputs": [],
      "name": "renounceOwnership",
      "outputs": [],
      "payable": false,
      "stateMutability": "nonpayable",
      "type": "function"
    },
    {
      "constant": true,
      "inputs": [],
      "name": "postInfo",
      "outputs": [
        {
          "name": "ipfsHash",
          "type": "string"
        },
        {
          "name": "creator",
          "type": "address"
        },
        {
          "name": "time",
          "type": "uint256"
        }
      ],
      "payable": false,
      "stateMutability": "view",
      "type": "function"
    },
    {
      "constant": true,
      "inputs": [],
      "name": "owner",
      "outputs": [
        {
          "name": "",
          "type": "address"
        }
      ],
      "payable": false,
      "stateMutability": "view",
      "type": "function"
    },
    {
      "constant": false,
      "inputs": [
        {
          "name": "_newOwner",
          "type": "address"
        }
      ],
      "name": "transferOwnership",
      "outputs": [],
      "payable": false,
      "stateMutability": "nonpayable",
      "type": "function"
    },
    {
      "anonymous": false,
      "inputs": [
        {
          "indexed": false,
          "name": "commentAddress",
          "type": "address"
        }
      ],
      "name": "CommentCreated",
      "type": "event"
    },
    {
      "anonymous": false,
      "inputs": [
        {
          "indexed": true,
          "name": "previousOwner",
          "type": "address"
        }
      ],
      "name": "OwnershipRenounced",
      "type": "event"
    },
    {
      "anonymous": false,
      "inputs": [
        {
          "indexed": true,
          "name": "previousOwner",
          "type": "address"
        },
        {
          "indexed": true,
          "name": "newOwner",
          "type": "address"
        }
      ],
      "name": "OwnershipTransferred",
      "type": "event"
    },
    {
      "constant": false,
      "inputs": [
        {
          "name": "_ipfsHash",
          "type": "string"
        },
        {
          "name": "_postCreator",
          "type": "address"
        }
      ],
      "name": "initialize",
      "outputs": [],
      "payable": false,
      "stateMutability": "nonpayable",
      "type": "function"
    },
    {
      "constant": false,
      "inputs": [
        {
          "name": "_ipfsHash",
          "type": "string"
        },
        {
          "name": "_commentCreator",
          "type": "address"
        },
        {
          "name": "_targetAddress",
          "type": "address"
        },
        {
          "name": "_cloneComment",
          "type": "address"
        }
      ],
      "name": "createComment",
      "outputs": [
        {
          "name": "",
          "type": "address"
        }
      ],
      "payable": false,
      "stateMutability": "nonpayable",
      "type": "function"
    }
  ],
  "bytecode": "0x608060405260008054600160a060020a03191633179055610857806100256000396000f3006080604052600436106100775763ffffffff7c0100000000000000000000000000000000000000000000000000000000600035041663715018a6811461007c5780637ab4339d146100935780638bd178e9146100f75780638da5cb5b146101a4578063e9e4c919146101d5578063f2fde38b14610248575b600080fd5b34801561008857600080fd5b50610091610269565b005b34801561009f57600080fd5b506040805160206004803580820135601f810184900484028501840190955284845261009194369492936024939284019190819084018382808284375094975050509235600160a060020a031693506102d592505050565b34801561010357600080fd5b5061010c6103b4565b604051808060200184600160a060020a0316600160a060020a03168152602001838152602001828103825285818151815260200191508051906020019080838360005b8381101561016757818101518382015260200161014f565b50505050905090810190601f1680156101945780820380516001836020036101000a031916815260200191505b5094505050505060405180910390f35b3480156101b057600080fd5b506101b961045b565b60408051600160a060020a039092168252519081900360200190f35b3480156101e157600080fd5b506040805160206004803580820135601f81018490048402850184019095528484526101b994369492936024939284019190819084018382808284375094975050600160a060020a0385358116965060208601358116956040013516935061046a92505050565b34801561025457600080fd5b50610091600160a060020a036004351661067d565b600054600160a060020a0316331461028057600080fd5b60008054604051600160a060020a03909116917ff8df31144d9c2f0f6b59d69b8b98abd5459d07f2742c4df920b25aae33c6482091a26000805473ffffffffffffffffffffffffffffffffffffffff19169055565b600054600160a060020a03161561034d57604080517f08c379a000000000000000000000000000000000000000000000000000000000815260206004820152600860248201527f4e69636520747279000000000000000000000000000000000000000000000000604482015290519081900360640190fd5b6000805473ffffffffffffffffffffffffffffffffffffffff191633179055815161037f906001906020850190610790565b506002805473ffffffffffffffffffffffffffffffffffffffff1916600160a060020a03929092169190911790555042600355565b60018054604080516020601f60026000196101008789161502019095169490940493840181900481028201810190925282815291839183018282801561043b5780601f106104105761010080835404028352916020019161043b565b820191906000526020600020905b81548152906001019060200180831161041e57829003601f168201915b5050505060018301546002909301549192600160a060020a031691905083565b600054600160a060020a031681565b600080548190600160a060020a0316331461048457600080fd5b600160a060020a03841660009081526004602052604090205460ff16806104b35750600160a060020a03841630145b151561052057604080517f08c379a000000000000000000000000000000000000000000000000000000000815260206004820152600e60248201527f496e76616c696420746172676574000000000000000000000000000000000000604482015290519081900360640190fd5b610529836106a0565b6040517f463fd1af000000000000000000000000000000000000000000000000000000008152600160a060020a03878116602483015286811660448301526060600483019081528951606484015289519394509084169263463fd1af928a928a928a928291608490910190602087019080838360005b838110156105b757818101518382015260200161059f565b50505050905090810190601f1680156105e45780820380516001836020036101000a031916815260200191505b50945050505050600060405180830381600087803b15801561060557600080fd5b505af1158015610619573d6000803e3d6000fd5b505050600160a060020a038216600081815260046020908152604091829020805460ff19166001179055815192835290517f2def86c85ed65bb7798ce8a3d3d1dc8553396bbb5d9f9e3f792747cd4e6c4b7a9350918290030190a195945050505050565b600054600160a060020a0316331461069457600080fd5b61069d81610713565b50565b6040517f3d602d80600a3d3981f3363d3d373d3d3d363d7300000000000000000000000081526c010000000000000000000000008202601482018190527f5af43d82803e903d91602b57fd5bf30000000000000000000000000000000000602883015260009160378184f0949350505050565b600160a060020a038116151561072857600080fd5b60008054604051600160a060020a03808516939216917f8be0079c531659141344cd1fd0a4f28419497f9722a3daafe3b4186f6b6457e091a36000805473ffffffffffffffffffffffffffffffffffffffff1916600160a060020a0392909216919091179055565b828054600181600116156101000203166002900490600052602060002090601f016020900481019282601f106107d157805160ff19168380011785556107fe565b828001600101855582156107fe579182015b828111156107fe5782518255916020019190600101906107e3565b5061080a92915061080e565b5090565b61082891905b8082111561080a5760008155600101610814565b905600a165627a7a72305820ca3bf6acc55b5d5e4ce7998ae134b26c8ecc6d97f9587fd48cebad7452d1b92a0029",
  "source": "pragma solidity ^0.4.24;\n\nimport \"./Comment.sol\"; \nimport \"./CloneFactory.sol\";\nimport \"./Ownable.sol\";\n\ncontract Post is Ownable, CloneFactory {\n    event CommentCreated (address commentAddress);\n\n    struct PostInfo {\n        string ipfsHash;\n        address creator;\n        uint time;\n        mapping(address => bool) comments;\n    }  \n\n    PostInfo public postInfo;\n\n    function initialize(string _ipfsHash, address _postCreator) public {\n        require(owner == address(0), \"Nice try\");\n        owner = msg.sender;\n        postInfo.ipfsHash = _ipfsHash;\n        postInfo.creator = _postCreator;\n        postInfo.time = now;\n    }\n\n    function createComment (string _ipfsHash, address _commentCreator, address _targetAddress, address _cloneComment) \n    public onlyOwner returns(address) {\n        require(postInfo.comments[_targetAddress] || _targetAddress == address(this), \"Invalid target\");\n        address clone = createClone(_cloneComment);\n        Comment(clone).initialize(_ipfsHash, _commentCreator, _targetAddress);\n        postInfo.comments[clone] = true;\n        emit CommentCreated(clone);\n        return clone;\n    }\n}",
  "sourcePath": "/Users/jarenlynch/Ethereum/Tartarus/contracts/Post.sol",
  "compiler": {
    "name": "solc",
    "version": "0.4.24+commit.e67f0147.Emscripten.clang"
  },
  "schemaVersion": "2.0.1",
  "updatedAt": "2018-12-24T06:51:51.029Z"
}