{
  "contractName": "Post",
  "abi": [
    {
      "constant": false,
      "inputs": [],
      "name": "renounceOwnership",
      "outputs": [],
      "payable": false,
      "stateMutability": "nonpayable",
      "type": "function"
    },
    {
      "constant": true,
      "inputs": [],
      "name": "postInfo",
      "outputs": [
        {
          "name": "post",
          "type": "bytes32"
        },
        {
          "name": "creator",
          "type": "address"
        },
        {
          "name": "votes",
          "type": "int32"
        },
        {
          "name": "time",
          "type": "uint256"
        }
      ],
      "payable": false,
      "stateMutability": "view",
      "type": "function"
    },
    {
      "constant": true,
      "inputs": [],
      "name": "owner",
      "outputs": [
        {
          "name": "",
          "type": "address"
        }
      ],
      "payable": false,
      "stateMutability": "view",
      "type": "function"
    },
    {
      "constant": false,
      "inputs": [
        {
          "name": "_newOwner",
          "type": "address"
        }
      ],
      "name": "transferOwnership",
      "outputs": [],
      "payable": false,
      "stateMutability": "nonpayable",
      "type": "function"
    },
    {
      "anonymous": false,
      "inputs": [
        {
          "indexed": true,
          "name": "previousOwner",
          "type": "address"
        }
      ],
      "name": "OwnershipRenounced",
      "type": "event"
    },
    {
      "anonymous": false,
      "inputs": [
        {
          "indexed": true,
          "name": "previousOwner",
          "type": "address"
        },
        {
          "indexed": true,
          "name": "newOwner",
          "type": "address"
        }
      ],
      "name": "OwnershipTransferred",
      "type": "event"
    },
    {
      "constant": false,
      "inputs": [
        {
          "name": "_owner",
          "type": "address"
        },
        {
          "name": "_post",
          "type": "bytes32"
        },
        {
          "name": "_postCreator",
          "type": "address"
        }
      ],
      "name": "initialize",
      "outputs": [],
      "payable": false,
      "stateMutability": "nonpayable",
      "type": "function"
    },
    {
      "constant": false,
      "inputs": [],
      "name": "upvote",
      "outputs": [],
      "payable": false,
      "stateMutability": "nonpayable",
      "type": "function"
    },
    {
      "constant": false,
      "inputs": [],
      "name": "downvote",
      "outputs": [],
      "payable": false,
      "stateMutability": "nonpayable",
      "type": "function"
    },
    {
      "constant": true,
      "inputs": [],
      "name": "getPostCreator",
      "outputs": [
        {
          "name": "",
          "type": "address"
        }
      ],
      "payable": false,
      "stateMutability": "view",
      "type": "function"
    },
    {
      "constant": false,
      "inputs": [
        {
          "name": "_admin",
          "type": "bool"
        },
        {
          "name": "_moderator",
          "type": "bool"
        },
        {
          "name": "_userAddress",
          "type": "address"
        },
        {
          "name": "_suicideAddress",
          "type": "address"
        }
      ],
      "name": "deletePost",
      "outputs": [],
      "payable": false,
      "stateMutability": "nonpayable",
      "type": "function"
    }
  ],
  "bytecode": "0x608060405260008054600160a060020a03191633179055610599806100256000396000f3fe608060405234801561001057600080fd5b50600436106100b0576000357c01000000000000000000000000000000000000000000000000000000009004806392d7727c1161008357806392d7727c1461015c578063a8df84df14610164578063d26b3e6e1461016c578063f2fde38b146101a2578063f5b5709b146101c8576100b0565b806358cd1497146100b5578063715018a6146100f55780638bd178e9146100fd5780638da5cb5b14610138575b600080fd5b6100f3600480360360808110156100cb57600080fd5b5080351515906020810135151590600160a060020a03604082013581169160600135166101d0565b005b6100f3610281565b6101056102ed565b60408051948552600160a060020a039093166020850152600391820b90910b838301526060830152519081900360800190f35b610140610321565b60408051600160a060020a039092168252519081900360200190f35b6100f3610330565b6100f3610397565b6100f36004803603606081101561018257600080fd5b50600160a060020a03813581169160208101359160409091013516610401565b6100f3600480360360208110156101b857600080fd5b5035600160a060020a03166104be565b6101406104e1565b600054600160a060020a031633146101e757600080fd5b83806101f05750825b806102085750600254600160a060020a038381169116145b151561027557604080517f08c379a000000000000000000000000000000000000000000000000000000000815260206004820152601d60248201527f5573657220646f6573206e6f742068617665207065726d697373696f6e000000604482015290519081900360640190fd5b80600160a060020a0316ff5b600054600160a060020a0316331461029857600080fd5b60008054604051600160a060020a03909116917ff8df31144d9c2f0f6b59d69b8b98abd5459d07f2742c4df920b25aae33c6482091a26000805473ffffffffffffffffffffffffffffffffffffffff19169055565b60015460025460038054600160a060020a0383169274010000000000000000000000000000000000000000900490910b9084565b600054600160a060020a031681565b600054600160a060020a0316331461034757600080fd5b6002805474010000000000000000000000000000000000000000808204600390810b600101900b63ffffffff160277ffffffff000000000000000000000000000000000000000019909116179055565b600054600160a060020a031633146103ae57600080fd5b6002805477ffffffff000000000000000000000000000000000000000019811663ffffffff7401000000000000000000000000000000000000000092839004600390810b60001901900b16909102179055565b600054600160a060020a03161561047957604080517f08c379a000000000000000000000000000000000000000000000000000000000815260206004820152600860248201527f4e69636520747279000000000000000000000000000000000000000000000000604482015290519081900360640190fd5b60008054600160a060020a0394851673ffffffffffffffffffffffffffffffffffffffff19918216179091556001929092556002805491909316911617905542600355565b600054600160a060020a031633146104d557600080fd5b6104de816104f0565b50565b600254600160a060020a031690565b600160a060020a038116151561050557600080fd5b60008054604051600160a060020a03808516939216917f8be0079c531659141344cd1fd0a4f28419497f9722a3daafe3b4186f6b6457e091a36000805473ffffffffffffffffffffffffffffffffffffffff1916600160a060020a039290921691909117905556fea165627a7a72305820f575ea8bd231758a35239cd62e58438144463196a95534238fda5d600d905c0f0029",
  "source": "pragma solidity ^0.5.2;\n\nimport \"./Ownable.sol\";\n\ncontract Post is Ownable {\n    struct PostInfo {\n        bytes32 post;\n        address creator;\n        int32 votes;\n        uint time;\n    }  \n\n    PostInfo public postInfo;\n\n    function initialize(address _owner, bytes32 _post, address _postCreator) external {\n        require(owner == address(0), \"Nice try\");\n        owner = _owner;\n        postInfo.post = _post;\n        postInfo.creator = _postCreator;\n        postInfo.time = now;\n    }\n\n    function upvote() external onlyOwner {\n        postInfo.votes += 1;\n    }\n\n    function downvote() external onlyOwner {\n        postInfo.votes -= 1;\n    }\n\n    function getPostCreator() public view returns(address) {\n        return postInfo.creator;\n    }\n\n    function deletePost(bool _admin, bool _moderator, address _userAddress, address payable _suicideAddress) external onlyOwner {\n        require(\n            _admin || \n            _moderator || \n            _userAddress == postInfo.creator, \n            \"User does not have permission\");\n        selfdestruct(_suicideAddress);\n    }\n}",
  "sourcePath": "/Users/jarenlynch/Ethereum/Tartarus/contracts/Post.sol",
  "compiler": {
    "name": "solc",
    "version": "0.5.2+commit.1df8f40c.Emscripten.clang"
  },
  "schemaVersion": "3.0.6",
  "updatedAt": "2019-04-11T23:32:48.871Z",
  "devdoc": {
    "methods": {
      "renounceOwnership()": {
        "details": "Allows the current owner to relinquish control of the contract."
      },
      "transferOwnership(address)": {
        "details": "Allows the current owner to transfer control of the contract to a newOwner.",
        "params": {
          "_newOwner": "The address to transfer ownership to."
        }
      }
    }
  },
  "userdoc": {
    "methods": {
      "renounceOwnership()": {
        "notice": "Renouncing to ownership will leave the contract without an owner. It will not be possible to call the functions with the `onlyOwner` modifier anymore."
      }
    }
  }
}