{
  "contractName": "Post",
  "abi": [
    {
      "constant": false,
      "inputs": [],
      "name": "renounceOwnership",
      "outputs": [],
      "payable": false,
      "stateMutability": "nonpayable",
      "type": "function"
    },
    {
      "constant": true,
      "inputs": [],
      "name": "postInfo",
      "outputs": [
        {
          "name": "upvotes",
          "type": "uint16"
        },
        {
          "name": "downvotes",
          "type": "uint16"
        },
        {
          "name": "time",
          "type": "uint256"
        },
        {
          "name": "post",
          "type": "bytes32"
        },
        {
          "name": "creator",
          "type": "address"
        }
      ],
      "payable": false,
      "stateMutability": "view",
      "type": "function"
    },
    {
      "constant": true,
      "inputs": [],
      "name": "owner",
      "outputs": [
        {
          "name": "",
          "type": "address"
        }
      ],
      "payable": false,
      "stateMutability": "view",
      "type": "function"
    },
    {
      "constant": false,
      "inputs": [
        {
          "name": "_newOwner",
          "type": "address"
        }
      ],
      "name": "transferOwnership",
      "outputs": [],
      "payable": false,
      "stateMutability": "nonpayable",
      "type": "function"
    },
    {
      "anonymous": false,
      "inputs": [
        {
          "indexed": true,
          "name": "previousOwner",
          "type": "address"
        }
      ],
      "name": "OwnershipRenounced",
      "type": "event"
    },
    {
      "anonymous": false,
      "inputs": [
        {
          "indexed": true,
          "name": "previousOwner",
          "type": "address"
        },
        {
          "indexed": true,
          "name": "newOwner",
          "type": "address"
        }
      ],
      "name": "OwnershipTransferred",
      "type": "event"
    },
    {
      "constant": false,
      "inputs": [
        {
          "name": "_owner",
          "type": "address"
        },
        {
          "name": "_post",
          "type": "bytes32"
        },
        {
          "name": "_postCreator",
          "type": "address"
        }
      ],
      "name": "initialize",
      "outputs": [],
      "payable": false,
      "stateMutability": "nonpayable",
      "type": "function"
    },
    {
      "constant": false,
      "inputs": [
        {
          "name": "_targetAddress",
          "type": "address"
        },
        {
          "name": "_commentCreator",
          "type": "address"
        },
        {
          "name": "_comment",
          "type": "bytes32"
        },
        {
          "name": "_commentFactory",
          "type": "address"
        }
      ],
      "name": "createComment",
      "outputs": [
        {
          "name": "",
          "type": "address"
        }
      ],
      "payable": false,
      "stateMutability": "nonpayable",
      "type": "function"
    },
    {
      "constant": false,
      "inputs": [
        {
          "name": "_admin",
          "type": "bool"
        },
        {
          "name": "_moderator",
          "type": "bool"
        },
        {
          "name": "_userAddress",
          "type": "address"
        },
        {
          "name": "_commentAddress",
          "type": "address"
        },
        {
          "name": "_suicideAddress",
          "type": "address"
        }
      ],
      "name": "deleteComment",
      "outputs": [],
      "payable": false,
      "stateMutability": "nonpayable",
      "type": "function"
    },
    {
      "constant": false,
      "inputs": [
        {
          "name": "_userAddress",
          "type": "address"
        }
      ],
      "name": "upvote",
      "outputs": [],
      "payable": false,
      "stateMutability": "nonpayable",
      "type": "function"
    },
    {
      "constant": false,
      "inputs": [
        {
          "name": "_userAddress",
          "type": "address"
        }
      ],
      "name": "downvote",
      "outputs": [],
      "payable": false,
      "stateMutability": "nonpayable",
      "type": "function"
    },
    {
      "constant": true,
      "inputs": [],
      "name": "getPostCreator",
      "outputs": [
        {
          "name": "",
          "type": "address"
        }
      ],
      "payable": false,
      "stateMutability": "view",
      "type": "function"
    },
    {
      "constant": false,
      "inputs": [
        {
          "name": "_admin",
          "type": "bool"
        },
        {
          "name": "_moderator",
          "type": "bool"
        },
        {
          "name": "_userAddress",
          "type": "address"
        },
        {
          "name": "_suicideAddress",
          "type": "address"
        }
      ],
      "name": "deletePost",
      "outputs": [],
      "payable": false,
      "stateMutability": "nonpayable",
      "type": "function"
    }
  ],
  "bytecode": "0x608060405260008054600160a060020a0319163317905561096b806100256000396000f3fe608060405234801561001057600080fd5b50600436106100c6576000357c0100000000000000000000000000000000000000000000000000000000900480638a6955f41161008e5780638a6955f4146101b75780638bd178e9146101ff5780638da5cb5b14610242578063d26b3e6e1461024a578063f2fde38b14610280578063f5b5709b146102a6576100c6565b80630839b596146100cb578063399cd856146100f357806358cd14971461014b578063715018a61461018957806389179bdb14610191575b600080fd5b6100f1600480360360208110156100e157600080fd5b5035600160a060020a03166102ae565b005b61012f6004803603608081101561010957600080fd5b50600160a060020a03813581169160208101358216916040820135916060013516610372565b60408051600160a060020a039092168252519081900360200190f35b6100f16004803603608081101561016157600080fd5b5080351515906020810135151590600160a060020a03604082013581169160600135166104b9565b6100f1610553565b6100f1600480360360208110156101a757600080fd5b5035600160a060020a03166105bf565b6100f1600480360360a08110156101cd57600080fd5b5080351515906020810135151590600160a060020a03604082013581169160608101358216916080909101351661068e565b6102076107b2565b6040805161ffff9687168152949095166020850152838501929092526060830152600160a060020a0316608082015290519081900360a00190f35b61012f6107db565b6100f16004803603606081101561026057600080fd5b50600160a060020a038135811691602081013591604090910135166107ea565b6100f16004803603602081101561029657600080fd5b5035600160a060020a0316610890565b61012f6108b3565b600054600160a060020a031633146102c557600080fd5b600160a060020a03811660009081526006602052604090205460ff1615610336576040805160e560020a62461bcd02815260206004820152600d60248201527f416c726561647920766f74656400000000000000000000000000000000000000604482015290519081900360640190fd5b600160a060020a03166000908152600660205260409020805460ff19166001908117909155805461ffff80821683011661ffff19909116179055565b60008054600160a060020a0316331461038a57600080fd5b600160a060020a0385163014806103b95750600160a060020a03851660009081526005602052604090205460ff165b151561040f576040805160e560020a62461bcd02815260206004820152601e60248201527f496e76616c696420636f6d6d656e742074617267657420616464726573730000604482015290519081900360640190fd5b604080517f5dfb6df8000000000000000000000000000000000000000000000000000000008152600160a060020a0387811660048301528681166024830152604482018690529151600092851691635dfb6df891606480830192602092919082900301818787803b15801561048357600080fd5b505af1158015610497573d6000803e3d6000fd5b505050506040513d60208110156104ad57600080fd5b50519695505050505050565b600054600160a060020a031633146104d057600080fd5b83806104d95750825b806104f15750600454600160a060020a038381169116145b1515610547576040805160e560020a62461bcd02815260206004820152601d60248201527f5573657220646f6573206e6f742068617665207065726d697373696f6e000000604482015290519081900360640190fd5b80600160a060020a0316ff5b600054600160a060020a0316331461056a57600080fd5b60008054604051600160a060020a03909116917ff8df31144d9c2f0f6b59d69b8b98abd5459d07f2742c4df920b25aae33c6482091a26000805473ffffffffffffffffffffffffffffffffffffffff19169055565b600054600160a060020a031633146105d657600080fd5b600160a060020a03811660009081526006602052604090205460ff1615610647576040805160e560020a62461bcd02815260206004820152600d60248201527f416c726561647920766f74656400000000000000000000000000000000000000604482015290519081900360640190fd5b600160a060020a03166000908152600660205260409020805460ff19166001908117909155805461ffff62010000808304821684019091160263ffff000019909116179055565b600054600160a060020a031633146106a557600080fd5b600160a060020a03821660009081526005602052604090205460ff161515610717576040805160e560020a62461bcd02815260206004820152601160248201527f436f6d6d656e74206e6f7420666f756e64000000000000000000000000000000604482015290519081900360640190fd5b604080517f116125d000000000000000000000000000000000000000000000000000000000815286151560048201528515156024820152600160a060020a038581166044830152838116606483015291519184169163116125d09160848082019260009290919082900301818387803b15801561079357600080fd5b505af11580156107a7573d6000803e3d6000fd5b505050505050505050565b60015460025460035460045461ffff8085169462010000900416929190600160a060020a031685565b600054600160a060020a031681565b600054600160a060020a03161561084b576040805160e560020a62461bcd02815260206004820152600860248201527f4e69636520747279000000000000000000000000000000000000000000000000604482015290519081900360640190fd5b60008054600160a060020a0394851673ffffffffffffffffffffffffffffffffffffffff19918216179091556003929092556004805491909316911617905542600255565b600054600160a060020a031633146108a757600080fd5b6108b0816108c2565b50565b600454600160a060020a031690565b600160a060020a03811615156108d757600080fd5b60008054604051600160a060020a03808516939216917f8be0079c531659141344cd1fd0a4f28419497f9722a3daafe3b4186f6b6457e091a36000805473ffffffffffffffffffffffffffffffffffffffff1916600160a060020a039290921691909117905556fea165627a7a72305820418384e6d90cc91b6870aa671af5058c7f1fa050731199b949e56cef13ca10d10029",
  "source": "pragma solidity ^0.5.2;\n\nimport \"./Comment.sol\"; \nimport \"./Forum.sol\"; \nimport \"./CloneFactory.sol\";\nimport \"./CommentFactory.sol\";\nimport \"./Ownable.sol\";\n\ncontract Post is Ownable, CloneFactory {\n    struct PostInfo {\n        uint16 upvotes;\n        uint16 downvotes;\n        uint time;\n        bytes32 post;\n        address creator;\n        mapping(address => bool) comments;\n        mapping(address => bool) voters;\n    }  \n\n    PostInfo public postInfo;\n\n    function initialize(address _owner, bytes32 _post, address _postCreator) external {\n        require(owner == address(0), \"Nice try\");\n        owner = _owner;\n        postInfo.post = _post;\n        postInfo.creator = _postCreator;\n        postInfo.time = now;\n    }\n\n    function createComment (address _targetAddress, address _commentCreator, bytes32 _comment, address _commentFactory) \n    external onlyOwner returns(address) {\n        require(_targetAddress == address(this) || postInfo.comments[_targetAddress], \"Invalid comment target address\");\n        address newCommentAddress = CommentFactory(_commentFactory).createComment(_targetAddress, _commentCreator, _comment);\n        return newCommentAddress;\n    }\n\n    function deleteComment(\n        bool _admin, \n        bool _moderator, \n        address _userAddress, \n        address _commentAddress, \n        address payable _suicideAddress\n    ) external onlyOwner {\n        require(postInfo.comments[_commentAddress], \"Comment not found\");\n        Comment(_commentAddress).deleteComment(_admin, _moderator, _userAddress, _suicideAddress);\n    }\n\n    function upvote(address _userAddress) external onlyOwner {\n        require (!postInfo.voters[_userAddress], \"Already voted\");\n        postInfo.voters[_userAddress] = true;\n        postInfo.upvotes += 1;\n    }\n\n    function downvote(address _userAddress) external onlyOwner {\n        require (!postInfo.voters[_userAddress], \"Already voted\");\n        postInfo.voters[_userAddress] = true;\n        postInfo.downvotes += 1;\n    }\n\n    function getPostCreator() public view returns(address) {\n        return postInfo.creator;\n    }\n\n    function deletePost(bool _admin, bool _moderator, address _userAddress, address payable _suicideAddress) external onlyOwner {\n        require(\n            _admin || \n            _moderator || \n            _userAddress == postInfo.creator, \n            \"User does not have permission\");\n        selfdestruct(_suicideAddress);\n    }\n}",
  "sourcePath": "/Users/jarenlynch/Ethereum/Tartarus/contracts/Post.sol",
  "compiler": {
    "name": "solc",
    "version": "0.5.2+commit.1df8f40c.Emscripten.clang"
  },
  "schemaVersion": "3.0.6",
  "updatedAt": "2019-04-10T23:55:49.083Z",
  "devdoc": {
    "methods": {
      "renounceOwnership()": {
        "details": "Allows the current owner to relinquish control of the contract."
      },
      "transferOwnership(address)": {
        "details": "Allows the current owner to transfer control of the contract to a newOwner.",
        "params": {
          "_newOwner": "The address to transfer ownership to."
        }
      }
    }
  },
  "userdoc": {
    "methods": {
      "renounceOwnership()": {
        "notice": "Renouncing to ownership will leave the contract without an owner. It will not be possible to call the functions with the `onlyOwner` modifier anymore."
      }
    }
  }
}