{
  "contractName": "PostFactory",
  "abi": [
    {
      "inputs": [],
      "payable": false,
      "stateMutability": "nonpayable",
      "type": "constructor",
      "signature": "constructor"
    },
    {
      "constant": false,
      "inputs": [
        {
          "name": "_post",
          "type": "bytes32"
        },
        {
          "name": "_postCreator",
          "type": "address"
        }
      ],
      "name": "createPost",
      "outputs": [
        {
          "name": "",
          "type": "address"
        }
      ],
      "payable": false,
      "stateMutability": "nonpayable",
      "type": "function",
      "signature": "0x9dc0070c"
    }
  ],
  "bytecode": "0x608060405234801561001057600080fd5b5061001961005b565b604051809103906000f080158015610035573d6000803e3d6000fd5b5060008054600160a060020a031916600160a060020a039290921691909117905561006b565b6040516105be8061028d83390190565b6102138061007a6000396000f3fe608060405234801561001057600080fd5b5060043610610047577c010000000000000000000000000000000000000000000000000000000060003504639dc0070c811461004c575b600080fd5b6100856004803603604081101561006257600080fd5b508035906020013573ffffffffffffffffffffffffffffffffffffffff166100ae565b6040805173ffffffffffffffffffffffffffffffffffffffff9092168252519081900360200190f35b6000805481906100d39073ffffffffffffffffffffffffffffffffffffffff16610174565b604080517fd26b3e6e0000000000000000000000000000000000000000000000000000000081523360048201526024810187905273ffffffffffffffffffffffffffffffffffffffff868116604483015291519293509083169163d26b3e6e9160648082019260009290919082900301818387803b15801561015457600080fd5b505af1158015610168573d6000803e3d6000fd5b50929695505050505050565b6040517f3d602d80600a3d3981f3363d3d373d3d3d363d7300000000000000000000000081526c010000000000000000000000008202601482018190527f5af43d82803e903d91602b57fd5bf30000000000000000000000000000000000602883015260009160378184f094935050505056fea165627a7a72305820aee9a20acd3babba7e0a05ce81ce77d48291c718f101908b9f1a6fd04aeb7e670029608060405260008054600160a060020a03191633179055610599806100256000396000f3fe608060405234801561001057600080fd5b50600436106100b0576000357c01000000000000000000000000000000000000000000000000000000009004806392d7727c1161008357806392d7727c1461015c578063a8df84df14610164578063d26b3e6e1461016c578063f2fde38b146101a2578063f5b5709b146101c8576100b0565b806358cd1497146100b5578063715018a6146100f55780638bd178e9146100fd5780638da5cb5b14610138575b600080fd5b6100f3600480360360808110156100cb57600080fd5b5080351515906020810135151590600160a060020a03604082013581169160600135166101d0565b005b6100f3610281565b6101056102ed565b60408051948552600160a060020a039093166020850152600391820b90910b838301526060830152519081900360800190f35b610140610321565b60408051600160a060020a039092168252519081900360200190f35b6100f3610330565b6100f3610397565b6100f36004803603606081101561018257600080fd5b50600160a060020a03813581169160208101359160409091013516610401565b6100f3600480360360208110156101b857600080fd5b5035600160a060020a03166104be565b6101406104e1565b600054600160a060020a031633146101e757600080fd5b83806101f05750825b806102085750600254600160a060020a038381169116145b151561027557604080517f08c379a000000000000000000000000000000000000000000000000000000000815260206004820152601d60248201527f5573657220646f6573206e6f742068617665207065726d697373696f6e000000604482015290519081900360640190fd5b80600160a060020a0316ff5b600054600160a060020a0316331461029857600080fd5b60008054604051600160a060020a03909116917ff8df31144d9c2f0f6b59d69b8b98abd5459d07f2742c4df920b25aae33c6482091a26000805473ffffffffffffffffffffffffffffffffffffffff19169055565b60015460025460038054600160a060020a0383169274010000000000000000000000000000000000000000900490910b9084565b600054600160a060020a031681565b600054600160a060020a0316331461034757600080fd5b6002805474010000000000000000000000000000000000000000808204600390810b600101900b63ffffffff160277ffffffff000000000000000000000000000000000000000019909116179055565b600054600160a060020a031633146103ae57600080fd5b6002805477ffffffff000000000000000000000000000000000000000019811663ffffffff7401000000000000000000000000000000000000000092839004600390810b60001901900b16909102179055565b600054600160a060020a03161561047957604080517f08c379a000000000000000000000000000000000000000000000000000000000815260206004820152600860248201527f4e69636520747279000000000000000000000000000000000000000000000000604482015290519081900360640190fd5b60008054600160a060020a0394851673ffffffffffffffffffffffffffffffffffffffff19918216179091556001929092556002805491909316911617905542600355565b600054600160a060020a031633146104d557600080fd5b6104de816104f0565b50565b600254600160a060020a031690565b600160a060020a038116151561050557600080fd5b60008054604051600160a060020a03808516939216917f8be0079c531659141344cd1fd0a4f28419497f9722a3daafe3b4186f6b6457e091a36000805473ffffffffffffffffffffffffffffffffffffffff1916600160a060020a039290921691909117905556fea165627a7a72305820f575ea8bd231758a35239cd62e58438144463196a95534238fda5d600d905c0f0029",
  "source": "pragma solidity ^0.5.2;\n\nimport \"./Post.sol\";\nimport \"./CloneFactory.sol\";\n\ncontract PostFactory is CloneFactory {\n    address clonePost;\n\n    constructor() public {\n        clonePost = address(new Post());\n    }\n\n    function createPost(bytes32 _post, address _postCreator) external returns(address){\n        address clone = createClone(clonePost);\n        Post(clone).initialize(msg.sender, _post, _postCreator);\n        return clone;\n    }\n}",
  "sourcePath": "/Users/jarenlynch/Ethereum/Tartarus/contracts/PostFactory.sol",
  "compiler": {
    "name": "solc",
    "version": "0.5.2+commit.1df8f40c.Emscripten.clang"
  },
  "schemaVersion": "3.0.6",
  "updatedAt": "2019-04-11T23:40:35.253Z",
  "devdoc": {
    "methods": {}
  },
  "userdoc": {
    "methods": {}
  }
}