{
  "contractName": "Post",
  "abi": [
    {
      "constant": false,
      "inputs": [],
      "name": "renounceOwnership",
      "outputs": [],
      "payable": false,
      "stateMutability": "nonpayable",
      "type": "function"
    },
    {
      "constant": true,
      "inputs": [],
      "name": "postInfo",
      "outputs": [
        {
          "name": "upvotes",
          "type": "uint16"
        },
        {
          "name": "downvotes",
          "type": "uint16"
        },
        {
          "name": "time",
          "type": "uint256"
        },
        {
          "name": "post",
          "type": "bytes32"
        },
        {
          "name": "creator",
          "type": "address"
        }
      ],
      "payable": false,
      "stateMutability": "view",
      "type": "function"
    },
    {
      "constant": true,
      "inputs": [],
      "name": "owner",
      "outputs": [
        {
          "name": "",
          "type": "address"
        }
      ],
      "payable": false,
      "stateMutability": "view",
      "type": "function"
    },
    {
      "constant": false,
      "inputs": [
        {
          "name": "_newOwner",
          "type": "address"
        }
      ],
      "name": "transferOwnership",
      "outputs": [],
      "payable": false,
      "stateMutability": "nonpayable",
      "type": "function"
    },
    {
      "anonymous": false,
      "inputs": [
        {
          "indexed": true,
          "name": "previousOwner",
          "type": "address"
        }
      ],
      "name": "OwnershipRenounced",
      "type": "event"
    },
    {
      "anonymous": false,
      "inputs": [
        {
          "indexed": true,
          "name": "previousOwner",
          "type": "address"
        },
        {
          "indexed": true,
          "name": "newOwner",
          "type": "address"
        }
      ],
      "name": "OwnershipTransferred",
      "type": "event"
    },
    {
      "constant": false,
      "inputs": [
        {
          "name": "_post",
          "type": "bytes32"
        },
        {
          "name": "_postCreator",
          "type": "address"
        }
      ],
      "name": "initialize",
      "outputs": [],
      "payable": false,
      "stateMutability": "nonpayable",
      "type": "function"
    },
    {
      "constant": false,
      "inputs": [
        {
          "name": "_targetAddress",
          "type": "address"
        },
        {
          "name": "_commentCreator",
          "type": "address"
        },
        {
          "name": "_comment",
          "type": "bytes32"
        },
        {
          "name": "_cloneComment",
          "type": "address"
        }
      ],
      "name": "createComment",
      "outputs": [
        {
          "name": "",
          "type": "address"
        }
      ],
      "payable": false,
      "stateMutability": "nonpayable",
      "type": "function"
    },
    {
      "constant": false,
      "inputs": [
        {
          "name": "_admin",
          "type": "bool"
        },
        {
          "name": "_moderator",
          "type": "bool"
        },
        {
          "name": "_userAddress",
          "type": "address"
        },
        {
          "name": "_commentAddress",
          "type": "address"
        },
        {
          "name": "_suicideAddress",
          "type": "address"
        }
      ],
      "name": "deleteComment",
      "outputs": [],
      "payable": false,
      "stateMutability": "nonpayable",
      "type": "function"
    },
    {
      "constant": false,
      "inputs": [
        {
          "name": "_userAddress",
          "type": "address"
        }
      ],
      "name": "upvote",
      "outputs": [],
      "payable": false,
      "stateMutability": "nonpayable",
      "type": "function"
    },
    {
      "constant": false,
      "inputs": [
        {
          "name": "_userAddress",
          "type": "address"
        }
      ],
      "name": "downvote",
      "outputs": [],
      "payable": false,
      "stateMutability": "nonpayable",
      "type": "function"
    },
    {
      "constant": true,
      "inputs": [],
      "name": "getPostCreator",
      "outputs": [
        {
          "name": "",
          "type": "address"
        }
      ],
      "payable": false,
      "stateMutability": "view",
      "type": "function"
    },
    {
      "constant": false,
      "inputs": [
        {
          "name": "_admin",
          "type": "bool"
        },
        {
          "name": "_moderator",
          "type": "bool"
        },
        {
          "name": "_userAddress",
          "type": "address"
        },
        {
          "name": "_suicideAddress",
          "type": "address"
        }
      ],
      "name": "deletePost",
      "outputs": [],
      "payable": false,
      "stateMutability": "nonpayable",
      "type": "function"
    }
  ],
  "bytecode": "0x608060405260008054600160a060020a031916331790556109cc806100256000396000f3fe608060405234801561001057600080fd5b50600436106100c6576000357c01000000000000000000000000000000000000000000000000000000009004806389179bdb1161008e57806389179bdb146101bd5780638a6955f4146101e35780638bd178e91461022b5780638da5cb5b1461026e578063f2fde38b14610276578063f5b5709b1461029c576100c6565b80630839b596146100cb578063399cd856146100f357806358cd14971461014b5780636910e33414610189578063715018a6146101b5575b600080fd5b6100f1600480360360208110156100e157600080fd5b5035600160a060020a03166102a4565b005b61012f6004803603608081101561010957600080fd5b50600160a060020a03813581169160208101358216916040820135916060013516610368565b60408051600160a060020a039092168252519081900360200190f35b6100f16004803603608081101561016157600080fd5b5080351515906020810135151590600160a060020a03604082013581169160600135166104a8565b6100f16004803603604081101561019f57600080fd5b5080359060200135600160a060020a0316610542565b6100f16105e7565b6100f1600480360360208110156101d357600080fd5b5035600160a060020a0316610653565b6100f1600480360360a08110156101f957600080fd5b5080351515906020810135151590600160a060020a036040820135811691606081013582169160809091013516610722565b610233610846565b6040805161ffff9687168152949095166020850152838501929092526060830152600160a060020a0316608082015290519081900360a00190f35b61012f61086f565b6100f16004803603602081101561028c57600080fd5b5035600160a060020a031661087e565b61012f6108a1565b600054600160a060020a031633146102bb57600080fd5b600160a060020a03811660009081526006602052604090205460ff161561032c576040805160e560020a62461bcd02815260206004820152600d60248201527f416c726561647920766f74656400000000000000000000000000000000000000604482015290519081900360640190fd5b600160a060020a03166000908152600660205260409020805460ff19166001908117909155805461ffff80821683011661ffff19909116179055565b60008054600160a060020a0316331461038057600080fd5b600160a060020a0385163014806103af5750600160a060020a03851660009081526005602052604090205460ff165b1515610405576040805160e560020a62461bcd02815260206004820152601e60248201527f496e76616c696420636f6d6d656e742074617267657420616464726573730000604482015290519081900360640190fd5b6000610410836108b0565b604080517f6133f985000000000000000000000000000000000000000000000000000000008152600160a060020a038981166004830152888116602483015260448201889052915192935090831691636133f9859160648082019260009290919082900301818387803b15801561048657600080fd5b505af115801561049a573d6000803e3d6000fd5b509298975050505050505050565b600054600160a060020a031633146104bf57600080fd5b83806104c85750825b806104e05750600454600160a060020a038381169116145b1515610536576040805160e560020a62461bcd02815260206004820152601d60248201527f5573657220646f6573206e6f742068617665207065726d697373696f6e000000604482015290519081900360640190fd5b80600160a060020a0316ff5b600054600160a060020a0316156105a3576040805160e560020a62461bcd02815260206004820152600860248201527f4e69636520747279000000000000000000000000000000000000000000000000604482015290519081900360640190fd5b600080543373ffffffffffffffffffffffffffffffffffffffff199182161790915560039290925560048054909216600160a060020a039190911617905542600255565b600054600160a060020a031633146105fe57600080fd5b60008054604051600160a060020a03909116917ff8df31144d9c2f0f6b59d69b8b98abd5459d07f2742c4df920b25aae33c6482091a26000805473ffffffffffffffffffffffffffffffffffffffff19169055565b600054600160a060020a0316331461066a57600080fd5b600160a060020a03811660009081526006602052604090205460ff16156106db576040805160e560020a62461bcd02815260206004820152600d60248201527f416c726561647920766f74656400000000000000000000000000000000000000604482015290519081900360640190fd5b600160a060020a03166000908152600660205260409020805460ff19166001908117909155805461ffff62010000808304821684019091160263ffff000019909116179055565b600054600160a060020a0316331461073957600080fd5b600160a060020a03821660009081526005602052604090205460ff1615156107ab576040805160e560020a62461bcd02815260206004820152601160248201527f436f6d6d656e74206e6f7420666f756e64000000000000000000000000000000604482015290519081900360640190fd5b604080517f116125d000000000000000000000000000000000000000000000000000000000815286151560048201528515156024820152600160a060020a038581166044830152838116606483015291519184169163116125d09160848082019260009290919082900301818387803b15801561082757600080fd5b505af115801561083b573d6000803e3d6000fd5b505050505050505050565b60015460025460035460045461ffff8085169462010000900416929190600160a060020a031685565b600054600160a060020a031681565b600054600160a060020a0316331461089557600080fd5b61089e81610923565b50565b600454600160a060020a031690565b6040517f3d602d80600a3d3981f3363d3d373d3d3d363d7300000000000000000000000081526c010000000000000000000000008202601482018190527f5af43d82803e903d91602b57fd5bf30000000000000000000000000000000000602883015260009160378184f0949350505050565b600160a060020a038116151561093857600080fd5b60008054604051600160a060020a03808516939216917f8be0079c531659141344cd1fd0a4f28419497f9722a3daafe3b4186f6b6457e091a36000805473ffffffffffffffffffffffffffffffffffffffff1916600160a060020a039290921691909117905556fea165627a7a72305820e368f83ebcfee14dd7565323391eeca898c2874cf4022be5b1a9411d3c7f16e30029",
  "source": "pragma solidity ^0.5.2;\n\nimport \"./Comment.sol\"; \nimport \"./Forum.sol\"; \nimport \"./CloneFactory.sol\";\nimport \"./Ownable.sol\";\n\ncontract Post is Ownable, CloneFactory {\n    struct PostInfo {\n        uint16 upvotes;\n        uint16 downvotes;\n        uint time;\n        bytes32 post;\n        address creator;\n        mapping(address => bool) comments;\n        mapping(address => bool) voters;\n    }  \n\n    PostInfo public postInfo;\n\n    function initialize(bytes32 _post, address _postCreator) external {\n        require(owner == address(0), \"Nice try\");\n        owner = msg.sender;\n        postInfo.post = _post;\n        postInfo.creator = _postCreator;\n        postInfo.time = now;\n    }\n\n    function createComment (address _targetAddress, address _commentCreator, bytes32 _comment, address _cloneComment) \n    external onlyOwner returns(address) {\n        require(_targetAddress == address(this) || postInfo.comments[_targetAddress], \"Invalid comment target address\");\n        address newCommentAddress = createClone(_cloneComment);\n        Comment(newCommentAddress).initialize(_targetAddress, _commentCreator, _comment);\n        return newCommentAddress;\n    }\n\n    function deleteComment(\n        bool _admin, \n        bool _moderator, \n        address _userAddress, \n        address _commentAddress, \n        address payable _suicideAddress\n    ) external onlyOwner {\n        require(postInfo.comments[_commentAddress], \"Comment not found\");\n        Comment(_commentAddress).deleteComment(_admin, _moderator, _userAddress, _suicideAddress);\n    }\n\n    function upvote(address _userAddress) external onlyOwner {\n        require (!postInfo.voters[_userAddress], \"Already voted\");\n        postInfo.voters[_userAddress] = true;\n        postInfo.upvotes += 1;\n    }\n\n    function downvote(address _userAddress) external onlyOwner {\n        require (!postInfo.voters[_userAddress], \"Already voted\");\n        postInfo.voters[_userAddress] = true;\n        postInfo.downvotes += 1;\n    }\n\n    function getPostCreator() public view returns(address) {\n        return postInfo.creator;\n    }\n\n    function deletePost(bool _admin, bool _moderator, address _userAddress, address payable _suicideAddress) external onlyOwner {\n        require(\n            _admin || \n            _moderator || \n            _userAddress == postInfo.creator, \n            \"User does not have permission\");\n        selfdestruct(_suicideAddress);\n    }\n}",
  "sourcePath": "/Users/jarenlynch/Ethereum/Tartarus/contracts/Post.sol",
  "compiler": {
    "name": "solc",
    "version": "0.5.2+commit.1df8f40c.Emscripten.clang"
  },
  "schemaVersion": "3.0.6",
  "updatedAt": "2019-04-10T08:06:45.687Z",
  "devdoc": {
    "methods": {
      "renounceOwnership()": {
        "details": "Allows the current owner to relinquish control of the contract."
      },
      "transferOwnership(address)": {
        "details": "Allows the current owner to transfer control of the contract to a newOwner.",
        "params": {
          "_newOwner": "The address to transfer ownership to."
        }
      }
    }
  },
  "userdoc": {
    "methods": {
      "renounceOwnership()": {
        "notice": "Renouncing to ownership will leave the contract without an owner. It will not be possible to call the functions with the `onlyOwner` modifier anymore."
      }
    }
  }
}