{
  "contractName": "Post",
  "abi": [
    {
      "constant": false,
      "inputs": [],
      "name": "renounceOwnership",
      "outputs": [],
      "payable": false,
      "stateMutability": "nonpayable",
      "type": "function"
    },
    {
      "constant": true,
      "inputs": [],
      "name": "postInfo",
      "outputs": [
        {
          "name": "ipfsHash",
          "type": "string"
        },
        {
          "name": "creator",
          "type": "address"
        },
        {
          "name": "time",
          "type": "uint256"
        },
        {
          "name": "votes",
          "type": "int32"
        }
      ],
      "payable": false,
      "stateMutability": "view",
      "type": "function"
    },
    {
      "constant": true,
      "inputs": [],
      "name": "owner",
      "outputs": [
        {
          "name": "",
          "type": "address"
        }
      ],
      "payable": false,
      "stateMutability": "view",
      "type": "function"
    },
    {
      "constant": false,
      "inputs": [
        {
          "name": "_newOwner",
          "type": "address"
        }
      ],
      "name": "transferOwnership",
      "outputs": [],
      "payable": false,
      "stateMutability": "nonpayable",
      "type": "function"
    },
    {
      "anonymous": false,
      "inputs": [
        {
          "indexed": true,
          "name": "commentAddress",
          "type": "address"
        },
        {
          "indexed": true,
          "name": "targetAddress",
          "type": "address"
        }
      ],
      "name": "CommentCreated",
      "type": "event"
    },
    {
      "anonymous": false,
      "inputs": [
        {
          "indexed": true,
          "name": "previousOwner",
          "type": "address"
        }
      ],
      "name": "OwnershipRenounced",
      "type": "event"
    },
    {
      "anonymous": false,
      "inputs": [
        {
          "indexed": true,
          "name": "previousOwner",
          "type": "address"
        },
        {
          "indexed": true,
          "name": "newOwner",
          "type": "address"
        }
      ],
      "name": "OwnershipTransferred",
      "type": "event"
    },
    {
      "constant": false,
      "inputs": [
        {
          "name": "_ipfsHash",
          "type": "string"
        },
        {
          "name": "_postCreator",
          "type": "address"
        }
      ],
      "name": "initialize",
      "outputs": [],
      "payable": false,
      "stateMutability": "nonpayable",
      "type": "function"
    },
    {
      "constant": false,
      "inputs": [
        {
          "name": "_ipfsHash",
          "type": "bytes32"
        },
        {
          "name": "_commentCreator",
          "type": "address"
        },
        {
          "name": "_targetAddress",
          "type": "address"
        },
        {
          "name": "_cloneComment",
          "type": "address"
        }
      ],
      "name": "createComment",
      "outputs": [
        {
          "name": "",
          "type": "address"
        }
      ],
      "payable": false,
      "stateMutability": "nonpayable",
      "type": "function"
    },
    {
      "constant": false,
      "inputs": [],
      "name": "upvote",
      "outputs": [],
      "payable": false,
      "stateMutability": "nonpayable",
      "type": "function"
    },
    {
      "constant": false,
      "inputs": [],
      "name": "downvote",
      "outputs": [],
      "payable": false,
      "stateMutability": "nonpayable",
      "type": "function"
    }
  ],
  "bytecode": "0x608060405260008054600160a060020a031916331790556108d8806100256000396000f30060806040526004361061008d5763ffffffff7c0100000000000000000000000000000000000000000000000000000000600035041663715018a681146100925780637ab4339d146100a95780638bd178e91461010d5780638da5cb5b146101c757806392d7727c146101f857806395fd7e841461020d578063a8df84df1461023d578063f2fde38b14610252575b600080fd5b34801561009e57600080fd5b506100a7610273565b005b3480156100b557600080fd5b506040805160206004803580820135601f81018490048402850184019095528484526100a794369492936024939284019190819084018382808284375094975050509235600160a060020a031693506102df92505050565b34801561011957600080fd5b506101226103cb565b604051808060200185600160a060020a0316600160a060020a031681526020018481526020018360030b60030b8152602001828103825286818151815260200191508051906020019080838360005b83811015610189578181015183820152602001610171565b50505050905090810190601f1680156101b65780820380516001836020036101000a031916815260200191505b509550505050505060405180910390f35b3480156101d357600080fd5b506101dc61047c565b60408051600160a060020a039092168252519081900360200190f35b34801561020457600080fd5b506100a761048b565b34801561021957600080fd5b506101dc600435600160a060020a036024358116906044358116906064351661054d565b34801561024957600080fd5b506100a761063f565b34801561025e57600080fd5b506100a7600160a060020a03600435166106fe565b600054600160a060020a0316331461028a57600080fd5b60008054604051600160a060020a03909116917ff8df31144d9c2f0f6b59d69b8b98abd5459d07f2742c4df920b25aae33c6482091a26000805473ffffffffffffffffffffffffffffffffffffffff19169055565b600054600160a060020a03161561035757604080517f08c379a000000000000000000000000000000000000000000000000000000000815260206004820152600860248201527f4e69636520747279000000000000000000000000000000000000000000000000604482015290519081900360640190fd5b6000805473ffffffffffffffffffffffffffffffffffffffff1916331790558151610389906001906020850190610811565b506002805473ffffffffffffffffffffffffffffffffffffffff1916600160a060020a039290921691909117905550426003556004805463ffffffff19169055565b60018054604080516020601f6002600019610100878916150201909516949094049384018190048102820181019092528281529183918301828280156104525780601f1061042757610100808354040283529160200191610452565b820191906000526020600020905b81548152906001019060200180831161043557829003601f168201915b50505050600183015460028401546003948501549394600160a060020a0390921693909250900b84565b600054600160a060020a031681565b3360009081526005602052604090205460ff161561050a57604080517f08c379a000000000000000000000000000000000000000000000000000000000815260206004820152600d60248201527f416c726561647920766f74656400000000000000000000000000000000000000604482015290519081900360640190fd5b336000908152600560205260409020805460ff1916600190811790915560048054600381810b90930190920b63ffffffff1663ffffffff19909216919091179055565b600080548190600160a060020a0316331461056757600080fd5b61057083610721565b604080517f88b117b300000000000000000000000000000000000000000000000000000000815260048101899052600160a060020a03888116602483015287811660448301529151929350908316916388b117b39160648082019260009290919082900301818387803b1580156105e657600080fd5b505af11580156105fa573d6000803e3d6000fd5b5050604051600160a060020a038088169350841691507fc71c80f36114239068c61c371cc78fe31efc9d52119e0bf5715623485ffb292a90600090a395945050505050565b3360009081526005602052604090205460ff16156106be57604080517f08c379a000000000000000000000000000000000000000000000000000000000815260206004820152600d60248201527f416c726561647920766f74656400000000000000000000000000000000000000604482015290519081900360640190fd5b336000908152600560205260409020805460ff1916600117905560048054600019600382810b91909101900b63ffffffff1663ffffffff19909116179055565b600054600160a060020a0316331461071557600080fd5b61071e81610794565b50565b6040517f3d602d80600a3d3981f3363d3d373d3d3d363d7300000000000000000000000081526c010000000000000000000000008202601482018190527f5af43d82803e903d91602b57fd5bf30000000000000000000000000000000000602883015260009160378184f0949350505050565b600160a060020a03811615156107a957600080fd5b60008054604051600160a060020a03808516939216917f8be0079c531659141344cd1fd0a4f28419497f9722a3daafe3b4186f6b6457e091a36000805473ffffffffffffffffffffffffffffffffffffffff1916600160a060020a0392909216919091179055565b828054600181600116156101000203166002900490600052602060002090601f016020900481019282601f1061085257805160ff191683800117855561087f565b8280016001018555821561087f579182015b8281111561087f578251825591602001919060010190610864565b5061088b92915061088f565b5090565b6108a991905b8082111561088b5760008155600101610895565b905600a165627a7a723058206fe8f4995d2a660016e305033a22a3e1da1b23906ed4fed029adeb2606d130b80029",
  "source": "pragma solidity ^0.4.24;\n\nimport \"./Comment.sol\"; \nimport \"./CloneFactory.sol\";\nimport \"./Ownable.sol\";\n\ncontract Post is Ownable, CloneFactory {\n    event CommentCreated (address indexed commentAddress, address indexed targetAddress);\n\n    struct PostInfo {\n        string ipfsHash;\n        address creator;\n        uint time;\n        int32 votes;\n        mapping(address => bool) voters;\n    }  \n\n    PostInfo public postInfo;\n\n    function initialize(string _ipfsHash, address _postCreator) public {\n        require(owner == address(0), \"Nice try\");\n        owner = msg.sender;\n        postInfo.ipfsHash = _ipfsHash;\n        postInfo.creator = _postCreator;\n        postInfo.time = now;\n        postInfo.votes = 0;\n    }\n\n    function createComment (bytes32 _ipfsHash, address _commentCreator, address _targetAddress, address _cloneComment) \n    public onlyOwner returns(address) {\n        address clone = createClone(_cloneComment);\n        Comment(clone).initialize(_ipfsHash, _commentCreator, _targetAddress);\n        emit CommentCreated(clone, _targetAddress);\n        return clone;\n    }\n\n    // function getCommentInfo(address _commentAddress) public view returns(bytes32, address, address, uint) {\n    //     return (\n    //         postInfo.comments[_commentAddress].ipfsHash,\n    //         postInfo.comments[_commentAddress].creator,\n    //         postInfo.comments[_commentAddress].target,\n    //         postInfo.comments[_commentAddress].time\n    //     );\n    // }\n\n    // todo create separate createComment => comment function\n    // todo create upvote / downvote comment functions\n\n    function upvote() public {\n        require (!postInfo.voters[msg.sender], \"Already voted\");\n        postInfo.voters[msg.sender] = true;\n        postInfo.votes += 1;\n    }\n\n    function downvote() public {\n        require (!postInfo.voters[msg.sender], \"Already voted\");\n        postInfo.voters[msg.sender] = true;\n        postInfo.votes -= 1;\n    }\n}",
  "sourcePath": "/Users/jarenlynch/Ethereum/Tartarus/contracts/Post.sol",
  "compiler": {
    "name": "solc",
    "version": "0.4.24+commit.e67f0147.Emscripten.clang"
  },
  "schemaVersion": "2.0.1",
  "updatedAt": "2019-02-24T22:32:21.268Z"
}