{
  "contractName": "Tartarus",
  "abi": [
    {
      "constant": true,
      "inputs": [],
      "name": "transactionCost",
      "outputs": [
        {
          "name": "",
          "type": "uint256"
        }
      ],
      "payable": false,
      "stateMutability": "view",
      "type": "function"
    },
    {
      "constant": true,
      "inputs": [],
      "name": "userFactory",
      "outputs": [
        {
          "name": "",
          "type": "address"
        }
      ],
      "payable": false,
      "stateMutability": "view",
      "type": "function"
    },
    {
      "constant": true,
      "inputs": [
        {
          "name": "",
          "type": "bytes32"
        }
      ],
      "name": "comments",
      "outputs": [
        {
          "name": "comment",
          "type": "bytes32"
        },
        {
          "name": "creator",
          "type": "bytes32"
        },
        {
          "name": "target",
          "type": "bytes32"
        },
        {
          "name": "time",
          "type": "uint256"
        }
      ],
      "payable": false,
      "stateMutability": "view",
      "type": "function"
    },
    {
      "constant": false,
      "inputs": [],
      "name": "renounceOwnership",
      "outputs": [],
      "payable": false,
      "stateMutability": "nonpayable",
      "type": "function"
    },
    {
      "constant": true,
      "inputs": [],
      "name": "postFactory",
      "outputs": [
        {
          "name": "",
          "type": "address"
        }
      ],
      "payable": false,
      "stateMutability": "view",
      "type": "function"
    },
    {
      "constant": true,
      "inputs": [],
      "name": "commentFactory",
      "outputs": [
        {
          "name": "",
          "type": "address"
        }
      ],
      "payable": false,
      "stateMutability": "view",
      "type": "function"
    },
    {
      "constant": true,
      "inputs": [],
      "name": "owner",
      "outputs": [
        {
          "name": "",
          "type": "address"
        }
      ],
      "payable": false,
      "stateMutability": "view",
      "type": "function"
    },
    {
      "constant": true,
      "inputs": [
        {
          "name": "",
          "type": "bytes32"
        }
      ],
      "name": "users",
      "outputs": [
        {
          "name": "username",
          "type": "bytes32"
        },
        {
          "name": "creator",
          "type": "address"
        },
        {
          "name": "time",
          "type": "uint256"
        }
      ],
      "payable": false,
      "stateMutability": "view",
      "type": "function"
    },
    {
      "constant": true,
      "inputs": [
        {
          "name": "",
          "type": "bytes32"
        }
      ],
      "name": "admins",
      "outputs": [
        {
          "name": "ban",
          "type": "bool"
        },
        {
          "name": "setCost",
          "type": "bool"
        },
        {
          "name": "setCreateUserCost",
          "type": "bool"
        },
        {
          "name": "editAdmin",
          "type": "bool"
        },
        {
          "name": "deleteComment",
          "type": "bool"
        },
        {
          "name": "deletePost",
          "type": "bool"
        },
        {
          "name": "deleteForum",
          "type": "bool"
        }
      ],
      "payable": false,
      "stateMutability": "view",
      "type": "function"
    },
    {
      "constant": true,
      "inputs": [
        {
          "name": "",
          "type": "bytes32"
        }
      ],
      "name": "banned",
      "outputs": [
        {
          "name": "",
          "type": "bool"
        }
      ],
      "payable": false,
      "stateMutability": "view",
      "type": "function"
    },
    {
      "constant": true,
      "inputs": [
        {
          "name": "",
          "type": "bytes32"
        }
      ],
      "name": "posts",
      "outputs": [
        {
          "name": "post",
          "type": "bytes32"
        },
        {
          "name": "creator",
          "type": "bytes32"
        },
        {
          "name": "votes",
          "type": "int32"
        },
        {
          "name": "time",
          "type": "uint256"
        }
      ],
      "payable": false,
      "stateMutability": "view",
      "type": "function"
    },
    {
      "constant": true,
      "inputs": [],
      "name": "forumFactory",
      "outputs": [
        {
          "name": "",
          "type": "address"
        }
      ],
      "payable": false,
      "stateMutability": "view",
      "type": "function"
    },
    {
      "constant": true,
      "inputs": [],
      "name": "createUserCost",
      "outputs": [
        {
          "name": "",
          "type": "uint256"
        }
      ],
      "payable": false,
      "stateMutability": "view",
      "type": "function"
    },
    {
      "constant": false,
      "inputs": [
        {
          "name": "_newOwner",
          "type": "address"
        }
      ],
      "name": "transferOwnership",
      "outputs": [],
      "payable": false,
      "stateMutability": "nonpayable",
      "type": "function"
    },
    {
      "constant": true,
      "inputs": [
        {
          "name": "",
          "type": "bytes32"
        }
      ],
      "name": "forums",
      "outputs": [
        {
          "name": "name",
          "type": "bytes32"
        },
        {
          "name": "rules",
          "type": "bytes32"
        },
        {
          "name": "description",
          "type": "bytes32"
        },
        {
          "name": "creator",
          "type": "bytes32"
        },
        {
          "name": "time",
          "type": "uint256"
        }
      ],
      "payable": false,
      "stateMutability": "view",
      "type": "function"
    },
    {
      "inputs": [
        {
          "name": "_userFactory",
          "type": "address"
        },
        {
          "name": "_commentFactory",
          "type": "address"
        },
        {
          "name": "_postFactory",
          "type": "address"
        },
        {
          "name": "_forumFactory",
          "type": "address"
        }
      ],
      "payable": false,
      "stateMutability": "nonpayable",
      "type": "constructor"
    },
    {
      "anonymous": false,
      "inputs": [
        {
          "indexed": false,
          "name": "forum",
          "type": "bytes32"
        }
      ],
      "name": "ForumCreated",
      "type": "event"
    },
    {
      "anonymous": false,
      "inputs": [
        {
          "indexed": true,
          "name": "forum",
          "type": "bytes32"
        },
        {
          "indexed": true,
          "name": "creator",
          "type": "bytes32"
        },
        {
          "indexed": false,
          "name": "postId",
          "type": "bytes32"
        }
      ],
      "name": "PostCreated",
      "type": "event"
    },
    {
      "anonymous": false,
      "inputs": [
        {
          "indexed": true,
          "name": "postId",
          "type": "bytes32"
        },
        {
          "indexed": true,
          "name": "creator",
          "type": "bytes32"
        },
        {
          "indexed": true,
          "name": "targetId",
          "type": "bytes32"
        },
        {
          "indexed": false,
          "name": "commentId",
          "type": "bytes32"
        }
      ],
      "name": "CommentCreated",
      "type": "event"
    },
    {
      "anonymous": false,
      "inputs": [
        {
          "indexed": false,
          "name": "_user",
          "type": "bytes32"
        },
        {
          "indexed": false,
          "name": "reason",
          "type": "bytes32"
        }
      ],
      "name": "ReportUser",
      "type": "event"
    },
    {
      "anonymous": false,
      "inputs": [
        {
          "indexed": false,
          "name": "_forum",
          "type": "bytes32"
        },
        {
          "indexed": false,
          "name": "reason",
          "type": "bytes32"
        }
      ],
      "name": "ReportForum",
      "type": "event"
    },
    {
      "anonymous": false,
      "inputs": [
        {
          "indexed": true,
          "name": "_forum",
          "type": "bytes32"
        },
        {
          "indexed": false,
          "name": "_postId",
          "type": "bytes32"
        },
        {
          "indexed": false,
          "name": "reason",
          "type": "bytes32"
        }
      ],
      "name": "ReportPost",
      "type": "event"
    },
    {
      "anonymous": false,
      "inputs": [
        {
          "indexed": true,
          "name": "_forum",
          "type": "bytes32"
        },
        {
          "indexed": false,
          "name": "_postId",
          "type": "bytes32"
        },
        {
          "indexed": false,
          "name": "_commentId",
          "type": "bytes32"
        },
        {
          "indexed": false,
          "name": "reason",
          "type": "bytes32"
        }
      ],
      "name": "ReportComment",
      "type": "event"
    },
    {
      "anonymous": false,
      "inputs": [
        {
          "indexed": true,
          "name": "previousOwner",
          "type": "address"
        }
      ],
      "name": "OwnershipRenounced",
      "type": "event"
    },
    {
      "anonymous": false,
      "inputs": [
        {
          "indexed": true,
          "name": "previousOwner",
          "type": "address"
        },
        {
          "indexed": true,
          "name": "newOwner",
          "type": "address"
        }
      ],
      "name": "OwnershipTransferred",
      "type": "event"
    },
    {
      "constant": false,
      "inputs": [
        {
          "name": "_username",
          "type": "bytes32"
        }
      ],
      "name": "createUser",
      "outputs": [],
      "payable": true,
      "stateMutability": "payable",
      "type": "function"
    },
    {
      "constant": false,
      "inputs": [
        {
          "name": "_user",
          "type": "bytes32"
        },
        {
          "name": "_forum",
          "type": "bytes32"
        },
        {
          "name": "_rules",
          "type": "bytes32"
        },
        {
          "name": "_description",
          "type": "bytes32"
        }
      ],
      "name": "createForum",
      "outputs": [],
      "payable": false,
      "stateMutability": "nonpayable",
      "type": "function"
    },
    {
      "constant": false,
      "inputs": [
        {
          "name": "_user",
          "type": "bytes32"
        },
        {
          "name": "_forum",
          "type": "bytes32"
        }
      ],
      "name": "deleteForum",
      "outputs": [],
      "payable": false,
      "stateMutability": "nonpayable",
      "type": "function"
    },
    {
      "constant": false,
      "inputs": [
        {
          "name": "_user",
          "type": "bytes32"
        },
        {
          "name": "_forum",
          "type": "bytes32"
        },
        {
          "name": "_post",
          "type": "bytes32"
        }
      ],
      "name": "createPost",
      "outputs": [],
      "payable": false,
      "stateMutability": "nonpayable",
      "type": "function"
    },
    {
      "constant": false,
      "inputs": [
        {
          "name": "_user",
          "type": "bytes32"
        },
        {
          "name": "_forum",
          "type": "bytes32"
        },
        {
          "name": "_postId",
          "type": "bytes32"
        }
      ],
      "name": "deletePost",
      "outputs": [],
      "payable": false,
      "stateMutability": "nonpayable",
      "type": "function"
    },
    {
      "constant": false,
      "inputs": [
        {
          "name": "_user",
          "type": "bytes32"
        },
        {
          "name": "_forum",
          "type": "bytes32"
        },
        {
          "name": "_postId",
          "type": "bytes32"
        }
      ],
      "name": "pinPost",
      "outputs": [],
      "payable": false,
      "stateMutability": "nonpayable",
      "type": "function"
    },
    {
      "constant": false,
      "inputs": [
        {
          "name": "_user",
          "type": "bytes32"
        },
        {
          "name": "_forum",
          "type": "bytes32"
        },
        {
          "name": "_postId",
          "type": "bytes32"
        },
        {
          "name": "_postIndex",
          "type": "uint256"
        }
      ],
      "name": "unpinPost",
      "outputs": [],
      "payable": false,
      "stateMutability": "nonpayable",
      "type": "function"
    },
    {
      "constant": false,
      "inputs": [
        {
          "name": "_forum",
          "type": "bytes32"
        },
        {
          "name": "_user",
          "type": "bytes32"
        },
        {
          "name": "_postId",
          "type": "bytes32"
        }
      ],
      "name": "upvote",
      "outputs": [],
      "payable": false,
      "stateMutability": "nonpayable",
      "type": "function"
    },
    {
      "constant": false,
      "inputs": [
        {
          "name": "_forum",
          "type": "bytes32"
        },
        {
          "name": "_user",
          "type": "bytes32"
        },
        {
          "name": "_postId",
          "type": "bytes32"
        }
      ],
      "name": "downvote",
      "outputs": [],
      "payable": false,
      "stateMutability": "nonpayable",
      "type": "function"
    },
    {
      "constant": false,
      "inputs": [
        {
          "name": "_user",
          "type": "bytes32"
        },
        {
          "name": "_forum",
          "type": "bytes32"
        },
        {
          "name": "_postId",
          "type": "bytes32"
        },
        {
          "name": "_comment",
          "type": "bytes32"
        },
        {
          "name": "_targetId",
          "type": "bytes32"
        }
      ],
      "name": "createComment",
      "outputs": [],
      "payable": false,
      "stateMutability": "nonpayable",
      "type": "function"
    },
    {
      "constant": false,
      "inputs": [
        {
          "name": "_user",
          "type": "bytes32"
        },
        {
          "name": "_forum",
          "type": "bytes32"
        },
        {
          "name": "_commentId",
          "type": "bytes32"
        }
      ],
      "name": "deleteComment",
      "outputs": [],
      "payable": false,
      "stateMutability": "nonpayable",
      "type": "function"
    },
    {
      "constant": false,
      "inputs": [
        {
          "name": "_user",
          "type": "bytes32"
        },
        {
          "name": "_forum",
          "type": "bytes32"
        },
        {
          "name": "_targetUser",
          "type": "bytes32"
        },
        {
          "name": "_ban",
          "type": "bool"
        },
        {
          "name": "_editInfo",
          "type": "bool"
        },
        {
          "name": "_editModerators",
          "type": "bool"
        },
        {
          "name": "_deletePost",
          "type": "bool"
        }
      ],
      "name": "createModerator",
      "outputs": [],
      "payable": false,
      "stateMutability": "nonpayable",
      "type": "function"
    },
    {
      "constant": false,
      "inputs": [
        {
          "name": "_user",
          "type": "bytes32"
        },
        {
          "name": "_targetUser",
          "type": "bytes32"
        },
        {
          "name": "_forum",
          "type": "bytes32"
        }
      ],
      "name": "removeModerator",
      "outputs": [],
      "payable": false,
      "stateMutability": "nonpayable",
      "type": "function"
    },
    {
      "constant": false,
      "inputs": [
        {
          "name": "_user",
          "type": "bytes32"
        },
        {
          "name": "_forum",
          "type": "bytes32"
        },
        {
          "name": "_rules",
          "type": "bytes32"
        }
      ],
      "name": "setForumRules",
      "outputs": [],
      "payable": false,
      "stateMutability": "nonpayable",
      "type": "function"
    },
    {
      "constant": false,
      "inputs": [
        {
          "name": "_user",
          "type": "bytes32"
        },
        {
          "name": "_forum",
          "type": "bytes32"
        },
        {
          "name": "_description",
          "type": "bytes32"
        }
      ],
      "name": "setForumDescription",
      "outputs": [],
      "payable": false,
      "stateMutability": "nonpayable",
      "type": "function"
    },
    {
      "constant": false,
      "inputs": [
        {
          "name": "_user",
          "type": "bytes32"
        },
        {
          "name": "_targetUser",
          "type": "bytes32"
        },
        {
          "name": "_forum",
          "type": "bytes32"
        }
      ],
      "name": "banUserForum",
      "outputs": [],
      "payable": false,
      "stateMutability": "nonpayable",
      "type": "function"
    },
    {
      "constant": false,
      "inputs": [
        {
          "name": "_user",
          "type": "bytes32"
        },
        {
          "name": "_targetUser",
          "type": "bytes32"
        },
        {
          "name": "_forum",
          "type": "bytes32"
        }
      ],
      "name": "unbanUserForum",
      "outputs": [],
      "payable": false,
      "stateMutability": "nonpayable",
      "type": "function"
    },
    {
      "constant": false,
      "inputs": [
        {
          "name": "_user",
          "type": "bytes32"
        },
        {
          "name": "_targetUser",
          "type": "bytes32"
        },
        {
          "name": "_reason",
          "type": "bytes32"
        }
      ],
      "name": "reportUser",
      "outputs": [],
      "payable": false,
      "stateMutability": "nonpayable",
      "type": "function"
    },
    {
      "constant": false,
      "inputs": [
        {
          "name": "_user",
          "type": "bytes32"
        },
        {
          "name": "_forum",
          "type": "bytes32"
        },
        {
          "name": "_reason",
          "type": "bytes32"
        }
      ],
      "name": "reportForum",
      "outputs": [],
      "payable": false,
      "stateMutability": "nonpayable",
      "type": "function"
    },
    {
      "constant": false,
      "inputs": [
        {
          "name": "_user",
          "type": "bytes32"
        },
        {
          "name": "_forum",
          "type": "bytes32"
        },
        {
          "name": "_postId",
          "type": "bytes32"
        },
        {
          "name": "_reason",
          "type": "bytes32"
        }
      ],
      "name": "reportPost",
      "outputs": [],
      "payable": false,
      "stateMutability": "nonpayable",
      "type": "function"
    },
    {
      "constant": false,
      "inputs": [
        {
          "name": "_user",
          "type": "bytes32"
        },
        {
          "name": "_forum",
          "type": "bytes32"
        },
        {
          "name": "_postId",
          "type": "bytes32"
        },
        {
          "name": "_commentId",
          "type": "bytes32"
        },
        {
          "name": "_reason",
          "type": "bytes32"
        }
      ],
      "name": "reportComment",
      "outputs": [],
      "payable": false,
      "stateMutability": "nonpayable",
      "type": "function"
    },
    {
      "constant": false,
      "inputs": [
        {
          "name": "_user",
          "type": "bytes32"
        },
        {
          "name": "_targetUser",
          "type": "bytes32"
        },
        {
          "name": "_ban",
          "type": "bool"
        },
        {
          "name": "_setCost",
          "type": "bool"
        },
        {
          "name": "_editAdmin",
          "type": "bool"
        },
        {
          "name": "_deletePost",
          "type": "bool"
        },
        {
          "name": "_deleteComment",
          "type": "bool"
        },
        {
          "name": "_deleteForum",
          "type": "bool"
        }
      ],
      "name": "createAdmin",
      "outputs": [],
      "payable": false,
      "stateMutability": "nonpayable",
      "type": "function"
    },
    {
      "constant": false,
      "inputs": [
        {
          "name": "_user",
          "type": "bytes32"
        },
        {
          "name": "_targetUser",
          "type": "bytes32"
        }
      ],
      "name": "removeAdmin",
      "outputs": [],
      "payable": false,
      "stateMutability": "nonpayable",
      "type": "function"
    },
    {
      "constant": true,
      "inputs": [
        {
          "name": "_user",
          "type": "bytes32"
        },
        {
          "name": "_targetUser",
          "type": "bytes32"
        }
      ],
      "name": "banUserTartarus",
      "outputs": [],
      "payable": false,
      "stateMutability": "view",
      "type": "function"
    },
    {
      "constant": true,
      "inputs": [
        {
          "name": "_user",
          "type": "bytes32"
        },
        {
          "name": "_targetUser",
          "type": "bytes32"
        }
      ],
      "name": "unbanUserTartarus",
      "outputs": [],
      "payable": false,
      "stateMutability": "view",
      "type": "function"
    },
    {
      "constant": false,
      "inputs": [
        {
          "name": "_user",
          "type": "bytes32"
        },
        {
          "name": "_newCost",
          "type": "uint256"
        }
      ],
      "name": "setCreateUserCost",
      "outputs": [],
      "payable": false,
      "stateMutability": "nonpayable",
      "type": "function"
    },
    {
      "constant": false,
      "inputs": [
        {
          "name": "_user",
          "type": "bytes32"
        },
        {
          "name": "_newCost",
          "type": "uint256"
        }
      ],
      "name": "setTransactionCost",
      "outputs": [],
      "payable": false,
      "stateMutability": "nonpayable",
      "type": "function"
    }
  ],
  "bytecode": "0x60806040526000600755600060085534801561001a57600080fd5b5060405160808061380d8339810180604052608081101561003a57600080fd5b5080516020820151604083015160609093015160008054600160a060020a0319908116331790915560098054600160a060020a03958616908316179055600a805493851693821693909317909255600b805494841694831694909417909355600c8054929093169116179055613758806100b56000396000f3fe60806040526004361061026e576000357c0100000000000000000000000000000000000000000000000000000000900480638da5cb5b11610156578063dff72dec116100d3578063f2fde38b11610097578063f2fde38b146109fa578063f677c4fd14610a2d578063fb11871714610a63578063fc6c245514610ab8578063ff24ba0414610ae8578063ff4b03e914610b1e5761026e565b8063dff72dec14610909578063e38abf4c1461095e578063ea34d123146109a0578063ec2cd812146109d0578063f004a35e146109e55761026e565b8063c7cd04591161011a578063c7cd04591461079f578063cea6ab98146107db578063d079661b1461082b578063d3dde4a314610895578063dca259cb146108cb5761026e565b80638da5cb5b146106c5578063aaf4edd9146106da578063abf7bfd814610710578063aefd80001461072d578063ba6a81211461076f5761026e565b8063596c7c86116101ef57806371827f5f116101b357806371827f5f146105cf5780637725b111146105e45780637d78140c146106145780638241261b1461062957806384d781781461065f578063861ac9b9146106955761026e565b8063596c7c86146104c25780635cdc5b6c146104fe57806361aebc941461053457806367cdd3a914610584578063715018a6146105ba5761026e565b80631ba8b7ea116102365780631ba8b7ea146103a35780632048ff11146103d957806324135cad14610400578063283097ab1461046157806340ef35dd146104925761026e565b806303df68ba146102735780630dce5c21146102ab578063147363f5146102e1578063157449a41461033757806316ac66fe1461036d575b600080fd5b34801561027f57600080fd5b506102a96004803603606081101561029657600080fd5b5080359060208101359060400135610b5a565b005b3480156102b757600080fd5b506102a9600480360360608110156102ce57600080fd5b5080359060208101359060400135610c65565b3480156102ed57600080fd5b506102a9600480360360e081101561030457600080fd5b508035906020810135906040810135906060810135151590608081013515159060a081013515159060c001351515610dc3565b34801561034357600080fd5b506102a96004803603606081101561035a57600080fd5b508035906020810135906040013561105e565b34801561037957600080fd5b506102a96004803603606081101561039057600080fd5b50803590602081013590604001356111a3565b3480156103af57600080fd5b506102a9600480360360608110156103c657600080fd5b50803590602081013590604001356112ae565b3480156103e557600080fd5b506103ee61149d565b60408051918252519081900360200190f35b34801561040c57600080fd5b506102a9600480360361010081101561042457600080fd5b5080359060208101359060408101351515906060810135151590608081013515159060a081013515159060c081013515159060e0013515156114a3565b34801561046d57600080fd5b506104766116e7565b60408051600160a060020a039092168252519081900360200190f35b34801561049e57600080fd5b506102a9600480360360408110156104b557600080fd5b50803590602001356116f6565b3480156104ce57600080fd5b506102a9600480360360808110156104e557600080fd5b50803590602081013590604081013590606001356117e0565b34801561050a57600080fd5b506102a96004803603606081101561052157600080fd5b5080359060208101359060400135611904565b34801561054057600080fd5b5061055e6004803603602081101561055757600080fd5b5035611a6b565b604080519485526020850193909352838301919091526060830152519081900360800190f35b34801561059057600080fd5b506102a9600480360360608110156105a757600080fd5b5080359060208101359060400135611a92565b3480156105c657600080fd5b506102a9611c6f565b3480156105db57600080fd5b50610476611cdb565b3480156105f057600080fd5b506102a96004803603604081101561060757600080fd5b5080359060200135611cea565b34801561062057600080fd5b50610476611e9d565b34801561063557600080fd5b506102a96004803603606081101561064c57600080fd5b5080359060208101359060400135611eac565b34801561066b57600080fd5b506102a96004803603606081101561068257600080fd5b5080359060208101359060400135612053565b3480156106a157600080fd5b506102a9600480360360408110156106b857600080fd5b5080359060200135612174565b3480156106d157600080fd5b5061047661225e565b3480156106e657600080fd5b506102a9600480360360608110156106fd57600080fd5b508035906020810135906040013561226d565b6102a96004803603602081101561072657600080fd5b50356123ed565b34801561073957600080fd5b506102a9600480360360a081101561075057600080fd5b508035906020810135906040810135906060810135906080013561251d565b34801561077b57600080fd5b506102a96004803603604081101561079257600080fd5b50803590602001356126ce565b3480156107ab57600080fd5b506102a9600480360360808110156107c257600080fd5b5080359060208101359060408101359060600135612835565b3480156107e757600080fd5b50610805600480360360208110156107fe57600080fd5b503561296c565b60408051938452600160a060020a03909216602084015282820152519081900360600190f35b34801561083757600080fd5b506108556004803603602081101561084e57600080fd5b5035612996565b604080519715158852951515602088015293151586860152911515606086015215156080850152151560a0840152151560c0830152519081900360e00190f35b3480156108a157600080fd5b506102a9600480360360608110156108b857600080fd5b50803590602081013590604001356129ec565b3480156108d757600080fd5b506108f5600480360360208110156108ee57600080fd5b5035612b6f565b604080519115158252519081900360200190f35b34801561091557600080fd5b506109336004803603602081101561092c57600080fd5b5035612b84565b604080519485526020850193909352600391820b90910b838301526060830152519081900360800190f35b34801561096a57600080fd5b506102a9600480360360a081101561098157600080fd5b5080359060208101359060408101359060608101359060800135612bae565b3480156109ac57600080fd5b506102a9600480360360408110156109c357600080fd5b5080359060200135612cdc565b3480156109dc57600080fd5b50610476612e83565b3480156109f157600080fd5b506103ee612e92565b348015610a0657600080fd5b506102a960048036036020811015610a1d57600080fd5b5035600160a060020a0316612e98565b348015610a3957600080fd5b506102a960048036036060811015610a5057600080fd5b5080359060208101359060400135612ebb565b348015610a6f57600080fd5b50610a8d60048036036020811015610a8657600080fd5b50356130ac565b6040805195865260208601949094528484019290925260608401526080830152519081900360a00190f35b348015610ac457600080fd5b506102a960048036036040811015610adb57600080fd5b50803590602001356130dc565b348015610af457600080fd5b506102a960048036036060811015610b0b57600080fd5b5080359060208101359060400135613225565b348015610b2a57600080fd5b506102a960048036036080811015610b4157600080fd5b508035906020810135906040810135906060013561336e565b6000838152600360205260409020600101548390600160a060020a031615801590610b9e5750600081815260036020526040902060010154600160a060020a031633145b1515610be2576040805160e560020a62461bcd02815260206004820152601160248201526000805160206136ad833981519152604482015290519081900360640190fd5b60008381526004602090815260408083208784526006019091529020548390610100900460ff161515610c4d576040805160e560020a62461bcd02815260206004820152601d60248201526000805160206136ed833981519152604482015290519081900360640190fd5b50506000918252600460205260409091206002015550565b6000838152600360205260409020600101548390600160a060020a031615801590610ca95750600081815260036020526040902060010154600160a060020a031633145b1515610ced576040805160e560020a62461bcd02815260206004820152601160248201526000805160206136ad833981519152604482015290519081900360640190fd5b60008481526001602052604090205483908390640100000000900460ff1680610d3a57506000858152600460209081526040808320898452600601909152902054640100000000900460ff165b80610d55575060008481526006602052604090206001015486145b1515610d99576040805160e560020a62461bcd02815260206004820152601d60248201526000805160206136ed833981519152604482015290519081900360640190fd5b50505060009081526006602052604081208181556001810182905560028101829055600301555050565b6000878152600360205260409020600101548790600160a060020a031615801590610e075750600081815260036020526040902060010154600160a060020a031633145b1515610e4b576040805160e560020a62461bcd02815260206004820152601160248201526000805160206136ad833981519152604482015290519081900360640190fd5b6000868152600360205260409020600101548690600160a060020a03161515610eac576040805160e560020a62461bcd02815260206004820152601360248201526000805160206136cd833981519152604482015290519081900360640190fd5b60008781526002602052604090205488908890829060ff16158015610eee5750600081815260046020908152604080832085845260070190915290205460ff16155b1515610f32576040805160e560020a62461bcd02815260206004820152600b602482015260008051602061370d833981519152604482015290519081900360640190fd5b60008b81526004602090815260408083208f845260060190915290205462010000900460ff161515610f9c576040805160e560020a62461bcd02815260206004820152601d60248201526000805160206136ed833981519152604482015290519081900360640190fd5b610fa461356c565b9815158952505050509215156020808601918252921515604080870191825292151560808701908152600098895260048552838920998952600690990190935295208351815496519251606090950151975115156401000000000264ff000000001998151563010000000263ff00000019961515620100000262ff0000199515156101000261ff001994151560ff19909b169a909a1793909316989098179390931617939093169490941794909416929092179091555050565b6000828152600360205260409020600101548290600160a060020a0316158015906110a25750600081815260036020526040902060010154600160a060020a031633145b15156110e6576040805160e560020a62461bcd02815260206004820152601160248201526000805160206136ad833981519152604482015290519081900360640190fd5b60008381526002602052604090205484908490829060ff161580156111285750600081815260046020908152604080832085845260070190915290205460ff16155b151561116c576040805160e560020a62461bcd02815260206004820152600b602482015260008051602061370d833981519152604482015290519081900360640190fd5b5050506000918252506005602052604090206002018054600381810b600101900b63ffffffff1663ffffffff199091161790555050565b6000838152600360205260409020600101548390600160a060020a0316158015906111e75750600081815260036020526040902060010154600160a060020a031633145b151561122b576040805160e560020a62461bcd02815260206004820152601160248201526000805160206136ad833981519152604482015290519081900360640190fd5b60008381526004602090815260408083208784526006019091529020548390610100900460ff161515611296576040805160e560020a62461bcd02815260206004820152601d60248201526000805160206136ed833981519152604482015290519081900360640190fd5b50506000918252600460205260409091206001015550565b6000838152600360205260409020600101548390600160a060020a0316158015906112f25750600081815260036020526040902060010154600160a060020a031633145b1515611336576040805160e560020a62461bcd02815260206004820152601160248201526000805160206136ad833981519152604482015290519081900360640190fd5b6000838152600360205260409020600101548390600160a060020a03161515611397576040805160e560020a62461bcd02815260206004820152601360248201526000805160206136cd833981519152604482015290519081900360640190fd5b6000838152600460209081526040808320878452600701909152902054839060ff16151561140f576040805160e560020a62461bcd02815260206004820152601660248201527f5461726765742075736572206e6f742062616e6e656400000000000000000000604482015290519081900360640190fd5b600084815260046020908152604080832089845260060190915290205460ff161515611473576040805160e560020a62461bcd02815260206004820152601d60248201526000805160206136ed833981519152604482015290519081900360640190fd5b50505060009081526004602090815260408083209383526007909301905220805460ff1916905550565b60075481565b6000888152600360205260409020600101548890600160a060020a0316158015906114e75750600081815260036020526040902060010154600160a060020a031633145b151561152b576040805160e560020a62461bcd02815260206004820152601160248201526000805160206136ad833981519152604482015290519081900360640190fd5b6000888152600360205260409020600101548890600160a060020a0316151561158c576040805160e560020a62461bcd02815260206004820152601360248201526000805160206136cd833981519152604482015290519081900360640190fd5b60008a8152600160205260409020546301000000900460ff1615156115e9576040805160e560020a62461bcd02815260206004820152601d60248201526000805160206136ed833981519152604482015290519081900360640190fd5b6115f161359a565b971515885250509315156020808701918252931515606087019081529115156080870190815292151560a0870190815294151560c08701908152600097885260019094526040968790208651815492519890970151925193519551945160ff199092169615159690961761ff001916610100971515979097029690961762ff0000191662010000911515919091021763ff00000019166301000000911515919091021764ff000000001916640100000000921515929092029190911765ff0000000000191665010000000000911515919091021766ff000000000000191666010000000000009215159290920291909117905550565b600954600160a060020a031681565b6000828152600360205260409020600101548290600160a060020a03161580159061173a5750600081815260036020526040902060010154600160a060020a031633145b151561177e576040805160e560020a62461bcd02815260206004820152601160248201526000805160206136ad833981519152604482015290519081900360640190fd5b600083815260016020526040902054610100900460ff1615156117d9576040805160e560020a62461bcd02815260206004820152601d60248201526000805160206136ed833981519152604482015290519081900360640190fd5b5060075550565b6000848152600360205260409020600101548490600160a060020a0316158015906118245750600081815260036020526040902060010154600160a060020a031633145b1515611868576040805160e560020a62461bcd02815260206004820152601160248201526000805160206136ad833981519152604482015290519081900360640190fd5b6000858152600260205260409020548490849060ff16156118c1576040805160e560020a62461bcd02815260206004820152600b602482015260008051602061370d833981519152604482015290519081900360640190fd5b6040805186815260208101869052815188927f1d763530a57993a6cc26dcbb543eaafe2e430aef6c8d9fc8f44ba567d68576b4928290030190a250505050505050565b6000838152600360205260409020600101548390600160a060020a0316158015906119485750600081815260036020526040902060010154600160a060020a031633145b151561198c576040805160e560020a62461bcd02815260206004820152601160248201526000805160206136ad833981519152604482015290519081900360640190fd5b6000848152600160205260409020548390839065010000000000900460ff16806119da57506000858152600460209081526040808320898452600601909152902054640100000000900460ff165b806119f5575060008481526005602052604090206001015486145b1515611a39576040805160e560020a62461bcd02815260206004820152601d60248201526000805160206136ed833981519152604482015290519081900360640190fd5b50505060009081526005602052604081208181556001810182905560028101805463ffffffff19169055600301555050565b60066020526000908152604090208054600182015460028301546003909301549192909184565b6000838152600360205260409020600101548390600160a060020a031615801590611ad65750600081815260036020526040902060010154600160a060020a031633145b1515611b1a576040805160e560020a62461bcd02815260206004820152601160248201526000805160206136ad833981519152604482015290519081900360640190fd5b60008481526002602052604090205483908590829060ff16158015611b5c5750600081815260046020908152604080832085845260070190915290205460ff16155b1515611ba0576040805160e560020a62461bcd02815260206004820152600b602482015260008051602061370d833981519152604482015290519081900360640190fd5b604080514260208083019190915281830188905260608083018a90528351808403909101815260809092019092528051910120611bdb6135d6565b86815260208082018a8152426060840190815260008581526005845260409081902085518155925160018401558085015160028401805463ffffffff191663ffffffff600393840b1617905591519190920155805184815290518b928b927f429af90a9753bcf2e29810ac61fec0881ff36b9814cf918c1ca59dbd04f5d019929081900390910190a3505050505050505050565b600054600160a060020a03163314611c8657600080fd5b60008054604051600160a060020a03909116917ff8df31144d9c2f0f6b59d69b8b98abd5459d07f2742c4df920b25aae33c6482091a26000805473ffffffffffffffffffffffffffffffffffffffff19169055565b600b54600160a060020a031681565b6000828152600360205260409020600101548290600160a060020a031615801590611d2e5750600081815260036020526040902060010154600160a060020a031633145b1515611d72576040805160e560020a62461bcd02815260206004820152601160248201526000805160206136ad833981519152604482015290519081900360640190fd5b6000828152600360205260409020600101548290600160a060020a03161515611dd3576040805160e560020a62461bcd02815260206004820152601360248201526000805160206136cd833981519152604482015290519081900360640190fd5b60008481526001602052604090205460ff161515611e29576040805160e560020a62461bcd02815260206004820152601d60248201526000805160206136ed833981519152604482015290519081900360640190fd5b60008381526002602052604090205460ff1615611e90576040805160e560020a62461bcd02815260206004820152601660248201527f5573657220697320616c72656164792062616e6e656400000000000000000000604482015290519081900360640190fd5b5050600052506002602052565b600a54600160a060020a031681565b6000838152600360205260409020600101548390600160a060020a031615801590611ef05750600081815260036020526040902060010154600160a060020a031633145b1515611f34576040805160e560020a62461bcd02815260206004820152601160248201526000805160206136ad833981519152604482015290519081900360640190fd5b60008481526002602052604090205483908590829060ff16158015611f765750600081815260046020908152604080832085845260070190915290205460ff16155b1515611fba576040805160e560020a62461bcd02815260206004820152600b602482015260008051602061370d833981519152604482015290519081900360640190fd5b60008681526004602090815260408083208a845260060190915290205485906301000000900460ff161515612027576040805160e560020a62461bcd02815260206004820152601d60248201526000805160206136ed833981519152604482015290519081900360640190fd5b505050600093845250506004602090815260408320600501805460018101825590845292209091015550565b6000838152600360205260409020600101548390600160a060020a0316158015906120975750600081815260036020526040902060010154600160a060020a031633145b15156120db576040805160e560020a62461bcd02815260206004820152601160248201526000805160206136ad833981519152604482015290519081900360640190fd5b600084815260026020526040902054839060ff1615612132576040805160e560020a62461bcd02815260206004820152600b602482015260008051602061370d833981519152604482015290519081900360640190fd5b604080518581526020810185905281517f870e871839dc020700465b1a477176917d6c99a74dab883537a6329787eca6ec929181900390910190a15050505050565b6000828152600360205260409020600101548290600160a060020a0316158015906121b85750600081815260036020526040902060010154600160a060020a031633145b15156121fc576040805160e560020a62461bcd02815260206004820152601160248201526000805160206136ad833981519152604482015290519081900360640190fd5b600083815260016020526040902054610100900460ff161515612257576040805160e560020a62461bcd02815260206004820152601d60248201526000805160206136ed833981519152604482015290519081900360640190fd5b5060085550565b600054600160a060020a031681565b6000838152600360205260409020600101548390600160a060020a0316158015906122b15750600081815260036020526040902060010154600160a060020a031633145b15156122f5576040805160e560020a62461bcd02815260206004820152601160248201526000805160206136ad833981519152604482015290519081900360640190fd5b6000838152600360205260409020600101548390600160a060020a03161515612356576040805160e560020a62461bcd02815260206004820152601360248201526000805160206136cd833981519152604482015290519081900360640190fd5b60008581526002602052604090205460ff16156123ab576040805160e560020a62461bcd02815260206004820152600b602482015260008051602061370d833981519152604482015290519081900360640190fd5b604080518681526020810185905281517f90cff83c58dbbcc6d953b0210c9ede5033a38f64e55792d4a7300f1d6220b7b3929181900390910190a15050505050565b600854341015612447576040805160e560020a62461bcd02815260206004820152601560248201527f496e73756666696369656e74204574682053656e740000000000000000000000604482015290519081900360640190fd5b600081815260036020526040902060010154600160a060020a0316156124b7576040805160e560020a62461bcd02815260206004820152601660248201527f557365726e616d6520616c726561647920657869737400000000000000000000604482015290519081900360640190fd5b6124bf6135fd565b818152336020808301918252426040808501918252600095865260039092529320915182555160018201805473ffffffffffffffffffffffffffffffffffffffff1916600160a060020a039092169190911790559051600290910155565b6000858152600360205260409020600101548590600160a060020a0316158015906125615750600081815260036020526040902060010154600160a060020a031633145b15156125a5576040805160e560020a62461bcd02815260206004820152601160248201526000805160206136ad833981519152604482015290519081900360640190fd5b60008681526002602052604090205485908790829060ff161580156125e75750600081815260046020908152604080832085845260070190915290205460ff16155b151561262b576040805160e560020a62461bcd02815260206004820152600b602482015260008051602061370d833981519152604482015290519081900360640190fd5b60008790526005602090815260408051428184015280820189905260608082018b90528251808303909101815260809091019091528051910120879061266f6135d6565b88815260208082018d905260408083018a905242606084015280518a8152905184928f928e927f26137cf2a755cd72889bec726cf05a8d5975f7bb861bc67a11f008008e49627c929181900390910190a4505050505050505050505050565b6000828152600360205260409020600101548290600160a060020a0316158015906127125750600081815260036020526040902060010154600160a060020a031633145b1515612756576040805160e560020a62461bcd02815260206004820152601160248201526000805160206136ad833981519152604482015290519081900360640190fd5b6000828152600360205260409020600101548290600160a060020a031615156127b7576040805160e560020a62461bcd02815260206004820152601360248201526000805160206136cd833981519152604482015290519081900360640190fd5b6000848152600160205260409020546301000000900460ff161515612814576040805160e560020a62461bcd02815260206004820152601d60248201526000805160206136ed833981519152604482015290519081900360640190fd5b5050506000908152600160205260409020805466ffffffffffffff19169055565b6000848152600360205260409020600101548490600160a060020a0316158015906128795750600081815260036020526040902060010154600160a060020a031633145b15156128bd576040805160e560020a62461bcd02815260206004820152601160248201526000805160206136ad833981519152604482015290519081900360640190fd5b60008581526002602052604090205460ff1615612912576040805160e560020a62461bcd02815260206004820152600b602482015260008051602061370d833981519152604482015290519081900360640190fd5b600084905260046020526040805160e560020a62461bcd02815260206004820152601460248201527f466f72756d20616c726561647920657869737473000000000000000000000000604482015290519081900360640190fd5b6003602052600090815260409020805460018201546002909201549091600160a060020a03169083565b60016020526000908152604090205460ff80821691610100810482169162010000820481169163010000008104821691640100000000820481169165010000000000810482169166010000000000009091041687565b6000838152600360205260409020600101548390600160a060020a031615801590612a305750600081815260036020526040902060010154600160a060020a031633145b1515612a74576040805160e560020a62461bcd02815260206004820152601160248201526000805160206136ad833981519152604482015290519081900360640190fd5b6000838152600360205260409020600101548390600160a060020a03161515612ad5576040805160e560020a62461bcd02815260206004820152601360248201526000805160206136cd833981519152604482015290519081900360640190fd5b6000838152600460209081526040808320888452600601909152902054839062010000900460ff161515612b41576040805160e560020a62461bcd02815260206004820152601d60248201526000805160206136ed833981519152604482015290519081900360640190fd5b50505060009081526004602090815260408083209383526006909301905220805464ffffffffff1916905550565b60026020526000908152604090205460ff1681565b600560205260009081526040902080546001820154600283015460039384015492939192910b9084565b6000858152600360205260409020600101548590600160a060020a031615801590612bf25750600081815260036020526040902060010154600160a060020a031633145b1515612c36576040805160e560020a62461bcd02815260206004820152601160248201526000805160206136ad833981519152604482015290519081900360640190fd5b6000868152600260205260409020548590849060ff1615612c8f576040805160e560020a62461bcd02815260206004820152600b602482015260008051602061370d833981519152604482015290519081900360640190fd5b6040805187815260208101879052808201869052905188917f88955ec1e09cabc487141eb757b7c5c353d64d30d48c31dc3a9f517032a5c3d6919081900360600190a25050505050505050565b6000828152600360205260409020600101548290600160a060020a031615801590612d205750600081815260036020526040902060010154600160a060020a031633145b1515612d64576040805160e560020a62461bcd02815260206004820152601160248201526000805160206136ad833981519152604482015290519081900360640190fd5b6000828152600360205260409020600101548290600160a060020a03161515612dc5576040805160e560020a62461bcd02815260206004820152601360248201526000805160206136cd833981519152604482015290519081900360640190fd5b60008481526001602052604090205460ff161515612e1b576040805160e560020a62461bcd02815260206004820152601d60248201526000805160206136ed833981519152604482015290519081900360640190fd5b60008381526002602052604090205460ff161515611e90576040805160e560020a62461bcd02815260206004820152601260248201527f55736572206973206e6f742062616e6e65640000000000000000000000000000604482015290519081900360640190fd5b600c54600160a060020a031681565b60085481565b600054600160a060020a03163314612eaf57600080fd5b612eb8816134ef565b50565b6000838152600360205260409020600101548390600160a060020a031615801590612eff5750600081815260036020526040902060010154600160a060020a031633145b1515612f43576040805160e560020a62461bcd02815260206004820152601160248201526000805160206136ad833981519152604482015290519081900360640190fd5b6000838152600360205260409020600101548390600160a060020a03161515612fa4576040805160e560020a62461bcd02815260206004820152601360248201526000805160206136cd833981519152604482015290519081900360640190fd5b6000838152600460209081526040808320878452600701909152902054839060ff161561301b576040805160e560020a62461bcd02815260206004820152601a60248201527f546172676574207573657220616c72656164792062616e6e6564000000000000604482015290519081900360640190fd5b600084815260046020908152604080832089845260060190915290205460ff16151561307f576040805160e560020a62461bcd02815260206004820152601d60248201526000805160206136ed833981519152604482015290519081900360640190fd5b50505060009081526004602090815260408083209383526007909301905220805460ff1916600117905550565b60046020819052600091825260409091208054600182015460028301546003840154939094015491939092909185565b6000828152600360205260409020600101548290600160a060020a0316158015906131205750600081815260036020526040902060010154600160a060020a031633145b1515613164576040805160e560020a62461bcd02815260206004820152601160248201526000805160206136ad833981519152604482015290519081900360640190fd5b60008381526001602052604090205482906601000000000000900460ff168061319d575060008381526004602052604090206003015484145b15156131e1576040805160e560020a62461bcd02815260206004820152601d60248201526000805160206136ed833981519152604482015290519081900360640190fd5b600083815260046020819052604082208281556001810183905560028101839055600381018390559081018290559061321d6005830182613648565b505050505050565b6000828152600360205260409020600101548290600160a060020a0316158015906132695750600081815260036020526040902060010154600160a060020a031633145b15156132ad576040805160e560020a62461bcd02815260206004820152601160248201526000805160206136ad833981519152604482015290519081900360640190fd5b60008381526002602052604090205484908490829060ff161580156132ef5750600081815260046020908152604080832085845260070190915290205460ff16155b1515613333576040805160e560020a62461bcd02815260206004820152600b602482015260008051602061370d833981519152604482015290519081900360640190fd5b505050600091825250600560205260409020600201805463ffffffff19811663ffffffff600392830b6000190190920b919091161790555050565b6000848152600360205260409020600101548490600160a060020a0316158015906133b25750600081815260036020526040902060010154600160a060020a031633145b15156133f6576040805160e560020a62461bcd02815260206004820152601160248201526000805160206136ad833981519152604482015290519081900360640190fd5b6000848152600460209081526040808320888452600601909152902054849084906301000000900460ff161515613465576040805160e560020a62461bcd02815260206004820152601d60248201526000805160206136ed833981519152604482015290519081900360640190fd5b60008681526004602052604090206005018054600019810190811061348657fe5b906000526020600020015460046000888152602001908152602001600020600501858154811015156134b457fe5b60009182526020808320909101929092558781526004909152604090206005018054906134e5906000198301613666565b5050505050505050565b600160a060020a038116151561350457600080fd5b60008054604051600160a060020a03808516939216917f8be0079c531659141344cd1fd0a4f28419497f9722a3daafe3b4186f6b6457e091a36000805473ffffffffffffffffffffffffffffffffffffffff1916600160a060020a0392909216919091179055565b6040805160a08101825260008082526020820181905291810182905260608101829052608081019190915290565b6040805160e081018252600080825260208201819052918101829052606081018290526080810182905260a0810182905260c081019190915290565b60408051608081018252600080825260208201819052918101829052606081019190915290565b604080516060810182526000808252602082018190529181019190915290565b8281111561363857825182559160200191906001019061361d565b5061364492915061368f565b5090565b5080546000825590600052602060002090810190612eb8919061368f565b81548183558181111561368a5760008381526020902061368a91810190830161368f565b505050565b6136a991905b808211156136445760008155600101613695565b9056fe55736572206e6f742076657269666965640000000000000000000000000000005573657220646f6573206e6f74206578697374000000000000000000000000005573657220646f6573206e6f742068617665207065726d697373696f6e000000557365722062616e6e6564000000000000000000000000000000000000000000a165627a7a72305820bac4b8076092a5f9e6a243e16595594e9c6878c24fe4303887e8c5c9574ed9500029",
  "source": "pragma solidity ^0.5.2;\n\n// import \"./User.sol\"; \n// import \"./Forum.sol\"; \n// import \"./UserFactory.sol\";\n// import \"./ForumFactory.sol\";\nimport \"./Ownable.sol\";\n\ncontract Tartarus is Ownable {\n    event ForumCreated (bytes32 forum);  \n    event PostCreated (bytes32 indexed forum, bytes32 indexed creator, bytes32 postId);\n    event CommentCreated (bytes32 indexed postId, bytes32 indexed creator, bytes32 indexed targetId, bytes32 commentId);\n    event ReportUser (bytes32 _user, bytes32 reason);\n    event ReportForum (bytes32 _forum, bytes32 reason);\n    event ReportPost (bytes32 indexed _forum, bytes32 _postId, bytes32 reason);\n    event ReportComment (bytes32 indexed _forum, bytes32 _postId, bytes32 _commentId, bytes32 reason);\n\n    mapping (bytes32 => Admin) public admins;\n    mapping (bytes32 => bool) public banned;\n    mapping (bytes32 => User) public users;\n    mapping (bytes32 => Forum) public forums;\n    mapping (bytes32 => Post) public posts;\n    mapping (bytes32 => Comment) public comments;\n\n    struct Admin {\n        bool ban;\n        bool setCost;\n        bool setCreateUserCost;\n        bool editAdmin;\n        bool deleteComment;\n        bool deletePost;\n        bool deleteForum;\n    }\n\n    struct Moderator {\n        bool ban;\n        bool editInfo;\n        bool editModerator;\n        bool editPinned;\n        bool deletePost;\n    }\n\n    struct User {\n        bytes32 username;\n        address creator;\n        uint time;\n    }\n    \n    struct Forum {\n        bytes32 name;\n        bytes32 rules;\n        bytes32 description;\n        bytes32 creator;\n        uint time;\n        bytes32[] pinnedPosts;\n        mapping(bytes32 => Moderator) moderators;\n        mapping(bytes32 =>  bool) banned;\n    }\n\n    struct Post {\n        bytes32 post;\n        bytes32 creator;\n        int32 votes;\n        uint time;\n    }\n\n    struct Comment {\n        bytes32 comment;\n        bytes32 creator;\n        bytes32 target;\n        uint time;\n    }\n\n    uint public transactionCost = 0;\n    uint public createUserCost = 0;\n\n    address public userFactory;\n    address public commentFactory;\n    address public postFactory;\n    address public forumFactory;\n\n    constructor(address _userFactory, address _commentFactory, address _postFactory, address _forumFactory) public {\n        userFactory = _userFactory;\n        commentFactory = _commentFactory;\n        postFactory = _postFactory;\n        forumFactory = _forumFactory;\n    }\n\n    modifier userVerified(bytes32 _user){\n        require(\n            users[_user].creator != address(0) &&\n            users[_user].creator == msg.sender, \n            \"User not verified\"\n        );\n        _;\n    }\n\n    modifier userExists(bytes32 _user){\n        require(\n            users[_user].creator != address(0), \n            \"User does not exist\"\n        );\n        _;\n    }\n\n    modifier userUnbanned(bytes32 _user, bytes32 _forum) {\n        require(\n            !banned[_user] &&\n            !forums[_forum].banned[_user], \n            \"User banned\"\n        );\n        _;\n    }\n\n    modifier forumExists(bytes32 _forum) {\n        require(\n            forums[_forum].creator.length != 0, \n            \"Forum does not exist\"\n        );\n        _;\n    }\n\n    modifier postExists(bytes32 _postId) {\n        require(\n            posts[_postId].creator.length != 0, \n            \"Post does not exist\"\n        );\n        _;\n    }\n\n    modifier commentExists(bytes32 _commentId) {\n        require(\n            comments[_commentId].creator.length != 0, \n            \"Comment does not exist\"\n        );\n        _;\n    }\n\n    function createUser(bytes32 _username) external payable {\n        require(\n            msg.value >= createUserCost, \n            \"Insufficient Eth Sent\"\n        );\n        require(\n            users[_username].creator == address(0), \n            \"Username already exist\"\n        );\n        // require(validateUsername(_username), \"Invalid username\");\n        User memory newUser;\n        newUser.username = _username;\n        newUser.creator = msg.sender;\n        newUser.time = now;\n        users[_username] = newUser;\n    }\n\n    function createForum(bytes32 _user, bytes32 _forum, bytes32 _rules, bytes32 _description) \n    external userVerified(_user) {\n        require(\n            !banned[_user],\n            \"User banned\"\n        );\n        require(\n            forums[_forum].creator.length == 0,\n            \"Forum already exists\"\n        );\n        Forum memory newForum;\n        newForum.name = _forum;\n        newForum.rules = _rules;\n        newForum.description = _description;\n        newForum.creator = _user;\n        newForum.time = now;\n        forums[_forum] = newForum;\n        emit ForumCreated(_forum);\n    }   \n\n    function deleteForum(bytes32 _user, bytes32 _forum) \n    external userVerified(_user) forumExists(_forum){\n        require(\n            admins[_user].deleteForum ||\n            forums[_forum].creator == _user,\n            \"User does not have permission\"\n        );\n        delete forums[_forum];\n    }   \n\n    function createPost(bytes32 _user, bytes32 _forum, bytes32 _post) \n    external userVerified(_user) forumExists(_forum) userUnbanned(_user, _forum) {\n        bytes32 postId = keccak256(abi.encodePacked(now, _post, _forum));\n        Post memory newPost;\n        newPost.post = _post;\n        newPost.creator = _user;\n        newPost.time = now;\n        posts[postId] = newPost;\n        emit PostCreated(_forum, _user, postId);\n    }\n\n    function deletePost(bytes32 _user, bytes32 _forum, bytes32 _postId) \n    external userVerified(_user) forumExists(_forum) postExists(_postId) {\n        require(\n            admins[_user].deletePost ||\n            forums[_forum].moderators[_user].deletePost ||\n            posts[_postId].creator == _user,\n            \"User does not have permission\"\n        );\n        delete posts[_postId];\n    }\n\n    function pinPost(bytes32 _user, bytes32 _forum, bytes32 _postId) \n    external userVerified(_user) forumExists(_forum) userUnbanned(_user, _forum) postExists(_postId) {\n        require(\n            forums[_forum].moderators[_user].editPinned,\n            \"User does not have permission\"\n        );\n        forums[_forum].pinnedPosts.push(_postId);\n    }\n\n    function unpinPost(bytes32 _user, bytes32 _forum, bytes32 _postId, uint _postIndex) \n    external userVerified(_user) forumExists(_forum) postExists(_postId) {\n        require(\n            forums[_forum].moderators[_user].editPinned,\n            \"User does not have permission\"\n        );\n        forums[_forum].pinnedPosts[_postIndex] = forums[_forum].pinnedPosts[forums[_forum].pinnedPosts.length - 1];\n        forums[_forum].pinnedPosts.length--;    \n    }\n\n    function upvote(bytes32 _forum, bytes32 _user, bytes32 _postId) \n    external userVerified(_user) forumExists(_forum) userUnbanned(_user, _forum) postExists(_postId) {\n        posts[_postId].votes += 1;\n    }\n\n    function downvote(bytes32 _forum, bytes32 _user, bytes32 _postId) \n    external userVerified(_user) forumExists(_forum) userUnbanned(_user, _forum) postExists(_postId) {\n        posts[_postId].votes -= 1;\n    }\n\n    function createComment(bytes32 _user, bytes32 _forum, bytes32 _postId, bytes32 _comment, bytes32 _targetId) \n    external userVerified(_user) forumExists(_forum) userUnbanned(_user, _forum) postExists(_postId) {\n        require(\n            posts[_postId].creator.length != 0 || \n            comments[_targetId].creator.length != 0, \n            \"Target does not exist\"\n        );\n        bytes32 commentId = keccak256(abi.encodePacked(now, _comment, _postId));\n        Comment memory newComment;\n        newComment.comment = _comment;\n        newComment.creator = _user;\n        newComment.target = _targetId;\n        newComment.time = now;\n        emit CommentCreated(_postId, _user, commentId, _targetId);\n    }\n\n    function deleteComment(bytes32 _user, bytes32 _forum, bytes32 _commentId) \n    external userVerified(_user) forumExists(_forum) commentExists(_commentId) {\n        require(\n            admins[_user].deleteComment ||\n            forums[_forum].moderators[_user].deletePost ||\n            comments[_commentId].creator == _user,\n            \"User does not have permission\"\n        );\n        delete comments[_commentId];\n    }\n\n    function createModerator(\n        bytes32 _user,\n        bytes32 _forum,\n        bytes32 _targetUser, \n        bool _ban, \n        bool _editInfo, \n        bool _editModerators, \n        bool _deletePost) \n        external userVerified(_user) userExists(_targetUser) forumExists(_forum) userUnbanned(_targetUser, _forum) {\n        require(\n            forums[_forum].moderators[_user].editModerator,\n            \"User does not have permission\"\n        );\n        Moderator memory newModerator;\n        newModerator.ban = _ban;\n        newModerator.editInfo = _editInfo;\n        newModerator.editModerator = _editModerators;\n        newModerator.deletePost = _deletePost;\n        forums[_forum].moderators[_user] = newModerator;\n    }\n\n    function removeModerator(bytes32 _user, bytes32 _targetUser, bytes32 _forum) \n    external userVerified(_user) userExists(_targetUser) forumExists(_forum) {\n        require(\n            forums[_forum].moderators[_user].editModerator,\n            \"User does not have permission\"\n        );\n        delete forums[_forum].moderators[_targetUser];\n    }\n\n    function setForumRules(bytes32 _user, bytes32 _forum, bytes32 _rules) \n    external userVerified(_user) forumExists(_forum) {\n        require(\n            forums[_forum].moderators[_user].editInfo,\n            \"User does not have permission\"\n        );\n        forums[_forum].rules = _rules;\n    }\n    \n    function setForumDescription(bytes32 _user, bytes32 _forum, bytes32 _description) \n    external userVerified(_user) forumExists(_forum) {\n        require(\n            forums[_forum].moderators[_user].editInfo,\n            \"User does not have permission\"\n        );\n        forums[_forum].description = _description;\n    }\n\n    function banUserForum(bytes32 _user, bytes32 _targetUser, bytes32 _forum) \n    external userVerified(_user) userExists(_targetUser) forumExists(_forum) {\n        require(\n            !forums[_forum].banned[_targetUser], \n            \"Target user already banned\"\n        );\n        require(\n            forums[_forum].moderators[_user].ban,\n            \"User does not have permission\"\n        );\n        forums[_forum].banned[_targetUser] = true;\n    }\n\n    function unbanUserForum(bytes32 _user, bytes32 _targetUser, bytes32 _forum) \n    external userVerified(_user) userExists(_targetUser) forumExists(_forum) {\n        require(\n            forums[_forum].banned[_targetUser], \n            \"Target user not banned\"\n        );\n        require(\n            forums[_forum].moderators[_user].ban,\n            \"User does not have permission\"\n        );\n        forums[_forum].banned[_targetUser] = false;\n    }\n\n    function reportUser(bytes32 _user, bytes32 _targetUser, bytes32 _reason) \n    external userVerified(_user) userExists(_targetUser) {\n        require(\n            !banned[_user], \n            \"User banned\"\n        );\n        emit ReportUser(_user, _reason);\n    }\n\n    function reportForum(bytes32 _user, bytes32 _forum, bytes32 _reason) \n    external userVerified(_user) forumExists(_forum) {\n        require(\n            !banned[_user], \n            \"User banned\"\n        );\n        emit ReportForum(_forum, _reason);\n    }\n\n    function reportPost(bytes32 _user, bytes32 _forum, bytes32 _postId, bytes32 _reason) \n    external userVerified(_user) forumExists(_forum) postExists(_postId) {\n        require(\n            !banned[_user], \n            \"User banned\"\n        );\n        emit ReportPost(_forum, _postId, _reason);\n    }\n\n    function reportComment(bytes32 _user, bytes32 _forum, bytes32 _postId, bytes32 _commentId, bytes32 _reason) \n    external userVerified(_user) forumExists(_forum) commentExists(_commentId) {\n        require(\n            !banned[_user], \n            \"User banned\"\n        );\n        emit ReportComment(_forum, _postId, _commentId, _reason);\n    }\n\n    function createAdmin(\n        bytes32 _user,\n        bytes32 _targetUser, \n        bool _ban,\n        bool _setCost,\n        bool _editAdmin,\n        bool _deletePost,\n        bool _deleteComment,\n        bool _deleteForum\n        ) \n        external userVerified(_user) userExists(_targetUser) {\n        require(\n            admins[_user].editAdmin, \"User does not have permission\"\n        );\n        // require(admins[users[_username]], \"Target user is not admin\"); ???\n        Admin memory newAdmin;\n        newAdmin.ban = _ban;\n        newAdmin.setCost = _setCost;\n        newAdmin.editAdmin = _editAdmin;\n        newAdmin.deleteComment = _deleteComment;\n        newAdmin.deletePost = _deletePost;\n        newAdmin.deleteForum = _deleteForum;\n        admins[_targetUser] = newAdmin;\n    }  \n\n    function removeAdmin(bytes32 _user, bytes32 _targetUser) \n        external userVerified(_user) userExists(_targetUser) {\n        require(\n            admins[_user].editAdmin, \"User does not have permission\"\n        );\n        // require(admins[users[_username]], \"Target user is not admin\"); ???\n        delete admins[_user];\n    }\n\n    function banUserTartarus(bytes32 _user, bytes32 _targetUser) \n        external view userVerified(_user) userExists(_targetUser) {\n        require(\n            admins[_user].ban, \"User does not have permission\"\n        );\n        require(\n            !banned[_targetUser], \n            \"User is already banned\"\n        );\n        banned[_targetUser] == true;\n    }\n\n    function unbanUserTartarus(bytes32 _user, bytes32 _targetUser)\n        external view userVerified(_user) userExists(_targetUser) {\n        require(\n            admins[_user].ban, \"User does not have permission\"\n        );\n        require(\n            banned[_targetUser], \n            \"User is not banned\"\n        );\n        banned[_targetUser] == false;\n    }\n\n    function setCreateUserCost(bytes32 _user, uint _newCost) \n        external userVerified(_user) {\n        require(\n            admins[_user].setCost, \n            \"User does not have permission\"\n        );\n        createUserCost = _newCost;\n    }\n\n    function setTransactionCost(bytes32 _user, uint _newCost) \n        external userVerified(_user) {\n        require(\n            admins[_user].setCost, \n            \"User does not have permission\"\n        );\n        transactionCost = _newCost;\n    }\n}",
  "sourcePath": "/Users/jarenlynch/Ethereum/Tartarus/contracts/Tartarus.sol",
  "compiler": {
    "name": "solc",
    "version": "0.5.2+commit.1df8f40c.Emscripten.clang"
  },
  "schemaVersion": "3.0.6",
  "updatedAt": "2019-04-12T12:21:35.874Z",
  "devdoc": {
    "methods": {
      "renounceOwnership()": {
        "details": "Allows the current owner to relinquish control of the contract."
      },
      "transferOwnership(address)": {
        "details": "Allows the current owner to transfer control of the contract to a newOwner.",
        "params": {
          "_newOwner": "The address to transfer ownership to."
        }
      }
    }
  },
  "userdoc": {
    "methods": {
      "renounceOwnership()": {
        "notice": "Renouncing to ownership will leave the contract without an owner. It will not be possible to call the functions with the `onlyOwner` modifier anymore."
      }
    }
  }
}