{
  "contractName": "Tartarus",
  "abi": [
    {
      "constant": false,
      "inputs": [],
      "name": "renounceOwnership",
      "outputs": [],
      "payable": false,
      "stateMutability": "nonpayable",
      "type": "function"
    },
    {
      "constant": true,
      "inputs": [],
      "name": "owner",
      "outputs": [
        {
          "name": "",
          "type": "address"
        }
      ],
      "payable": false,
      "stateMutability": "view",
      "type": "function"
    },
    {
      "constant": false,
      "inputs": [
        {
          "name": "_newOwner",
          "type": "address"
        }
      ],
      "name": "transferOwnership",
      "outputs": [],
      "payable": false,
      "stateMutability": "nonpayable",
      "type": "function"
    },
    {
      "inputs": [],
      "payable": false,
      "stateMutability": "nonpayable",
      "type": "constructor"
    },
    {
      "anonymous": false,
      "inputs": [
        {
          "indexed": false,
          "name": "adminAddress",
          "type": "address"
        }
      ],
      "name": "AdminCreated",
      "type": "event"
    },
    {
      "anonymous": false,
      "inputs": [
        {
          "indexed": false,
          "name": "forumAddress",
          "type": "address"
        }
      ],
      "name": "ForumCreated",
      "type": "event"
    },
    {
      "anonymous": false,
      "inputs": [
        {
          "indexed": false,
          "name": "userAddress",
          "type": "address"
        }
      ],
      "name": "UserCreated",
      "type": "event"
    },
    {
      "anonymous": false,
      "inputs": [
        {
          "indexed": true,
          "name": "previousOwner",
          "type": "address"
        }
      ],
      "name": "OwnershipRenounced",
      "type": "event"
    },
    {
      "anonymous": false,
      "inputs": [
        {
          "indexed": true,
          "name": "previousOwner",
          "type": "address"
        },
        {
          "indexed": true,
          "name": "newOwner",
          "type": "address"
        }
      ],
      "name": "OwnershipTransferred",
      "type": "event"
    },
    {
      "constant": false,
      "inputs": [
        {
          "name": "_forumName",
          "type": "string"
        }
      ],
      "name": "createForum",
      "outputs": [
        {
          "name": "",
          "type": "address"
        }
      ],
      "payable": false,
      "stateMutability": "nonpayable",
      "type": "function"
    },
    {
      "constant": false,
      "inputs": [
        {
          "name": "_forumAddress",
          "type": "address"
        },
        {
          "name": "_ipfsHash",
          "type": "string"
        }
      ],
      "name": "createPost",
      "outputs": [],
      "payable": false,
      "stateMutability": "nonpayable",
      "type": "function"
    },
    {
      "constant": false,
      "inputs": [
        {
          "name": "_forumAddress",
          "type": "address"
        },
        {
          "name": "_postAddress",
          "type": "address"
        },
        {
          "name": "_targetAddress",
          "type": "address"
        },
        {
          "name": "_ipfsHash",
          "type": "string"
        }
      ],
      "name": "createComment",
      "outputs": [],
      "payable": false,
      "stateMutability": "nonpayable",
      "type": "function"
    },
    {
      "constant": false,
      "inputs": [],
      "name": "createUser",
      "outputs": [],
      "payable": true,
      "stateMutability": "payable",
      "type": "function"
    },
    {
      "constant": true,
      "inputs": [],
      "name": "authenticateUser",
      "outputs": [
        {
          "name": "",
          "type": "address"
        }
      ],
      "payable": false,
      "stateMutability": "view",
      "type": "function"
    },
    {
      "constant": false,
      "inputs": [
        {
          "name": "_newCost",
          "type": "uint256"
        }
      ],
      "name": "setCost",
      "outputs": [],
      "payable": false,
      "stateMutability": "nonpayable",
      "type": "function"
    }
  ],
  "bytecode": "0x608060405260006003553480156200001657600080fd5b5060008054600160a060020a03191633179055620000336200014f565b604051809103906000f08015801562000050573d6000803e3d6000fd5b5060078054600160a060020a031916600160a060020a03929092169190911790556200007b62000160565b604051809103906000f08015801562000098573d6000803e3d6000fd5b5060048054600160a060020a031916600160a060020a0392909216919091179055620000c362000171565b604051809103906000f080158015620000e0573d6000803e3d6000fd5b5060058054600160a060020a031916600160a060020a03929092169190911790556200010b62000182565b604051809103906000f08015801562000128573d6000803e3d6000fd5b5060068054600160a060020a031916600160a060020a039290921691909117905562000193565b6040516104158062000fcd83390190565b604051610ddc80620013e283390190565b6040516109c980620021be83390190565b60405161036b8062002b8783390190565b610e2a80620001a36000396000f3006080604052600436106100975763ffffffff7c01000000000000000000000000000000000000000000000000000000006000350416625ce66f811461009c57806325ad91ce146100cd578063349cf8a8146100d757806344a0d68a14610149578063715018a6146101615780638da5cb5b14610176578063a232e64b1461018b578063f2fde38b146101e4578063fe7ec5a514610205575b600080fd5b3480156100a857600080fd5b506100b161026c565b60408051600160a060020a039092168252519081900360200190f35b6100d5610288565b005b3480156100e357600080fd5b50604080516020601f6064356004818101359283018490048402850184019095528184526100d594600160a060020a0381358116956024803583169660443590931695369560849492019181908401838280828437509497506104819650505050505050565b34801561015557600080fd5b506100d56004356106d9565b34801561016d57600080fd5b506100d56106f5565b34801561018257600080fd5b506100b1610761565b34801561019757600080fd5b506040805160206004803580820135601f81018490048402850184019095528484526100b19436949293602493928401919081908401838280828437509497506107709650505050505050565b3480156101f057600080fd5b506100d5600160a060020a0360043516610aad565b34801561021157600080fd5b5060408051602060046024803582810135601f81018590048502860185019096528585526100d5958335600160a060020a0316953695604494919390910191908190840183828082843750949750610ad09650505050505050565b33600090815260026020526040902054600160a060020a031690565b6003546000903410156102fc57604080517f08c379a000000000000000000000000000000000000000000000000000000000815260206004820152601560248201527f496e73756666696369656e74204574682053656e740000000000000000000000604482015290519081900360640190fd5b33600090815260026020526040902054600160a060020a03161561038157604080517f08c379a000000000000000000000000000000000000000000000000000000000815260206004820152601660248201527f55736572206163636f756e74206e6f7420666f756e6400000000000000000000604482015290519081900360640190fd5b60075461039690600160a060020a0316610d0e565b604080517fc4d66de80000000000000000000000000000000000000000000000000000000081523360048201529051919250600160a060020a0383169163c4d66de89160248082019260009290919082900301818387803b1580156103fa57600080fd5b505af115801561040e573d6000803e3d6000fd5b505033600090815260026020908152604091829020805473ffffffffffffffffffffffffffffffffffffffff1916600160a060020a038716908117909155825190815291517f0b0376a109cbb578b709f85f6a7befcdac3ac1ab251c99ede87f30c9572ac4d3945091829003019150a150565b3360009081526002602052604081205481908190600160a060020a0316151561050b57604080517f08c379a000000000000000000000000000000000000000000000000000000000815260206004820152601660248201527f55736572206163636f756e74206e6f7420666f756e6400000000000000000000604482015290519081900360640190fd5b3360009081526002602090815260408083205460065491517fc7224189000000000000000000000000000000000000000000000000000000008152600160a060020a038b8116600483019081528b82166024840152928116604483018190529381166084830181905260a0606484019081528b5160a48501528b518f9b50928b169763c7224189978f978f9790968f9691949360c490910192870191908190849084905b838110156105c75781810151838201526020016105af565b50505050905090810190601f1680156105f45780820380516001836020036101000a031916815260200191505b509650505050505050602060405180830381600087803b15801561061757600080fd5b505af115801561062b573d6000803e3d6000fd5b505050506040513d602081101561064157600080fd5b5051336000908152600260205260408082205481517ffc3e9178000000000000000000000000000000000000000000000000000000008152600160a060020a038086166004830152925194965091169350839263fc3e91789260248084019391929182900301818387803b1580156106b857600080fd5b505af11580156106cc573d6000803e3d6000fd5b5050505050505050505050565b600054600160a060020a031633146106f057600080fd5b600355565b600054600160a060020a0316331461070c57600080fd5b60008054604051600160a060020a03909116917ff8df31144d9c2f0f6b59d69b8b98abd5459d07f2742c4df920b25aae33c6482091a26000805473ffffffffffffffffffffffffffffffffffffffff19169055565b600054600160a060020a031681565b336000908152600260205260408120548190600160a060020a031615156107f857604080517f08c379a000000000000000000000000000000000000000000000000000000000815260206004820152601660248201527f55736572206163636f756e74206e6f7420666f756e6400000000000000000000604482015290519081900360640190fd5b6000600160a060020a03166001846040518082805190602001908083835b602083106108355780518252601f199092019160209182019101610816565b51815160209384036101000a6000190180199092169116179052920194855250604051938490030190922054600160a060020a03169290921491506108dd905057604080517f08c379a000000000000000000000000000000000000000000000000000000000815260206004820152601460248201527f466f72756d20616c726561647920657869737473000000000000000000000000604482015290519081900360640190fd5b6004546108f290600160a060020a0316610d0e565b3360009081526002602090815260408083205481517f7ab4339d000000000000000000000000000000000000000000000000000000008152600160a060020a03918216602482018190526004820193845289516044830152895196975091871695637ab4339d958a95939493849360640192908701918190849084905b8381101561098757818101518382015260200161096f565b50505050905090810190601f1680156109b45780820380516001836020036101000a031916815260200191505b509350505050600060405180830381600087803b1580156109d457600080fd5b505af11580156109e8573d6000803e3d6000fd5b50505050806001846040518082805190602001908083835b60208310610a1f5780518252601f199092019160209182019101610a00565b51815160209384036101000a6000190180199092169116179052920194855250604080519485900382018520805473ffffffffffffffffffffffffffffffffffffffff1916600160a060020a03978816179055948616845293517f6f9535f6c8a4252f81158b92ec563f75929f25d4f516bbdea9a3519b2f503e93949381900390930192915050a192915050565b600054600160a060020a03163314610ac457600080fd5b610acd81610d81565b50565b3360009081526002602052604081205481908190600160a060020a03161515610b5a57604080517f08c379a000000000000000000000000000000000000000000000000000000000815260206004820152601660248201527f55736572206163636f756e74206e6f7420666f756e6400000000000000000000604482015290519081900360640190fd5b3360009081526002602090815260408083205460055491517f62701fd3000000000000000000000000000000000000000000000000000000008152600160a060020a0391821660248201819052928216604482018190526060600483019081528a5160648401528a518c9a50938a16966362701fd3968c969593949293849360840192918801918190849084905b83811015610c00578181015183820152602001610be8565b50505050905090810190601f168015610c2d5780820380516001836020036101000a031916815260200191505b50945050505050602060405180830381600087803b158015610c4e57600080fd5b505af1158015610c62573d6000803e3d6000fd5b505050506040513d6020811015610c7857600080fd5b5051336000908152600260205260408082205481517f6cd59eac000000000000000000000000000000000000000000000000000000008152600160a060020a0380861660048301529251949650911693508392636cd59eac9260248084019391929182900301818387803b158015610cef57600080fd5b505af1158015610d03573d6000803e3d6000fd5b505050505050505050565b6040517f3d602d80600a3d3981f3363d3d373d3d3d363d7300000000000000000000000081526c010000000000000000000000008202601482018190527f5af43d82803e903d91602b57fd5bf30000000000000000000000000000000000602883015260009160378184f0949350505050565b600160a060020a0381161515610d9657600080fd5b60008054604051600160a060020a03808516939216917f8be0079c531659141344cd1fd0a4f28419497f9722a3daafe3b4186f6b6457e091a36000805473ffffffffffffffffffffffffffffffffffffffff1916600160a060020a03929092169190911790555600a165627a7a7230582021cd198c7357b57a9b305bb59d6074a4cbf50a6a610b704eca2746ee8ee482280029608060405260008054600160a060020a031916331790556103f0806100256000396000f3006080604052600436106100775763ffffffff7c01000000000000000000000000000000000000000000000000000000006000350416636cd59eac811461007c578063715018a61461009f5780638da5cb5b146100b4578063c4d66de8146100e5578063f2fde38b14610106578063fc3e917814610127575b600080fd5b34801561008857600080fd5b5061009d600160a060020a0360043516610148565b005b3480156100ab57600080fd5b5061009d61019e565b3480156100c057600080fd5b506100c961020a565b60408051600160a060020a039092168252519081900360200190f35b3480156100f157600080fd5b5061009d600160a060020a0360043516610219565b34801561011257600080fd5b5061009d600160a060020a03600435166102ce565b34801561013357600080fd5b5061009d600160a060020a03600435166102f1565b600054600160a060020a0316331461015f57600080fd5b60408051600160a060020a038316815290517fb28b103e6296194f6aecace93990102a06a5ae0720dc23aaf51589d563d52dde9181900360200190a150565b600054600160a060020a031633146101b557600080fd5b60008054604051600160a060020a03909116917ff8df31144d9c2f0f6b59d69b8b98abd5459d07f2742c4df920b25aae33c6482091a26000805473ffffffffffffffffffffffffffffffffffffffff19169055565b600054600160a060020a031681565b600054600160a060020a03161561029157604080517f08c379a000000000000000000000000000000000000000000000000000000000815260206004820152600860248201527f4e69636520747279000000000000000000000000000000000000000000000000604482015290519081900360640190fd5b600080543373ffffffffffffffffffffffffffffffffffffffff199182161790915560018054909116600160a060020a0392909216919091179055565b600054600160a060020a031633146102e557600080fd5b6102ee81610347565b50565b600054600160a060020a0316331461030857600080fd5b60408051600160a060020a038316815290517f2def86c85ed65bb7798ce8a3d3d1dc8553396bbb5d9f9e3f792747cd4e6c4b7a9181900360200190a150565b600160a060020a038116151561035c57600080fd5b60008054604051600160a060020a03808516939216917f8be0079c531659141344cd1fd0a4f28419497f9722a3daafe3b4186f6b6457e091a36000805473ffffffffffffffffffffffffffffffffffffffff1916600160a060020a03929092169190911790555600a165627a7a72305820e987904e7b827f9add379263136773a54e937bc18c41a48f5418ce0cdb35be690029608060405260008054600160a060020a03191633179055610db7806100256000396000f3006080604052600436106100ae5763ffffffff7c010000000000000000000000000000000000000000000000000000000060003504166302d05d3f81146100b357806306fdde03146100e457806310d86b1f1461016e57806352f6747a1461019157806362701fd3146101a6578063715018a6146102155780637ab4339d1461022a5780638da5cb5b1461028e578063908e5a8f146102a3578063c7224189146102c4578063f2fde38b14610341575b600080fd5b3480156100bf57600080fd5b506100c8610362565b60408051600160a060020a039092168252519081900360200190f35b3480156100f057600080fd5b506100f9610371565b6040805160208082528351818301528351919283929083019185019080838360005b8381101561013357818101518382015260200161011b565b50505050905090810190601f1680156101605780820380516001836020036101000a031916815260200191505b509250505060405180910390f35b34801561017a57600080fd5b5061018f600160a060020a03600435166103fe565b005b34801561019d57600080fd5b506100f96104f8565b3480156101b257600080fd5b506040805160206004803580820135601f81018490048402850184019095528484526100c894369492936024939284019190819084018382808284375094975050600160a060020a03853581169650602090950135909416935061055392505050565b34801561022157600080fd5b5061018f610742565b34801561023657600080fd5b506040805160206004803580820135601f810184900484028501840190955284845261018f94369492936024939284019190819084018382808284375094975050509235600160a060020a031693506107ae92505050565b34801561029a57600080fd5b506100c8610889565b3480156102af57600080fd5b5061018f600160a060020a0360043516610898565b3480156102d057600080fd5b50604080516020601f6064356004818101359283018490048402850184019095528184526100c894600160a060020a03813581169560248035831696604435909316953695608494920191819084018382808284375094975050509235600160a060020a0316935061099092505050565b34801561034d57600080fd5b5061018f600160a060020a0360043516610bdd565b600254600160a060020a031681565b60018054604080516020600284861615610100026000190190941693909304601f810184900484028201840190925281815292918301828280156103f65780601f106103cb576101008083540402835291602001916103f6565b820191906000526020600020905b8154815290600101906020018083116103d957829003601f168201915b505050505081565b600054600160a060020a0316331461041557600080fd5b600160a060020a03811660009081526004602052604090205460ff161561049d57604080517f08c379a000000000000000000000000000000000000000000000000000000000815260206004820152601360248201527f5573657220616c72656164792062616e6e656400000000000000000000000000604482015290519081900360640190fd5b600160a060020a038116600081815260046020908152604091829020805460ff19166001179055815192835290517f8f411ad66fd8225d9c3c7c72fd2429139958913fa5c5114dce1c984e069a4f699281900390910190a150565b6003805460408051602060026001851615610100026000190190941693909304601f810184900484028201840190925281815292918301828280156103f65780601f106103cb576101008083540402835291602001916103f6565b600080548190600160a060020a0316331461056d57600080fd5b600160a060020a03841660009081526004602052604090205460ff16156105f557604080517f08c379a000000000000000000000000000000000000000000000000000000000815260206004820152601e60248201527f557365722069732062616e6e65642066726f6d207468697320666f72756d0000604482015290519081900360640190fd5b6105fe83610c00565b604080517f7ab4339d000000000000000000000000000000000000000000000000000000008152600160a060020a03878116602483015260048201928352885160448301528851939450841692637ab4339d9289928992829160640190602086019080838360005b8381101561067e578181015183820152602001610666565b50505050905090810190601f1680156106ab5780820380516001836020036101000a031916815260200191505b509350505050600060405180830381600087803b1580156106cb57600080fd5b505af11580156106df573d6000803e3d6000fd5b505050600160a060020a038216600081815260056020908152604091829020805460ff19166001179055815192835290517fb28b103e6296194f6aecace93990102a06a5ae0720dc23aaf51589d563d52dde9350918290030190a1949350505050565b600054600160a060020a0316331461075957600080fd5b60008054604051600160a060020a03909116917ff8df31144d9c2f0f6b59d69b8b98abd5459d07f2742c4df920b25aae33c6482091a26000805473ffffffffffffffffffffffffffffffffffffffff19169055565b600054600160a060020a03161561082657604080517f08c379a000000000000000000000000000000000000000000000000000000000815260206004820152600860248201527f4e69636520747279000000000000000000000000000000000000000000000000604482015290519081900360640190fd5b6000805473ffffffffffffffffffffffffffffffffffffffff1916331790558151610858906001906020850190610cf0565b506002805473ffffffffffffffffffffffffffffffffffffffff1916600160a060020a039290921691909117905550565b600054600160a060020a031681565b600054600160a060020a031633146108af57600080fd5b600160a060020a03811660009081526004602052604090205460ff16151561093857604080517f08c379a000000000000000000000000000000000000000000000000000000000815260206004820152600f60248201527f55736572206e6f742062616e6e65640000000000000000000000000000000000604482015290519081900360640190fd5b600160a060020a038116600081815260046020908152604091829020805460ff19169055815192835290517f26d6a37a4abb33fb6e942eb5bf6c659ea2b3031d99159305ec4fdd0adc7551cf9281900390910190a150565b6000805481908190600160a060020a031633146109ac57600080fd5b600160a060020a03861660009081526004602052604090205460ff1615610a3457604080517f08c379a000000000000000000000000000000000000000000000000000000000815260206004820152601e60248201527f557365722069732062616e6e65642066726f6d207468697320666f72756d0000604482015290519081900360640190fd5b600160a060020a03881660009081526005602052604090205460ff161515610abd57604080517f08c379a000000000000000000000000000000000000000000000000000000000815260206004820152601460248201527f506f737420646f6573206e6f742065786973742e000000000000000000000000604482015290519081900360640190fd5b6040517fe9e4c919000000000000000000000000000000000000000000000000000000008152600160a060020a038781166024830152888116604483015285811660648301526080600483019081528751608484015287518b95509185169263e9e4c9199289928b928d928b9291829160a490910190602088019080838360005b83811015610b56578181015183820152602001610b3e565b50505050905090810190601f168015610b835780820380516001836020036101000a031916815260200191505b5095505050505050602060405180830381600087803b158015610ba557600080fd5b505af1158015610bb9573d6000803e3d6000fd5b505050506040513d6020811015610bcf57600080fd5b505198975050505050505050565b600054600160a060020a03163314610bf457600080fd5b610bfd81610c73565b50565b6040517f3d602d80600a3d3981f3363d3d373d3d3d363d7300000000000000000000000081526c010000000000000000000000008202601482018190527f5af43d82803e903d91602b57fd5bf30000000000000000000000000000000000602883015260009160378184f0949350505050565b600160a060020a0381161515610c8857600080fd5b60008054604051600160a060020a03808516939216917f8be0079c531659141344cd1fd0a4f28419497f9722a3daafe3b4186f6b6457e091a36000805473ffffffffffffffffffffffffffffffffffffffff1916600160a060020a0392909216919091179055565b828054600181600116156101000203166002900490600052602060002090601f016020900481019282601f10610d3157805160ff1916838001178555610d5e565b82800160010185558215610d5e579182015b82811115610d5e578251825591602001919060010190610d43565b50610d6a929150610d6e565b5090565b610d8891905b80821115610d6a5760008155600101610d74565b905600a165627a7a72305820d3d88edd0b3b54b0fd2e7fbe6a04aa767c7842f5d7f8c5d5cd6609f5c44d291b0029608060405260008054600160a060020a031916331790556109a4806100256000396000f3006080604052600436106100825763ffffffff7c0100000000000000000000000000000000000000000000000000000000600035041663715018a681146100875780637ab4339d1461009e5780638bd178e9146101025780638da5cb5b146101af578063e9e4c919146101e0578063f2fde38b14610253578063f6bb0cf114610274575b600080fd5b34801561009357600080fd5b5061009c610346565b005b3480156100aa57600080fd5b506040805160206004803580820135601f810184900484028501840190955284845261009c94369492936024939284019190819084018382808284375094975050509235600160a060020a031693506103b292505050565b34801561010e57600080fd5b50610117610491565b604051808060200184600160a060020a0316600160a060020a03168152602001838152602001828103825285818151815260200191508051906020019080838360005b8381101561017257818101518382015260200161015a565b50505050905090810190601f16801561019f5780820380516001836020036101000a031916815260200191505b5094505050505060405180910390f35b3480156101bb57600080fd5b506101c4610538565b60408051600160a060020a039092168252519081900360200190f35b3480156101ec57600080fd5b506040805160206004803580820135601f81018490048402850184019095528484526101c494369492936024939284019190819084018382808284375094975050600160a060020a0385358116965060208601358116956040013516935061054792505050565b34801561025f57600080fd5b5061009c600160a060020a03600435166106d2565b34801561028057600080fd5b50610295600160a060020a03600435166106f5565b604051808060200185600160a060020a0316600160a060020a0316815260200184600160a060020a0316600160a060020a03168152602001838152602001828103825286818151815260200191508051906020019080838360005b838110156103085781810151838201526020016102f0565b50505050905090810190601f1680156103355780820380516001836020036101000a031916815260200191505b509550505050505060405180910390f35b600054600160a060020a0316331461035d57600080fd5b60008054604051600160a060020a03909116917ff8df31144d9c2f0f6b59d69b8b98abd5459d07f2742c4df920b25aae33c6482091a26000805473ffffffffffffffffffffffffffffffffffffffff19169055565b600054600160a060020a03161561042a57604080517f08c379a000000000000000000000000000000000000000000000000000000000815260206004820152600860248201527f4e69636520747279000000000000000000000000000000000000000000000000604482015290519081900360640190fd5b6000805473ffffffffffffffffffffffffffffffffffffffff191633179055815161045c9060019060208501906108b6565b506002805473ffffffffffffffffffffffffffffffffffffffff1916600160a060020a03929092169190911790555042600355565b60018054604080516020601f6002600019610100878916150201909516949094049384018190048102820181019092528281529183918301828280156105185780601f106104ed57610100808354040283529160200191610518565b820191906000526020600020905b8154815290600101906020018083116104fb57829003601f168201915b5050505060018301546002909301549192600160a060020a031691905083565b600054600160a060020a031681565b600080610552610934565b600054600160a060020a0316331461056957600080fd5b610572846107c6565b915081600160a060020a0316638129fc1c6040518163ffffffff167c0100000000000000000000000000000000000000000000000000000000028152600401600060405180830381600087803b1580156105cb57600080fd5b505af11580156105df573d6000803e3d6000fd5b5050604080516080810182528a8152600160a060020a03808b166020808401919091528a821683850152426060840152908716600090815260048252929092208151805192965086955090935061063a9284929101906108b6565b5060208281015160018301805473ffffffffffffffffffffffffffffffffffffffff19908116600160a060020a0393841617909155604080860151600286018054909316908416179091556060909401516003909301929092558251918516825291517f2def86c85ed65bb7798ce8a3d3d1dc8553396bbb5d9f9e3f792747cd4e6c4b7a929181900390910190a15095945050505050565b600054600160a060020a031633146106e957600080fd5b6106f281610839565b50565b600160a060020a0381811660009081526004602090815260408083206001808201546002808401546003850154855487516101009682161596909602600019011692909204601f81018890048802850188019096528584526060988897889794821695929091169386918301828280156107b05780601f10610785576101008083540402835291602001916107b0565b820191906000526020600020905b81548152906001019060200180831161079357829003601f168201915b5050505050935093509350935093509193509193565b6040517f3d602d80600a3d3981f3363d3d373d3d3d363d7300000000000000000000000081526c010000000000000000000000008202601482018190527f5af43d82803e903d91602b57fd5bf30000000000000000000000000000000000602883015260009160378184f0949350505050565b600160a060020a038116151561084e57600080fd5b60008054604051600160a060020a03808516939216917f8be0079c531659141344cd1fd0a4f28419497f9722a3daafe3b4186f6b6457e091a36000805473ffffffffffffffffffffffffffffffffffffffff1916600160a060020a0392909216919091179055565b828054600181600116156101000203166002900490600052602060002090601f016020900481019282601f106108f757805160ff1916838001178555610924565b82800160010185558215610924579182015b82811115610924578251825591602001919060010190610909565b5061093092915061095b565b5090565b60408051608081018252606080825260006020830181905292820183905281019190915290565b61097591905b808211156109305760008155600101610961565b905600a165627a7a723058207b41b124200c3f049d045aa3f4fdae1ac011e484e8a6fc4962b94daa63c833670029608060405260008054600160a060020a03191633179055610346806100256000396000f3006080604052600436106100615763ffffffff7c0100000000000000000000000000000000000000000000000000000000600035041663715018a681146100665780638129fc1c1461007d5780638da5cb5b14610092578063f2fde38b146100d0575b600080fd5b34801561007257600080fd5b5061007b6100fe565b005b34801561008957600080fd5b5061007b610184565b34801561009e57600080fd5b506100a761022a565b6040805173ffffffffffffffffffffffffffffffffffffffff9092168252519081900360200190f35b3480156100dc57600080fd5b5061007b73ffffffffffffffffffffffffffffffffffffffff60043516610246565b60005473ffffffffffffffffffffffffffffffffffffffff16331461012257600080fd5b6000805460405173ffffffffffffffffffffffffffffffffffffffff909116917ff8df31144d9c2f0f6b59d69b8b98abd5459d07f2742c4df920b25aae33c6482091a26000805473ffffffffffffffffffffffffffffffffffffffff19169055565b60005473ffffffffffffffffffffffffffffffffffffffff161561020957604080517f08c379a000000000000000000000000000000000000000000000000000000000815260206004820152600860248201527f4e69636520747279000000000000000000000000000000000000000000000000604482015290519081900360640190fd5b6000805473ffffffffffffffffffffffffffffffffffffffff191633179055565b60005473ffffffffffffffffffffffffffffffffffffffff1681565b60005473ffffffffffffffffffffffffffffffffffffffff16331461026a57600080fd5b61027381610276565b50565b73ffffffffffffffffffffffffffffffffffffffff8116151561029857600080fd5b6000805460405173ffffffffffffffffffffffffffffffffffffffff808516939216917f8be0079c531659141344cd1fd0a4f28419497f9722a3daafe3b4186f6b6457e091a36000805473ffffffffffffffffffffffffffffffffffffffff191673ffffffffffffffffffffffffffffffffffffffff929092169190911790555600a165627a7a72305820bf9dc6d29332075c03dfacb8fdda8dfd8e72c320fb5a328652d7910a2207e0a60029",
  "source": "pragma solidity ^0.4.24;\n\nimport \"./User.sol\"; \nimport \"./Forum.sol\"; \nimport \"./Comment.sol\";\nimport \"./CloneFactory.sol\";\nimport \"./Ownable.sol\";\n\ncontract Tartarus is Ownable, CloneFactory {\n    event AdminCreated (address adminAddress);\n    event ForumCreated(address forumAddress);  \n    event UserCreated (address userAddress);  \n    \n    mapping (string => address) private forums;\n    mapping (address => address) private users;\n    // mapping (address => bool) private admins;\n    uint createUserCost = 0;\n\n    // function createAdmin(address _adminAddress) public onlyOwner {\n    //     require(admins[_adminAddress] == 0, \"Admin already exists\");\n    //     admins[_adminAddress] = true;\n    //     emit AdminCreated(_adminAddress);\n    // }\n\n    address cloneForum;\n    address clonePost;\n    address cloneComment;\n    address cloneUser;\n\n    constructor() public {\n        cloneUser = new User();\n        cloneForum = new Forum();\n        clonePost = new Post();\n        cloneComment = new Comment();\n    }\n\n    function createForum(string _forumName) public returns(address) {\n        require(users[msg.sender] != address(0), \"User account not found\");\n        require(forums[_forumName] == address(0), \"Forum already exists\");\n        address clone = createClone(cloneForum);\n        Forum(clone).initialize(_forumName, users[msg.sender]);\n        forums[_forumName] = clone;\n        emit ForumCreated(clone);\n        return clone;\n    }   \n\n    function createPost(address _forumAddress, string _ipfsHash) public {\n        require(users[msg.sender] != address(0), \"User account not found\");\n        Forum targetForum = Forum(_forumAddress);\n        address newPostAddress = targetForum.createPost(_ipfsHash, users[msg.sender], clonePost);\n        User targetUser = User(users[msg.sender]);\n        targetUser.notifyCreatePost(newPostAddress);\n    }\n\n    function createComment(address _forumAddress, address _postAddress, address _targetAddress, string _ipfsHash) public {\n        require(users[msg.sender] != address(0), \"User account not found\");\n        Forum targetForum = Forum(_forumAddress);\n        address newCommentAddress = targetForum.createComment(_postAddress, _targetAddress, users[msg.sender], _ipfsHash, cloneComment);\n        User targetUser = User(users[msg.sender]);\n        targetUser.notifyCreateComment(newCommentAddress);\n    }\n\n    function createUser() public payable {\n        require((msg.value >= createUserCost), \"Insufficient Eth Sent\");\n        require(users[msg.sender] == address(0), \"User account not found\");\n        address clone = createClone(cloneUser);\n        User(clone).initialize(msg.sender);\n        users[msg.sender] = clone;\n        emit UserCreated(clone);\n    }\n\n    function authenticateUser() public view returns(address) {\n        return users[msg.sender];\n    }\n\n    function setCost(uint _newCost) public onlyOwner {\n        createUserCost = _newCost;\n    }\n}",
  "sourcePath": "/Users/jarenlynch/Ethereum/Tartarus/contracts/Tartarus.sol",
  "compiler": {
    "name": "solc",
    "version": "0.4.24+commit.e67f0147.Emscripten.clang"
  },
  "schemaVersion": "2.0.1",
  "updatedAt": "2018-12-23T22:57:34.729Z"
}