{
  "contractName": "Tartarus",
  "abi": [
    {
      "constant": true,
      "inputs": [],
      "name": "voteCost",
      "outputs": [
        {
          "name": "",
          "type": "uint256"
        }
      ],
      "payable": false,
      "stateMutability": "view",
      "type": "function"
    },
    {
      "constant": false,
      "inputs": [],
      "name": "renounceOwnership",
      "outputs": [],
      "payable": false,
      "stateMutability": "nonpayable",
      "type": "function"
    },
    {
      "constant": true,
      "inputs": [],
      "name": "owner",
      "outputs": [
        {
          "name": "",
          "type": "address"
        }
      ],
      "payable": false,
      "stateMutability": "view",
      "type": "function"
    },
    {
      "constant": true,
      "inputs": [],
      "name": "nonce",
      "outputs": [
        {
          "name": "",
          "type": "uint256"
        }
      ],
      "payable": false,
      "stateMutability": "view",
      "type": "function"
    },
    {
      "constant": true,
      "inputs": [
        {
          "name": "",
          "type": "bytes32"
        }
      ],
      "name": "users",
      "outputs": [
        {
          "name": "username",
          "type": "bytes32"
        },
        {
          "name": "creator",
          "type": "address"
        }
      ],
      "payable": false,
      "stateMutability": "view",
      "type": "function"
    },
    {
      "constant": true,
      "inputs": [],
      "name": "createForumCost",
      "outputs": [
        {
          "name": "",
          "type": "uint256"
        }
      ],
      "payable": false,
      "stateMutability": "view",
      "type": "function"
    },
    {
      "constant": true,
      "inputs": [
        {
          "name": "",
          "type": "bytes32"
        }
      ],
      "name": "admins",
      "outputs": [
        {
          "name": "ban",
          "type": "bool"
        },
        {
          "name": "setCost",
          "type": "bool"
        },
        {
          "name": "editAdmin",
          "type": "bool"
        },
        {
          "name": "deleteComment",
          "type": "bool"
        },
        {
          "name": "deletePost",
          "type": "bool"
        },
        {
          "name": "deleteForum",
          "type": "bool"
        }
      ],
      "payable": false,
      "stateMutability": "view",
      "type": "function"
    },
    {
      "constant": true,
      "inputs": [],
      "name": "createPostCost",
      "outputs": [
        {
          "name": "",
          "type": "uint256"
        }
      ],
      "payable": false,
      "stateMutability": "view",
      "type": "function"
    },
    {
      "constant": true,
      "inputs": [
        {
          "name": "",
          "type": "bytes32"
        }
      ],
      "name": "banned",
      "outputs": [
        {
          "name": "",
          "type": "bool"
        }
      ],
      "payable": false,
      "stateMutability": "view",
      "type": "function"
    },
    {
      "constant": true,
      "inputs": [],
      "name": "createUserCost",
      "outputs": [
        {
          "name": "",
          "type": "uint256"
        }
      ],
      "payable": false,
      "stateMutability": "view",
      "type": "function"
    },
    {
      "constant": false,
      "inputs": [
        {
          "name": "_newOwner",
          "type": "address"
        }
      ],
      "name": "transferOwnership",
      "outputs": [],
      "payable": false,
      "stateMutability": "nonpayable",
      "type": "function"
    },
    {
      "constant": true,
      "inputs": [
        {
          "name": "",
          "type": "bytes32"
        }
      ],
      "name": "forums",
      "outputs": [
        {
          "name": "name",
          "type": "bytes32"
        },
        {
          "name": "rules",
          "type": "bytes32"
        },
        {
          "name": "description",
          "type": "bytes32"
        },
        {
          "name": "creator",
          "type": "bytes32"
        }
      ],
      "payable": false,
      "stateMutability": "view",
      "type": "function"
    },
    {
      "constant": true,
      "inputs": [],
      "name": "createCommentCost",
      "outputs": [
        {
          "name": "",
          "type": "uint256"
        }
      ],
      "payable": false,
      "stateMutability": "view",
      "type": "function"
    },
    {
      "inputs": [
        {
          "name": "_username",
          "type": "string"
        }
      ],
      "payable": false,
      "stateMutability": "nonpayable",
      "type": "constructor"
    },
    {
      "anonymous": false,
      "inputs": [
        {
          "indexed": false,
          "name": "user",
          "type": "bytes32"
        },
        {
          "indexed": false,
          "name": "targetUser",
          "type": "bytes32"
        },
        {
          "indexed": false,
          "name": "time",
          "type": "uint256"
        }
      ],
      "name": "AdminCreated",
      "type": "event"
    },
    {
      "anonymous": false,
      "inputs": [
        {
          "indexed": false,
          "name": "user",
          "type": "bytes32"
        },
        {
          "indexed": false,
          "name": "targetUser",
          "type": "bytes32"
        },
        {
          "indexed": false,
          "name": "time",
          "type": "uint256"
        }
      ],
      "name": "AdminRemoved",
      "type": "event"
    },
    {
      "anonymous": false,
      "inputs": [
        {
          "indexed": true,
          "name": "forum",
          "type": "bytes32"
        },
        {
          "indexed": false,
          "name": "user",
          "type": "bytes32"
        },
        {
          "indexed": false,
          "name": "targetUser",
          "type": "bytes32"
        },
        {
          "indexed": false,
          "name": "time",
          "type": "uint256"
        }
      ],
      "name": "ModeratorCreated",
      "type": "event"
    },
    {
      "anonymous": false,
      "inputs": [
        {
          "indexed": true,
          "name": "forum",
          "type": "bytes32"
        },
        {
          "indexed": false,
          "name": "user",
          "type": "bytes32"
        },
        {
          "indexed": false,
          "name": "targetUser",
          "type": "bytes32"
        },
        {
          "indexed": false,
          "name": "time",
          "type": "uint256"
        }
      ],
      "name": "ModeratorRemoved",
      "type": "event"
    },
    {
      "anonymous": false,
      "inputs": [
        {
          "indexed": false,
          "name": "user",
          "type": "bytes32"
        },
        {
          "indexed": false,
          "name": "time",
          "type": "uint256"
        }
      ],
      "name": "UserCreated",
      "type": "event"
    },
    {
      "anonymous": false,
      "inputs": [
        {
          "indexed": false,
          "name": "user",
          "type": "bytes32"
        },
        {
          "indexed": false,
          "name": "time",
          "type": "uint256"
        }
      ],
      "name": "UserBanned",
      "type": "event"
    },
    {
      "anonymous": false,
      "inputs": [
        {
          "indexed": true,
          "name": "forum",
          "type": "bytes32"
        },
        {
          "indexed": false,
          "name": "user",
          "type": "bytes32"
        },
        {
          "indexed": false,
          "name": "time",
          "type": "uint256"
        }
      ],
      "name": "UserForumBanned",
      "type": "event"
    },
    {
      "anonymous": false,
      "inputs": [
        {
          "indexed": false,
          "name": "forum",
          "type": "bytes32"
        },
        {
          "indexed": false,
          "name": "time",
          "type": "uint256"
        }
      ],
      "name": "ForumCreated",
      "type": "event"
    },
    {
      "anonymous": false,
      "inputs": [
        {
          "indexed": false,
          "name": "forum",
          "type": "bytes32"
        },
        {
          "indexed": false,
          "name": "time",
          "type": "uint256"
        }
      ],
      "name": "ForumDeleted",
      "type": "event"
    },
    {
      "anonymous": false,
      "inputs": [
        {
          "indexed": true,
          "name": "forum",
          "type": "bytes32"
        },
        {
          "indexed": false,
          "name": "oldRules",
          "type": "bytes32"
        },
        {
          "indexed": false,
          "name": "newRules",
          "type": "bytes32"
        },
        {
          "indexed": false,
          "name": "time",
          "type": "uint256"
        }
      ],
      "name": "ForumRulesEdited",
      "type": "event"
    },
    {
      "anonymous": false,
      "inputs": [
        {
          "indexed": true,
          "name": "forum",
          "type": "bytes32"
        },
        {
          "indexed": false,
          "name": "oldDescription",
          "type": "bytes32"
        },
        {
          "indexed": false,
          "name": "newDescription",
          "type": "bytes32"
        },
        {
          "indexed": false,
          "name": "time",
          "type": "uint256"
        }
      ],
      "name": "ForumDescriptionEdited",
      "type": "event"
    },
    {
      "anonymous": false,
      "inputs": [
        {
          "indexed": true,
          "name": "forum",
          "type": "bytes32"
        },
        {
          "indexed": true,
          "name": "creator",
          "type": "bytes32"
        },
        {
          "indexed": true,
          "name": "postId",
          "type": "bytes32"
        },
        {
          "indexed": false,
          "name": "time",
          "type": "uint256"
        }
      ],
      "name": "PostCreated",
      "type": "event"
    },
    {
      "anonymous": false,
      "inputs": [
        {
          "indexed": true,
          "name": "forum",
          "type": "bytes32"
        },
        {
          "indexed": false,
          "name": "postId",
          "type": "bytes32"
        },
        {
          "indexed": false,
          "name": "time",
          "type": "uint256"
        }
      ],
      "name": "PostDeleted",
      "type": "event"
    },
    {
      "anonymous": false,
      "inputs": [
        {
          "indexed": true,
          "name": "forum",
          "type": "bytes32"
        },
        {
          "indexed": false,
          "name": "postId",
          "type": "bytes32"
        },
        {
          "indexed": false,
          "name": "time",
          "type": "uint256"
        }
      ],
      "name": "PostPinned",
      "type": "event"
    },
    {
      "anonymous": false,
      "inputs": [
        {
          "indexed": true,
          "name": "forum",
          "type": "bytes32"
        },
        {
          "indexed": false,
          "name": "postId",
          "type": "bytes32"
        },
        {
          "indexed": false,
          "name": "time",
          "type": "uint256"
        }
      ],
      "name": "PostUnpinned",
      "type": "event"
    },
    {
      "anonymous": false,
      "inputs": [
        {
          "indexed": true,
          "name": "postId",
          "type": "bytes32"
        },
        {
          "indexed": true,
          "name": "creator",
          "type": "bytes32"
        },
        {
          "indexed": true,
          "name": "targetId",
          "type": "bytes32"
        },
        {
          "indexed": false,
          "name": "commentId",
          "type": "bytes32"
        },
        {
          "indexed": false,
          "name": "time",
          "type": "uint256"
        }
      ],
      "name": "CommentCreated",
      "type": "event"
    },
    {
      "anonymous": false,
      "inputs": [
        {
          "indexed": true,
          "name": "forumId",
          "type": "bytes32"
        },
        {
          "indexed": false,
          "name": "postId",
          "type": "bytes32"
        },
        {
          "indexed": false,
          "name": "commentId",
          "type": "bytes32"
        },
        {
          "indexed": false,
          "name": "time",
          "type": "uint256"
        }
      ],
      "name": "CommentDeleted",
      "type": "event"
    },
    {
      "anonymous": false,
      "inputs": [
        {
          "indexed": false,
          "name": "user",
          "type": "bytes32"
        },
        {
          "indexed": false,
          "name": "reason",
          "type": "bytes32"
        },
        {
          "indexed": false,
          "name": "time",
          "type": "uint256"
        }
      ],
      "name": "ReportUser",
      "type": "event"
    },
    {
      "anonymous": false,
      "inputs": [
        {
          "indexed": false,
          "name": "forum",
          "type": "bytes32"
        },
        {
          "indexed": false,
          "name": "reason",
          "type": "bytes32"
        },
        {
          "indexed": false,
          "name": "time",
          "type": "uint256"
        }
      ],
      "name": "ReportForum",
      "type": "event"
    },
    {
      "anonymous": false,
      "inputs": [
        {
          "indexed": true,
          "name": "_forum",
          "type": "bytes32"
        },
        {
          "indexed": false,
          "name": "_postId",
          "type": "bytes32"
        },
        {
          "indexed": false,
          "name": "reason",
          "type": "bytes32"
        },
        {
          "indexed": false,
          "name": "time",
          "type": "uint256"
        }
      ],
      "name": "ReportPost",
      "type": "event"
    },
    {
      "anonymous": false,
      "inputs": [
        {
          "indexed": true,
          "name": "_forum",
          "type": "bytes32"
        },
        {
          "indexed": false,
          "name": "_postId",
          "type": "bytes32"
        },
        {
          "indexed": false,
          "name": "_commentId",
          "type": "bytes32"
        },
        {
          "indexed": false,
          "name": "reason",
          "type": "bytes32"
        },
        {
          "indexed": false,
          "name": "time",
          "type": "uint256"
        }
      ],
      "name": "ReportComment",
      "type": "event"
    },
    {
      "anonymous": false,
      "inputs": [
        {
          "indexed": true,
          "name": "previousOwner",
          "type": "address"
        }
      ],
      "name": "OwnershipRenounced",
      "type": "event"
    },
    {
      "anonymous": false,
      "inputs": [
        {
          "indexed": true,
          "name": "previousOwner",
          "type": "address"
        },
        {
          "indexed": true,
          "name": "newOwner",
          "type": "address"
        }
      ],
      "name": "OwnershipTransferred",
      "type": "event"
    },
    {
      "constant": true,
      "inputs": [
        {
          "name": "_name",
          "type": "string"
        }
      ],
      "name": "validateName",
      "outputs": [
        {
          "name": "",
          "type": "bool"
        }
      ],
      "payable": false,
      "stateMutability": "pure",
      "type": "function"
    },
    {
      "constant": true,
      "inputs": [
        {
          "name": "_source",
          "type": "string"
        }
      ],
      "name": "stringToBytes32",
      "outputs": [
        {
          "name": "result",
          "type": "bytes32"
        }
      ],
      "payable": false,
      "stateMutability": "pure",
      "type": "function"
    },
    {
      "constant": false,
      "inputs": [],
      "name": "generateId",
      "outputs": [
        {
          "name": "",
          "type": "bytes32"
        }
      ],
      "payable": false,
      "stateMutability": "nonpayable",
      "type": "function"
    },
    {
      "constant": false,
      "inputs": [
        {
          "name": "_username",
          "type": "string"
        }
      ],
      "name": "createUser",
      "outputs": [],
      "payable": true,
      "stateMutability": "payable",
      "type": "function"
    },
    {
      "constant": false,
      "inputs": [
        {
          "name": "_user",
          "type": "bytes32"
        },
        {
          "name": "_forum",
          "type": "string"
        },
        {
          "name": "_rules",
          "type": "bytes32"
        },
        {
          "name": "_description",
          "type": "bytes32"
        }
      ],
      "name": "createForum",
      "outputs": [],
      "payable": true,
      "stateMutability": "payable",
      "type": "function"
    },
    {
      "constant": false,
      "inputs": [
        {
          "name": "_user",
          "type": "bytes32"
        },
        {
          "name": "_forum",
          "type": "bytes32"
        }
      ],
      "name": "deleteForum",
      "outputs": [],
      "payable": false,
      "stateMutability": "nonpayable",
      "type": "function"
    },
    {
      "constant": false,
      "inputs": [
        {
          "name": "_user",
          "type": "bytes32"
        },
        {
          "name": "_forum",
          "type": "bytes32"
        },
        {
          "name": "_post",
          "type": "bytes32"
        }
      ],
      "name": "createPost",
      "outputs": [],
      "payable": true,
      "stateMutability": "payable",
      "type": "function"
    },
    {
      "constant": false,
      "inputs": [
        {
          "name": "_user",
          "type": "bytes32"
        },
        {
          "name": "_forum",
          "type": "bytes32"
        },
        {
          "name": "_postId",
          "type": "bytes32"
        }
      ],
      "name": "deletePost",
      "outputs": [],
      "payable": false,
      "stateMutability": "nonpayable",
      "type": "function"
    },
    {
      "constant": true,
      "inputs": [
        {
          "name": "_forum",
          "type": "bytes32"
        },
        {
          "name": "_postId",
          "type": "bytes32"
        }
      ],
      "name": "getPost",
      "outputs": [
        {
          "name": "post",
          "type": "bytes32"
        },
        {
          "name": "creator",
          "type": "bytes32"
        },
        {
          "name": "votes",
          "type": "uint16"
        },
        {
          "name": "comments",
          "type": "uint16"
        }
      ],
      "payable": false,
      "stateMutability": "view",
      "type": "function"
    },
    {
      "constant": false,
      "inputs": [
        {
          "name": "_user",
          "type": "bytes32"
        },
        {
          "name": "_forum",
          "type": "bytes32"
        },
        {
          "name": "_postId",
          "type": "bytes32"
        },
        {
          "name": "_postIndex",
          "type": "uint256"
        }
      ],
      "name": "pinPost",
      "outputs": [],
      "payable": false,
      "stateMutability": "nonpayable",
      "type": "function"
    },
    {
      "constant": false,
      "inputs": [
        {
          "name": "_user",
          "type": "bytes32"
        },
        {
          "name": "_forum",
          "type": "bytes32"
        },
        {
          "name": "_postIndex",
          "type": "uint256"
        }
      ],
      "name": "unpinPost",
      "outputs": [],
      "payable": false,
      "stateMutability": "nonpayable",
      "type": "function"
    },
    {
      "constant": true,
      "inputs": [
        {
          "name": "_forum",
          "type": "bytes32"
        }
      ],
      "name": "getPinnedPosts",
      "outputs": [
        {
          "name": "post1",
          "type": "bytes32"
        },
        {
          "name": "post2",
          "type": "bytes32"
        },
        {
          "name": "post3",
          "type": "bytes32"
        }
      ],
      "payable": false,
      "stateMutability": "view",
      "type": "function"
    },
    {
      "constant": false,
      "inputs": [
        {
          "name": "_forum",
          "type": "bytes32"
        },
        {
          "name": "_user",
          "type": "bytes32"
        },
        {
          "name": "_postId",
          "type": "bytes32"
        }
      ],
      "name": "upvote",
      "outputs": [],
      "payable": true,
      "stateMutability": "payable",
      "type": "function"
    },
    {
      "constant": false,
      "inputs": [
        {
          "name": "_forum",
          "type": "bytes32"
        },
        {
          "name": "_user",
          "type": "bytes32"
        },
        {
          "name": "_postId",
          "type": "bytes32"
        }
      ],
      "name": "downvote",
      "outputs": [],
      "payable": true,
      "stateMutability": "payable",
      "type": "function"
    },
    {
      "constant": false,
      "inputs": [
        {
          "name": "_user",
          "type": "bytes32"
        },
        {
          "name": "_forum",
          "type": "bytes32"
        },
        {
          "name": "_postId",
          "type": "bytes32"
        },
        {
          "name": "_comment",
          "type": "bytes32"
        },
        {
          "name": "_targetId",
          "type": "bytes32"
        }
      ],
      "name": "createComment",
      "outputs": [],
      "payable": true,
      "stateMutability": "payable",
      "type": "function"
    },
    {
      "constant": false,
      "inputs": [
        {
          "name": "_user",
          "type": "bytes32"
        },
        {
          "name": "_forum",
          "type": "bytes32"
        },
        {
          "name": "_postId",
          "type": "bytes32"
        },
        {
          "name": "_commentId",
          "type": "bytes32"
        }
      ],
      "name": "deleteComment",
      "outputs": [],
      "payable": false,
      "stateMutability": "nonpayable",
      "type": "function"
    },
    {
      "constant": true,
      "inputs": [
        {
          "name": "_forum",
          "type": "bytes32"
        },
        {
          "name": "_commentId",
          "type": "bytes32"
        }
      ],
      "name": "getComment",
      "outputs": [
        {
          "name": "comment",
          "type": "bytes32"
        },
        {
          "name": "creator",
          "type": "bytes32"
        }
      ],
      "payable": false,
      "stateMutability": "view",
      "type": "function"
    },
    {
      "constant": false,
      "inputs": [
        {
          "name": "_user",
          "type": "bytes32"
        },
        {
          "name": "_forum",
          "type": "bytes32"
        },
        {
          "name": "_targetUser",
          "type": "bytes32"
        },
        {
          "name": "_ban",
          "type": "bool"
        },
        {
          "name": "_editInfo",
          "type": "bool"
        },
        {
          "name": "_editModerators",
          "type": "bool"
        },
        {
          "name": "_editPost",
          "type": "bool"
        }
      ],
      "name": "createModerator",
      "outputs": [],
      "payable": false,
      "stateMutability": "nonpayable",
      "type": "function"
    },
    {
      "constant": false,
      "inputs": [
        {
          "name": "_user",
          "type": "bytes32"
        },
        {
          "name": "_targetUser",
          "type": "bytes32"
        },
        {
          "name": "_forum",
          "type": "bytes32"
        }
      ],
      "name": "removeModerator",
      "outputs": [],
      "payable": false,
      "stateMutability": "nonpayable",
      "type": "function"
    },
    {
      "constant": true,
      "inputs": [
        {
          "name": "_forum",
          "type": "bytes32"
        },
        {
          "name": "_user",
          "type": "bytes32"
        }
      ],
      "name": "getModerator",
      "outputs": [
        {
          "name": "ban",
          "type": "bool"
        },
        {
          "name": "editInfo",
          "type": "bool"
        },
        {
          "name": "editModerator",
          "type": "bool"
        },
        {
          "name": "editPost",
          "type": "bool"
        }
      ],
      "payable": false,
      "stateMutability": "view",
      "type": "function"
    },
    {
      "constant": false,
      "inputs": [
        {
          "name": "_user",
          "type": "bytes32"
        },
        {
          "name": "_forum",
          "type": "bytes32"
        },
        {
          "name": "_rules",
          "type": "bytes32"
        }
      ],
      "name": "setForumRules",
      "outputs": [],
      "payable": false,
      "stateMutability": "nonpayable",
      "type": "function"
    },
    {
      "constant": false,
      "inputs": [
        {
          "name": "_user",
          "type": "bytes32"
        },
        {
          "name": "_forum",
          "type": "bytes32"
        },
        {
          "name": "_description",
          "type": "bytes32"
        }
      ],
      "name": "setForumDescription",
      "outputs": [],
      "payable": false,
      "stateMutability": "nonpayable",
      "type": "function"
    },
    {
      "constant": false,
      "inputs": [
        {
          "name": "_user",
          "type": "bytes32"
        },
        {
          "name": "_targetUser",
          "type": "bytes32"
        },
        {
          "name": "_forum",
          "type": "bytes32"
        }
      ],
      "name": "banUserForum",
      "outputs": [],
      "payable": false,
      "stateMutability": "nonpayable",
      "type": "function"
    },
    {
      "constant": false,
      "inputs": [
        {
          "name": "_user",
          "type": "bytes32"
        },
        {
          "name": "_targetUser",
          "type": "bytes32"
        },
        {
          "name": "_forum",
          "type": "bytes32"
        }
      ],
      "name": "unbanUserForum",
      "outputs": [],
      "payable": false,
      "stateMutability": "nonpayable",
      "type": "function"
    },
    {
      "constant": false,
      "inputs": [
        {
          "name": "_user",
          "type": "bytes32"
        },
        {
          "name": "_targetUser",
          "type": "bytes32"
        },
        {
          "name": "_reason",
          "type": "bytes32"
        }
      ],
      "name": "reportUser",
      "outputs": [],
      "payable": false,
      "stateMutability": "nonpayable",
      "type": "function"
    },
    {
      "constant": false,
      "inputs": [
        {
          "name": "_user",
          "type": "bytes32"
        },
        {
          "name": "_forum",
          "type": "bytes32"
        },
        {
          "name": "_reason",
          "type": "bytes32"
        }
      ],
      "name": "reportForum",
      "outputs": [],
      "payable": false,
      "stateMutability": "nonpayable",
      "type": "function"
    },
    {
      "constant": false,
      "inputs": [
        {
          "name": "_user",
          "type": "bytes32"
        },
        {
          "name": "_forum",
          "type": "bytes32"
        },
        {
          "name": "_postId",
          "type": "bytes32"
        },
        {
          "name": "_reason",
          "type": "bytes32"
        }
      ],
      "name": "reportPost",
      "outputs": [],
      "payable": false,
      "stateMutability": "nonpayable",
      "type": "function"
    },
    {
      "constant": false,
      "inputs": [
        {
          "name": "_user",
          "type": "bytes32"
        },
        {
          "name": "_forum",
          "type": "bytes32"
        },
        {
          "name": "_postId",
          "type": "bytes32"
        },
        {
          "name": "_commentId",
          "type": "bytes32"
        },
        {
          "name": "_reason",
          "type": "bytes32"
        }
      ],
      "name": "reportComment",
      "outputs": [],
      "payable": false,
      "stateMutability": "nonpayable",
      "type": "function"
    },
    {
      "constant": false,
      "inputs": [
        {
          "name": "_user",
          "type": "bytes32"
        },
        {
          "name": "_targetUser",
          "type": "bytes32"
        },
        {
          "name": "_ban",
          "type": "bool"
        },
        {
          "name": "_setCost",
          "type": "bool"
        },
        {
          "name": "_editAdmin",
          "type": "bool"
        },
        {
          "name": "_deletePost",
          "type": "bool"
        },
        {
          "name": "_deleteComment",
          "type": "bool"
        },
        {
          "name": "_deleteForum",
          "type": "bool"
        }
      ],
      "name": "createAdmin",
      "outputs": [],
      "payable": false,
      "stateMutability": "nonpayable",
      "type": "function"
    },
    {
      "constant": false,
      "inputs": [
        {
          "name": "_user",
          "type": "bytes32"
        },
        {
          "name": "_targetUser",
          "type": "bytes32"
        }
      ],
      "name": "removeAdmin",
      "outputs": [],
      "payable": false,
      "stateMutability": "nonpayable",
      "type": "function"
    },
    {
      "constant": false,
      "inputs": [
        {
          "name": "_user",
          "type": "bytes32"
        },
        {
          "name": "_targetUser",
          "type": "bytes32"
        }
      ],
      "name": "banUserTartarus",
      "outputs": [],
      "payable": false,
      "stateMutability": "nonpayable",
      "type": "function"
    },
    {
      "constant": false,
      "inputs": [
        {
          "name": "_user",
          "type": "bytes32"
        },
        {
          "name": "_targetUser",
          "type": "bytes32"
        }
      ],
      "name": "unbanUserTartarus",
      "outputs": [],
      "payable": false,
      "stateMutability": "nonpayable",
      "type": "function"
    },
    {
      "constant": false,
      "inputs": [
        {
          "name": "_user",
          "type": "bytes32"
        },
        {
          "name": "_newCost",
          "type": "uint256"
        }
      ],
      "name": "setCreateUserCost",
      "outputs": [],
      "payable": false,
      "stateMutability": "nonpayable",
      "type": "function"
    },
    {
      "constant": false,
      "inputs": [
        {
          "name": "_user",
          "type": "bytes32"
        },
        {
          "name": "_newCost",
          "type": "uint256"
        }
      ],
      "name": "setCreateForumCost",
      "outputs": [],
      "payable": false,
      "stateMutability": "nonpayable",
      "type": "function"
    },
    {
      "constant": false,
      "inputs": [
        {
          "name": "_user",
          "type": "bytes32"
        },
        {
          "name": "_newCost",
          "type": "uint256"
        }
      ],
      "name": "setCreatePostCost",
      "outputs": [],
      "payable": false,
      "stateMutability": "nonpayable",
      "type": "function"
    },
    {
      "constant": false,
      "inputs": [
        {
          "name": "_user",
          "type": "bytes32"
        },
        {
          "name": "_newCost",
          "type": "uint256"
        }
      ],
      "name": "setCreateCommentCost",
      "outputs": [],
      "payable": false,
      "stateMutability": "nonpayable",
      "type": "function"
    },
    {
      "constant": false,
      "inputs": [
        {
          "name": "_user",
          "type": "bytes32"
        },
        {
          "name": "_newCost",
          "type": "uint256"
        }
      ],
      "name": "setVoteCost",
      "outputs": [],
      "payable": false,
      "stateMutability": "nonpayable",
      "type": "function"
    }
  ],
  "bytecode": "0x6080604052666a94d74f430000600555666a94d74f430000600655660110d9316ec000600755655af3107a4000600855655af3107a40006009556000600a553480156200004b57600080fd5b5060405162005a7838038062005a78833981018060405260208110156200007157600080fd5b8101908080516401000000008111156200008a57600080fd5b820160208101848111156200009e57600080fd5b8151640100000000811182820187101715620000b957600080fd5b50506000805433600160a060020a031991821681179091161790559250620000ee91508290506401000000006200030e810204565b15156200015c57604080517f08c379a000000000000000000000000000000000000000000000000000000000815260206004820152601060248201527f496e76616c696420757365726e616d6500000000000000000000000000000000604482015290519081900360640190fd5b60006200017282640100000000620005cf810204565b90506200017e620005f1565b818152336020808301918252600084815260039091526040902082518155905160019091018054600160a060020a031916600160a060020a03909216919091179055620001ca62000608565b600180825260208083018281526040808501848152606086018581526080870186815260a0880187815260008b815297875296849020885181549651945193519251985160ff199097169015151761ff001916610100941515949094029390931762ff0000191662010000921515929092029190911763ff00000019166301000000911515919091021764ff000000001916640100000000951515959095029490941765ff000000000019166501000000000092151592909202919091179092558151858152429181019190915281517f28de7412d9ad2b3adb21457836b93e10b297cb3b7c60230c93a642c1ffd8aed9929181900390910190a16040805184815260208101859052428183015290517f99299d5877434313fdc02e216599e41e8000c32a7978a464323235be56df72c99181900360600190a1505050506200063d565b6000606082905060158151118062000327575060038151105b1562000338576000915050620005ca565b60005b8151811015620005c357600082828151811015156200035657fe5b01602001517f0100000000000000000000000000000000000000000000000000000000000000908190040290507f30000000000000000000000000000000000000000000000000000000000000007fff000000000000000000000000000000000000000000000000000000000000008216108015906200041857507f39000000000000000000000000000000000000000000000000000000000000007fff00000000000000000000000000000000000000000000000000000000000000821611155b158015620004b857507f41000000000000000000000000000000000000000000000000000000000000007fff00000000000000000000000000000000000000000000000000000000000000821610801590620004b657507f5a000000000000000000000000000000000000000000000000000000000000007fff00000000000000000000000000000000000000000000000000000000000000821611155b155b80156200055757507f61000000000000000000000000000000000000000000000000000000000000007fff000000000000000000000000000000000000000000000000000000000000008216108015906200055557507f7a000000000000000000000000000000000000000000000000000000000000007fff00000000000000000000000000000000000000000000000000000000000000821611155b155b8015620005a657507f5f000000000000000000000000000000000000000000000000000000000000007fff00000000000000000000000000000000000000000000000000000000000000821614155b15620005b95760009350505050620005ca565b506001016200033b565b5060019150505b919050565b805160009082901515620005e8575060009050620005ca565b50506020015190565b604080518082019091526000808252602082015290565b6040805160c081018252600080825260208201819052918101829052606081018290526080810182905260a081019190915290565b61542b806200064d6000396000f3fe6080604052600436106102e6576000357c010000000000000000000000000000000000000000000000000000000090048063a26902ce11610192578063d3dde4a3116100f9578063f004a35e116100b2578063fb1187171161008c578063fb11871714610e7f578063fc6c245514610ecf578063fce7cf6814610eff578063ff24ba0414610f14576102e6565b8063f004a35e14610e01578063f2fde38b14610e16578063f677c4fd14610e49576102e6565b8063d3dde4a314610cea578063db468cb414610d20578063dca259cb14610d35578063dde9bcf914610d5f578063e38abf4c14610d8f578063ea34d12314610dd1576102e6565b8063c11741dc1161014b578063c11741dc14610afc578063cea6ab9814610b2c578063cfb5192814610b77578063d050d57214610c2a578063d079661b14610c3f578063d24c504114610ca2576102e6565b8063a26902ce146109bc578063aaf4edd914610a16578063aefd800014610a4c578063af1787b214610a81578063affed0e014610ab7578063ba6a812114610acc576102e6565b80635ebe7c4e1161025157806384d781781161020a5780638da5cb5b116101e45780638da5cb5b14610864578063959cacf6146108955780639880af2c146108c55780639ffdb65a146108f5576102e6565b806384d78178146107c2578063861ac9b9146107f85780638963cd8d14610828576102e6565b80635ebe7c4e1461069c57806367cdd3a9146106f65780636920ef701461071f5780636f8dcb3d14610768578063715018a61461077d5780637725b11114610792576102e6565b806324135cad116102a357806324135cad146104c05780633bd96765146105215780634c1b8ffd1461055d578063507ffba514610584578063596c7c861461062a5780635cdc5b6c14610666576102e6565b806303df68ba146102eb57806305a674e314610323578063147363f5146103d5578063157449a41461042b57806316ac66fe146104545780631ba8b7ea1461048a575b600080fd5b3480156102f757600080fd5b506103216004803603606081101561030e57600080fd5b5080359060208101359060400135610f3d565b005b6103216004803603608081101561033957600080fd5b8135919081019060408101602082013564010000000081111561035b57600080fd5b82018360208201111561036d57600080fd5b8035906020019184600183028401116401000000008311171561038f57600080fd5b91908080601f01602080910402602001604051908101604052809392919081815260200183838082843760009201919091525092955050823593505050602001356110f3565b3480156103e157600080fd5b50610321600480360360e08110156103f857600080fd5b508035906020810135906040810135906060810135151590608081013515159060a081013515159060c001351515611492565b6103216004803603606081101561044157600080fd5b508035906020810135906040013561180b565b34801561046057600080fd5b506103216004803603606081101561047757600080fd5b5080359060208101359060400135611a61565b34801561049657600080fd5b50610321600480360360608110156104ad57600080fd5b5080359060208101359060400135611c17565b3480156104cc57600080fd5b5061032160048036036101008110156104e457600080fd5b5080359060208101359060408101351515906060810135151590608081013515159060a081013515159060c081013515159060e001351515611e5c565b34801561052d57600080fd5b506103216004803603608081101561054457600080fd5b5080359060208101359060408101359060600135612134565b34801561056957600080fd5b506105726123e6565b60408051918252519081900360200190f35b6103216004803603602081101561059a57600080fd5b8101906020810181356401000000008111156105b557600080fd5b8201836020820111156105c757600080fd5b803590602001918460018302840111640100000000831117156105e957600080fd5b91908080601f0160208091040260200160405190810160405280939291908181526020018383808284376000920191909152509295506123ec945050505050565b34801561063657600080fd5b506103216004803603608081101561064d57600080fd5b50803590602081013590604081013590606001356125ab565b34801561067257600080fd5b506103216004803603606081101561068957600080fd5b5080359060208101359060400135612794565b3480156106a857600080fd5b506106cc600480360360408110156106bf57600080fd5b5080359060200135612a0a565b60408051941515855292151560208501529015158383015215156060830152519081900360800190f35b6103216004803603606081101561070c57600080fd5b5080359060208101359060400135612a4b565b34801561072b57600080fd5b5061074f6004803603604081101561074257600080fd5b5080359060200135612cbf565b6040805192835260208301919091528051918290030190f35b34801561077457600080fd5b50610572612ce8565b34801561078957600080fd5b50610321612d2f565b34801561079e57600080fd5b50610321600480360360408110156107b557600080fd5b5080359060200135612d9b565b3480156107ce57600080fd5b50610321600480360360608110156107e557600080fd5b5080359060208101359060400135612f9e565b34801561080457600080fd5b506103216004803603604081101561081b57600080fd5b5080359060200135613119565b34801561083457600080fd5b506103216004803603608081101561084b57600080fd5b5080359060208101359060408101359060600135613203565b34801561087057600080fd5b50610879613480565b60408051600160a060020a039092168252519081900360200190f35b3480156108a157600080fd5b50610321600480360360408110156108b857600080fd5b508035906020013561348f565b3480156108d157600080fd5b50610321600480360360408110156108e857600080fd5b5080359060200135613579565b34801561090157600080fd5b506109a86004803603602081101561091857600080fd5b81019060208101813564010000000081111561093357600080fd5b82018360208201111561094557600080fd5b8035906020019184600183028401116401000000008311171561096757600080fd5b91908080601f016020809104026020016040519081016040528093929190818152602001838380828437600092019190915250929550613663945050505050565b604080519115158252519081900360200190f35b3480156109c857600080fd5b506109ec600480360360408110156109df57600080fd5b508035906020013561386e565b60408051948552602085019390935261ffff91821684840152166060830152519081900360800190f35b348015610a2257600080fd5b5061032160048036036060811015610a3957600080fd5b50803590602081013590604001356138ab565b610321600480360360a0811015610a6257600080fd5b5080359060208101359060408101359060608101359060800135613a2f565b348015610a8d57600080fd5b5061032160048036036060811015610aa457600080fd5b5080359060208101359060400135613df7565b348015610ac357600080fd5b50610572613fdc565b348015610ad857600080fd5b5061032160048036036040811015610aef57600080fd5b5080359060200135613fe2565b348015610b0857600080fd5b5061032160048036036040811015610b1f57600080fd5b5080359060200135614188565b348015610b3857600080fd5b50610b5660048036036020811015610b4f57600080fd5b5035614272565b60408051928352600160a060020a0390911660208301528051918290030190f35b348015610b8357600080fd5b5061057260048036036020811015610b9a57600080fd5b810190602081018135640100000000811115610bb557600080fd5b820183602082011115610bc757600080fd5b80359060200191846001830284011164010000000083111715610be957600080fd5b91908080601f016020809104026020016040519081016040528093929190818152602001838380828437600092019190915250929550614294945050505050565b348015610c3657600080fd5b506105726142b4565b348015610c4b57600080fd5b50610c6960048036036020811015610c6257600080fd5b50356142ba565b604080519615158752941515602087015292151585850152901515606085015215156080840152151560a0830152519081900360c00190f35b348015610cae57600080fd5b50610ccc60048036036020811015610cc557600080fd5b5035614302565b60408051938452602084019290925282820152519081900360600190f35b348015610cf657600080fd5b5061032160048036036060811015610d0d57600080fd5b5080359060208101359060400135614399565b348015610d2c57600080fd5b506105726145b3565b348015610d4157600080fd5b506109a860048036036020811015610d5857600080fd5b50356145b9565b348015610d6b57600080fd5b5061032160048036036040811015610d8257600080fd5b50803590602001356145ce565b348015610d9b57600080fd5b50610321600480360360a0811015610db257600080fd5b50803590602081013590604081013590606081013590608001356146b8565b348015610ddd57600080fd5b5061032160048036036040811015610df457600080fd5b50803590602001356148bb565b348015610e0d57600080fd5b50610572614a7d565b348015610e2257600080fd5b5061032160048036036020811015610e3957600080fd5b5035600160a060020a0316614a83565b348015610e5557600080fd5b5061032160048036036060811015610e6c57600080fd5b5080359060208101359060400135614aa6565b348015610e8b57600080fd5b50610ea960048036036020811015610ea257600080fd5b5035614d29565b604080519485526020850193909352838301919091526060830152519081900360800190f35b348015610edb57600080fd5b5061032160048036036040811015610ef257600080fd5b5080359060200135614d50565b348015610f0b57600080fd5b50610572614f22565b61032160048036036060811015610f2a57600080fd5b5080359060208101359060400135614f28565b6000838152600360205260409020600101548390600160a060020a031615801590610f815750600081815260036020526040902060010154600160a060020a031633145b1515610fc5576040805160e560020a62461bcd0281526020600482015260116024820152600080516020615320833981519152604482015290519081900360640190fd5b6000838152600460205260409020600301548390151561101d576040805160e560020a62461bcd02815260206004820152601460248201526000805160206153e0833981519152604482015290519081900360640190fd5b6000848152600460209081526040808320888452600501909152902054610100900460ff161515611086576040805160e560020a62461bcd02815260206004820152601d60248201526000805160206153a0833981519152604482015290519081900360640190fd5b6000848152600460209081526040918290206002015482519081529081018590524281830152905185917fe65a8c3c401ab062ffe01e23cddd2431c64bd496d9672bb20ac3f74d9cc69802919081900360600190a250506000918252600460205260409091206002015550565b6000848152600360205260409020600101548490600160a060020a0316158015906111375750600081815260036020526040902060010154600160a060020a031633145b151561117b576040805160e560020a62461bcd0281526020600482015260116024820152600080516020615320833981519152604482015290519081900360640190fd5b600654348111156111c4576040805160e560020a62461bcd0281526020600482015260156024820152600080516020615360833981519152604482015290519081900360640190fd5b60008681526002602052604090205460ff1615611219576040805160e560020a62461bcd02815260206004820152600b60248201526000805160206153c0833981519152604482015290519081900360640190fd5b61122285613663565b1515611278576040805160e560020a62461bcd02815260206004820152601260248201527f496e76616c696420666f72756d206e616d650000000000000000000000000000604482015290519081900360640190fd5b600061128386614294565b600081815260046020526040902060030154909150156112ed576040805160e560020a62461bcd02815260206004820152601460248201527f466f72756d20616c726561647920657869737473000000000000000000000000604482015290519081900360640190fd5b6112f56151fd565b8181526020808201879052604080830187905260608084018b90528151600380825260808201909352928301908038833950505060808201908152600083815260046020818152604092839020855181558186015160018201559285015160028401556060850151600384015592518051859461137693850192019061522d565b50905050611382615278565b600180825260208083018281526040808501848152606086019485526000888152600485528281208f825260050185528290208651815494519251965160ff199095169015151761ff001916610100921515929092029190911762ff0000191662010000951515959095029490941763ff0000001916630100000092151592909202919091179092558151858152429181019190915281517f2e9f6f18307018ff28cac494a3847fd59240fe720ad80388b1d83aa45d69d1fd929181900390910190a1604080518a8152602081018b90524281830152905184917f5cba9662eed546e66ddde482b9e9af98ed0be4bdf2e0ed37edcb819fca2e7c6f919081900360600190a2505050505050505050565b6000878152600360205260409020600101548790600160a060020a0316158015906114d65750600081815260036020526040902060010154600160a060020a031633145b151561151a576040805160e560020a62461bcd0281526020600482015260116024820152600080516020615320833981519152604482015290519081900360640190fd5b6000868152600360205260409020600101548690600160a060020a0316151561157b576040805160e560020a62461bcd0281526020600482015260136024820152600080516020615340833981519152604482015290519081900360640190fd5b600088815260046020526040902060030154889015156115d3576040805160e560020a62461bcd02815260206004820152601460248201526000805160206153e0833981519152604482015290519081900360640190fd5b60008881526002602052604090205488908a9060ff161580156116135750600081815260046020908152604080832085845260060190915290205460ff16155b1515611657576040805160e560020a62461bcd02815260206004820152600b60248201526000805160206153c0833981519152604482015290519081900360640190fd5b60008b81526004602090815260408083208f845260050190915290205462010000900460ff1615156116c1576040805160e560020a62461bcd02815260206004820152601d60248201526000805160206153a0833981519152604482015290519081900360640190fd5b6116c9615278565b8981600001901515908115158152505088816020019015159081151581525050878160400190151590811515815250508681606001901515908115158152505080600460008e815260200190815260200160002060050160008f815260200190815260200160002060008201518160000160006101000a81548160ff02191690831515021790555060208201518160000160016101000a81548160ff02191690831515021790555060408201518160000160026101000a81548160ff02191690831515021790555060608201518160000160036101000a81548160ff0219169083151502179055509050508b7f5cba9662eed546e66ddde482b9e9af98ed0be4bdf2e0ed37edcb819fca2e7c6f8e8d4260405180848152602001838152602001828152602001935050505060405180910390a250505050505050505050505050565b6000828152600360205260409020600101548290600160a060020a03161580159061184f5750600081815260036020526040902060010154600160a060020a031633145b1515611893576040805160e560020a62461bcd0281526020600482015260116024820152600080516020615320833981519152604482015290519081900360640190fd5b600084815260046020526040902060030154849015156118eb576040805160e560020a62461bcd02815260206004820152601460248201526000805160206153e0833981519152604482015290519081900360640190fd5b6000848152600260205260409020548490869060ff1615801561192b5750600081815260046020908152604080832085845260060190915290205460ff16155b151561196f576040805160e560020a62461bcd02815260206004820152600b60248201526000805160206153c0833981519152604482015290519081900360640190fd5b60008781526004602090815260408083208884526007019091529020600101548790869015156119d7576040805160e560020a62461bcd0281526020600482015260136024820152600080516020615380833981519152604482015290519081900360640190fd5b60095434811115611a20576040805160e560020a62461bcd0281526020600482015260156024820152600080516020615360833981519152604482015290519081900360640190fd5b50505060009687525050600460209081526040808720948752600790940190525050909120600201805461ffff8082166001011661ffff1990911617905550565b6000838152600360205260409020600101548390600160a060020a031615801590611aa55750600081815260036020526040902060010154600160a060020a031633145b1515611ae9576040805160e560020a62461bcd0281526020600482015260116024820152600080516020615320833981519152604482015290519081900360640190fd5b60008381526004602052604090206003015483901515611b41576040805160e560020a62461bcd02815260206004820152601460248201526000805160206153e0833981519152604482015290519081900360640190fd5b6000848152600460209081526040808320888452600501909152902054610100900460ff161515611baa576040805160e560020a62461bcd02815260206004820152601d60248201526000805160206153a0833981519152604482015290519081900360640190fd5b6000848152600460209081526040918290206001015482519081529081018590524281830152905185917f81624cca3ded948b47e13687d46f5c61fbefb36a3ea3fb28f478a7e4b0dba8ef919081900360600190a250506000918252600460205260409091206001015550565b6000838152600360205260409020600101548390600160a060020a031615801590611c5b5750600081815260036020526040902060010154600160a060020a031633145b1515611c9f576040805160e560020a62461bcd0281526020600482015260116024820152600080516020615320833981519152604482015290519081900360640190fd5b6000838152600360205260409020600101548390600160a060020a03161515611d00576040805160e560020a62461bcd0281526020600482015260136024820152600080516020615340833981519152604482015290519081900360640190fd5b60008381526004602052604090206003015483901515611d58576040805160e560020a62461bcd02815260206004820152601460248201526000805160206153e0833981519152604482015290519081900360640190fd5b600084815260046020908152604080832088845260060190915290205460ff161515611dce576040805160e560020a62461bcd02815260206004820152601660248201527f5461726765742075736572206e6f742062616e6e656400000000000000000000604482015290519081900360640190fd5b600084815260046020908152604080832089845260050190915290205460ff161515611e32576040805160e560020a62461bcd02815260206004820152601d60248201526000805160206153a0833981519152604482015290519081900360640190fd5b50505060009081526004602090815260408083209383526006909301905220805460ff1916905550565b6000888152600360205260409020600101548890600160a060020a031615801590611ea05750600081815260036020526040902060010154600160a060020a031633145b1515611ee4576040805160e560020a62461bcd0281526020600482015260116024820152600080516020615320833981519152604482015290519081900360640190fd5b6000888152600360205260409020600101548890600160a060020a03161515611f45576040805160e560020a62461bcd0281526020600482015260136024820152600080516020615340833981519152604482015290519081900360640190fd5b60008a81526001602052604090205462010000900460ff161515611fa1576040805160e560020a62461bcd02815260206004820152601d60248201526000805160206153a0833981519152604482015290519081900360640190fd5b611fa961529f565b8881600001901515908115158152505087816020019015159081151581525050868160400190151590811515815250508481606001901515908115158152505085816080019015159081151581525050838160a001901515908115158152505080600160008c815260200190815260200160002060008201518160000160006101000a81548160ff02191690831515021790555060208201518160000160016101000a81548160ff02191690831515021790555060408201518160000160026101000a81548160ff02191690831515021790555060608201518160000160036101000a81548160ff02191690831515021790555060808201518160000160046101000a81548160ff02191690831515021790555060a08201518160000160056101000a81548160ff0219169083151502179055509050507f99299d5877434313fdc02e216599e41e8000c32a7978a464323235be56df72c98b8b4260405180848152602001838152602001828152602001935050505060405180910390a15050505050505050505050565b6000848152600360205260409020600101548490600160a060020a0316158015906121785750600081815260036020526040902060010154600160a060020a031633145b15156121bc576040805160e560020a62461bcd0281526020600482015260116024820152600080516020615320833981519152604482015290519081900360640190fd5b60008481526004602052604090206003015484901515612214576040805160e560020a62461bcd02815260206004820152601460248201526000805160206153e0833981519152604482015290519081900360640190fd5b6000868152600260205260409020548690869060ff161580156122545750600081815260046020908152604080832085845260060190915290205460ff16155b1515612298576040805160e560020a62461bcd02815260206004820152600b60248201526000805160206153c0833981519152604482015290519081900360640190fd5b6000878152600460209081526040808320898452600701909152902060010154879087901515612300576040805160e560020a62461bcd0281526020600482015260136024820152600080516020615380833981519152604482015290519081900360640190fd5b60008981526004602090815260408083208d84526005019091529020546301000000900460ff16151561236b576040805160e560020a62461bcd02815260206004820152601d60248201526000805160206153a0833981519152604482015290519081900360640190fd5b60008981526004602081905260409091200180548991908990811061238c57fe5b9060005260206000200181905550887f2eae397577557e9c8fb5c51d5a129337b33f52fd983de42459026aaced8be1638942604051808381526020018281526020019250505060405180910390a250505050505050505050565b60095481565b60055434811115612435576040805160e560020a62461bcd0281526020600482015260156024820152600080516020615360833981519152604482015290519081900360640190fd5b61243e82613663565b1515612494576040805160e560020a62461bcd02815260206004820152601060248201527f496e76616c696420757365726e616d6500000000000000000000000000000000604482015290519081900360640190fd5b600061249f83614294565b600081815260036020526040902060010154909150600160a060020a031615612512576040805160e560020a62461bcd02815260206004820152601660248201527f557365726e616d6520616c726561647920657869737400000000000000000000604482015290519081900360640190fd5b61251a6152d4565b8181523360208083019182526000848152600382526040908190208451815592516001909301805473ffffffffffffffffffffffffffffffffffffffff1916600160a060020a03909416939093179092558151848152429181019190915281517f28de7412d9ad2b3adb21457836b93e10b297cb3b7c60230c93a642c1ffd8aed9929181900390910190a150505050565b6000848152600360205260409020600101548490600160a060020a0316158015906125ef5750600081815260036020526040902060010154600160a060020a031633145b1515612633576040805160e560020a62461bcd0281526020600482015260116024820152600080516020615320833981519152604482015290519081900360640190fd5b6000848152600460205260409020600301548490151561268b576040805160e560020a62461bcd02815260206004820152601460248201526000805160206153e0833981519152604482015290519081900360640190fd5b60008581526004602090815260408083208784526007019091529020600101548590859015156126f3576040805160e560020a62461bcd0281526020600482015260136024820152600080516020615380833981519152604482015290519081900360640190fd5b60008881526002602052604090205460ff1615612748576040805160e560020a62461bcd02815260206004820152600b60248201526000805160206153c0833981519152604482015290519081900360640190fd5b60408051878152602081018790524281830152905188917f79f122b5c5556cf63f2730f82cda6bc31bff149d836007019c5ea0c985d6379a919081900360600190a25050505050505050565b6000838152600360205260409020600101548390600160a060020a0316158015906127d85750600081815260036020526040902060010154600160a060020a031633145b151561281c576040805160e560020a62461bcd0281526020600482015260116024820152600080516020615320833981519152604482015290519081900360640190fd5b60008381526004602052604090206003015483901515612874576040805160e560020a62461bcd02815260206004820152601460248201526000805160206153e0833981519152604482015290519081900360640190fd5b60008481526004602090815260408083208684526007019091529020600101548490849015156128dc576040805160e560020a62461bcd0281526020600482015260136024820152600080516020615380833981519152604482015290519081900360640190fd5b600087815260016020526040902054640100000000900460ff1680612924575060008681526004602090815260408083208a84526005019091529020546301000000900460ff165b8061294d5750600086815260046020908152604080832088845260070190915290206001015487145b1515612991576040805160e560020a62461bcd02815260206004820152601d60248201526000805160206153a0833981519152604482015290519081900360640190fd5b6000868152600460209081526040808320888452600701825280832083815560018101939093556002909201805463ffffffff1916905581518781524291810191909152815188927f5b1e0c19e450bde0d09b85f28c422e47cd0223b6cda56013c923c2b6b5fdd545928290030190a250505050505050565b60009182526004602090815260408084209284526005909201905290205460ff80821692610100830482169262010000810483169263010000009091041690565b6000838152600360205260409020600101548390600160a060020a031615801590612a8f5750600081815260036020526040902060010154600160a060020a031633145b1515612ad3576040805160e560020a62461bcd0281526020600482015260116024820152600080516020615320833981519152604482015290519081900360640190fd5b60008381526004602052604090206003015483901515612b2b576040805160e560020a62461bcd02815260206004820152601460248201526000805160206153e0833981519152604482015290519081900360640190fd5b6000858152600260205260409020548590859060ff16158015612b6b5750600081815260046020908152604080832085845260060190915290205460ff16155b1515612baf576040805160e560020a62461bcd02815260206004820152600b60248201526000805160206153c0833981519152604482015290519081900360640190fd5b60075434811115612bf8576040805160e560020a62461bcd0281526020600482015260156024820152600080516020615360833981519152604482015290519081900360640190fd5b6000612c02612ce8565b9050612c0c615278565b87815260208082018b815260006040808501828152606086018381528e84526004865282842088855260070186529282902086518155935160018501555160029093018054925161ffff1990931661ffff9485161763ffff00001916620100009490931693909302919091179091558051428152905184928d928d927fa2dcb92fbe4961f62eea33c6b8ae6df9e6fe93e5716c6eb505545621397cecd3929181900390910190a450505050505050505050565b600091825260046020908152604080842092845260089092019052902080546001909101549091565b600a80546001019081905560408051602080820193909352428183015260001943014060608083019190915282518083039091018152608090910190915280519101205b90565b600054600160a060020a03163314612d4657600080fd5b60008054604051600160a060020a03909116917ff8df31144d9c2f0f6b59d69b8b98abd5459d07f2742c4df920b25aae33c6482091a26000805473ffffffffffffffffffffffffffffffffffffffff19169055565b6000828152600360205260409020600101548290600160a060020a031615801590612ddf5750600081815260036020526040902060010154600160a060020a031633145b1515612e23576040805160e560020a62461bcd0281526020600482015260116024820152600080516020615320833981519152604482015290519081900360640190fd5b6000828152600360205260409020600101548290600160a060020a03161515612e84576040805160e560020a62461bcd0281526020600482015260136024820152600080516020615340833981519152604482015290519081900360640190fd5b60008481526001602052604090205460ff161515612eda576040805160e560020a62461bcd02815260206004820152601d60248201526000805160206153a0833981519152604482015290519081900360640190fd5b60008381526002602052604090205460ff1615612f41576040805160e560020a62461bcd02815260206004820152601660248201527f5573657220697320616c72656164792062616e6e656400000000000000000000604482015290519081900360640190fd5b600083815260026020908152604091829020805460ff191660011790558151868152429181019190915281517fec3c8103aeb96bd4bcf5bf3ae492ceed1d7b1e666e5b87d1b337c2b9059d4ae5929181900390910190a150505050565b6000838152600360205260409020600101548390600160a060020a031615801590612fe25750600081815260036020526040902060010154600160a060020a031633145b1515613026576040805160e560020a62461bcd0281526020600482015260116024820152600080516020615320833981519152604482015290519081900360640190fd5b6000838152600460205260409020600301548390151561307e576040805160e560020a62461bcd02815260206004820152601460248201526000805160206153e0833981519152604482015290519081900360640190fd5b60008581526002602052604090205460ff16156130d3576040805160e560020a62461bcd02815260206004820152600b60248201526000805160206153c0833981519152604482015290519081900360640190fd5b6040805185815260208101859052428183015290517f8bd8e8768a2eaccfffea773a3eee3ae318a0a5c78eccd515d3bedc22f6843fb99181900360600190a15050505050565b6000828152600360205260409020600101548290600160a060020a03161580159061315d5750600081815260036020526040902060010154600160a060020a031633145b15156131a1576040805160e560020a62461bcd0281526020600482015260116024820152600080516020615320833981519152604482015290519081900360640190fd5b600083815260016020526040902054610100900460ff1615156131fc576040805160e560020a62461bcd02815260206004820152601d60248201526000805160206153a0833981519152604482015290519081900360640190fd5b5060055550565b6000848152600360205260409020600101548490600160a060020a0316158015906132475750600081815260036020526040902060010154600160a060020a031633145b151561328b576040805160e560020a62461bcd0281526020600482015260116024820152600080516020615320833981519152604482015290519081900360640190fd5b600084815260046020526040902060030154849015156132e3576040805160e560020a62461bcd02815260206004820152601460248201526000805160206153e0833981519152604482015290519081900360640190fd5b600085815260046020908152604080832086845260080190915290206001015485908490151561335d576040805160e560020a62461bcd02815260206004820152601660248201527f436f6d6d656e7420646f6573206e6f7420657869737400000000000000000000604482015290519081900360640190fd5b6000888152600160205260409020546301000000900460ff16806133a4575060008781526004602090815260408083208b84526005019091529020546301000000900460ff165b806133cd5750600087815260046020908152604080832088845260080190915290206001015488145b1515613411576040805160e560020a62461bcd02815260206004820152601d60248201526000805160206153a0833981519152604482015290519081900360640190fd5b600087815260046020908152604080832088845260080182528083208381556001019290925581518881529081018790524281830152905188917ff8b3f285ed70580b2f023e78843e5cd8388978acc3d547bf9c2e1ad3805b7899919081900360600190a25050505050505050565b600054600160a060020a031681565b6000828152600360205260409020600101548290600160a060020a0316158015906134d35750600081815260036020526040902060010154600160a060020a031633145b1515613517576040805160e560020a62461bcd0281526020600482015260116024820152600080516020615320833981519152604482015290519081900360640190fd5b600083815260016020526040902054610100900460ff161515613572576040805160e560020a62461bcd02815260206004820152601d60248201526000805160206153a0833981519152604482015290519081900360640190fd5b5060075550565b6000828152600360205260409020600101548290600160a060020a0316158015906135bd5750600081815260036020526040902060010154600160a060020a031633145b1515613601576040805160e560020a62461bcd0281526020600482015260116024820152600080516020615320833981519152604482015290519081900360640190fd5b600083815260016020526040902054610100900460ff16151561365c576040805160e560020a62461bcd02815260206004820152601d60248201526000805160206153a0833981519152604482015290519081900360640190fd5b5060085550565b6000606082905060158151118061367b575060038151105b1561368a576000915050613869565b60005b815181101561386257600082828151811015156136a657fe5b01602001517f0100000000000000000000000000000000000000000000000000000000000000908190040290507f3000000000000000000000000000000000000000000000000000000000000000600160f860020a031982161080159061373757507f3900000000000000000000000000000000000000000000000000000000000000600160f860020a0319821611155b1580156137a557507f4100000000000000000000000000000000000000000000000000000000000000600160f860020a03198216108015906137a357507f5a00000000000000000000000000000000000000000000000000000000000000600160f860020a0319821611155b155b801561381257507f6100000000000000000000000000000000000000000000000000000000000000600160f860020a031982161080159061381057507f7a00000000000000000000000000000000000000000000000000000000000000600160f860020a0319821611155b155b801561384857507f5f00000000000000000000000000000000000000000000000000000000000000600160f860020a0319821614155b156138595760009350505050613869565b5060010161368d565b5060019150505b919050565b600091825260046020908152604080842092845260079092019052902080546001820154600290920154909261ffff808316926201000090041690565b6000838152600360205260409020600101548390600160a060020a0316158015906138ef5750600081815260036020526040902060010154600160a060020a031633145b1515613933576040805160e560020a62461bcd0281526020600482015260116024820152600080516020615320833981519152604482015290519081900360640190fd5b6000838152600360205260409020600101548390600160a060020a03161515613994576040805160e560020a62461bcd0281526020600482015260136024820152600080516020615340833981519152604482015290519081900360640190fd5b60008581526002602052604090205460ff16156139e9576040805160e560020a62461bcd02815260206004820152600b60248201526000805160206153c0833981519152604482015290519081900360640190fd5b6040805186815260208101859052428183015290517f5d0f93946368bae6c69a5681092cb74f4ea5ffbeab5b29b258b225918668dad19181900360600190a15050505050565b6000858152600360205260409020600101548590600160a060020a031615801590613a735750600081815260036020526040902060010154600160a060020a031633145b1515613ab7576040805160e560020a62461bcd0281526020600482015260116024820152600080516020615320833981519152604482015290519081900360640190fd5b60008581526004602052604090206003015485901515613b0f576040805160e560020a62461bcd02815260206004820152601460248201526000805160206153e0833981519152604482015290519081900360640190fd5b6000878152600260205260409020548790879060ff16158015613b4f5750600081815260046020908152604080832085845260060190915290205460ff16155b1515613b93576040805160e560020a62461bcd02815260206004820152600b60248201526000805160206153c0833981519152604482015290519081900360640190fd5b60008881526004602090815260408083208a8452600701909152902060010154889088901515613bfb576040805160e560020a62461bcd0281526020600482015260136024820152600080516020615380833981519152604482015290519081900360640190fd5b60085434811115613c44576040805160e560020a62461bcd0281526020600482015260156024820152600080516020615360833981519152604482015290519081900360640190fd5b60008b81526004602090815260408083208b8452600701909152902060010154151580613c8f575060008b81526004602090815260408083208b845260080190915290206001015415155b1515613ce5576040805160e560020a62461bcd02815260206004820152601560248201527f54617267657420646f6573206e6f742065786973740000000000000000000000604482015290519081900360640190fd5b6000613cef612ce8565b9050613cf96152d4565b8a8160000181815250508d81602001818152505080600460008f8152602001908152602001600020600801600084815260200190815260200160002060008201518160000155602082015181600101559050506001600460008f815260200190815260200160002060070160008e815260200190815260200160002060020160028282829054906101000a900461ffff160192506101000a81548161ffff021916908361ffff160217905550898e8d7f969c535080e3d7f7b755aef19d61789205b5410083c7ecdb8897710e870c36b98542604051808381526020018281526020019250505060405180910390a45050505050505050505050505050565b6000838152600360205260409020600101548390600160a060020a031615801590613e3b5750600081815260036020526040902060010154600160a060020a031633145b1515613e7f576040805160e560020a62461bcd0281526020600482015260116024820152600080516020615320833981519152604482015290519081900360640190fd5b60008381526004602052604090206003015483901515613ed7576040805160e560020a62461bcd02815260206004820152601460248201526000805160206153e0833981519152604482015290519081900360640190fd5b60008481526004602090815260408083208884526005019091529020546301000000900460ff161515613f42576040805160e560020a62461bcd02815260206004820152601d60248201526000805160206153a0833981519152604482015290519081900360640190fd5b600084815260046020819052604090912001805485917f6a3fbe14d7d7ca0c7ce0f4c9bcb939ecab5612c4ebfdfec960575d43ddc37b729186908110613f8457fe5b906000526020600020015442604051808381526020018281526020019250505060405180910390a2600084815260046020819052604090912001805484908110613fca57fe5b60009182526020822001555050505050565b600a5481565b6000828152600360205260409020600101548290600160a060020a0316158015906140265750600081815260036020526040902060010154600160a060020a031633145b151561406a576040805160e560020a62461bcd0281526020600482015260116024820152600080516020615320833981519152604482015290519081900360640190fd5b6000828152600360205260409020600101548290600160a060020a031615156140cb576040805160e560020a62461bcd0281526020600482015260136024820152600080516020615340833981519152604482015290519081900360640190fd5b60008481526001602052604090205462010000900460ff161515614127576040805160e560020a62461bcd02815260206004820152601d60248201526000805160206153a0833981519152604482015290519081900360640190fd5b600083815260016020908152604091829020805465ffffffffffff191690558151868152908101859052428183015290517f2f82ac5f9bd6c47effa0827293e563d35b833f42c582bc9e61a37e1210c72c839181900360600190a150505050565b6000828152600360205260409020600101548290600160a060020a0316158015906141cc5750600081815260036020526040902060010154600160a060020a031633145b1515614210576040805160e560020a62461bcd0281526020600482015260116024820152600080516020615320833981519152604482015290519081900360640190fd5b600083815260016020526040902054610100900460ff16151561426b576040805160e560020a62461bcd02815260206004820152601d60248201526000805160206153a0833981519152604482015290519081900360640190fd5b5060095550565b60036020526000908152604090208054600190910154600160a060020a031682565b8051600090829015156142ab575060009050613869565b50506020015190565b60065481565b60016020526000908152604090205460ff8082169161010081048216916201000082048116916301000000810482169164010000000082048116916501000000000090041686565b60008181526004602081905260408220018054829182918290811061432357fe5b9060005260206000200154925060046000858152602001908152602001600020600401600181548110151561435457fe5b9060005260206000200154915060046000858152602001908152602001600020600401600281548110151561438557fe5b906000526020600020015490509193909250565b6000838152600360205260409020600101548390600160a060020a0316158015906143dd5750600081815260036020526040902060010154600160a060020a031633145b1515614421576040805160e560020a62461bcd0281526020600482015260116024820152600080516020615320833981519152604482015290519081900360640190fd5b6000838152600360205260409020600101548390600160a060020a03161515614482576040805160e560020a62461bcd0281526020600482015260136024820152600080516020615340833981519152604482015290519081900360640190fd5b600083815260046020526040902060030154839015156144da576040805160e560020a62461bcd02815260206004820152601460248201526000805160206153e0833981519152604482015290519081900360640190fd5b600084815260046020908152604080832089845260050190915290205462010000900460ff161515614544576040805160e560020a62461bcd02815260206004820152601d60248201526000805160206153a0833981519152604482015290519081900360640190fd5b6000848152600460209081526040808320888452600501825291829020805463ffffffff1916905581518881529081018790524281830152905185917f8ddbbe5fb96ae4690366fc2b2f5506f9c35df9ab36ca96e3bf0d5b281cc09fde919081900360600190a2505050505050565b60075481565b60026020526000908152604090205460ff1681565b6000828152600360205260409020600101548290600160a060020a0316158015906146125750600081815260036020526040902060010154600160a060020a031633145b1515614656576040805160e560020a62461bcd0281526020600482015260116024820152600080516020615320833981519152604482015290519081900360640190fd5b600083815260016020526040902054610100900460ff1615156146b1576040805160e560020a62461bcd02815260206004820152601d60248201526000805160206153a0833981519152604482015290519081900360640190fd5b5060065550565b6000858152600360205260409020600101548590600160a060020a0316158015906146fc5750600081815260036020526040902060010154600160a060020a031633145b1515614740576040805160e560020a62461bcd0281526020600482015260116024820152600080516020615320833981519152604482015290519081900360640190fd5b60008581526004602052604090206003015485901515614798576040805160e560020a62461bcd02815260206004820152601460248201526000805160206153e0833981519152604482015290519081900360640190fd5b6000868152600460209081526040808320878452600801909152902060010154869085901515614812576040805160e560020a62461bcd02815260206004820152601660248201527f436f6d6d656e7420646f6573206e6f7420657869737400000000000000000000604482015290519081900360640190fd5b60008981526002602052604090205460ff1615614867576040805160e560020a62461bcd02815260206004820152600b60248201526000805160206153c0833981519152604482015290519081900360640190fd5b6040805188815260208101889052808201879052426060820152905189917fd6865b779ae067ede961e92548f2ed42b258ab15afe860947dc6301779a2185d919081900360800190a2505050505050505050565b6000828152600360205260409020600101548290600160a060020a0316158015906148ff5750600081815260036020526040902060010154600160a060020a031633145b1515614943576040805160e560020a62461bcd0281526020600482015260116024820152600080516020615320833981519152604482015290519081900360640190fd5b6000828152600360205260409020600101548290600160a060020a031615156149a4576040805160e560020a62461bcd0281526020600482015260136024820152600080516020615340833981519152604482015290519081900360640190fd5b60008481526001602052604090205460ff1615156149fa576040805160e560020a62461bcd02815260206004820152601d60248201526000805160206153a0833981519152604482015290519081900360640190fd5b60008381526002602052604090205460ff161515614a62576040805160e560020a62461bcd02815260206004820152601260248201527f55736572206973206e6f742062616e6e65640000000000000000000000000000604482015290519081900360640190fd5b50506000908152600260205260409020805460ff1916905550565b60055481565b600054600160a060020a03163314614a9a57600080fd5b614aa381615180565b50565b6000838152600360205260409020600101548390600160a060020a031615801590614aea5750600081815260036020526040902060010154600160a060020a031633145b1515614b2e576040805160e560020a62461bcd0281526020600482015260116024820152600080516020615320833981519152604482015290519081900360640190fd5b6000838152600360205260409020600101548390600160a060020a03161515614b8f576040805160e560020a62461bcd0281526020600482015260136024820152600080516020615340833981519152604482015290519081900360640190fd5b60008381526004602052604090206003015483901515614be7576040805160e560020a62461bcd02815260206004820152601460248201526000805160206153e0833981519152604482015290519081900360640190fd5b600084815260046020908152604080832088845260060190915290205460ff1615614c5c576040805160e560020a62461bcd02815260206004820152601a60248201527f546172676574207573657220616c72656164792062616e6e6564000000000000604482015290519081900360640190fd5b600084815260046020908152604080832089845260050190915290205460ff161515614cc0576040805160e560020a62461bcd02815260206004820152601d60248201526000805160206153a0833981519152604482015290519081900360640190fd5b6000848152600460209081526040808320888452600601825291829020805460ff1916600117905581518881524291810191909152815186927f31f3981fcdd4dd96b8d5069e62263f36c054e1bca9f36bb83b2b5d46e3a5273c928290030190a2505050505050565b60046020526000908152604090208054600182015460028301546003909301549192909184565b6000828152600360205260409020600101548290600160a060020a031615801590614d945750600081815260036020526040902060010154600160a060020a031633145b1515614dd8576040805160e560020a62461bcd0281526020600482015260116024820152600080516020615320833981519152604482015290519081900360640190fd5b60008281526004602052604090206003015482901515614e30576040805160e560020a62461bcd02815260206004820152601460248201526000805160206153e0833981519152604482015290519081900360640190fd5b60008481526001602052604090205465010000000000900460ff1680614e66575060008381526004602052604090206003015484145b1515614eaa576040805160e560020a62461bcd02815260206004820152601d60248201526000805160206153a0833981519152604482015290519081900360640190fd5b600083815260046020819052604082208281556001810183905560028101839055600381018390559190614ee0908301826152eb565b50506040805184815242602082015281517ff74173432511c2e14205b9af2404f7f42e76671d8066d23748aca42cec8c2ab8929181900390910190a150505050565b60085481565b6000828152600360205260409020600101548290600160a060020a031615801590614f6c5750600081815260036020526040902060010154600160a060020a031633145b1515614fb0576040805160e560020a62461bcd0281526020600482015260116024820152600080516020615320833981519152604482015290519081900360640190fd5b60008481526004602052604090206003015484901515615008576040805160e560020a62461bcd02815260206004820152601460248201526000805160206153e0833981519152604482015290519081900360640190fd5b6000848152600260205260409020548490869060ff161580156150485750600081815260046020908152604080832085845260060190915290205460ff16155b151561508c576040805160e560020a62461bcd02815260206004820152600b60248201526000805160206153c0833981519152604482015290519081900360640190fd5b60008781526004602090815260408083208884526007019091529020600101548790869015156150f4576040805160e560020a62461bcd0281526020600482015260136024820152600080516020615380833981519152604482015290519081900360640190fd5b6009543481111561513d576040805160e560020a62461bcd0281526020600482015260156024820152600080516020615360833981519152604482015290519081900360640190fd5b50505060009687525050600460209081526040808720948752600790940190525050909120600201805461ffff19811661ffff9182166000190190911617905550565b600160a060020a038116151561519557600080fd5b60008054604051600160a060020a03808516939216917f8be0079c531659141344cd1fd0a4f28419497f9722a3daafe3b4186f6b6457e091a36000805473ffffffffffffffffffffffffffffffffffffffff1916600160a060020a0392909216919091179055565b6040805160a081018252600080825260208201819052918101829052606080820192909252608081019190915290565b828054828255906000526020600020908101928215615268579160200282015b8281111561526857825182559160200191906001019061524d565b50615274929150615305565b5090565b60408051608081018252600080825260208201819052918101829052606081019190915290565b6040805160c081018252600080825260208201819052918101829052606081018290526080810182905260a081019190915290565b604080518082019091526000808252602082015290565b5080546000825590600052602060002090810190614aa391905b612d2c91905b80821115615274576000815560010161530b56fe55736572206e6f742076657269666965640000000000000000000000000000005573657220646f6573206e6f7420657869737400000000000000000000000000496e73756666696369656e74204574682073656e740000000000000000000000506f737420646f6573206e6f74206578697374000000000000000000000000005573657220646f6573206e6f742068617665207065726d697373696f6e000000557365722062616e6e6564000000000000000000000000000000000000000000466f72756d20646f6573206e6f74206578697374000000000000000000000000a165627a7a72305820b693216baeb560f258249dd8ab1b8d38710e0d621ed21131c0b55d88073a743f0029",
  "source": "pragma solidity ^0.5.2;\n\nimport \"./Ownable.sol\";\n\ncontract Tartarus is Ownable {\n    event AdminCreated (bytes32 user, bytes32 targetUser, uint time);\n    event AdminRemoved (bytes32 user, bytes32 targetUser, uint time);\n    event ModeratorCreated (bytes32 indexed forum, bytes32 user, bytes32 targetUser, uint time);\n    event ModeratorRemoved (bytes32 indexed forum, bytes32 user, bytes32 targetUser, uint time);\n    event UserCreated (bytes32 user, uint time);\n    event UserBanned (bytes32 user, uint time);\n    event UserForumBanned (bytes32 indexed forum, bytes32 user, uint time);\n    event ForumCreated (bytes32 forum, uint time);  \n    event ForumDeleted (bytes32 forum, uint time);\n    event ForumRulesEdited (bytes32 indexed forum, bytes32 oldRules, bytes32 newRules, uint time);\n    event ForumDescriptionEdited (bytes32 indexed forum, bytes32 oldDescription, bytes32 newDescription, uint time);\n    event PostCreated (bytes32 indexed forum, bytes32 indexed creator, bytes32 indexed postId, uint time);\n    event PostDeleted (bytes32 indexed forum, bytes32 postId, uint time);\n    event PostPinned (bytes32 indexed forum, bytes32 postId, uint time);\n    event PostUnpinned (bytes32 indexed forum, bytes32 postId, uint time);\n    event CommentCreated (bytes32 indexed postId, bytes32 indexed creator, bytes32 indexed targetId, bytes32 commentId, uint time);\n    event CommentDeleted (bytes32 indexed forumId, bytes32 postId, bytes32 commentId, uint time);\n    event ReportUser (bytes32 user, bytes32 reason, uint time);\n    event ReportForum (bytes32 forum, bytes32 reason, uint time);\n    event ReportPost (bytes32 indexed _forum, bytes32 _postId, bytes32 reason, uint time);\n    event ReportComment (bytes32 indexed _forum, bytes32 _postId, bytes32 _commentId, bytes32 reason, uint time);\n\n    mapping (bytes32 => Admin) public admins;\n    mapping (bytes32 => bool) public banned;\n    mapping (bytes32 => User) public users;\n    mapping (bytes32 => Forum) public forums;\n    uint public createUserCost = 0.03 ether;\n    uint public createForumCost = 0.03 ether;\n    uint public createPostCost = 0.0003 ether;\n    uint public createCommentCost = 0.0001 ether;\n    uint public voteCost = 0.0001 ether;\n    uint public nonce = 0;\n    \n    struct Admin {\n        bool ban;\n        bool setCost;\n        bool editAdmin;\n        bool deleteComment;\n        bool deletePost;\n        bool deleteForum;\n    }\n\n    struct Moderator {\n        bool ban;\n        bool editInfo;\n        bool editModerator;\n        bool editPost;\n    }\n\n    struct User {\n        bytes32 username;\n        address creator;\n    }\n    \n    struct Forum {\n        bytes32 name;\n        bytes32 rules;\n        bytes32 description;\n        bytes32 creator;\n        bytes32[] pinnedPosts;\n        mapping(bytes32 => Moderator) moderators;\n        mapping(bytes32 =>  bool) banned;\n        mapping(bytes32 => Post) posts;\n        mapping(bytes32 => Comment) comments;\n    }\n\n    struct Post {\n        bytes32 post;\n        bytes32 creator;\n        uint16 votes;\n        uint16 comments;\n    }\n\n    struct Comment {\n        bytes32 comment;\n        bytes32 creator;\n    }\n\n    constructor(string memory _username) public {\n        owner = msg.sender;\n        require(\n            validateName(_username), \n            \"Invalid username\"\n        );\n        bytes32 usernameBytes = stringToBytes32(_username);\n        User memory newUser;\n        newUser.username = usernameBytes;\n        newUser.creator = msg.sender;\n        users[usernameBytes] = newUser;\n        \n        Admin memory newAdmin;\n        newAdmin.ban = true;\n        newAdmin.setCost = true;\n        newAdmin.editAdmin = true;\n        newAdmin.deleteComment = true;\n        newAdmin.deletePost = true;\n        newAdmin.deleteForum = true;\n        admins[usernameBytes] = newAdmin;\n        \n        emit UserCreated(usernameBytes, now);\n        emit AdminCreated(usernameBytes, usernameBytes, now);\n    }\n    \n    modifier requiresFee(uint fee) {\n        require(\n            msg.value >= fee, \n            \"Insufficient Eth sent\"\n        );\n        _;\n    }\n\n    modifier userVerified(bytes32 _user){\n        require(\n            users[_user].creator != address(0) &&\n            users[_user].creator == msg.sender, \n            \"User not verified\"\n        );\n        _;\n    }\n\n    modifier userExists(bytes32 _user){\n        require(\n            users[_user].creator != address(0), \n            \"User does not exist\"\n        );\n        _;\n    }\n\n    modifier userUnbanned(bytes32 _user, bytes32 _forum) {\n        require(\n            !banned[_user] &&\n            !forums[_forum].banned[_user], \n            \"User banned\"\n        );\n        _;\n    }\n\n    modifier forumExists(bytes32 _forum) {\n        require(\n            forums[_forum].creator != 0, \n            \"Forum does not exist\"\n        );\n        _;\n    }\n\n    modifier postExists(bytes32 _forum, bytes32 _postId) {\n        require(\n            forums[_forum].posts[_postId].creator != 0, \n            \"Post does not exist\"\n        );\n        _;\n    }\n\n    modifier commentExists(bytes32 _forum, bytes32 _commentId) {\n        require(\n            forums[_forum].comments[_commentId].creator != 0, \n            \"Comment does not exist\"\n        );\n        _;\n    }\n\n    function validateName(string memory _name) public pure returns (bool){\n        bytes memory b = bytes(_name);\n        if(b.length > 21 || b.length < 3) {\n            return false;\n        }\n        for(uint i; i < b.length; i++){\n            bytes1 char = b[i];\n            if(\n                !(char >= 0x30 && char <= 0x39) && //9-0\n                !(char >= 0x41 && char <= 0x5A) && //A-Z\n                !(char >= 0x61 && char <= 0x7A) && //a-z\n                !(char == 0x5F) //_\n            ) {\n                return false;\n            }\n        }\n        return true;\n    }\n    \n    function stringToBytes32(string memory _source) public pure returns (bytes32 result) {\n        bytes memory tempEmptyStringTest = bytes(_source);\n        if (tempEmptyStringTest.length == 0) {\n            return 0x0;\n        }\n    \n        assembly {\n            result := mload(add(_source, 32))\n        }\n    }\n    \n    function generateId() public returns(bytes32) {\n        nonce += 1;\n        return bytes32(keccak256(abi.encodePacked(nonce, now, blockhash(block.number - 1))));\n    }\n    \n    function createUser(string memory _username) public payable requiresFee(createUserCost) {\n        require(\n            validateName(_username), \n            \"Invalid username\"\n        );\n        bytes32 usernameBytes = stringToBytes32(_username);\n        require(\n            users[usernameBytes].creator == address(0), \n            \"Username already exist\"\n        );\n        User memory newUser;\n        newUser.username = usernameBytes;\n        newUser.creator = msg.sender;\n        users[usernameBytes] = newUser;\n        emit UserCreated(usernameBytes, now);\n    }\n\n    function createForum(bytes32 _user, string memory _forum, bytes32 _rules, bytes32 _description) \n    public payable userVerified(_user) requiresFee(createForumCost) {\n        require(\n            !banned[_user],\n            \"User banned\"\n        );\n        require(\n            validateName(_forum), \n            \"Invalid forum name\"\n        );\n        bytes32 forumBytes = stringToBytes32(_forum);\n        require(\n            forums[forumBytes].creator == 0,\n            \"Forum already exists\"\n        );\n        Forum memory newForum;\n        newForum.name = forumBytes;\n        newForum.rules = _rules;\n        newForum.description = _description;\n        newForum.creator = _user;\n        newForum.pinnedPosts = new bytes32[](3);\n        forums[forumBytes] = newForum;\n        \n        Moderator memory newModerator;\n        newModerator.ban = true;\n        newModerator.editInfo = true;\n        newModerator.editModerator = true;\n        newModerator.editPost = true;\n        forums[forumBytes].moderators[_user] = newModerator;\n        \n        emit ForumCreated(forumBytes, now);\n        emit ModeratorCreated(forumBytes, _user, _user, now);\n    }   \n\n    function deleteForum(bytes32 _user, bytes32 _forum) \n    public userVerified(_user) forumExists(_forum){\n        require(\n            admins[_user].deleteForum ||\n            forums[_forum].creator == _user,\n            \"User does not have permission\"\n        );\n        delete forums[_forum];\n        emit ForumDeleted(_forum, now);\n    }   \n    \n    function createPost(bytes32 _user, bytes32 _forum, bytes32 _post) \n    public payable userVerified(_user) forumExists(_forum) userUnbanned(_user, _forum) requiresFee(createPostCost) {\n        bytes32 postId = generateId();\n        Post memory newPost;\n        newPost.post = _post;\n        newPost.creator = _user;\n        newPost.votes = 0;\n        newPost.comments = 0;\n        forums[_forum].posts[postId] = newPost;\n        emit PostCreated(_forum, _user, postId, now);\n    }\n\n    function deletePost(bytes32 _user, bytes32 _forum, bytes32 _postId) \n    public userVerified(_user) forumExists(_forum) postExists(_forum, _postId) {\n        require(\n            admins[_user].deletePost ||\n            forums[_forum].moderators[_user].editPost ||\n            forums[_forum].posts[_postId].creator == _user,\n            \"User does not have permission\"\n        );\n        delete forums[_forum].posts[_postId];\n        emit PostDeleted(_forum, _postId, now);\n    }\n    \n    function getPost(bytes32 _forum, bytes32 _postId) public view returns (bytes32 post, bytes32 creator, uint16 votes, uint16 comments) {\n        post = forums[_forum].posts[_postId].post;\n        creator = forums[_forum].posts[_postId].creator;\n        votes = forums[_forum].posts[_postId].votes;\n        comments = forums[_forum].posts[_postId].comments;\n    }\n\n    function pinPost(bytes32 _user, bytes32 _forum, bytes32 _postId, uint _postIndex) \n    public userVerified(_user) forumExists(_forum) userUnbanned(_user, _forum) postExists(_forum, _postId) {\n        require(\n            forums[_forum].moderators[_user].editPost,\n            \"User does not have permission\"\n        );\n        forums[_forum].pinnedPosts[_postIndex] = _postId;\n        emit PostPinned(_forum, _postId, now);\n    }\n\n    function unpinPost(bytes32 _user, bytes32 _forum, uint _postIndex) \n    public userVerified(_user) forumExists(_forum) {\n        require(\n            forums[_forum].moderators[_user].editPost,\n            \"User does not have permission\"\n        );\n        emit PostUnpinned(_forum, forums[_forum].pinnedPosts[_postIndex], now);\n        delete forums[_forum].pinnedPosts[_postIndex];    \n    }\n    \n    function getPinnedPosts(bytes32 _forum) public view returns (bytes32 post1, bytes32 post2, bytes32 post3) {\n        post1 = forums[_forum].pinnedPosts[0];\n        post2 = forums[_forum].pinnedPosts[1];\n        post3 = forums[_forum].pinnedPosts[2];\n    }\n\n    function upvote(bytes32 _forum, bytes32 _user, bytes32 _postId) \n    public payable userVerified(_user) forumExists(_forum) userUnbanned(_user, _forum) postExists(_forum, _postId) requiresFee(voteCost) {\n        forums[_forum].posts[_postId].votes += 1;\n    }\n\n    function downvote(bytes32 _forum, bytes32 _user, bytes32 _postId) \n    public payable userVerified(_user) forumExists(_forum) userUnbanned(_user, _forum) postExists(_forum, _postId) requiresFee(voteCost) {\n        forums[_forum].posts[_postId].votes -= 1;\n    }\n\n    function createComment(bytes32 _user, bytes32 _forum, bytes32 _postId, bytes32 _comment, bytes32 _targetId) \n    public payable userVerified(_user) forumExists(_forum) userUnbanned(_user, _forum) postExists(_forum, _postId) requiresFee(createCommentCost) {\n        require(\n            forums[_forum].posts[_targetId].creator != 0 || \n            forums[_forum].comments[_targetId].creator != 0, \n            \"Target does not exist\"\n        );\n        bytes32 commentId = generateId();\n        Comment memory newComment;\n        newComment.comment = _comment;\n        newComment.creator = _user;\n        forums[_forum].comments[commentId] = newComment;\n        forums[_forum].posts[_postId].comments += 1;\n        emit CommentCreated(_postId, _user, _targetId, commentId, now);\n    }\n\n    function deleteComment(bytes32 _user, bytes32 _forum, bytes32 _postId, bytes32 _commentId) \n    public userVerified(_user) forumExists(_forum) commentExists(_forum, _commentId) {\n        require(\n            admins[_user].deleteComment ||\n            forums[_forum].moderators[_user].editPost ||\n            forums[_forum].comments[_commentId].creator == _user,\n            \"User does not have permission\"\n        );\n        delete forums[_forum].comments[_commentId];\n        emit CommentDeleted(_forum, _postId, _commentId, now);\n    }\n    \n    function getComment(bytes32 _forum, bytes32 _commentId) public view returns (bytes32 comment, bytes32 creator) {\n        comment = forums[_forum].comments[_commentId].comment;\n        creator = forums[_forum].comments[_commentId].creator;\n    }\n\n    function createModerator(\n        bytes32 _user,\n        bytes32 _forum,\n        bytes32 _targetUser, \n        bool _ban, \n        bool _editInfo, \n        bool _editModerators,\n        bool _editPost) \n        public userVerified(_user) userExists(_targetUser) forumExists(_forum) userUnbanned(_targetUser, _forum) {\n        require(\n            forums[_forum].moderators[_user].editModerator,\n            \"User does not have permission\"\n        );\n        Moderator memory newModerator;\n        newModerator.ban = _ban;\n        newModerator.editInfo = _editInfo;\n        newModerator.editModerator = _editModerators;\n        newModerator.editPost = _editPost;\n        forums[_forum].moderators[_user] = newModerator;\n        emit ModeratorCreated(_forum, _user, _targetUser, now);\n    }\n\n    function removeModerator(bytes32 _user, bytes32 _targetUser, bytes32 _forum) \n    public userVerified(_user) userExists(_targetUser) forumExists(_forum) {\n        require(\n            forums[_forum].moderators[_user].editModerator,\n            \"User does not have permission\"\n        );\n        delete forums[_forum].moderators[_targetUser];\n        emit ModeratorRemoved(_forum, _user, _targetUser, now);\n    }\n        \n    function getModerator(bytes32 _forum, bytes32 _user) public view returns (bool ban, bool editInfo, bool editModerator, bool editPost) {\n        ban = forums[_forum].moderators[_user].ban;\n        editInfo = forums[_forum].moderators[_user].editInfo;\n        editModerator = forums[_forum].moderators[_user].editModerator;\n        editPost = forums[_forum].moderators[_user].editPost;\n    }\n\n    function setForumRules(bytes32 _user, bytes32 _forum, bytes32 _rules) \n    public userVerified(_user) forumExists(_forum) {\n        require(\n            forums[_forum].moderators[_user].editInfo,\n            \"User does not have permission\"\n        );\n        emit ForumRulesEdited(_forum, forums[_forum].rules, _rules, now);\n        forums[_forum].rules = _rules;\n    }\n    \n    function setForumDescription(bytes32 _user, bytes32 _forum, bytes32 _description) \n    public userVerified(_user) forumExists(_forum) {\n        require(\n            forums[_forum].moderators[_user].editInfo,\n            \"User does not have permission\"\n        );\n        emit ForumDescriptionEdited(_forum, forums[_forum].description, _description, now);\n        forums[_forum].description = _description;\n    }\n\n    function banUserForum(bytes32 _user, bytes32 _targetUser, bytes32 _forum) \n    public userVerified(_user) userExists(_targetUser) forumExists(_forum) {\n        require(\n            !forums[_forum].banned[_targetUser], \n            \"Target user already banned\"\n        );\n        require(\n            forums[_forum].moderators[_user].ban,\n            \"User does not have permission\"\n        );\n        forums[_forum].banned[_targetUser] = true;\n        emit UserForumBanned(_forum, _user, now);\n    }\n\n    function unbanUserForum(bytes32 _user, bytes32 _targetUser, bytes32 _forum) \n    public userVerified(_user) userExists(_targetUser) forumExists(_forum) {\n        require(\n            forums[_forum].banned[_targetUser], \n            \"Target user not banned\"\n        );\n        require(\n            forums[_forum].moderators[_user].ban,\n            \"User does not have permission\"\n        );\n        forums[_forum].banned[_targetUser] = false;\n    }\n\n    function reportUser(bytes32 _user, bytes32 _targetUser, bytes32 _reason) \n    public userVerified(_user) userExists(_targetUser) {\n        require(\n            !banned[_user], \n            \"User banned\"\n        );\n        emit ReportUser(_user, _reason, now);\n    }\n\n    function reportForum(bytes32 _user, bytes32 _forum, bytes32 _reason) \n    public userVerified(_user) forumExists(_forum) {\n        require(\n            !banned[_user], \n            \"User banned\"\n        );\n        emit ReportForum(_forum, _reason, now);\n    }\n\n    function reportPost(bytes32 _user, bytes32 _forum, bytes32 _postId, bytes32 _reason) \n    public userVerified(_user) forumExists(_forum) postExists(_forum, _postId) {\n        require(\n            !banned[_user], \n            \"User banned\"\n        );\n        emit ReportPost(_forum, _postId, _reason, now);\n    }\n\n    function reportComment(bytes32 _user, bytes32 _forum, bytes32 _postId, bytes32 _commentId, bytes32 _reason) \n    public userVerified(_user) forumExists(_forum) commentExists(_forum, _commentId) {\n        require(\n            !banned[_user], \n            \"User banned\"\n        );\n        emit ReportComment(_forum, _postId, _commentId, _reason, now);\n    }\n\n    function createAdmin(\n        bytes32 _user,\n        bytes32 _targetUser, \n        bool _ban,\n        bool _setCost,\n        bool _editAdmin,\n        bool _deletePost,\n        bool _deleteComment,\n        bool _deleteForum\n        ) \n        public userVerified(_user) userExists(_targetUser) {\n        require(\n            admins[_user].editAdmin, \"User does not have permission\"\n        );\n\n        Admin memory newAdmin;\n        newAdmin.ban = _ban;\n        newAdmin.setCost = _setCost;\n        newAdmin.editAdmin = _editAdmin;\n        newAdmin.deleteComment = _deleteComment;\n        newAdmin.deletePost = _deletePost;\n        newAdmin.deleteForum = _deleteForum;\n        admins[_targetUser] = newAdmin;\n        emit AdminCreated(_user, _targetUser, now);\n    }  \n\n    function removeAdmin(bytes32 _user, bytes32 _targetUser) \n        public userVerified(_user) userExists(_targetUser) {\n        require(\n            admins[_user].editAdmin, \"User does not have permission\"\n        );\n        delete admins[_targetUser];\n        emit AdminRemoved(_user, _targetUser, now);\n    }\n\n    function banUserTartarus(bytes32 _user, bytes32 _targetUser) \n        public userVerified(_user) userExists(_targetUser) {\n        require(\n            admins[_user].ban, \"User does not have permission\"\n        );\n        require(\n            !banned[_targetUser], \n            \"User is already banned\"\n        );\n        banned[_targetUser] = true;\n        emit UserBanned(_user, now);\n    }\n\n    function unbanUserTartarus(bytes32 _user, bytes32 _targetUser)\n        public userVerified(_user) userExists(_targetUser) {\n        require(\n            admins[_user].ban, \"User does not have permission\"\n        );\n        require(\n            banned[_targetUser], \n            \"User is not banned\"\n        );\n        banned[_targetUser] = false;\n    }\n\n    function setCreateUserCost(bytes32 _user, uint _newCost) \n        public userVerified(_user) {\n        require(\n            admins[_user].setCost, \n            \"User does not have permission\"\n        );\n        createUserCost = _newCost;\n    }\n    \n    function setCreateForumCost(bytes32 _user, uint _newCost) \n        public userVerified(_user) {\n        require(\n            admins[_user].setCost, \n            \"User does not have permission\"\n        );\n        createForumCost = _newCost;\n    }\n    \n    function setCreatePostCost(bytes32 _user, uint _newCost) \n        public userVerified(_user) {\n        require(\n            admins[_user].setCost, \n            \"User does not have permission\"\n        );\n        createPostCost = _newCost;\n    }\n    \n    function setCreateCommentCost(bytes32 _user, uint _newCost) \n        public userVerified(_user) {\n        require(\n            admins[_user].setCost, \n            \"User does not have permission\"\n        );\n        createCommentCost = _newCost;\n    }\n    \n    function setVoteCost(bytes32 _user, uint _newCost) \n        public userVerified(_user) {\n        require(\n            admins[_user].setCost, \n            \"User does not have permission\"\n        );\n        voteCost = _newCost;\n    }\n}",
  "sourcePath": "/Users/jarenlynch/Ethereum/Tartarus/contracts/Tartarus.sol",
  "compiler": {
    "name": "solc",
    "version": "0.5.2+commit.1df8f40c.Emscripten.clang"
  },
  "schemaVersion": "3.0.6",
  "updatedAt": "2019-04-23T04:20:57.240Z",
  "devdoc": {
    "methods": {
      "renounceOwnership()": {
        "details": "Allows the current owner to relinquish control of the contract."
      },
      "transferOwnership(address)": {
        "details": "Allows the current owner to transfer control of the contract to a newOwner.",
        "params": {
          "_newOwner": "The address to transfer ownership to."
        }
      }
    }
  },
  "userdoc": {
    "methods": {
      "renounceOwnership()": {
        "notice": "Renouncing to ownership will leave the contract without an owner. It will not be possible to call the functions with the `onlyOwner` modifier anymore."
      }
    }
  }
}