{
  "contractName": "Tartarus",
  "abi": [
    {
      "constant": false,
      "inputs": [],
      "name": "renounceOwnership",
      "outputs": [],
      "payable": false,
      "stateMutability": "nonpayable",
      "type": "function"
    },
    {
      "constant": true,
      "inputs": [],
      "name": "owner",
      "outputs": [
        {
          "name": "",
          "type": "address"
        }
      ],
      "payable": false,
      "stateMutability": "view",
      "type": "function"
    },
    {
      "constant": false,
      "inputs": [
        {
          "name": "_newOwner",
          "type": "address"
        }
      ],
      "name": "transferOwnership",
      "outputs": [],
      "payable": false,
      "stateMutability": "nonpayable",
      "type": "function"
    },
    {
      "inputs": [],
      "payable": false,
      "stateMutability": "nonpayable",
      "type": "constructor"
    },
    {
      "anonymous": false,
      "inputs": [
        {
          "indexed": false,
          "name": "adminAddress",
          "type": "address"
        }
      ],
      "name": "AdminCreated",
      "type": "event"
    },
    {
      "anonymous": false,
      "inputs": [
        {
          "indexed": false,
          "name": "forumAddress",
          "type": "address"
        }
      ],
      "name": "ForumCreated",
      "type": "event"
    },
    {
      "anonymous": false,
      "inputs": [
        {
          "indexed": false,
          "name": "forumAddress",
          "type": "address"
        },
        {
          "indexed": false,
          "name": "postAddress",
          "type": "address"
        }
      ],
      "name": "PostCreated",
      "type": "event"
    },
    {
      "anonymous": false,
      "inputs": [
        {
          "indexed": false,
          "name": "forumAddress",
          "type": "address"
        },
        {
          "indexed": false,
          "name": "postAddress",
          "type": "address"
        },
        {
          "indexed": false,
          "name": "commentAddress",
          "type": "address"
        }
      ],
      "name": "CommentCreated",
      "type": "event"
    },
    {
      "anonymous": false,
      "inputs": [
        {
          "indexed": false,
          "name": "userAddress",
          "type": "address"
        }
      ],
      "name": "UserCreated",
      "type": "event"
    },
    {
      "anonymous": false,
      "inputs": [
        {
          "indexed": true,
          "name": "previousOwner",
          "type": "address"
        }
      ],
      "name": "OwnershipRenounced",
      "type": "event"
    },
    {
      "anonymous": false,
      "inputs": [
        {
          "indexed": true,
          "name": "previousOwner",
          "type": "address"
        },
        {
          "indexed": true,
          "name": "newOwner",
          "type": "address"
        }
      ],
      "name": "OwnershipTransferred",
      "type": "event"
    },
    {
      "constant": false,
      "inputs": [
        {
          "name": "_forumName",
          "type": "string"
        }
      ],
      "name": "createForum",
      "outputs": [
        {
          "name": "",
          "type": "address"
        }
      ],
      "payable": false,
      "stateMutability": "nonpayable",
      "type": "function"
    },
    {
      "constant": false,
      "inputs": [
        {
          "name": "_forumAddress",
          "type": "address"
        },
        {
          "name": "_ipfsHash",
          "type": "string"
        }
      ],
      "name": "createPost",
      "outputs": [],
      "payable": false,
      "stateMutability": "nonpayable",
      "type": "function"
    },
    {
      "constant": false,
      "inputs": [
        {
          "name": "_forumAddress",
          "type": "address"
        },
        {
          "name": "_postAddress",
          "type": "address"
        },
        {
          "name": "_targetAddress",
          "type": "address"
        },
        {
          "name": "_ipfsHash",
          "type": "bytes32"
        }
      ],
      "name": "createComment",
      "outputs": [],
      "payable": false,
      "stateMutability": "nonpayable",
      "type": "function"
    },
    {
      "constant": false,
      "inputs": [],
      "name": "createUser",
      "outputs": [],
      "payable": true,
      "stateMutability": "payable",
      "type": "function"
    },
    {
      "constant": true,
      "inputs": [],
      "name": "authenticateUser",
      "outputs": [
        {
          "name": "",
          "type": "address"
        }
      ],
      "payable": false,
      "stateMutability": "view",
      "type": "function"
    },
    {
      "constant": false,
      "inputs": [
        {
          "name": "_newCost",
          "type": "uint256"
        }
      ],
      "name": "setCost",
      "outputs": [],
      "payable": false,
      "stateMutability": "nonpayable",
      "type": "function"
    }
  ],
  "bytecode": "0x6080604052600060045534801561001557600080fd5b5060008054600160a060020a03191633179055610030610141565b604051809103906000f08015801561004c573d6000803e3d6000fd5b5060088054600160a060020a031916600160a060020a0392909216919091179055610075610152565b604051809103906000f080158015610091573d6000803e3d6000fd5b5060058054600160a060020a031916600160a060020a03929092169190911790556100ba610163565b604051809103906000f0801580156100d6573d6000803e3d6000fd5b5060068054600160a060020a031916600160a060020a03929092169190911790556100ff610174565b604051809103906000f08015801561011b573d6000803e3d6000fd5b5060078054600160a060020a031916600160a060020a0392909216919091179055610185565b6040516104158062000e7783390190565b604051610d2d806200128c83390190565b6040516108fd8062001fb983390190565b60405161047180620028b683390190565b610ce280620001956000396000f3006080604052600436106100975763ffffffff7c01000000000000000000000000000000000000000000000000000000006000350416625ce66f811461009c57806325ad91ce146100cd57806344a0d68a146100d75780635aa07895146100ef578063715018a61461011f5780638da5cb5b14610134578063a232e64b14610149578063f2fde38b146101a2578063fe7ec5a5146101c3575b600080fd5b3480156100a857600080fd5b506100b161022a565b60408051600160a060020a039092168252519081900360200190f35b6100d5610246565b005b3480156100e357600080fd5b506100d560043561043f565b3480156100fb57600080fd5b506100d5600160a060020a036004358116906024358116906044351660643561045b565b34801561012b57600080fd5b506100d56105ad565b34801561014057600080fd5b506100b1610619565b34801561015557600080fd5b506040805160206004803580820135601f81018490048402850184019095528484526100b19436949293602493928401919081908401838280828437509497506106289650505050505050565b3480156101ae57600080fd5b506100d5600160a060020a0360043516610965565b3480156101cf57600080fd5b5060408051602060046024803582810135601f81018590048502860185019096528585526100d5958335600160a060020a03169536956044949193909101919081908401838280828437509497506109889650505050505050565b33600090815260036020526040902054600160a060020a031690565b6004546000903410156102ba57604080517f08c379a000000000000000000000000000000000000000000000000000000000815260206004820152601560248201527f496e73756666696369656e74204574682053656e740000000000000000000000604482015290519081900360640190fd5b33600090815260036020526040902054600160a060020a03161561033f57604080517f08c379a000000000000000000000000000000000000000000000000000000000815260206004820152601660248201527f55736572206163636f756e74206e6f7420666f756e6400000000000000000000604482015290519081900360640190fd5b60085461035490600160a060020a0316610bc6565b604080517fc4d66de80000000000000000000000000000000000000000000000000000000081523360048201529051919250600160a060020a0383169163c4d66de89160248082019260009290919082900301818387803b1580156103b857600080fd5b505af11580156103cc573d6000803e3d6000fd5b505033600090815260036020908152604091829020805473ffffffffffffffffffffffffffffffffffffffff1916600160a060020a038716908117909155825190815291517f0b0376a109cbb578b709f85f6a7befcdac3ac1ab251c99ede87f30c9572ac4d3945091829003019150a150565b600054600160a060020a0316331461045657600080fd5b600455565b33600090815260036020526040812054600160a060020a031615156104e157604080517f08c379a000000000000000000000000000000000000000000000000000000000815260206004820152601660248201527f55736572206163636f756e74206e6f7420666f756e6400000000000000000000604482015290519081900360640190fd5b503360009081526003602090815260408083205460075482517f6c3993e7000000000000000000000000000000000000000000000000000000008152600160a060020a038981166004830152888116602483015292831660448201526064810187905290821660848201529151889491851693636c3993e79360a480820194929392918390030190829087803b15801561057a57600080fd5b505af115801561058e573d6000803e3d6000fd5b505050506040513d60208110156105a457600080fd5b50505050505050565b600054600160a060020a031633146105c457600080fd5b60008054604051600160a060020a03909116917ff8df31144d9c2f0f6b59d69b8b98abd5459d07f2742c4df920b25aae33c6482091a26000805473ffffffffffffffffffffffffffffffffffffffff19169055565b600054600160a060020a031681565b336000908152600360205260408120548190600160a060020a031615156106b057604080517f08c379a000000000000000000000000000000000000000000000000000000000815260206004820152601660248201527f55736572206163636f756e74206e6f7420666f756e6400000000000000000000604482015290519081900360640190fd5b6000600160a060020a03166001846040518082805190602001908083835b602083106106ed5780518252601f1990920191602091820191016106ce565b51815160209384036101000a6000190180199092169116179052920194855250604051938490030190922054600160a060020a0316929092149150610795905057604080517f08c379a000000000000000000000000000000000000000000000000000000000815260206004820152601460248201527f466f72756d20616c726561647920657869737473000000000000000000000000604482015290519081900360640190fd5b6005546107aa90600160a060020a0316610bc6565b3360009081526003602090815260408083205481517f7ab4339d000000000000000000000000000000000000000000000000000000008152600160a060020a03918216602482018190526004820193845289516044830152895196975091871695637ab4339d958a95939493849360640192908701918190849084905b8381101561083f578181015183820152602001610827565b50505050905090810190601f16801561086c5780820380516001836020036101000a031916815260200191505b509350505050600060405180830381600087803b15801561088c57600080fd5b505af11580156108a0573d6000803e3d6000fd5b50505050806001846040518082805190602001908083835b602083106108d75780518252601f1990920191602091820191016108b8565b51815160209384036101000a6000190180199092169116179052920194855250604080519485900382018520805473ffffffffffffffffffffffffffffffffffffffff1916600160a060020a03978816179055948616845293517f6f9535f6c8a4252f81158b92ec563f75929f25d4f516bbdea9a3519b2f503e93949381900390930192915050a192915050565b600054600160a060020a0316331461097c57600080fd5b61098581610c39565b50565b3360009081526003602052604081205481908190600160a060020a03161515610a1257604080517f08c379a000000000000000000000000000000000000000000000000000000000815260206004820152601660248201527f55736572206163636f756e74206e6f7420666f756e6400000000000000000000604482015290519081900360640190fd5b3360009081526003602090815260408083205460065491517f62701fd3000000000000000000000000000000000000000000000000000000008152600160a060020a0391821660248201819052928216604482018190526060600483019081528a5160648401528a518c9a50938a16966362701fd3968c969593949293849360840192918801918190849084905b83811015610ab8578181015183820152602001610aa0565b50505050905090810190601f168015610ae55780820380516001836020036101000a031916815260200191505b50945050505050602060405180830381600087803b158015610b0657600080fd5b505af1158015610b1a573d6000803e3d6000fd5b505050506040513d6020811015610b3057600080fd5b5051336000908152600360205260408082205481517f6cd59eac000000000000000000000000000000000000000000000000000000008152600160a060020a0380861660048301529251949650911693508392636cd59eac9260248084019391929182900301818387803b158015610ba757600080fd5b505af1158015610bbb573d6000803e3d6000fd5b505050505050505050565b6040517f3d602d80600a3d3981f3363d3d373d3d3d363d7300000000000000000000000081526c010000000000000000000000008202601482018190527f5af43d82803e903d91602b57fd5bf30000000000000000000000000000000000602883015260009160378184f0949350505050565b600160a060020a0381161515610c4e57600080fd5b60008054604051600160a060020a03808516939216917f8be0079c531659141344cd1fd0a4f28419497f9722a3daafe3b4186f6b6457e091a36000805473ffffffffffffffffffffffffffffffffffffffff1916600160a060020a03929092169190911790555600a165627a7a72305820a167c1408fce26d6e22bcad4381631355fc1d454a26427188ae3a238e484f1f30029608060405260008054600160a060020a031916331790556103f0806100256000396000f3006080604052600436106100775763ffffffff7c01000000000000000000000000000000000000000000000000000000006000350416636cd59eac811461007c578063715018a61461009f5780638da5cb5b146100b4578063c4d66de8146100e5578063f2fde38b14610106578063fc3e917814610127575b600080fd5b34801561008857600080fd5b5061009d600160a060020a0360043516610148565b005b3480156100ab57600080fd5b5061009d61019e565b3480156100c057600080fd5b506100c961020a565b60408051600160a060020a039092168252519081900360200190f35b3480156100f157600080fd5b5061009d600160a060020a0360043516610219565b34801561011257600080fd5b5061009d600160a060020a03600435166102ce565b34801561013357600080fd5b5061009d600160a060020a03600435166102f1565b600054600160a060020a0316331461015f57600080fd5b60408051600160a060020a038316815290517fb28b103e6296194f6aecace93990102a06a5ae0720dc23aaf51589d563d52dde9181900360200190a150565b600054600160a060020a031633146101b557600080fd5b60008054604051600160a060020a03909116917ff8df31144d9c2f0f6b59d69b8b98abd5459d07f2742c4df920b25aae33c6482091a26000805473ffffffffffffffffffffffffffffffffffffffff19169055565b600054600160a060020a031681565b600054600160a060020a03161561029157604080517f08c379a000000000000000000000000000000000000000000000000000000000815260206004820152600860248201527f4e69636520747279000000000000000000000000000000000000000000000000604482015290519081900360640190fd5b600080543373ffffffffffffffffffffffffffffffffffffffff199182161790915560018054909116600160a060020a0392909216919091179055565b600054600160a060020a031633146102e557600080fd5b6102ee81610347565b50565b600054600160a060020a0316331461030857600080fd5b60408051600160a060020a038316815290517f2def86c85ed65bb7798ce8a3d3d1dc8553396bbb5d9f9e3f792747cd4e6c4b7a9181900360200190a150565b600160a060020a038116151561035c57600080fd5b60008054604051600160a060020a03808516939216917f8be0079c531659141344cd1fd0a4f28419497f9722a3daafe3b4186f6b6457e091a36000805473ffffffffffffffffffffffffffffffffffffffff1916600160a060020a03929092169190911790555600a165627a7a72305820e987904e7b827f9add379263136773a54e937bc18c41a48f5418ce0cdb35be690029608060405260008054600160a060020a03191633179055610d08806100256000396000f3006080604052600436106100ae5763ffffffff7c010000000000000000000000000000000000000000000000000000000060003504166302d05d3f81146100b357806306fdde03146100e457806310d86b1f1461016e57806352f6747a1461019157806362701fd3146101a65780636c3993e714610215578063715018a61461024c5780637ab4339d146102615780638da5cb5b146102c5578063908e5a8f146102da578063f2fde38b146102fb575b600080fd5b3480156100bf57600080fd5b506100c861031c565b60408051600160a060020a039092168252519081900360200190f35b3480156100f057600080fd5b506100f961032b565b6040805160208082528351818301528351919283929083019185019080838360005b8381101561013357818101518382015260200161011b565b50505050905090810190601f1680156101605780820380516001836020036101000a031916815260200191505b509250505060405180910390f35b34801561017a57600080fd5b5061018f600160a060020a03600435166103b8565b005b34801561019d57600080fd5b506100f96104b2565b3480156101b257600080fd5b506040805160206004803580820135601f81018490048402850184019095528484526100c894369492936024939284019190819084018382808284375094975050600160a060020a03853581169650602090950135909416935061050d92505050565b34801561022157600080fd5b506100c8600160a060020a0360043581169060243581169060443581169060643590608435166106fc565b34801561025857600080fd5b5061018f6108e0565b34801561026d57600080fd5b506040805160206004803580820135601f810184900484028501840190955284845261018f94369492936024939284019190819084018382808284375094975050509235600160a060020a0316935061094c92505050565b3480156102d157600080fd5b506100c8610a27565b3480156102e657600080fd5b5061018f600160a060020a0360043516610a36565b34801561030757600080fd5b5061018f600160a060020a0360043516610b2e565b600254600160a060020a031681565b60018054604080516020600284861615610100026000190190941693909304601f810184900484028201840190925281815292918301828280156103b05780601f10610385576101008083540402835291602001916103b0565b820191906000526020600020905b81548152906001019060200180831161039357829003601f168201915b505050505081565b600054600160a060020a031633146103cf57600080fd5b600160a060020a03811660009081526004602052604090205460ff161561045757604080517f08c379a000000000000000000000000000000000000000000000000000000000815260206004820152601360248201527f5573657220616c72656164792062616e6e656400000000000000000000000000604482015290519081900360640190fd5b600160a060020a038116600081815260046020908152604091829020805460ff19166001179055815192835290517f8f411ad66fd8225d9c3c7c72fd2429139958913fa5c5114dce1c984e069a4f699281900390910190a150565b6003805460408051602060026001851615610100026000190190941693909304601f810184900484028201840190925281815292918301828280156103b05780601f10610385576101008083540402835291602001916103b0565b600080548190600160a060020a0316331461052757600080fd5b600160a060020a03841660009081526004602052604090205460ff16156105af57604080517f08c379a000000000000000000000000000000000000000000000000000000000815260206004820152601e60248201527f557365722069732062616e6e65642066726f6d207468697320666f72756d0000604482015290519081900360640190fd5b6105b883610b51565b604080517f7ab4339d000000000000000000000000000000000000000000000000000000008152600160a060020a03878116602483015260048201928352885160448301528851939450841692637ab4339d9289928992829160640190602086019080838360005b83811015610638578181015183820152602001610620565b50505050905090810190601f1680156106655780820380516001836020036101000a031916815260200191505b509350505050600060405180830381600087803b15801561068557600080fd5b505af1158015610699573d6000803e3d6000fd5b505050600160a060020a038216600081815260056020908152604091829020805460ff19166001179055815192835290517fb28b103e6296194f6aecace93990102a06a5ae0720dc23aaf51589d563d52dde9350918290030190a1949350505050565b6000805481908190600160a060020a0316331461071857600080fd5b600160a060020a03861660009081526004602052604090205460ff16156107a057604080517f08c379a000000000000000000000000000000000000000000000000000000000815260206004820152601e60248201527f557365722069732062616e6e65642066726f6d207468697320666f72756d0000604482015290519081900360640190fd5b600160a060020a03881660009081526005602052604090205460ff16151561082957604080517f08c379a000000000000000000000000000000000000000000000000000000000815260206004820152601460248201527f506f737420646f6573206e6f742065786973742e000000000000000000000000604482015290519081900360640190fd5b604080517f95fd7e8400000000000000000000000000000000000000000000000000000000815260048101879052600160a060020a0388811660248301528981166044830152868116606483015291518a9450918416916395fd7e84916084808201926020929091908290030181600087803b1580156108a857600080fd5b505af11580156108bc573d6000803e3d6000fd5b505050506040513d60208110156108d257600080fd5b505198975050505050505050565b600054600160a060020a031633146108f757600080fd5b60008054604051600160a060020a03909116917ff8df31144d9c2f0f6b59d69b8b98abd5459d07f2742c4df920b25aae33c6482091a26000805473ffffffffffffffffffffffffffffffffffffffff19169055565b600054600160a060020a0316156109c457604080517f08c379a000000000000000000000000000000000000000000000000000000000815260206004820152600860248201527f4e69636520747279000000000000000000000000000000000000000000000000604482015290519081900360640190fd5b6000805473ffffffffffffffffffffffffffffffffffffffff19163317905581516109f6906001906020850190610c41565b506002805473ffffffffffffffffffffffffffffffffffffffff1916600160a060020a039290921691909117905550565b600054600160a060020a031681565b600054600160a060020a03163314610a4d57600080fd5b600160a060020a03811660009081526004602052604090205460ff161515610ad657604080517f08c379a000000000000000000000000000000000000000000000000000000000815260206004820152600f60248201527f55736572206e6f742062616e6e65640000000000000000000000000000000000604482015290519081900360640190fd5b600160a060020a038116600081815260046020908152604091829020805460ff19169055815192835290517f26d6a37a4abb33fb6e942eb5bf6c659ea2b3031d99159305ec4fdd0adc7551cf9281900390910190a150565b600054600160a060020a03163314610b4557600080fd5b610b4e81610bc4565b50565b6040517f3d602d80600a3d3981f3363d3d373d3d3d363d7300000000000000000000000081526c010000000000000000000000008202601482018190527f5af43d82803e903d91602b57fd5bf30000000000000000000000000000000000602883015260009160378184f0949350505050565b600160a060020a0381161515610bd957600080fd5b60008054604051600160a060020a03808516939216917f8be0079c531659141344cd1fd0a4f28419497f9722a3daafe3b4186f6b6457e091a36000805473ffffffffffffffffffffffffffffffffffffffff1916600160a060020a0392909216919091179055565b828054600181600116156101000203166002900490600052602060002090601f016020900481019282601f10610c8257805160ff1916838001178555610caf565b82800160010185558215610caf579182015b82811115610caf578251825591602001919060010190610c94565b50610cbb929150610cbf565b5090565b610cd991905b80821115610cbb5760008155600101610cc5565b905600a165627a7a7230582076077cb26793a4715f63254a889f3bffa2b2ad49c056a37dbc54854de3991b4b0029608060405260008054600160a060020a031916331790556108d8806100256000396000f30060806040526004361061008d5763ffffffff7c0100000000000000000000000000000000000000000000000000000000600035041663715018a681146100925780637ab4339d146100a95780638bd178e91461010d5780638da5cb5b146101c757806392d7727c146101f857806395fd7e841461020d578063a8df84df1461023d578063f2fde38b14610252575b600080fd5b34801561009e57600080fd5b506100a7610273565b005b3480156100b557600080fd5b506040805160206004803580820135601f81018490048402850184019095528484526100a794369492936024939284019190819084018382808284375094975050509235600160a060020a031693506102df92505050565b34801561011957600080fd5b506101226103cb565b604051808060200185600160a060020a0316600160a060020a031681526020018481526020018360030b60030b8152602001828103825286818151815260200191508051906020019080838360005b83811015610189578181015183820152602001610171565b50505050905090810190601f1680156101b65780820380516001836020036101000a031916815260200191505b509550505050505060405180910390f35b3480156101d357600080fd5b506101dc61047c565b60408051600160a060020a039092168252519081900360200190f35b34801561020457600080fd5b506100a761048b565b34801561021957600080fd5b506101dc600435600160a060020a036024358116906044358116906064351661054d565b34801561024957600080fd5b506100a761063f565b34801561025e57600080fd5b506100a7600160a060020a03600435166106fe565b600054600160a060020a0316331461028a57600080fd5b60008054604051600160a060020a03909116917ff8df31144d9c2f0f6b59d69b8b98abd5459d07f2742c4df920b25aae33c6482091a26000805473ffffffffffffffffffffffffffffffffffffffff19169055565b600054600160a060020a03161561035757604080517f08c379a000000000000000000000000000000000000000000000000000000000815260206004820152600860248201527f4e69636520747279000000000000000000000000000000000000000000000000604482015290519081900360640190fd5b6000805473ffffffffffffffffffffffffffffffffffffffff1916331790558151610389906001906020850190610811565b506002805473ffffffffffffffffffffffffffffffffffffffff1916600160a060020a039290921691909117905550426003556004805463ffffffff19169055565b60018054604080516020601f6002600019610100878916150201909516949094049384018190048102820181019092528281529183918301828280156104525780601f1061042757610100808354040283529160200191610452565b820191906000526020600020905b81548152906001019060200180831161043557829003601f168201915b50505050600183015460028401546003948501549394600160a060020a0390921693909250900b84565b600054600160a060020a031681565b3360009081526005602052604090205460ff161561050a57604080517f08c379a000000000000000000000000000000000000000000000000000000000815260206004820152600d60248201527f416c726561647920766f74656400000000000000000000000000000000000000604482015290519081900360640190fd5b336000908152600560205260409020805460ff1916600190811790915560048054600381810b90930190920b63ffffffff1663ffffffff19909216919091179055565b600080548190600160a060020a0316331461056757600080fd5b61057083610721565b604080517f88b117b300000000000000000000000000000000000000000000000000000000815260048101899052600160a060020a03888116602483015287811660448301529151929350908316916388b117b39160648082019260009290919082900301818387803b1580156105e657600080fd5b505af11580156105fa573d6000803e3d6000fd5b5050604051600160a060020a038088169350841691507fc71c80f36114239068c61c371cc78fe31efc9d52119e0bf5715623485ffb292a90600090a395945050505050565b3360009081526005602052604090205460ff16156106be57604080517f08c379a000000000000000000000000000000000000000000000000000000000815260206004820152600d60248201527f416c726561647920766f74656400000000000000000000000000000000000000604482015290519081900360640190fd5b336000908152600560205260409020805460ff1916600117905560048054600019600382810b91909101900b63ffffffff1663ffffffff19909116179055565b600054600160a060020a0316331461071557600080fd5b61071e81610794565b50565b6040517f3d602d80600a3d3981f3363d3d373d3d3d363d7300000000000000000000000081526c010000000000000000000000008202601482018190527f5af43d82803e903d91602b57fd5bf30000000000000000000000000000000000602883015260009160378184f0949350505050565b600160a060020a03811615156107a957600080fd5b60008054604051600160a060020a03808516939216917f8be0079c531659141344cd1fd0a4f28419497f9722a3daafe3b4186f6b6457e091a36000805473ffffffffffffffffffffffffffffffffffffffff1916600160a060020a0392909216919091179055565b828054600181600116156101000203166002900490600052602060002090601f016020900481019282601f1061085257805160ff191683800117855561087f565b8280016001018555821561087f579182015b8281111561087f578251825591602001919060010190610864565b5061088b92915061088f565b5090565b6108a991905b8082111561088b5760008155600101610895565b905600a165627a7a723058206fe8f4995d2a660016e305033a22a3e1da1b23906ed4fed029adeb2606d130b80029608060405260008054600160a060020a0319163317905561044c806100256000396000f30060806040526004361061006c5763ffffffff7c010000000000000000000000000000000000000000000000000000000060003504166309b205188114610071578063715018a6146100cf57806388b117b3146100e65780638da5cb5b1461011d578063f2fde38b1461015b575b600080fd5b34801561007d57600080fd5b50610086610189565b6040805195865273ffffffffffffffffffffffffffffffffffffffff948516602087015292909316848301526060840152600391820b90910b6080830152519081900360a00190f35b3480156100db57600080fd5b506100e46101bd565b005b3480156100f257600080fd5b506100e460043573ffffffffffffffffffffffffffffffffffffffff60243581169060443516610243565b34801561012957600080fd5b50610132610330565b6040805173ffffffffffffffffffffffffffffffffffffffff9092168252519081900360200190f35b34801561016757600080fd5b506100e473ffffffffffffffffffffffffffffffffffffffff6004351661034c565b6001546002546003805460045460055473ffffffffffffffffffffffffffffffffffffffff94851694909216929091900b85565b60005473ffffffffffffffffffffffffffffffffffffffff1633146101e157600080fd5b6000805460405173ffffffffffffffffffffffffffffffffffffffff909116917ff8df31144d9c2f0f6b59d69b8b98abd5459d07f2742c4df920b25aae33c6482091a26000805473ffffffffffffffffffffffffffffffffffffffff19169055565b60005473ffffffffffffffffffffffffffffffffffffffff16156102c857604080517f08c379a000000000000000000000000000000000000000000000000000000000815260206004820152600860248201527f4e69636520747279000000000000000000000000000000000000000000000000604482015290519081900360640190fd5b600080543373ffffffffffffffffffffffffffffffffffffffff199182161790915560019390935560028054841673ffffffffffffffffffffffffffffffffffffffff938416179055600380549093169116179055426004556005805463ffffffff19169055565b60005473ffffffffffffffffffffffffffffffffffffffff1681565b60005473ffffffffffffffffffffffffffffffffffffffff16331461037057600080fd5b6103798161037c565b50565b73ffffffffffffffffffffffffffffffffffffffff8116151561039e57600080fd5b6000805460405173ffffffffffffffffffffffffffffffffffffffff808516939216917f8be0079c531659141344cd1fd0a4f28419497f9722a3daafe3b4186f6b6457e091a36000805473ffffffffffffffffffffffffffffffffffffffff191673ffffffffffffffffffffffffffffffffffffffff929092169190911790555600a165627a7a72305820d6136dfc3d38f897b90f44293144cf0c3e23033396895d4fec25ce14050f08710029",
  "source": "pragma solidity ^0.4.24;\n\nimport \"./User.sol\"; \nimport \"./Forum.sol\"; \nimport \"./Comment.sol\";\nimport \"./CloneFactory.sol\";\nimport \"./Ownable.sol\";\n\ncontract Tartarus is Ownable, CloneFactory {\n    event AdminCreated (address adminAddress);\n    event ForumCreated(address forumAddress);  \n    event PostCreated(address forumAddress, address postAddress);\n    event CommentCreated(address forumAddress, address postAddress, address commentAddress);\n    event UserCreated (address userAddress);  \n    \n    mapping (string => address) private forums;\n    mapping (address => bool) private forumList;\n    mapping (address => address) private users;\n    // mapping (address => bool) private admins;\n    uint createUserCost = 0;\n\n    // function createAdmin(address _adminAddress) public onlyOwner {\n    //     require(admins[_adminAddress] == 0, \"Admin already exists\");\n    //     admins[_adminAddress] = true;\n    //     emit AdminCreated(_adminAddress);\n    // }\n\n    address cloneForum;\n    address clonePost;\n    address cloneComment;\n    address cloneUser;\n\n    constructor() public {\n        cloneUser = new User();\n        cloneForum = new Forum();\n        clonePost = new Post();\n        cloneComment = new Comment();\n    }\n\n    function createForum(string _forumName) public returns(address) {\n        require(users[msg.sender] != address(0), \"User account not found\");\n        require(forums[_forumName] == address(0), \"Forum already exists\");\n        address clone = createClone(cloneForum);\n        Forum(clone).initialize(_forumName, users[msg.sender]);\n        forums[_forumName] = clone;\n        emit ForumCreated(clone);\n        return clone;\n    }   \n\n    function createPost(address _forumAddress, string _ipfsHash) public {\n        require(users[msg.sender] != address(0), \"User account not found\");\n        Forum targetForum = Forum(_forumAddress);\n        address newPostAddress = targetForum.createPost(_ipfsHash, users[msg.sender], clonePost);\n        User targetUser = User(users[msg.sender]);\n        targetUser.notifyCreatePost(newPostAddress);\n    }\n\n    function createComment(address _forumAddress, address _postAddress, address _targetAddress, bytes32 _ipfsHash) public {\n        require(users[msg.sender] != address(0), \"User account not found\");\n        Forum targetForum = Forum(_forumAddress);\n        // address newCommentAddress = targetForum.createComment(_postAddress, _targetAddress, users[msg.sender], _ipfsHash, cloneComment);\n        targetForum.createComment(_postAddress, _targetAddress, users[msg.sender], _ipfsHash, cloneComment);\n        \n        //todo notify user of new comment, (commentHash, postAddress)\n        // User targetUser = User(users[msg.sender]);\n        // targetUser.notifyCreateComment(newCommentAddress);\n    }\n\n    function createUser() public payable {\n        require((msg.value >= createUserCost), \"Insufficient Eth Sent\");\n        require(users[msg.sender] == address(0), \"User account not found\");\n        address clone = createClone(cloneUser);\n        User(clone).initialize(msg.sender);\n        users[msg.sender] = clone;\n        emit UserCreated(clone);\n    }\n\n    function authenticateUser() public view returns(address) {\n        return users[msg.sender];\n    }\n\n    function setCost(uint _newCost) public onlyOwner {\n        createUserCost = _newCost;\n    }\n}",
  "sourcePath": "/Users/jarenlynch/Ethereum/Tartarus/contracts/Tartarus.sol",
  "compiler": {
    "name": "solc",
    "version": "0.4.24+commit.e67f0147.Emscripten.clang"
  },
  "schemaVersion": "2.0.1",
  "updatedAt": "2019-03-02T21:41:00.106Z"
}