{
  "contractName": "Tartarus",
  "abi": [
    {
      "constant": true,
      "inputs": [],
      "name": "voteCost",
      "outputs": [
        {
          "name": "",
          "type": "uint256"
        }
      ],
      "payable": false,
      "stateMutability": "view",
      "type": "function",
      "signature": "0x4c1b8ffd"
    },
    {
      "constant": true,
      "inputs": [
        {
          "name": "",
          "type": "bytes32"
        }
      ],
      "name": "comments",
      "outputs": [
        {
          "name": "comment",
          "type": "bytes32"
        },
        {
          "name": "creator",
          "type": "bytes32"
        },
        {
          "name": "target",
          "type": "bytes32"
        },
        {
          "name": "time",
          "type": "uint256"
        }
      ],
      "payable": false,
      "stateMutability": "view",
      "type": "function",
      "signature": "0x61aebc94"
    },
    {
      "constant": false,
      "inputs": [],
      "name": "renounceOwnership",
      "outputs": [],
      "payable": false,
      "stateMutability": "nonpayable",
      "type": "function",
      "signature": "0x715018a6"
    },
    {
      "constant": true,
      "inputs": [],
      "name": "owner",
      "outputs": [
        {
          "name": "",
          "type": "address"
        }
      ],
      "payable": false,
      "stateMutability": "view",
      "type": "function",
      "signature": "0x8da5cb5b"
    },
    {
      "constant": true,
      "inputs": [],
      "name": "nonce",
      "outputs": [
        {
          "name": "",
          "type": "uint256"
        }
      ],
      "payable": false,
      "stateMutability": "view",
      "type": "function",
      "signature": "0xaffed0e0"
    },
    {
      "constant": true,
      "inputs": [
        {
          "name": "",
          "type": "bytes32"
        }
      ],
      "name": "users",
      "outputs": [
        {
          "name": "username",
          "type": "bytes32"
        },
        {
          "name": "creator",
          "type": "address"
        },
        {
          "name": "time",
          "type": "uint256"
        }
      ],
      "payable": false,
      "stateMutability": "view",
      "type": "function",
      "signature": "0xcea6ab98"
    },
    {
      "constant": true,
      "inputs": [],
      "name": "createForumCost",
      "outputs": [
        {
          "name": "",
          "type": "uint256"
        }
      ],
      "payable": false,
      "stateMutability": "view",
      "type": "function",
      "signature": "0xd050d572"
    },
    {
      "constant": true,
      "inputs": [
        {
          "name": "",
          "type": "bytes32"
        }
      ],
      "name": "admins",
      "outputs": [
        {
          "name": "ban",
          "type": "bool"
        },
        {
          "name": "setCost",
          "type": "bool"
        },
        {
          "name": "editAdmin",
          "type": "bool"
        },
        {
          "name": "deleteComment",
          "type": "bool"
        },
        {
          "name": "deletePost",
          "type": "bool"
        },
        {
          "name": "deleteForum",
          "type": "bool"
        }
      ],
      "payable": false,
      "stateMutability": "view",
      "type": "function",
      "signature": "0xd079661b"
    },
    {
      "constant": true,
      "inputs": [],
      "name": "createPostCost",
      "outputs": [
        {
          "name": "",
          "type": "uint256"
        }
      ],
      "payable": false,
      "stateMutability": "view",
      "type": "function",
      "signature": "0xdb468cb4"
    },
    {
      "constant": true,
      "inputs": [
        {
          "name": "",
          "type": "bytes32"
        }
      ],
      "name": "banned",
      "outputs": [
        {
          "name": "",
          "type": "bool"
        }
      ],
      "payable": false,
      "stateMutability": "view",
      "type": "function",
      "signature": "0xdca259cb"
    },
    {
      "constant": true,
      "inputs": [
        {
          "name": "",
          "type": "bytes32"
        }
      ],
      "name": "posts",
      "outputs": [
        {
          "name": "title",
          "type": "bytes32"
        },
        {
          "name": "post",
          "type": "bytes32"
        },
        {
          "name": "creator",
          "type": "bytes32"
        },
        {
          "name": "votes",
          "type": "int32"
        },
        {
          "name": "time",
          "type": "uint256"
        }
      ],
      "payable": false,
      "stateMutability": "view",
      "type": "function",
      "signature": "0xdff72dec"
    },
    {
      "constant": true,
      "inputs": [],
      "name": "createUserCost",
      "outputs": [
        {
          "name": "",
          "type": "uint256"
        }
      ],
      "payable": false,
      "stateMutability": "view",
      "type": "function",
      "signature": "0xf004a35e"
    },
    {
      "constant": false,
      "inputs": [
        {
          "name": "_newOwner",
          "type": "address"
        }
      ],
      "name": "transferOwnership",
      "outputs": [],
      "payable": false,
      "stateMutability": "nonpayable",
      "type": "function",
      "signature": "0xf2fde38b"
    },
    {
      "constant": true,
      "inputs": [
        {
          "name": "",
          "type": "bytes32"
        }
      ],
      "name": "forums",
      "outputs": [
        {
          "name": "name",
          "type": "bytes32"
        },
        {
          "name": "rules",
          "type": "bytes32"
        },
        {
          "name": "description",
          "type": "bytes32"
        },
        {
          "name": "creator",
          "type": "bytes32"
        },
        {
          "name": "time",
          "type": "uint256"
        }
      ],
      "payable": false,
      "stateMutability": "view",
      "type": "function",
      "signature": "0xfb118717"
    },
    {
      "constant": true,
      "inputs": [],
      "name": "createCommentCost",
      "outputs": [
        {
          "name": "",
          "type": "uint256"
        }
      ],
      "payable": false,
      "stateMutability": "view",
      "type": "function",
      "signature": "0xfce7cf68"
    },
    {
      "inputs": [
        {
          "name": "_username",
          "type": "string"
        }
      ],
      "payable": false,
      "stateMutability": "nonpayable",
      "type": "constructor",
      "signature": "constructor"
    },
    {
      "anonymous": false,
      "inputs": [
        {
          "indexed": false,
          "name": "user",
          "type": "bytes32"
        },
        {
          "indexed": false,
          "name": "targetUser",
          "type": "bytes32"
        }
      ],
      "name": "AdminCreated",
      "type": "event",
      "signature": "0xbc30cbfc6abd2a086b48ab1384c409a88b53f37c0e96467ebcc0ac853262a6c8"
    },
    {
      "anonymous": false,
      "inputs": [
        {
          "indexed": false,
          "name": "user",
          "type": "bytes32"
        },
        {
          "indexed": false,
          "name": "targetUser",
          "type": "bytes32"
        }
      ],
      "name": "AdminRemoved",
      "type": "event",
      "signature": "0xa175af4e7ecafece171c2baf33ffca625b59616fd8984cb0d36abbb9de86e02b"
    },
    {
      "anonymous": false,
      "inputs": [
        {
          "indexed": true,
          "name": "forum",
          "type": "bytes32"
        },
        {
          "indexed": false,
          "name": "user",
          "type": "bytes32"
        },
        {
          "indexed": false,
          "name": "targetUser",
          "type": "bytes32"
        }
      ],
      "name": "ModeratorCreated",
      "type": "event",
      "signature": "0x0804eec0a3287e50c034eb19982c6594ff8804472056febb03b3b6a3a8940c10"
    },
    {
      "anonymous": false,
      "inputs": [
        {
          "indexed": true,
          "name": "forum",
          "type": "bytes32"
        },
        {
          "indexed": false,
          "name": "user",
          "type": "bytes32"
        },
        {
          "indexed": false,
          "name": "targetUser",
          "type": "bytes32"
        }
      ],
      "name": "ModeratorRemoved",
      "type": "event",
      "signature": "0x6264a7015915fe5035b205a1eb43eac785f190a39afb68ad34764733697d0fd3"
    },
    {
      "anonymous": false,
      "inputs": [
        {
          "indexed": false,
          "name": "user",
          "type": "bytes32"
        }
      ],
      "name": "UserCreated",
      "type": "event",
      "signature": "0x0808387569c40466c01100158dd3d6f79cdbd57e12063e1d81d1cd818d9639cd"
    },
    {
      "anonymous": false,
      "inputs": [
        {
          "indexed": false,
          "name": "user",
          "type": "bytes32"
        }
      ],
      "name": "UserBanned",
      "type": "event",
      "signature": "0x3a3ca8598551b784b28e5b6d4a6d2f2dbcea8335783e1fb62f8023d21cb955b9"
    },
    {
      "anonymous": false,
      "inputs": [
        {
          "indexed": true,
          "name": "forum",
          "type": "bytes32"
        },
        {
          "indexed": false,
          "name": "user",
          "type": "bytes32"
        }
      ],
      "name": "UserForumBanned",
      "type": "event",
      "signature": "0x12324eb6e1cfcd6a38496d18f9a4402fc1d1c4814ee419561c55fdf69ff12d56"
    },
    {
      "anonymous": false,
      "inputs": [
        {
          "indexed": false,
          "name": "forum",
          "type": "bytes32"
        }
      ],
      "name": "ForumCreated",
      "type": "event",
      "signature": "0x373bb9e035604ae9212e933aabdc815a0e94eed18cad9208b5c7b07180a3fef5"
    },
    {
      "anonymous": false,
      "inputs": [
        {
          "indexed": false,
          "name": "forum",
          "type": "bytes32"
        }
      ],
      "name": "ForumDeleted",
      "type": "event",
      "signature": "0x773b498f67072879a15f43453b36d50ad29aa683731cc03b8bf6f5f5c6064fea"
    },
    {
      "anonymous": false,
      "inputs": [
        {
          "indexed": true,
          "name": "forum",
          "type": "bytes32"
        },
        {
          "indexed": false,
          "name": "oldRules",
          "type": "bytes32"
        },
        {
          "indexed": false,
          "name": "newRules",
          "type": "bytes32"
        }
      ],
      "name": "ForumRulesEdited",
      "type": "event",
      "signature": "0xefa09da76d099bbdbf6b9ff30c5ba11e9c920b01165e512ffce791bd2dd94746"
    },
    {
      "anonymous": false,
      "inputs": [
        {
          "indexed": true,
          "name": "forum",
          "type": "bytes32"
        },
        {
          "indexed": false,
          "name": "oldDescription",
          "type": "bytes32"
        },
        {
          "indexed": false,
          "name": "newDescription",
          "type": "bytes32"
        }
      ],
      "name": "ForumDescriptionEdited",
      "type": "event",
      "signature": "0xca07a10a42fa4956137275617915b0aec6900d200e59829f5f9545f43aae7bf9"
    },
    {
      "anonymous": false,
      "inputs": [
        {
          "indexed": true,
          "name": "forum",
          "type": "bytes32"
        },
        {
          "indexed": true,
          "name": "creator",
          "type": "bytes32"
        },
        {
          "indexed": false,
          "name": "postId",
          "type": "bytes32"
        }
      ],
      "name": "PostCreated",
      "type": "event",
      "signature": "0x429af90a9753bcf2e29810ac61fec0881ff36b9814cf918c1ca59dbd04f5d019"
    },
    {
      "anonymous": false,
      "inputs": [
        {
          "indexed": true,
          "name": "forum",
          "type": "bytes32"
        },
        {
          "indexed": false,
          "name": "postId",
          "type": "bytes32"
        }
      ],
      "name": "PostDeleted",
      "type": "event",
      "signature": "0x8f08fe61c843deac76774dd02241930e043737b24295697d71d5f47795f8e389"
    },
    {
      "anonymous": false,
      "inputs": [
        {
          "indexed": true,
          "name": "forum",
          "type": "bytes32"
        },
        {
          "indexed": false,
          "name": "postId",
          "type": "bytes32"
        }
      ],
      "name": "PostPinned",
      "type": "event",
      "signature": "0xf7c180ca7bd206f54291f3f943af129cd33dafa8e7aae3682e7bef3c54e4f409"
    },
    {
      "anonymous": false,
      "inputs": [
        {
          "indexed": true,
          "name": "forum",
          "type": "bytes32"
        },
        {
          "indexed": false,
          "name": "postId",
          "type": "bytes32"
        }
      ],
      "name": "PostUnpinned",
      "type": "event",
      "signature": "0xe31482f4029892a074b7c9091ea285f08eb4524049def9f9ce6910a3e5408fc9"
    },
    {
      "anonymous": false,
      "inputs": [
        {
          "indexed": true,
          "name": "postId",
          "type": "bytes32"
        },
        {
          "indexed": true,
          "name": "creator",
          "type": "bytes32"
        },
        {
          "indexed": true,
          "name": "targetId",
          "type": "bytes32"
        },
        {
          "indexed": false,
          "name": "commentId",
          "type": "bytes32"
        }
      ],
      "name": "CommentCreated",
      "type": "event",
      "signature": "0x26137cf2a755cd72889bec726cf05a8d5975f7bb861bc67a11f008008e49627c"
    },
    {
      "anonymous": false,
      "inputs": [
        {
          "indexed": true,
          "name": "forumId",
          "type": "bytes32"
        },
        {
          "indexed": false,
          "name": "postId",
          "type": "bytes32"
        },
        {
          "indexed": false,
          "name": "commentId",
          "type": "bytes32"
        }
      ],
      "name": "CommentDeleted",
      "type": "event",
      "signature": "0x28a86a57dbad1fbedea22d276ffa7463abbb98339f7ff8b8381cd9d923d17892"
    },
    {
      "anonymous": false,
      "inputs": [
        {
          "indexed": false,
          "name": "user",
          "type": "bytes32"
        },
        {
          "indexed": false,
          "name": "reason",
          "type": "bytes32"
        }
      ],
      "name": "ReportUser",
      "type": "event",
      "signature": "0x90cff83c58dbbcc6d953b0210c9ede5033a38f64e55792d4a7300f1d6220b7b3"
    },
    {
      "anonymous": false,
      "inputs": [
        {
          "indexed": false,
          "name": "forum",
          "type": "bytes32"
        },
        {
          "indexed": false,
          "name": "reason",
          "type": "bytes32"
        }
      ],
      "name": "ReportForum",
      "type": "event",
      "signature": "0x870e871839dc020700465b1a477176917d6c99a74dab883537a6329787eca6ec"
    },
    {
      "anonymous": false,
      "inputs": [
        {
          "indexed": true,
          "name": "_forum",
          "type": "bytes32"
        },
        {
          "indexed": false,
          "name": "_postId",
          "type": "bytes32"
        },
        {
          "indexed": false,
          "name": "reason",
          "type": "bytes32"
        }
      ],
      "name": "ReportPost",
      "type": "event",
      "signature": "0x1d763530a57993a6cc26dcbb543eaafe2e430aef6c8d9fc8f44ba567d68576b4"
    },
    {
      "anonymous": false,
      "inputs": [
        {
          "indexed": true,
          "name": "_forum",
          "type": "bytes32"
        },
        {
          "indexed": false,
          "name": "_postId",
          "type": "bytes32"
        },
        {
          "indexed": false,
          "name": "_commentId",
          "type": "bytes32"
        },
        {
          "indexed": false,
          "name": "reason",
          "type": "bytes32"
        }
      ],
      "name": "ReportComment",
      "type": "event",
      "signature": "0x88955ec1e09cabc487141eb757b7c5c353d64d30d48c31dc3a9f517032a5c3d6"
    },
    {
      "anonymous": false,
      "inputs": [
        {
          "indexed": true,
          "name": "previousOwner",
          "type": "address"
        }
      ],
      "name": "OwnershipRenounced",
      "type": "event",
      "signature": "0xf8df31144d9c2f0f6b59d69b8b98abd5459d07f2742c4df920b25aae33c64820"
    },
    {
      "anonymous": false,
      "inputs": [
        {
          "indexed": true,
          "name": "previousOwner",
          "type": "address"
        },
        {
          "indexed": true,
          "name": "newOwner",
          "type": "address"
        }
      ],
      "name": "OwnershipTransferred",
      "type": "event",
      "signature": "0x8be0079c531659141344cd1fd0a4f28419497f9722a3daafe3b4186f6b6457e0"
    },
    {
      "constant": true,
      "inputs": [
        {
          "name": "_name",
          "type": "string"
        }
      ],
      "name": "validateName",
      "outputs": [
        {
          "name": "",
          "type": "bool"
        }
      ],
      "payable": false,
      "stateMutability": "pure",
      "type": "function",
      "signature": "0x9ffdb65a"
    },
    {
      "constant": true,
      "inputs": [
        {
          "name": "_source",
          "type": "string"
        }
      ],
      "name": "stringToBytes32",
      "outputs": [
        {
          "name": "result",
          "type": "bytes32"
        }
      ],
      "payable": false,
      "stateMutability": "pure",
      "type": "function",
      "signature": "0xcfb51928"
    },
    {
      "constant": false,
      "inputs": [],
      "name": "generateId",
      "outputs": [
        {
          "name": "",
          "type": "bytes32"
        }
      ],
      "payable": false,
      "stateMutability": "nonpayable",
      "type": "function",
      "signature": "0x6f8dcb3d"
    },
    {
      "constant": false,
      "inputs": [
        {
          "name": "_username",
          "type": "string"
        }
      ],
      "name": "createUser",
      "outputs": [],
      "payable": true,
      "stateMutability": "payable",
      "type": "function",
      "signature": "0x507ffba5"
    },
    {
      "constant": false,
      "inputs": [
        {
          "name": "_user",
          "type": "bytes32"
        },
        {
          "name": "_forum",
          "type": "string"
        },
        {
          "name": "_rules",
          "type": "bytes32"
        },
        {
          "name": "_description",
          "type": "bytes32"
        }
      ],
      "name": "createForum",
      "outputs": [],
      "payable": true,
      "stateMutability": "payable",
      "type": "function",
      "signature": "0x05a674e3"
    },
    {
      "constant": false,
      "inputs": [
        {
          "name": "_user",
          "type": "bytes32"
        },
        {
          "name": "_forum",
          "type": "bytes32"
        }
      ],
      "name": "deleteForum",
      "outputs": [],
      "payable": false,
      "stateMutability": "nonpayable",
      "type": "function",
      "signature": "0xfc6c2455"
    },
    {
      "constant": false,
      "inputs": [
        {
          "name": "_user",
          "type": "bytes32"
        },
        {
          "name": "_forum",
          "type": "bytes32"
        },
        {
          "name": "_title",
          "type": "bytes32"
        },
        {
          "name": "_post",
          "type": "bytes32"
        }
      ],
      "name": "createPost",
      "outputs": [],
      "payable": true,
      "stateMutability": "payable",
      "type": "function",
      "signature": "0x32124137"
    },
    {
      "constant": false,
      "inputs": [
        {
          "name": "_user",
          "type": "bytes32"
        },
        {
          "name": "_forum",
          "type": "bytes32"
        },
        {
          "name": "_postId",
          "type": "bytes32"
        }
      ],
      "name": "deletePost",
      "outputs": [],
      "payable": false,
      "stateMutability": "nonpayable",
      "type": "function",
      "signature": "0x5cdc5b6c"
    },
    {
      "constant": false,
      "inputs": [
        {
          "name": "_user",
          "type": "bytes32"
        },
        {
          "name": "_forum",
          "type": "bytes32"
        },
        {
          "name": "_postId",
          "type": "bytes32"
        },
        {
          "name": "_postIndex",
          "type": "uint256"
        }
      ],
      "name": "pinPost",
      "outputs": [],
      "payable": false,
      "stateMutability": "nonpayable",
      "type": "function",
      "signature": "0x3bd96765"
    },
    {
      "constant": false,
      "inputs": [
        {
          "name": "_user",
          "type": "bytes32"
        },
        {
          "name": "_forum",
          "type": "bytes32"
        },
        {
          "name": "_postIndex",
          "type": "uint256"
        }
      ],
      "name": "unpinPost",
      "outputs": [],
      "payable": false,
      "stateMutability": "nonpayable",
      "type": "function",
      "signature": "0xaf1787b2"
    },
    {
      "constant": false,
      "inputs": [
        {
          "name": "_forum",
          "type": "bytes32"
        },
        {
          "name": "_user",
          "type": "bytes32"
        },
        {
          "name": "_postId",
          "type": "bytes32"
        }
      ],
      "name": "upvote",
      "outputs": [],
      "payable": true,
      "stateMutability": "payable",
      "type": "function",
      "signature": "0x157449a4"
    },
    {
      "constant": false,
      "inputs": [
        {
          "name": "_forum",
          "type": "bytes32"
        },
        {
          "name": "_user",
          "type": "bytes32"
        },
        {
          "name": "_postId",
          "type": "bytes32"
        }
      ],
      "name": "downvote",
      "outputs": [],
      "payable": true,
      "stateMutability": "payable",
      "type": "function",
      "signature": "0xff24ba04"
    },
    {
      "constant": false,
      "inputs": [
        {
          "name": "_user",
          "type": "bytes32"
        },
        {
          "name": "_forum",
          "type": "bytes32"
        },
        {
          "name": "_postId",
          "type": "bytes32"
        },
        {
          "name": "_comment",
          "type": "bytes32"
        },
        {
          "name": "_targetId",
          "type": "bytes32"
        }
      ],
      "name": "createComment",
      "outputs": [],
      "payable": true,
      "stateMutability": "payable",
      "type": "function",
      "signature": "0xaefd8000"
    },
    {
      "constant": false,
      "inputs": [
        {
          "name": "_user",
          "type": "bytes32"
        },
        {
          "name": "_forum",
          "type": "bytes32"
        },
        {
          "name": "_postId",
          "type": "bytes32"
        },
        {
          "name": "_commentId",
          "type": "bytes32"
        }
      ],
      "name": "deleteComment",
      "outputs": [],
      "payable": false,
      "stateMutability": "nonpayable",
      "type": "function",
      "signature": "0x8963cd8d"
    },
    {
      "constant": false,
      "inputs": [
        {
          "name": "_user",
          "type": "bytes32"
        },
        {
          "name": "_forum",
          "type": "bytes32"
        },
        {
          "name": "_targetUser",
          "type": "bytes32"
        },
        {
          "name": "_ban",
          "type": "bool"
        },
        {
          "name": "_editInfo",
          "type": "bool"
        },
        {
          "name": "_editModerators",
          "type": "bool"
        },
        {
          "name": "_editPost",
          "type": "bool"
        }
      ],
      "name": "createModerator",
      "outputs": [],
      "payable": false,
      "stateMutability": "nonpayable",
      "type": "function",
      "signature": "0x147363f5"
    },
    {
      "constant": false,
      "inputs": [
        {
          "name": "_user",
          "type": "bytes32"
        },
        {
          "name": "_targetUser",
          "type": "bytes32"
        },
        {
          "name": "_forum",
          "type": "bytes32"
        }
      ],
      "name": "removeModerator",
      "outputs": [],
      "payable": false,
      "stateMutability": "nonpayable",
      "type": "function",
      "signature": "0xd3dde4a3"
    },
    {
      "constant": false,
      "inputs": [
        {
          "name": "_user",
          "type": "bytes32"
        },
        {
          "name": "_forum",
          "type": "bytes32"
        },
        {
          "name": "_rules",
          "type": "bytes32"
        }
      ],
      "name": "setForumRules",
      "outputs": [],
      "payable": false,
      "stateMutability": "nonpayable",
      "type": "function",
      "signature": "0x16ac66fe"
    },
    {
      "constant": false,
      "inputs": [
        {
          "name": "_user",
          "type": "bytes32"
        },
        {
          "name": "_forum",
          "type": "bytes32"
        },
        {
          "name": "_description",
          "type": "bytes32"
        }
      ],
      "name": "setForumDescription",
      "outputs": [],
      "payable": false,
      "stateMutability": "nonpayable",
      "type": "function",
      "signature": "0x03df68ba"
    },
    {
      "constant": false,
      "inputs": [
        {
          "name": "_user",
          "type": "bytes32"
        },
        {
          "name": "_targetUser",
          "type": "bytes32"
        },
        {
          "name": "_forum",
          "type": "bytes32"
        }
      ],
      "name": "banUserForum",
      "outputs": [],
      "payable": false,
      "stateMutability": "nonpayable",
      "type": "function",
      "signature": "0xf677c4fd"
    },
    {
      "constant": false,
      "inputs": [
        {
          "name": "_user",
          "type": "bytes32"
        },
        {
          "name": "_targetUser",
          "type": "bytes32"
        },
        {
          "name": "_forum",
          "type": "bytes32"
        }
      ],
      "name": "unbanUserForum",
      "outputs": [],
      "payable": false,
      "stateMutability": "nonpayable",
      "type": "function",
      "signature": "0x1ba8b7ea"
    },
    {
      "constant": false,
      "inputs": [
        {
          "name": "_user",
          "type": "bytes32"
        },
        {
          "name": "_targetUser",
          "type": "bytes32"
        },
        {
          "name": "_reason",
          "type": "bytes32"
        }
      ],
      "name": "reportUser",
      "outputs": [],
      "payable": false,
      "stateMutability": "nonpayable",
      "type": "function",
      "signature": "0xaaf4edd9"
    },
    {
      "constant": false,
      "inputs": [
        {
          "name": "_user",
          "type": "bytes32"
        },
        {
          "name": "_forum",
          "type": "bytes32"
        },
        {
          "name": "_reason",
          "type": "bytes32"
        }
      ],
      "name": "reportForum",
      "outputs": [],
      "payable": false,
      "stateMutability": "nonpayable",
      "type": "function",
      "signature": "0x84d78178"
    },
    {
      "constant": false,
      "inputs": [
        {
          "name": "_user",
          "type": "bytes32"
        },
        {
          "name": "_forum",
          "type": "bytes32"
        },
        {
          "name": "_postId",
          "type": "bytes32"
        },
        {
          "name": "_reason",
          "type": "bytes32"
        }
      ],
      "name": "reportPost",
      "outputs": [],
      "payable": false,
      "stateMutability": "nonpayable",
      "type": "function",
      "signature": "0x596c7c86"
    },
    {
      "constant": false,
      "inputs": [
        {
          "name": "_user",
          "type": "bytes32"
        },
        {
          "name": "_forum",
          "type": "bytes32"
        },
        {
          "name": "_postId",
          "type": "bytes32"
        },
        {
          "name": "_commentId",
          "type": "bytes32"
        },
        {
          "name": "_reason",
          "type": "bytes32"
        }
      ],
      "name": "reportComment",
      "outputs": [],
      "payable": false,
      "stateMutability": "nonpayable",
      "type": "function",
      "signature": "0xe38abf4c"
    },
    {
      "constant": false,
      "inputs": [
        {
          "name": "_user",
          "type": "bytes32"
        },
        {
          "name": "_targetUser",
          "type": "bytes32"
        },
        {
          "name": "_ban",
          "type": "bool"
        },
        {
          "name": "_setCost",
          "type": "bool"
        },
        {
          "name": "_editAdmin",
          "type": "bool"
        },
        {
          "name": "_deletePost",
          "type": "bool"
        },
        {
          "name": "_deleteComment",
          "type": "bool"
        },
        {
          "name": "_deleteForum",
          "type": "bool"
        }
      ],
      "name": "createAdmin",
      "outputs": [],
      "payable": false,
      "stateMutability": "nonpayable",
      "type": "function",
      "signature": "0x24135cad"
    },
    {
      "constant": false,
      "inputs": [
        {
          "name": "_user",
          "type": "bytes32"
        },
        {
          "name": "_targetUser",
          "type": "bytes32"
        }
      ],
      "name": "removeAdmin",
      "outputs": [],
      "payable": false,
      "stateMutability": "nonpayable",
      "type": "function",
      "signature": "0xba6a8121"
    },
    {
      "constant": false,
      "inputs": [
        {
          "name": "_user",
          "type": "bytes32"
        },
        {
          "name": "_targetUser",
          "type": "bytes32"
        }
      ],
      "name": "banUserTartarus",
      "outputs": [],
      "payable": false,
      "stateMutability": "nonpayable",
      "type": "function",
      "signature": "0x7725b111"
    },
    {
      "constant": false,
      "inputs": [
        {
          "name": "_user",
          "type": "bytes32"
        },
        {
          "name": "_targetUser",
          "type": "bytes32"
        }
      ],
      "name": "unbanUserTartarus",
      "outputs": [],
      "payable": false,
      "stateMutability": "nonpayable",
      "type": "function",
      "signature": "0xea34d123"
    },
    {
      "constant": false,
      "inputs": [
        {
          "name": "_user",
          "type": "bytes32"
        },
        {
          "name": "_newCost",
          "type": "uint256"
        }
      ],
      "name": "setCreateUserCost",
      "outputs": [],
      "payable": false,
      "stateMutability": "nonpayable",
      "type": "function",
      "signature": "0x861ac9b9"
    },
    {
      "constant": false,
      "inputs": [
        {
          "name": "_user",
          "type": "bytes32"
        },
        {
          "name": "_newCost",
          "type": "uint256"
        }
      ],
      "name": "setCreateForumCost",
      "outputs": [],
      "payable": false,
      "stateMutability": "nonpayable",
      "type": "function",
      "signature": "0xdde9bcf9"
    },
    {
      "constant": false,
      "inputs": [
        {
          "name": "_user",
          "type": "bytes32"
        },
        {
          "name": "_newCost",
          "type": "uint256"
        }
      ],
      "name": "setCreatePostCost",
      "outputs": [],
      "payable": false,
      "stateMutability": "nonpayable",
      "type": "function",
      "signature": "0x959cacf6"
    },
    {
      "constant": false,
      "inputs": [
        {
          "name": "_user",
          "type": "bytes32"
        },
        {
          "name": "_newCost",
          "type": "uint256"
        }
      ],
      "name": "setCreateCommentCost",
      "outputs": [],
      "payable": false,
      "stateMutability": "nonpayable",
      "type": "function",
      "signature": "0x9880af2c"
    },
    {
      "constant": false,
      "inputs": [
        {
          "name": "_user",
          "type": "bytes32"
        },
        {
          "name": "_newCost",
          "type": "uint256"
        }
      ],
      "name": "setVoteCost",
      "outputs": [],
      "payable": false,
      "stateMutability": "nonpayable",
      "type": "function",
      "signature": "0xc11741dc"
    }
  ],
  "bytecode": "0x6080604052666a94d74f430000600755666a94d74f430000600855660110d9316ec000600955655af3107a4000600a55655af3107a4000600b556000600c553480156200004b57600080fd5b506040516200577238038062005772833981018060405260208110156200007157600080fd5b8101908080516401000000008111156200008a57600080fd5b820160208101848111156200009e57600080fd5b8151640100000000811182820187101715620000b957600080fd5b50506000805433600160a060020a031991821681179091161790559250620000ee91508290506401000000006200030f810204565b15156200015c57604080517f08c379a000000000000000000000000000000000000000000000000000000000815260206004820152601060248201527f496e76616c696420757365726e616d6500000000000000000000000000000000604482015290519081900360640190fd5b60006200017282640100000000620005d0810204565b90506200017e620005f2565b81815233602080830191825242604080850191825260008681526003909352909120835181559151600183018054600160a060020a031916600160a060020a0390921691909117905551600290910155620001d862000612565b600180825260208083018281526040808501848152606086018581526080870186815260a0880187815260008b815297875296849020885181549651945193519251985160ff199097169015151761ff001916610100941515949094029390931762ff0000191662010000921515929092029190911763ff00000019166301000000911515919091021764ff000000001916640100000000951515959095029490941765ff00000000001916650100000000009215159290920291909117909255815185815291517f0808387569c40466c01100158dd3d6f79cdbd57e12063e1d81d1cd818d9639cd9281900390910190a1604080518481526020810185905281517fbc30cbfc6abd2a086b48ab1384c409a88b53f37c0e96467ebcc0ac853262a6c8929181900390910190a15050505062000647565b6000606082905060158151118062000328575060038151105b1562000339576000915050620005cb565b60005b8151811015620005c457600082828151811015156200035757fe5b01602001517f0100000000000000000000000000000000000000000000000000000000000000908190040290507f30000000000000000000000000000000000000000000000000000000000000007fff000000000000000000000000000000000000000000000000000000000000008216108015906200041957507f39000000000000000000000000000000000000000000000000000000000000007fff00000000000000000000000000000000000000000000000000000000000000821611155b158015620004b957507f41000000000000000000000000000000000000000000000000000000000000007fff00000000000000000000000000000000000000000000000000000000000000821610801590620004b757507f5a000000000000000000000000000000000000000000000000000000000000007fff00000000000000000000000000000000000000000000000000000000000000821611155b155b80156200055857507f61000000000000000000000000000000000000000000000000000000000000007fff000000000000000000000000000000000000000000000000000000000000008216108015906200055657507f7a000000000000000000000000000000000000000000000000000000000000007fff00000000000000000000000000000000000000000000000000000000000000821611155b155b8015620005a757507f5f000000000000000000000000000000000000000000000000000000000000007fff00000000000000000000000000000000000000000000000000000000000000821614155b15620005ba5760009350505050620005cb565b506001016200033c565b5060019150505b919050565b805160009082901515620005e9575060009050620005cb565b50506020015190565b604080516060810182526000808252602082018190529181019190915290565b6040805160c081018252600080825260208201819052918101829052606081018290526080810182905260a081019190915290565b61511b80620006576000396000f3fe6080604052600436106102b0576000357c010000000000000000000000000000000000000000000000000000000090048063aaf4edd911610177578063dca259cb116100de578063f2fde38b11610097578063f2fde38b14610d52578063f677c4fd14610d85578063fb11871714610dbb578063fc6c245514610e10578063fce7cf6814610e40578063ff24ba0414610e55576102b0565b8063dca259cb14610c15578063dde9bcf914610c3f578063dff72dec14610c6f578063e38abf4c14610ccb578063ea34d12314610d0d578063f004a35e14610d3d576102b0565b8063cea6ab9811610130578063cea6ab9814610a4f578063cfb5192814610a9f578063d050d57214610b52578063d079661b14610b67578063d3dde4a314610bca578063db468cb414610c00576102b0565b8063aaf4edd914610939578063aefd80001461096f578063af1787b2146109a4578063affed0e0146109da578063ba6a8121146109ef578063c11741dc14610a1f576102b0565b80635cdc5b6c1161021b578063861ac9b9116101d4578063861ac9b9146107755780638963cd8d146107a55780638da5cb5b146107e1578063959cacf6146108125780639880af2c146108425780639ffdb65a14610872576102b0565b80635cdc5b6c1461065f57806361aebc94146106955780636f8dcb3d146106e5578063715018a6146106fa5780637725b1111461070f57806384d781781461073f576102b0565b806324135cad1161026d57806324135cad1461048a57806332124137146104eb5780633bd967651461051a5780634c1b8ffd14610556578063507ffba51461057d578063596c7c8614610623576102b0565b806303df68ba146102b557806305a674e3146102ed578063147363f51461039f578063157449a4146103f557806316ac66fe1461041e5780631ba8b7ea14610454575b600080fd5b3480156102c157600080fd5b506102eb600480360360608110156102d857600080fd5b5080359060208101359060400135610e7e565b005b6102eb6004803603608081101561030357600080fd5b8135919081019060408101602082013564010000000081111561032557600080fd5b82018360208201111561033757600080fd5b8035906020019184600183028401116401000000008311171561035957600080fd5b91908080601f016020809104026020016040519081016040528093929190818152602001838380828437600092019190915250929550508235935050506020013561102c565b3480156103ab57600080fd5b506102eb600480360360e08110156103c257600080fd5b508035906020810135906040810135906060810135151590608081013515159060a081013515159060c00135151561139a565b6102eb6004803603606081101561040b57600080fd5b508035906020810135906040013561170b565b34801561042a57600080fd5b506102eb6004803603606081101561044157600080fd5b508035906020810135906040013561194d565b34801561046057600080fd5b506102eb6004803603606081101561047757600080fd5b5080359060208101359060400135611afb565b34801561049657600080fd5b506102eb60048036036101008110156104ae57600080fd5b5080359060208101359060408101351515906060810135151590608081013515159060a081013515159060c081013515159060e001351515611d40565b6102eb6004803603608081101561050157600080fd5b5080359060208101359060408101359060600135612010565b34801561052657600080fd5b506102eb6004803603608081101561053d57600080fd5b508035906020810135906040810135906060013561227a565b34801561056257600080fd5b5061056b612512565b60408051918252519081900360200190f35b6102eb6004803603602081101561059357600080fd5b8101906020810181356401000000008111156105ae57600080fd5b8201836020820111156105c057600080fd5b803590602001918460018302840111640100000000831117156105e257600080fd5b91908080601f016020809104026020016040519081016040528093929190818152602001838380828437600092019190915250929550612518945050505050565b34801561062f57600080fd5b506102eb6004803603608081101561064657600080fd5b50803590602081013590604081013590606001356126dd565b34801561066b57600080fd5b506102eb6004803603606081101561068257600080fd5b50803590602081013590604001356128ad565b3480156106a157600080fd5b506106bf600480360360208110156106b857600080fd5b5035612afe565b604080519485526020850193909352838301919091526060830152519081900360800190f35b3480156106f157600080fd5b5061056b612b25565b34801561070657600080fd5b506102eb612b6c565b34801561071b57600080fd5b506102eb6004803603604081101561073257600080fd5b5080359060200135612bd8565b34801561074b57600080fd5b506102eb6004803603606081101561076257600080fd5b5080359060208101359060400135612dd2565b34801561078157600080fd5b506102eb6004803603604081101561079857600080fd5b5080359060200135612f49565b3480156107b157600080fd5b506102eb600480360360808110156107c857600080fd5b5080359060208101359060408101359060600135613033565b3480156107ed57600080fd5b506107f661328c565b60408051600160a060020a039092168252519081900360200190f35b34801561081e57600080fd5b506102eb6004803603604081101561083557600080fd5b508035906020013561329b565b34801561084e57600080fd5b506102eb6004803603604081101561086557600080fd5b5080359060200135613385565b34801561087e57600080fd5b506109256004803603602081101561089557600080fd5b8101906020810181356401000000008111156108b057600080fd5b8201836020820111156108c257600080fd5b803590602001918460018302840111640100000000831117156108e457600080fd5b91908080601f01602080910402602001604051908101604052809392919081815260200183838082843760009201919091525092955061346f945050505050565b604080519115158252519081900360200190f35b34801561094557600080fd5b506102eb6004803603606081101561095c57600080fd5b508035906020810135906040013561367a565b6102eb600480360360a081101561098557600080fd5b50803590602081013590604081013590606081013590608001356137fa565b3480156109b057600080fd5b506102eb600480360360608110156109c757600080fd5b5080359060208101359060400135613b48565b3480156109e657600080fd5b5061056b613d23565b3480156109fb57600080fd5b506102eb60048036036040811015610a1257600080fd5b5080359060200135613d29565b348015610a2b57600080fd5b506102eb60048036036040811015610a4257600080fd5b5080359060200135613ecb565b348015610a5b57600080fd5b50610a7960048036036020811015610a7257600080fd5b5035613fb5565b60408051938452600160a060020a03909216602084015282820152519081900360600190f35b348015610aab57600080fd5b5061056b60048036036020811015610ac257600080fd5b810190602081018135640100000000811115610add57600080fd5b820183602082011115610aef57600080fd5b80359060200191846001830284011164010000000083111715610b1157600080fd5b91908080601f016020809104026020016040519081016040528093929190818152602001838380828437600092019190915250929550613fdf945050505050565b348015610b5e57600080fd5b5061056b613fff565b348015610b7357600080fd5b50610b9160048036036020811015610b8a57600080fd5b5035614005565b604080519615158752941515602087015292151585850152901515606085015215156080840152151560a0830152519081900360c00190f35b348015610bd657600080fd5b506102eb60048036036060811015610bed57600080fd5b508035906020810135906040013561404d565b348015610c0c57600080fd5b5061056b61425f565b348015610c2157600080fd5b5061092560048036036020811015610c3857600080fd5b5035614265565b348015610c4b57600080fd5b506102eb60048036036040811015610c6257600080fd5b508035906020013561427a565b348015610c7b57600080fd5b50610c9960048036036020811015610c9257600080fd5b5035614364565b60408051958652602086019490945284840192909252600390810b900b60608401526080830152519081900360a00190f35b348015610cd757600080fd5b506102eb600480360360a0811015610cee57600080fd5b5080359060208101359060408101359060608101359060800135614396565b348015610d1957600080fd5b506102eb60048036036040811015610d3057600080fd5b5080359060200135614582565b348015610d4957600080fd5b5061056b614744565b348015610d5e57600080fd5b506102eb60048036036020811015610d7557600080fd5b5035600160a060020a031661474a565b348015610d9157600080fd5b506102eb60048036036060811015610da857600080fd5b508035906020810135906040013561476d565b348015610dc757600080fd5b50610de560048036036020811015610dde57600080fd5b50356149e9565b6040805195865260208601949094528484019290925260608401526080830152519081900360a00190f35b348015610e1c57600080fd5b506102eb60048036036040811015610e3357600080fd5b5080359060200135614a19565b348015610e4c57600080fd5b5061056b614bea565b6102eb60048036036060811015610e6b57600080fd5b5080359060208101359060400135614bf0565b6000838152600360205260409020600101548390600160a060020a031615801590610ec25750600081815260036020526040902060010154600160a060020a031633145b1515610f06576040805160e560020a62461bcd0281526020600482015260116024820152600080516020615010833981519152604482015290519081900360640190fd5b60008381526004602052604090206003015483901515610f5e576040805160e560020a62461bcd02815260206004820152601460248201526000805160206150d0833981519152604482015290519081900360640190fd5b6000848152600460209081526040808320888452600601909152902054610100900460ff161515610fc7576040805160e560020a62461bcd02815260206004820152601d6024820152600080516020615090833981519152604482015290519081900360640190fd5b600084815260046020908152604091829020600201548251908152908101859052815186927fca07a10a42fa4956137275617915b0aec6900d200e59829f5f9545f43aae7bf9928290030190a250506000918252600460205260409091206002015550565b6000848152600360205260409020600101548490600160a060020a0316158015906110705750600081815260036020526040902060010154600160a060020a031633145b15156110b4576040805160e560020a62461bcd0281526020600482015260116024820152600080516020615010833981519152604482015290519081900360640190fd5b600854348111156110fd576040805160e560020a62461bcd0281526020600482015260156024820152600080516020615050833981519152604482015290519081900360640190fd5b60008681526002602052604090205460ff1615611152576040805160e560020a62461bcd02815260206004820152600b60248201526000805160206150b0833981519152604482015290519081900360640190fd5b61115b8561346f565b15156111b1576040805160e560020a62461bcd02815260206004820152601260248201527f496e76616c696420666f72756d206e616d650000000000000000000000000000604482015290519081900360640190fd5b60006111bc86613fdf565b60008181526004602052604090206003015490915015611226576040805160e560020a62461bcd02815260206004820152601460248201527f466f72756d20616c726561647920657869737473000000000000000000000000604482015290519081900360640190fd5b61122e614eaf565b81815260208101869052604080820186905260608201899052426080808401919091528151600380825291810190925281602001602082028038833950505060a0820190815260008381526004602081815260409283902085518155818601516001820155928501516002840155606085015160038401556080850151918301919091559151805184936112c9926005850192910190614ee6565b509050506112d5614f31565b600180825260208083018281526040808501848152606086019485526000888152600485528281208f825260060185528290208651815494519251965160ff199095169015151761ff001916610100921515929092029190911762ff0000191662010000951515959095029490941763ff000000191663010000009215159290920291909117909255815185815291517f373bb9e035604ae9212e933aabdc815a0e94eed18cad9208b5c7b07180a3fef59281900390910190a1505050505050505050565b6000878152600360205260409020600101548790600160a060020a0316158015906113de5750600081815260036020526040902060010154600160a060020a031633145b1515611422576040805160e560020a62461bcd0281526020600482015260116024820152600080516020615010833981519152604482015290519081900360640190fd5b6000868152600360205260409020600101548690600160a060020a03161515611483576040805160e560020a62461bcd0281526020600482015260136024820152600080516020615030833981519152604482015290519081900360640190fd5b600088815260046020526040902060030154889015156114db576040805160e560020a62461bcd02815260206004820152601460248201526000805160206150d0833981519152604482015290519081900360640190fd5b60008881526002602052604090205488908a9060ff1615801561151b5750600081815260046020908152604080832085845260070190915290205460ff16155b151561155f576040805160e560020a62461bcd02815260206004820152600b60248201526000805160206150b0833981519152604482015290519081900360640190fd5b60008b81526004602090815260408083208f845260060190915290205462010000900460ff1615156115c9576040805160e560020a62461bcd02815260206004820152601d6024820152600080516020615090833981519152604482015290519081900360640190fd5b6115d1614f31565b8981600001901515908115158152505088816020019015159081151581525050878160400190151590811515815250508681606001901515908115158152505080600460008e815260200190815260200160002060060160008f815260200190815260200160002060008201518160000160006101000a81548160ff02191690831515021790555060208201518160000160016101000a81548160ff02191690831515021790555060408201518160000160026101000a81548160ff02191690831515021790555060608201518160000160036101000a81548160ff0219169083151502179055509050508b7f0804eec0a3287e50c034eb19982c6594ff8804472056febb03b3b6a3a8940c108e8d604051808381526020018281526020019250505060405180910390a250505050505050505050505050565b6000828152600360205260409020600101548290600160a060020a03161580159061174f5750600081815260036020526040902060010154600160a060020a031633145b1515611793576040805160e560020a62461bcd0281526020600482015260116024820152600080516020615010833981519152604482015290519081900360640190fd5b600084815260046020526040902060030154849015156117eb576040805160e560020a62461bcd02815260206004820152601460248201526000805160206150d0833981519152604482015290519081900360640190fd5b6000848152600260205260409020548490869060ff1615801561182b5750600081815260046020908152604080832085845260070190915290205460ff16155b151561186f576040805160e560020a62461bcd02815260206004820152600b60248201526000805160206150b0833981519152604482015290519081900360640190fd5b600085815260056020526040902060020154859015156118c7576040805160e560020a62461bcd0281526020600482015260136024820152600080516020615070833981519152604482015290519081900360640190fd5b600b5434811115611910576040805160e560020a62461bcd0281526020600482015260156024820152600080516020615050833981519152604482015290519081900360640190fd5b50505060009384525050600560205250604090206003908101805480830b60010190920b63ffffffff1663ffffffff199092169190911790555050565b6000838152600360205260409020600101548390600160a060020a0316158015906119915750600081815260036020526040902060010154600160a060020a031633145b15156119d5576040805160e560020a62461bcd0281526020600482015260116024820152600080516020615010833981519152604482015290519081900360640190fd5b60008381526004602052604090206003015483901515611a2d576040805160e560020a62461bcd02815260206004820152601460248201526000805160206150d0833981519152604482015290519081900360640190fd5b6000848152600460209081526040808320888452600601909152902054610100900460ff161515611a96576040805160e560020a62461bcd02815260206004820152601d6024820152600080516020615090833981519152604482015290519081900360640190fd5b600084815260046020908152604091829020600101548251908152908101859052815186927fefa09da76d099bbdbf6b9ff30c5ba11e9c920b01165e512ffce791bd2dd94746928290030190a250506000918252600460205260409091206001015550565b6000838152600360205260409020600101548390600160a060020a031615801590611b3f5750600081815260036020526040902060010154600160a060020a031633145b1515611b83576040805160e560020a62461bcd0281526020600482015260116024820152600080516020615010833981519152604482015290519081900360640190fd5b6000838152600360205260409020600101548390600160a060020a03161515611be4576040805160e560020a62461bcd0281526020600482015260136024820152600080516020615030833981519152604482015290519081900360640190fd5b60008381526004602052604090206003015483901515611c3c576040805160e560020a62461bcd02815260206004820152601460248201526000805160206150d0833981519152604482015290519081900360640190fd5b600084815260046020908152604080832088845260070190915290205460ff161515611cb2576040805160e560020a62461bcd02815260206004820152601660248201527f5461726765742075736572206e6f742062616e6e656400000000000000000000604482015290519081900360640190fd5b600084815260046020908152604080832089845260060190915290205460ff161515611d16576040805160e560020a62461bcd02815260206004820152601d6024820152600080516020615090833981519152604482015290519081900360640190fd5b50505060009081526004602090815260408083209383526007909301905220805460ff1916905550565b6000888152600360205260409020600101548890600160a060020a031615801590611d845750600081815260036020526040902060010154600160a060020a031633145b1515611dc8576040805160e560020a62461bcd0281526020600482015260116024820152600080516020615010833981519152604482015290519081900360640190fd5b6000888152600360205260409020600101548890600160a060020a03161515611e29576040805160e560020a62461bcd0281526020600482015260136024820152600080516020615030833981519152604482015290519081900360640190fd5b60008a81526001602052604090205462010000900460ff161515611e85576040805160e560020a62461bcd02815260206004820152601d6024820152600080516020615090833981519152604482015290519081900360640190fd5b611e8d614f58565b8881600001901515908115158152505087816020019015159081151581525050868160400190151590811515815250508481606001901515908115158152505085816080019015159081151581525050838160a001901515908115158152505080600160008c815260200190815260200160002060008201518160000160006101000a81548160ff02191690831515021790555060208201518160000160016101000a81548160ff02191690831515021790555060408201518160000160026101000a81548160ff02191690831515021790555060608201518160000160036101000a81548160ff02191690831515021790555060808201518160000160046101000a81548160ff02191690831515021790555060a08201518160000160056101000a81548160ff0219169083151502179055509050507fbc30cbfc6abd2a086b48ab1384c409a88b53f37c0e96467ebcc0ac853262a6c88b8b604051808381526020018281526020019250505060405180910390a15050505050505050505050565b6000848152600360205260409020600101548490600160a060020a0316158015906120545750600081815260036020526040902060010154600160a060020a031633145b1515612098576040805160e560020a62461bcd0281526020600482015260116024820152600080516020615010833981519152604482015290519081900360640190fd5b600084815260046020526040902060030154849015156120f0576040805160e560020a62461bcd02815260206004820152601460248201526000805160206150d0833981519152604482015290519081900360640190fd5b6000868152600260205260409020548690869060ff161580156121305750600081815260046020908152604080832085845260070190915290205460ff16155b1515612174576040805160e560020a62461bcd02815260206004820152600b60248201526000805160206150b0833981519152604482015290519081900360640190fd5b600954348111156121bd576040805160e560020a62461bcd0281526020600482015260156024820152600080516020615050833981519152604482015290519081900360640190fd5b60006121c7612b25565b90506121d1614f8d565b888152602080820189815260408084018e8152426080860190815260008781526005865283902086518155935160018501559051600284015560608501516003808501805463ffffffff191663ffffffff9390920b9290921617905551600490920191909155805184815290518d928d927f429af90a9753bcf2e29810ac61fec0881ff36b9814cf918c1ca59dbd04f5d019929081900390910190a35050505050505050505050565b6000848152600360205260409020600101548490600160a060020a0316158015906122be5750600081815260036020526040902060010154600160a060020a031633145b1515612302576040805160e560020a62461bcd0281526020600482015260116024820152600080516020615010833981519152604482015290519081900360640190fd5b6000848152600460205260409020600301548490151561235a576040805160e560020a62461bcd02815260206004820152601460248201526000805160206150d0833981519152604482015290519081900360640190fd5b6000868152600260205260409020548690869060ff1615801561239a5750600081815260046020908152604080832085845260070190915290205460ff16155b15156123de576040805160e560020a62461bcd02815260206004820152600b60248201526000805160206150b0833981519152604482015290519081900360640190fd5b60008681526005602052604090206002015486901515612436576040805160e560020a62461bcd0281526020600482015260136024820152600080516020615070833981519152604482015290519081900360640190fd5b60008881526004602090815260408083208c84526006019091529020546301000000900460ff1615156124a1576040805160e560020a62461bcd02815260206004820152601d6024820152600080516020615090833981519152604482015290519081900360640190fd5b60008881526004602052604090206005018054889190889081106124c157fe5b9060005260206000200181905550877ff7c180ca7bd206f54291f3f943af129cd33dafa8e7aae3682e7bef3c54e4f409886040518082815260200191505060405180910390a2505050505050505050565b600b5481565b60075434811115612561576040805160e560020a62461bcd0281526020600482015260156024820152600080516020615050833981519152604482015290519081900360640190fd5b61256a8261346f565b15156125c0576040805160e560020a62461bcd02815260206004820152601060248201527f496e76616c696420757365726e616d6500000000000000000000000000000000604482015290519081900360640190fd5b60006125cb83613fdf565b600081815260036020526040902060010154909150600160a060020a03161561263e576040805160e560020a62461bcd02815260206004820152601660248201527f557365726e616d6520616c726561647920657869737400000000000000000000604482015290519081900360640190fd5b612646614fbb565b81815233602080830191825242604080850191825260008681526003845281902085518155935160018501805473ffffffffffffffffffffffffffffffffffffffff1916600160a060020a039092169190911790559051600290930192909255815184815291517f0808387569c40466c01100158dd3d6f79cdbd57e12063e1d81d1cd818d9639cd9281900390910190a150505050565b6000848152600360205260409020600101548490600160a060020a0316158015906127215750600081815260036020526040902060010154600160a060020a031633145b1515612765576040805160e560020a62461bcd0281526020600482015260116024820152600080516020615010833981519152604482015290519081900360640190fd5b600084815260046020526040902060030154849015156127bd576040805160e560020a62461bcd02815260206004820152601460248201526000805160206150d0833981519152604482015290519081900360640190fd5b60008481526005602052604090206002015484901515612815576040805160e560020a62461bcd0281526020600482015260136024820152600080516020615070833981519152604482015290519081900360640190fd5b60008781526002602052604090205460ff161561286a576040805160e560020a62461bcd02815260206004820152600b60248201526000805160206150b0833981519152604482015290519081900360640190fd5b6040805186815260208101869052815188927f1d763530a57993a6cc26dcbb543eaafe2e430aef6c8d9fc8f44ba567d68576b4928290030190a250505050505050565b6000838152600360205260409020600101548390600160a060020a0316158015906128f15750600081815260036020526040902060010154600160a060020a031633145b1515612935576040805160e560020a62461bcd0281526020600482015260116024820152600080516020615010833981519152604482015290519081900360640190fd5b6000838152600460205260409020600301548390151561298d576040805160e560020a62461bcd02815260206004820152601460248201526000805160206150d0833981519152604482015290519081900360640190fd5b600083815260056020526040902060020154839015156129e5576040805160e560020a62461bcd0281526020600482015260136024820152600080516020615070833981519152604482015290519081900360640190fd5b600086815260016020526040902054640100000000900460ff1680612a2d575060008581526004602090815260408083208984526006019091529020546301000000900460ff165b80612a48575060008481526005602052604090206002015486145b1515612a8c576040805160e560020a62461bcd02815260206004820152601d6024820152600080516020615090833981519152604482015290519081900360640190fd5b6000848152600560209081526040808320838155600181018490556002810184905560038101805463ffffffff19169055600401929092558151868152915187927f8f08fe61c843deac76774dd02241930e043737b24295697d71d5f47795f8e38992908290030190a2505050505050565b60066020526000908152604090208054600182015460028301546003909301549192909184565b600c80546001019081905560408051602080820193909352428183015260001943014060608083019190915282518083039091018152608090910190915280519101205b90565b600054600160a060020a03163314612b8357600080fd5b60008054604051600160a060020a03909116917ff8df31144d9c2f0f6b59d69b8b98abd5459d07f2742c4df920b25aae33c6482091a26000805473ffffffffffffffffffffffffffffffffffffffff19169055565b6000828152600360205260409020600101548290600160a060020a031615801590612c1c5750600081815260036020526040902060010154600160a060020a031633145b1515612c60576040805160e560020a62461bcd0281526020600482015260116024820152600080516020615010833981519152604482015290519081900360640190fd5b6000828152600360205260409020600101548290600160a060020a03161515612cc1576040805160e560020a62461bcd0281526020600482015260136024820152600080516020615030833981519152604482015290519081900360640190fd5b60008481526001602052604090205460ff161515612d17576040805160e560020a62461bcd02815260206004820152601d6024820152600080516020615090833981519152604482015290519081900360640190fd5b60008381526002602052604090205460ff1615612d7e576040805160e560020a62461bcd02815260206004820152601660248201527f5573657220697320616c72656164792062616e6e656400000000000000000000604482015290519081900360640190fd5b600083815260026020908152604091829020805460ff19166001179055815186815291517f3a3ca8598551b784b28e5b6d4a6d2f2dbcea8335783e1fb62f8023d21cb955b99281900390910190a150505050565b6000838152600360205260409020600101548390600160a060020a031615801590612e165750600081815260036020526040902060010154600160a060020a031633145b1515612e5a576040805160e560020a62461bcd0281526020600482015260116024820152600080516020615010833981519152604482015290519081900360640190fd5b60008381526004602052604090206003015483901515612eb2576040805160e560020a62461bcd02815260206004820152601460248201526000805160206150d0833981519152604482015290519081900360640190fd5b60008581526002602052604090205460ff1615612f07576040805160e560020a62461bcd02815260206004820152600b60248201526000805160206150b0833981519152604482015290519081900360640190fd5b604080518581526020810185905281517f870e871839dc020700465b1a477176917d6c99a74dab883537a6329787eca6ec929181900390910190a15050505050565b6000828152600360205260409020600101548290600160a060020a031615801590612f8d5750600081815260036020526040902060010154600160a060020a031633145b1515612fd1576040805160e560020a62461bcd0281526020600482015260116024820152600080516020615010833981519152604482015290519081900360640190fd5b600083815260016020526040902054610100900460ff16151561302c576040805160e560020a62461bcd02815260206004820152601d6024820152600080516020615090833981519152604482015290519081900360640190fd5b5060075550565b6000848152600360205260409020600101548490600160a060020a0316158015906130775750600081815260036020526040902060010154600160a060020a031633145b15156130bb576040805160e560020a62461bcd0281526020600482015260116024820152600080516020615010833981519152604482015290519081900360640190fd5b60008481526004602052604090206003015484901515613113576040805160e560020a62461bcd02815260206004820152601460248201526000805160206150d0833981519152604482015290519081900360640190fd5b6000838152600660205260409020600101548390151561317d576040805160e560020a62461bcd02815260206004820152601660248201527f436f6d6d656e7420646f6573206e6f7420657869737400000000000000000000604482015290519081900360640190fd5b6000878152600160205260409020546301000000900460ff16806131c4575060008681526004602090815260408083208a84526006019091529020546301000000900460ff165b806131df575060008481526006602052604090206001015487145b1515613223576040805160e560020a62461bcd02815260206004820152601d6024820152600080516020615090833981519152604482015290519081900360640190fd5b60008481526006602090815260408083208381556001810184905560028101849055600301929092558151878152908101869052815188927f28a86a57dbad1fbedea22d276ffa7463abbb98339f7ff8b8381cd9d923d17892928290030190a250505050505050565b600054600160a060020a031681565b6000828152600360205260409020600101548290600160a060020a0316158015906132df5750600081815260036020526040902060010154600160a060020a031633145b1515613323576040805160e560020a62461bcd0281526020600482015260116024820152600080516020615010833981519152604482015290519081900360640190fd5b600083815260016020526040902054610100900460ff16151561337e576040805160e560020a62461bcd02815260206004820152601d6024820152600080516020615090833981519152604482015290519081900360640190fd5b5060095550565b6000828152600360205260409020600101548290600160a060020a0316158015906133c95750600081815260036020526040902060010154600160a060020a031633145b151561340d576040805160e560020a62461bcd0281526020600482015260116024820152600080516020615010833981519152604482015290519081900360640190fd5b600083815260016020526040902054610100900460ff161515613468576040805160e560020a62461bcd02815260206004820152601d6024820152600080516020615090833981519152604482015290519081900360640190fd5b50600a5550565b60006060829050601581511180613487575060038151105b15613496576000915050613675565b60005b815181101561366e57600082828151811015156134b257fe5b01602001517f0100000000000000000000000000000000000000000000000000000000000000908190040290507f3000000000000000000000000000000000000000000000000000000000000000600160f860020a031982161080159061354357507f3900000000000000000000000000000000000000000000000000000000000000600160f860020a0319821611155b1580156135b157507f4100000000000000000000000000000000000000000000000000000000000000600160f860020a03198216108015906135af57507f5a00000000000000000000000000000000000000000000000000000000000000600160f860020a0319821611155b155b801561361e57507f6100000000000000000000000000000000000000000000000000000000000000600160f860020a031982161080159061361c57507f7a00000000000000000000000000000000000000000000000000000000000000600160f860020a0319821611155b155b801561365457507f5f00000000000000000000000000000000000000000000000000000000000000600160f860020a0319821614155b156136655760009350505050613675565b50600101613499565b5060019150505b919050565b6000838152600360205260409020600101548390600160a060020a0316158015906136be5750600081815260036020526040902060010154600160a060020a031633145b1515613702576040805160e560020a62461bcd0281526020600482015260116024820152600080516020615010833981519152604482015290519081900360640190fd5b6000838152600360205260409020600101548390600160a060020a03161515613763576040805160e560020a62461bcd0281526020600482015260136024820152600080516020615030833981519152604482015290519081900360640190fd5b60008581526002602052604090205460ff16156137b8576040805160e560020a62461bcd02815260206004820152600b60248201526000805160206150b0833981519152604482015290519081900360640190fd5b604080518681526020810185905281517f90cff83c58dbbcc6d953b0210c9ede5033a38f64e55792d4a7300f1d6220b7b3929181900390910190a15050505050565b6000858152600360205260409020600101548590600160a060020a03161580159061383e5750600081815260036020526040902060010154600160a060020a031633145b1515613882576040805160e560020a62461bcd0281526020600482015260116024820152600080516020615010833981519152604482015290519081900360640190fd5b600085815260046020526040902060030154859015156138da576040805160e560020a62461bcd02815260206004820152601460248201526000805160206150d0833981519152604482015290519081900360640190fd5b6000878152600260205260409020548790879060ff1615801561391a5750600081815260046020908152604080832085845260070190915290205460ff16155b151561395e576040805160e560020a62461bcd02815260206004820152600b60248201526000805160206150b0833981519152604482015290519081900360640190fd5b600087815260056020526040902060020154879015156139b6576040805160e560020a62461bcd0281526020600482015260136024820152600080516020615070833981519152604482015290519081900360640190fd5b600a54348111156139ff576040805160e560020a62461bcd0281526020600482015260156024820152600080516020615050833981519152604482015290519081900360640190fd5b600087815260056020526040902060020154151580613a2e575060008781526006602052604090206001015415155b1515613a84576040805160e560020a62461bcd02815260206004820152601560248201527f54617267657420646f6573206e6f742065786973740000000000000000000000604482015290519081900360640190fd5b6000613a8e612b25565b9050613a98614f31565b898160000181815250508c8160200181815250508881604001818152505042816060018181525050806006600084815260200190815260200160002060008201518160000155602082015181600101556040820151816002015560608201518160030155905050888d8c7f26137cf2a755cd72889bec726cf05a8d5975f7bb861bc67a11f008008e49627c856040518082815260200191505060405180910390a450505050505050505050505050565b6000838152600360205260409020600101548390600160a060020a031615801590613b8c5750600081815260036020526040902060010154600160a060020a031633145b1515613bd0576040805160e560020a62461bcd0281526020600482015260116024820152600080516020615010833981519152604482015290519081900360640190fd5b60008381526004602052604090206003015483901515613c28576040805160e560020a62461bcd02815260206004820152601460248201526000805160206150d0833981519152604482015290519081900360640190fd5b60008481526004602090815260408083208884526006019091529020546301000000900460ff161515613c93576040805160e560020a62461bcd02815260206004820152601d6024820152600080516020615090833981519152604482015290519081900360640190fd5b6000848152600460205260409020600501805485917fe31482f4029892a074b7c9091ea285f08eb4524049def9f9ce6910a3e5408fc99186908110613cd457fe5b90600052602060002001546040518082815260200191505060405180910390a26000848152600460205260409020600501805484908110613d1157fe5b60009182526020822001555050505050565b600c5481565b6000828152600360205260409020600101548290600160a060020a031615801590613d6d5750600081815260036020526040902060010154600160a060020a031633145b1515613db1576040805160e560020a62461bcd0281526020600482015260116024820152600080516020615010833981519152604482015290519081900360640190fd5b6000828152600360205260409020600101548290600160a060020a03161515613e12576040805160e560020a62461bcd0281526020600482015260136024820152600080516020615030833981519152604482015290519081900360640190fd5b60008481526001602052604090205462010000900460ff161515613e6e576040805160e560020a62461bcd02815260206004820152601d6024820152600080516020615090833981519152604482015290519081900360640190fd5b600083815260016020908152604091829020805465ffffffffffff19169055815186815290810185905281517fa175af4e7ecafece171c2baf33ffca625b59616fd8984cb0d36abbb9de86e02b929181900390910190a150505050565b6000828152600360205260409020600101548290600160a060020a031615801590613f0f5750600081815260036020526040902060010154600160a060020a031633145b1515613f53576040805160e560020a62461bcd0281526020600482015260116024820152600080516020615010833981519152604482015290519081900360640190fd5b600083815260016020526040902054610100900460ff161515613fae576040805160e560020a62461bcd02815260206004820152601d6024820152600080516020615090833981519152604482015290519081900360640190fd5b50600b5550565b6003602052600090815260409020805460018201546002909201549091600160a060020a03169083565b805160009082901515613ff6575060009050613675565b50506020015190565b60085481565b60016020526000908152604090205460ff8082169161010081048216916201000082048116916301000000810482169164010000000082048116916501000000000090041686565b6000838152600360205260409020600101548390600160a060020a0316158015906140915750600081815260036020526040902060010154600160a060020a031633145b15156140d5576040805160e560020a62461bcd0281526020600482015260116024820152600080516020615010833981519152604482015290519081900360640190fd5b6000838152600360205260409020600101548390600160a060020a03161515614136576040805160e560020a62461bcd0281526020600482015260136024820152600080516020615030833981519152604482015290519081900360640190fd5b6000838152600460205260409020600301548390151561418e576040805160e560020a62461bcd02815260206004820152601460248201526000805160206150d0833981519152604482015290519081900360640190fd5b600084815260046020908152604080832089845260060190915290205462010000900460ff1615156141f8576040805160e560020a62461bcd02815260206004820152601d6024820152600080516020615090833981519152604482015290519081900360640190fd5b6000848152600460209081526040808320888452600601825291829020805463ffffffff191690558151888152908101879052815186927f6264a7015915fe5035b205a1eb43eac785f190a39afb68ad34764733697d0fd3928290030190a2505050505050565b60095481565b60026020526000908152604090205460ff1681565b6000828152600360205260409020600101548290600160a060020a0316158015906142be5750600081815260036020526040902060010154600160a060020a031633145b1515614302576040805160e560020a62461bcd0281526020600482015260116024820152600080516020615010833981519152604482015290519081900360640190fd5b600083815260016020526040902054610100900460ff16151561435d576040805160e560020a62461bcd02815260206004820152601d6024820152600080516020615090833981519152604482015290519081900360640190fd5b5060085550565b6005602052600090815260409020805460018201546002830154600380850154600490950154939492939192900b9085565b6000858152600360205260409020600101548590600160a060020a0316158015906143da5750600081815260036020526040902060010154600160a060020a031633145b151561441e576040805160e560020a62461bcd0281526020600482015260116024820152600080516020615010833981519152604482015290519081900360640190fd5b60008581526004602052604090206003015485901515614476576040805160e560020a62461bcd02815260206004820152601460248201526000805160206150d0833981519152604482015290519081900360640190fd5b600084815260066020526040902060010154849015156144e0576040805160e560020a62461bcd02815260206004820152601660248201527f436f6d6d656e7420646f6573206e6f7420657869737400000000000000000000604482015290519081900360640190fd5b60008881526002602052604090205460ff1615614535576040805160e560020a62461bcd02815260206004820152600b60248201526000805160206150b0833981519152604482015290519081900360640190fd5b6040805187815260208101879052808201869052905188917f88955ec1e09cabc487141eb757b7c5c353d64d30d48c31dc3a9f517032a5c3d6919081900360600190a25050505050505050565b6000828152600360205260409020600101548290600160a060020a0316158015906145c65750600081815260036020526040902060010154600160a060020a031633145b151561460a576040805160e560020a62461bcd0281526020600482015260116024820152600080516020615010833981519152604482015290519081900360640190fd5b6000828152600360205260409020600101548290600160a060020a0316151561466b576040805160e560020a62461bcd0281526020600482015260136024820152600080516020615030833981519152604482015290519081900360640190fd5b60008481526001602052604090205460ff1615156146c1576040805160e560020a62461bcd02815260206004820152601d6024820152600080516020615090833981519152604482015290519081900360640190fd5b60008381526002602052604090205460ff161515614729576040805160e560020a62461bcd02815260206004820152601260248201527f55736572206973206e6f742062616e6e65640000000000000000000000000000604482015290519081900360640190fd5b50506000908152600260205260409020805460ff1916905550565b60075481565b600054600160a060020a0316331461476157600080fd5b61476a81614e32565b50565b6000838152600360205260409020600101548390600160a060020a0316158015906147b15750600081815260036020526040902060010154600160a060020a031633145b15156147f5576040805160e560020a62461bcd0281526020600482015260116024820152600080516020615010833981519152604482015290519081900360640190fd5b6000838152600360205260409020600101548390600160a060020a03161515614856576040805160e560020a62461bcd0281526020600482015260136024820152600080516020615030833981519152604482015290519081900360640190fd5b600083815260046020526040902060030154839015156148ae576040805160e560020a62461bcd02815260206004820152601460248201526000805160206150d0833981519152604482015290519081900360640190fd5b600084815260046020908152604080832088845260070190915290205460ff1615614923576040805160e560020a62461bcd02815260206004820152601a60248201527f546172676574207573657220616c72656164792062616e6e6564000000000000604482015290519081900360640190fd5b600084815260046020908152604080832089845260060190915290205460ff161515614987576040805160e560020a62461bcd02815260206004820152601d6024820152600080516020615090833981519152604482015290519081900360640190fd5b6000848152600460209081526040808320888452600701825291829020805460ff191660011790558151888152915186927f12324eb6e1cfcd6a38496d18f9a4402fc1d1c4814ee419561c55fdf69ff12d5692908290030190a2505050505050565b60046020819052600091825260409091208054600182015460028301546003840154939094015491939092909185565b6000828152600360205260409020600101548290600160a060020a031615801590614a5d5750600081815260036020526040902060010154600160a060020a031633145b1515614aa1576040805160e560020a62461bcd0281526020600482015260116024820152600080516020615010833981519152604482015290519081900360640190fd5b60008281526004602052604090206003015482901515614af9576040805160e560020a62461bcd02815260206004820152601460248201526000805160206150d0833981519152604482015290519081900360640190fd5b60008481526001602052604090205465010000000000900460ff1680614b2f575060008381526004602052604090206003015484145b1515614b73576040805160e560020a62461bcd02815260206004820152601d6024820152600080516020615090833981519152604482015290519081900360640190fd5b6000838152600460208190526040822082815560018101839055600281018390556003810183905590810182905590614baf6005830182614fdb565b50506040805184815290517f773b498f67072879a15f43453b36d50ad29aa683731cc03b8bf6f5f5c6064fea9181900360200190a150505050565b600a5481565b6000828152600360205260409020600101548290600160a060020a031615801590614c345750600081815260036020526040902060010154600160a060020a031633145b1515614c78576040805160e560020a62461bcd0281526020600482015260116024820152600080516020615010833981519152604482015290519081900360640190fd5b60008481526004602052604090206003015484901515614cd0576040805160e560020a62461bcd02815260206004820152601460248201526000805160206150d0833981519152604482015290519081900360640190fd5b6000848152600260205260409020548490869060ff16158015614d105750600081815260046020908152604080832085845260070190915290205460ff16155b1515614d54576040805160e560020a62461bcd02815260206004820152600b60248201526000805160206150b0833981519152604482015290519081900360640190fd5b60008581526005602052604090206002015485901515614dac576040805160e560020a62461bcd0281526020600482015260136024820152600080516020615070833981519152604482015290519081900360640190fd5b600b5434811115614df5576040805160e560020a62461bcd0281526020600482015260156024820152600080516020615050833981519152604482015290519081900360640190fd5b50505060009384525050600560205250604090206003908101805463ffffffff19811663ffffffff91840b6000190190930b169190911790555050565b600160a060020a0381161515614e4757600080fd5b60008054604051600160a060020a03808516939216917f8be0079c531659141344cd1fd0a4f28419497f9722a3daafe3b4186f6b6457e091a36000805473ffffffffffffffffffffffffffffffffffffffff1916600160a060020a0392909216919091179055565b6040805160c0810182526000808252602082018190529181018290526060808201839052608082019290925260a081019190915290565b828054828255906000526020600020908101928215614f21579160200282015b82811115614f21578251825591602001919060010190614f06565b50614f2d929150614ff5565b5090565b60408051608081018252600080825260208201819052918101829052606081019190915290565b6040805160c081018252600080825260208201819052918101829052606081018290526080810182905260a081019190915290565b6040805160a08101825260008082526020820181905291810182905260608101829052608081019190915290565b604080516060810182526000808252602082018190529181019190915290565b508054600082559060005260206000209081019061476a91905b612b6991905b80821115614f2d5760008155600101614ffb56fe55736572206e6f742076657269666965640000000000000000000000000000005573657220646f6573206e6f7420657869737400000000000000000000000000496e73756666696369656e74204574682073656e740000000000000000000000506f737420646f6573206e6f74206578697374000000000000000000000000005573657220646f6573206e6f742068617665207065726d697373696f6e000000557365722062616e6e6564000000000000000000000000000000000000000000466f72756d20646f6573206e6f74206578697374000000000000000000000000a165627a7a723058207bf2e7ff8df670322347a4106a7163ce1df429f1b0e7ec5f18fb3f944376455e0029",
  "source": "pragma solidity ^0.5.2;\n\nimport \"./Ownable.sol\";\n\ncontract Tartarus is Ownable {\n    event AdminCreated (bytes32 user, bytes32 targetUser);\n    event AdminRemoved (bytes32 user, bytes32 targetUser);\n    event ModeratorCreated (bytes32 indexed forum, bytes32 user, bytes32 targetUser);\n    event ModeratorRemoved (bytes32 indexed forum, bytes32 user, bytes32 targetUser);\n    event UserCreated (bytes32 user);\n    event UserBanned (bytes32 user);\n    event UserForumBanned (bytes32 indexed forum, bytes32 user);\n    event ForumCreated (bytes32 forum);  \n    event ForumDeleted (bytes32 forum);\n    event ForumRulesEdited (bytes32 indexed forum, bytes32 oldRules, bytes32 newRules);\n    event ForumDescriptionEdited (bytes32 indexed forum, bytes32 oldDescription, bytes32 newDescription);\n    event PostCreated (bytes32 indexed forum, bytes32 indexed creator, bytes32 postId);\n    event PostDeleted (bytes32 indexed forum, bytes32 postId);\n    event PostPinned (bytes32 indexed forum, bytes32 postId);\n    event PostUnpinned (bytes32 indexed forum, bytes32 postId);\n    event CommentCreated (bytes32 indexed postId, bytes32 indexed creator, bytes32 indexed targetId, bytes32 commentId);\n    event CommentDeleted (bytes32 indexed forumId, bytes32 postId, bytes32 commentId);\n    event ReportUser (bytes32 user, bytes32 reason);\n    event ReportForum (bytes32 forum, bytes32 reason);\n    event ReportPost (bytes32 indexed _forum, bytes32 _postId, bytes32 reason);\n    event ReportComment (bytes32 indexed _forum, bytes32 _postId, bytes32 _commentId, bytes32 reason);\n\n    mapping (bytes32 => Admin) public admins;\n    mapping (bytes32 => bool) public banned;\n    mapping (bytes32 => User) public users;\n    mapping (bytes32 => Forum) public forums;\n    mapping (bytes32 => Post) public posts;\n    mapping (bytes32 => Comment) public comments;\n    uint public createUserCost = 0.03 ether;\n    uint public createForumCost = 0.03 ether;\n    uint public createPostCost = 0.0003 ether;\n    uint public createCommentCost = 0.0001 ether;\n    uint public voteCost = 0.0001 ether;\n    uint public nonce = 0;\n    \n    struct Admin {\n        bool ban;\n        bool setCost;\n        bool editAdmin;\n        bool deleteComment;\n        bool deletePost;\n        bool deleteForum;\n    }\n\n    struct Moderator {\n        bool ban;\n        bool editInfo;\n        bool editModerator;\n        bool editPost;\n    }\n\n    struct User {\n        bytes32 username;\n        address creator;\n        uint time;\n    }\n    \n    struct Forum {\n        bytes32 name;\n        bytes32 rules;\n        bytes32 description;\n        bytes32 creator;\n        uint time;\n        bytes32[] pinnedPosts;\n        mapping(bytes32 => Moderator) moderators;\n        mapping(bytes32 =>  bool) banned;\n    }\n\n    struct Post {\n        bytes32 title;\n        bytes32 post;\n        bytes32 creator;\n        int32 votes;\n        uint time;\n    }\n\n    struct Comment {\n        bytes32 comment;\n        bytes32 creator;\n        bytes32 target;\n        uint time;\n    }\n\n    constructor(string memory _username) public {\n        owner = msg.sender;\n        require(\n            validateName(_username), \n            \"Invalid username\"\n        );\n        bytes32 usernameBytes = stringToBytes32(_username);\n        User memory newUser;\n        newUser.username = usernameBytes;\n        newUser.creator = msg.sender;\n        newUser.time = now;\n        users[usernameBytes] = newUser;\n        \n        Admin memory newAdmin;\n        newAdmin.ban = true;\n        newAdmin.setCost = true;\n        newAdmin.editAdmin = true;\n        newAdmin.deleteComment = true;\n        newAdmin.deletePost = true;\n        newAdmin.deleteForum = true;\n        admins[usernameBytes] = newAdmin;\n        \n        emit UserCreated(usernameBytes);\n        emit AdminCreated(usernameBytes, usernameBytes);\n    }\n    \n    modifier requiresFee(uint fee) {\n        require(\n            msg.value >= fee, \n            \"Insufficient Eth sent\"\n        );\n        _;\n    }\n\n    modifier userVerified(bytes32 _user){\n        require(\n            users[_user].creator != address(0) &&\n            users[_user].creator == msg.sender, \n            \"User not verified\"\n        );\n        _;\n    }\n\n    modifier userExists(bytes32 _user){\n        require(\n            users[_user].creator != address(0), \n            \"User does not exist\"\n        );\n        _;\n    }\n\n    modifier userUnbanned(bytes32 _user, bytes32 _forum) {\n        require(\n            !banned[_user] &&\n            !forums[_forum].banned[_user], \n            \"User banned\"\n        );\n        _;\n    }\n\n    modifier forumExists(bytes32 _forum) {\n        require(\n            forums[_forum].creator != 0, \n            \"Forum does not exist\"\n        );\n        _;\n    }\n\n    modifier postExists(bytes32 _postId) {\n        require(\n            posts[_postId].creator != 0, \n            \"Post does not exist\"\n        );\n        _;\n    }\n\n    modifier commentExists(bytes32 _commentId) {\n        require(\n            comments[_commentId].creator != 0, \n            \"Comment does not exist\"\n        );\n        _;\n    }\n\n    function validateName(string memory _name) public pure returns (bool){\n        bytes memory b = bytes(_name);\n        if(b.length > 21 || b.length < 3) {\n            return false;\n        }\n        for(uint i; i < b.length; i++){\n            bytes1 char = b[i];\n            if(\n                !(char >= 0x30 && char <= 0x39) && //9-0\n                !(char >= 0x41 && char <= 0x5A) && //A-Z\n                !(char >= 0x61 && char <= 0x7A) && //a-z\n                !(char == 0x5F) //_\n            ) {\n                return false;\n            }\n        }\n        return true;\n    }\n    \n    function stringToBytes32(string memory _source) public pure returns (bytes32 result) {\n        bytes memory tempEmptyStringTest = bytes(_source);\n        if (tempEmptyStringTest.length == 0) {\n            return 0x0;\n        }\n    \n        assembly {\n            result := mload(add(_source, 32))\n        }\n    }\n    \n    function generateId() public returns(bytes32) {\n        nonce += 1;\n        return bytes32(keccak256(abi.encodePacked(nonce, now, blockhash(block.number - 1))));\n    }\n    \n    function createUser(string memory _username) public payable requiresFee(createUserCost) {\n        require(\n            validateName(_username), \n            \"Invalid username\"\n        );\n        bytes32 usernameBytes = stringToBytes32(_username);\n        require(\n            users[usernameBytes].creator == address(0), \n            \"Username already exist\"\n        );\n        User memory newUser;\n        newUser.username = usernameBytes;\n        newUser.creator = msg.sender;\n        newUser.time = now;\n        users[usernameBytes] = newUser;\n        emit UserCreated(usernameBytes);\n    }\n\n    function createForum(bytes32 _user, string memory _forum, bytes32 _rules, bytes32 _description) \n    public payable userVerified(_user) requiresFee(createForumCost) {\n        require(\n            !banned[_user],\n            \"User banned\"\n        );\n        require(\n            validateName(_forum), \n            \"Invalid forum name\"\n        );\n        bytes32 forumBytes = stringToBytes32(_forum);\n        require(\n            forums[forumBytes].creator == 0,\n            \"Forum already exists\"\n        );\n        Forum memory newForum;\n        newForum.name = forumBytes;\n        newForum.rules = _rules;\n        newForum.description = _description;\n        newForum.creator = _user;\n        newForum.time = now;\n        newForum.pinnedPosts = new bytes32[](3);\n        forums[forumBytes] = newForum;\n        \n        Moderator memory newModerator;\n        newModerator.ban = true;\n        newModerator.editInfo = true;\n        newModerator.editModerator = true;\n        newModerator.editPost = true;\n        forums[forumBytes].moderators[_user] = newModerator;\n        \n        emit ForumCreated(forumBytes);\n    }   \n\n    function deleteForum(bytes32 _user, bytes32 _forum) \n    public userVerified(_user) forumExists(_forum){\n        require(\n            admins[_user].deleteForum ||\n            forums[_forum].creator == _user,\n            \"User does not have permission\"\n        );\n        delete forums[_forum];\n        emit ForumDeleted(_forum);\n    }   \n\n    function createPost(bytes32 _user, bytes32 _forum, bytes32 _title, bytes32 _post) \n    public payable userVerified(_user) forumExists(_forum) userUnbanned(_user, _forum) requiresFee(createPostCost) {\n        bytes32 postId = generateId();\n        Post memory newPost;\n        newPost.title = _title;\n        newPost.post = _post;\n        newPost.creator = _user;\n        newPost.time = now;\n        posts[postId] = newPost;\n        emit PostCreated(_forum, _user, postId);\n    }\n\n    function deletePost(bytes32 _user, bytes32 _forum, bytes32 _postId) \n    public userVerified(_user) forumExists(_forum) postExists(_postId) {\n        require(\n            admins[_user].deletePost ||\n            forums[_forum].moderators[_user].editPost ||\n            posts[_postId].creator == _user,\n            \"User does not have permission\"\n        );\n        delete posts[_postId];\n        emit PostDeleted(_forum, _postId);\n    }\n\n    function pinPost(bytes32 _user, bytes32 _forum, bytes32 _postId, uint _postIndex) \n    public userVerified(_user) forumExists(_forum) userUnbanned(_user, _forum) postExists(_postId) {\n        require(\n            forums[_forum].moderators[_user].editPost,\n            \"User does not have permission\"\n        );\n        forums[_forum].pinnedPosts[_postIndex] = _postId;\n        emit PostPinned(_forum, _postId);\n    }\n\n    function unpinPost(bytes32 _user, bytes32 _forum, uint _postIndex) \n    public userVerified(_user) forumExists(_forum) {\n        require(\n            forums[_forum].moderators[_user].editPost,\n            \"User does not have permission\"\n        );\n        emit PostUnpinned(_forum, forums[_forum].pinnedPosts[_postIndex]);\n        delete forums[_forum].pinnedPosts[_postIndex];    \n    }\n\n    function upvote(bytes32 _forum, bytes32 _user, bytes32 _postId) \n    public payable userVerified(_user) forumExists(_forum) userUnbanned(_user, _forum) postExists(_postId) requiresFee(voteCost) {\n        posts[_postId].votes += 1;\n    }\n\n    function downvote(bytes32 _forum, bytes32 _user, bytes32 _postId) \n    public payable userVerified(_user) forumExists(_forum) userUnbanned(_user, _forum) postExists(_postId) requiresFee(voteCost) {\n        posts[_postId].votes -= 1;\n    }\n\n    function createComment(bytes32 _user, bytes32 _forum, bytes32 _postId, bytes32 _comment, bytes32 _targetId) \n    public payable userVerified(_user) forumExists(_forum) userUnbanned(_user, _forum) postExists(_postId) requiresFee(createCommentCost) {\n        require(\n            posts[_targetId].creator != 0 || \n            comments[_targetId].creator != 0, \n            \"Target does not exist\"\n        );\n        bytes32 commentId = generateId();\n        Comment memory newComment;\n        newComment.comment = _comment;\n        newComment.creator = _user;\n        newComment.target = _targetId;\n        newComment.time = now;\n        comments[commentId] = newComment;\n        emit CommentCreated(_postId, _user, _targetId, commentId);\n    }\n\n    function deleteComment(bytes32 _user, bytes32 _forum, bytes32 _postId, bytes32 _commentId) \n    public userVerified(_user) forumExists(_forum) commentExists(_commentId) {\n        require(\n            admins[_user].deleteComment ||\n            forums[_forum].moderators[_user].editPost ||\n            comments[_commentId].creator == _user,\n            \"User does not have permission\"\n        );\n        delete comments[_commentId];\n        emit CommentDeleted(_forum, _postId, _commentId);\n    }\n\n    function createModerator(\n        bytes32 _user,\n        bytes32 _forum,\n        bytes32 _targetUser, \n        bool _ban, \n        bool _editInfo, \n        bool _editModerators,\n        bool _editPost) \n        public userVerified(_user) userExists(_targetUser) forumExists(_forum) userUnbanned(_targetUser, _forum) {\n        require(\n            forums[_forum].moderators[_user].editModerator,\n            \"User does not have permission\"\n        );\n        Moderator memory newModerator;\n        newModerator.ban = _ban;\n        newModerator.editInfo = _editInfo;\n        newModerator.editModerator = _editModerators;\n        newModerator.editPost = _editPost;\n        forums[_forum].moderators[_user] = newModerator;\n        emit ModeratorCreated(_forum, _user, _targetUser);\n    }\n\n    function removeModerator(bytes32 _user, bytes32 _targetUser, bytes32 _forum) \n    public userVerified(_user) userExists(_targetUser) forumExists(_forum) {\n        require(\n            forums[_forum].moderators[_user].editModerator,\n            \"User does not have permission\"\n        );\n        delete forums[_forum].moderators[_targetUser];\n        emit ModeratorRemoved(_forum, _user, _targetUser);\n    }\n\n    function setForumRules(bytes32 _user, bytes32 _forum, bytes32 _rules) \n    public userVerified(_user) forumExists(_forum) {\n        require(\n            forums[_forum].moderators[_user].editInfo,\n            \"User does not have permission\"\n        );\n        emit ForumRulesEdited(_forum, forums[_forum].rules, _rules);\n        forums[_forum].rules = _rules;\n    }\n    \n    function setForumDescription(bytes32 _user, bytes32 _forum, bytes32 _description) \n    public userVerified(_user) forumExists(_forum) {\n        require(\n            forums[_forum].moderators[_user].editInfo,\n            \"User does not have permission\"\n        );\n        emit ForumDescriptionEdited(_forum, forums[_forum].description, _description);\n        forums[_forum].description = _description;\n    }\n\n    function banUserForum(bytes32 _user, bytes32 _targetUser, bytes32 _forum) \n    public userVerified(_user) userExists(_targetUser) forumExists(_forum) {\n        require(\n            !forums[_forum].banned[_targetUser], \n            \"Target user already banned\"\n        );\n        require(\n            forums[_forum].moderators[_user].ban,\n            \"User does not have permission\"\n        );\n        forums[_forum].banned[_targetUser] = true;\n        emit UserForumBanned(_forum, _user);\n    }\n\n    function unbanUserForum(bytes32 _user, bytes32 _targetUser, bytes32 _forum) \n    public userVerified(_user) userExists(_targetUser) forumExists(_forum) {\n        require(\n            forums[_forum].banned[_targetUser], \n            \"Target user not banned\"\n        );\n        require(\n            forums[_forum].moderators[_user].ban,\n            \"User does not have permission\"\n        );\n        forums[_forum].banned[_targetUser] = false;\n    }\n\n    function reportUser(bytes32 _user, bytes32 _targetUser, bytes32 _reason) \n    public userVerified(_user) userExists(_targetUser) {\n        require(\n            !banned[_user], \n            \"User banned\"\n        );\n        emit ReportUser(_user, _reason);\n    }\n\n    function reportForum(bytes32 _user, bytes32 _forum, bytes32 _reason) \n    public userVerified(_user) forumExists(_forum) {\n        require(\n            !banned[_user], \n            \"User banned\"\n        );\n        emit ReportForum(_forum, _reason);\n    }\n\n    function reportPost(bytes32 _user, bytes32 _forum, bytes32 _postId, bytes32 _reason) \n    public userVerified(_user) forumExists(_forum) postExists(_postId) {\n        require(\n            !banned[_user], \n            \"User banned\"\n        );\n        emit ReportPost(_forum, _postId, _reason);\n    }\n\n    function reportComment(bytes32 _user, bytes32 _forum, bytes32 _postId, bytes32 _commentId, bytes32 _reason) \n    public userVerified(_user) forumExists(_forum) commentExists(_commentId) {\n        require(\n            !banned[_user], \n            \"User banned\"\n        );\n        emit ReportComment(_forum, _postId, _commentId, _reason);\n    }\n\n    function createAdmin(\n        bytes32 _user,\n        bytes32 _targetUser, \n        bool _ban,\n        bool _setCost,\n        bool _editAdmin,\n        bool _deletePost,\n        bool _deleteComment,\n        bool _deleteForum\n        ) \n        public userVerified(_user) userExists(_targetUser) {\n        require(\n            admins[_user].editAdmin, \"User does not have permission\"\n        );\n\n        Admin memory newAdmin;\n        newAdmin.ban = _ban;\n        newAdmin.setCost = _setCost;\n        newAdmin.editAdmin = _editAdmin;\n        newAdmin.deleteComment = _deleteComment;\n        newAdmin.deletePost = _deletePost;\n        newAdmin.deleteForum = _deleteForum;\n        admins[_targetUser] = newAdmin;\n        emit AdminCreated(_user, _targetUser);\n    }  \n\n    function removeAdmin(bytes32 _user, bytes32 _targetUser) \n        public userVerified(_user) userExists(_targetUser) {\n        require(\n            admins[_user].editAdmin, \"User does not have permission\"\n        );\n        delete admins[_targetUser];\n        emit AdminRemoved(_user, _targetUser);\n    }\n\n    function banUserTartarus(bytes32 _user, bytes32 _targetUser) \n        public userVerified(_user) userExists(_targetUser) {\n        require(\n            admins[_user].ban, \"User does not have permission\"\n        );\n        require(\n            !banned[_targetUser], \n            \"User is already banned\"\n        );\n        banned[_targetUser] = true;\n        emit UserBanned(_user);\n    }\n\n    function unbanUserTartarus(bytes32 _user, bytes32 _targetUser)\n        public userVerified(_user) userExists(_targetUser) {\n        require(\n            admins[_user].ban, \"User does not have permission\"\n        );\n        require(\n            banned[_targetUser], \n            \"User is not banned\"\n        );\n        banned[_targetUser] = false;\n    }\n\n    function setCreateUserCost(bytes32 _user, uint _newCost) \n        public userVerified(_user) {\n        require(\n            admins[_user].setCost, \n            \"User does not have permission\"\n        );\n        createUserCost = _newCost;\n    }\n    \n    function setCreateForumCost(bytes32 _user, uint _newCost) \n        public userVerified(_user) {\n        require(\n            admins[_user].setCost, \n            \"User does not have permission\"\n        );\n        createForumCost = _newCost;\n    }\n    \n    function setCreatePostCost(bytes32 _user, uint _newCost) \n        public userVerified(_user) {\n        require(\n            admins[_user].setCost, \n            \"User does not have permission\"\n        );\n        createPostCost = _newCost;\n    }\n    \n    function setCreateCommentCost(bytes32 _user, uint _newCost) \n        public userVerified(_user) {\n        require(\n            admins[_user].setCost, \n            \"User does not have permission\"\n        );\n        createCommentCost = _newCost;\n    }\n    \n    function setVoteCost(bytes32 _user, uint _newCost) \n        public userVerified(_user) {\n        require(\n            admins[_user].setCost, \n            \"User does not have permission\"\n        );\n        voteCost = _newCost;\n    }\n}",
  "sourcePath": "/Users/jarenlynch/Ethereum/Tartarus/contracts/Tartarus.sol",
  "compiler": {
    "name": "solc",
    "version": "0.5.2+commit.1df8f40c.Emscripten.clang"
  },
  "schemaVersion": "3.0.6",
  "updatedAt": "2019-04-14T02:26:42.400Z",
  "devdoc": {
    "methods": {
      "renounceOwnership()": {
        "details": "Allows the current owner to relinquish control of the contract."
      },
      "transferOwnership(address)": {
        "details": "Allows the current owner to transfer control of the contract to a newOwner.",
        "params": {
          "_newOwner": "The address to transfer ownership to."
        }
      }
    }
  },
  "userdoc": {
    "methods": {
      "renounceOwnership()": {
        "notice": "Renouncing to ownership will leave the contract without an owner. It will not be possible to call the functions with the `onlyOwner` modifier anymore."
      }
    }
  }
}