{
  "contractName": "Tartarus",
  "abi": [
    {
      "constant": true,
      "inputs": [],
      "name": "transactionCost",
      "outputs": [
        {
          "name": "",
          "type": "uint256"
        }
      ],
      "payable": false,
      "stateMutability": "view",
      "type": "function",
      "signature": "0x2048ff11"
    },
    {
      "constant": true,
      "inputs": [
        {
          "name": "",
          "type": "address"
        }
      ],
      "name": "admins",
      "outputs": [
        {
          "name": "ban",
          "type": "bool"
        },
        {
          "name": "transactionCost",
          "type": "bool"
        },
        {
          "name": "createUserCost",
          "type": "bool"
        },
        {
          "name": "editAdmin",
          "type": "bool"
        },
        {
          "name": "deleteComment",
          "type": "bool"
        },
        {
          "name": "deletePost",
          "type": "bool"
        },
        {
          "name": "deleteForum",
          "type": "bool"
        }
      ],
      "payable": false,
      "stateMutability": "view",
      "type": "function",
      "signature": "0x429b62e5"
    },
    {
      "constant": false,
      "inputs": [],
      "name": "renounceOwnership",
      "outputs": [],
      "payable": false,
      "stateMutability": "nonpayable",
      "type": "function",
      "signature": "0x715018a6"
    },
    {
      "constant": true,
      "inputs": [],
      "name": "owner",
      "outputs": [
        {
          "name": "",
          "type": "address"
        }
      ],
      "payable": false,
      "stateMutability": "view",
      "type": "function",
      "signature": "0x8da5cb5b"
    },
    {
      "constant": true,
      "inputs": [
        {
          "name": "",
          "type": "address"
        }
      ],
      "name": "banned",
      "outputs": [
        {
          "name": "",
          "type": "bool"
        }
      ],
      "payable": false,
      "stateMutability": "view",
      "type": "function",
      "signature": "0x9c8d83bb"
    },
    {
      "constant": true,
      "inputs": [
        {
          "name": "",
          "type": "bytes32"
        }
      ],
      "name": "users",
      "outputs": [
        {
          "name": "",
          "type": "address"
        }
      ],
      "payable": false,
      "stateMutability": "view",
      "type": "function",
      "signature": "0xcea6ab98"
    },
    {
      "constant": true,
      "inputs": [],
      "name": "createUserCost",
      "outputs": [
        {
          "name": "",
          "type": "uint256"
        }
      ],
      "payable": false,
      "stateMutability": "view",
      "type": "function",
      "signature": "0xf004a35e"
    },
    {
      "constant": false,
      "inputs": [
        {
          "name": "_newOwner",
          "type": "address"
        }
      ],
      "name": "transferOwnership",
      "outputs": [],
      "payable": false,
      "stateMutability": "nonpayable",
      "type": "function",
      "signature": "0xf2fde38b"
    },
    {
      "constant": true,
      "inputs": [
        {
          "name": "",
          "type": "bytes32"
        }
      ],
      "name": "forums",
      "outputs": [
        {
          "name": "",
          "type": "address"
        }
      ],
      "payable": false,
      "stateMutability": "view",
      "type": "function",
      "signature": "0xfb118717"
    },
    {
      "inputs": [
        {
          "name": "_userFactory",
          "type": "address"
        },
        {
          "name": "_commentFactory",
          "type": "address"
        },
        {
          "name": "_postFactory",
          "type": "address"
        },
        {
          "name": "_forumFactory",
          "type": "address"
        }
      ],
      "payable": false,
      "stateMutability": "nonpayable",
      "type": "constructor",
      "signature": "constructor"
    },
    {
      "anonymous": false,
      "inputs": [
        {
          "indexed": false,
          "name": "forumAddress",
          "type": "address"
        }
      ],
      "name": "ForumCreated",
      "type": "event",
      "signature": "0x6f9535f6c8a4252f81158b92ec563f75929f25d4f516bbdea9a3519b2f503e93"
    },
    {
      "anonymous": false,
      "inputs": [
        {
          "indexed": true,
          "name": "forumAddress",
          "type": "address"
        },
        {
          "indexed": true,
          "name": "creatorAddress",
          "type": "address"
        },
        {
          "indexed": false,
          "name": "postAddress",
          "type": "address"
        }
      ],
      "name": "PostCreated",
      "type": "event",
      "signature": "0x91775024e2b8b5fb90a5a6472b7308b684fbb3f0b45725f720b6008df77594f0"
    },
    {
      "anonymous": false,
      "inputs": [
        {
          "indexed": true,
          "name": "postAddress",
          "type": "address"
        },
        {
          "indexed": true,
          "name": "creatorAddress",
          "type": "address"
        },
        {
          "indexed": true,
          "name": "targetAddress",
          "type": "address"
        },
        {
          "indexed": false,
          "name": "commentAddress",
          "type": "address"
        }
      ],
      "name": "CommentCreated",
      "type": "event",
      "signature": "0x0073e2a228e173d520aed711d6ce2919affe039a310fa872e2b8ef1c7b65a812"
    },
    {
      "anonymous": false,
      "inputs": [
        {
          "indexed": false,
          "name": "_username",
          "type": "address"
        },
        {
          "indexed": false,
          "name": "reason",
          "type": "bytes32"
        }
      ],
      "name": "ReportUser",
      "type": "event",
      "signature": "0x3a7f2b60f830ee4c4a054a730ea8ff0e10a4f29ce1c9d21cd772aab592a3722c"
    },
    {
      "anonymous": false,
      "inputs": [
        {
          "indexed": false,
          "name": "forumAddress",
          "type": "address"
        },
        {
          "indexed": false,
          "name": "reason",
          "type": "bytes32"
        }
      ],
      "name": "ReportForum",
      "type": "event",
      "signature": "0xc834d42d1b7db30dfbdfced4cc1829ca231d3b2ddebd8f6e7e47054d9dcbb77d"
    },
    {
      "anonymous": false,
      "inputs": [
        {
          "indexed": true,
          "name": "forumAddress",
          "type": "address"
        },
        {
          "indexed": false,
          "name": "postAddress",
          "type": "address"
        },
        {
          "indexed": false,
          "name": "reason",
          "type": "bytes32"
        }
      ],
      "name": "ReportPost",
      "type": "event",
      "signature": "0xf008632dbc706d16be2587a95e61f9b068a5a9821c0d1205aaca0a2b1edc893d"
    },
    {
      "anonymous": false,
      "inputs": [
        {
          "indexed": true,
          "name": "forumAddress",
          "type": "address"
        },
        {
          "indexed": false,
          "name": "commentAddress",
          "type": "address"
        },
        {
          "indexed": false,
          "name": "reason",
          "type": "bytes32"
        }
      ],
      "name": "ReportComment",
      "type": "event",
      "signature": "0x471ea93df2dbd0bbaaf450bc24602363cfa33b0a952c75ce520f6247aca06b9a"
    },
    {
      "anonymous": false,
      "inputs": [
        {
          "indexed": true,
          "name": "previousOwner",
          "type": "address"
        }
      ],
      "name": "OwnershipRenounced",
      "type": "event",
      "signature": "0xf8df31144d9c2f0f6b59d69b8b98abd5459d07f2742c4df920b25aae33c64820"
    },
    {
      "anonymous": false,
      "inputs": [
        {
          "indexed": true,
          "name": "previousOwner",
          "type": "address"
        },
        {
          "indexed": true,
          "name": "newOwner",
          "type": "address"
        }
      ],
      "name": "OwnershipTransferred",
      "type": "event",
      "signature": "0x8be0079c531659141344cd1fd0a4f28419497f9722a3daafe3b4186f6b6457e0"
    },
    {
      "constant": false,
      "inputs": [
        {
          "name": "_username",
          "type": "bytes32"
        }
      ],
      "name": "createUser",
      "outputs": [],
      "payable": true,
      "stateMutability": "payable",
      "type": "function",
      "signature": "0xabf7bfd8"
    },
    {
      "constant": false,
      "inputs": [
        {
          "name": "_forumName",
          "type": "bytes32"
        }
      ],
      "name": "createForum",
      "outputs": [],
      "payable": false,
      "stateMutability": "nonpayable",
      "type": "function",
      "signature": "0xced21dec"
    },
    {
      "constant": false,
      "inputs": [
        {
          "name": "_forumName",
          "type": "bytes32"
        },
        {
          "name": "_suicideAddress",
          "type": "address"
        }
      ],
      "name": "deleteForum",
      "outputs": [],
      "payable": false,
      "stateMutability": "nonpayable",
      "type": "function",
      "signature": "0xf9a03922"
    },
    {
      "constant": false,
      "inputs": [
        {
          "name": "_forumName",
          "type": "bytes32"
        },
        {
          "name": "_post",
          "type": "bytes32"
        }
      ],
      "name": "createPost",
      "outputs": [],
      "payable": false,
      "stateMutability": "nonpayable",
      "type": "function",
      "signature": "0x325b52f7"
    },
    {
      "constant": false,
      "inputs": [
        {
          "name": "_forumName",
          "type": "bytes32"
        },
        {
          "name": "_postAddress",
          "type": "address"
        },
        {
          "name": "_suicideAddress",
          "type": "address"
        }
      ],
      "name": "deletePost",
      "outputs": [],
      "payable": false,
      "stateMutability": "nonpayable",
      "type": "function",
      "signature": "0x4c355d20"
    },
    {
      "constant": false,
      "inputs": [
        {
          "name": "_forumName",
          "type": "bytes32"
        },
        {
          "name": "_postAddress",
          "type": "address"
        }
      ],
      "name": "pinPost",
      "outputs": [],
      "payable": false,
      "stateMutability": "nonpayable",
      "type": "function",
      "signature": "0x64c7e92d"
    },
    {
      "constant": false,
      "inputs": [
        {
          "name": "_forumName",
          "type": "bytes32"
        },
        {
          "name": "_postAddress",
          "type": "address"
        },
        {
          "name": "_postIndex",
          "type": "uint256"
        }
      ],
      "name": "unpinPost",
      "outputs": [],
      "payable": false,
      "stateMutability": "nonpayable",
      "type": "function",
      "signature": "0xf9cff221"
    },
    {
      "constant": false,
      "inputs": [
        {
          "name": "_forumName",
          "type": "bytes32"
        },
        {
          "name": "_postAddress",
          "type": "address"
        }
      ],
      "name": "upvote",
      "outputs": [],
      "payable": false,
      "stateMutability": "nonpayable",
      "type": "function",
      "signature": "0x370027da"
    },
    {
      "constant": false,
      "inputs": [
        {
          "name": "_forumName",
          "type": "bytes32"
        },
        {
          "name": "_postAddress",
          "type": "address"
        }
      ],
      "name": "downvote",
      "outputs": [],
      "payable": false,
      "stateMutability": "nonpayable",
      "type": "function",
      "signature": "0xf72d6071"
    },
    {
      "constant": false,
      "inputs": [
        {
          "name": "_forumName",
          "type": "bytes32"
        },
        {
          "name": "_postAddress",
          "type": "address"
        },
        {
          "name": "_targetAddress",
          "type": "address"
        },
        {
          "name": "_comment",
          "type": "bytes32"
        }
      ],
      "name": "createComment",
      "outputs": [],
      "payable": false,
      "stateMutability": "nonpayable",
      "type": "function",
      "signature": "0x50da728a"
    },
    {
      "constant": false,
      "inputs": [
        {
          "name": "_forumName",
          "type": "bytes32"
        },
        {
          "name": "_postAddress",
          "type": "address"
        },
        {
          "name": "_commentAddress",
          "type": "address"
        },
        {
          "name": "_suicideAddress",
          "type": "address"
        }
      ],
      "name": "deleteComment",
      "outputs": [],
      "payable": false,
      "stateMutability": "nonpayable",
      "type": "function",
      "signature": "0x9b58d776"
    },
    {
      "constant": false,
      "inputs": [
        {
          "name": "_forumName",
          "type": "bytes32"
        },
        {
          "name": "_username",
          "type": "bytes32"
        },
        {
          "name": "_ban",
          "type": "bool"
        },
        {
          "name": "_editRules",
          "type": "bool"
        },
        {
          "name": "_editDescription",
          "type": "bool"
        },
        {
          "name": "_editModerators",
          "type": "bool"
        },
        {
          "name": "_deletePost",
          "type": "bool"
        },
        {
          "name": "_deleteComment",
          "type": "bool"
        }
      ],
      "name": "createModerator",
      "outputs": [],
      "payable": false,
      "stateMutability": "nonpayable",
      "type": "function",
      "signature": "0x579819d9"
    },
    {
      "constant": false,
      "inputs": [
        {
          "name": "_forumName",
          "type": "bytes32"
        },
        {
          "name": "_username",
          "type": "bytes32"
        }
      ],
      "name": "removeModerator",
      "outputs": [],
      "payable": false,
      "stateMutability": "nonpayable",
      "type": "function",
      "signature": "0x3f90350a"
    },
    {
      "constant": false,
      "inputs": [
        {
          "name": "_forumName",
          "type": "bytes32"
        },
        {
          "name": "_rules",
          "type": "bytes32"
        }
      ],
      "name": "updateForumRules",
      "outputs": [],
      "payable": false,
      "stateMutability": "nonpayable",
      "type": "function",
      "signature": "0xae2278aa"
    },
    {
      "constant": false,
      "inputs": [
        {
          "name": "_forumName",
          "type": "bytes32"
        },
        {
          "name": "_description",
          "type": "bytes32"
        }
      ],
      "name": "updateForumDescription",
      "outputs": [],
      "payable": false,
      "stateMutability": "nonpayable",
      "type": "function",
      "signature": "0xcda47ea3"
    },
    {
      "constant": false,
      "inputs": [
        {
          "name": "_forumName",
          "type": "bytes32"
        },
        {
          "name": "_username",
          "type": "bytes32"
        }
      ],
      "name": "banUserForum",
      "outputs": [],
      "payable": false,
      "stateMutability": "nonpayable",
      "type": "function",
      "signature": "0x10b28c12"
    },
    {
      "constant": false,
      "inputs": [
        {
          "name": "_forumName",
          "type": "bytes32"
        },
        {
          "name": "_username",
          "type": "bytes32"
        }
      ],
      "name": "unbanUserForum",
      "outputs": [],
      "payable": false,
      "stateMutability": "nonpayable",
      "type": "function",
      "signature": "0x3ffc6956"
    },
    {
      "constant": false,
      "inputs": [
        {
          "name": "_username",
          "type": "bytes32"
        },
        {
          "name": "_reason",
          "type": "bytes32"
        }
      ],
      "name": "reportUser",
      "outputs": [],
      "payable": false,
      "stateMutability": "nonpayable",
      "type": "function",
      "signature": "0x229b3391"
    },
    {
      "constant": false,
      "inputs": [
        {
          "name": "_forumName",
          "type": "bytes32"
        },
        {
          "name": "_reason",
          "type": "bytes32"
        }
      ],
      "name": "reportForum",
      "outputs": [],
      "payable": false,
      "stateMutability": "nonpayable",
      "type": "function",
      "signature": "0xe1243bf6"
    },
    {
      "constant": false,
      "inputs": [
        {
          "name": "_forumName",
          "type": "bytes32"
        },
        {
          "name": "_postAddress",
          "type": "address"
        },
        {
          "name": "_reason",
          "type": "bytes32"
        }
      ],
      "name": "reportPost",
      "outputs": [],
      "payable": false,
      "stateMutability": "nonpayable",
      "type": "function",
      "signature": "0x7ce866c9"
    },
    {
      "constant": false,
      "inputs": [
        {
          "name": "_forumName",
          "type": "bytes32"
        },
        {
          "name": "_commentAddress",
          "type": "address"
        },
        {
          "name": "_reason",
          "type": "bytes32"
        }
      ],
      "name": "reportComment",
      "outputs": [],
      "payable": false,
      "stateMutability": "nonpayable",
      "type": "function",
      "signature": "0x0cad84c0"
    },
    {
      "constant": false,
      "inputs": [
        {
          "name": "_username",
          "type": "bytes32"
        },
        {
          "name": "_ban",
          "type": "bool"
        },
        {
          "name": "_transactionCost",
          "type": "bool"
        },
        {
          "name": "_createUserCost",
          "type": "bool"
        },
        {
          "name": "_editAdmin",
          "type": "bool"
        },
        {
          "name": "_deletePost",
          "type": "bool"
        },
        {
          "name": "_deleteComment",
          "type": "bool"
        },
        {
          "name": "_deleteForum",
          "type": "bool"
        }
      ],
      "name": "createAdmin",
      "outputs": [],
      "payable": false,
      "stateMutability": "nonpayable",
      "type": "function",
      "signature": "0xcf5b08e4"
    },
    {
      "constant": false,
      "inputs": [
        {
          "name": "_username",
          "type": "bytes32"
        }
      ],
      "name": "removeAdmin",
      "outputs": [],
      "payable": false,
      "stateMutability": "nonpayable",
      "type": "function",
      "signature": "0xcbfdaed5"
    },
    {
      "constant": true,
      "inputs": [
        {
          "name": "_username",
          "type": "bytes32"
        }
      ],
      "name": "banUserTartarus",
      "outputs": [],
      "payable": false,
      "stateMutability": "view",
      "type": "function",
      "signature": "0xaef797b1"
    },
    {
      "constant": false,
      "inputs": [
        {
          "name": "_username",
          "type": "bytes32"
        }
      ],
      "name": "unbanUserTartarus",
      "outputs": [],
      "payable": false,
      "stateMutability": "nonpayable",
      "type": "function",
      "signature": "0x224b5dbe"
    },
    {
      "constant": false,
      "inputs": [
        {
          "name": "_newCost",
          "type": "uint256"
        }
      ],
      "name": "setCreateUserCost",
      "outputs": [],
      "payable": false,
      "stateMutability": "nonpayable",
      "type": "function",
      "signature": "0xc8527eeb"
    },
    {
      "constant": false,
      "inputs": [
        {
          "name": "_newCost",
          "type": "uint256"
        }
      ],
      "name": "setTransactionCost",
      "outputs": [],
      "payable": false,
      "stateMutability": "nonpayable",
      "type": "function",
      "signature": "0x1236b529"
    }
  ],
  "bytecode": "0x60806040526000600555600060065534801561001a57600080fd5b50604051608080620046de8339810180604052608081101561003b57600080fd5b5080516020820151604083015160609093015160008054600160a060020a0319908116331790915560078054600160a060020a0395861690831617905560088054938516938216939093179092556009805494841694831694909417909355600a805492909316911617905561462780620000b76000396000f3fe6080604052600436106102135760003560e060020a900480639b58d7761161011c578063ced21dec116100a4578063f2fde38b11610073578063f2fde38b146108a2578063f72d6071146108d5578063f9a039221461090e578063f9cff22114610947578063fb1187171461098657610213565b8063ced21dec146107d0578063cf5b08e4146107fa578063e1243bf61461085d578063f004a35e1461088d57610213565b8063aef797b1116100eb578063aef797b1146106f8578063c8527eeb14610722578063cbfdaed51461074c578063cda47ea314610776578063cea6ab98146107a657610213565b80639b58d776146106195780639c8d83bb14610664578063abf7bfd8146106ab578063ae2278aa146106c857610213565b80633ffc69561161019f578063579819d91161016e578063579819d9146104fa57806364c7e92d1461055b578063715018a6146105945780637ce866c9146105a95780638da5cb5b146105e857610213565b80633ffc6956146103cd578063429b62e5146103fd5780634c355d201461047057806350da728a146104b157610213565b8063224b5dbe116101e6578063224b5dbe146102da578063229b339114610304578063325b52f714610334578063370027da146103645780633f90350a1461039d57610213565b80630cad84c01461021857806310b28c12146102595780631236b529146102895780632048ff11146102b3575b600080fd5b34801561022457600080fd5b506102576004803603606081101561023b57600080fd5b50803590600160a060020a0360208201351690604001356109b0565b005b34801561026557600080fd5b506102576004803603604081101561027c57600080fd5b5080359060200135610b94565b34801561029557600080fd5b50610257600480360360208110156102ac57600080fd5b5035610dbf565b3480156102bf57600080fd5b506102c8610f82565b60408051918252519081900360200190f35b3480156102e657600080fd5b50610257600480360360208110156102fd57600080fd5b5035610f88565b34801561031057600080fd5b506102576004803603604081101561032757600080fd5b50803590602001356111bb565b34801561034057600080fd5b506102576004803603604081101561035757600080fd5b508035906020013561139b565b34801561037057600080fd5b506102576004803603604081101561038757600080fd5b5080359060200135600160a060020a0316611628565b3480156103a957600080fd5b50610257600480360360408110156103c057600080fd5b5080359060200135611824565b3480156103d957600080fd5b50610257600480360360408110156103f057600080fd5b5080359060200135611a33565b34801561040957600080fd5b506104306004803603602081101561042057600080fd5b5035600160a060020a0316611c42565b604080519715158852951515602088015293151586860152911515606086015215156080850152151560a0840152151560c0830152519081900360e00190f35b34801561047c57600080fd5b506102576004803603606081101561049357600080fd5b50803590600160a060020a0360208201358116916040013516611c98565b3480156104bd57600080fd5b50610257600480360360808110156104d457600080fd5b50803590600160a060020a03602082013581169160408101359091169060600135611f72565b34801561050657600080fd5b50610257600480360361010081101561051e57600080fd5b5080359060208101359060408101351515906060810135151590608081013515159060a081013515159060c081013515159060e001351515612207565b34801561056757600080fd5b506102576004803603604081101561057e57600080fd5b5080359060200135600160a060020a031661240d565b3480156105a057600080fd5b50610257612609565b3480156105b557600080fd5b50610257600480360360608110156105cc57600080fd5b50803590600160a060020a036020820135169060400135612675565b3480156105f457600080fd5b506105fd612859565b60408051600160a060020a039092168252519081900360200190f35b34801561062557600080fd5b506102576004803603608081101561063c57600080fd5b50803590600160a060020a036020820135811691604081013582169160609091013516612868565b34801561067057600080fd5b506106976004803603602081101561068757600080fd5b5035600160a060020a0316612b49565b604080519115158252519081900360200190f35b610257600480360360208110156106c157600080fd5b5035612b5e565b3480156106d457600080fd5b50610257600480360360408110156106eb57600080fd5b5080359060200135612cfa565b34801561070457600080fd5b506102576004803603602081101561071b57600080fd5b5035612eb5565b34801561072e57600080fd5b506102576004803603602081101561074557600080fd5b50356130dd565b34801561075857600080fd5b506102576004803603602081101561076f57600080fd5b503561329c565b34801561078257600080fd5b506102576004803603604081101561079957600080fd5b5080359060200135613418565b3480156107b257600080fd5b506105fd600480360360208110156107c957600080fd5b50356135d3565b3480156107dc57600080fd5b50610257600480360360208110156107f357600080fd5b50356135ee565b34801561080657600080fd5b50610257600480360361010081101561081e57600080fd5b50803590602081013515159060408101351515906060810135151590608081013515159060a081013515159060c081013515159060e001351515613890565b34801561086957600080fd5b506102576004803603604081101561088057600080fd5b5080359060200135613b5c565b34801561089957600080fd5b506102c8613d3c565b3480156108ae57600080fd5b50610257600480360360208110156108c557600080fd5b5035600160a060020a0316613d42565b3480156108e157600080fd5b50610257600480360360408110156108f857600080fd5b5080359060200135600160a060020a0316613d65565b34801561091a57600080fd5b506102576004803603604081101561093157600080fd5b5080359060200135600160a060020a0316613f61565b34801561095357600080fd5b506102576004803603606081101561096a57600080fd5b50803590600160a060020a036020820135169060400135614284565b34801561099257600080fd5b506105fd600480360360208110156109a957600080fd5b5035614487565b6000600160a060020a03166003600033600160a060020a03166361fac54d6040518163ffffffff1660e060020a02815260040160206040518083038186803b1580156109fb57600080fd5b505afa158015610a0f573d6000803e3d6000fd5b505050506040513d6020811015610a2557600080fd5b50518152602081019190915260400160002054600160a060020a03161415610a85576040805160e560020a62461bcd02815260206004820152600e602482015260008051602061457c833981519152604482015290519081900360640190fd5b600083815260046020526040902054600160a060020a03161515610ae1576040805160e560020a62461bcd02815260206004820152601460248201526000805160206145dc833981519152604482015290519081900360640190fd5b3360009081526002602052604090205460ff1615610b37576040805160e560020a62461bcd02815260206004820152600b60248201526000805160206145bc833981519152604482015290519081900360640190fd5b600083815260046020908152604091829020548251600160a060020a038681168252928101859052835192909116927f471ea93df2dbd0bbaaf450bc24602363cfa33b0a952c75ce520f6247aca06b9a92918290030190a2505050565b6000600160a060020a03166003600033600160a060020a03166361fac54d6040518163ffffffff1660e060020a02815260040160206040518083038186803b158015610bdf57600080fd5b505afa158015610bf3573d6000803e3d6000fd5b505050506040513d6020811015610c0957600080fd5b50518152602081019190915260400160002054600160a060020a03161415610c69576040805160e560020a62461bcd02815260206004820152600e602482015260008051602061457c833981519152604482015290519081900360640190fd5b600081815260036020526040902054600160a060020a03161515610cc5576040805160e560020a62461bcd028152602060048201526017602482015260008051602061455c833981519152604482015290519081900360640190fd5b600082815260046020526040902054600160a060020a03161515610d21576040805160e560020a62461bcd02815260206004820152601460248201526000805160206145dc833981519152604482015290519081900360640190fd5b60008281526004602081815260408084205485855260039092528084205481517fadcddc58000000000000000000000000000000000000000000000000000000008152600160a060020a0391821694810194909452336024850152905191169263adcddc58926044808201939182900301818387803b158015610da357600080fd5b505af1158015610db7573d6000803e3d6000fd5b505050505050565b6000600160a060020a03166003600033600160a060020a03166361fac54d6040518163ffffffff1660e060020a02815260040160206040518083038186803b158015610e0a57600080fd5b505afa158015610e1e573d6000803e3d6000fd5b505050506040513d6020811015610e3457600080fd5b50518152602081019190915260400160002054600160a060020a03161415610e94576040805160e560020a62461bcd02815260206004820152600e602482015260008051602061457c833981519152604482015290519081900360640190fd5b600160006003600033600160a060020a03166361fac54d6040518163ffffffff1660e060020a02815260040160206040518083038186803b158015610ed857600080fd5b505afa158015610eec573d6000803e3d6000fd5b505050506040513d6020811015610f0257600080fd5b505181526020808201929092526040908101600090812054600160a060020a03168452918301939093529101902054610100900460ff161515610f7d576040805160e560020a62461bcd02815260206004820152601d602482015260008051602061459c833981519152604482015290519081900360640190fd5b600655565b60055481565b6000600160a060020a03166003600033600160a060020a03166361fac54d6040518163ffffffff1660e060020a02815260040160206040518083038186803b158015610fd357600080fd5b505afa158015610fe7573d6000803e3d6000fd5b505050506040513d6020811015610ffd57600080fd5b50518152602081019190915260400160002054600160a060020a0316141561105d576040805160e560020a62461bcd02815260206004820152600e602482015260008051602061457c833981519152604482015290519081900360640190fd5b600081815260036020526040902054600160a060020a031615156110b9576040805160e560020a62461bcd028152602060048201526017602482015260008051602061455c833981519152604482015290519081900360640190fd5b3360009081526001602052604090205460ff161515611110576040805160e560020a62461bcd02815260206004820152601d602482015260008051602061459c833981519152604482015290519081900360640190fd5b600081815260036020908152604080832054600160a060020a03168352600290915290205460ff161561118d576040805160e560020a62461bcd02815260206004820152601260248201527f55736572206973206e6f742062616e6e65640000000000000000000000000000604482015290519081900360640190fd5b600090815260036020908152604080832054600160a060020a0316835260029091529020805460ff19169055565b6000600160a060020a03166003600033600160a060020a03166361fac54d6040518163ffffffff1660e060020a02815260040160206040518083038186803b15801561120657600080fd5b505afa15801561121a573d6000803e3d6000fd5b505050506040513d602081101561123057600080fd5b50518152602081019190915260400160002054600160a060020a03161415611290576040805160e560020a62461bcd02815260206004820152600e602482015260008051602061457c833981519152604482015290519081900360640190fd5b600082815260036020526040902054600160a060020a031615156112ec576040805160e560020a62461bcd02815260206004820152600e602482015260008051602061457c833981519152604482015290519081900360640190fd5b3360009081526002602052604090205460ff1615611342576040805160e560020a62461bcd02815260206004820152600b60248201526000805160206145bc833981519152604482015290519081900360640190fd5b600082815260036020908152604091829020548251600160a060020a03909116815290810183905281517f3a7f2b60f830ee4c4a054a730ea8ff0e10a4f29ce1c9d21cd772aab592a3722c929181900390910190a15050565b6000600160a060020a03166003600033600160a060020a03166361fac54d6040518163ffffffff1660e060020a02815260040160206040518083038186803b1580156113e657600080fd5b505afa1580156113fa573d6000803e3d6000fd5b505050506040513d602081101561141057600080fd5b50518152602081019190915260400160002054600160a060020a03161415611470576040805160e560020a62461bcd02815260206004820152600e602482015260008051602061457c833981519152604482015290519081900360640190fd5b3360009081526002602052604090205460ff16156114c6576040805160e560020a62461bcd02815260206004820152600b60248201526000805160206145bc833981519152604482015290519081900360640190fd5b600082815260046020526040902054600160a060020a03161515611522576040805160e560020a62461bcd02815260206004820152601460248201526000805160206145dc833981519152604482015290519081900360640190fd5b60008281526004602081815260408084205460095482517ff28d4bce000000000000000000000000000000000000000000000000000000008152948501879052336024860152600160a060020a039081166044860152915191169263f28d4bce92606480830193919282900301818787803b1580156115a057600080fd5b505af11580156115b4573d6000803e3d6000fd5b505050506040513d60208110156115ca57600080fd5b5051600084815260046020908152604091829020548251600160a060020a0380861682529351949550339491909316927f91775024e2b8b5fb90a5a6472b7308b684fbb3f0b45725f720b6008df77594f092908290030190a3505050565b6000600160a060020a03166003600033600160a060020a03166361fac54d6040518163ffffffff1660e060020a02815260040160206040518083038186803b15801561167357600080fd5b505afa158015611687573d6000803e3d6000fd5b505050506040513d602081101561169d57600080fd5b50518152602081019190915260400160002054600160a060020a031614156116fd576040805160e560020a62461bcd02815260206004820152600e602482015260008051602061457c833981519152604482015290519081900360640190fd5b3360009081526002602052604090205460ff1615611753576040805160e560020a62461bcd02815260206004820152600b60248201526000805160206145bc833981519152604482015290519081900360640190fd5b600082815260046020526040902054600160a060020a031615156117af576040805160e560020a62461bcd02815260206004820152601460248201526000805160206145dc833981519152604482015290519081900360640190fd5b60008281526004602081905260408083205481517fd8705f25000000000000000000000000000000000000000000000000000000008152600160a060020a0386811694820194909452336024820152915192169263d8705f259260448084019382900301818387803b158015610da357600080fd5b6000600160a060020a03166003600033600160a060020a03166361fac54d6040518163ffffffff1660e060020a02815260040160206040518083038186803b15801561186f57600080fd5b505afa158015611883573d6000803e3d6000fd5b505050506040513d602081101561189957600080fd5b50518152602081019190915260400160002054600160a060020a031614156118f9576040805160e560020a62461bcd02815260206004820152600e602482015260008051602061457c833981519152604482015290519081900360640190fd5b600081815260036020526040902054600160a060020a03161515611955576040805160e560020a62461bcd028152602060048201526017602482015260008051602061455c833981519152604482015290519081900360640190fd5b600082815260046020526040902054600160a060020a031615156119b1576040805160e560020a62461bcd02815260206004820152601460248201526000805160206145dc833981519152604482015290519081900360640190fd5b60008281526004602081815260408084205485855260039092528084205481517f1f317520000000000000000000000000000000000000000000000000000000008152600160a060020a03918216948101949094523360248501529051911692631f317520926044808201939182900301818387803b158015610da357600080fd5b6000600160a060020a03166003600033600160a060020a03166361fac54d6040518163ffffffff1660e060020a02815260040160206040518083038186803b158015611a7e57600080fd5b505afa158015611a92573d6000803e3d6000fd5b505050506040513d6020811015611aa857600080fd5b50518152602081019190915260400160002054600160a060020a03161415611b08576040805160e560020a62461bcd02815260206004820152600e602482015260008051602061457c833981519152604482015290519081900360640190fd5b600081815260036020526040902054600160a060020a03161515611b64576040805160e560020a62461bcd028152602060048201526017602482015260008051602061455c833981519152604482015290519081900360640190fd5b600082815260046020526040902054600160a060020a03161515611bc0576040805160e560020a62461bcd02815260206004820152601460248201526000805160206145dc833981519152604482015290519081900360640190fd5b60008281526004602081815260408084205485855260039092528084205481517fb10d6b46000000000000000000000000000000000000000000000000000000008152600160a060020a0391821694810194909452336024850152905191169263b10d6b46926044808201939182900301818387803b158015610da357600080fd5b60016020526000908152604090205460ff80821691610100810482169162010000820481169163010000008104821691640100000000820481169165010000000000810482169166010000000000009091041687565b6000600160a060020a03166003600033600160a060020a03166361fac54d6040518163ffffffff1660e060020a02815260040160206040518083038186803b158015611ce357600080fd5b505afa158015611cf7573d6000803e3d6000fd5b505050506040513d6020811015611d0d57600080fd5b50518152602081019190915260400160002054600160a060020a03161415611d6d576040805160e560020a62461bcd02815260206004820152600e602482015260008051602061457c833981519152604482015290519081900360640190fd5b600083815260046020526040902054600160a060020a03161515611dc9576040805160e560020a62461bcd02815260206004820152601460248201526000805160206145dc833981519152604482015290519081900360640190fd5b3360009081526001602052604090205465010000000000900460ff161515611e29576040805160e560020a62461bcd02815260206004820152601d602482015260008051602061459c833981519152604482015290519081900360640190fd5b60008381526004602081815260408084205481517f61fac54d0000000000000000000000000000000000000000000000000000000081529151600160a060020a039091169463404628c6946001949193600393859333936361fac54d93808201939190829003018186803b158015611ea057600080fd5b505afa158015611eb4573d6000803e3d6000fd5b505050506040513d6020811015611eca57600080fd5b505181526020808201929092526040908101600090812054600160a060020a03908116855292840194909452918201832054825163ffffffff861660e060020a0281526501000000000090910460ff16151560048201523360248201528782166044820152908616606482015290516084808301939282900301818387803b158015611f5557600080fd5b505af1158015611f69573d6000803e3d6000fd5b50505050505050565b6000600160a060020a03166003600033600160a060020a03166361fac54d6040518163ffffffff1660e060020a02815260040160206040518083038186803b158015611fbd57600080fd5b505afa158015611fd1573d6000803e3d6000fd5b505050506040513d6020811015611fe757600080fd5b50518152602081019190915260400160002054600160a060020a03161415612047576040805160e560020a62461bcd02815260206004820152600e602482015260008051602061457c833981519152604482015290519081900360640190fd5b3360009081526002602052604090205460ff161561209d576040805160e560020a62461bcd02815260206004820152600b60248201526000805160206145bc833981519152604482015290519081900360640190fd5b600084815260046020526040902054600160a060020a031615156120f9576040805160e560020a62461bcd02815260206004820152601460248201526000805160206145dc833981519152604482015290519081900360640190fd5b60008481526004602081815260408084205460085482517f6c3993e7000000000000000000000000000000000000000000000000000000008152600160a060020a038a81169682019690965288861660248201523360448201526064810188905290851660848201529151931692636c3993e79260a48084019391929182900301818787803b15801561218b57600080fd5b505af115801561219f573d6000803e3d6000fd5b505050506040513d60208110156121b557600080fd5b505160408051600160a060020a03808416825291519293508186169233928816917e73e2a228e173d520aed711d6ce2919affe039a310fa872e2b8ef1c7b65a812919081900360200190a45050505050565b6000600160a060020a03166003600033600160a060020a03166361fac54d6040518163ffffffff1660e060020a02815260040160206040518083038186803b15801561225257600080fd5b505afa158015612266573d6000803e3d6000fd5b505050506040513d602081101561227c57600080fd5b50518152602081019190915260400160002054600160a060020a031614156122dc576040805160e560020a62461bcd02815260206004820152600e602482015260008051602061457c833981519152604482015290519081900360640190fd5b600088815260046020526040902054600160a060020a03161515612338576040805160e560020a62461bcd02815260206004820152601460248201526000805160206145dc833981519152604482015290519081900360640190fd5b6000888152600460208181526040808420548b855260039092528084205481517f1c732557000000000000000000000000000000000000000000000000000000008152600160a060020a03918216948101949094523360248501528a151560448501528915156064850152881515608485015287151560a485015286151560c485015285151560e48501529051911692631c73255792610104808201939182900301818387803b1580156123eb57600080fd5b505af11580156123ff573d6000803e3d6000fd5b505050505050505050505050565b6000600160a060020a03166003600033600160a060020a03166361fac54d6040518163ffffffff1660e060020a02815260040160206040518083038186803b15801561245857600080fd5b505afa15801561246c573d6000803e3d6000fd5b505050506040513d602081101561248257600080fd5b50518152602081019190915260400160002054600160a060020a031614156124e2576040805160e560020a62461bcd02815260206004820152600e602482015260008051602061457c833981519152604482015290519081900360640190fd5b3360009081526002602052604090205460ff1615612538576040805160e560020a62461bcd02815260206004820152600b60248201526000805160206145bc833981519152604482015290519081900360640190fd5b600082815260046020526040902054600160a060020a03161515612594576040805160e560020a62461bcd02815260206004820152601460248201526000805160206145dc833981519152604482015290519081900360640190fd5b60008281526004602081905260408083205481517fff22370c000000000000000000000000000000000000000000000000000000008152600160a060020a0386811694820194909452336024820152915192169263ff22370c9260448084019382900301818387803b158015610da357600080fd5b600054600160a060020a0316331461262057600080fd5b60008054604051600160a060020a03909116917ff8df31144d9c2f0f6b59d69b8b98abd5459d07f2742c4df920b25aae33c6482091a26000805473ffffffffffffffffffffffffffffffffffffffff19169055565b6000600160a060020a03166003600033600160a060020a03166361fac54d6040518163ffffffff1660e060020a02815260040160206040518083038186803b1580156126c057600080fd5b505afa1580156126d4573d6000803e3d6000fd5b505050506040513d60208110156126ea57600080fd5b50518152602081019190915260400160002054600160a060020a0316141561274a576040805160e560020a62461bcd02815260206004820152600e602482015260008051602061457c833981519152604482015290519081900360640190fd5b600083815260046020526040902054600160a060020a031615156127a6576040805160e560020a62461bcd02815260206004820152601460248201526000805160206145dc833981519152604482015290519081900360640190fd5b3360009081526002602052604090205460ff16156127fc576040805160e560020a62461bcd02815260206004820152600b60248201526000805160206145bc833981519152604482015290519081900360640190fd5b600083815260046020908152604091829020548251600160a060020a038681168252928101859052835192909116927ff008632dbc706d16be2587a95e61f9b068a5a9821c0d1205aaca0a2b1edc893d92918290030190a2505050565b600054600160a060020a031681565b6000600160a060020a03166003600033600160a060020a03166361fac54d6040518163ffffffff1660e060020a02815260040160206040518083038186803b1580156128b357600080fd5b505afa1580156128c7573d6000803e3d6000fd5b505050506040513d60208110156128dd57600080fd5b50518152602081019190915260400160002054600160a060020a0316141561293d576040805160e560020a62461bcd02815260206004820152600e602482015260008051602061457c833981519152604482015290519081900360640190fd5b600084815260046020526040902054600160a060020a03161515612999576040805160e560020a62461bcd02815260206004820152601460248201526000805160206145dc833981519152604482015290519081900360640190fd5b33600090815260016020526040902054640100000000900460ff1615156129f8576040805160e560020a62461bcd02815260206004820152601d602482015260008051602061459c833981519152604482015290519081900360640190fd5b60008481526004602081815260408084205481517f61fac54d0000000000000000000000000000000000000000000000000000000081529151600160a060020a039091169463fa477a49946001949193600393859333936361fac54d93808201939190829003018186803b158015612a6f57600080fd5b505afa158015612a83573d6000803e3d6000fd5b505050506040513d6020811015612a9957600080fd5b505181526020808201929092526040908101600090812054600160a060020a03908116855292840194909452918201832054825163ffffffff861660e060020a02815264010000000090910460ff1615156004820152336024820152888216604482015287821660648201529086166084820152905160a4808301939282900301818387803b158015612b2b57600080fd5b505af1158015612b3f573d6000803e3d6000fd5b5050505050505050565b60026020526000908152604090205460ff1681565b600654341015612bb8576040805160e560020a62461bcd02815260206004820152601560248201527f496e73756666696369656e74204574682053656e740000000000000000000000604482015290519081900360640190fd5b600081815260036020526040902054600160a060020a031615612c25576040805160e560020a62461bcd02815260206004820152601760248201527f557365726e616d6520616c726561647920657869737473000000000000000000604482015290519081900360640190fd5b600754604080517f141fb940000000000000000000000000000000000000000000000000000000008152336004820152602481018490529051600092600160a060020a03169163141fb94091604480830192602092919082900301818787803b158015612c9157600080fd5b505af1158015612ca5573d6000803e3d6000fd5b505050506040513d6020811015612cbb57600080fd5b5051600092835260036020526040909220805473ffffffffffffffffffffffffffffffffffffffff1916600160a060020a039093169290921790915550565b600054600160a060020a03163314612d1157600080fd5b6000600160a060020a03166003600033600160a060020a03166361fac54d6040518163ffffffff1660e060020a02815260040160206040518083038186803b158015612d5c57600080fd5b505afa158015612d70573d6000803e3d6000fd5b505050506040513d6020811015612d8657600080fd5b50518152602081019190915260400160002054600160a060020a03161415612de6576040805160e560020a62461bcd02815260206004820152600e602482015260008051602061457c833981519152604482015290519081900360640190fd5b600082815260046020526040902054600160a060020a03161515612e42576040805160e560020a62461bcd02815260206004820152601460248201526000805160206145dc833981519152604482015290519081900360640190fd5b60008281526004602081905260408083205481517f243d14880000000000000000000000000000000000000000000000000000000081529283018590523360248401529051600160a060020a039091169263243d1488926044808201939182900301818387803b158015610da357600080fd5b6000600160a060020a03166003600033600160a060020a03166361fac54d6040518163ffffffff1660e060020a02815260040160206040518083038186803b158015612f0057600080fd5b505afa158015612f14573d6000803e3d6000fd5b505050506040513d6020811015612f2a57600080fd5b50518152602081019190915260400160002054600160a060020a03161415612f8a576040805160e560020a62461bcd02815260206004820152600e602482015260008051602061457c833981519152604482015290519081900360640190fd5b600081815260036020526040902054600160a060020a03161515612fe6576040805160e560020a62461bcd028152602060048201526017602482015260008051602061455c833981519152604482015290519081900360640190fd5b3360009081526001602052604090205460ff16151561303d576040805160e560020a62461bcd02815260206004820152601d602482015260008051602061459c833981519152604482015290519081900360640190fd5b600081815260036020908152604080832054600160a060020a03168352600290915290205460ff16156130ba576040805160e560020a62461bcd02815260206004820152601660248201527f5573657220697320616c72656164792062616e6e656400000000000000000000604482015290519081900360640190fd5b6000908152600360209081526040822054600160a060020a031690915260029052565b6000600160a060020a03166003600033600160a060020a03166361fac54d6040518163ffffffff1660e060020a02815260040160206040518083038186803b15801561312857600080fd5b505afa15801561313c573d6000803e3d6000fd5b505050506040513d602081101561315257600080fd5b50518152602081019190915260400160002054600160a060020a031614156131b2576040805160e560020a62461bcd02815260206004820152600e602482015260008051602061457c833981519152604482015290519081900360640190fd5b600160006003600033600160a060020a03166361fac54d6040518163ffffffff1660e060020a02815260040160206040518083038186803b1580156131f657600080fd5b505afa15801561320a573d6000803e3d6000fd5b505050506040513d602081101561322057600080fd5b505181526020808201929092526040908101600090812054600160a060020a0316845291830193909352910190205462010000900460ff161515610f7d576040805160e560020a62461bcd02815260206004820152601d602482015260008051602061459c833981519152604482015290519081900360640190fd5b6000600160a060020a03166003600033600160a060020a03166361fac54d6040518163ffffffff1660e060020a02815260040160206040518083038186803b1580156132e757600080fd5b505afa1580156132fb573d6000803e3d6000fd5b505050506040513d602081101561331157600080fd5b50518152602081019190915260400160002054600160a060020a03161415613371576040805160e560020a62461bcd02815260206004820152600e602482015260008051602061457c833981519152604482015290519081900360640190fd5b600054600160a060020a03163314806133a05750336000908152600160205260409020546301000000900460ff165b15156133e4576040805160e560020a62461bcd02815260206004820152601d602482015260008051602061459c833981519152604482015290519081900360640190fd5b600090815260036020908152604080832054600160a060020a0316835260019091529020805466ffffffffffffff19169055565b600054600160a060020a0316331461342f57600080fd5b6000600160a060020a03166003600033600160a060020a03166361fac54d6040518163ffffffff1660e060020a02815260040160206040518083038186803b15801561347a57600080fd5b505afa15801561348e573d6000803e3d6000fd5b505050506040513d60208110156134a457600080fd5b50518152602081019190915260400160002054600160a060020a03161415613504576040805160e560020a62461bcd02815260206004820152600e602482015260008051602061457c833981519152604482015290519081900360640190fd5b600082815260046020526040902054600160a060020a03161515613560576040805160e560020a62461bcd02815260206004820152601460248201526000805160206145dc833981519152604482015290519081900360640190fd5b60008281526004602081905260408083205481517fe3c0d8b90000000000000000000000000000000000000000000000000000000081529283018590523360248401529051600160a060020a039091169263e3c0d8b9926044808201939182900301818387803b158015610da357600080fd5b600360205260009081526040902054600160a060020a031681565b600081815260046020526040902054600160a060020a03161561365b576040805160e560020a62461bcd02815260206004820152601460248201527f466f72756d20616c726561647920657869737473000000000000000000000000604482015290519081900360640190fd5b6000600160a060020a03166003600033600160a060020a03166361fac54d6040518163ffffffff1660e060020a02815260040160206040518083038186803b1580156136a657600080fd5b505afa1580156136ba573d6000803e3d6000fd5b505050506040513d60208110156136d057600080fd5b50518152602081019190915260400160002054600160a060020a03161415613730576040805160e560020a62461bcd02815260206004820152600e602482015260008051602061457c833981519152604482015290519081900360640190fd5b3360009081526002602052604090205460ff1615613786576040805160e560020a62461bcd02815260206004820152600b60248201526000805160206145bc833981519152604482015290519081900360640190fd5b600a54604080517f733677b7000000000000000000000000000000000000000000000000000000008152600481018490523360248201529051600092600160a060020a03169163733677b791604480830192602092919082900301818787803b1580156137f257600080fd5b505af1158015613806573d6000803e3d6000fd5b505050506040513d602081101561381c57600080fd5b5051600083815260046020908152604091829020805473ffffffffffffffffffffffffffffffffffffffff1916600160a060020a038516908117909155825190815291519293507f6f9535f6c8a4252f81158b92ec563f75929f25d4f516bbdea9a3519b2f503e9392918290030190a15050565b600054600160a060020a031633146138a757600080fd5b6000600160a060020a03166003600033600160a060020a03166361fac54d6040518163ffffffff1660e060020a02815260040160206040518083038186803b1580156138f257600080fd5b505afa158015613906573d6000803e3d6000fd5b505050506040513d602081101561391c57600080fd5b50518152602081019190915260400160002054600160a060020a0316141561397c576040805160e560020a62461bcd02815260206004820152600e602482015260008051602061457c833981519152604482015290519081900360640190fd5b600088815260036020526040902054600160a060020a031615156139ea576040805160e560020a62461bcd02815260206004820152601660248201527f55736572206163636f756e74206e6f7420666f756e6400000000000000000000604482015290519081900360640190fd5b336000908152600160205260409020546301000000900460ff161515613a48576040805160e560020a62461bcd02815260206004820152601d602482015260008051602061459c833981519152604482015290519081900360640190fd5b613a5061451f565b961515875294151560208088019182529415156040808901918252941515606089019081529215156080890190815293151560a0890190815296151560c089019081526000998a5260038752858a2054600160a060020a03168a526001909652939097209551865497519351915192519551945160ff199098169015151761ff001916610100931515939093029290921762ff0000191662010000921515929092029190911763ff00000019166301000000911515919091021764ff000000001916640100000000921515929092029190911765ff0000000000191665010000000000911515919091021766ff0000000000001916660100000000000092151592909202919091179055565b6000600160a060020a03166003600033600160a060020a03166361fac54d6040518163ffffffff1660e060020a02815260040160206040518083038186803b158015613ba757600080fd5b505afa158015613bbb573d6000803e3d6000fd5b505050506040513d6020811015613bd157600080fd5b50518152602081019190915260400160002054600160a060020a03161415613c31576040805160e560020a62461bcd02815260206004820152600e602482015260008051602061457c833981519152604482015290519081900360640190fd5b600082815260046020526040902054600160a060020a03161515613c8d576040805160e560020a62461bcd02815260206004820152601460248201526000805160206145dc833981519152604482015290519081900360640190fd5b3360009081526002602052604090205460ff1615613ce3576040805160e560020a62461bcd02815260206004820152600b60248201526000805160206145bc833981519152604482015290519081900360640190fd5b600082815260046020908152604091829020548251600160a060020a03909116815290810183905281517fc834d42d1b7db30dfbdfced4cc1829ca231d3b2ddebd8f6e7e47054d9dcbb77d929181900390910190a15050565b60065481565b600054600160a060020a03163314613d5957600080fd5b613d62816144a2565b50565b6000600160a060020a03166003600033600160a060020a03166361fac54d6040518163ffffffff1660e060020a02815260040160206040518083038186803b158015613db057600080fd5b505afa158015613dc4573d6000803e3d6000fd5b505050506040513d6020811015613dda57600080fd5b50518152602081019190915260400160002054600160a060020a03161415613e3a576040805160e560020a62461bcd02815260206004820152600e602482015260008051602061457c833981519152604482015290519081900360640190fd5b3360009081526002602052604090205460ff1615613e90576040805160e560020a62461bcd02815260206004820152600b60248201526000805160206145bc833981519152604482015290519081900360640190fd5b600082815260046020526040902054600160a060020a03161515613eec576040805160e560020a62461bcd02815260206004820152601460248201526000805160206145dc833981519152604482015290519081900360640190fd5b60008281526004602081905260408083205481517f289b4a55000000000000000000000000000000000000000000000000000000008152600160a060020a0386811694820194909452336024820152915192169263289b4a559260448084019382900301818387803b158015610da357600080fd5b6000600160a060020a03166003600033600160a060020a03166361fac54d6040518163ffffffff1660e060020a02815260040160206040518083038186803b158015613fac57600080fd5b505afa158015613fc0573d6000803e3d6000fd5b505050506040513d6020811015613fd657600080fd5b50518152602081019190915260400160002054600160a060020a03161415614036576040805160e560020a62461bcd02815260206004820152600e602482015260008051602061457c833981519152604482015290519081900360640190fd5b600082815260046020526040902054600160a060020a03161515614092576040805160e560020a62461bcd02815260206004820152601460248201526000805160206145dc833981519152604482015290519081900360640190fd5b336000908152600160205260409020546601000000000000900460ff1615156140f3576040805160e560020a62461bcd02815260206004820152601d602482015260008051602061459c833981519152604482015290519081900360640190fd5b60008281526004602081815260408084205481517f61fac54d0000000000000000000000000000000000000000000000000000000081529151600160a060020a0390911694632ae434f3946001949193600393859333936361fac54d93808201939190829003018186803b15801561416a57600080fd5b505afa15801561417e573d6000803e3d6000fd5b505050506040513d602081101561419457600080fd5b505181526020808201929092526040908101600090812054600160a060020a03908116855292840194909452918201832054825163ffffffff861660e060020a028152660100000000000090910460ff1615156004820152336024820152908616604482015290516064808301939282900301818387803b15801561421857600080fd5b505af115801561422c573d6000803e3d6000fd5b50505060008381526004602081815260408084208054600160a060020a0316855260028352908420805460ff191660011790559590925290525050805473ffffffffffffffffffffffffffffffffffffffff19169055565b6000600160a060020a03166003600033600160a060020a03166361fac54d6040518163ffffffff1660e060020a02815260040160206040518083038186803b1580156142cf57600080fd5b505afa1580156142e3573d6000803e3d6000fd5b505050506040513d60208110156142f957600080fd5b50518152602081019190915260400160002054600160a060020a03161415614359576040805160e560020a62461bcd02815260206004820152600e602482015260008051602061457c833981519152604482015290519081900360640190fd5b3360009081526002602052604090205460ff16156143af576040805160e560020a62461bcd02815260206004820152600b60248201526000805160206145bc833981519152604482015290519081900360640190fd5b600083815260046020526040902054600160a060020a0316151561440b576040805160e560020a62461bcd02815260206004820152601460248201526000805160206145dc833981519152604482015290519081900360640190fd5b60008381526004602081905260408083205481517fc965d311000000000000000000000000000000000000000000000000000000008152600160a060020a038781169482019490945260248101869052336044820152915192169263c965d3119260648084019382900301818387803b158015611f5557600080fd5b600460205260009081526040902054600160a060020a031681565b600160a060020a03811615156144b757600080fd5b60008054604051600160a060020a03808516939216917f8be0079c531659141344cd1fd0a4f28419497f9722a3daafe3b4186f6b6457e091a36000805473ffffffffffffffffffffffffffffffffffffffff1916600160a060020a0392909216919091179055565b6040805160e081018252600080825260208201819052918101829052606081018290526080810182905260a0810182905260c08101919091529056fe557365726e616d6520646f6573206e6f7420657869737400000000000000000055736572206e6f7420666f756e640000000000000000000000000000000000005573657220646f6573206e6f742068617665207065726d697373696f6e000000557365722062616e6e6564000000000000000000000000000000000000000000466f72756d20646f6573206e6f74206578697374000000000000000000000000a165627a7a723058201a71203e28a5a6cf1f210541787f02f8e855cb7a577931a38c215d2cd61a30aa0029",
  "source": "pragma solidity ^0.5.2;\n\nimport \"./User.sol\"; \nimport \"./Post.sol\"; \nimport \"./Forum.sol\"; \nimport \"./Comment.sol\";\nimport \"./CloneFactory.sol\";\nimport \"./UserFactory.sol\";\nimport \"./ForumFactory.sol\";\nimport \"./Ownable.sol\";\n\ncontract Tartarus is Ownable {\n    event ForumCreated (address forumAddress);  \n    event PostCreated (address indexed forumAddress, address indexed creatorAddress, address postAddress);\n    event CommentCreated (address indexed postAddress, address indexed creatorAddress, address indexed targetAddress, address commentAddress);\n    event ReportUser (address _username, bytes32 reason);\n    event ReportForum (address forumAddress, bytes32 reason);\n    event ReportPost (address indexed forumAddress, address postAddress, bytes32 reason);\n    event ReportComment (address indexed forumAddress, address commentAddress, bytes32 reason);\n\n    mapping (address => AdminPermissions) public admins;\n    mapping (address => bool) public banned;\n    mapping (bytes32 => address) public users;\n    mapping (bytes32 => address) public forums;\n\n    uint public transactionCost = 0;\n    uint public createUserCost = 0;\n\n    struct AdminPermissions {\n        bool ban;\n        bool transactionCost;\n        bool createUserCost;\n        bool editAdmin;\n        bool deleteComment;\n        bool deletePost;\n        bool deleteForum;\n    }\n\n    // address cloneForum;\n    // address clonePost;\n    // address cloneComment;\n    // address cloneUser;\n\n    // constructor() public {\n    //     cloneForum = address(new Forum());\n    //     clonePost = address(new Post());\n    //     cloneComment = address(new Comment());\n    //     cloneUser = address(new User());\n    // }\n\n    address userFactory;\n    address commentFactory;\n    address postFactory;\n    address forumFactory;\n\n    constructor(address _userFactory, address _commentFactory, address _postFactory, address _forumFactory) public {\n        userFactory = _userFactory;\n        commentFactory = _commentFactory;\n        postFactory = _postFactory;\n        forumFactory = _forumFactory;\n    }\n\n    function createUser(bytes32 _username) external payable {\n        require((msg.value >= createUserCost), \"Insufficient Eth Sent\");\n        require(users[_username] == address(0), \"Username already exists\");\n        // require(validateUsername(_username), \"Invalid username\");\n        address newUserAddress = UserFactory(userFactory).createUser(msg.sender, _username);\n        users[_username] = newUserAddress;\n    }\n\n    function createForum(bytes32 _forumName) external {\n        require(forums[_forumName] == address(0), \"Forum already exists\");\n        require(users[User(msg.sender).username()] != address(0), \"User not found\");\n        require(!banned[msg.sender], \"User banned\");\n        address newForumAddress = ForumFactory(forumFactory).createForum(_forumName, msg.sender);\n        forums[_forumName] = newForumAddress;\n        emit ForumCreated(newForumAddress);\n    }   \n\n    function deleteForum(bytes32 _forumName, address payable _suicideAddress) external {\n        require(users[User(msg.sender).username()] != address(0), \"User not found\");\n        require(forums[_forumName] != address(0), \"Forum does not exist\");\n        require(admins[msg.sender].deleteForum, \"User does not have permission\");\n        Forum(forums[_forumName]).deleteForum(\n            admins[users[User(msg.sender).username()]].deleteForum,\n            msg.sender,\n            _suicideAddress);\n        banned[forums[_forumName]] = true;\n        delete forums[_forumName];\n    }   \n\n    function createPost(bytes32 _forumName, bytes32 _post) external {\n        require(users[User(msg.sender).username()] != address(0), \"User not found\");\n        require(!banned[msg.sender], \"User banned\");\n        require(forums[_forumName] != address(0), \"Forum does not exist\");\n        address newPostAddress = Forum(forums[_forumName]).createPost(_post, msg.sender, postFactory);\n        emit PostCreated(forums[_forumName], msg.sender, newPostAddress);\n    }\n\n    function deletePost(bytes32 _forumName, address _postAddress, address payable _suicideAddress) external {\n        require(users[User(msg.sender).username()] != address(0), \"User not found\");\n        require(forums[_forumName] != address(0), \"Forum does not exist\");\n        require(admins[msg.sender].deletePost, \"User does not have permission\");\n        Forum(forums[_forumName]).deletePost(\n            admins[users[User(msg.sender).username()]].deletePost,\n            msg.sender,\n            _postAddress, \n            _suicideAddress \n        );\n    }\n\n    function pinPost(bytes32 _forumName, address _postAddress) external {\n        require(users[User(msg.sender).username()] != address(0), \"User not found\");\n        require(!banned[msg.sender], \"User banned\");\n        require(forums[_forumName] != address(0), \"Forum does not exist\");\n        Forum(forums[_forumName]).pinPost(_postAddress, msg.sender);\n    }\n\n    function unpinPost(bytes32 _forumName, address _postAddress, uint _postIndex) external {\n        require(users[User(msg.sender).username()] != address(0), \"User not found\");\n        require(!banned[msg.sender], \"User banned\");\n        require(forums[_forumName] != address(0), \"Forum does not exist\");\n        Forum(forums[_forumName]).unpinPost(_postAddress, _postIndex, msg.sender);\n    }\n\n    function upvote(bytes32 _forumName, address _postAddress) external {\n        require(users[User(msg.sender).username()] != address(0), \"User not found\");\n        require(!banned[msg.sender], \"User banned\");\n        require(forums[_forumName] != address(0), \"Forum does not exist\");\n        Forum(forums[_forumName]).upvote(_postAddress, msg.sender);\n    }\n\n    function downvote(bytes32 _forumName, address _postAddress) external {\n        require(users[User(msg.sender).username()] != address(0), \"User not found\");\n        require(!banned[msg.sender], \"User banned\");\n        require(forums[_forumName] != address(0), \"Forum does not exist\");\n        Forum(forums[_forumName]).downvote(_postAddress, msg.sender);\n    }\n\n    function createComment(bytes32 _forumName, address _postAddress, address _targetAddress, bytes32 _comment) external {\n        require(users[User(msg.sender).username()] != address(0), \"User not found\");\n        require(!banned[msg.sender], \"User banned\");\n        require(forums[_forumName] != address(0), \"Forum does not exist\");\n        address newCommentAddress = Forum(forums[_forumName]).createComment(_postAddress, _targetAddress, msg.sender, _comment, commentFactory);\n        emit CommentCreated(_postAddress, msg.sender, _targetAddress, newCommentAddress);\n    }\n\n    function deleteComment(\n        bytes32 _forumName, address _postAddress, address _commentAddress, address payable _suicideAddress) external {\n        require(users[User(msg.sender).username()] != address(0), \"User not found\");\n        require(forums[_forumName] != address(0), \"Forum does not exist\");\n        require(admins[msg.sender].deleteComment, \"User does not have permission\");\n        Forum(forums[_forumName]).deleteComment(\n            admins[users[User(msg.sender).username()]].deleteComment,\n            msg.sender,\n            _postAddress, \n            _commentAddress, \n            _suicideAddress\n        );\n    }\n\n    function createModerator(\n        bytes32 _forumName,\n        bytes32 _username, \n        bool _ban, \n        bool _editRules, \n        bool _editDescription, \n        bool _editModerators, \n        bool _deletePost, \n        bool _deleteComment) external {\n        require(users[User(msg.sender).username()] != address(0), \"User not found\");\n        require(forums[_forumName] != address(0), \"Forum does not exist\");\n        Forum(forums[_forumName]).createModerator(\n        users[_username],\n        msg.sender,\n        _ban, \n        _editRules,\n        _editDescription,\n        _editModerators,\n        _deletePost,\n        _deleteComment);\n    }\n\n    function removeModerator(bytes32 _forumName, bytes32 _username) external {\n        require(users[User(msg.sender).username()] != address(0), \"User not found\");\n        require(users[_username] != address(0), \"Username does not exist\");\n        require(forums[_forumName] != address(0), \"Forum does not exist\");\n        Forum(forums[_forumName]).removeModerator(users[_username], msg.sender);\n    }\n\n    function updateForumRules(bytes32 _forumName, bytes32 _rules) external onlyOwner {\n        require(users[User(msg.sender).username()] != address(0), \"User not found\");\n        require(forums[_forumName] != address(0), \"Forum does not exist\");\n        Forum(forums[_forumName]).updateRules(_rules, msg.sender);\n    }\n\n    function updateForumDescription(bytes32 _forumName, bytes32 _description) external onlyOwner {\n        require(users[User(msg.sender).username()] != address(0), \"User not found\");\n        require(forums[_forumName] != address(0), \"Forum does not exist\");\n        Forum(forums[_forumName]).updateDescription(_description, msg.sender);\n    }\n\n    function banUserForum(bytes32 _forumName, bytes32 _username) external {\n        require(users[User(msg.sender).username()] != address(0), \"User not found\");\n        require(users[_username] != address(0), \"Username does not exist\");\n        require(forums[_forumName] != address(0), \"Forum does not exist\");\n        Forum(forums[_forumName]).banUser(users[_username], msg.sender);\n    }\n\n    function unbanUserForum(bytes32 _forumName, bytes32 _username) external {\n        require(users[User(msg.sender).username()] != address(0), \"User not found\");\n        require(users[_username] != address(0), \"Username does not exist\");\n        require(forums[_forumName] != address(0), \"Forum does not exist\");\n        Forum(forums[_forumName]).unbanUser(users[_username], msg.sender);\n    }\n\n    function reportUser(bytes32 _username, bytes32 _reason) external {\n        require(users[User(msg.sender).username()] != address(0), \"User not found\");\n        require(users[_username] != address(0), \"User not found\");\n        require(!banned[msg.sender], \"User banned\");\n        emit ReportUser(users[_username], _reason);\n    }\n\n    function reportForum(bytes32 _forumName, bytes32 _reason) external {\n        require(users[User(msg.sender).username()] != address(0), \"User not found\");\n        require(forums[_forumName] != address(0), \"Forum does not exist\");\n        require(!banned[msg.sender], \"User banned\");\n        emit ReportForum(forums[_forumName], _reason);\n    }\n\n    function reportPost(bytes32 _forumName, address _postAddress, bytes32 _reason) external {\n        require(users[User(msg.sender).username()] != address(0), \"User not found\");\n        require(forums[_forumName] != address(0), \"Forum does not exist\");\n        require(!banned[msg.sender], \"User banned\");\n        emit ReportPost(forums[_forumName], _postAddress, _reason);\n    }\n\n    function reportComment(bytes32 _forumName, address _commentAddress, bytes32 _reason) external {\n        require(users[User(msg.sender).username()] != address(0), \"User not found\");\n        require(forums[_forumName] != address(0), \"Forum does not exist\");\n        require(!banned[msg.sender], \"User banned\");\n        emit ReportComment(forums[_forumName], _commentAddress, _reason);\n    }\n\n    function createAdmin(\n        bytes32 _username, \n        bool _ban,\n        bool _transactionCost,\n        bool _createUserCost,\n        bool _editAdmin,\n        bool _deletePost,\n        bool _deleteComment,\n        bool _deleteForum\n        ) public onlyOwner {\n        require(users[User(msg.sender).username()] != address(0), \"User not found\");\n        require(users[_username] != address(0), \"User account not found\");\n        require(admins[msg.sender].editAdmin, \"User does not have permission\");\n        // require(admins[users[_username]], \"Target user is not admin\"); ???\n        AdminPermissions memory newAdminPermissions;\n        newAdminPermissions.ban = _ban;\n        newAdminPermissions.transactionCost = _transactionCost;\n        newAdminPermissions.createUserCost = _createUserCost;\n        newAdminPermissions.editAdmin = _editAdmin;\n        newAdminPermissions.deleteComment = _deleteComment;\n        newAdminPermissions.deletePost = _deletePost;\n        newAdminPermissions.deleteForum = _deleteForum;\n        admins[users[_username]] = newAdminPermissions;\n    }  \n\n    function removeAdmin(bytes32 _username) external {\n        require(users[User(msg.sender).username()] != address(0), \"User not found\");\n        require (msg.sender == owner || admins[msg.sender].editAdmin, \"User does not have permission\");\n        // require(admins[users[_username]], \"Target user is not admin\"); ???\n        delete admins[users[_username]];\n    }\n\n    function banUserTartarus(bytes32 _username) external view {\n        require(users[User(msg.sender).username()] != address(0), \"User not found\");\n        require(users[_username] != address(0), \"Username does not exist\");\n        require(admins[msg.sender].ban, \"User does not have permission\");\n        require(!banned[users[_username]], \"User is already banned\");\n        banned[users[_username]] == true;\n    }\n\n    function unbanUserTartarus(bytes32 _username) external {\n        require(users[User(msg.sender).username()] != address(0), \"User not found\");\n        require(users[_username] != address(0), \"Username does not exist\");\n        require(admins[msg.sender].ban, \"User does not have permission\");\n        require(!banned[users[_username]], \"User is not banned\");\n        delete banned[users[_username]];\n    }\n\n    function setCreateUserCost(uint _newCost) external {\n        require(users[User(msg.sender).username()] != address(0), \"User not found\");\n        require(admins[users[User(msg.sender).username()]].createUserCost, \"User does not have permission\");\n        createUserCost = _newCost;\n    }\n\n    function setTransactionCost(uint _newCost) external {\n        require(users[User(msg.sender).username()] != address(0), \"User not found\");\n        require(admins[users[User(msg.sender).username()]].transactionCost, \"User does not have permission\");\n        createUserCost = _newCost;\n    }\n}",
  "sourcePath": "/Users/jarenlynch/Ethereum/Tartarus/contracts/Tartarus.sol",
  "compiler": {
    "name": "solc",
    "version": "0.5.2+commit.1df8f40c.Emscripten.clang"
  },
  "schemaVersion": "3.0.6",
  "updatedAt": "2019-04-11T00:14:02.426Z",
  "devdoc": {
    "methods": {
      "renounceOwnership()": {
        "details": "Allows the current owner to relinquish control of the contract."
      },
      "transferOwnership(address)": {
        "details": "Allows the current owner to transfer control of the contract to a newOwner.",
        "params": {
          "_newOwner": "The address to transfer ownership to."
        }
      }
    }
  },
  "userdoc": {
    "methods": {
      "renounceOwnership()": {
        "notice": "Renouncing to ownership will leave the contract without an owner. It will not be possible to call the functions with the `onlyOwner` modifier anymore."
      }
    }
  }
}