{
  "contractName": "Tartarus",
  "abi": [
    {
      "constant": true,
      "inputs": [],
      "name": "transactionCost",
      "outputs": [
        {
          "name": "",
          "type": "uint256"
        }
      ],
      "payable": false,
      "stateMutability": "view",
      "type": "function",
      "signature": "0x2048ff11"
    },
    {
      "constant": true,
      "inputs": [
        {
          "name": "",
          "type": "bytes32"
        }
      ],
      "name": "comments",
      "outputs": [
        {
          "name": "comment",
          "type": "bytes32"
        },
        {
          "name": "creator",
          "type": "bytes32"
        },
        {
          "name": "target",
          "type": "bytes32"
        },
        {
          "name": "time",
          "type": "uint256"
        }
      ],
      "payable": false,
      "stateMutability": "view",
      "type": "function",
      "signature": "0x61aebc94"
    },
    {
      "constant": false,
      "inputs": [],
      "name": "renounceOwnership",
      "outputs": [],
      "payable": false,
      "stateMutability": "nonpayable",
      "type": "function",
      "signature": "0x715018a6"
    },
    {
      "constant": true,
      "inputs": [],
      "name": "owner",
      "outputs": [
        {
          "name": "",
          "type": "address"
        }
      ],
      "payable": false,
      "stateMutability": "view",
      "type": "function",
      "signature": "0x8da5cb5b"
    },
    {
      "constant": true,
      "inputs": [
        {
          "name": "",
          "type": "bytes32"
        }
      ],
      "name": "users",
      "outputs": [
        {
          "name": "username",
          "type": "bytes32"
        },
        {
          "name": "creator",
          "type": "address"
        },
        {
          "name": "time",
          "type": "uint256"
        }
      ],
      "payable": false,
      "stateMutability": "view",
      "type": "function",
      "signature": "0xcea6ab98"
    },
    {
      "constant": true,
      "inputs": [
        {
          "name": "",
          "type": "bytes32"
        }
      ],
      "name": "admins",
      "outputs": [
        {
          "name": "ban",
          "type": "bool"
        },
        {
          "name": "setCost",
          "type": "bool"
        },
        {
          "name": "editAdmin",
          "type": "bool"
        },
        {
          "name": "deleteComment",
          "type": "bool"
        },
        {
          "name": "deletePost",
          "type": "bool"
        },
        {
          "name": "deleteForum",
          "type": "bool"
        }
      ],
      "payable": false,
      "stateMutability": "view",
      "type": "function",
      "signature": "0xd079661b"
    },
    {
      "constant": true,
      "inputs": [
        {
          "name": "",
          "type": "bytes32"
        }
      ],
      "name": "banned",
      "outputs": [
        {
          "name": "",
          "type": "bool"
        }
      ],
      "payable": false,
      "stateMutability": "view",
      "type": "function",
      "signature": "0xdca259cb"
    },
    {
      "constant": true,
      "inputs": [
        {
          "name": "",
          "type": "bytes32"
        }
      ],
      "name": "posts",
      "outputs": [
        {
          "name": "post",
          "type": "bytes32"
        },
        {
          "name": "creator",
          "type": "bytes32"
        },
        {
          "name": "votes",
          "type": "int32"
        },
        {
          "name": "time",
          "type": "uint256"
        }
      ],
      "payable": false,
      "stateMutability": "view",
      "type": "function",
      "signature": "0xdff72dec"
    },
    {
      "constant": true,
      "inputs": [],
      "name": "createUserCost",
      "outputs": [
        {
          "name": "",
          "type": "uint256"
        }
      ],
      "payable": false,
      "stateMutability": "view",
      "type": "function",
      "signature": "0xf004a35e"
    },
    {
      "constant": false,
      "inputs": [
        {
          "name": "_newOwner",
          "type": "address"
        }
      ],
      "name": "transferOwnership",
      "outputs": [],
      "payable": false,
      "stateMutability": "nonpayable",
      "type": "function",
      "signature": "0xf2fde38b"
    },
    {
      "constant": true,
      "inputs": [
        {
          "name": "",
          "type": "bytes32"
        }
      ],
      "name": "forums",
      "outputs": [
        {
          "name": "name",
          "type": "bytes32"
        },
        {
          "name": "rules",
          "type": "bytes32"
        },
        {
          "name": "description",
          "type": "bytes32"
        },
        {
          "name": "creator",
          "type": "bytes32"
        },
        {
          "name": "time",
          "type": "uint256"
        }
      ],
      "payable": false,
      "stateMutability": "view",
      "type": "function",
      "signature": "0xfb118717"
    },
    {
      "inputs": [
        {
          "name": "_user",
          "type": "bytes32"
        }
      ],
      "payable": false,
      "stateMutability": "nonpayable",
      "type": "constructor",
      "signature": "constructor"
    },
    {
      "anonymous": false,
      "inputs": [
        {
          "indexed": false,
          "name": "forum",
          "type": "bytes32"
        }
      ],
      "name": "ForumCreated",
      "type": "event",
      "signature": "0x373bb9e035604ae9212e933aabdc815a0e94eed18cad9208b5c7b07180a3fef5"
    },
    {
      "anonymous": false,
      "inputs": [
        {
          "indexed": true,
          "name": "forum",
          "type": "bytes32"
        },
        {
          "indexed": true,
          "name": "creator",
          "type": "bytes32"
        },
        {
          "indexed": false,
          "name": "postId",
          "type": "bytes32"
        }
      ],
      "name": "PostCreated",
      "type": "event",
      "signature": "0x429af90a9753bcf2e29810ac61fec0881ff36b9814cf918c1ca59dbd04f5d019"
    },
    {
      "anonymous": false,
      "inputs": [
        {
          "indexed": true,
          "name": "postId",
          "type": "bytes32"
        },
        {
          "indexed": true,
          "name": "creator",
          "type": "bytes32"
        },
        {
          "indexed": true,
          "name": "targetId",
          "type": "bytes32"
        },
        {
          "indexed": false,
          "name": "commentId",
          "type": "bytes32"
        }
      ],
      "name": "CommentCreated",
      "type": "event",
      "signature": "0x26137cf2a755cd72889bec726cf05a8d5975f7bb861bc67a11f008008e49627c"
    },
    {
      "anonymous": false,
      "inputs": [
        {
          "indexed": false,
          "name": "_user",
          "type": "bytes32"
        },
        {
          "indexed": false,
          "name": "reason",
          "type": "bytes32"
        }
      ],
      "name": "ReportUser",
      "type": "event",
      "signature": "0x90cff83c58dbbcc6d953b0210c9ede5033a38f64e55792d4a7300f1d6220b7b3"
    },
    {
      "anonymous": false,
      "inputs": [
        {
          "indexed": false,
          "name": "_forum",
          "type": "bytes32"
        },
        {
          "indexed": false,
          "name": "reason",
          "type": "bytes32"
        }
      ],
      "name": "ReportForum",
      "type": "event",
      "signature": "0x870e871839dc020700465b1a477176917d6c99a74dab883537a6329787eca6ec"
    },
    {
      "anonymous": false,
      "inputs": [
        {
          "indexed": true,
          "name": "_forum",
          "type": "bytes32"
        },
        {
          "indexed": false,
          "name": "_postId",
          "type": "bytes32"
        },
        {
          "indexed": false,
          "name": "reason",
          "type": "bytes32"
        }
      ],
      "name": "ReportPost",
      "type": "event",
      "signature": "0x1d763530a57993a6cc26dcbb543eaafe2e430aef6c8d9fc8f44ba567d68576b4"
    },
    {
      "anonymous": false,
      "inputs": [
        {
          "indexed": true,
          "name": "_forum",
          "type": "bytes32"
        },
        {
          "indexed": false,
          "name": "_postId",
          "type": "bytes32"
        },
        {
          "indexed": false,
          "name": "_commentId",
          "type": "bytes32"
        },
        {
          "indexed": false,
          "name": "reason",
          "type": "bytes32"
        }
      ],
      "name": "ReportComment",
      "type": "event",
      "signature": "0x88955ec1e09cabc487141eb757b7c5c353d64d30d48c31dc3a9f517032a5c3d6"
    },
    {
      "anonymous": false,
      "inputs": [
        {
          "indexed": true,
          "name": "previousOwner",
          "type": "address"
        }
      ],
      "name": "OwnershipRenounced",
      "type": "event",
      "signature": "0xf8df31144d9c2f0f6b59d69b8b98abd5459d07f2742c4df920b25aae33c64820"
    },
    {
      "anonymous": false,
      "inputs": [
        {
          "indexed": true,
          "name": "previousOwner",
          "type": "address"
        },
        {
          "indexed": true,
          "name": "newOwner",
          "type": "address"
        }
      ],
      "name": "OwnershipTransferred",
      "type": "event",
      "signature": "0x8be0079c531659141344cd1fd0a4f28419497f9722a3daafe3b4186f6b6457e0"
    },
    {
      "constant": false,
      "inputs": [
        {
          "name": "_username",
          "type": "bytes32"
        }
      ],
      "name": "createUser",
      "outputs": [],
      "payable": true,
      "stateMutability": "payable",
      "type": "function",
      "signature": "0xabf7bfd8"
    },
    {
      "constant": false,
      "inputs": [
        {
          "name": "_user",
          "type": "bytes32"
        },
        {
          "name": "_forum",
          "type": "bytes32"
        },
        {
          "name": "_rules",
          "type": "bytes32"
        },
        {
          "name": "_description",
          "type": "bytes32"
        }
      ],
      "name": "createForum",
      "outputs": [],
      "payable": false,
      "stateMutability": "nonpayable",
      "type": "function",
      "signature": "0xc7cd0459"
    },
    {
      "constant": false,
      "inputs": [
        {
          "name": "_user",
          "type": "bytes32"
        },
        {
          "name": "_forum",
          "type": "bytes32"
        }
      ],
      "name": "deleteForum",
      "outputs": [],
      "payable": false,
      "stateMutability": "nonpayable",
      "type": "function",
      "signature": "0xfc6c2455"
    },
    {
      "constant": false,
      "inputs": [
        {
          "name": "_user",
          "type": "bytes32"
        },
        {
          "name": "_forum",
          "type": "bytes32"
        },
        {
          "name": "_post",
          "type": "bytes32"
        }
      ],
      "name": "createPost",
      "outputs": [],
      "payable": false,
      "stateMutability": "nonpayable",
      "type": "function",
      "signature": "0x67cdd3a9"
    },
    {
      "constant": false,
      "inputs": [
        {
          "name": "_user",
          "type": "bytes32"
        },
        {
          "name": "_forum",
          "type": "bytes32"
        },
        {
          "name": "_postId",
          "type": "bytes32"
        }
      ],
      "name": "deletePost",
      "outputs": [],
      "payable": false,
      "stateMutability": "nonpayable",
      "type": "function",
      "signature": "0x5cdc5b6c"
    },
    {
      "constant": false,
      "inputs": [
        {
          "name": "_user",
          "type": "bytes32"
        },
        {
          "name": "_forum",
          "type": "bytes32"
        },
        {
          "name": "_postId",
          "type": "bytes32"
        }
      ],
      "name": "pinPost",
      "outputs": [],
      "payable": false,
      "stateMutability": "nonpayable",
      "type": "function",
      "signature": "0x8241261b"
    },
    {
      "constant": false,
      "inputs": [
        {
          "name": "_user",
          "type": "bytes32"
        },
        {
          "name": "_forum",
          "type": "bytes32"
        },
        {
          "name": "_postId",
          "type": "bytes32"
        },
        {
          "name": "_postIndex",
          "type": "uint256"
        }
      ],
      "name": "unpinPost",
      "outputs": [],
      "payable": false,
      "stateMutability": "nonpayable",
      "type": "function",
      "signature": "0xff4b03e9"
    },
    {
      "constant": false,
      "inputs": [
        {
          "name": "_forum",
          "type": "bytes32"
        },
        {
          "name": "_user",
          "type": "bytes32"
        },
        {
          "name": "_postId",
          "type": "bytes32"
        }
      ],
      "name": "upvote",
      "outputs": [],
      "payable": false,
      "stateMutability": "nonpayable",
      "type": "function",
      "signature": "0x157449a4"
    },
    {
      "constant": false,
      "inputs": [
        {
          "name": "_forum",
          "type": "bytes32"
        },
        {
          "name": "_user",
          "type": "bytes32"
        },
        {
          "name": "_postId",
          "type": "bytes32"
        }
      ],
      "name": "downvote",
      "outputs": [],
      "payable": false,
      "stateMutability": "nonpayable",
      "type": "function",
      "signature": "0xff24ba04"
    },
    {
      "constant": false,
      "inputs": [
        {
          "name": "_user",
          "type": "bytes32"
        },
        {
          "name": "_forum",
          "type": "bytes32"
        },
        {
          "name": "_postId",
          "type": "bytes32"
        },
        {
          "name": "_comment",
          "type": "bytes32"
        },
        {
          "name": "_targetId",
          "type": "bytes32"
        }
      ],
      "name": "createComment",
      "outputs": [],
      "payable": false,
      "stateMutability": "nonpayable",
      "type": "function",
      "signature": "0xaefd8000"
    },
    {
      "constant": false,
      "inputs": [
        {
          "name": "_user",
          "type": "bytes32"
        },
        {
          "name": "_forum",
          "type": "bytes32"
        },
        {
          "name": "_commentId",
          "type": "bytes32"
        }
      ],
      "name": "deleteComment",
      "outputs": [],
      "payable": false,
      "stateMutability": "nonpayable",
      "type": "function",
      "signature": "0x0dce5c21"
    },
    {
      "constant": false,
      "inputs": [
        {
          "name": "_user",
          "type": "bytes32"
        },
        {
          "name": "_forum",
          "type": "bytes32"
        },
        {
          "name": "_targetUser",
          "type": "bytes32"
        },
        {
          "name": "_ban",
          "type": "bool"
        },
        {
          "name": "_editInfo",
          "type": "bool"
        },
        {
          "name": "_editModerators",
          "type": "bool"
        },
        {
          "name": "_deletePost",
          "type": "bool"
        }
      ],
      "name": "createModerator",
      "outputs": [],
      "payable": false,
      "stateMutability": "nonpayable",
      "type": "function",
      "signature": "0x147363f5"
    },
    {
      "constant": false,
      "inputs": [
        {
          "name": "_user",
          "type": "bytes32"
        },
        {
          "name": "_targetUser",
          "type": "bytes32"
        },
        {
          "name": "_forum",
          "type": "bytes32"
        }
      ],
      "name": "removeModerator",
      "outputs": [],
      "payable": false,
      "stateMutability": "nonpayable",
      "type": "function",
      "signature": "0xd3dde4a3"
    },
    {
      "constant": false,
      "inputs": [
        {
          "name": "_user",
          "type": "bytes32"
        },
        {
          "name": "_forum",
          "type": "bytes32"
        },
        {
          "name": "_rules",
          "type": "bytes32"
        }
      ],
      "name": "setForumRules",
      "outputs": [],
      "payable": false,
      "stateMutability": "nonpayable",
      "type": "function",
      "signature": "0x16ac66fe"
    },
    {
      "constant": false,
      "inputs": [
        {
          "name": "_user",
          "type": "bytes32"
        },
        {
          "name": "_forum",
          "type": "bytes32"
        },
        {
          "name": "_description",
          "type": "bytes32"
        }
      ],
      "name": "setForumDescription",
      "outputs": [],
      "payable": false,
      "stateMutability": "nonpayable",
      "type": "function",
      "signature": "0x03df68ba"
    },
    {
      "constant": false,
      "inputs": [
        {
          "name": "_user",
          "type": "bytes32"
        },
        {
          "name": "_targetUser",
          "type": "bytes32"
        },
        {
          "name": "_forum",
          "type": "bytes32"
        }
      ],
      "name": "banUserForum",
      "outputs": [],
      "payable": false,
      "stateMutability": "nonpayable",
      "type": "function",
      "signature": "0xf677c4fd"
    },
    {
      "constant": false,
      "inputs": [
        {
          "name": "_user",
          "type": "bytes32"
        },
        {
          "name": "_targetUser",
          "type": "bytes32"
        },
        {
          "name": "_forum",
          "type": "bytes32"
        }
      ],
      "name": "unbanUserForum",
      "outputs": [],
      "payable": false,
      "stateMutability": "nonpayable",
      "type": "function",
      "signature": "0x1ba8b7ea"
    },
    {
      "constant": false,
      "inputs": [
        {
          "name": "_user",
          "type": "bytes32"
        },
        {
          "name": "_targetUser",
          "type": "bytes32"
        },
        {
          "name": "_reason",
          "type": "bytes32"
        }
      ],
      "name": "reportUser",
      "outputs": [],
      "payable": false,
      "stateMutability": "nonpayable",
      "type": "function",
      "signature": "0xaaf4edd9"
    },
    {
      "constant": false,
      "inputs": [
        {
          "name": "_user",
          "type": "bytes32"
        },
        {
          "name": "_forum",
          "type": "bytes32"
        },
        {
          "name": "_reason",
          "type": "bytes32"
        }
      ],
      "name": "reportForum",
      "outputs": [],
      "payable": false,
      "stateMutability": "nonpayable",
      "type": "function",
      "signature": "0x84d78178"
    },
    {
      "constant": false,
      "inputs": [
        {
          "name": "_user",
          "type": "bytes32"
        },
        {
          "name": "_forum",
          "type": "bytes32"
        },
        {
          "name": "_postId",
          "type": "bytes32"
        },
        {
          "name": "_reason",
          "type": "bytes32"
        }
      ],
      "name": "reportPost",
      "outputs": [],
      "payable": false,
      "stateMutability": "nonpayable",
      "type": "function",
      "signature": "0x596c7c86"
    },
    {
      "constant": false,
      "inputs": [
        {
          "name": "_user",
          "type": "bytes32"
        },
        {
          "name": "_forum",
          "type": "bytes32"
        },
        {
          "name": "_postId",
          "type": "bytes32"
        },
        {
          "name": "_commentId",
          "type": "bytes32"
        },
        {
          "name": "_reason",
          "type": "bytes32"
        }
      ],
      "name": "reportComment",
      "outputs": [],
      "payable": false,
      "stateMutability": "nonpayable",
      "type": "function",
      "signature": "0xe38abf4c"
    },
    {
      "constant": false,
      "inputs": [
        {
          "name": "_user",
          "type": "bytes32"
        },
        {
          "name": "_targetUser",
          "type": "bytes32"
        },
        {
          "name": "_ban",
          "type": "bool"
        },
        {
          "name": "_setCost",
          "type": "bool"
        },
        {
          "name": "_editAdmin",
          "type": "bool"
        },
        {
          "name": "_deletePost",
          "type": "bool"
        },
        {
          "name": "_deleteComment",
          "type": "bool"
        },
        {
          "name": "_deleteForum",
          "type": "bool"
        }
      ],
      "name": "createAdmin",
      "outputs": [],
      "payable": false,
      "stateMutability": "nonpayable",
      "type": "function",
      "signature": "0x24135cad"
    },
    {
      "constant": false,
      "inputs": [
        {
          "name": "_user",
          "type": "bytes32"
        },
        {
          "name": "_targetUser",
          "type": "bytes32"
        }
      ],
      "name": "removeAdmin",
      "outputs": [],
      "payable": false,
      "stateMutability": "nonpayable",
      "type": "function",
      "signature": "0xba6a8121"
    },
    {
      "constant": false,
      "inputs": [
        {
          "name": "_user",
          "type": "bytes32"
        },
        {
          "name": "_targetUser",
          "type": "bytes32"
        }
      ],
      "name": "banUserTartarus",
      "outputs": [],
      "payable": false,
      "stateMutability": "nonpayable",
      "type": "function",
      "signature": "0x7725b111"
    },
    {
      "constant": false,
      "inputs": [
        {
          "name": "_user",
          "type": "bytes32"
        },
        {
          "name": "_targetUser",
          "type": "bytes32"
        }
      ],
      "name": "unbanUserTartarus",
      "outputs": [],
      "payable": false,
      "stateMutability": "nonpayable",
      "type": "function",
      "signature": "0xea34d123"
    },
    {
      "constant": false,
      "inputs": [
        {
          "name": "_user",
          "type": "bytes32"
        },
        {
          "name": "_newCost",
          "type": "uint256"
        }
      ],
      "name": "setCreateUserCost",
      "outputs": [],
      "payable": false,
      "stateMutability": "nonpayable",
      "type": "function",
      "signature": "0x861ac9b9"
    },
    {
      "constant": false,
      "inputs": [
        {
          "name": "_user",
          "type": "bytes32"
        },
        {
          "name": "_newCost",
          "type": "uint256"
        }
      ],
      "name": "setTransactionCost",
      "outputs": [],
      "payable": false,
      "stateMutability": "nonpayable",
      "type": "function",
      "signature": "0x40ef35dd"
    }
  ],
  "bytecode": "0x6080604052600060075560006008553480156200001b57600080fd5b506040516020806200447f833981018060405260208110156200003d57600080fd5b50516000805433600160a060020a031991821681179091161790556200006c816401000000006200013a810204565b620000766200028f565b600180825260208083018281526040808501848152606086018581526080870186815260a088018781526000998a529690955291909620945185549251965191519351945160ff199093169015151761ff001916610100961515969096029590951762ff0000191662010000951515959095029490941763ff00000019166301000000911515919091021764ff000000001916640100000000911515919091021765ff000000000019166501000000000092151592909202919091179055620002e4565b600854341015620001ac57604080517f08c379a000000000000000000000000000000000000000000000000000000000815260206004820152601560248201527f496e73756666696369656e74204574682053656e740000000000000000000000604482015290519081900360640190fd5b600081815260036020526040902060010154600160a060020a0316156200023457604080517f08c379a000000000000000000000000000000000000000000000000000000000815260206004820152601660248201527f557365726e616d6520616c726561647920657869737400000000000000000000604482015290519081900360640190fd5b6200023e620002c4565b8181523360208083019182524260408085019182526000958652600390925293209151825551600182018054600160a060020a031916600160a060020a039092169190911790559051600290910155565b6040805160c081018252600080825260208201819052918101829052606081018290526080810182905260a081019190915290565b604080516060810182526000808252602082018190529181019190915290565b61418b80620002f46000396000f3fe608060405260043610610242576000357c010000000000000000000000000000000000000000000000000000000090048063aaf4edd911610140578063dff72dec116100c8578063f677c4fd1161008c578063f677c4fd146109a6578063fb118717146109dc578063fc6c245514610a31578063ff24ba0414610a61578063ff4b03e914610a9757610242565b8063dff72dec14610897578063e38abf4c146108ec578063ea34d1231461092e578063f004a35e1461095e578063f2fde38b1461097357610242565b8063c7cd04591161010f578063c7cd045914610734578063cea6ab9814610770578063d079661b146107c0578063d3dde4a314610823578063dca259cb1461085957610242565b8063aaf4edd91461066f578063abf7bfd8146106a5578063aefd8000146106c2578063ba6a81211461070457610242565b8063596c7c86116101ce5780637725b111116101925780637725b111146105725780638241261b146105a257806384d78178146105d8578063861ac9b91461060e5780638da5cb5b1461063e57610242565b8063596c7c86146104655780635cdc5b6c146104a157806361aebc94146104d757806367cdd3a914610527578063715018a61461055d57610242565b806316ac66fe1161021557806316ac66fe146103415780631ba8b7ea146103775780632048ff11146103ad57806324135cad146103d457806340ef35dd1461043557610242565b806303df68ba146102475780630dce5c211461027f578063147363f5146102b5578063157449a41461030b575b600080fd5b34801561025357600080fd5b5061027d6004803603606081101561026a57600080fd5b5080359060208101359060400135610ad3565b005b34801561028b57600080fd5b5061027d600480360360608110156102a257600080fd5b5080359060208101359060400135610c34565b3480156102c157600080fd5b5061027d600480360360e08110156102d857600080fd5b508035906020810135906040810135906060810135151590608081013515159060a081013515159060c001351515610e4f565b34801561031757600080fd5b5061027d6004803603606081101561032e57600080fd5b5080359060208101359060400135611140565b34801561034d57600080fd5b5061027d6004803603606081101561036457600080fd5b5080359060208101359060400135611334565b34801561038357600080fd5b5061027d6004803603606081101561039a57600080fd5b5080359060208101359060400135611495565b3480156103b957600080fd5b506103c26116da565b60408051918252519081900360200190f35b3480156103e057600080fd5b5061027d60048036036101008110156103f857600080fd5b5080359060208101359060408101351515906060810135151590608081013515159060a081013515159060c081013515159060e0013515156116e0565b34801561044157600080fd5b5061027d6004803603604081101561045857600080fd5b50803590602001356118fd565b34801561047157600080fd5b5061027d6004803603608081101561048857600080fd5b50803590602081013590604081013590606001356119e7565b3480156104ad57600080fd5b5061027d600480360360608110156104c457600080fd5b5080359060208101359060400135611bb7565b3480156104e357600080fd5b50610501600480360360208110156104fa57600080fd5b5035611dc9565b604080519485526020850193909352838301919091526060830152519081900360800190f35b34801561053357600080fd5b5061027d6004803603606081101561054a57600080fd5b5080359060208101359060400135611df0565b34801561056957600080fd5b5061027d612023565b34801561057e57600080fd5b5061027d6004803603604081101561059557600080fd5b508035906020013561208f565b3480156105ae57600080fd5b5061027d600480360360608110156105c557600080fd5b5080359060208101359060400135612253565b3480156105e457600080fd5b5061027d600480360360608110156105fb57600080fd5b50803590602081013590604001356124a6565b34801561061a57600080fd5b5061027d6004803603604081101561063157600080fd5b508035906020013561261d565b34801561064a57600080fd5b50610653612707565b60408051600160a060020a039092168252519081900360200190f35b34801561067b57600080fd5b5061027d6004803603606081101561069257600080fd5b5080359060208101359060400135612716565b61027d600480360360208110156106bb57600080fd5b5035612896565b3480156106ce57600080fd5b5061027d600480360360a08110156106e557600080fd5b50803590602081013590604081013590606081013590608001356129c6565b34801561071057600080fd5b5061027d6004803603604081101561072757600080fd5b5080359060200135612ca1565b34801561074057600080fd5b5061027d6004803603608081101561075757600080fd5b5080359060208101359060408101359060600135612e06565b34801561077c57600080fd5b5061079a6004803603602081101561079357600080fd5b5035612ff7565b60408051938452600160a060020a03909216602084015282820152519081900360600190f35b3480156107cc57600080fd5b506107ea600480360360208110156107e357600080fd5b5035613021565b604080519615158752941515602087015292151585850152901515606085015215156080840152151560a0830152519081900360c00190f35b34801561082f57600080fd5b5061027d6004803603606081101561084657600080fd5b5080359060208101359060400135613069565b34801561086557600080fd5b506108836004803603602081101561087c57600080fd5b5035613242565b604080519115158252519081900360200190f35b3480156108a357600080fd5b506108c1600480360360208110156108ba57600080fd5b5035613257565b604080519485526020850193909352600391820b90910b838301526060830152519081900360800190f35b3480156108f857600080fd5b5061027d600480360360a081101561090f57600080fd5b5080359060208101359060408101359060608101359060800135613281565b34801561093a57600080fd5b5061027d6004803603604081101561095157600080fd5b508035906020013561346d565b34801561096a57600080fd5b506103c261362f565b34801561097f57600080fd5b5061027d6004803603602081101561099657600080fd5b5035600160a060020a0316613635565b3480156109b257600080fd5b5061027d600480360360608110156109c957600080fd5b5080359060208101359060400135613658565b3480156109e857600080fd5b50610a06600480360360208110156109ff57600080fd5b503561389f565b6040805195865260208601949094528484019290925260608401526080830152519081900360a00190f35b348015610a3d57600080fd5b5061027d60048036036040811015610a5457600080fd5b50803590602001356138cf565b348015610a6d57600080fd5b5061027d60048036036060811015610a8457600080fd5b5080359060208101359060400135613a6d565b348015610aa357600080fd5b5061027d60048036036080811015610aba57600080fd5b5080359060208101359060408101359060600135613c65565b6000838152600360205260409020600101548390600160a060020a031615801590610b175750600081815260036020526040902060010154600160a060020a031633145b1515610b5b576040805160e560020a62461bcd02815260206004820152601160248201526000805160206140a0833981519152604482015290519081900360640190fd5b60008381526004602052604090206003015483901515610bb3576040805160e560020a62461bcd0281526020600482015260146024820152600080516020614140833981519152604482015290519081900360640190fd5b6000848152600460209081526040808320888452600601909152902054610100900460ff161515610c1c576040805160e560020a62461bcd02815260206004820152601d6024820152600080516020614100833981519152604482015290519081900360640190fd5b50506000918252600460205260409091206002015550565b6000838152600360205260409020600101548390600160a060020a031615801590610c785750600081815260036020526040902060010154600160a060020a031633145b1515610cbc576040805160e560020a62461bcd02815260206004820152601160248201526000805160206140a0833981519152604482015290519081900360640190fd5b60008381526004602052604090206003015483901515610d14576040805160e560020a62461bcd0281526020600482015260146024820152600080516020614140833981519152604482015290519081900360640190fd5b60008381526006602052604090206001015483901515610d7e576040805160e560020a62461bcd02815260206004820152601660248201527f436f6d6d656e7420646f6573206e6f7420657869737400000000000000000000604482015290519081900360640190fd5b6000868152600160205260409020546301000000900460ff1680610dc657506000858152600460209081526040808320898452600601909152902054640100000000900460ff165b80610de1575060008481526006602052604090206001015486145b1515610e25576040805160e560020a62461bcd02815260206004820152601d6024820152600080516020614100833981519152604482015290519081900360640190fd5b50505060009081526006602052604081208181556001810182905560028101829055600301555050565b6000878152600360205260409020600101548790600160a060020a031615801590610e935750600081815260036020526040902060010154600160a060020a031633145b1515610ed7576040805160e560020a62461bcd02815260206004820152601160248201526000805160206140a0833981519152604482015290519081900360640190fd5b6000868152600360205260409020600101548690600160a060020a03161515610f38576040805160e560020a62461bcd02815260206004820152601360248201526000805160206140c0833981519152604482015290519081900360640190fd5b60008881526004602052604090206003015488901515610f90576040805160e560020a62461bcd0281526020600482015260146024820152600080516020614140833981519152604482015290519081900360640190fd5b60008881526002602052604090205488908a9060ff16158015610fd05750600081815260046020908152604080832085845260070190915290205460ff16155b1515611014576040805160e560020a62461bcd02815260206004820152600b6024820152600080516020614120833981519152604482015290519081900360640190fd5b60008b81526004602090815260408083208f845260060190915290205462010000900460ff16151561107e576040805160e560020a62461bcd02815260206004820152601d6024820152600080516020614100833981519152604482015290519081900360640190fd5b611086613f0f565b9815158952505050509215156020808601918252921515604080870191825292151560808701908152600098895260048552838920998952600690990190935295208351815496519251606090950151975115156401000000000264ff000000001998151563010000000263ff00000019961515620100000262ff0000199515156101000261ff001994151560ff19909b169a909a1793909316989098179390931617939093169490941794909416929092179091555050565b6000828152600360205260409020600101548290600160a060020a0316158015906111845750600081815260036020526040902060010154600160a060020a031633145b15156111c8576040805160e560020a62461bcd02815260206004820152601160248201526000805160206140a0833981519152604482015290519081900360640190fd5b60008481526004602052604090206003015484901515611220576040805160e560020a62461bcd0281526020600482015260146024820152600080516020614140833981519152604482015290519081900360640190fd5b6000848152600260205260409020548490869060ff161580156112605750600081815260046020908152604080832085845260070190915290205460ff16155b15156112a4576040805160e560020a62461bcd02815260206004820152600b6024820152600080516020614120833981519152604482015290519081900360640190fd5b600085815260056020526040902060010154859015156112fc576040805160e560020a62461bcd02815260206004820152601360248201526000805160206140e0833981519152604482015290519081900360640190fd5b505050600092835250506005602052604090206002018054600381810b600101900b63ffffffff1663ffffffff199091161790555050565b6000838152600360205260409020600101548390600160a060020a0316158015906113785750600081815260036020526040902060010154600160a060020a031633145b15156113bc576040805160e560020a62461bcd02815260206004820152601160248201526000805160206140a0833981519152604482015290519081900360640190fd5b60008381526004602052604090206003015483901515611414576040805160e560020a62461bcd0281526020600482015260146024820152600080516020614140833981519152604482015290519081900360640190fd5b6000848152600460209081526040808320888452600601909152902054610100900460ff16151561147d576040805160e560020a62461bcd02815260206004820152601d6024820152600080516020614100833981519152604482015290519081900360640190fd5b50506000918252600460205260409091206001015550565b6000838152600360205260409020600101548390600160a060020a0316158015906114d95750600081815260036020526040902060010154600160a060020a031633145b151561151d576040805160e560020a62461bcd02815260206004820152601160248201526000805160206140a0833981519152604482015290519081900360640190fd5b6000838152600360205260409020600101548390600160a060020a0316151561157e576040805160e560020a62461bcd02815260206004820152601360248201526000805160206140c0833981519152604482015290519081900360640190fd5b600083815260046020526040902060030154839015156115d6576040805160e560020a62461bcd0281526020600482015260146024820152600080516020614140833981519152604482015290519081900360640190fd5b600084815260046020908152604080832088845260070190915290205460ff16151561164c576040805160e560020a62461bcd02815260206004820152601660248201527f5461726765742075736572206e6f742062616e6e656400000000000000000000604482015290519081900360640190fd5b600084815260046020908152604080832089845260060190915290205460ff1615156116b0576040805160e560020a62461bcd02815260206004820152601d6024820152600080516020614100833981519152604482015290519081900360640190fd5b50505060009081526004602090815260408083209383526007909301905220805460ff1916905550565b60075481565b6000888152600360205260409020600101548890600160a060020a0316158015906117245750600081815260036020526040902060010154600160a060020a031633145b1515611768576040805160e560020a62461bcd02815260206004820152601160248201526000805160206140a0833981519152604482015290519081900360640190fd5b6000888152600360205260409020600101548890600160a060020a031615156117c9576040805160e560020a62461bcd02815260206004820152601360248201526000805160206140c0833981519152604482015290519081900360640190fd5b60008a81526001602052604090205462010000900460ff161515611825576040805160e560020a62461bcd02815260206004820152601d6024820152600080516020614100833981519152604482015290519081900360640190fd5b61182d613f3d565b9715158852505093151560208087019182529315156040808801918252921515606088019081529315156080880190815295151560a088019081526000988952600190955291909620945185549651915192519451935160ff199097169015151761ff001916610100911515919091021762ff0000191662010000911515919091021763ff00000019166301000000921515929092029190911764ff000000001916640100000000911515919091021765ff00000000001916650100000000009215159290920291909117905550565b6000828152600360205260409020600101548290600160a060020a0316158015906119415750600081815260036020526040902060010154600160a060020a031633145b1515611985576040805160e560020a62461bcd02815260206004820152601160248201526000805160206140a0833981519152604482015290519081900360640190fd5b600083815260016020526040902054610100900460ff1615156119e0576040805160e560020a62461bcd02815260206004820152601d6024820152600080516020614100833981519152604482015290519081900360640190fd5b5060075550565b6000848152600360205260409020600101548490600160a060020a031615801590611a2b5750600081815260036020526040902060010154600160a060020a031633145b1515611a6f576040805160e560020a62461bcd02815260206004820152601160248201526000805160206140a0833981519152604482015290519081900360640190fd5b60008481526004602052604090206003015484901515611ac7576040805160e560020a62461bcd0281526020600482015260146024820152600080516020614140833981519152604482015290519081900360640190fd5b60008481526005602052604090206001015484901515611b1f576040805160e560020a62461bcd02815260206004820152601360248201526000805160206140e0833981519152604482015290519081900360640190fd5b60008781526002602052604090205460ff1615611b74576040805160e560020a62461bcd02815260206004820152600b6024820152600080516020614120833981519152604482015290519081900360640190fd5b6040805186815260208101869052815188927f1d763530a57993a6cc26dcbb543eaafe2e430aef6c8d9fc8f44ba567d68576b4928290030190a250505050505050565b6000838152600360205260409020600101548390600160a060020a031615801590611bfb5750600081815260036020526040902060010154600160a060020a031633145b1515611c3f576040805160e560020a62461bcd02815260206004820152601160248201526000805160206140a0833981519152604482015290519081900360640190fd5b60008381526004602052604090206003015483901515611c97576040805160e560020a62461bcd0281526020600482015260146024820152600080516020614140833981519152604482015290519081900360640190fd5b60008381526005602052604090206001015483901515611cef576040805160e560020a62461bcd02815260206004820152601360248201526000805160206140e0833981519152604482015290519081900360640190fd5b600086815260016020526040902054640100000000900460ff1680611d3857506000858152600460209081526040808320898452600601909152902054640100000000900460ff165b80611d53575060008481526005602052604090206001015486145b1515611d97576040805160e560020a62461bcd02815260206004820152601d6024820152600080516020614100833981519152604482015290519081900360640190fd5b50505060009081526005602052604081208181556001810182905560028101805463ffffffff19169055600301555050565b60066020526000908152604090208054600182015460028301546003909301549192909184565b6000838152600360205260409020600101548390600160a060020a031615801590611e345750600081815260036020526040902060010154600160a060020a031633145b1515611e78576040805160e560020a62461bcd02815260206004820152601160248201526000805160206140a0833981519152604482015290519081900360640190fd5b60008381526004602052604090206003015483901515611ed0576040805160e560020a62461bcd0281526020600482015260146024820152600080516020614140833981519152604482015290519081900360640190fd5b6000858152600260205260409020548590859060ff16158015611f105750600081815260046020908152604080832085845260070190915290205460ff16155b1515611f54576040805160e560020a62461bcd02815260206004820152600b6024820152600080516020614120833981519152604482015290519081900360640190fd5b604080514260208083019190915281830188905260608083018a90528351808403909101815260809092019092528051910120611f8f613f72565b86815260208082018a8152426060840190815260008581526005845260409081902085518155925160018401558085015160028401805463ffffffff191663ffffffff600393840b1617905591519190920155805184815290518b928b927f429af90a9753bcf2e29810ac61fec0881ff36b9814cf918c1ca59dbd04f5d019929081900390910190a3505050505050505050565b600054600160a060020a0316331461203a57600080fd5b60008054604051600160a060020a03909116917ff8df31144d9c2f0f6b59d69b8b98abd5459d07f2742c4df920b25aae33c6482091a26000805473ffffffffffffffffffffffffffffffffffffffff19169055565b6000828152600360205260409020600101548290600160a060020a0316158015906120d35750600081815260036020526040902060010154600160a060020a031633145b1515612117576040805160e560020a62461bcd02815260206004820152601160248201526000805160206140a0833981519152604482015290519081900360640190fd5b6000828152600360205260409020600101548290600160a060020a03161515612178576040805160e560020a62461bcd02815260206004820152601360248201526000805160206140c0833981519152604482015290519081900360640190fd5b60008481526001602052604090205460ff1615156121ce576040805160e560020a62461bcd02815260206004820152601d6024820152600080516020614100833981519152604482015290519081900360640190fd5b60008381526002602052604090205460ff1615612235576040805160e560020a62461bcd02815260206004820152601660248201527f5573657220697320616c72656164792062616e6e656400000000000000000000604482015290519081900360640190fd5b50506000908152600260205260409020805460ff1916600117905550565b6000838152600360205260409020600101548390600160a060020a0316158015906122975750600081815260036020526040902060010154600160a060020a031633145b15156122db576040805160e560020a62461bcd02815260206004820152601160248201526000805160206140a0833981519152604482015290519081900360640190fd5b60008381526004602052604090206003015483901515612333576040805160e560020a62461bcd0281526020600482015260146024820152600080516020614140833981519152604482015290519081900360640190fd5b6000858152600260205260409020548590859060ff161580156123735750600081815260046020908152604080832085845260070190915290205460ff16155b15156123b7576040805160e560020a62461bcd02815260206004820152600b6024820152600080516020614120833981519152604482015290519081900360640190fd5b6000858152600560205260409020600101548590151561240f576040805160e560020a62461bcd02815260206004820152601360248201526000805160206140e0833981519152604482015290519081900360640190fd5b60008781526004602090815260408083208b84526006019091529020546301000000900460ff16151561247a576040805160e560020a62461bcd02815260206004820152601d6024820152600080516020614100833981519152604482015290519081900360640190fd5b505050600093845250506004602090815260408320600501805460018101825590845292209091015550565b6000838152600360205260409020600101548390600160a060020a0316158015906124ea5750600081815260036020526040902060010154600160a060020a031633145b151561252e576040805160e560020a62461bcd02815260206004820152601160248201526000805160206140a0833981519152604482015290519081900360640190fd5b60008381526004602052604090206003015483901515612586576040805160e560020a62461bcd0281526020600482015260146024820152600080516020614140833981519152604482015290519081900360640190fd5b60008581526002602052604090205460ff16156125db576040805160e560020a62461bcd02815260206004820152600b6024820152600080516020614120833981519152604482015290519081900360640190fd5b604080518581526020810185905281517f870e871839dc020700465b1a477176917d6c99a74dab883537a6329787eca6ec929181900390910190a15050505050565b6000828152600360205260409020600101548290600160a060020a0316158015906126615750600081815260036020526040902060010154600160a060020a031633145b15156126a5576040805160e560020a62461bcd02815260206004820152601160248201526000805160206140a0833981519152604482015290519081900360640190fd5b600083815260016020526040902054610100900460ff161515612700576040805160e560020a62461bcd02815260206004820152601d6024820152600080516020614100833981519152604482015290519081900360640190fd5b5060085550565b600054600160a060020a031681565b6000838152600360205260409020600101548390600160a060020a03161580159061275a5750600081815260036020526040902060010154600160a060020a031633145b151561279e576040805160e560020a62461bcd02815260206004820152601160248201526000805160206140a0833981519152604482015290519081900360640190fd5b6000838152600360205260409020600101548390600160a060020a031615156127ff576040805160e560020a62461bcd02815260206004820152601360248201526000805160206140c0833981519152604482015290519081900360640190fd5b60008581526002602052604090205460ff1615612854576040805160e560020a62461bcd02815260206004820152600b6024820152600080516020614120833981519152604482015290519081900360640190fd5b604080518681526020810185905281517f90cff83c58dbbcc6d953b0210c9ede5033a38f64e55792d4a7300f1d6220b7b3929181900390910190a15050505050565b6008543410156128f0576040805160e560020a62461bcd02815260206004820152601560248201527f496e73756666696369656e74204574682053656e740000000000000000000000604482015290519081900360640190fd5b600081815260036020526040902060010154600160a060020a031615612960576040805160e560020a62461bcd02815260206004820152601660248201527f557365726e616d6520616c726561647920657869737400000000000000000000604482015290519081900360640190fd5b612968613f99565b818152336020808301918252426040808501918252600095865260039092529320915182555160018201805473ffffffffffffffffffffffffffffffffffffffff1916600160a060020a039092169190911790559051600290910155565b6000858152600360205260409020600101548590600160a060020a031615801590612a0a5750600081815260036020526040902060010154600160a060020a031633145b1515612a4e576040805160e560020a62461bcd02815260206004820152601160248201526000805160206140a0833981519152604482015290519081900360640190fd5b60008581526004602052604090206003015485901515612aa6576040805160e560020a62461bcd0281526020600482015260146024820152600080516020614140833981519152604482015290519081900360640190fd5b6000878152600260205260409020548790879060ff16158015612ae65750600081815260046020908152604080832085845260070190915290205460ff16155b1515612b2a576040805160e560020a62461bcd02815260206004820152600b6024820152600080516020614120833981519152604482015290519081900360640190fd5b60008781526005602052604090206001015487901515612b82576040805160e560020a62461bcd02815260206004820152601360248201526000805160206140e0833981519152604482015290519081900360640190fd5b600086815260056020526040902060010154151580612bb1575060008681526006602052604090206001015415155b1515612c07576040805160e560020a62461bcd02815260206004820152601560248201527f54617267657420646f6573206e6f742065786973740000000000000000000000604482015290519081900360640190fd5b60408051426020808301919091528183018a905260608083018c90528351808403909101815260809092019092528051910120612c42613f72565b88815260208082018d905260408083018a905242606084015280518a8152905184928f928e927f26137cf2a755cd72889bec726cf05a8d5975f7bb861bc67a11f008008e49627c929181900390910190a4505050505050505050505050565b6000828152600360205260409020600101548290600160a060020a031615801590612ce55750600081815260036020526040902060010154600160a060020a031633145b1515612d29576040805160e560020a62461bcd02815260206004820152601160248201526000805160206140a0833981519152604482015290519081900360640190fd5b6000828152600360205260409020600101548290600160a060020a03161515612d8a576040805160e560020a62461bcd02815260206004820152601360248201526000805160206140c0833981519152604482015290519081900360640190fd5b60008481526001602052604090205462010000900460ff161515612de6576040805160e560020a62461bcd02815260206004820152601d6024820152600080516020614100833981519152604482015290519081900360640190fd5b5050506000908152600160205260409020805465ffffffffffff19169055565b6000848152600360205260409020600101548490600160a060020a031615801590612e4a5750600081815260036020526040902060010154600160a060020a031633145b1515612e8e576040805160e560020a62461bcd02815260206004820152601160248201526000805160206140a0833981519152604482015290519081900360640190fd5b60008581526002602052604090205460ff1615612ee3576040805160e560020a62461bcd02815260206004820152600b6024820152600080516020614120833981519152604482015290519081900360640190fd5b60008481526004602052604090206003015415612f4a576040805160e560020a62461bcd02815260206004820152601460248201527f466f72756d20616c726561647920657869737473000000000000000000000000604482015290519081900360640190fd5b612f52613fb9565b84815260208082018581526040808401868152606085018a8152426080870190815260008b81526004808852949020875181559451600186015591516002850155516003840155519082015560a083015180518493612fb8926005850192910190613ff0565b50506040805187815290517f373bb9e035604ae9212e933aabdc815a0e94eed18cad9208b5c7b07180a3fef592509081900360200190a1505050505050565b6003602052600090815260409020805460018201546002909201549091600160a060020a03169083565b60016020526000908152604090205460ff8082169161010081048216916201000082048116916301000000810482169164010000000082048116916501000000000090041686565b6000838152600360205260409020600101548390600160a060020a0316158015906130ad5750600081815260036020526040902060010154600160a060020a031633145b15156130f1576040805160e560020a62461bcd02815260206004820152601160248201526000805160206140a0833981519152604482015290519081900360640190fd5b6000838152600360205260409020600101548390600160a060020a03161515613152576040805160e560020a62461bcd02815260206004820152601360248201526000805160206140c0833981519152604482015290519081900360640190fd5b600083815260046020526040902060030154839015156131aa576040805160e560020a62461bcd0281526020600482015260146024820152600080516020614140833981519152604482015290519081900360640190fd5b600084815260046020908152604080832089845260060190915290205462010000900460ff161515613214576040805160e560020a62461bcd02815260206004820152601d6024820152600080516020614100833981519152604482015290519081900360640190fd5b50505060009081526004602090815260408083209383526006909301905220805464ffffffffff1916905550565b60026020526000908152604090205460ff1681565b600560205260009081526040902080546001820154600283015460039384015492939192910b9084565b6000858152600360205260409020600101548590600160a060020a0316158015906132c55750600081815260036020526040902060010154600160a060020a031633145b1515613309576040805160e560020a62461bcd02815260206004820152601160248201526000805160206140a0833981519152604482015290519081900360640190fd5b60008581526004602052604090206003015485901515613361576040805160e560020a62461bcd0281526020600482015260146024820152600080516020614140833981519152604482015290519081900360640190fd5b600084815260066020526040902060010154849015156133cb576040805160e560020a62461bcd02815260206004820152601660248201527f436f6d6d656e7420646f6573206e6f7420657869737400000000000000000000604482015290519081900360640190fd5b60008881526002602052604090205460ff1615613420576040805160e560020a62461bcd02815260206004820152600b6024820152600080516020614120833981519152604482015290519081900360640190fd5b6040805187815260208101879052808201869052905188917f88955ec1e09cabc487141eb757b7c5c353d64d30d48c31dc3a9f517032a5c3d6919081900360600190a25050505050505050565b6000828152600360205260409020600101548290600160a060020a0316158015906134b15750600081815260036020526040902060010154600160a060020a031633145b15156134f5576040805160e560020a62461bcd02815260206004820152601160248201526000805160206140a0833981519152604482015290519081900360640190fd5b6000828152600360205260409020600101548290600160a060020a03161515613556576040805160e560020a62461bcd02815260206004820152601360248201526000805160206140c0833981519152604482015290519081900360640190fd5b60008481526001602052604090205460ff1615156135ac576040805160e560020a62461bcd02815260206004820152601d6024820152600080516020614100833981519152604482015290519081900360640190fd5b60008381526002602052604090205460ff161515613614576040805160e560020a62461bcd02815260206004820152601260248201527f55736572206973206e6f742062616e6e65640000000000000000000000000000604482015290519081900360640190fd5b50506000908152600260205260409020805460ff1916905550565b60085481565b600054600160a060020a0316331461364c57600080fd5b61365581613e92565b50565b6000838152600360205260409020600101548390600160a060020a03161580159061369c5750600081815260036020526040902060010154600160a060020a031633145b15156136e0576040805160e560020a62461bcd02815260206004820152601160248201526000805160206140a0833981519152604482015290519081900360640190fd5b6000838152600360205260409020600101548390600160a060020a03161515613741576040805160e560020a62461bcd02815260206004820152601360248201526000805160206140c0833981519152604482015290519081900360640190fd5b60008381526004602052604090206003015483901515613799576040805160e560020a62461bcd0281526020600482015260146024820152600080516020614140833981519152604482015290519081900360640190fd5b600084815260046020908152604080832088845260070190915290205460ff161561380e576040805160e560020a62461bcd02815260206004820152601a60248201527f546172676574207573657220616c72656164792062616e6e6564000000000000604482015290519081900360640190fd5b600084815260046020908152604080832089845260060190915290205460ff161515613872576040805160e560020a62461bcd02815260206004820152601d6024820152600080516020614100833981519152604482015290519081900360640190fd5b50505060009081526004602090815260408083209383526007909301905220805460ff1916600117905550565b60046020819052600091825260409091208054600182015460028301546003840154939094015491939092909185565b6000828152600360205260409020600101548290600160a060020a0316158015906139135750600081815260036020526040902060010154600160a060020a031633145b1515613957576040805160e560020a62461bcd02815260206004820152601160248201526000805160206140a0833981519152604482015290519081900360640190fd5b600082815260046020526040902060030154829015156139af576040805160e560020a62461bcd0281526020600482015260146024820152600080516020614140833981519152604482015290519081900360640190fd5b60008481526001602052604090205465010000000000900460ff16806139e5575060008381526004602052604090206003015484145b1515613a29576040805160e560020a62461bcd02815260206004820152601d6024820152600080516020614100833981519152604482015290519081900360640190fd5b6000838152600460208190526040822082815560018101839055600281018390556003810183905590810182905590613a65600583018261403b565b505050505050565b6000828152600360205260409020600101548290600160a060020a031615801590613ab15750600081815260036020526040902060010154600160a060020a031633145b1515613af5576040805160e560020a62461bcd02815260206004820152601160248201526000805160206140a0833981519152604482015290519081900360640190fd5b60008481526004602052604090206003015484901515613b4d576040805160e560020a62461bcd0281526020600482015260146024820152600080516020614140833981519152604482015290519081900360640190fd5b6000848152600260205260409020548490869060ff16158015613b8d5750600081815260046020908152604080832085845260070190915290205460ff16155b1515613bd1576040805160e560020a62461bcd02815260206004820152600b6024820152600080516020614120833981519152604482015290519081900360640190fd5b60008581526005602052604090206001015485901515613c29576040805160e560020a62461bcd02815260206004820152601360248201526000805160206140e0833981519152604482015290519081900360640190fd5b505050600092835250506005602052604090206002018054600019600382810b91909101900b63ffffffff1663ffffffff199091161790555050565b6000848152600360205260409020600101548490600160a060020a031615801590613ca95750600081815260036020526040902060010154600160a060020a031633145b1515613ced576040805160e560020a62461bcd02815260206004820152601160248201526000805160206140a0833981519152604482015290519081900360640190fd5b60008481526004602052604090206003015484901515613d45576040805160e560020a62461bcd0281526020600482015260146024820152600080516020614140833981519152604482015290519081900360640190fd5b60008481526005602052604090206001015484901515613d9d576040805160e560020a62461bcd02815260206004820152601360248201526000805160206140e0833981519152604482015290519081900360640190fd5b60008681526004602090815260408083208a84526006019091529020546301000000900460ff161515613e08576040805160e560020a62461bcd02815260206004820152601d6024820152600080516020614100833981519152604482015290519081900360640190fd5b600086815260046020526040902060050180546000198101908110613e2957fe5b90600052602060002001546004600088815260200190815260200160002060050185815481101515613e5757fe5b6000918252602080832090910192909255878152600490915260409020600501805490613e88906000198301614059565b5050505050505050565b600160a060020a0381161515613ea757600080fd5b60008054604051600160a060020a03808516939216917f8be0079c531659141344cd1fd0a4f28419497f9722a3daafe3b4186f6b6457e091a36000805473ffffffffffffffffffffffffffffffffffffffff1916600160a060020a0392909216919091179055565b6040805160a08101825260008082526020820181905291810182905260608101829052608081019190915290565b6040805160c081018252600080825260208201819052918101829052606081018290526080810182905260a081019190915290565b60408051608081018252600080825260208201819052918101829052606081019190915290565b604080516060810182526000808252602082018190529181019190915290565b6040805160c0810182526000808252602082018190529181018290526060808201839052608082019290925260a081019190915290565b82805482825590600052602060002090810192821561402b579160200282015b8281111561402b578251825591602001919060010190614010565b50614037929150614082565b5090565b50805460008255906000526020600020908101906136559190614082565b81548183558181111561407d5760008381526020902061407d918101908301614082565b505050565b61409c91905b808211156140375760008155600101614088565b9056fe55736572206e6f742076657269666965640000000000000000000000000000005573657220646f6573206e6f7420657869737400000000000000000000000000506f737420646f6573206e6f74206578697374000000000000000000000000005573657220646f6573206e6f742068617665207065726d697373696f6e000000557365722062616e6e6564000000000000000000000000000000000000000000466f72756d20646f6573206e6f74206578697374000000000000000000000000a165627a7a72305820aef0bd5506a596a8d33dc4db00a8a3b3eb0d31ef6793e9ea48d73a14af525fa50029",
  "source": "pragma solidity ^0.5.2;\n\n// import \"./User.sol\"; \n// import \"./Forum.sol\"; \n// import \"./UserFactory.sol\";\n// import \"./ForumFactory.sol\";\nimport \"./Ownable.sol\";\n\ncontract Tartarus is Ownable {\n    event ForumCreated (bytes32 forum);  \n    event PostCreated (bytes32 indexed forum, bytes32 indexed creator, bytes32 postId);\n    event CommentCreated (bytes32 indexed postId, bytes32 indexed creator, bytes32 indexed targetId, bytes32 commentId);\n    event ReportUser (bytes32 _user, bytes32 reason);\n    event ReportForum (bytes32 _forum, bytes32 reason);\n    event ReportPost (bytes32 indexed _forum, bytes32 _postId, bytes32 reason);\n    event ReportComment (bytes32 indexed _forum, bytes32 _postId, bytes32 _commentId, bytes32 reason);\n\n    mapping (bytes32 => Admin) public admins;\n    mapping (bytes32 => bool) public banned;\n    mapping (bytes32 => User) public users;\n    mapping (bytes32 => Forum) public forums;\n    mapping (bytes32 => Post) public posts;\n    mapping (bytes32 => Comment) public comments;\n\n    struct Admin {\n        bool ban;\n        bool setCost;\n        bool editAdmin;\n        bool deleteComment;\n        bool deletePost;\n        bool deleteForum;\n    }\n\n    struct Moderator {\n        bool ban;\n        bool editInfo;\n        bool editModerator;\n        bool editPinned;\n        bool deletePost;\n    }\n\n    struct User {\n        bytes32 username;\n        address creator;\n        uint time;\n    }\n    \n    struct Forum {\n        bytes32 name;\n        bytes32 rules;\n        bytes32 description;\n        bytes32 creator;\n        uint time;\n        bytes32[] pinnedPosts;\n        mapping(bytes32 => Moderator) moderators;\n        mapping(bytes32 =>  bool) banned;\n    }\n\n    struct Post {\n        bytes32 post;\n        bytes32 creator;\n        int32 votes;\n        uint time;\n    }\n\n    struct Comment {\n        bytes32 comment;\n        bytes32 creator;\n        bytes32 target;\n        uint time;\n    }\n\n    uint public transactionCost = 0;\n    uint public createUserCost = 0;\n\n    constructor(bytes32 _user) public {\n        owner = msg.sender;\n        createUser(_user);\n        Admin memory newAdmin;\n        newAdmin.ban = true;\n        newAdmin.setCost = true;\n        newAdmin.editAdmin = true;\n        newAdmin.deleteComment = true;\n        newAdmin.deletePost = true;\n        newAdmin.deleteForum = true;\n        admins[_user] = newAdmin;\n    }\n\n    modifier userVerified(bytes32 _user){\n        require(\n            users[_user].creator != address(0) &&\n            users[_user].creator == msg.sender, \n            \"User not verified\"\n        );\n        _;\n    }\n\n    modifier userExists(bytes32 _user){\n        require(\n            users[_user].creator != address(0), \n            \"User does not exist\"\n        );\n        _;\n    }\n\n    modifier userUnbanned(bytes32 _user, bytes32 _forum) {\n        require(\n            !banned[_user] &&\n            !forums[_forum].banned[_user], \n            \"User banned\"\n        );\n        _;\n    }\n\n    modifier forumExists(bytes32 _forum) {\n        require(\n            forums[_forum].creator != 0, \n            \"Forum does not exist\"\n        );\n        _;\n    }\n\n    modifier postExists(bytes32 _postId) {\n        require(\n            posts[_postId].creator != 0, \n            \"Post does not exist\"\n        );\n        _;\n    }\n\n    modifier commentExists(bytes32 _commentId) {\n        require(\n            comments[_commentId].creator != 0, \n            \"Comment does not exist\"\n        );\n        _;\n    }\n\n    function createUser(bytes32 _username) public payable {\n        require(\n            msg.value >= createUserCost, \n            \"Insufficient Eth Sent\"\n        );\n        // require(\n        //     validateName(_username), \n        //     \"Invalid username\"\n        // );\n        require(\n            users[_username].creator == address(0), \n            \"Username already exist\"\n        );\n        User memory newUser;\n        newUser.username = _username;\n        newUser.creator = msg.sender;\n        newUser.time = now;\n        users[_username] = newUser;\n    }\n\n    // function validateName(bytes32 _name) public pure returns (bool){\n    //     bytes memory name = abi.encodePacked(_name);\n    //     if(name.length > 20 || name.length < 3) {\n    //         return false;\n    //     }\n    //     for(uint i; i < name.length; i++){\n    //         bytes1 char = name[i];\n    //         if(\n    //             !(char >= 0x30 && char <= 0x39) && //9-0\n    //             !(char >= 0x41 && char <= 0x5A) && //A-Z\n    //             !(char >= 0x61 && char <= 0x7A) //a-z\n    //             // !(char == 0x2E) //.\n    //         ) {\n    //             return false;\n    //         }\n    //     }\n    //     return true;\n    // }\n\n    function createForum(bytes32 _user, bytes32 _forum, bytes32 _rules, bytes32 _description) \n    public userVerified(_user) {\n        require(\n            !banned[_user],\n            \"User banned\"\n        );\n        require(\n            forums[_forum].creator == 0,\n            \"Forum already exists\"\n        );\n        Forum memory newForum;\n        newForum.name = _forum;\n        newForum.rules = _rules;\n        newForum.description = _description;\n        newForum.creator = _user;\n        newForum.time = now;\n        forums[_forum] = newForum;\n        emit ForumCreated(_forum);\n    }   \n\n    function deleteForum(bytes32 _user, bytes32 _forum) \n    public userVerified(_user) forumExists(_forum){\n        require(\n            admins[_user].deleteForum ||\n            forums[_forum].creator == _user,\n            \"User does not have permission\"\n        );\n        delete forums[_forum];\n    }   \n\n    function createPost(bytes32 _user, bytes32 _forum, bytes32 _post) \n    public userVerified(_user) forumExists(_forum) userUnbanned(_user, _forum) {\n        bytes32 postId = keccak256(abi.encodePacked(now, _post, _forum));\n        Post memory newPost;\n        newPost.post = _post;\n        newPost.creator = _user;\n        newPost.time = now;\n        posts[postId] = newPost;\n        emit PostCreated(_forum, _user, postId);\n    }\n\n    function deletePost(bytes32 _user, bytes32 _forum, bytes32 _postId) \n    public userVerified(_user) forumExists(_forum) postExists(_postId) {\n        require(\n            admins[_user].deletePost ||\n            forums[_forum].moderators[_user].deletePost ||\n            posts[_postId].creator == _user,\n            \"User does not have permission\"\n        );\n        delete posts[_postId];\n    }\n\n    function pinPost(bytes32 _user, bytes32 _forum, bytes32 _postId) \n    public userVerified(_user) forumExists(_forum) userUnbanned(_user, _forum) postExists(_postId) {\n        require(\n            forums[_forum].moderators[_user].editPinned,\n            \"User does not have permission\"\n        );\n        forums[_forum].pinnedPosts.push(_postId);\n    }\n\n    function unpinPost(bytes32 _user, bytes32 _forum, bytes32 _postId, uint _postIndex) \n    public userVerified(_user) forumExists(_forum) postExists(_postId) {\n        require(\n            forums[_forum].moderators[_user].editPinned,\n            \"User does not have permission\"\n        );\n        forums[_forum].pinnedPosts[_postIndex] = forums[_forum].pinnedPosts[forums[_forum].pinnedPosts.length - 1];\n        forums[_forum].pinnedPosts.length--;    \n    }\n\n    function upvote(bytes32 _forum, bytes32 _user, bytes32 _postId) \n    public userVerified(_user) forumExists(_forum) userUnbanned(_user, _forum) postExists(_postId) {\n        posts[_postId].votes += 1;\n    }\n\n    function downvote(bytes32 _forum, bytes32 _user, bytes32 _postId) \n    public userVerified(_user) forumExists(_forum) userUnbanned(_user, _forum) postExists(_postId) {\n        posts[_postId].votes -= 1;\n    }\n\n    function createComment(bytes32 _user, bytes32 _forum, bytes32 _postId, bytes32 _comment, bytes32 _targetId) \n    public userVerified(_user) forumExists(_forum) userUnbanned(_user, _forum) postExists(_postId) {\n        require(\n            posts[_targetId].creator != 0 || \n            comments[_targetId].creator != 0, \n            \"Target does not exist\"\n        );\n        bytes32 commentId = keccak256(abi.encodePacked(now, _comment, _postId));\n        Comment memory newComment;\n        newComment.comment = _comment;\n        newComment.creator = _user;\n        newComment.target = _targetId;\n        newComment.time = now;\n        emit CommentCreated(_postId, _user, commentId, _targetId);\n    }\n\n    function deleteComment(bytes32 _user, bytes32 _forum, bytes32 _commentId) \n    public userVerified(_user) forumExists(_forum) commentExists(_commentId) {\n        require(\n            admins[_user].deleteComment ||\n            forums[_forum].moderators[_user].deletePost ||\n            comments[_commentId].creator == _user,\n            \"User does not have permission\"\n        );\n        delete comments[_commentId];\n    }\n\n    function createModerator(\n        bytes32 _user,\n        bytes32 _forum,\n        bytes32 _targetUser, \n        bool _ban, \n        bool _editInfo, \n        bool _editModerators, \n        bool _deletePost) \n        public userVerified(_user) userExists(_targetUser) forumExists(_forum) userUnbanned(_targetUser, _forum) {\n        require(\n            forums[_forum].moderators[_user].editModerator,\n            \"User does not have permission\"\n        );\n        Moderator memory newModerator;\n        newModerator.ban = _ban;\n        newModerator.editInfo = _editInfo;\n        newModerator.editModerator = _editModerators;\n        newModerator.deletePost = _deletePost;\n        forums[_forum].moderators[_user] = newModerator;\n    }\n\n    function removeModerator(bytes32 _user, bytes32 _targetUser, bytes32 _forum) \n    public userVerified(_user) userExists(_targetUser) forumExists(_forum) {\n        require(\n            forums[_forum].moderators[_user].editModerator,\n            \"User does not have permission\"\n        );\n        delete forums[_forum].moderators[_targetUser];\n    }\n\n    function setForumRules(bytes32 _user, bytes32 _forum, bytes32 _rules) \n    public userVerified(_user) forumExists(_forum) {\n        require(\n            forums[_forum].moderators[_user].editInfo,\n            \"User does not have permission\"\n        );\n        forums[_forum].rules = _rules;\n    }\n    \n    function setForumDescription(bytes32 _user, bytes32 _forum, bytes32 _description) \n    public userVerified(_user) forumExists(_forum) {\n        require(\n            forums[_forum].moderators[_user].editInfo,\n            \"User does not have permission\"\n        );\n        forums[_forum].description = _description;\n    }\n\n    function banUserForum(bytes32 _user, bytes32 _targetUser, bytes32 _forum) \n    public userVerified(_user) userExists(_targetUser) forumExists(_forum) {\n        require(\n            !forums[_forum].banned[_targetUser], \n            \"Target user already banned\"\n        );\n        require(\n            forums[_forum].moderators[_user].ban,\n            \"User does not have permission\"\n        );\n        forums[_forum].banned[_targetUser] = true;\n    }\n\n    function unbanUserForum(bytes32 _user, bytes32 _targetUser, bytes32 _forum) \n    public userVerified(_user) userExists(_targetUser) forumExists(_forum) {\n        require(\n            forums[_forum].banned[_targetUser], \n            \"Target user not banned\"\n        );\n        require(\n            forums[_forum].moderators[_user].ban,\n            \"User does not have permission\"\n        );\n        forums[_forum].banned[_targetUser] = false;\n    }\n\n    function reportUser(bytes32 _user, bytes32 _targetUser, bytes32 _reason) \n    public userVerified(_user) userExists(_targetUser) {\n        require(\n            !banned[_user], \n            \"User banned\"\n        );\n        emit ReportUser(_user, _reason);\n    }\n\n    function reportForum(bytes32 _user, bytes32 _forum, bytes32 _reason) \n    public userVerified(_user) forumExists(_forum) {\n        require(\n            !banned[_user], \n            \"User banned\"\n        );\n        emit ReportForum(_forum, _reason);\n    }\n\n    function reportPost(bytes32 _user, bytes32 _forum, bytes32 _postId, bytes32 _reason) \n    public userVerified(_user) forumExists(_forum) postExists(_postId) {\n        require(\n            !banned[_user], \n            \"User banned\"\n        );\n        emit ReportPost(_forum, _postId, _reason);\n    }\n\n    function reportComment(bytes32 _user, bytes32 _forum, bytes32 _postId, bytes32 _commentId, bytes32 _reason) \n    public userVerified(_user) forumExists(_forum) commentExists(_commentId) {\n        require(\n            !banned[_user], \n            \"User banned\"\n        );\n        emit ReportComment(_forum, _postId, _commentId, _reason);\n    }\n\n    function createAdmin(\n        bytes32 _user,\n        bytes32 _targetUser, \n        bool _ban,\n        bool _setCost,\n        bool _editAdmin,\n        bool _deletePost,\n        bool _deleteComment,\n        bool _deleteForum\n        ) \n        public userVerified(_user) userExists(_targetUser) {\n        require(\n            admins[_user].editAdmin, \"User does not have permission\"\n        );\n        // require(admins[users[_username]], \"Target user is not admin\"); ???\n        Admin memory newAdmin;\n        newAdmin.ban = _ban;\n        newAdmin.setCost = _setCost;\n        newAdmin.editAdmin = _editAdmin;\n        newAdmin.deleteComment = _deleteComment;\n        newAdmin.deletePost = _deletePost;\n        newAdmin.deleteForum = _deleteForum;\n        admins[_targetUser] = newAdmin;\n    }  \n\n    function removeAdmin(bytes32 _user, bytes32 _targetUser) \n        public userVerified(_user) userExists(_targetUser) {\n        require(\n            admins[_user].editAdmin, \"User does not have permission\"\n        );\n        // require(admins[users[_username]], \"Target user is not admin\"); ???\n        delete admins[_user];\n    }\n\n    function banUserTartarus(bytes32 _user, bytes32 _targetUser) \n        public userVerified(_user) userExists(_targetUser) {\n        require(\n            admins[_user].ban, \"User does not have permission\"\n        );\n        require(\n            !banned[_targetUser], \n            \"User is already banned\"\n        );\n        banned[_targetUser] = true;\n    }\n\n    function unbanUserTartarus(bytes32 _user, bytes32 _targetUser)\n        public userVerified(_user) userExists(_targetUser) {\n        require(\n            admins[_user].ban, \"User does not have permission\"\n        );\n        require(\n            banned[_targetUser], \n            \"User is not banned\"\n        );\n        banned[_targetUser] = false;\n    }\n\n    function setCreateUserCost(bytes32 _user, uint _newCost) \n        public userVerified(_user) {\n        require(\n            admins[_user].setCost, \n            \"User does not have permission\"\n        );\n        createUserCost = _newCost;\n    }\n\n    function setTransactionCost(bytes32 _user, uint _newCost) \n        public userVerified(_user) {\n        require(\n            admins[_user].setCost, \n            \"User does not have permission\"\n        );\n        transactionCost = _newCost;\n    }\n}",
  "sourcePath": "/Users/jarenlynch/Ethereum/Tartarus/contracts/Tartarus.sol",
  "compiler": {
    "name": "solc",
    "version": "0.5.2+commit.1df8f40c.Emscripten.clang"
  },
  "schemaVersion": "3.0.6",
  "updatedAt": "2019-04-13T01:37:40.107Z",
  "devdoc": {
    "methods": {
      "renounceOwnership()": {
        "details": "Allows the current owner to relinquish control of the contract."
      },
      "transferOwnership(address)": {
        "details": "Allows the current owner to transfer control of the contract to a newOwner.",
        "params": {
          "_newOwner": "The address to transfer ownership to."
        }
      }
    }
  },
  "userdoc": {
    "methods": {
      "renounceOwnership()": {
        "notice": "Renouncing to ownership will leave the contract without an owner. It will not be possible to call the functions with the `onlyOwner` modifier anymore."
      }
    }
  }
}