{
  "contractName": "Tartarus",
  "abi": [
    {
      "constant": true,
      "inputs": [],
      "name": "transactionCost",
      "outputs": [
        {
          "name": "",
          "type": "uint256"
        }
      ],
      "payable": false,
      "stateMutability": "view",
      "type": "function"
    },
    {
      "constant": true,
      "inputs": [
        {
          "name": "",
          "type": "address"
        }
      ],
      "name": "admins",
      "outputs": [
        {
          "name": "ban",
          "type": "bool"
        },
        {
          "name": "transactionCost",
          "type": "bool"
        },
        {
          "name": "createUserCost",
          "type": "bool"
        },
        {
          "name": "editAdmin",
          "type": "bool"
        },
        {
          "name": "deleteComment",
          "type": "bool"
        },
        {
          "name": "deletePost",
          "type": "bool"
        },
        {
          "name": "deleteForum",
          "type": "bool"
        }
      ],
      "payable": false,
      "stateMutability": "view",
      "type": "function"
    },
    {
      "constant": false,
      "inputs": [],
      "name": "renounceOwnership",
      "outputs": [],
      "payable": false,
      "stateMutability": "nonpayable",
      "type": "function"
    },
    {
      "constant": true,
      "inputs": [],
      "name": "owner",
      "outputs": [
        {
          "name": "",
          "type": "address"
        }
      ],
      "payable": false,
      "stateMutability": "view",
      "type": "function"
    },
    {
      "constant": true,
      "inputs": [
        {
          "name": "",
          "type": "address"
        }
      ],
      "name": "banned",
      "outputs": [
        {
          "name": "",
          "type": "bool"
        }
      ],
      "payable": false,
      "stateMutability": "view",
      "type": "function"
    },
    {
      "constant": true,
      "inputs": [
        {
          "name": "",
          "type": "bytes32"
        }
      ],
      "name": "users",
      "outputs": [
        {
          "name": "",
          "type": "address"
        }
      ],
      "payable": false,
      "stateMutability": "view",
      "type": "function"
    },
    {
      "constant": true,
      "inputs": [],
      "name": "createUserCost",
      "outputs": [
        {
          "name": "",
          "type": "uint256"
        }
      ],
      "payable": false,
      "stateMutability": "view",
      "type": "function"
    },
    {
      "constant": false,
      "inputs": [
        {
          "name": "_newOwner",
          "type": "address"
        }
      ],
      "name": "transferOwnership",
      "outputs": [],
      "payable": false,
      "stateMutability": "nonpayable",
      "type": "function"
    },
    {
      "constant": true,
      "inputs": [
        {
          "name": "",
          "type": "bytes32"
        }
      ],
      "name": "forums",
      "outputs": [
        {
          "name": "",
          "type": "address"
        }
      ],
      "payable": false,
      "stateMutability": "view",
      "type": "function"
    },
    {
      "inputs": [],
      "payable": false,
      "stateMutability": "nonpayable",
      "type": "constructor"
    },
    {
      "anonymous": false,
      "inputs": [
        {
          "indexed": false,
          "name": "forumAddress",
          "type": "address"
        }
      ],
      "name": "ForumCreated",
      "type": "event"
    },
    {
      "anonymous": false,
      "inputs": [
        {
          "indexed": true,
          "name": "forumAddress",
          "type": "address"
        },
        {
          "indexed": true,
          "name": "creatorAddress",
          "type": "address"
        },
        {
          "indexed": false,
          "name": "postAddress",
          "type": "address"
        }
      ],
      "name": "PostCreated",
      "type": "event"
    },
    {
      "anonymous": false,
      "inputs": [
        {
          "indexed": true,
          "name": "postAddress",
          "type": "address"
        },
        {
          "indexed": true,
          "name": "creatorAddress",
          "type": "address"
        },
        {
          "indexed": true,
          "name": "targetAddress",
          "type": "address"
        },
        {
          "indexed": false,
          "name": "commentAddress",
          "type": "address"
        }
      ],
      "name": "CommentCreated",
      "type": "event"
    },
    {
      "anonymous": false,
      "inputs": [
        {
          "indexed": false,
          "name": "_username",
          "type": "address"
        },
        {
          "indexed": false,
          "name": "reason",
          "type": "bytes32"
        }
      ],
      "name": "ReportUser",
      "type": "event"
    },
    {
      "anonymous": false,
      "inputs": [
        {
          "indexed": false,
          "name": "forumAddress",
          "type": "address"
        },
        {
          "indexed": false,
          "name": "reason",
          "type": "bytes32"
        }
      ],
      "name": "ReportForum",
      "type": "event"
    },
    {
      "anonymous": false,
      "inputs": [
        {
          "indexed": true,
          "name": "forumAddress",
          "type": "address"
        },
        {
          "indexed": false,
          "name": "postAddress",
          "type": "address"
        },
        {
          "indexed": false,
          "name": "reason",
          "type": "bytes32"
        }
      ],
      "name": "ReportPost",
      "type": "event"
    },
    {
      "anonymous": false,
      "inputs": [
        {
          "indexed": true,
          "name": "forumAddress",
          "type": "address"
        },
        {
          "indexed": false,
          "name": "commentAddress",
          "type": "address"
        },
        {
          "indexed": false,
          "name": "reason",
          "type": "bytes32"
        }
      ],
      "name": "ReportComment",
      "type": "event"
    },
    {
      "anonymous": false,
      "inputs": [
        {
          "indexed": true,
          "name": "previousOwner",
          "type": "address"
        }
      ],
      "name": "OwnershipRenounced",
      "type": "event"
    },
    {
      "anonymous": false,
      "inputs": [
        {
          "indexed": true,
          "name": "previousOwner",
          "type": "address"
        },
        {
          "indexed": true,
          "name": "newOwner",
          "type": "address"
        }
      ],
      "name": "OwnershipTransferred",
      "type": "event"
    },
    {
      "constant": false,
      "inputs": [
        {
          "name": "_username",
          "type": "bytes32"
        }
      ],
      "name": "createUser",
      "outputs": [],
      "payable": true,
      "stateMutability": "payable",
      "type": "function"
    },
    {
      "constant": false,
      "inputs": [
        {
          "name": "_forumName",
          "type": "bytes32"
        }
      ],
      "name": "createForum",
      "outputs": [],
      "payable": false,
      "stateMutability": "nonpayable",
      "type": "function"
    },
    {
      "constant": false,
      "inputs": [
        {
          "name": "_forumName",
          "type": "bytes32"
        },
        {
          "name": "_suicideAddress",
          "type": "address"
        }
      ],
      "name": "deleteForum",
      "outputs": [],
      "payable": false,
      "stateMutability": "nonpayable",
      "type": "function"
    },
    {
      "constant": false,
      "inputs": [
        {
          "name": "_forumName",
          "type": "bytes32"
        },
        {
          "name": "_post",
          "type": "bytes32"
        }
      ],
      "name": "createPost",
      "outputs": [],
      "payable": false,
      "stateMutability": "nonpayable",
      "type": "function"
    },
    {
      "constant": false,
      "inputs": [
        {
          "name": "_forumName",
          "type": "bytes32"
        },
        {
          "name": "_postAddress",
          "type": "address"
        },
        {
          "name": "_suicideAddress",
          "type": "address"
        }
      ],
      "name": "deletePost",
      "outputs": [],
      "payable": false,
      "stateMutability": "nonpayable",
      "type": "function"
    },
    {
      "constant": false,
      "inputs": [
        {
          "name": "_forumName",
          "type": "bytes32"
        },
        {
          "name": "_postAddress",
          "type": "address"
        }
      ],
      "name": "pinPost",
      "outputs": [],
      "payable": false,
      "stateMutability": "nonpayable",
      "type": "function"
    },
    {
      "constant": false,
      "inputs": [
        {
          "name": "_forumName",
          "type": "bytes32"
        },
        {
          "name": "_postAddress",
          "type": "address"
        },
        {
          "name": "_postIndex",
          "type": "uint256"
        }
      ],
      "name": "unpinPost",
      "outputs": [],
      "payable": false,
      "stateMutability": "nonpayable",
      "type": "function"
    },
    {
      "constant": false,
      "inputs": [
        {
          "name": "_forumName",
          "type": "bytes32"
        },
        {
          "name": "_postAddress",
          "type": "address"
        }
      ],
      "name": "upvote",
      "outputs": [],
      "payable": false,
      "stateMutability": "nonpayable",
      "type": "function"
    },
    {
      "constant": false,
      "inputs": [
        {
          "name": "_forumName",
          "type": "bytes32"
        },
        {
          "name": "_postAddress",
          "type": "address"
        }
      ],
      "name": "downvote",
      "outputs": [],
      "payable": false,
      "stateMutability": "nonpayable",
      "type": "function"
    },
    {
      "constant": false,
      "inputs": [
        {
          "name": "_forumName",
          "type": "bytes32"
        },
        {
          "name": "_postAddress",
          "type": "address"
        },
        {
          "name": "_targetAddress",
          "type": "address"
        },
        {
          "name": "_comment",
          "type": "bytes32"
        }
      ],
      "name": "createComment",
      "outputs": [],
      "payable": false,
      "stateMutability": "nonpayable",
      "type": "function"
    },
    {
      "constant": false,
      "inputs": [
        {
          "name": "_forumName",
          "type": "bytes32"
        },
        {
          "name": "_postAddress",
          "type": "address"
        },
        {
          "name": "_commentAddress",
          "type": "address"
        },
        {
          "name": "_suicideAddress",
          "type": "address"
        }
      ],
      "name": "deleteComment",
      "outputs": [],
      "payable": false,
      "stateMutability": "nonpayable",
      "type": "function"
    },
    {
      "constant": false,
      "inputs": [
        {
          "name": "_forumName",
          "type": "bytes32"
        },
        {
          "name": "_username",
          "type": "bytes32"
        },
        {
          "name": "_ban",
          "type": "bool"
        },
        {
          "name": "_editRules",
          "type": "bool"
        },
        {
          "name": "_editDescription",
          "type": "bool"
        },
        {
          "name": "_editModerators",
          "type": "bool"
        },
        {
          "name": "_deletePost",
          "type": "bool"
        },
        {
          "name": "_deleteComment",
          "type": "bool"
        }
      ],
      "name": "createModerator",
      "outputs": [],
      "payable": false,
      "stateMutability": "nonpayable",
      "type": "function"
    },
    {
      "constant": false,
      "inputs": [
        {
          "name": "_forumName",
          "type": "bytes32"
        },
        {
          "name": "_username",
          "type": "bytes32"
        }
      ],
      "name": "removeModerator",
      "outputs": [],
      "payable": false,
      "stateMutability": "nonpayable",
      "type": "function"
    },
    {
      "constant": false,
      "inputs": [
        {
          "name": "_forumName",
          "type": "bytes32"
        },
        {
          "name": "_rules",
          "type": "bytes32"
        }
      ],
      "name": "updateForumRules",
      "outputs": [],
      "payable": false,
      "stateMutability": "nonpayable",
      "type": "function"
    },
    {
      "constant": false,
      "inputs": [
        {
          "name": "_forumName",
          "type": "bytes32"
        },
        {
          "name": "_description",
          "type": "bytes32"
        }
      ],
      "name": "updateForumDescription",
      "outputs": [],
      "payable": false,
      "stateMutability": "nonpayable",
      "type": "function"
    },
    {
      "constant": false,
      "inputs": [
        {
          "name": "_forumName",
          "type": "bytes32"
        },
        {
          "name": "_username",
          "type": "bytes32"
        }
      ],
      "name": "banUserForum",
      "outputs": [],
      "payable": false,
      "stateMutability": "nonpayable",
      "type": "function"
    },
    {
      "constant": false,
      "inputs": [
        {
          "name": "_forumName",
          "type": "bytes32"
        },
        {
          "name": "_username",
          "type": "bytes32"
        }
      ],
      "name": "unbanUserForum",
      "outputs": [],
      "payable": false,
      "stateMutability": "nonpayable",
      "type": "function"
    },
    {
      "constant": false,
      "inputs": [
        {
          "name": "_username",
          "type": "bytes32"
        },
        {
          "name": "_reason",
          "type": "bytes32"
        }
      ],
      "name": "reportUser",
      "outputs": [],
      "payable": false,
      "stateMutability": "nonpayable",
      "type": "function"
    },
    {
      "constant": false,
      "inputs": [
        {
          "name": "_forumName",
          "type": "bytes32"
        },
        {
          "name": "_reason",
          "type": "bytes32"
        }
      ],
      "name": "reportForum",
      "outputs": [],
      "payable": false,
      "stateMutability": "nonpayable",
      "type": "function"
    },
    {
      "constant": false,
      "inputs": [
        {
          "name": "_forumName",
          "type": "bytes32"
        },
        {
          "name": "_postAddress",
          "type": "address"
        },
        {
          "name": "_reason",
          "type": "bytes32"
        }
      ],
      "name": "reportPost",
      "outputs": [],
      "payable": false,
      "stateMutability": "nonpayable",
      "type": "function"
    },
    {
      "constant": false,
      "inputs": [
        {
          "name": "_forumName",
          "type": "bytes32"
        },
        {
          "name": "_commentAddress",
          "type": "address"
        },
        {
          "name": "_reason",
          "type": "bytes32"
        }
      ],
      "name": "reportComment",
      "outputs": [],
      "payable": false,
      "stateMutability": "nonpayable",
      "type": "function"
    },
    {
      "constant": false,
      "inputs": [
        {
          "name": "_username",
          "type": "bytes32"
        },
        {
          "name": "_ban",
          "type": "bool"
        },
        {
          "name": "_transactionCost",
          "type": "bool"
        },
        {
          "name": "_createUserCost",
          "type": "bool"
        },
        {
          "name": "_editAdmin",
          "type": "bool"
        },
        {
          "name": "_deletePost",
          "type": "bool"
        },
        {
          "name": "_deleteComment",
          "type": "bool"
        },
        {
          "name": "_deleteForum",
          "type": "bool"
        }
      ],
      "name": "createAdmin",
      "outputs": [],
      "payable": false,
      "stateMutability": "nonpayable",
      "type": "function"
    },
    {
      "constant": false,
      "inputs": [
        {
          "name": "_username",
          "type": "bytes32"
        }
      ],
      "name": "removeAdmin",
      "outputs": [],
      "payable": false,
      "stateMutability": "nonpayable",
      "type": "function"
    },
    {
      "constant": true,
      "inputs": [
        {
          "name": "_username",
          "type": "bytes32"
        }
      ],
      "name": "banUserTartarus",
      "outputs": [],
      "payable": false,
      "stateMutability": "view",
      "type": "function"
    },
    {
      "constant": false,
      "inputs": [
        {
          "name": "_username",
          "type": "bytes32"
        }
      ],
      "name": "unbanUserTartarus",
      "outputs": [],
      "payable": false,
      "stateMutability": "nonpayable",
      "type": "function"
    },
    {
      "constant": false,
      "inputs": [
        {
          "name": "_newCost",
          "type": "uint256"
        }
      ],
      "name": "setCreateUserCost",
      "outputs": [],
      "payable": false,
      "stateMutability": "nonpayable",
      "type": "function"
    },
    {
      "constant": false,
      "inputs": [
        {
          "name": "_newCost",
          "type": "uint256"
        }
      ],
      "name": "setTransactionCost",
      "outputs": [],
      "payable": false,
      "stateMutability": "nonpayable",
      "type": "function"
    }
  ],
  "bytecode": "0x6080604052600060055560006006553480156200001b57600080fd5b5060008054600160a060020a031916331790556200003862000154565b604051809103906000f08015801562000055573d6000803e3d6000fd5b5060078054600160a060020a031916600160a060020a03929092169190911790556200008062000165565b604051809103906000f0801580156200009d573d6000803e3d6000fd5b5060088054600160a060020a031916600160a060020a0392909216919091179055620000c862000176565b604051809103906000f080158015620000e5573d6000803e3d6000fd5b5060098054600160a060020a031916600160a060020a03929092169190911790556200011062000187565b604051809103906000f0801580156200012d573d6000803e3d6000fd5b50600a8054600160a060020a031916600160a060020a039290921691909117905562000198565b604051611a54806200484383390190565b6040516109f1806200629783390190565b6040516104bf8062006c8883390190565b604051611d62806200714783390190565b61469b80620001a86000396000f3fe6080604052600436106102135760003560e060020a900480639b58d7761161011c578063ced21dec116100a4578063f2fde38b11610073578063f2fde38b146108a2578063f72d6071146108d5578063f9a039221461090e578063f9cff22114610947578063fb1187171461098657610213565b8063ced21dec146107d0578063cf5b08e4146107fa578063e1243bf61461085d578063f004a35e1461088d57610213565b8063aef797b1116100eb578063aef797b1146106f8578063c8527eeb14610722578063cbfdaed51461074c578063cda47ea314610776578063cea6ab98146107a657610213565b80639b58d776146106195780639c8d83bb14610664578063abf7bfd8146106ab578063ae2278aa146106c857610213565b80633ffc69561161019f578063579819d91161016e578063579819d9146104fa57806364c7e92d1461055b578063715018a6146105945780637ce866c9146105a95780638da5cb5b146105e857610213565b80633ffc6956146103cd578063429b62e5146103fd5780634c355d201461047057806350da728a146104b157610213565b8063224b5dbe116101e6578063224b5dbe146102da578063229b339114610304578063325b52f714610334578063370027da146103645780633f90350a1461039d57610213565b80630cad84c01461021857806310b28c12146102595780631236b529146102895780632048ff11146102b3575b600080fd5b34801561022457600080fd5b506102576004803603606081101561023b57600080fd5b50803590600160a060020a0360208201351690604001356109b0565b005b34801561026557600080fd5b506102576004803603604081101561027c57600080fd5b5080359060200135610b94565b34801561029557600080fd5b50610257600480360360208110156102ac57600080fd5b5035610dbf565b3480156102bf57600080fd5b506102c8610f82565b60408051918252519081900360200190f35b3480156102e657600080fd5b50610257600480360360208110156102fd57600080fd5b5035610f88565b34801561031057600080fd5b506102576004803603604081101561032757600080fd5b50803590602001356111bb565b34801561034057600080fd5b506102576004803603604081101561035757600080fd5b508035906020013561139b565b34801561037057600080fd5b506102576004803603604081101561038757600080fd5b5080359060200135600160a060020a0316611628565b3480156103a957600080fd5b50610257600480360360408110156103c057600080fd5b5080359060200135611824565b3480156103d957600080fd5b50610257600480360360408110156103f057600080fd5b5080359060200135611a33565b34801561040957600080fd5b506104306004803603602081101561042057600080fd5b5035600160a060020a0316611c42565b604080519715158852951515602088015293151586860152911515606086015215156080850152151560a0840152151560c0830152519081900360e00190f35b34801561047c57600080fd5b506102576004803603606081101561049357600080fd5b50803590600160a060020a0360208201358116916040013516611c98565b3480156104bd57600080fd5b50610257600480360360808110156104d457600080fd5b50803590600160a060020a03602082013581169160408101359091169060600135611f72565b34801561050657600080fd5b50610257600480360361010081101561051e57600080fd5b5080359060208101359060408101351515906060810135151590608081013515159060a081013515159060c081013515159060e001351515612207565b34801561056757600080fd5b506102576004803603604081101561057e57600080fd5b5080359060200135600160a060020a031661240d565b3480156105a057600080fd5b50610257612609565b3480156105b557600080fd5b50610257600480360360608110156105cc57600080fd5b50803590600160a060020a036020820135169060400135612675565b3480156105f457600080fd5b506105fd612859565b60408051600160a060020a039092168252519081900360200190f35b34801561062557600080fd5b506102576004803603608081101561063c57600080fd5b50803590600160a060020a036020820135811691604081013582169160609091013516612868565b34801561067057600080fd5b506106976004803603602081101561068757600080fd5b5035600160a060020a0316612b49565b604080519115158252519081900360200190f35b610257600480360360208110156106c157600080fd5b5035612b5e565b3480156106d457600080fd5b50610257600480360360408110156106eb57600080fd5b5080359060200135612cfb565b34801561070457600080fd5b506102576004803603602081101561071b57600080fd5b5035612eb6565b34801561072e57600080fd5b506102576004803603602081101561074557600080fd5b50356130de565b34801561075857600080fd5b506102576004803603602081101561076f57600080fd5b503561329d565b34801561078257600080fd5b506102576004803603604081101561079957600080fd5b5080359060200135613419565b3480156107b257600080fd5b506105fd600480360360208110156107c957600080fd5b50356135d4565b3480156107dc57600080fd5b50610257600480360360208110156107f357600080fd5b50356135ef565b34801561080657600080fd5b50610257600480360361010081101561081e57600080fd5b50803590602081013515159060408101351515906060810135151590608081013515159060a081013515159060c081013515159060e001351515613891565b34801561086957600080fd5b506102576004803603604081101561088057600080fd5b5080359060200135613b5d565b34801561089957600080fd5b506102c8613d3d565b3480156108ae57600080fd5b50610257600480360360208110156108c557600080fd5b5035600160a060020a0316613d43565b3480156108e157600080fd5b50610257600480360360408110156108f857600080fd5b5080359060200135600160a060020a0316613d66565b34801561091a57600080fd5b506102576004803603604081101561093157600080fd5b5080359060200135600160a060020a0316613f62565b34801561095357600080fd5b506102576004803603606081101561096a57600080fd5b50803590600160a060020a036020820135169060400135614285565b34801561099257600080fd5b506105fd600480360360208110156109a957600080fd5b5035614488565b6000600160a060020a03166003600033600160a060020a03166361fac54d6040518163ffffffff1660e060020a02815260040160206040518083038186803b1580156109fb57600080fd5b505afa158015610a0f573d6000803e3d6000fd5b505050506040513d6020811015610a2557600080fd5b50518152602081019190915260400160002054600160a060020a03161415610a85576040805160e560020a62461bcd02815260206004820152600e60248201526000805160206145f0833981519152604482015290519081900360640190fd5b600083815260046020526040902054600160a060020a03161515610ae1576040805160e560020a62461bcd0281526020600482015260146024820152600080516020614650833981519152604482015290519081900360640190fd5b3360009081526002602052604090205460ff1615610b37576040805160e560020a62461bcd02815260206004820152600b6024820152600080516020614630833981519152604482015290519081900360640190fd5b600083815260046020908152604091829020548251600160a060020a038681168252928101859052835192909116927f471ea93df2dbd0bbaaf450bc24602363cfa33b0a952c75ce520f6247aca06b9a92918290030190a2505050565b6000600160a060020a03166003600033600160a060020a03166361fac54d6040518163ffffffff1660e060020a02815260040160206040518083038186803b158015610bdf57600080fd5b505afa158015610bf3573d6000803e3d6000fd5b505050506040513d6020811015610c0957600080fd5b50518152602081019190915260400160002054600160a060020a03161415610c69576040805160e560020a62461bcd02815260206004820152600e60248201526000805160206145f0833981519152604482015290519081900360640190fd5b600081815260036020526040902054600160a060020a03161515610cc5576040805160e560020a62461bcd02815260206004820152601760248201526000805160206145d0833981519152604482015290519081900360640190fd5b600082815260046020526040902054600160a060020a03161515610d21576040805160e560020a62461bcd0281526020600482015260146024820152600080516020614650833981519152604482015290519081900360640190fd5b60008281526004602081815260408084205485855260039092528084205481517fadcddc58000000000000000000000000000000000000000000000000000000008152600160a060020a0391821694810194909452336024850152905191169263adcddc58926044808201939182900301818387803b158015610da357600080fd5b505af1158015610db7573d6000803e3d6000fd5b505050505050565b6000600160a060020a03166003600033600160a060020a03166361fac54d6040518163ffffffff1660e060020a02815260040160206040518083038186803b158015610e0a57600080fd5b505afa158015610e1e573d6000803e3d6000fd5b505050506040513d6020811015610e3457600080fd5b50518152602081019190915260400160002054600160a060020a03161415610e94576040805160e560020a62461bcd02815260206004820152600e60248201526000805160206145f0833981519152604482015290519081900360640190fd5b600160006003600033600160a060020a03166361fac54d6040518163ffffffff1660e060020a02815260040160206040518083038186803b158015610ed857600080fd5b505afa158015610eec573d6000803e3d6000fd5b505050506040513d6020811015610f0257600080fd5b505181526020808201929092526040908101600090812054600160a060020a03168452918301939093529101902054610100900460ff161515610f7d576040805160e560020a62461bcd02815260206004820152601d6024820152600080516020614610833981519152604482015290519081900360640190fd5b600655565b60055481565b6000600160a060020a03166003600033600160a060020a03166361fac54d6040518163ffffffff1660e060020a02815260040160206040518083038186803b158015610fd357600080fd5b505afa158015610fe7573d6000803e3d6000fd5b505050506040513d6020811015610ffd57600080fd5b50518152602081019190915260400160002054600160a060020a0316141561105d576040805160e560020a62461bcd02815260206004820152600e60248201526000805160206145f0833981519152604482015290519081900360640190fd5b600081815260036020526040902054600160a060020a031615156110b9576040805160e560020a62461bcd02815260206004820152601760248201526000805160206145d0833981519152604482015290519081900360640190fd5b3360009081526001602052604090205460ff161515611110576040805160e560020a62461bcd02815260206004820152601d6024820152600080516020614610833981519152604482015290519081900360640190fd5b600081815260036020908152604080832054600160a060020a03168352600290915290205460ff161561118d576040805160e560020a62461bcd02815260206004820152601260248201527f55736572206973206e6f742062616e6e65640000000000000000000000000000604482015290519081900360640190fd5b600090815260036020908152604080832054600160a060020a0316835260029091529020805460ff19169055565b6000600160a060020a03166003600033600160a060020a03166361fac54d6040518163ffffffff1660e060020a02815260040160206040518083038186803b15801561120657600080fd5b505afa15801561121a573d6000803e3d6000fd5b505050506040513d602081101561123057600080fd5b50518152602081019190915260400160002054600160a060020a03161415611290576040805160e560020a62461bcd02815260206004820152600e60248201526000805160206145f0833981519152604482015290519081900360640190fd5b600082815260036020526040902054600160a060020a031615156112ec576040805160e560020a62461bcd02815260206004820152600e60248201526000805160206145f0833981519152604482015290519081900360640190fd5b3360009081526002602052604090205460ff1615611342576040805160e560020a62461bcd02815260206004820152600b6024820152600080516020614630833981519152604482015290519081900360640190fd5b600082815260036020908152604091829020548251600160a060020a03909116815290810183905281517f3a7f2b60f830ee4c4a054a730ea8ff0e10a4f29ce1c9d21cd772aab592a3722c929181900390910190a15050565b6000600160a060020a03166003600033600160a060020a03166361fac54d6040518163ffffffff1660e060020a02815260040160206040518083038186803b1580156113e657600080fd5b505afa1580156113fa573d6000803e3d6000fd5b505050506040513d602081101561141057600080fd5b50518152602081019190915260400160002054600160a060020a03161415611470576040805160e560020a62461bcd02815260206004820152600e60248201526000805160206145f0833981519152604482015290519081900360640190fd5b3360009081526002602052604090205460ff16156114c6576040805160e560020a62461bcd02815260206004820152600b6024820152600080516020614630833981519152604482015290519081900360640190fd5b600082815260046020526040902054600160a060020a03161515611522576040805160e560020a62461bcd0281526020600482015260146024820152600080516020614650833981519152604482015290519081900360640190fd5b60008281526004602081815260408084205460085482517ff28d4bce000000000000000000000000000000000000000000000000000000008152948501879052336024860152600160a060020a039081166044860152915191169263f28d4bce92606480830193919282900301818787803b1580156115a057600080fd5b505af11580156115b4573d6000803e3d6000fd5b505050506040513d60208110156115ca57600080fd5b5051600084815260046020908152604091829020548251600160a060020a0380861682529351949550339491909316927f91775024e2b8b5fb90a5a6472b7308b684fbb3f0b45725f720b6008df77594f092908290030190a3505050565b6000600160a060020a03166003600033600160a060020a03166361fac54d6040518163ffffffff1660e060020a02815260040160206040518083038186803b15801561167357600080fd5b505afa158015611687573d6000803e3d6000fd5b505050506040513d602081101561169d57600080fd5b50518152602081019190915260400160002054600160a060020a031614156116fd576040805160e560020a62461bcd02815260206004820152600e60248201526000805160206145f0833981519152604482015290519081900360640190fd5b3360009081526002602052604090205460ff1615611753576040805160e560020a62461bcd02815260206004820152600b6024820152600080516020614630833981519152604482015290519081900360640190fd5b600082815260046020526040902054600160a060020a031615156117af576040805160e560020a62461bcd0281526020600482015260146024820152600080516020614650833981519152604482015290519081900360640190fd5b60008281526004602081905260408083205481517fd8705f25000000000000000000000000000000000000000000000000000000008152600160a060020a0386811694820194909452336024820152915192169263d8705f259260448084019382900301818387803b158015610da357600080fd5b6000600160a060020a03166003600033600160a060020a03166361fac54d6040518163ffffffff1660e060020a02815260040160206040518083038186803b15801561186f57600080fd5b505afa158015611883573d6000803e3d6000fd5b505050506040513d602081101561189957600080fd5b50518152602081019190915260400160002054600160a060020a031614156118f9576040805160e560020a62461bcd02815260206004820152600e60248201526000805160206145f0833981519152604482015290519081900360640190fd5b600081815260036020526040902054600160a060020a03161515611955576040805160e560020a62461bcd02815260206004820152601760248201526000805160206145d0833981519152604482015290519081900360640190fd5b600082815260046020526040902054600160a060020a031615156119b1576040805160e560020a62461bcd0281526020600482015260146024820152600080516020614650833981519152604482015290519081900360640190fd5b60008281526004602081815260408084205485855260039092528084205481517f1f317520000000000000000000000000000000000000000000000000000000008152600160a060020a03918216948101949094523360248501529051911692631f317520926044808201939182900301818387803b158015610da357600080fd5b6000600160a060020a03166003600033600160a060020a03166361fac54d6040518163ffffffff1660e060020a02815260040160206040518083038186803b158015611a7e57600080fd5b505afa158015611a92573d6000803e3d6000fd5b505050506040513d6020811015611aa857600080fd5b50518152602081019190915260400160002054600160a060020a03161415611b08576040805160e560020a62461bcd02815260206004820152600e60248201526000805160206145f0833981519152604482015290519081900360640190fd5b600081815260036020526040902054600160a060020a03161515611b64576040805160e560020a62461bcd02815260206004820152601760248201526000805160206145d0833981519152604482015290519081900360640190fd5b600082815260046020526040902054600160a060020a03161515611bc0576040805160e560020a62461bcd0281526020600482015260146024820152600080516020614650833981519152604482015290519081900360640190fd5b60008281526004602081815260408084205485855260039092528084205481517fb10d6b46000000000000000000000000000000000000000000000000000000008152600160a060020a0391821694810194909452336024850152905191169263b10d6b46926044808201939182900301818387803b158015610da357600080fd5b60016020526000908152604090205460ff80821691610100810482169162010000820481169163010000008104821691640100000000820481169165010000000000810482169166010000000000009091041687565b6000600160a060020a03166003600033600160a060020a03166361fac54d6040518163ffffffff1660e060020a02815260040160206040518083038186803b158015611ce357600080fd5b505afa158015611cf7573d6000803e3d6000fd5b505050506040513d6020811015611d0d57600080fd5b50518152602081019190915260400160002054600160a060020a03161415611d6d576040805160e560020a62461bcd02815260206004820152600e60248201526000805160206145f0833981519152604482015290519081900360640190fd5b600083815260046020526040902054600160a060020a03161515611dc9576040805160e560020a62461bcd0281526020600482015260146024820152600080516020614650833981519152604482015290519081900360640190fd5b3360009081526001602052604090205465010000000000900460ff161515611e29576040805160e560020a62461bcd02815260206004820152601d6024820152600080516020614610833981519152604482015290519081900360640190fd5b60008381526004602081815260408084205481517f61fac54d0000000000000000000000000000000000000000000000000000000081529151600160a060020a039091169463404628c6946001949193600393859333936361fac54d93808201939190829003018186803b158015611ea057600080fd5b505afa158015611eb4573d6000803e3d6000fd5b505050506040513d6020811015611eca57600080fd5b505181526020808201929092526040908101600090812054600160a060020a03908116855292840194909452918201832054825163ffffffff861660e060020a0281526501000000000090910460ff16151560048201523360248201528782166044820152908616606482015290516084808301939282900301818387803b158015611f5557600080fd5b505af1158015611f69573d6000803e3d6000fd5b50505050505050565b6000600160a060020a03166003600033600160a060020a03166361fac54d6040518163ffffffff1660e060020a02815260040160206040518083038186803b158015611fbd57600080fd5b505afa158015611fd1573d6000803e3d6000fd5b505050506040513d6020811015611fe757600080fd5b50518152602081019190915260400160002054600160a060020a03161415612047576040805160e560020a62461bcd02815260206004820152600e60248201526000805160206145f0833981519152604482015290519081900360640190fd5b3360009081526002602052604090205460ff161561209d576040805160e560020a62461bcd02815260206004820152600b6024820152600080516020614630833981519152604482015290519081900360640190fd5b600084815260046020526040902054600160a060020a031615156120f9576040805160e560020a62461bcd0281526020600482015260146024820152600080516020614650833981519152604482015290519081900360640190fd5b60008481526004602081815260408084205460095482517f6c3993e7000000000000000000000000000000000000000000000000000000008152600160a060020a038a81169682019690965288861660248201523360448201526064810188905290851660848201529151931692636c3993e79260a48084019391929182900301818787803b15801561218b57600080fd5b505af115801561219f573d6000803e3d6000fd5b505050506040513d60208110156121b557600080fd5b505160408051600160a060020a03808416825291519293508186169233928816917e73e2a228e173d520aed711d6ce2919affe039a310fa872e2b8ef1c7b65a812919081900360200190a45050505050565b6000600160a060020a03166003600033600160a060020a03166361fac54d6040518163ffffffff1660e060020a02815260040160206040518083038186803b15801561225257600080fd5b505afa158015612266573d6000803e3d6000fd5b505050506040513d602081101561227c57600080fd5b50518152602081019190915260400160002054600160a060020a031614156122dc576040805160e560020a62461bcd02815260206004820152600e60248201526000805160206145f0833981519152604482015290519081900360640190fd5b600088815260046020526040902054600160a060020a03161515612338576040805160e560020a62461bcd0281526020600482015260146024820152600080516020614650833981519152604482015290519081900360640190fd5b6000888152600460208181526040808420548b855260039092528084205481517f1c732557000000000000000000000000000000000000000000000000000000008152600160a060020a03918216948101949094523360248501528a151560448501528915156064850152881515608485015287151560a485015286151560c485015285151560e48501529051911692631c73255792610104808201939182900301818387803b1580156123eb57600080fd5b505af11580156123ff573d6000803e3d6000fd5b505050505050505050505050565b6000600160a060020a03166003600033600160a060020a03166361fac54d6040518163ffffffff1660e060020a02815260040160206040518083038186803b15801561245857600080fd5b505afa15801561246c573d6000803e3d6000fd5b505050506040513d602081101561248257600080fd5b50518152602081019190915260400160002054600160a060020a031614156124e2576040805160e560020a62461bcd02815260206004820152600e60248201526000805160206145f0833981519152604482015290519081900360640190fd5b3360009081526002602052604090205460ff1615612538576040805160e560020a62461bcd02815260206004820152600b6024820152600080516020614630833981519152604482015290519081900360640190fd5b600082815260046020526040902054600160a060020a03161515612594576040805160e560020a62461bcd0281526020600482015260146024820152600080516020614650833981519152604482015290519081900360640190fd5b60008281526004602081905260408083205481517fff22370c000000000000000000000000000000000000000000000000000000008152600160a060020a0386811694820194909452336024820152915192169263ff22370c9260448084019382900301818387803b158015610da357600080fd5b600054600160a060020a0316331461262057600080fd5b60008054604051600160a060020a03909116917ff8df31144d9c2f0f6b59d69b8b98abd5459d07f2742c4df920b25aae33c6482091a26000805473ffffffffffffffffffffffffffffffffffffffff19169055565b6000600160a060020a03166003600033600160a060020a03166361fac54d6040518163ffffffff1660e060020a02815260040160206040518083038186803b1580156126c057600080fd5b505afa1580156126d4573d6000803e3d6000fd5b505050506040513d60208110156126ea57600080fd5b50518152602081019190915260400160002054600160a060020a0316141561274a576040805160e560020a62461bcd02815260206004820152600e60248201526000805160206145f0833981519152604482015290519081900360640190fd5b600083815260046020526040902054600160a060020a031615156127a6576040805160e560020a62461bcd0281526020600482015260146024820152600080516020614650833981519152604482015290519081900360640190fd5b3360009081526002602052604090205460ff16156127fc576040805160e560020a62461bcd02815260206004820152600b6024820152600080516020614630833981519152604482015290519081900360640190fd5b600083815260046020908152604091829020548251600160a060020a038681168252928101859052835192909116927ff008632dbc706d16be2587a95e61f9b068a5a9821c0d1205aaca0a2b1edc893d92918290030190a2505050565b600054600160a060020a031681565b6000600160a060020a03166003600033600160a060020a03166361fac54d6040518163ffffffff1660e060020a02815260040160206040518083038186803b1580156128b357600080fd5b505afa1580156128c7573d6000803e3d6000fd5b505050506040513d60208110156128dd57600080fd5b50518152602081019190915260400160002054600160a060020a0316141561293d576040805160e560020a62461bcd02815260206004820152600e60248201526000805160206145f0833981519152604482015290519081900360640190fd5b600084815260046020526040902054600160a060020a03161515612999576040805160e560020a62461bcd0281526020600482015260146024820152600080516020614650833981519152604482015290519081900360640190fd5b33600090815260016020526040902054640100000000900460ff1615156129f8576040805160e560020a62461bcd02815260206004820152601d6024820152600080516020614610833981519152604482015290519081900360640190fd5b60008481526004602081815260408084205481517f61fac54d0000000000000000000000000000000000000000000000000000000081529151600160a060020a039091169463fa477a49946001949193600393859333936361fac54d93808201939190829003018186803b158015612a6f57600080fd5b505afa158015612a83573d6000803e3d6000fd5b505050506040513d6020811015612a9957600080fd5b505181526020808201929092526040908101600090812054600160a060020a03908116855292840194909452918201832054825163ffffffff861660e060020a02815264010000000090910460ff1615156004820152336024820152888216604482015287821660648201529086166084820152905160a4808301939282900301818387803b158015612b2b57600080fd5b505af1158015612b3f573d6000803e3d6000fd5b5050505050505050565b60026020526000908152604090205460ff1681565b600654341015612bb8576040805160e560020a62461bcd02815260206004820152601560248201527f496e73756666696369656e74204574682053656e740000000000000000000000604482015290519081900360640190fd5b600081815260036020526040902054600160a060020a031615612c25576040805160e560020a62461bcd02815260206004820152601760248201527f557365726e616d6520616c726561647920657869737473000000000000000000604482015290519081900360640190fd5b600a54600090612c3d90600160a060020a03166144a3565b604080517fbe13f47c000000000000000000000000000000000000000000000000000000008152336004820152602481018590529051919250600160a060020a0383169163be13f47c9160448082019260009290919082900301818387803b158015612ca857600080fd5b505af1158015612cbc573d6000803e3d6000fd5b50505060009283525060036020526040909120805473ffffffffffffffffffffffffffffffffffffffff1916600160a060020a03909216919091179055565b600054600160a060020a03163314612d1257600080fd5b6000600160a060020a03166003600033600160a060020a03166361fac54d6040518163ffffffff1660e060020a02815260040160206040518083038186803b158015612d5d57600080fd5b505afa158015612d71573d6000803e3d6000fd5b505050506040513d6020811015612d8757600080fd5b50518152602081019190915260400160002054600160a060020a03161415612de7576040805160e560020a62461bcd02815260206004820152600e60248201526000805160206145f0833981519152604482015290519081900360640190fd5b600082815260046020526040902054600160a060020a03161515612e43576040805160e560020a62461bcd0281526020600482015260146024820152600080516020614650833981519152604482015290519081900360640190fd5b60008281526004602081905260408083205481517f243d14880000000000000000000000000000000000000000000000000000000081529283018590523360248401529051600160a060020a039091169263243d1488926044808201939182900301818387803b158015610da357600080fd5b6000600160a060020a03166003600033600160a060020a03166361fac54d6040518163ffffffff1660e060020a02815260040160206040518083038186803b158015612f0157600080fd5b505afa158015612f15573d6000803e3d6000fd5b505050506040513d6020811015612f2b57600080fd5b50518152602081019190915260400160002054600160a060020a03161415612f8b576040805160e560020a62461bcd02815260206004820152600e60248201526000805160206145f0833981519152604482015290519081900360640190fd5b600081815260036020526040902054600160a060020a03161515612fe7576040805160e560020a62461bcd02815260206004820152601760248201526000805160206145d0833981519152604482015290519081900360640190fd5b3360009081526001602052604090205460ff16151561303e576040805160e560020a62461bcd02815260206004820152601d6024820152600080516020614610833981519152604482015290519081900360640190fd5b600081815260036020908152604080832054600160a060020a03168352600290915290205460ff16156130bb576040805160e560020a62461bcd02815260206004820152601660248201527f5573657220697320616c72656164792062616e6e656400000000000000000000604482015290519081900360640190fd5b6000908152600360209081526040822054600160a060020a031690915260029052565b6000600160a060020a03166003600033600160a060020a03166361fac54d6040518163ffffffff1660e060020a02815260040160206040518083038186803b15801561312957600080fd5b505afa15801561313d573d6000803e3d6000fd5b505050506040513d602081101561315357600080fd5b50518152602081019190915260400160002054600160a060020a031614156131b3576040805160e560020a62461bcd02815260206004820152600e60248201526000805160206145f0833981519152604482015290519081900360640190fd5b600160006003600033600160a060020a03166361fac54d6040518163ffffffff1660e060020a02815260040160206040518083038186803b1580156131f757600080fd5b505afa15801561320b573d6000803e3d6000fd5b505050506040513d602081101561322157600080fd5b505181526020808201929092526040908101600090812054600160a060020a0316845291830193909352910190205462010000900460ff161515610f7d576040805160e560020a62461bcd02815260206004820152601d6024820152600080516020614610833981519152604482015290519081900360640190fd5b6000600160a060020a03166003600033600160a060020a03166361fac54d6040518163ffffffff1660e060020a02815260040160206040518083038186803b1580156132e857600080fd5b505afa1580156132fc573d6000803e3d6000fd5b505050506040513d602081101561331257600080fd5b50518152602081019190915260400160002054600160a060020a03161415613372576040805160e560020a62461bcd02815260206004820152600e60248201526000805160206145f0833981519152604482015290519081900360640190fd5b600054600160a060020a03163314806133a15750336000908152600160205260409020546301000000900460ff165b15156133e5576040805160e560020a62461bcd02815260206004820152601d6024820152600080516020614610833981519152604482015290519081900360640190fd5b600090815260036020908152604080832054600160a060020a0316835260019091529020805466ffffffffffffff19169055565b600054600160a060020a0316331461343057600080fd5b6000600160a060020a03166003600033600160a060020a03166361fac54d6040518163ffffffff1660e060020a02815260040160206040518083038186803b15801561347b57600080fd5b505afa15801561348f573d6000803e3d6000fd5b505050506040513d60208110156134a557600080fd5b50518152602081019190915260400160002054600160a060020a03161415613505576040805160e560020a62461bcd02815260206004820152600e60248201526000805160206145f0833981519152604482015290519081900360640190fd5b600082815260046020526040902054600160a060020a03161515613561576040805160e560020a62461bcd0281526020600482015260146024820152600080516020614650833981519152604482015290519081900360640190fd5b60008281526004602081905260408083205481517fe3c0d8b90000000000000000000000000000000000000000000000000000000081529283018590523360248401529051600160a060020a039091169263e3c0d8b9926044808201939182900301818387803b158015610da357600080fd5b600360205260009081526040902054600160a060020a031681565b600081815260046020526040902054600160a060020a03161561365c576040805160e560020a62461bcd02815260206004820152601460248201527f466f72756d20616c726561647920657869737473000000000000000000000000604482015290519081900360640190fd5b6000600160a060020a03166003600033600160a060020a03166361fac54d6040518163ffffffff1660e060020a02815260040160206040518083038186803b1580156136a757600080fd5b505afa1580156136bb573d6000803e3d6000fd5b505050506040513d60208110156136d157600080fd5b50518152602081019190915260400160002054600160a060020a03161415613731576040805160e560020a62461bcd02815260206004820152600e60248201526000805160206145f0833981519152604482015290519081900360640190fd5b3360009081526002602052604090205460ff1615613787576040805160e560020a62461bcd02815260206004820152600b6024820152600080516020614630833981519152604482015290519081900360640190fd5b60075460009061379f90600160a060020a03166144a3565b604080517f6910e334000000000000000000000000000000000000000000000000000000008152600481018590523360248201529051919250600160a060020a03831691636910e3349160448082019260009290919082900301818387803b15801561380a57600080fd5b505af115801561381e573d6000803e3d6000fd5b505050600083815260046020908152604091829020805473ffffffffffffffffffffffffffffffffffffffff1916600160a060020a038616908117909155825190815291517f6f9535f6c8a4252f81158b92ec563f75929f25d4f516bbdea9a3519b2f503e939350918290030190a15050565b600054600160a060020a031633146138a857600080fd5b6000600160a060020a03166003600033600160a060020a03166361fac54d6040518163ffffffff1660e060020a02815260040160206040518083038186803b1580156138f357600080fd5b505afa158015613907573d6000803e3d6000fd5b505050506040513d602081101561391d57600080fd5b50518152602081019190915260400160002054600160a060020a0316141561397d576040805160e560020a62461bcd02815260206004820152600e60248201526000805160206145f0833981519152604482015290519081900360640190fd5b600088815260036020526040902054600160a060020a031615156139eb576040805160e560020a62461bcd02815260206004820152601660248201527f55736572206163636f756e74206e6f7420666f756e6400000000000000000000604482015290519081900360640190fd5b336000908152600160205260409020546301000000900460ff161515613a49576040805160e560020a62461bcd02815260206004820152601d6024820152600080516020614610833981519152604482015290519081900360640190fd5b613a51614593565b961515875294151560208088019182529415156040808901918252941515606089019081529215156080890190815293151560a0890190815296151560c089019081526000998a5260038752858a2054600160a060020a03168a526001909652939097209551865497519351915192519551945160ff199098169015151761ff001916610100931515939093029290921762ff0000191662010000921515929092029190911763ff00000019166301000000911515919091021764ff000000001916640100000000921515929092029190911765ff0000000000191665010000000000911515919091021766ff0000000000001916660100000000000092151592909202919091179055565b6000600160a060020a03166003600033600160a060020a03166361fac54d6040518163ffffffff1660e060020a02815260040160206040518083038186803b158015613ba857600080fd5b505afa158015613bbc573d6000803e3d6000fd5b505050506040513d6020811015613bd257600080fd5b50518152602081019190915260400160002054600160a060020a03161415613c32576040805160e560020a62461bcd02815260206004820152600e60248201526000805160206145f0833981519152604482015290519081900360640190fd5b600082815260046020526040902054600160a060020a03161515613c8e576040805160e560020a62461bcd0281526020600482015260146024820152600080516020614650833981519152604482015290519081900360640190fd5b3360009081526002602052604090205460ff1615613ce4576040805160e560020a62461bcd02815260206004820152600b6024820152600080516020614630833981519152604482015290519081900360640190fd5b600082815260046020908152604091829020548251600160a060020a03909116815290810183905281517fc834d42d1b7db30dfbdfced4cc1829ca231d3b2ddebd8f6e7e47054d9dcbb77d929181900390910190a15050565b60065481565b600054600160a060020a03163314613d5a57600080fd5b613d6381614516565b50565b6000600160a060020a03166003600033600160a060020a03166361fac54d6040518163ffffffff1660e060020a02815260040160206040518083038186803b158015613db157600080fd5b505afa158015613dc5573d6000803e3d6000fd5b505050506040513d6020811015613ddb57600080fd5b50518152602081019190915260400160002054600160a060020a03161415613e3b576040805160e560020a62461bcd02815260206004820152600e60248201526000805160206145f0833981519152604482015290519081900360640190fd5b3360009081526002602052604090205460ff1615613e91576040805160e560020a62461bcd02815260206004820152600b6024820152600080516020614630833981519152604482015290519081900360640190fd5b600082815260046020526040902054600160a060020a03161515613eed576040805160e560020a62461bcd0281526020600482015260146024820152600080516020614650833981519152604482015290519081900360640190fd5b60008281526004602081905260408083205481517f289b4a55000000000000000000000000000000000000000000000000000000008152600160a060020a0386811694820194909452336024820152915192169263289b4a559260448084019382900301818387803b158015610da357600080fd5b6000600160a060020a03166003600033600160a060020a03166361fac54d6040518163ffffffff1660e060020a02815260040160206040518083038186803b158015613fad57600080fd5b505afa158015613fc1573d6000803e3d6000fd5b505050506040513d6020811015613fd757600080fd5b50518152602081019190915260400160002054600160a060020a03161415614037576040805160e560020a62461bcd02815260206004820152600e60248201526000805160206145f0833981519152604482015290519081900360640190fd5b600082815260046020526040902054600160a060020a03161515614093576040805160e560020a62461bcd0281526020600482015260146024820152600080516020614650833981519152604482015290519081900360640190fd5b336000908152600160205260409020546601000000000000900460ff1615156140f4576040805160e560020a62461bcd02815260206004820152601d6024820152600080516020614610833981519152604482015290519081900360640190fd5b60008281526004602081815260408084205481517f61fac54d0000000000000000000000000000000000000000000000000000000081529151600160a060020a0390911694632ae434f3946001949193600393859333936361fac54d93808201939190829003018186803b15801561416b57600080fd5b505afa15801561417f573d6000803e3d6000fd5b505050506040513d602081101561419557600080fd5b505181526020808201929092526040908101600090812054600160a060020a03908116855292840194909452918201832054825163ffffffff861660e060020a028152660100000000000090910460ff1615156004820152336024820152908616604482015290516064808301939282900301818387803b15801561421957600080fd5b505af115801561422d573d6000803e3d6000fd5b50505060008381526004602081815260408084208054600160a060020a0316855260028352908420805460ff191660011790559590925290525050805473ffffffffffffffffffffffffffffffffffffffff19169055565b6000600160a060020a03166003600033600160a060020a03166361fac54d6040518163ffffffff1660e060020a02815260040160206040518083038186803b1580156142d057600080fd5b505afa1580156142e4573d6000803e3d6000fd5b505050506040513d60208110156142fa57600080fd5b50518152602081019190915260400160002054600160a060020a0316141561435a576040805160e560020a62461bcd02815260206004820152600e60248201526000805160206145f0833981519152604482015290519081900360640190fd5b3360009081526002602052604090205460ff16156143b0576040805160e560020a62461bcd02815260206004820152600b6024820152600080516020614630833981519152604482015290519081900360640190fd5b600083815260046020526040902054600160a060020a0316151561440c576040805160e560020a62461bcd0281526020600482015260146024820152600080516020614650833981519152604482015290519081900360640190fd5b60008381526004602081905260408083205481517fc965d311000000000000000000000000000000000000000000000000000000008152600160a060020a038781169482019490945260248101869052336044820152915192169263c965d3119260648084019382900301818387803b158015611f5557600080fd5b600460205260009081526040902054600160a060020a031681565b6040517f3d602d80600a3d3981f3363d3d373d3d3d363d7300000000000000000000000081526c010000000000000000000000008202601482018190527f5af43d82803e903d91602b57fd5bf30000000000000000000000000000000000602883015260009160378184f0949350505050565b600160a060020a038116151561452b57600080fd5b60008054604051600160a060020a03808516939216917f8be0079c531659141344cd1fd0a4f28419497f9722a3daafe3b4186f6b6457e091a36000805473ffffffffffffffffffffffffffffffffffffffff1916600160a060020a0392909216919091179055565b6040805160e081018252600080825260208201819052918101829052606081018290526080810182905260a0810182905260c08101919091529056fe557365726e616d6520646f6573206e6f7420657869737400000000000000000055736572206e6f7420666f756e640000000000000000000000000000000000005573657220646f6573206e6f742068617665207065726d697373696f6e000000557365722062616e6e6564000000000000000000000000000000000000000000466f72756d20646f6573206e6f74206578697374000000000000000000000000a165627a7a72305820ffb4e602cc0e1253264588f40140bfecfa98b4646b1161e86aa46f49284655070029608060405260008054600160a060020a03191633179055611a2f806100256000396000f3fe608060405234801561001057600080fd5b50600436106101775760003560e060020a900480636c3993e7116100e2578063c965d3111161009b578063f28d4bce11610075578063f28d4bce146104be578063f2fde38b146104f2578063fa477a4914610518578063ff22370c1461055e57610177565b8063c965d3111461042e578063d8705f2514610464578063e3c0d8b91461049257610177565b80636c3993e714610374578063715018a6146103ba5780637284e416146103c25780638da5cb5b146103ca578063adcddc58146103d2578063b10d6b461461040057610177565b8063243d148811610134578063243d148814610270578063289b4a551461029c5780632ae434f3146102ca578063404628c61461030057806352f6747a146103405780636910e3341461034857610177565b806302d05d3f1461017c57806306fdde03146101a0578063123f0a48146101ba57806316ada547146101d75780631c732557146101df5780631f31752014610242575b600080fd5b61018461058c565b60408051600160a060020a039092168252519081900360200190f35b6101a861059b565b60408051918252519081900360200190f35b610184600480360360208110156101d057600080fd5b50356105a1565b6101a86105c9565b61024060048036036101008110156101f657600080fd5b50600160a060020a03813581169160208101359091169060408101351515906060810135151590608081013515159060a081013515159060c081013515159060e0013515156105cf565b005b6102406004803603604081101561025857600080fd5b50600160a060020a0381358116916020013516610759565b6102406004803603604081101561028657600080fd5b5080359060200135600160a060020a03166107ff565b610240600480360360408110156102b257600080fd5b50600160a060020a0381358116916020013516610881565b610240600480360360608110156102e057600080fd5b508035151590600160a060020a03602082013581169160400135166109ce565b6102406004803603608081101561031657600080fd5b508035151590600160a060020a036020820135811691604081013582169160609091013516610a4e565b6101a8610b97565b6102406004803603604081101561035e57600080fd5b5080359060200135600160a060020a0316610b9d565b610184600480360360a081101561038a57600080fd5b50600160a060020a0381358116916020810135821691604082013581169160608101359160809091013516610c42565b610240610dde565b6101a8610e4a565b610184610e50565b610240600480360360408110156103e857600080fd5b50600160a060020a0381358116916020013516610e5f565b6102406004803603604081101561041657600080fd5b50600160a060020a0381358116916020013516610f6c565b6102406004803603606081101561044457600080fd5b50600160a060020a03813581169160208101359160409091013516611077565b6102406004803603604081101561047a57600080fd5b50600160a060020a03813581169160200135166112b9565b610240600480360360408110156104a857600080fd5b5080359060200135600160a060020a03166113ea565b610184600480360360608110156104d457600080fd5b50803590600160a060020a036020820135811691604001351661146d565b6102406004803603602081101561050857600080fd5b5035600160a060020a0316611598565b610240600480360360a081101561052e57600080fd5b508035151590600160a060020a0360208201358116916040810135821691606082013581169160800135166115bb565b6102406004803603604081101561057457600080fd5b50600160a060020a03813581169160200135166116ee565b600854600160a060020a031681565b60055481565b60098054829081106105af57fe5b600091825260209091200154600160a060020a0316905081565b60045481565b600054600160a060020a031633146105e657600080fd5b600160a060020a0387166000908152600160205260409020546301000000900460ff16151561064d576040805160e560020a62461bcd02815260206004820152601d60248201526000805160206119e4833981519152604482015290519081900360640190fd5b61065561191d565b9515158652931515602080870191825293151560408088019182529315156060880190815292151560a0880190815295151560c08801908152600160a060020a03999099166000908152600190955292909320855181549451935192516080909701519551985160ff199095169015151761ff001916610100931515939093029290921762ff0000191662010000911515919091021763ff00000019166301000000941515949094029390931764ff000000001916640100000000921515929092029190911765ff0000000000191665010000000000941515949094029390931766ff00000000000019166601000000000000931515939093029290921790915550565b600054600160a060020a0316331461077057600080fd5b600160a060020a0381166000908152600160205260409020546301000000900460ff1615156107d7576040805160e560020a62461bcd02815260206004820152601d60248201526000805160206119e4833981519152604482015290519081900360640190fd5b50600160a060020a03166000908152600160205260409020805466ffffffffffffff19169055565b600054600160a060020a0316331461081657600080fd5b600160a060020a038116600090815260016020526040902054610100900460ff16151561087b576040805160e560020a62461bcd02815260206004820152601d60248201526000805160206119e4833981519152604482015290519081900360640190fd5b50600655565b600054600160a060020a0316331461089857600080fd5b600160a060020a03821660009081526003602052604090205460ff1615156108f8576040805160e560020a62461bcd02815260206004820152601360248201526000805160206119c4833981519152604482015290519081900360640190fd5b600160a060020a03811660009081526002602052604090205460ff1615610957576040805160e560020a62461bcd02815260206004820152601e60248201526000805160206119a4833981519152604482015290519081900360640190fd5b81600160a060020a03166389179bdb826040518263ffffffff1660e060020a0281526004018082600160a060020a0316600160a060020a03168152602001915050600060405180830381600087803b1580156109b257600080fd5b505af11580156109c6573d6000803e3d6000fd5b505050505050565b600054600160a060020a031633146109e557600080fd5b82806109fe5750600854600160a060020a038381169116145b1515610a42576040805160e560020a62461bcd02815260206004820152601d60248201526000805160206119e4833981519152604482015290519081900360640190fd5b80600160a060020a0316ff5b600054600160a060020a03163314610a6557600080fd5b600160a060020a03821660009081526003602052604090205460ff161515610ac5576040805160e560020a62461bcd02815260206004820152601360248201526000805160206119c4833981519152604482015290519081900360640190fd5b600160a060020a038381166000818152600160205260408082205481517f58cd149700000000000000000000000000000000000000000000000000000000815289151560048201526501000000000090910460ff16151560248201526044810193909352848416606484015251928516926358cd149792608480820193929182900301818387803b158015610b5957600080fd5b505af1158015610b6d573d6000803e3d6000fd5b505050600160a060020a039092166000908152600360205260409020805460ff1916905550505050565b60065481565b600054600160a060020a031615610bfe576040805160e560020a62461bcd02815260206004820152600860248201527f4e69636520747279000000000000000000000000000000000000000000000000604482015290519081900360640190fd5b600080543373ffffffffffffffffffffffffffffffffffffffff19918216179091556005929092554260045560088054909216600160a060020a0391909116179055565b60008054600160a060020a03163314610c5a57600080fd5b600160a060020a03861660009081526003602052604090205460ff161515610ccc576040805160e560020a62461bcd02815260206004820152601460248201527f506f737420646f6573206e6f742065786973742e000000000000000000000000604482015290519081900360640190fd5b600160a060020a03841660009081526002602052604090205460ff1615610d2b576040805160e560020a62461bcd02815260206004820152601e60248201526000805160206119a4833981519152604482015290519081900360640190fd5b604080517f399cd856000000000000000000000000000000000000000000000000000000008152600160a060020a0387811660048301528681166024830152604482018690528481166064830152915160009289169163399cd85691608480830192602092919082900301818787803b158015610da757600080fd5b505af1158015610dbb573d6000803e3d6000fd5b505050506040513d6020811015610dd157600080fd5b5051979650505050505050565b600054600160a060020a03163314610df557600080fd5b60008054604051600160a060020a03909116917ff8df31144d9c2f0f6b59d69b8b98abd5459d07f2742c4df920b25aae33c6482091a26000805473ffffffffffffffffffffffffffffffffffffffff19169055565b60075481565b600054600160a060020a031681565b600054600160a060020a03163314610e7657600080fd5b600160a060020a03821660009081526002602052604090205460ff1615610ee7576040805160e560020a62461bcd02815260206004820152601360248201527f5573657220616c72656164792062616e6e656400000000000000000000000000604482015290519081900360640190fd5b600160a060020a03811660009081526001602052604090205460ff161515610f47576040805160e560020a62461bcd02815260206004820152601d60248201526000805160206119e4833981519152604482015290519081900360640190fd5b50600160a060020a03166000908152600260205260409020805460ff19166001179055565b600054600160a060020a03163314610f8357600080fd5b600160a060020a03821660009081526002602052604090205460ff161515610ff5576040805160e560020a62461bcd02815260206004820152600f60248201527f55736572206e6f742062616e6e65640000000000000000000000000000000000604482015290519081900360640190fd5b600160a060020a03811660009081526001602052604090205460ff161515611055576040805160e560020a62461bcd02815260206004820152601d60248201526000805160206119e4833981519152604482015290519081900360640190fd5b50600160a060020a03166000908152600260205260409020805460ff19169055565b600054600160a060020a0316331461108e57600080fd5b600160a060020a03831660009081526003602052604090205460ff1615156110ee576040805160e560020a62461bcd02815260206004820152601360248201526000805160206119c4833981519152604482015290519081900360640190fd5b600160a060020a038116600090815260016020526040902054640100000000900460ff161515611156576040805160e560020a62461bcd02815260206004820152601d60248201526000805160206119e4833981519152604482015290519081900360640190fd5b60095482106111af576040805160e560020a62461bcd02815260206004820152600d60248201527f496e76616c696420696e64657800000000000000000000000000000000000000604482015290519081900360640190fd5b82600160a060020a03166009838154811015156111c857fe5b600091825260209091200154600160a060020a031614611232576040805160e560020a62461bcd02815260206004820152601560248201527f50696e6e656420706f7374206e6f7420666f756e640000000000000000000000604482015290519081900360640190fd5b60098054600019810190811061124457fe5b60009182526020909120015460098054600160a060020a03909216918490811061126a57fe5b6000918252602090912001805473ffffffffffffffffffffffffffffffffffffffff1916600160a060020a039290921691909117905560098054906112b3906000198301611959565b50505050565b600054600160a060020a031633146112d057600080fd5b600160a060020a03821660009081526003602052604090205460ff161515611330576040805160e560020a62461bcd02815260206004820152601360248201526000805160206119c4833981519152604482015290519081900360640190fd5b600160a060020a03811660009081526002602052604090205460ff161561138f576040805160e560020a62461bcd02815260206004820152601e60248201526000805160206119a4833981519152604482015290519081900360640190fd5b81600160a060020a0316630839b596826040518263ffffffff1660e060020a0281526004018082600160a060020a0316600160a060020a03168152602001915050600060405180830381600087803b1580156109b257600080fd5b600054600160a060020a0316331461140157600080fd5b600160a060020a03811660009081526001602052604090205462010000900460ff161515611467576040805160e560020a62461bcd02815260206004820152601d60248201526000805160206119e4833981519152604482015290519081900360640190fd5b50600755565b60008054600160a060020a0316331461148557600080fd5b600160a060020a03831660009081526002602052604090205460ff16156114e4576040805160e560020a62461bcd02815260206004820152601e60248201526000805160206119a4833981519152604482015290519081900360640190fd5b60006114ef8361182d565b905080600160a060020a0316636910e33486866040518363ffffffff1660e060020a0281526004018083815260200182600160a060020a0316600160a060020a0316815260200192505050600060405180830381600087803b15801561155457600080fd5b505af1158015611568573d6000803e3d6000fd5b505050600160a060020a0382166000908152600360205260409020805460ff191660011790555090509392505050565b600054600160a060020a031633146115af57600080fd5b6115b8816118a0565b50565b600054600160a060020a031633146115d257600080fd5b600160a060020a03831660009081526003602052604090205460ff161515611632576040805160e560020a62461bcd02815260206004820152601360248201526000805160206119c4833981519152604482015290519081900360640190fd5b600160a060020a038481166000818152600160205260408082205481517f8a6955f40000000000000000000000000000000000000000000000000000000081528a15156004820152660100000000000090910460ff16151560248201526044810193909352858416606484015284841660848401525192861692638a6955f49260a480820193929182900301818387803b1580156116cf57600080fd5b505af11580156116e3573d6000803e3d6000fd5b505050505050505050565b600054600160a060020a0316331461170557600080fd5b600160a060020a03821660009081526003602052604090205460ff161515611765576040805160e560020a62461bcd02815260206004820152601360248201526000805160206119c4833981519152604482015290519081900360640190fd5b600160a060020a038116600090815260016020526040902054640100000000900460ff1615156117cd576040805160e560020a62461bcd02815260206004820152601d60248201526000805160206119e4833981519152604482015290519081900360640190fd5b50600980546001810182556000919091527f6e1540171b6c0c960b71a7020d9f60077f6af931a8bbf590da0223dacf75c7af01805473ffffffffffffffffffffffffffffffffffffffff1916600160a060020a0392909216919091179055565b6040517f3d602d80600a3d3981f3363d3d373d3d3d363d7300000000000000000000000081526c010000000000000000000000008202601482018190527f5af43d82803e903d91602b57fd5bf30000000000000000000000000000000000602883015260009160378184f0949350505050565b600160a060020a03811615156118b557600080fd5b60008054604051600160a060020a03808516939216917f8be0079c531659141344cd1fd0a4f28419497f9722a3daafe3b4186f6b6457e091a36000805473ffffffffffffffffffffffffffffffffffffffff1916600160a060020a0392909216919091179055565b6040805160e081018252600080825260208201819052918101829052606081018290526080810182905260a0810182905260c081019190915290565b81548183558181111561197d5760008381526020902061197d918101908301611982565b505050565b6119a091905b8082111561199c5760008155600101611988565b5090565b9056fe557365722069732062616e6e65642066726f6d207468697320666f72756d0000506f737420646f6573206e6f74206578697374000000000000000000000000005573657220646f6573206e6f742068617665207065726d697373696f6e000000a165627a7a72305820b4ee24c47b5da58c582361af29f99532002294a7ba4e7b5ec23fb287622f9db10029608060405260008054600160a060020a031916331790556109cc806100256000396000f3fe608060405234801561001057600080fd5b50600436106100c6576000357c01000000000000000000000000000000000000000000000000000000009004806389179bdb1161008e57806389179bdb146101bd5780638a6955f4146101e35780638bd178e91461022b5780638da5cb5b1461026e578063f2fde38b14610276578063f5b5709b1461029c576100c6565b80630839b596146100cb578063399cd856146100f357806358cd14971461014b5780636910e33414610189578063715018a6146101b5575b600080fd5b6100f1600480360360208110156100e157600080fd5b5035600160a060020a03166102a4565b005b61012f6004803603608081101561010957600080fd5b50600160a060020a03813581169160208101358216916040820135916060013516610368565b60408051600160a060020a039092168252519081900360200190f35b6100f16004803603608081101561016157600080fd5b5080351515906020810135151590600160a060020a03604082013581169160600135166104a8565b6100f16004803603604081101561019f57600080fd5b5080359060200135600160a060020a0316610542565b6100f16105e7565b6100f1600480360360208110156101d357600080fd5b5035600160a060020a0316610653565b6100f1600480360360a08110156101f957600080fd5b5080351515906020810135151590600160a060020a036040820135811691606081013582169160809091013516610722565b610233610846565b6040805161ffff9687168152949095166020850152838501929092526060830152600160a060020a0316608082015290519081900360a00190f35b61012f61086f565b6100f16004803603602081101561028c57600080fd5b5035600160a060020a031661087e565b61012f6108a1565b600054600160a060020a031633146102bb57600080fd5b600160a060020a03811660009081526006602052604090205460ff161561032c576040805160e560020a62461bcd02815260206004820152600d60248201527f416c726561647920766f74656400000000000000000000000000000000000000604482015290519081900360640190fd5b600160a060020a03166000908152600660205260409020805460ff19166001908117909155805461ffff80821683011661ffff19909116179055565b60008054600160a060020a0316331461038057600080fd5b600160a060020a0385163014806103af5750600160a060020a03851660009081526005602052604090205460ff165b1515610405576040805160e560020a62461bcd02815260206004820152601e60248201527f496e76616c696420636f6d6d656e742074617267657420616464726573730000604482015290519081900360640190fd5b6000610410836108b0565b604080517f6133f985000000000000000000000000000000000000000000000000000000008152600160a060020a038981166004830152888116602483015260448201889052915192935090831691636133f9859160648082019260009290919082900301818387803b15801561048657600080fd5b505af115801561049a573d6000803e3d6000fd5b509298975050505050505050565b600054600160a060020a031633146104bf57600080fd5b83806104c85750825b806104e05750600454600160a060020a038381169116145b1515610536576040805160e560020a62461bcd02815260206004820152601d60248201527f5573657220646f6573206e6f742068617665207065726d697373696f6e000000604482015290519081900360640190fd5b80600160a060020a0316ff5b600054600160a060020a0316156105a3576040805160e560020a62461bcd02815260206004820152600860248201527f4e69636520747279000000000000000000000000000000000000000000000000604482015290519081900360640190fd5b600080543373ffffffffffffffffffffffffffffffffffffffff199182161790915560039290925560048054909216600160a060020a039190911617905542600255565b600054600160a060020a031633146105fe57600080fd5b60008054604051600160a060020a03909116917ff8df31144d9c2f0f6b59d69b8b98abd5459d07f2742c4df920b25aae33c6482091a26000805473ffffffffffffffffffffffffffffffffffffffff19169055565b600054600160a060020a0316331461066a57600080fd5b600160a060020a03811660009081526006602052604090205460ff16156106db576040805160e560020a62461bcd02815260206004820152600d60248201527f416c726561647920766f74656400000000000000000000000000000000000000604482015290519081900360640190fd5b600160a060020a03166000908152600660205260409020805460ff19166001908117909155805461ffff62010000808304821684019091160263ffff000019909116179055565b600054600160a060020a0316331461073957600080fd5b600160a060020a03821660009081526005602052604090205460ff1615156107ab576040805160e560020a62461bcd02815260206004820152601160248201527f436f6d6d656e74206e6f7420666f756e64000000000000000000000000000000604482015290519081900360640190fd5b604080517f116125d000000000000000000000000000000000000000000000000000000000815286151560048201528515156024820152600160a060020a038581166044830152838116606483015291519184169163116125d09160848082019260009290919082900301818387803b15801561082757600080fd5b505af115801561083b573d6000803e3d6000fd5b505050505050505050565b60015460025460035460045461ffff8085169462010000900416929190600160a060020a031685565b600054600160a060020a031681565b600054600160a060020a0316331461089557600080fd5b61089e81610923565b50565b600454600160a060020a031690565b6040517f3d602d80600a3d3981f3363d3d373d3d3d363d7300000000000000000000000081526c010000000000000000000000008202601482018190527f5af43d82803e903d91602b57fd5bf30000000000000000000000000000000000602883015260009160378184f0949350505050565b600160a060020a038116151561093857600080fd5b60008054604051600160a060020a03808516939216917f8be0079c531659141344cd1fd0a4f28419497f9722a3daafe3b4186f6b6457e091a36000805473ffffffffffffffffffffffffffffffffffffffff1916600160a060020a039290921691909117905556fea165627a7a72305820e368f83ebcfee14dd7565323391eeca898c2874cf4022be5b1a9411d3c7f16e30029608060405260008054600160a060020a0319163317905561049a806100256000396000f3fe608060405234801561001057600080fd5b506004361061009a576000357c010000000000000000000000000000000000000000000000000000000090048063715018a611610078578063715018a61461014f5780638da5cb5b14610157578063a6e28bdd1461017b578063f2fde38b146101835761009a565b806309b205181461009f578063116125d0146100d95780636133f98514610119575b600080fd5b6100a76101a9565b60408051948552600160a060020a03938416602086015291909216838201526060830191909152519081900360800190f35b610117600480360360808110156100ef57600080fd5b5080351515906020810135151590600160a060020a03604082013581169160600135166101c8565b005b6101176004803603606081101561012f57600080fd5b50600160a060020a03813581169160208101359091169060400135610279565b610117610344565b61015f6103b0565b60408051600160a060020a039092168252519081900360200190f35b61015f6103bf565b6101176004803603602081101561019957600080fd5b5035600160a060020a03166103ce565b600154600254600354600454600160a060020a03928316929091169084565b600054600160a060020a031633146101df57600080fd5b83806101e85750825b806102005750600254600160a060020a038381169116145b151561026d57604080517f08c379a000000000000000000000000000000000000000000000000000000000815260206004820152601d60248201527f5573657220646f6573206e6f742068617665207065726d697373696f6e000000604482015290519081900360640190fd5b80600160a060020a0316ff5b600054600160a060020a0316156102f157604080517f08c379a000000000000000000000000000000000000000000000000000000000815260206004820152600860248201527f4e69636520747279000000000000000000000000000000000000000000000000604482015290519081900360640190fd5b6000805473ffffffffffffffffffffffffffffffffffffffff19908116331790915560019190915560028054600160a060020a039384169083161790556003805493909216921691909117905542600455565b600054600160a060020a0316331461035b57600080fd5b60008054604051600160a060020a03909116917ff8df31144d9c2f0f6b59d69b8b98abd5459d07f2742c4df920b25aae33c6482091a26000805473ffffffffffffffffffffffffffffffffffffffff19169055565b600054600160a060020a031681565b600254600160a060020a031690565b600054600160a060020a031633146103e557600080fd5b6103ee816103f1565b50565b600160a060020a038116151561040657600080fd5b60008054604051600160a060020a03808516939216917f8be0079c531659141344cd1fd0a4f28419497f9722a3daafe3b4186f6b6457e091a36000805473ffffffffffffffffffffffffffffffffffffffff1916600160a060020a039290921691909117905556fea165627a7a72305820c543d5fd2fa547fa6ba6de64288b1467230416775817c5e2c7ce6dcd275cdab90029608060405260008054600160a060020a03191633179055611d3d806100256000396000f3fe608060405234801561001057600080fd5b5060043610610218576000357c010000000000000000000000000000000000000000000000000000000090048063715018a611610137578063cbfdaed5116100ca578063e1243bf611610099578063e1243bf614610658578063f2fde38b1461067b578063f72d6071146106a1578063f9a03922146106cd578063f9cff221146106f957610218565b8063cbfdaed5146105a5578063cda47ea3146105c2578063ced21dec146105e5578063cf5b08e41461060257610218565b8063ae2278aa11610106578063ae2278aa1461051c578063aef797b11461053f578063be13f47c1461055c578063c8527eeb1461058857610218565b8063715018a61461049c5780637ce866c9146104a45780638da5cb5b146104d65780639b58d776146104de57610218565b8063370027da116101af57806350da728a1161017e57806350da728a146103d8578063579819d91461041457806361fac54d1461046857806364c7e92d1461047057610218565b8063370027da146103325780633f90350a1461035e5780633ffc6956146103815780634c355d20146103a457610218565b806316ada547116101eb57806316ada547146102b5578063224b5dbe146102cf578063229b3391146102ec578063325b52f71461030f57610218565b806302d05d3f1461021d5780630cad84c01461024157806310b28c12146102755780631236b52914610298575b600080fd5b61022561072b565b60408051600160a060020a039092168252519081900360200190f35b6102736004803603606081101561025757600080fd5b50803590600160a060020a03602082013516906040013561073a565b005b6102736004803603604081101561028b57600080fd5b5080359060200135610819565b610273600480360360208110156102ae57600080fd5b50356108ed565b6102bd6109b9565b60408051918252519081900360200190f35b610273600480360360208110156102e557600080fd5b50356109bf565b6102736004803603604081101561030257600080fd5b5080359060200135610a70565b6102736004803603604081101561032557600080fd5b5080359060200135610b28565b6102736004803603604081101561034857600080fd5b5080359060200135600160a060020a0316610be0565b6102736004803603604081101561037457600080fd5b5080359060200135610c9b565b6102736004803603604081101561039757600080fd5b5080359060200135610d53565b610273600480360360608110156103ba57600080fd5b50803590600160a060020a0360208201358116916040013516610e0b565b610273600480360360808110156103ee57600080fd5b50803590600160a060020a03602082013581169160408101359091169060600135610ece565b610273600480360361010081101561042b57600080fd5b5080359060208101359060408101351515906060810135151590608081013515159060a081013515159060c081013515159060e001351515610fb6565b6102bd6110c1565b6102736004803603604081101561048657600080fd5b5080359060200135600160a060020a03166110c7565b610273611182565b610273600480360360608110156104ba57600080fd5b50803590600160a060020a0360208201351690604001356111ee565b6102256112b0565b610273600480360360808110156104f457600080fd5b50803590600160a060020a0360208201358116916040810135821691606090910135166112bf565b6102736004803603604081101561053257600080fd5b508035906020013561138a565b6102736004803603602081101561055557600080fd5b5035611442565b6102736004803603604081101561057257600080fd5b50600160a060020a038135169060200135611506565b6102736004803603602081101561059e57600080fd5b50356115ac565b610273600480360360208110156105bb57600080fd5b503561165d565b610273600480360360408110156105d857600080fd5b508035906020013561170e565b610273600480360360208110156105fb57600080fd5b50356117c6565b610273600480360361010081101561061957600080fd5b50803590602081013515159060408101351515906060810135151590608081013515159060a081013515159060c081013515159060e001351515611877565b6102736004803603604081101561066e57600080fd5b5080359060200135611961565b6102736004803603602081101561069157600080fd5b5035600160a060020a0316611a19565b610273600480360360408110156106b757600080fd5b5080359060200135600160a060020a0316611a3c565b610273600480360360408110156106e357600080fd5b5080359060200135600160a060020a0316611af7565b6102736004803603606081101561070f57600080fd5b50803590600160a060020a036020820135169060400135611bb2565b600154600160a060020a031681565b600154600160a060020a0316331461078a576040805160e560020a62461bcd0281526020600482015260196024820152600080516020611cf2833981519152604482015290519081900360640190fd5b60008054604080517f0cad84c000000000000000000000000000000000000000000000000000000000815260048101879052600160a060020a0386811660248301526044820186905291519190921692630cad84c0926064808201939182900301818387803b1580156107fc57600080fd5b505af1158015610810573d6000803e3d6000fd5b50505050505050565b600154600160a060020a03163314610869576040805160e560020a62461bcd0281526020600482015260196024820152600080516020611cf2833981519152604482015290519081900360640190fd5b60008054604080517f10b28c1200000000000000000000000000000000000000000000000000000000815260048101869052602481018590529051600160a060020a03909216926310b28c129260448084019382900301818387803b1580156108d157600080fd5b505af11580156108e5573d6000803e3d6000fd5b505050505050565b600154600160a060020a0316331461093d576040805160e560020a62461bcd0281526020600482015260196024820152600080516020611cf2833981519152604482015290519081900360640190fd5b60008054604080517f1236b529000000000000000000000000000000000000000000000000000000008152600481018590529051600160a060020a0390921692631236b5299260248084019382900301818387803b15801561099e57600080fd5b505af11580156109b2573d6000803e3d6000fd5b5050505050565b60035481565b600154600160a060020a03163314610a0f576040805160e560020a62461bcd0281526020600482015260196024820152600080516020611cf2833981519152604482015290519081900360640190fd5b60008054604080517f224b5dbe000000000000000000000000000000000000000000000000000000008152600481018590529051600160a060020a039092169263224b5dbe9260248084019382900301818387803b15801561099e57600080fd5b600154600160a060020a03163314610ac0576040805160e560020a62461bcd0281526020600482015260196024820152600080516020611cf2833981519152604482015290519081900360640190fd5b60008054604080517f229b339100000000000000000000000000000000000000000000000000000000815260048101869052602481018590529051600160a060020a039092169263229b33919260448084019382900301818387803b1580156108d157600080fd5b600154600160a060020a03163314610b78576040805160e560020a62461bcd0281526020600482015260196024820152600080516020611cf2833981519152604482015290519081900360640190fd5b60008054604080517f325b52f700000000000000000000000000000000000000000000000000000000815260048101869052602481018590529051600160a060020a039092169263325b52f79260448084019382900301818387803b1580156108d157600080fd5b600154600160a060020a03163314610c30576040805160e560020a62461bcd0281526020600482015260196024820152600080516020611cf2833981519152604482015290519081900360640190fd5b60008054604080517f370027da00000000000000000000000000000000000000000000000000000000815260048101869052600160a060020a0385811660248301529151919092169263370027da926044808201939182900301818387803b1580156108d157600080fd5b600154600160a060020a03163314610ceb576040805160e560020a62461bcd0281526020600482015260196024820152600080516020611cf2833981519152604482015290519081900360640190fd5b60008054604080517f3f90350a00000000000000000000000000000000000000000000000000000000815260048101869052602481018590529051600160a060020a0390921692633f90350a9260448084019382900301818387803b1580156108d157600080fd5b600154600160a060020a03163314610da3576040805160e560020a62461bcd0281526020600482015260196024820152600080516020611cf2833981519152604482015290519081900360640190fd5b60008054604080517f3ffc695600000000000000000000000000000000000000000000000000000000815260048101869052602481018590529051600160a060020a0390921692633ffc69569260448084019382900301818387803b1580156108d157600080fd5b600154600160a060020a03163314610e5b576040805160e560020a62461bcd0281526020600482015260196024820152600080516020611cf2833981519152604482015290519081900360640190fd5b60008054604080517f4c355d2000000000000000000000000000000000000000000000000000000000815260048101879052600160a060020a038681166024830152858116604483015291519190921692634c355d20926064808201939182900301818387803b1580156107fc57600080fd5b600154600160a060020a03163314610f1e576040805160e560020a62461bcd0281526020600482015260196024820152600080516020611cf2833981519152604482015290519081900360640190fd5b60008054604080517f50da728a00000000000000000000000000000000000000000000000000000000815260048101889052600160a060020a038781166024830152868116604483015260648201869052915191909216926350da728a926084808201939182900301818387803b158015610f9857600080fd5b505af1158015610fac573d6000803e3d6000fd5b5050505050505050565b600154600160a060020a03163314611006576040805160e560020a62461bcd0281526020600482015260196024820152600080516020611cf2833981519152604482015290519081900360640190fd5b60008054604080517f579819d9000000000000000000000000000000000000000000000000000000008152600481018c9052602481018b905289151560448201528815156064820152871515608482015286151560a482015285151560c482015284151560e48201529051600160a060020a039092169263579819d9926101048084019382900301818387803b15801561109f57600080fd5b505af11580156110b3573d6000803e3d6000fd5b505050505050505050505050565b60025481565b600154600160a060020a03163314611117576040805160e560020a62461bcd0281526020600482015260196024820152600080516020611cf2833981519152604482015290519081900360640190fd5b60008054604080517f64c7e92d00000000000000000000000000000000000000000000000000000000815260048101869052600160a060020a038581166024830152915191909216926364c7e92d926044808201939182900301818387803b1580156108d157600080fd5b600054600160a060020a0316331461119957600080fd5b60008054604051600160a060020a03909116917ff8df31144d9c2f0f6b59d69b8b98abd5459d07f2742c4df920b25aae33c6482091a26000805473ffffffffffffffffffffffffffffffffffffffff19169055565b600154600160a060020a0316331461123e576040805160e560020a62461bcd0281526020600482015260196024820152600080516020611cf2833981519152604482015290519081900360640190fd5b60008054604080517f7ce866c900000000000000000000000000000000000000000000000000000000815260048101879052600160a060020a0386811660248301526044820186905291519190921692637ce866c9926064808201939182900301818387803b1580156107fc57600080fd5b600054600160a060020a031681565b600154600160a060020a0316331461130f576040805160e560020a62461bcd0281526020600482015260196024820152600080516020611cf2833981519152604482015290519081900360640190fd5b60008054604080517f9b58d77600000000000000000000000000000000000000000000000000000000815260048101889052600160a060020a0387811660248301528681166044830152858116606483015291519190921692639b58d776926084808201939182900301818387803b158015610f9857600080fd5b600154600160a060020a031633146113da576040805160e560020a62461bcd0281526020600482015260196024820152600080516020611cf2833981519152604482015290519081900360640190fd5b60008054604080517fae2278aa00000000000000000000000000000000000000000000000000000000815260048101869052602481018590529051600160a060020a039092169263ae2278aa9260448084019382900301818387803b1580156108d157600080fd5b600154600160a060020a03163314611492576040805160e560020a62461bcd0281526020600482015260196024820152600080516020611cf2833981519152604482015290519081900360640190fd5b60008054604080517faef797b1000000000000000000000000000000000000000000000000000000008152600481018590529051600160a060020a039092169263aef797b192602480840193829003018186803b1580156114f257600080fd5b505afa1580156109b2573d6000803e3d6000fd5b600054600160a060020a031615611567576040805160e560020a62461bcd02815260206004820152600860248201527f4e69636520747279000000000000000000000000000000000000000000000000604482015290519081900360640190fd5b600080543373ffffffffffffffffffffffffffffffffffffffff199182161790915560018054909116600160a060020a03939093169290921790915560025542600355565b600154600160a060020a031633146115fc576040805160e560020a62461bcd0281526020600482015260196024820152600080516020611cf2833981519152604482015290519081900360640190fd5b60008054604080517fc8527eeb000000000000000000000000000000000000000000000000000000008152600481018590529051600160a060020a039092169263c8527eeb9260248084019382900301818387803b15801561099e57600080fd5b600154600160a060020a031633146116ad576040805160e560020a62461bcd0281526020600482015260196024820152600080516020611cf2833981519152604482015290519081900360640190fd5b60008054604080517fcbfdaed5000000000000000000000000000000000000000000000000000000008152600481018590529051600160a060020a039092169263cbfdaed59260248084019382900301818387803b15801561099e57600080fd5b600154600160a060020a0316331461175e576040805160e560020a62461bcd0281526020600482015260196024820152600080516020611cf2833981519152604482015290519081900360640190fd5b60008054604080517fcda47ea300000000000000000000000000000000000000000000000000000000815260048101869052602481018590529051600160a060020a039092169263cda47ea39260448084019382900301818387803b1580156108d157600080fd5b600154600160a060020a03163314611816576040805160e560020a62461bcd0281526020600482015260196024820152600080516020611cf2833981519152604482015290519081900360640190fd5b60008054604080517fced21dec000000000000000000000000000000000000000000000000000000008152600481018590529051600160a060020a039092169263ced21dec9260248084019382900301818387803b15801561099e57600080fd5b600154600160a060020a031633146118c7576040805160e560020a62461bcd0281526020600482015260196024820152600080516020611cf2833981519152604482015290519081900360640190fd5b60008054604080517fcf5b08e4000000000000000000000000000000000000000000000000000000008152600481018c90528a1515602482015289151560448201528815156064820152871515608482015286151560a482015285151560c482015284151560e48201529051600160a060020a039092169263cf5b08e4926101048084019382900301818387803b15801561109f57600080fd5b600154600160a060020a031633146119b1576040805160e560020a62461bcd0281526020600482015260196024820152600080516020611cf2833981519152604482015290519081900360640190fd5b60008054604080517fe1243bf600000000000000000000000000000000000000000000000000000000815260048101869052602481018590529051600160a060020a039092169263e1243bf69260448084019382900301818387803b1580156108d157600080fd5b600054600160a060020a03163314611a3057600080fd5b611a3981611c74565b50565b600154600160a060020a03163314611a8c576040805160e560020a62461bcd0281526020600482015260196024820152600080516020611cf2833981519152604482015290519081900360640190fd5b60008054604080517ff72d607100000000000000000000000000000000000000000000000000000000815260048101869052600160a060020a0385811660248301529151919092169263f72d6071926044808201939182900301818387803b1580156108d157600080fd5b600154600160a060020a03163314611b47576040805160e560020a62461bcd0281526020600482015260196024820152600080516020611cf2833981519152604482015290519081900360640190fd5b60008054604080517ff9a0392200000000000000000000000000000000000000000000000000000000815260048101869052600160a060020a0385811660248301529151919092169263f9a03922926044808201939182900301818387803b1580156108d157600080fd5b600154600160a060020a03163314611c02576040805160e560020a62461bcd0281526020600482015260196024820152600080516020611cf2833981519152604482015290519081900360640190fd5b60008054604080517ff9cff22100000000000000000000000000000000000000000000000000000000815260048101879052600160a060020a038681166024830152604482018690529151919092169263f9cff221926064808201939182900301818387803b1580156107fc57600080fd5b600160a060020a0381161515611c8957600080fd5b60008054604051600160a060020a03808516939216917f8be0079c531659141344cd1fd0a4f28419497f9722a3daafe3b4186f6b6457e091a36000805473ffffffffffffffffffffffffffffffffffffffff1916600160a060020a039290921691909117905556fe4e6f74207573657220636f6e74726163742063726561746f7200000000000000a165627a7a723058201651435ad55c52d304eeec16b79d8ee9ee40e78f39e1e665a770daed0fc6d6990029",
  "source": "pragma solidity ^0.5.2;\n\nimport \"./User.sol\"; \nimport \"./Post.sol\"; \nimport \"./Forum.sol\"; \nimport \"./Comment.sol\";\nimport \"./CloneFactory.sol\";\nimport \"./Ownable.sol\";\n\ncontract Tartarus is Ownable, CloneFactory {\n    event ForumCreated (address forumAddress);  \n    event PostCreated (address indexed forumAddress, address indexed creatorAddress, address postAddress);\n    event CommentCreated (address indexed postAddress, address indexed creatorAddress, address indexed targetAddress, address commentAddress);\n    event ReportUser (address _username, bytes32 reason);\n    event ReportForum (address forumAddress, bytes32 reason);\n    event ReportPost (address indexed forumAddress, address postAddress, bytes32 reason);\n    event ReportComment (address indexed forumAddress, address commentAddress, bytes32 reason);\n\n    mapping (address => AdminPermissions) public admins;\n    mapping (address => bool) public banned;\n    mapping (bytes32 => address) public users;\n    mapping (bytes32 => address) public forums;\n\n    uint public transactionCost = 0;\n    uint public createUserCost = 0;\n\n    struct AdminPermissions {\n        bool ban;\n        bool transactionCost;\n        bool createUserCost;\n        bool editAdmin;\n        bool deleteComment;\n        bool deletePost;\n        bool deleteForum;\n    }\n\n    address cloneForum;\n    address clonePost;\n    address cloneComment;\n    address cloneUser;\n\n    constructor() public {\n        cloneForum = address(new Forum());\n        clonePost = address(new Post());\n        cloneComment = address(new Comment());\n        cloneUser = address(new User());\n    }\n\n    function createUser(bytes32 _username) external payable {\n        require((msg.value >= createUserCost), \"Insufficient Eth Sent\");\n        require(users[_username] == address(0), \"Username already exists\");\n        // require(validateUsername(_username), \"Invalid username\");\n        address clone = createClone(cloneUser);\n        User(clone).initialize(msg.sender, _username);\n        users[_username] = clone;\n    }\n\n    function createForum(bytes32 _forumName) external {\n        require(forums[_forumName] == address(0), \"Forum already exists\");\n        require(users[User(msg.sender).username()] != address(0), \"User not found\");\n        require(!banned[msg.sender], \"User banned\");\n        address clone = createClone(cloneForum);\n        Forum(clone).initialize(_forumName, msg.sender);\n        forums[_forumName] = clone;\n        emit ForumCreated(clone);\n    }   \n\n    function deleteForum(bytes32 _forumName, address payable _suicideAddress) external {\n        require(users[User(msg.sender).username()] != address(0), \"User not found\");\n        require(forums[_forumName] != address(0), \"Forum does not exist\");\n        require(admins[msg.sender].deleteForum, \"User does not have permission\");\n        Forum(forums[_forumName]).deleteForum(\n            admins[users[User(msg.sender).username()]].deleteForum,\n            msg.sender,\n            _suicideAddress);\n        banned[forums[_forumName]] = true;\n        delete forums[_forumName];\n    }   \n\n    function createPost(bytes32 _forumName, bytes32 _post) external {\n        require(users[User(msg.sender).username()] != address(0), \"User not found\");\n        require(!banned[msg.sender], \"User banned\");\n        require(forums[_forumName] != address(0), \"Forum does not exist\");\n        address newPostAddress = Forum(forums[_forumName]).createPost(_post, msg.sender, clonePost);\n        emit PostCreated(forums[_forumName], msg.sender, newPostAddress);\n    }\n\n    function deletePost(bytes32 _forumName, address _postAddress, address payable _suicideAddress) external {\n        require(users[User(msg.sender).username()] != address(0), \"User not found\");\n        require(forums[_forumName] != address(0), \"Forum does not exist\");\n        require(admins[msg.sender].deletePost, \"User does not have permission\");\n        Forum(forums[_forumName]).deletePost(\n            admins[users[User(msg.sender).username()]].deletePost,\n            msg.sender,\n            _postAddress, \n            _suicideAddress \n        );\n    }\n\n    function pinPost(bytes32 _forumName, address _postAddress) external {\n        require(users[User(msg.sender).username()] != address(0), \"User not found\");\n        require(!banned[msg.sender], \"User banned\");\n        require(forums[_forumName] != address(0), \"Forum does not exist\");\n        Forum(forums[_forumName]).pinPost(_postAddress, msg.sender);\n    }\n\n    function unpinPost(bytes32 _forumName, address _postAddress, uint _postIndex) external {\n        require(users[User(msg.sender).username()] != address(0), \"User not found\");\n        require(!banned[msg.sender], \"User banned\");\n        require(forums[_forumName] != address(0), \"Forum does not exist\");\n        Forum(forums[_forumName]).unpinPost(_postAddress, _postIndex, msg.sender);\n    }\n\n    function upvote(bytes32 _forumName, address _postAddress) external {\n        require(users[User(msg.sender).username()] != address(0), \"User not found\");\n        require(!banned[msg.sender], \"User banned\");\n        require(forums[_forumName] != address(0), \"Forum does not exist\");\n        Forum(forums[_forumName]).upvote(_postAddress, msg.sender);\n    }\n\n    function downvote(bytes32 _forumName, address _postAddress) external {\n        require(users[User(msg.sender).username()] != address(0), \"User not found\");\n        require(!banned[msg.sender], \"User banned\");\n        require(forums[_forumName] != address(0), \"Forum does not exist\");\n        Forum(forums[_forumName]).downvote(_postAddress, msg.sender);\n    }\n\n    function createComment(bytes32 _forumName, address _postAddress, address _targetAddress, bytes32 _comment) external {\n        require(users[User(msg.sender).username()] != address(0), \"User not found\");\n        require(!banned[msg.sender], \"User banned\");\n        require(forums[_forumName] != address(0), \"Forum does not exist\");\n        address newCommentAddress = Forum(forums[_forumName]).createComment(_postAddress, _targetAddress, msg.sender, _comment, cloneComment);\n        emit CommentCreated(_postAddress, msg.sender, _targetAddress, newCommentAddress);\n    }\n\n    function deleteComment(\n        bytes32 _forumName, address _postAddress, address _commentAddress, address payable _suicideAddress) external {\n        require(users[User(msg.sender).username()] != address(0), \"User not found\");\n        require(forums[_forumName] != address(0), \"Forum does not exist\");\n        require(admins[msg.sender].deleteComment, \"User does not have permission\");\n        Forum(forums[_forumName]).deleteComment(\n            admins[users[User(msg.sender).username()]].deleteComment,\n            msg.sender,\n            _postAddress, \n            _commentAddress, \n            _suicideAddress\n        );\n    }\n\n    function createModerator(\n        bytes32 _forumName,\n        bytes32 _username, \n        bool _ban, \n        bool _editRules, \n        bool _editDescription, \n        bool _editModerators, \n        bool _deletePost, \n        bool _deleteComment) external {\n        require(users[User(msg.sender).username()] != address(0), \"User not found\");\n        require(forums[_forumName] != address(0), \"Forum does not exist\");\n        Forum(forums[_forumName]).createModerator(\n        users[_username],\n        msg.sender,\n        _ban, \n        _editRules,\n        _editDescription,\n        _editModerators,\n        _deletePost,\n        _deleteComment);\n    }\n\n    function removeModerator(bytes32 _forumName, bytes32 _username) external {\n        require(users[User(msg.sender).username()] != address(0), \"User not found\");\n        require(users[_username] != address(0), \"Username does not exist\");\n        require(forums[_forumName] != address(0), \"Forum does not exist\");\n        Forum(forums[_forumName]).removeModerator(users[_username], msg.sender);\n    }\n\n    function updateForumRules(bytes32 _forumName, bytes32 _rules) external onlyOwner {\n        require(users[User(msg.sender).username()] != address(0), \"User not found\");\n        require(forums[_forumName] != address(0), \"Forum does not exist\");\n        Forum(forums[_forumName]).updateRules(_rules, msg.sender);\n    }\n\n    function updateForumDescription(bytes32 _forumName, bytes32 _description) external onlyOwner {\n        require(users[User(msg.sender).username()] != address(0), \"User not found\");\n        require(forums[_forumName] != address(0), \"Forum does not exist\");\n        Forum(forums[_forumName]).updateDescription(_description, msg.sender);\n    }\n\n    function banUserForum(bytes32 _forumName, bytes32 _username) external {\n        require(users[User(msg.sender).username()] != address(0), \"User not found\");\n        require(users[_username] != address(0), \"Username does not exist\");\n        require(forums[_forumName] != address(0), \"Forum does not exist\");\n        Forum(forums[_forumName]).banUser(users[_username], msg.sender);\n    }\n\n    function unbanUserForum(bytes32 _forumName, bytes32 _username) external {\n        require(users[User(msg.sender).username()] != address(0), \"User not found\");\n        require(users[_username] != address(0), \"Username does not exist\");\n        require(forums[_forumName] != address(0), \"Forum does not exist\");\n        Forum(forums[_forumName]).unbanUser(users[_username], msg.sender);\n    }\n\n    function reportUser(bytes32 _username, bytes32 _reason) external {\n        require(users[User(msg.sender).username()] != address(0), \"User not found\");\n        require(users[_username] != address(0), \"User not found\");\n        require(!banned[msg.sender], \"User banned\");\n        emit ReportUser(users[_username], _reason);\n    }\n\n    function reportForum(bytes32 _forumName, bytes32 _reason) external {\n        require(users[User(msg.sender).username()] != address(0), \"User not found\");\n        require(forums[_forumName] != address(0), \"Forum does not exist\");\n        require(!banned[msg.sender], \"User banned\");\n        emit ReportForum(forums[_forumName], _reason);\n    }\n\n    function reportPost(bytes32 _forumName, address _postAddress, bytes32 _reason) external {\n        require(users[User(msg.sender).username()] != address(0), \"User not found\");\n        require(forums[_forumName] != address(0), \"Forum does not exist\");\n        require(!banned[msg.sender], \"User banned\");\n        emit ReportPost(forums[_forumName], _postAddress, _reason);\n    }\n\n    function reportComment(bytes32 _forumName, address _commentAddress, bytes32 _reason) external {\n        require(users[User(msg.sender).username()] != address(0), \"User not found\");\n        require(forums[_forumName] != address(0), \"Forum does not exist\");\n        require(!banned[msg.sender], \"User banned\");\n        emit ReportComment(forums[_forumName], _commentAddress, _reason);\n    }\n\n    function createAdmin(\n        bytes32 _username, \n        bool _ban,\n        bool _transactionCost,\n        bool _createUserCost,\n        bool _editAdmin,\n        bool _deletePost,\n        bool _deleteComment,\n        bool _deleteForum\n        ) public onlyOwner {\n        require(users[User(msg.sender).username()] != address(0), \"User not found\");\n        require(users[_username] != address(0), \"User account not found\");\n        require(admins[msg.sender].editAdmin, \"User does not have permission\");\n        // require(admins[users[_username]], \"Target user is not admin\"); ???\n        AdminPermissions memory newAdminPermissions;\n        newAdminPermissions.ban = _ban;\n        newAdminPermissions.transactionCost = _transactionCost;\n        newAdminPermissions.createUserCost = _createUserCost;\n        newAdminPermissions.editAdmin = _editAdmin;\n        newAdminPermissions.deleteComment = _deleteComment;\n        newAdminPermissions.deletePost = _deletePost;\n        newAdminPermissions.deleteForum = _deleteForum;\n        admins[users[_username]] = newAdminPermissions;\n    }  \n\n    function removeAdmin(bytes32 _username) external {\n        require(users[User(msg.sender).username()] != address(0), \"User not found\");\n        require (msg.sender == owner || admins[msg.sender].editAdmin, \"User does not have permission\");\n        // require(admins[users[_username]], \"Target user is not admin\"); ???\n        delete admins[users[_username]];\n    }\n\n    function banUserTartarus(bytes32 _username) external view {\n        require(users[User(msg.sender).username()] != address(0), \"User not found\");\n        require(users[_username] != address(0), \"Username does not exist\");\n        require(admins[msg.sender].ban, \"User does not have permission\");\n        require(!banned[users[_username]], \"User is already banned\");\n        banned[users[_username]] == true;\n    }\n\n    function unbanUserTartarus(bytes32 _username) external {\n        require(users[User(msg.sender).username()] != address(0), \"User not found\");\n        require(users[_username] != address(0), \"Username does not exist\");\n        require(admins[msg.sender].ban, \"User does not have permission\");\n        require(!banned[users[_username]], \"User is not banned\");\n        delete banned[users[_username]];\n    }\n\n    function setCreateUserCost(uint _newCost) external {\n        require(users[User(msg.sender).username()] != address(0), \"User not found\");\n        require(admins[users[User(msg.sender).username()]].createUserCost, \"User does not have permission\");\n        createUserCost = _newCost;\n    }\n\n    function setTransactionCost(uint _newCost) external {\n        require(users[User(msg.sender).username()] != address(0), \"User not found\");\n        require(admins[users[User(msg.sender).username()]].transactionCost, \"User does not have permission\");\n        createUserCost = _newCost;\n    }\n}",
  "sourcePath": "/Users/jarenlynch/Ethereum/Tartarus/contracts/Tartarus.sol",
  "compiler": {
    "name": "solc",
    "version": "0.5.2+commit.1df8f40c.Emscripten.clang"
  },
  "schemaVersion": "3.0.6",
  "updatedAt": "2019-04-10T08:06:45.747Z",
  "devdoc": {
    "methods": {
      "renounceOwnership()": {
        "details": "Allows the current owner to relinquish control of the contract."
      },
      "transferOwnership(address)": {
        "details": "Allows the current owner to transfer control of the contract to a newOwner.",
        "params": {
          "_newOwner": "The address to transfer ownership to."
        }
      }
    }
  },
  "userdoc": {
    "methods": {
      "renounceOwnership()": {
        "notice": "Renouncing to ownership will leave the contract without an owner. It will not be possible to call the functions with the `onlyOwner` modifier anymore."
      }
    }
  }
}