{
  "contractName": "User",
  "abi": [
    {
      "constant": false,
      "inputs": [],
      "name": "renounceOwnership",
      "outputs": [],
      "payable": false,
      "stateMutability": "nonpayable",
      "type": "function"
    },
    {
      "constant": true,
      "inputs": [],
      "name": "owner",
      "outputs": [
        {
          "name": "",
          "type": "address"
        }
      ],
      "payable": false,
      "stateMutability": "view",
      "type": "function"
    },
    {
      "constant": false,
      "inputs": [
        {
          "name": "_newOwner",
          "type": "address"
        }
      ],
      "name": "transferOwnership",
      "outputs": [],
      "payable": false,
      "stateMutability": "nonpayable",
      "type": "function"
    },
    {
      "anonymous": false,
      "inputs": [
        {
          "indexed": false,
          "name": "postAddress",
          "type": "address"
        }
      ],
      "name": "PostCreated",
      "type": "event"
    },
    {
      "anonymous": false,
      "inputs": [
        {
          "indexed": false,
          "name": "commentAddress",
          "type": "address"
        }
      ],
      "name": "CommentCreated",
      "type": "event"
    },
    {
      "anonymous": false,
      "inputs": [
        {
          "indexed": false,
          "name": "targetAddress",
          "type": "address"
        },
        {
          "indexed": false,
          "name": "messageText",
          "type": "string"
        }
      ],
      "name": "MessageSent",
      "type": "event"
    },
    {
      "anonymous": false,
      "inputs": [
        {
          "indexed": false,
          "name": "senderAddress",
          "type": "address"
        },
        {
          "indexed": false,
          "name": "messageText",
          "type": "string"
        }
      ],
      "name": "MessageReceived",
      "type": "event"
    },
    {
      "anonymous": false,
      "inputs": [
        {
          "indexed": true,
          "name": "previousOwner",
          "type": "address"
        }
      ],
      "name": "OwnershipRenounced",
      "type": "event"
    },
    {
      "anonymous": false,
      "inputs": [
        {
          "indexed": true,
          "name": "previousOwner",
          "type": "address"
        },
        {
          "indexed": true,
          "name": "newOwner",
          "type": "address"
        }
      ],
      "name": "OwnershipTransferred",
      "type": "event"
    },
    {
      "constant": false,
      "inputs": [
        {
          "name": "_creator",
          "type": "address"
        }
      ],
      "name": "initialize",
      "outputs": [],
      "payable": false,
      "stateMutability": "nonpayable",
      "type": "function"
    },
    {
      "constant": false,
      "inputs": [
        {
          "name": "_postAddress",
          "type": "address"
        }
      ],
      "name": "notifyCreatePost",
      "outputs": [],
      "payable": false,
      "stateMutability": "nonpayable",
      "type": "function"
    },
    {
      "constant": false,
      "inputs": [
        {
          "name": "_commentAddress",
          "type": "address"
        }
      ],
      "name": "notifyCreateComment",
      "outputs": [],
      "payable": false,
      "stateMutability": "nonpayable",
      "type": "function"
    }
  ],
  "bytecode": "0x608060405260008054600160a060020a031916331790556103f0806100256000396000f3006080604052600436106100775763ffffffff7c01000000000000000000000000000000000000000000000000000000006000350416636cd59eac811461007c578063715018a61461009f5780638da5cb5b146100b4578063c4d66de8146100e5578063f2fde38b14610106578063fc3e917814610127575b600080fd5b34801561008857600080fd5b5061009d600160a060020a0360043516610148565b005b3480156100ab57600080fd5b5061009d61019e565b3480156100c057600080fd5b506100c961020a565b60408051600160a060020a039092168252519081900360200190f35b3480156100f157600080fd5b5061009d600160a060020a0360043516610219565b34801561011257600080fd5b5061009d600160a060020a03600435166102ce565b34801561013357600080fd5b5061009d600160a060020a03600435166102f1565b600054600160a060020a0316331461015f57600080fd5b60408051600160a060020a038316815290517fb28b103e6296194f6aecace93990102a06a5ae0720dc23aaf51589d563d52dde9181900360200190a150565b600054600160a060020a031633146101b557600080fd5b60008054604051600160a060020a03909116917ff8df31144d9c2f0f6b59d69b8b98abd5459d07f2742c4df920b25aae33c6482091a26000805473ffffffffffffffffffffffffffffffffffffffff19169055565b600054600160a060020a031681565b600054600160a060020a03161561029157604080517f08c379a000000000000000000000000000000000000000000000000000000000815260206004820152600860248201527f4e69636520747279000000000000000000000000000000000000000000000000604482015290519081900360640190fd5b600080543373ffffffffffffffffffffffffffffffffffffffff199182161790915560018054909116600160a060020a0392909216919091179055565b600054600160a060020a031633146102e557600080fd5b6102ee81610347565b50565b600054600160a060020a0316331461030857600080fd5b60408051600160a060020a038316815290517f2def86c85ed65bb7798ce8a3d3d1dc8553396bbb5d9f9e3f792747cd4e6c4b7a9181900360200190a150565b600160a060020a038116151561035c57600080fd5b60008054604051600160a060020a03808516939216917f8be0079c531659141344cd1fd0a4f28419497f9722a3daafe3b4186f6b6457e091a36000805473ffffffffffffffffffffffffffffffffffffffff1916600160a060020a03929092169190911790555600a165627a7a72305820e987904e7b827f9add379263136773a54e937bc18c41a48f5418ce0cdb35be690029",
  "source": "pragma solidity ^0.4.24;\n\nimport \"./Ownable.sol\";\n\ncontract User is Ownable {\n    event PostCreated (address postAddress);\n    event CommentCreated (address commentAddress);\n    event MessageSent (address targetAddress, string messageText);\n    event MessageReceived (address senderAddress, string messageText);\n\n    address creator;\n\n    function initialize(address _creator) public {\n        require(owner == address(0), \"Nice try\");\n        owner = msg.sender;\n        creator = _creator;\n    }\n\n    function notifyCreatePost(address _postAddress) public onlyOwner {\n        emit PostCreated(_postAddress);\n    }\n\n    function notifyCreateComment(address _commentAddress) public onlyOwner {\n        emit CommentCreated(_commentAddress);\n    }\n}",
  "sourcePath": "/Users/jarenlynch/Ethereum/Tartarus/contracts/User.sol",
  "compiler": {
    "name": "solc",
    "version": "0.4.24+commit.e67f0147.Emscripten.clang"
  },
  "schemaVersion": "2.0.1",
  "updatedAt": "2019-02-24T22:32:21.262Z"
}