{
  "contractName": "User",
  "abi": [
    {
      "constant": false,
      "inputs": [],
      "name": "renounceOwnership",
      "outputs": [],
      "payable": false,
      "stateMutability": "nonpayable",
      "type": "function"
    },
    {
      "constant": true,
      "inputs": [],
      "name": "owner",
      "outputs": [
        {
          "name": "",
          "type": "address"
        }
      ],
      "payable": false,
      "stateMutability": "view",
      "type": "function"
    },
    {
      "constant": false,
      "inputs": [
        {
          "name": "_newOwner",
          "type": "address"
        }
      ],
      "name": "transferOwnership",
      "outputs": [],
      "payable": false,
      "stateMutability": "nonpayable",
      "type": "function"
    },
    {
      "anonymous": false,
      "inputs": [
        {
          "indexed": false,
          "name": "forumAddress",
          "type": "address"
        }
      ],
      "name": "SubscribeForum",
      "type": "event"
    },
    {
      "anonymous": false,
      "inputs": [
        {
          "indexed": false,
          "name": "forumAddress",
          "type": "address"
        }
      ],
      "name": "UnsubscribeForum",
      "type": "event"
    },
    {
      "anonymous": false,
      "inputs": [
        {
          "indexed": false,
          "name": "postAddress",
          "type": "address"
        }
      ],
      "name": "PostCreated",
      "type": "event"
    },
    {
      "anonymous": false,
      "inputs": [
        {
          "indexed": false,
          "name": "commentAddress",
          "type": "address"
        }
      ],
      "name": "CommentCreated",
      "type": "event"
    },
    {
      "anonymous": false,
      "inputs": [
        {
          "indexed": false,
          "name": "commentAddress",
          "type": "address"
        }
      ],
      "name": "CommentReceived",
      "type": "event"
    },
    {
      "anonymous": false,
      "inputs": [
        {
          "indexed": false,
          "name": "targetAddress",
          "type": "address"
        },
        {
          "indexed": false,
          "name": "messageText",
          "type": "string"
        }
      ],
      "name": "MessageSent",
      "type": "event"
    },
    {
      "anonymous": false,
      "inputs": [
        {
          "indexed": false,
          "name": "senderAddress",
          "type": "address"
        },
        {
          "indexed": false,
          "name": "messageText",
          "type": "string"
        }
      ],
      "name": "MessageReceived",
      "type": "event"
    },
    {
      "anonymous": false,
      "inputs": [
        {
          "indexed": true,
          "name": "previousOwner",
          "type": "address"
        }
      ],
      "name": "OwnershipRenounced",
      "type": "event"
    },
    {
      "anonymous": false,
      "inputs": [
        {
          "indexed": true,
          "name": "previousOwner",
          "type": "address"
        },
        {
          "indexed": true,
          "name": "newOwner",
          "type": "address"
        }
      ],
      "name": "OwnershipTransferred",
      "type": "event"
    },
    {
      "constant": false,
      "inputs": [
        {
          "name": "_creator",
          "type": "address"
        }
      ],
      "name": "initialize",
      "outputs": [],
      "payable": false,
      "stateMutability": "nonpayable",
      "type": "function"
    },
    {
      "constant": false,
      "inputs": [
        {
          "name": "_forumAddress",
          "type": "address"
        }
      ],
      "name": "subscribe",
      "outputs": [],
      "payable": false,
      "stateMutability": "nonpayable",
      "type": "function"
    },
    {
      "constant": false,
      "inputs": [
        {
          "name": "_forumAddress",
          "type": "address"
        }
      ],
      "name": "unsubscribe",
      "outputs": [],
      "payable": false,
      "stateMutability": "nonpayable",
      "type": "function"
    },
    {
      "constant": false,
      "inputs": [
        {
          "name": "_postAddress",
          "type": "address"
        }
      ],
      "name": "notifyCreatePost",
      "outputs": [],
      "payable": false,
      "stateMutability": "nonpayable",
      "type": "function"
    },
    {
      "constant": false,
      "inputs": [
        {
          "name": "_commentAddress",
          "type": "address"
        }
      ],
      "name": "notifyCreateComment",
      "outputs": [],
      "payable": false,
      "stateMutability": "nonpayable",
      "type": "function"
    },
    {
      "constant": false,
      "inputs": [
        {
          "name": "_commentAddress",
          "type": "address"
        }
      ],
      "name": "notifyCommentReceived",
      "outputs": [],
      "payable": false,
      "stateMutability": "nonpayable",
      "type": "function"
    }
  ],
  "bytecode": "0x608060405260008054600160a060020a031916331790556106a5806100256000396000f3006080604052600436106100985763ffffffff7c010000000000000000000000000000000000000000000000000000000060003504166341a7726a811461009d5780636cd59eac146100c0578063715018a6146100e15780637262561c146100f65780638da5cb5b146101175780639784750914610148578063c4d66de814610169578063f2fde38b1461018a578063fc3e9178146101ab575b600080fd5b3480156100a957600080fd5b506100be600160a060020a03600435166101cc565b005b3480156100cc57600080fd5b506100be600160a060020a03600435166102af565b3480156100ed57600080fd5b506100be610305565b34801561010257600080fd5b506100be600160a060020a0360043516610371565b34801561012357600080fd5b5061012c610469565b60408051600160a060020a039092168252519081900360200190f35b34801561015457600080fd5b506100be600160a060020a0360043516610478565b34801561017557600080fd5b506100be600160a060020a03600435166104ce565b34801561019657600080fd5b506100be600160a060020a0360043516610583565b3480156101b757600080fd5b506100be600160a060020a03600435166105a6565b600160a060020a03811660009081526002602052604090205460ff161561025457604080517f08c379a000000000000000000000000000000000000000000000000000000000815260206004820152601260248201527f416c726561647920737562736372696265640000000000000000000000000000604482015290519081900360640190fd5b600160a060020a038116600081815260026020908152604091829020805460ff19166001179055815192835290517f4497bdac205473d65137b6a0ea956ec2b8f005bde2a77ddb5cdb3283919c20a09281900390910190a150565b600054600160a060020a031633146102c657600080fd5b60408051600160a060020a038316815290517fb28b103e6296194f6aecace93990102a06a5ae0720dc23aaf51589d563d52dde9181900360200190a150565b600054600160a060020a0316331461031c57600080fd5b60008054604051600160a060020a03909116917ff8df31144d9c2f0f6b59d69b8b98abd5459d07f2742c4df920b25aae33c6482091a26000805473ffffffffffffffffffffffffffffffffffffffff19169055565b600054600160a060020a0316331461038857600080fd5b600160a060020a03811660009081526002602052604090205460ff16151561041157604080517f08c379a000000000000000000000000000000000000000000000000000000000815260206004820152600e60248201527f4e6f742073756273637269626564000000000000000000000000000000000000604482015290519081900360640190fd5b600160a060020a038116600081815260026020908152604091829020805460ff19169055815192835290517f6974a528351db97fa161d1425d47aabbc882514858e5570e2938ccc1ad31094d9281900390910190a150565b600054600160a060020a031681565b600054600160a060020a0316331461048f57600080fd5b60408051600160a060020a038316815290517f0ddae2e1252f5f2af6529a562a69875f2d6619af306381f45a3dd7eaf2aa64a69181900360200190a150565b600054600160a060020a03161561054657604080517f08c379a000000000000000000000000000000000000000000000000000000000815260206004820152600860248201527f4e69636520747279000000000000000000000000000000000000000000000000604482015290519081900360640190fd5b600080543373ffffffffffffffffffffffffffffffffffffffff199182161790915560018054909116600160a060020a0392909216919091179055565b600054600160a060020a0316331461059a57600080fd5b6105a3816105fc565b50565b600054600160a060020a031633146105bd57600080fd5b60408051600160a060020a038316815290517f2def86c85ed65bb7798ce8a3d3d1dc8553396bbb5d9f9e3f792747cd4e6c4b7a9181900360200190a150565b600160a060020a038116151561061157600080fd5b60008054604051600160a060020a03808516939216917f8be0079c531659141344cd1fd0a4f28419497f9722a3daafe3b4186f6b6457e091a36000805473ffffffffffffffffffffffffffffffffffffffff1916600160a060020a03929092169190911790555600a165627a7a72305820d5dcb0ea7822d365914de88c44ef6cb4ff19de4e877fbd46bd6459e91dedd55d0029",
  "source": "pragma solidity ^0.4.24;\n\nimport \"./Ownable.sol\";\n\ncontract User is Ownable {\n    event SubscribeForum (address forumAddress); \n    event UnsubscribeForum (address forumAddress); \n    event PostCreated (address postAddress);\n    event CommentCreated (address commentAddress);\n    event CommentReceived (address commentAddress);\n    event MessageSent (address targetAddress, string messageText);\n    event MessageReceived (address senderAddress, string messageText);\n\n    address creator;\n    mapping(address => bool) private forumSubscriptions;\n\n    function initialize(address _creator) public {\n        require(owner == address(0), \"Nice try\");\n        owner = msg.sender;\n        creator = _creator;\n    }\n\n    //needs \"onlyowner\" equivalent, perhaps only desired forumaddress can call. \n    function subscribe(address _forumAddress) public {\n        // require(msg.sender == creator, \"Not authorized\");\n        require(!forumSubscriptions[_forumAddress], \"Already subscribed\");\n        forumSubscriptions[_forumAddress] = true;\n        emit SubscribeForum(_forumAddress);\n    }\n\n    function unsubscribe(address _forumAddress) public onlyOwner {\n        // require(msg.sender == creator, \"Not authorized\");\n        require(forumSubscriptions[_forumAddress], \"Not subscribed\");\n        delete forumSubscriptions[_forumAddress];\n        emit UnsubscribeForum(_forumAddress);\n    }\n\n    function notifyCreatePost(address _postAddress) public onlyOwner {\n        emit PostCreated(_postAddress);\n    }\n\n    function notifyCreateComment(address _commentAddress) public onlyOwner {\n        emit CommentCreated(_commentAddress);\n    }\n\n    function notifyCommentReceived(address _commentAddress) public onlyOwner {\n        emit CommentReceived(_commentAddress);\n    }\n}",
  "sourcePath": "/Users/jarenlynch/Ethereum/Tartarus/contracts/User.sol",
  "compiler": {
    "name": "solc",
    "version": "0.4.24+commit.e67f0147.Emscripten.clang"
  },
  "schemaVersion": "2.0.1",
  "updatedAt": "2018-12-15T22:22:58.336Z"
}