{
  "contractName": "User",
  "abi": [
    {
      "constant": true,
      "inputs": [],
      "name": "creator",
      "outputs": [
        {
          "name": "",
          "type": "address"
        }
      ],
      "payable": false,
      "stateMutability": "view",
      "type": "function"
    },
    {
      "constant": true,
      "inputs": [],
      "name": "time",
      "outputs": [
        {
          "name": "",
          "type": "uint256"
        }
      ],
      "payable": false,
      "stateMutability": "view",
      "type": "function"
    },
    {
      "constant": true,
      "inputs": [],
      "name": "username",
      "outputs": [
        {
          "name": "",
          "type": "bytes32"
        }
      ],
      "payable": false,
      "stateMutability": "view",
      "type": "function"
    },
    {
      "constant": false,
      "inputs": [],
      "name": "renounceOwnership",
      "outputs": [],
      "payable": false,
      "stateMutability": "nonpayable",
      "type": "function"
    },
    {
      "constant": true,
      "inputs": [],
      "name": "owner",
      "outputs": [
        {
          "name": "",
          "type": "address"
        }
      ],
      "payable": false,
      "stateMutability": "view",
      "type": "function"
    },
    {
      "constant": false,
      "inputs": [
        {
          "name": "_newOwner",
          "type": "address"
        }
      ],
      "name": "transferOwnership",
      "outputs": [],
      "payable": false,
      "stateMutability": "nonpayable",
      "type": "function"
    },
    {
      "anonymous": false,
      "inputs": [
        {
          "indexed": true,
          "name": "previousOwner",
          "type": "address"
        }
      ],
      "name": "OwnershipRenounced",
      "type": "event"
    },
    {
      "anonymous": false,
      "inputs": [
        {
          "indexed": true,
          "name": "previousOwner",
          "type": "address"
        },
        {
          "indexed": true,
          "name": "newOwner",
          "type": "address"
        }
      ],
      "name": "OwnershipTransferred",
      "type": "event"
    },
    {
      "constant": false,
      "inputs": [
        {
          "name": "_owner",
          "type": "address"
        },
        {
          "name": "_creator",
          "type": "address"
        },
        {
          "name": "_username",
          "type": "bytes32"
        }
      ],
      "name": "initialize",
      "outputs": [],
      "payable": false,
      "stateMutability": "nonpayable",
      "type": "function"
    },
    {
      "constant": false,
      "inputs": [
        {
          "name": "_forumName",
          "type": "bytes32"
        }
      ],
      "name": "createForum",
      "outputs": [],
      "payable": false,
      "stateMutability": "nonpayable",
      "type": "function"
    },
    {
      "constant": false,
      "inputs": [
        {
          "name": "_forumName",
          "type": "bytes32"
        },
        {
          "name": "_suicideAddress",
          "type": "address"
        }
      ],
      "name": "deleteForum",
      "outputs": [],
      "payable": false,
      "stateMutability": "nonpayable",
      "type": "function"
    },
    {
      "constant": false,
      "inputs": [
        {
          "name": "_forumName",
          "type": "bytes32"
        },
        {
          "name": "_post",
          "type": "bytes32"
        }
      ],
      "name": "createPost",
      "outputs": [],
      "payable": false,
      "stateMutability": "nonpayable",
      "type": "function"
    },
    {
      "constant": false,
      "inputs": [
        {
          "name": "_forumName",
          "type": "bytes32"
        },
        {
          "name": "_postAddress",
          "type": "address"
        },
        {
          "name": "_suicideAddress",
          "type": "address"
        }
      ],
      "name": "deletePost",
      "outputs": [],
      "payable": false,
      "stateMutability": "nonpayable",
      "type": "function"
    },
    {
      "constant": false,
      "inputs": [
        {
          "name": "_forumName",
          "type": "bytes32"
        },
        {
          "name": "_postAddress",
          "type": "address"
        },
        {
          "name": "_targetAddress",
          "type": "address"
        },
        {
          "name": "_comment",
          "type": "bytes32"
        }
      ],
      "name": "createComment",
      "outputs": [],
      "payable": false,
      "stateMutability": "nonpayable",
      "type": "function"
    },
    {
      "constant": false,
      "inputs": [
        {
          "name": "_forumName",
          "type": "bytes32"
        },
        {
          "name": "_postAddress",
          "type": "address"
        },
        {
          "name": "_commentAddress",
          "type": "address"
        },
        {
          "name": "_suicideAddress",
          "type": "address"
        }
      ],
      "name": "deleteComment",
      "outputs": [],
      "payable": false,
      "stateMutability": "nonpayable",
      "type": "function"
    },
    {
      "constant": false,
      "inputs": [
        {
          "name": "_forumName",
          "type": "bytes32"
        },
        {
          "name": "_postAddress",
          "type": "address"
        }
      ],
      "name": "upvote",
      "outputs": [],
      "payable": false,
      "stateMutability": "nonpayable",
      "type": "function"
    },
    {
      "constant": false,
      "inputs": [
        {
          "name": "_forumName",
          "type": "bytes32"
        },
        {
          "name": "_postAddress",
          "type": "address"
        }
      ],
      "name": "downvote",
      "outputs": [],
      "payable": false,
      "stateMutability": "nonpayable",
      "type": "function"
    },
    {
      "constant": false,
      "inputs": [
        {
          "name": "_forumName",
          "type": "bytes32"
        },
        {
          "name": "_postAddress",
          "type": "address"
        }
      ],
      "name": "pinPost",
      "outputs": [],
      "payable": false,
      "stateMutability": "nonpayable",
      "type": "function"
    },
    {
      "constant": false,
      "inputs": [
        {
          "name": "_forumName",
          "type": "bytes32"
        },
        {
          "name": "_postAddress",
          "type": "address"
        },
        {
          "name": "_postIndex",
          "type": "uint256"
        }
      ],
      "name": "unpinPost",
      "outputs": [],
      "payable": false,
      "stateMutability": "nonpayable",
      "type": "function"
    },
    {
      "constant": false,
      "inputs": [
        {
          "name": "_username",
          "type": "bytes32"
        },
        {
          "name": "_reason",
          "type": "bytes32"
        }
      ],
      "name": "reportUser",
      "outputs": [],
      "payable": false,
      "stateMutability": "nonpayable",
      "type": "function"
    },
    {
      "constant": false,
      "inputs": [
        {
          "name": "_forumName",
          "type": "bytes32"
        },
        {
          "name": "_reason",
          "type": "bytes32"
        }
      ],
      "name": "reportForum",
      "outputs": [],
      "payable": false,
      "stateMutability": "nonpayable",
      "type": "function"
    },
    {
      "constant": false,
      "inputs": [
        {
          "name": "_forumName",
          "type": "bytes32"
        },
        {
          "name": "_postAddress",
          "type": "address"
        },
        {
          "name": "_reason",
          "type": "bytes32"
        }
      ],
      "name": "reportPost",
      "outputs": [],
      "payable": false,
      "stateMutability": "nonpayable",
      "type": "function"
    },
    {
      "constant": false,
      "inputs": [
        {
          "name": "_forumName",
          "type": "bytes32"
        },
        {
          "name": "_commentAddress",
          "type": "address"
        },
        {
          "name": "_reason",
          "type": "bytes32"
        }
      ],
      "name": "reportComment",
      "outputs": [],
      "payable": false,
      "stateMutability": "nonpayable",
      "type": "function"
    },
    {
      "constant": false,
      "inputs": [
        {
          "name": "_forumName",
          "type": "bytes32"
        },
        {
          "name": "_username",
          "type": "bytes32"
        },
        {
          "name": "_ban",
          "type": "bool"
        },
        {
          "name": "_editRules",
          "type": "bool"
        },
        {
          "name": "_editDescription",
          "type": "bool"
        },
        {
          "name": "_editModerators",
          "type": "bool"
        },
        {
          "name": "_deletePost",
          "type": "bool"
        },
        {
          "name": "_deleteComment",
          "type": "bool"
        }
      ],
      "name": "createModerator",
      "outputs": [],
      "payable": false,
      "stateMutability": "nonpayable",
      "type": "function"
    },
    {
      "constant": false,
      "inputs": [
        {
          "name": "_forumName",
          "type": "bytes32"
        },
        {
          "name": "_username",
          "type": "bytes32"
        }
      ],
      "name": "removeModerator",
      "outputs": [],
      "payable": false,
      "stateMutability": "nonpayable",
      "type": "function"
    },
    {
      "constant": false,
      "inputs": [
        {
          "name": "_forumName",
          "type": "bytes32"
        },
        {
          "name": "_rules",
          "type": "bytes32"
        }
      ],
      "name": "updateForumRules",
      "outputs": [],
      "payable": false,
      "stateMutability": "nonpayable",
      "type": "function"
    },
    {
      "constant": false,
      "inputs": [
        {
          "name": "_forumName",
          "type": "bytes32"
        },
        {
          "name": "_description",
          "type": "bytes32"
        }
      ],
      "name": "updateForumDescription",
      "outputs": [],
      "payable": false,
      "stateMutability": "nonpayable",
      "type": "function"
    },
    {
      "constant": false,
      "inputs": [
        {
          "name": "_forumName",
          "type": "bytes32"
        },
        {
          "name": "_userName",
          "type": "bytes32"
        }
      ],
      "name": "banUserForum",
      "outputs": [],
      "payable": false,
      "stateMutability": "nonpayable",
      "type": "function"
    },
    {
      "constant": false,
      "inputs": [
        {
          "name": "_forumName",
          "type": "bytes32"
        },
        {
          "name": "_userName",
          "type": "bytes32"
        }
      ],
      "name": "unbanUserForum",
      "outputs": [],
      "payable": false,
      "stateMutability": "nonpayable",
      "type": "function"
    },
    {
      "constant": false,
      "inputs": [
        {
          "name": "_username",
          "type": "bytes32"
        },
        {
          "name": "_ban",
          "type": "bool"
        },
        {
          "name": "_transactionCost",
          "type": "bool"
        },
        {
          "name": "_createUserCost",
          "type": "bool"
        },
        {
          "name": "_editAdmin",
          "type": "bool"
        },
        {
          "name": "_deletePost",
          "type": "bool"
        },
        {
          "name": "_deleteComment",
          "type": "bool"
        },
        {
          "name": "_deleteForum",
          "type": "bool"
        }
      ],
      "name": "createAdmin",
      "outputs": [],
      "payable": false,
      "stateMutability": "nonpayable",
      "type": "function"
    },
    {
      "constant": false,
      "inputs": [
        {
          "name": "_username",
          "type": "bytes32"
        }
      ],
      "name": "removeAdmin",
      "outputs": [],
      "payable": false,
      "stateMutability": "nonpayable",
      "type": "function"
    },
    {
      "constant": true,
      "inputs": [
        {
          "name": "_username",
          "type": "bytes32"
        }
      ],
      "name": "banUserTartarus",
      "outputs": [],
      "payable": false,
      "stateMutability": "view",
      "type": "function"
    },
    {
      "constant": false,
      "inputs": [
        {
          "name": "_username",
          "type": "bytes32"
        }
      ],
      "name": "unbanUserTartarus",
      "outputs": [],
      "payable": false,
      "stateMutability": "nonpayable",
      "type": "function"
    },
    {
      "constant": false,
      "inputs": [
        {
          "name": "_newCost",
          "type": "uint256"
        }
      ],
      "name": "setCreateUserCost",
      "outputs": [],
      "payable": false,
      "stateMutability": "nonpayable",
      "type": "function"
    },
    {
      "constant": false,
      "inputs": [
        {
          "name": "_newCost",
          "type": "uint256"
        }
      ],
      "name": "setTransactionCost",
      "outputs": [],
      "payable": false,
      "stateMutability": "nonpayable",
      "type": "function"
    }
  ],
  "bytecode": "0x608060405260008054600160a060020a03191633179055611d48806100256000396000f3fe608060405234801561001057600080fd5b5060043610610218576000357c01000000000000000000000000000000000000000000000000000000009004806364c7e92d11610137578063cbfdaed5116100ca578063e1243bf611610099578063e1243bf614610662578063f2fde38b14610685578063f72d6071146106ab578063f9a03922146106d7578063f9cff2211461070357610218565b8063cbfdaed5146105af578063cda47ea3146105cc578063ced21dec146105ef578063cf5b08e41461060c57610218565b80639b58d776116101065780639b58d77614610514578063ae2278aa14610552578063aef797b114610575578063c8527eeb1461059257610218565b806364c7e92d146104a6578063715018a6146104d25780637ce866c9146104da5780638da5cb5b1461050c57610218565b8063370027da116101af57806350da728a1161017e57806350da728a146103d8578063579819d9146104145780636133f9851461046857806361fac54d1461049e57610218565b8063370027da146103325780633f90350a1461035e5780633ffc6956146103815780634c355d20146103a457610218565b806316ada547116101eb57806316ada547146102b5578063224b5dbe146102cf578063229b3391146102ec578063325b52f71461030f57610218565b806302d05d3f1461021d5780630cad84c01461024157806310b28c12146102755780631236b52914610298575b600080fd5b610225610735565b60408051600160a060020a039092168252519081900360200190f35b6102736004803603606081101561025757600080fd5b50803590600160a060020a036020820135169060400135610744565b005b6102736004803603604081101561028b57600080fd5b5080359060200135610823565b610273600480360360208110156102ae57600080fd5b50356108f7565b6102bd6109c3565b60408051918252519081900360200190f35b610273600480360360208110156102e557600080fd5b50356109c9565b6102736004803603604081101561030257600080fd5b5080359060200135610a7a565b6102736004803603604081101561032557600080fd5b5080359060200135610b32565b6102736004803603604081101561034857600080fd5b5080359060200135600160a060020a0316610bea565b6102736004803603604081101561037457600080fd5b5080359060200135610ca5565b6102736004803603604081101561039757600080fd5b5080359060200135610d5d565b610273600480360360608110156103ba57600080fd5b50803590600160a060020a0360208201358116916040013516610e15565b610273600480360360808110156103ee57600080fd5b50803590600160a060020a03602082013581169160408101359091169060600135610ed8565b610273600480360361010081101561042b57600080fd5b5080359060208101359060408101351515906060810135151590608081013515159060a081013515159060c081013515159060e001351515610fc0565b6102736004803603606081101561047e57600080fd5b50600160a060020a038135811691602081013590911690604001356110cb565b6102bd611172565b610273600480360360408110156104bc57600080fd5b5080359060200135600160a060020a0316611178565b610273611233565b610273600480360360608110156104f057600080fd5b50803590600160a060020a03602082013516906040013561129f565b610225611361565b6102736004803603608081101561052a57600080fd5b50803590600160a060020a036020820135811691604081013582169160609091013516611370565b6102736004803603604081101561056857600080fd5b508035906020013561143b565b6102736004803603602081101561058b57600080fd5b50356114f3565b610273600480360360208110156105a857600080fd5b50356115b7565b610273600480360360208110156105c557600080fd5b5035611668565b610273600480360360408110156105e257600080fd5b5080359060200135611719565b6102736004803603602081101561060557600080fd5b50356117d1565b610273600480360361010081101561062357600080fd5b50803590602081013515159060408101351515906060810135151590608081013515159060a081013515159060c081013515159060e001351515611882565b6102736004803603604081101561067857600080fd5b508035906020013561196c565b6102736004803603602081101561069b57600080fd5b5035600160a060020a0316611a24565b610273600480360360408110156106c157600080fd5b5080359060200135600160a060020a0316611a47565b610273600480360360408110156106ed57600080fd5b5080359060200135600160a060020a0316611b02565b6102736004803603606081101561071957600080fd5b50803590600160a060020a036020820135169060400135611bbd565b600154600160a060020a031681565b600154600160a060020a03163314610794576040805160e560020a62461bcd0281526020600482015260196024820152600080516020611cfd833981519152604482015290519081900360640190fd5b60008054604080517f0cad84c000000000000000000000000000000000000000000000000000000000815260048101879052600160a060020a0386811660248301526044820186905291519190921692630cad84c0926064808201939182900301818387803b15801561080657600080fd5b505af115801561081a573d6000803e3d6000fd5b50505050505050565b600154600160a060020a03163314610873576040805160e560020a62461bcd0281526020600482015260196024820152600080516020611cfd833981519152604482015290519081900360640190fd5b60008054604080517f10b28c1200000000000000000000000000000000000000000000000000000000815260048101869052602481018590529051600160a060020a03909216926310b28c129260448084019382900301818387803b1580156108db57600080fd5b505af11580156108ef573d6000803e3d6000fd5b505050505050565b600154600160a060020a03163314610947576040805160e560020a62461bcd0281526020600482015260196024820152600080516020611cfd833981519152604482015290519081900360640190fd5b60008054604080517f1236b529000000000000000000000000000000000000000000000000000000008152600481018590529051600160a060020a0390921692631236b5299260248084019382900301818387803b1580156109a857600080fd5b505af11580156109bc573d6000803e3d6000fd5b5050505050565b60035481565b600154600160a060020a03163314610a19576040805160e560020a62461bcd0281526020600482015260196024820152600080516020611cfd833981519152604482015290519081900360640190fd5b60008054604080517f224b5dbe000000000000000000000000000000000000000000000000000000008152600481018590529051600160a060020a039092169263224b5dbe9260248084019382900301818387803b1580156109a857600080fd5b600154600160a060020a03163314610aca576040805160e560020a62461bcd0281526020600482015260196024820152600080516020611cfd833981519152604482015290519081900360640190fd5b60008054604080517f229b339100000000000000000000000000000000000000000000000000000000815260048101869052602481018590529051600160a060020a039092169263229b33919260448084019382900301818387803b1580156108db57600080fd5b600154600160a060020a03163314610b82576040805160e560020a62461bcd0281526020600482015260196024820152600080516020611cfd833981519152604482015290519081900360640190fd5b60008054604080517f325b52f700000000000000000000000000000000000000000000000000000000815260048101869052602481018590529051600160a060020a039092169263325b52f79260448084019382900301818387803b1580156108db57600080fd5b600154600160a060020a03163314610c3a576040805160e560020a62461bcd0281526020600482015260196024820152600080516020611cfd833981519152604482015290519081900360640190fd5b60008054604080517f370027da00000000000000000000000000000000000000000000000000000000815260048101869052600160a060020a0385811660248301529151919092169263370027da926044808201939182900301818387803b1580156108db57600080fd5b600154600160a060020a03163314610cf5576040805160e560020a62461bcd0281526020600482015260196024820152600080516020611cfd833981519152604482015290519081900360640190fd5b60008054604080517f3f90350a00000000000000000000000000000000000000000000000000000000815260048101869052602481018590529051600160a060020a0390921692633f90350a9260448084019382900301818387803b1580156108db57600080fd5b600154600160a060020a03163314610dad576040805160e560020a62461bcd0281526020600482015260196024820152600080516020611cfd833981519152604482015290519081900360640190fd5b60008054604080517f3ffc695600000000000000000000000000000000000000000000000000000000815260048101869052602481018590529051600160a060020a0390921692633ffc69569260448084019382900301818387803b1580156108db57600080fd5b600154600160a060020a03163314610e65576040805160e560020a62461bcd0281526020600482015260196024820152600080516020611cfd833981519152604482015290519081900360640190fd5b60008054604080517f4c355d2000000000000000000000000000000000000000000000000000000000815260048101879052600160a060020a038681166024830152858116604483015291519190921692634c355d20926064808201939182900301818387803b15801561080657600080fd5b600154600160a060020a03163314610f28576040805160e560020a62461bcd0281526020600482015260196024820152600080516020611cfd833981519152604482015290519081900360640190fd5b60008054604080517f50da728a00000000000000000000000000000000000000000000000000000000815260048101889052600160a060020a038781166024830152868116604483015260648201869052915191909216926350da728a926084808201939182900301818387803b158015610fa257600080fd5b505af1158015610fb6573d6000803e3d6000fd5b5050505050505050565b600154600160a060020a03163314611010576040805160e560020a62461bcd0281526020600482015260196024820152600080516020611cfd833981519152604482015290519081900360640190fd5b60008054604080517f579819d9000000000000000000000000000000000000000000000000000000008152600481018c9052602481018b905289151560448201528815156064820152871515608482015286151560a482015285151560c482015284151560e48201529051600160a060020a039092169263579819d9926101048084019382900301818387803b1580156110a957600080fd5b505af11580156110bd573d6000803e3d6000fd5b505050505050505050505050565b600054600160a060020a03161561112c576040805160e560020a62461bcd02815260206004820152600860248201527f4e69636520747279000000000000000000000000000000000000000000000000604482015290519081900360640190fd5b60008054600160a060020a0394851673ffffffffffffffffffffffffffffffffffffffff1991821617909155600180549390941692169190911790915560025542600355565b60025481565b600154600160a060020a031633146111c8576040805160e560020a62461bcd0281526020600482015260196024820152600080516020611cfd833981519152604482015290519081900360640190fd5b60008054604080517f64c7e92d00000000000000000000000000000000000000000000000000000000815260048101869052600160a060020a038581166024830152915191909216926364c7e92d926044808201939182900301818387803b1580156108db57600080fd5b600054600160a060020a0316331461124a57600080fd5b60008054604051600160a060020a03909116917ff8df31144d9c2f0f6b59d69b8b98abd5459d07f2742c4df920b25aae33c6482091a26000805473ffffffffffffffffffffffffffffffffffffffff19169055565b600154600160a060020a031633146112ef576040805160e560020a62461bcd0281526020600482015260196024820152600080516020611cfd833981519152604482015290519081900360640190fd5b60008054604080517f7ce866c900000000000000000000000000000000000000000000000000000000815260048101879052600160a060020a0386811660248301526044820186905291519190921692637ce866c9926064808201939182900301818387803b15801561080657600080fd5b600054600160a060020a031681565b600154600160a060020a031633146113c0576040805160e560020a62461bcd0281526020600482015260196024820152600080516020611cfd833981519152604482015290519081900360640190fd5b60008054604080517f9b58d77600000000000000000000000000000000000000000000000000000000815260048101889052600160a060020a0387811660248301528681166044830152858116606483015291519190921692639b58d776926084808201939182900301818387803b158015610fa257600080fd5b600154600160a060020a0316331461148b576040805160e560020a62461bcd0281526020600482015260196024820152600080516020611cfd833981519152604482015290519081900360640190fd5b60008054604080517fae2278aa00000000000000000000000000000000000000000000000000000000815260048101869052602481018590529051600160a060020a039092169263ae2278aa9260448084019382900301818387803b1580156108db57600080fd5b600154600160a060020a03163314611543576040805160e560020a62461bcd0281526020600482015260196024820152600080516020611cfd833981519152604482015290519081900360640190fd5b60008054604080517faef797b1000000000000000000000000000000000000000000000000000000008152600481018590529051600160a060020a039092169263aef797b192602480840193829003018186803b1580156115a357600080fd5b505afa1580156109bc573d6000803e3d6000fd5b600154600160a060020a03163314611607576040805160e560020a62461bcd0281526020600482015260196024820152600080516020611cfd833981519152604482015290519081900360640190fd5b60008054604080517fc8527eeb000000000000000000000000000000000000000000000000000000008152600481018590529051600160a060020a039092169263c8527eeb9260248084019382900301818387803b1580156109a857600080fd5b600154600160a060020a031633146116b8576040805160e560020a62461bcd0281526020600482015260196024820152600080516020611cfd833981519152604482015290519081900360640190fd5b60008054604080517fcbfdaed5000000000000000000000000000000000000000000000000000000008152600481018590529051600160a060020a039092169263cbfdaed59260248084019382900301818387803b1580156109a857600080fd5b600154600160a060020a03163314611769576040805160e560020a62461bcd0281526020600482015260196024820152600080516020611cfd833981519152604482015290519081900360640190fd5b60008054604080517fcda47ea300000000000000000000000000000000000000000000000000000000815260048101869052602481018590529051600160a060020a039092169263cda47ea39260448084019382900301818387803b1580156108db57600080fd5b600154600160a060020a03163314611821576040805160e560020a62461bcd0281526020600482015260196024820152600080516020611cfd833981519152604482015290519081900360640190fd5b60008054604080517fced21dec000000000000000000000000000000000000000000000000000000008152600481018590529051600160a060020a039092169263ced21dec9260248084019382900301818387803b1580156109a857600080fd5b600154600160a060020a031633146118d2576040805160e560020a62461bcd0281526020600482015260196024820152600080516020611cfd833981519152604482015290519081900360640190fd5b60008054604080517fcf5b08e4000000000000000000000000000000000000000000000000000000008152600481018c90528a1515602482015289151560448201528815156064820152871515608482015286151560a482015285151560c482015284151560e48201529051600160a060020a039092169263cf5b08e4926101048084019382900301818387803b1580156110a957600080fd5b600154600160a060020a031633146119bc576040805160e560020a62461bcd0281526020600482015260196024820152600080516020611cfd833981519152604482015290519081900360640190fd5b60008054604080517fe1243bf600000000000000000000000000000000000000000000000000000000815260048101869052602481018590529051600160a060020a039092169263e1243bf69260448084019382900301818387803b1580156108db57600080fd5b600054600160a060020a03163314611a3b57600080fd5b611a4481611c7f565b50565b600154600160a060020a03163314611a97576040805160e560020a62461bcd0281526020600482015260196024820152600080516020611cfd833981519152604482015290519081900360640190fd5b60008054604080517ff72d607100000000000000000000000000000000000000000000000000000000815260048101869052600160a060020a0385811660248301529151919092169263f72d6071926044808201939182900301818387803b1580156108db57600080fd5b600154600160a060020a03163314611b52576040805160e560020a62461bcd0281526020600482015260196024820152600080516020611cfd833981519152604482015290519081900360640190fd5b60008054604080517ff9a0392200000000000000000000000000000000000000000000000000000000815260048101869052600160a060020a0385811660248301529151919092169263f9a03922926044808201939182900301818387803b1580156108db57600080fd5b600154600160a060020a03163314611c0d576040805160e560020a62461bcd0281526020600482015260196024820152600080516020611cfd833981519152604482015290519081900360640190fd5b60008054604080517ff9cff22100000000000000000000000000000000000000000000000000000000815260048101879052600160a060020a038681166024830152604482018690529151919092169263f9cff221926064808201939182900301818387803b15801561080657600080fd5b600160a060020a0381161515611c9457600080fd5b60008054604051600160a060020a03808516939216917f8be0079c531659141344cd1fd0a4f28419497f9722a3daafe3b4186f6b6457e091a36000805473ffffffffffffffffffffffffffffffffffffffff1916600160a060020a039290921691909117905556fe4e6f74207573657220636f6e74726163742063726561746f7200000000000000a165627a7a723058207206496fc60b631a631ee18681a9a176424a4e7a3c70fcc0977cb5a6629a07150029",
  "source": "pragma solidity ^0.5.2;\n\nimport \"./Ownable.sol\";\nimport \"./Tartarus.sol\";\n\ncontract User is Ownable {\n    address public creator;\n    bytes32 public username;\n    uint public time;\n\n    function initialize(address _owner, address _creator, bytes32 _username) external {\n        require(owner == address(0), \"Nice try\");\n        owner = _owner;\n        creator = _creator;\n        username = _username;\n        time = now;\n    }\n\n    function createForum(bytes32 _forumName) external {\n        require(msg.sender == creator, \"Not user contract creator\");\n        Tartarus(owner).createForum(_forumName);\n    }   \n\n    function deleteForum(bytes32 _forumName, address payable _suicideAddress) external {\n        require(msg.sender == creator, \"Not user contract creator\");\n        Tartarus(owner).deleteForum(_forumName, _suicideAddress);\n    }  \n\n    function createPost(bytes32 _forumName, bytes32 _post) external {\n        require(msg.sender == creator, \"Not user contract creator\");\n        Tartarus(owner).createPost(_forumName, _post);\n    }\n\n    function deletePost(bytes32 _forumName, address _postAddress, address payable _suicideAddress) external {\n        require(msg.sender == creator, \"Not user contract creator\");\n        Tartarus(owner).deletePost(_forumName, _postAddress, _suicideAddress);\n    }\n\n    function createComment(bytes32 _forumName, address _postAddress, address _targetAddress, bytes32 _comment) external {\n        require(msg.sender == creator, \"Not user contract creator\");\n        Tartarus(owner).createComment(_forumName, _postAddress, _targetAddress, _comment);\n    }\n\n    function deleteComment(bytes32 _forumName, address _postAddress, address _commentAddress, address payable _suicideAddress) external {\n        require(msg.sender == creator, \"Not user contract creator\");\n        Tartarus(owner).deleteComment(_forumName, _postAddress, _commentAddress, _suicideAddress);\n    }\n\n    function upvote(bytes32 _forumName, address _postAddress) external {\n        require(msg.sender == creator, \"Not user contract creator\");\n        Tartarus(owner).upvote(_forumName, _postAddress);\n    }\n\n    function downvote(bytes32 _forumName, address _postAddress) external {\n        require(msg.sender == creator, \"Not user contract creator\");\n        Tartarus(owner).downvote(_forumName, _postAddress);\n    }\n\n    function pinPost(bytes32 _forumName, address _postAddress) external {\n        require(msg.sender == creator, \"Not user contract creator\");\n        Tartarus(owner).pinPost(_forumName, _postAddress);\n    }\n\n    function unpinPost(bytes32 _forumName, address _postAddress, uint _postIndex) external {\n        require(msg.sender == creator, \"Not user contract creator\");\n        Tartarus(owner).unpinPost(_forumName, _postAddress, _postIndex);\n    }\n\n    function reportUser(bytes32 _username, bytes32 _reason) external {\n        require(msg.sender == creator, \"Not user contract creator\");\n        Tartarus(owner).reportUser(_username, _reason);\n    }\n\n    function reportForum(bytes32 _forumName, bytes32 _reason) external {\n        require(msg.sender == creator, \"Not user contract creator\");\n        Tartarus(owner).reportForum(_forumName, _reason);\n    }\n\n    function reportPost(bytes32 _forumName, address _postAddress, bytes32 _reason) external {\n        require(msg.sender == creator, \"Not user contract creator\");\n        Tartarus(owner).reportPost(_forumName, _postAddress, _reason);\n    }\n\n    function reportComment(bytes32 _forumName, address _commentAddress, bytes32 _reason) external {\n        require(msg.sender == creator, \"Not user contract creator\");\n        Tartarus(owner).reportComment(_forumName, _commentAddress, _reason);\n    }\n\n    function createModerator(\n        bytes32 _forumName,\n        bytes32 _username, \n        bool _ban, \n        bool _editRules, \n        bool _editDescription, \n        bool _editModerators, \n        bool _deletePost, \n        bool _deleteComment) external {\n        require(msg.sender == creator, \"Not user contract creator\");\n        Tartarus(owner).createModerator(\n        _forumName,\n        _username,\n        _ban, \n        _editRules,\n        _editDescription,\n        _editModerators,\n        _deletePost,\n        _deleteComment);\n    }\n\n    function removeModerator(bytes32 _forumName, bytes32 _username) external {\n        require(msg.sender == creator, \"Not user contract creator\");\n        Tartarus(owner).removeModerator(_forumName, _username);\n    }\n\n    function updateForumRules(bytes32 _forumName, bytes32 _rules) external {\n        require(msg.sender == creator, \"Not user contract creator\");\n        Tartarus(owner).updateForumRules(_forumName, _rules);\n    }\n\n    function updateForumDescription(bytes32 _forumName, bytes32 _description) external {\n        require(msg.sender == creator, \"Not user contract creator\");\n        Tartarus(owner).updateForumDescription(_forumName, _description);\n    }\n\n    function banUserForum(bytes32 _forumName, bytes32 _userName) external {\n        require(msg.sender == creator, \"Not user contract creator\");\n        Tartarus(owner).banUserForum(_forumName, _userName);\n    }\n\n    function unbanUserForum(bytes32 _forumName, bytes32 _userName) external {\n        require(msg.sender == creator, \"Not user contract creator\");\n        Tartarus(owner).unbanUserForum(_forumName, _userName);\n    }\n\n    function createAdmin(\n        bytes32 _username, \n        bool _ban,\n        bool _transactionCost,\n        bool _createUserCost,\n        bool _editAdmin,\n        bool _deletePost,\n        bool _deleteComment,\n        bool _deleteForum\n    ) public {\n        require(msg.sender == creator, \"Not user contract creator\");\n        Tartarus(owner).createAdmin(\n        _username, \n        _ban,\n        _transactionCost,\n        _createUserCost,\n        _editAdmin,\n        _deletePost,\n        _deleteComment,\n        _deleteForum);\n    }  \n\n    function removeAdmin(bytes32 _username) external {\n        require(msg.sender == creator, \"Not user contract creator\");\n        Tartarus(owner).removeAdmin(_username);\n    }\n\n    function banUserTartarus(bytes32 _username) external view {\n        require(msg.sender == creator, \"Not user contract creator\");\n        Tartarus(owner).banUserTartarus(_username);\n    }\n\n    function unbanUserTartarus(bytes32 _username) external {\n        require(msg.sender == creator, \"Not user contract creator\");\n        Tartarus(owner).unbanUserTartarus(_username);\n    }\n\n    function setCreateUserCost(uint _newCost) external {\n        require(msg.sender == creator, \"Not user contract creator\");\n        Tartarus(owner).setCreateUserCost(_newCost);\n    }\n\n    function setTransactionCost(uint _newCost) external {\n        require(msg.sender == creator, \"Not user contract creator\");\n        Tartarus(owner).setTransactionCost(_newCost);\n    }\n}",
  "sourcePath": "/Users/jarenlynch/Ethereum/Tartarus/contracts/User.sol",
  "compiler": {
    "name": "solc",
    "version": "0.5.2+commit.1df8f40c.Emscripten.clang"
  },
  "schemaVersion": "3.0.6",
  "updatedAt": "2019-04-10T23:55:49.102Z",
  "devdoc": {
    "methods": {
      "renounceOwnership()": {
        "details": "Allows the current owner to relinquish control of the contract."
      },
      "transferOwnership(address)": {
        "details": "Allows the current owner to transfer control of the contract to a newOwner.",
        "params": {
          "_newOwner": "The address to transfer ownership to."
        }
      }
    }
  },
  "userdoc": {
    "methods": {
      "renounceOwnership()": {
        "notice": "Renouncing to ownership will leave the contract without an owner. It will not be possible to call the functions with the `onlyOwner` modifier anymore."
      }
    }
  }
}