{
  "contractName": "UserFactory",
  "abi": [
    {
      "constant": false,
      "inputs": [],
      "name": "renounceOwnership",
      "outputs": [],
      "payable": false,
      "stateMutability": "nonpayable",
      "type": "function"
    },
    {
      "constant": true,
      "inputs": [],
      "name": "owner",
      "outputs": [
        {
          "name": "",
          "type": "address"
        }
      ],
      "payable": false,
      "stateMutability": "view",
      "type": "function"
    },
    {
      "constant": false,
      "inputs": [
        {
          "name": "_newOwner",
          "type": "address"
        }
      ],
      "name": "transferOwnership",
      "outputs": [],
      "payable": false,
      "stateMutability": "nonpayable",
      "type": "function"
    },
    {
      "inputs": [],
      "payable": false,
      "stateMutability": "nonpayable",
      "type": "constructor"
    },
    {
      "anonymous": false,
      "inputs": [
        {
          "indexed": true,
          "name": "previousOwner",
          "type": "address"
        }
      ],
      "name": "OwnershipRenounced",
      "type": "event"
    },
    {
      "anonymous": false,
      "inputs": [
        {
          "indexed": true,
          "name": "previousOwner",
          "type": "address"
        },
        {
          "indexed": true,
          "name": "newOwner",
          "type": "address"
        }
      ],
      "name": "OwnershipTransferred",
      "type": "event"
    },
    {
      "constant": false,
      "inputs": [
        {
          "name": "_username",
          "type": "bytes32"
        }
      ],
      "name": "createUser",
      "outputs": [
        {
          "name": "",
          "type": "address"
        }
      ],
      "payable": false,
      "stateMutability": "nonpayable",
      "type": "function"
    }
  ],
  "bytecode": "0x608060405234801561001057600080fd5b5060008054600160a060020a0319163317905561002b61006d565b604051809103906000f080158015610047573d6000803e3d6000fd5b5060018054600160a060020a031916600160a060020a039290921691909117905561007d565b604051611d62806103de83390190565b6103528061008c6000396000f3fe608060405234801561001057600080fd5b5060043610610068577c01000000000000000000000000000000000000000000000000000000006000350463715018a6811461006d5780638da5cb5b14610077578063abf7bfd81461009b578063f2fde38b146100b8575b600080fd5b6100756100de565b005b61007f61014a565b60408051600160a060020a039092168252519081900360200190f35b61007f600480360360208110156100b157600080fd5b5035610159565b610075600480360360208110156100ce57600080fd5b5035600160a060020a0316610213565b600054600160a060020a031633146100f557600080fd5b60008054604051600160a060020a03909116917ff8df31144d9c2f0f6b59d69b8b98abd5459d07f2742c4df920b25aae33c6482091a26000805473ffffffffffffffffffffffffffffffffffffffff19169055565b600054600160a060020a031681565b60008054600160a060020a0316331461017157600080fd5b60015460009061018990600160a060020a0316610236565b604080517fbe13f47c000000000000000000000000000000000000000000000000000000008152336004820152602481018690529051919250600160a060020a0383169163be13f47c9160448082019260009290919082900301818387803b1580156101f457600080fd5b505af1158015610208573d6000803e3d6000fd5b509295945050505050565b600054600160a060020a0316331461022a57600080fd5b610233816102a9565b50565b6040517f3d602d80600a3d3981f3363d3d373d3d3d363d7300000000000000000000000081526c010000000000000000000000008202601482018190527f5af43d82803e903d91602b57fd5bf30000000000000000000000000000000000602883015260009160378184f0949350505050565b600160a060020a03811615156102be57600080fd5b60008054604051600160a060020a03808516939216917f8be0079c531659141344cd1fd0a4f28419497f9722a3daafe3b4186f6b6457e091a36000805473ffffffffffffffffffffffffffffffffffffffff1916600160a060020a039290921691909117905556fea165627a7a723058207c13a81a70f363a3dd51c580510d13c905fcd7a12a0aba5cfc3ecf80857708c30029608060405260008054600160a060020a03191633179055611d3d806100256000396000f3fe608060405234801561001057600080fd5b5060043610610218576000357c010000000000000000000000000000000000000000000000000000000090048063715018a611610137578063cbfdaed5116100ca578063e1243bf611610099578063e1243bf614610658578063f2fde38b1461067b578063f72d6071146106a1578063f9a03922146106cd578063f9cff221146106f957610218565b8063cbfdaed5146105a5578063cda47ea3146105c2578063ced21dec146105e5578063cf5b08e41461060257610218565b8063ae2278aa11610106578063ae2278aa1461051c578063aef797b11461053f578063be13f47c1461055c578063c8527eeb1461058857610218565b8063715018a61461049c5780637ce866c9146104a45780638da5cb5b146104d65780639b58d776146104de57610218565b8063370027da116101af57806350da728a1161017e57806350da728a146103d8578063579819d91461041457806361fac54d1461046857806364c7e92d1461047057610218565b8063370027da146103325780633f90350a1461035e5780633ffc6956146103815780634c355d20146103a457610218565b806316ada547116101eb57806316ada547146102b5578063224b5dbe146102cf578063229b3391146102ec578063325b52f71461030f57610218565b806302d05d3f1461021d5780630cad84c01461024157806310b28c12146102755780631236b52914610298575b600080fd5b61022561072b565b60408051600160a060020a039092168252519081900360200190f35b6102736004803603606081101561025757600080fd5b50803590600160a060020a03602082013516906040013561073a565b005b6102736004803603604081101561028b57600080fd5b5080359060200135610819565b610273600480360360208110156102ae57600080fd5b50356108ed565b6102bd6109b9565b60408051918252519081900360200190f35b610273600480360360208110156102e557600080fd5b50356109bf565b6102736004803603604081101561030257600080fd5b5080359060200135610a70565b6102736004803603604081101561032557600080fd5b5080359060200135610b28565b6102736004803603604081101561034857600080fd5b5080359060200135600160a060020a0316610be0565b6102736004803603604081101561037457600080fd5b5080359060200135610c9b565b6102736004803603604081101561039757600080fd5b5080359060200135610d53565b610273600480360360608110156103ba57600080fd5b50803590600160a060020a0360208201358116916040013516610e0b565b610273600480360360808110156103ee57600080fd5b50803590600160a060020a03602082013581169160408101359091169060600135610ece565b610273600480360361010081101561042b57600080fd5b5080359060208101359060408101351515906060810135151590608081013515159060a081013515159060c081013515159060e001351515610fb6565b6102bd6110c1565b6102736004803603604081101561048657600080fd5b5080359060200135600160a060020a03166110c7565b610273611182565b610273600480360360608110156104ba57600080fd5b50803590600160a060020a0360208201351690604001356111ee565b6102256112b0565b610273600480360360808110156104f457600080fd5b50803590600160a060020a0360208201358116916040810135821691606090910135166112bf565b6102736004803603604081101561053257600080fd5b508035906020013561138a565b6102736004803603602081101561055557600080fd5b5035611442565b6102736004803603604081101561057257600080fd5b50600160a060020a038135169060200135611506565b6102736004803603602081101561059e57600080fd5b50356115ac565b610273600480360360208110156105bb57600080fd5b503561165d565b610273600480360360408110156105d857600080fd5b508035906020013561170e565b610273600480360360208110156105fb57600080fd5b50356117c6565b610273600480360361010081101561061957600080fd5b50803590602081013515159060408101351515906060810135151590608081013515159060a081013515159060c081013515159060e001351515611877565b6102736004803603604081101561066e57600080fd5b5080359060200135611961565b6102736004803603602081101561069157600080fd5b5035600160a060020a0316611a19565b610273600480360360408110156106b757600080fd5b5080359060200135600160a060020a0316611a3c565b610273600480360360408110156106e357600080fd5b5080359060200135600160a060020a0316611af7565b6102736004803603606081101561070f57600080fd5b50803590600160a060020a036020820135169060400135611bb2565b600154600160a060020a031681565b600154600160a060020a0316331461078a576040805160e560020a62461bcd0281526020600482015260196024820152600080516020611cf2833981519152604482015290519081900360640190fd5b60008054604080517f0cad84c000000000000000000000000000000000000000000000000000000000815260048101879052600160a060020a0386811660248301526044820186905291519190921692630cad84c0926064808201939182900301818387803b1580156107fc57600080fd5b505af1158015610810573d6000803e3d6000fd5b50505050505050565b600154600160a060020a03163314610869576040805160e560020a62461bcd0281526020600482015260196024820152600080516020611cf2833981519152604482015290519081900360640190fd5b60008054604080517f10b28c1200000000000000000000000000000000000000000000000000000000815260048101869052602481018590529051600160a060020a03909216926310b28c129260448084019382900301818387803b1580156108d157600080fd5b505af11580156108e5573d6000803e3d6000fd5b505050505050565b600154600160a060020a0316331461093d576040805160e560020a62461bcd0281526020600482015260196024820152600080516020611cf2833981519152604482015290519081900360640190fd5b60008054604080517f1236b529000000000000000000000000000000000000000000000000000000008152600481018590529051600160a060020a0390921692631236b5299260248084019382900301818387803b15801561099e57600080fd5b505af11580156109b2573d6000803e3d6000fd5b5050505050565b60035481565b600154600160a060020a03163314610a0f576040805160e560020a62461bcd0281526020600482015260196024820152600080516020611cf2833981519152604482015290519081900360640190fd5b60008054604080517f224b5dbe000000000000000000000000000000000000000000000000000000008152600481018590529051600160a060020a039092169263224b5dbe9260248084019382900301818387803b15801561099e57600080fd5b600154600160a060020a03163314610ac0576040805160e560020a62461bcd0281526020600482015260196024820152600080516020611cf2833981519152604482015290519081900360640190fd5b60008054604080517f229b339100000000000000000000000000000000000000000000000000000000815260048101869052602481018590529051600160a060020a039092169263229b33919260448084019382900301818387803b1580156108d157600080fd5b600154600160a060020a03163314610b78576040805160e560020a62461bcd0281526020600482015260196024820152600080516020611cf2833981519152604482015290519081900360640190fd5b60008054604080517f325b52f700000000000000000000000000000000000000000000000000000000815260048101869052602481018590529051600160a060020a039092169263325b52f79260448084019382900301818387803b1580156108d157600080fd5b600154600160a060020a03163314610c30576040805160e560020a62461bcd0281526020600482015260196024820152600080516020611cf2833981519152604482015290519081900360640190fd5b60008054604080517f370027da00000000000000000000000000000000000000000000000000000000815260048101869052600160a060020a0385811660248301529151919092169263370027da926044808201939182900301818387803b1580156108d157600080fd5b600154600160a060020a03163314610ceb576040805160e560020a62461bcd0281526020600482015260196024820152600080516020611cf2833981519152604482015290519081900360640190fd5b60008054604080517f3f90350a00000000000000000000000000000000000000000000000000000000815260048101869052602481018590529051600160a060020a0390921692633f90350a9260448084019382900301818387803b1580156108d157600080fd5b600154600160a060020a03163314610da3576040805160e560020a62461bcd0281526020600482015260196024820152600080516020611cf2833981519152604482015290519081900360640190fd5b60008054604080517f3ffc695600000000000000000000000000000000000000000000000000000000815260048101869052602481018590529051600160a060020a0390921692633ffc69569260448084019382900301818387803b1580156108d157600080fd5b600154600160a060020a03163314610e5b576040805160e560020a62461bcd0281526020600482015260196024820152600080516020611cf2833981519152604482015290519081900360640190fd5b60008054604080517f4c355d2000000000000000000000000000000000000000000000000000000000815260048101879052600160a060020a038681166024830152858116604483015291519190921692634c355d20926064808201939182900301818387803b1580156107fc57600080fd5b600154600160a060020a03163314610f1e576040805160e560020a62461bcd0281526020600482015260196024820152600080516020611cf2833981519152604482015290519081900360640190fd5b60008054604080517f50da728a00000000000000000000000000000000000000000000000000000000815260048101889052600160a060020a038781166024830152868116604483015260648201869052915191909216926350da728a926084808201939182900301818387803b158015610f9857600080fd5b505af1158015610fac573d6000803e3d6000fd5b5050505050505050565b600154600160a060020a03163314611006576040805160e560020a62461bcd0281526020600482015260196024820152600080516020611cf2833981519152604482015290519081900360640190fd5b60008054604080517f579819d9000000000000000000000000000000000000000000000000000000008152600481018c9052602481018b905289151560448201528815156064820152871515608482015286151560a482015285151560c482015284151560e48201529051600160a060020a039092169263579819d9926101048084019382900301818387803b15801561109f57600080fd5b505af11580156110b3573d6000803e3d6000fd5b505050505050505050505050565b60025481565b600154600160a060020a03163314611117576040805160e560020a62461bcd0281526020600482015260196024820152600080516020611cf2833981519152604482015290519081900360640190fd5b60008054604080517f64c7e92d00000000000000000000000000000000000000000000000000000000815260048101869052600160a060020a038581166024830152915191909216926364c7e92d926044808201939182900301818387803b1580156108d157600080fd5b600054600160a060020a0316331461119957600080fd5b60008054604051600160a060020a03909116917ff8df31144d9c2f0f6b59d69b8b98abd5459d07f2742c4df920b25aae33c6482091a26000805473ffffffffffffffffffffffffffffffffffffffff19169055565b600154600160a060020a0316331461123e576040805160e560020a62461bcd0281526020600482015260196024820152600080516020611cf2833981519152604482015290519081900360640190fd5b60008054604080517f7ce866c900000000000000000000000000000000000000000000000000000000815260048101879052600160a060020a0386811660248301526044820186905291519190921692637ce866c9926064808201939182900301818387803b1580156107fc57600080fd5b600054600160a060020a031681565b600154600160a060020a0316331461130f576040805160e560020a62461bcd0281526020600482015260196024820152600080516020611cf2833981519152604482015290519081900360640190fd5b60008054604080517f9b58d77600000000000000000000000000000000000000000000000000000000815260048101889052600160a060020a0387811660248301528681166044830152858116606483015291519190921692639b58d776926084808201939182900301818387803b158015610f9857600080fd5b600154600160a060020a031633146113da576040805160e560020a62461bcd0281526020600482015260196024820152600080516020611cf2833981519152604482015290519081900360640190fd5b60008054604080517fae2278aa00000000000000000000000000000000000000000000000000000000815260048101869052602481018590529051600160a060020a039092169263ae2278aa9260448084019382900301818387803b1580156108d157600080fd5b600154600160a060020a03163314611492576040805160e560020a62461bcd0281526020600482015260196024820152600080516020611cf2833981519152604482015290519081900360640190fd5b60008054604080517faef797b1000000000000000000000000000000000000000000000000000000008152600481018590529051600160a060020a039092169263aef797b192602480840193829003018186803b1580156114f257600080fd5b505afa1580156109b2573d6000803e3d6000fd5b600054600160a060020a031615611567576040805160e560020a62461bcd02815260206004820152600860248201527f4e69636520747279000000000000000000000000000000000000000000000000604482015290519081900360640190fd5b600080543373ffffffffffffffffffffffffffffffffffffffff199182161790915560018054909116600160a060020a03939093169290921790915560025542600355565b600154600160a060020a031633146115fc576040805160e560020a62461bcd0281526020600482015260196024820152600080516020611cf2833981519152604482015290519081900360640190fd5b60008054604080517fc8527eeb000000000000000000000000000000000000000000000000000000008152600481018590529051600160a060020a039092169263c8527eeb9260248084019382900301818387803b15801561099e57600080fd5b600154600160a060020a031633146116ad576040805160e560020a62461bcd0281526020600482015260196024820152600080516020611cf2833981519152604482015290519081900360640190fd5b60008054604080517fcbfdaed5000000000000000000000000000000000000000000000000000000008152600481018590529051600160a060020a039092169263cbfdaed59260248084019382900301818387803b15801561099e57600080fd5b600154600160a060020a0316331461175e576040805160e560020a62461bcd0281526020600482015260196024820152600080516020611cf2833981519152604482015290519081900360640190fd5b60008054604080517fcda47ea300000000000000000000000000000000000000000000000000000000815260048101869052602481018590529051600160a060020a039092169263cda47ea39260448084019382900301818387803b1580156108d157600080fd5b600154600160a060020a03163314611816576040805160e560020a62461bcd0281526020600482015260196024820152600080516020611cf2833981519152604482015290519081900360640190fd5b60008054604080517fced21dec000000000000000000000000000000000000000000000000000000008152600481018590529051600160a060020a039092169263ced21dec9260248084019382900301818387803b15801561099e57600080fd5b600154600160a060020a031633146118c7576040805160e560020a62461bcd0281526020600482015260196024820152600080516020611cf2833981519152604482015290519081900360640190fd5b60008054604080517fcf5b08e4000000000000000000000000000000000000000000000000000000008152600481018c90528a1515602482015289151560448201528815156064820152871515608482015286151560a482015285151560c482015284151560e48201529051600160a060020a039092169263cf5b08e4926101048084019382900301818387803b15801561109f57600080fd5b600154600160a060020a031633146119b1576040805160e560020a62461bcd0281526020600482015260196024820152600080516020611cf2833981519152604482015290519081900360640190fd5b60008054604080517fe1243bf600000000000000000000000000000000000000000000000000000000815260048101869052602481018590529051600160a060020a039092169263e1243bf69260448084019382900301818387803b1580156108d157600080fd5b600054600160a060020a03163314611a3057600080fd5b611a3981611c74565b50565b600154600160a060020a03163314611a8c576040805160e560020a62461bcd0281526020600482015260196024820152600080516020611cf2833981519152604482015290519081900360640190fd5b60008054604080517ff72d607100000000000000000000000000000000000000000000000000000000815260048101869052600160a060020a0385811660248301529151919092169263f72d6071926044808201939182900301818387803b1580156108d157600080fd5b600154600160a060020a03163314611b47576040805160e560020a62461bcd0281526020600482015260196024820152600080516020611cf2833981519152604482015290519081900360640190fd5b60008054604080517ff9a0392200000000000000000000000000000000000000000000000000000000815260048101869052600160a060020a0385811660248301529151919092169263f9a03922926044808201939182900301818387803b1580156108d157600080fd5b600154600160a060020a03163314611c02576040805160e560020a62461bcd0281526020600482015260196024820152600080516020611cf2833981519152604482015290519081900360640190fd5b60008054604080517ff9cff22100000000000000000000000000000000000000000000000000000000815260048101879052600160a060020a038681166024830152604482018690529151919092169263f9cff221926064808201939182900301818387803b1580156107fc57600080fd5b600160a060020a0381161515611c8957600080fd5b60008054604051600160a060020a03808516939216917f8be0079c531659141344cd1fd0a4f28419497f9722a3daafe3b4186f6b6457e091a36000805473ffffffffffffffffffffffffffffffffffffffff1916600160a060020a039290921691909117905556fe4e6f74207573657220636f6e74726163742063726561746f7200000000000000a165627a7a723058201651435ad55c52d304eeec16b79d8ee9ee40e78f39e1e665a770daed0fc6d6990029",
  "source": "pragma solidity ^0.5.2;\n\nimport \"./User.sol\"; \nimport \"./CloneFactory.sol\";\nimport \"./Ownable.sol\";\n\ncontract UserFactory is CloneFactory, Ownable {\n    address cloneUser;\n\n    constructor() public {\n        cloneUser = address(new User());\n    }\n\n    function createUser(bytes32 _username) external onlyOwner returns(address) {\n        // require((msg.value >= createUserCost), \"Insufficient Eth Sent\");\n        // require(users[_username] == address(0), \"Username already exists\");\n        // require(validateUsername(_username), \"Invalid username\");\n        address clone = createClone(cloneUser);\n        User(clone).initialize(msg.sender, _username);\n        return clone;\n    }\n}",
  "sourcePath": "/Users/jarenlynch/Ethereum/Tartarus/contracts/UserFactory.sol",
  "compiler": {
    "name": "solc",
    "version": "0.5.2+commit.1df8f40c.Emscripten.clang"
  },
  "schemaVersion": "3.0.6",
  "updatedAt": "2019-04-10T08:06:45.680Z",
  "devdoc": {
    "methods": {
      "renounceOwnership()": {
        "details": "Allows the current owner to relinquish control of the contract."
      },
      "transferOwnership(address)": {
        "details": "Allows the current owner to transfer control of the contract to a newOwner.",
        "params": {
          "_newOwner": "The address to transfer ownership to."
        }
      }
    }
  },
  "userdoc": {
    "methods": {
      "renounceOwnership()": {
        "notice": "Renouncing to ownership will leave the contract without an owner. It will not be possible to call the functions with the `onlyOwner` modifier anymore."
      }
    }
  }
}