{
  "contractName": "Post",
  "abi": [
    {
      "constant": false,
      "inputs": [],
      "name": "renounceOwnership",
      "outputs": [],
      "payable": false,
      "stateMutability": "nonpayable",
      "type": "function"
    },
    {
      "constant": true,
      "inputs": [],
      "name": "postInfo",
      "outputs": [
        {
          "name": "ipfsHash",
          "type": "string"
        },
        {
          "name": "creator",
          "type": "address"
        },
        {
          "name": "time",
          "type": "uint256"
        }
      ],
      "payable": false,
      "stateMutability": "view",
      "type": "function"
    },
    {
      "constant": true,
      "inputs": [],
      "name": "owner",
      "outputs": [
        {
          "name": "",
          "type": "address"
        }
      ],
      "payable": false,
      "stateMutability": "view",
      "type": "function"
    },
    {
      "constant": false,
      "inputs": [
        {
          "name": "_newOwner",
          "type": "address"
        }
      ],
      "name": "transferOwnership",
      "outputs": [],
      "payable": false,
      "stateMutability": "nonpayable",
      "type": "function"
    },
    {
      "anonymous": false,
      "inputs": [
        {
          "indexed": false,
          "name": "commentAddress",
          "type": "address"
        }
      ],
      "name": "CommentCreated",
      "type": "event"
    },
    {
      "anonymous": false,
      "inputs": [
        {
          "indexed": true,
          "name": "previousOwner",
          "type": "address"
        }
      ],
      "name": "OwnershipRenounced",
      "type": "event"
    },
    {
      "anonymous": false,
      "inputs": [
        {
          "indexed": true,
          "name": "previousOwner",
          "type": "address"
        },
        {
          "indexed": true,
          "name": "newOwner",
          "type": "address"
        }
      ],
      "name": "OwnershipTransferred",
      "type": "event"
    },
    {
      "constant": false,
      "inputs": [
        {
          "name": "_ipfsHash",
          "type": "string"
        },
        {
          "name": "_postCreator",
          "type": "address"
        }
      ],
      "name": "initialize",
      "outputs": [],
      "payable": false,
      "stateMutability": "nonpayable",
      "type": "function"
    },
    {
      "constant": false,
      "inputs": [
        {
          "name": "_ipfsHash",
          "type": "string"
        },
        {
          "name": "_commentCreator",
          "type": "address"
        },
        {
          "name": "_targetAddress",
          "type": "address"
        },
        {
          "name": "_cloneComment",
          "type": "address"
        }
      ],
      "name": "createComment",
      "outputs": [],
      "payable": false,
      "stateMutability": "nonpayable",
      "type": "function"
    },
    {
      "constant": true,
      "inputs": [
        {
          "name": "_commentAddress",
          "type": "address"
        }
      ],
      "name": "getComment",
      "outputs": [
        {
          "name": "",
          "type": "string"
        },
        {
          "name": "",
          "type": "address"
        },
        {
          "name": "",
          "type": "address"
        },
        {
          "name": "",
          "type": "uint256"
        }
      ],
      "payable": false,
      "stateMutability": "view",
      "type": "function"
    }
  ],
  "bytecode": "0x608060405260008054600160a060020a031916331790556109a1806100256000396000f3006080604052600436106100825763ffffffff7c0100000000000000000000000000000000000000000000000000000000600035041663715018a681146100875780637ab4339d1461009e5780638bd178e9146101025780638da5cb5b146101af578063e9e4c919146101e0578063f2fde38b14610253578063f6bb0cf114610274575b600080fd5b34801561009357600080fd5b5061009c610346565b005b3480156100aa57600080fd5b506040805160206004803580820135601f810184900484028501840190955284845261009c94369492936024939284019190819084018382808284375094975050509235600160a060020a031693506103b292505050565b34801561010e57600080fd5b50610117610491565b604051808060200184600160a060020a0316600160a060020a03168152602001838152602001828103825285818151815260200191508051906020019080838360005b8381101561017257818101518382015260200161015a565b50505050905090810190601f16801561019f5780820380516001836020036101000a031916815260200191505b5094505050505060405180910390f35b3480156101bb57600080fd5b506101c4610538565b60408051600160a060020a039092168252519081900360200190f35b3480156101ec57600080fd5b506040805160206004803580820135601f810184900484028501840190955284845261009c94369492936024939284019190819084018382808284375094975050600160a060020a0385358116965060208601358116956040013516935061054792505050565b34801561025f57600080fd5b5061009c600160a060020a03600435166106cf565b34801561028057600080fd5b50610295600160a060020a03600435166106f2565b604051808060200185600160a060020a0316600160a060020a0316815260200184600160a060020a0316600160a060020a03168152602001838152602001828103825286818151815260200191508051906020019080838360005b838110156103085781810151838201526020016102f0565b50505050905090810190601f1680156103355780820380516001836020036101000a031916815260200191505b509550505050505060405180910390f35b600054600160a060020a0316331461035d57600080fd5b60008054604051600160a060020a03909116917ff8df31144d9c2f0f6b59d69b8b98abd5459d07f2742c4df920b25aae33c6482091a26000805473ffffffffffffffffffffffffffffffffffffffff19169055565b600054600160a060020a03161561042a57604080517f08c379a000000000000000000000000000000000000000000000000000000000815260206004820152600860248201527f4e69636520747279000000000000000000000000000000000000000000000000604482015290519081900360640190fd5b6000805473ffffffffffffffffffffffffffffffffffffffff191633179055815161045c9060019060208501906108b3565b506002805473ffffffffffffffffffffffffffffffffffffffff1916600160a060020a03929092169190911790555042600355565b60018054604080516020601f6002600019610100878916150201909516949094049384018190048102820181019092528281529183918301828280156105185780601f106104ed57610100808354040283529160200191610518565b820191906000526020600020905b8154815290600101906020018083116104fb57829003601f168201915b5050505060018301546002909301549192600160a060020a031691905083565b600054600160a060020a031681565b6000610551610931565b600054600160a060020a0316331461056857600080fd5b610571836107c3565b915081600160a060020a0316638129fc1c6040518163ffffffff167c0100000000000000000000000000000000000000000000000000000000028152600401600060405180830381600087803b1580156105ca57600080fd5b505af11580156105de573d6000803e3d6000fd5b505060408051608081018252898152600160a060020a03808a166020808401919091528982168385015242606084015290871660009081526004825292909220815180519296508695509093506106399284929101906108b3565b5060208281015160018301805473ffffffffffffffffffffffffffffffffffffffff19908116600160a060020a0393841617909155604080860151600286018054909316908416179091556060909401516003909301929092558251918516825291517f2def86c85ed65bb7798ce8a3d3d1dc8553396bbb5d9f9e3f792747cd4e6c4b7a929181900390910190a1505050505050565b600054600160a060020a031633146106e657600080fd5b6106ef81610836565b50565b600160a060020a0381811660009081526004602090815260408083206001808201546002808401546003850154855487516101009682161596909602600019011692909204601f81018890048802850188019096528584526060988897889794821695929091169386918301828280156107ad5780601f10610782576101008083540402835291602001916107ad565b820191906000526020600020905b81548152906001019060200180831161079057829003601f168201915b5050505050935093509350935093509193509193565b6040517f3d602d80600a3d3981f3363d3d373d3d3d363d7300000000000000000000000081526c010000000000000000000000008202601482018190527f5af43d82803e903d91602b57fd5bf30000000000000000000000000000000000602883015260009160378184f0949350505050565b600160a060020a038116151561084b57600080fd5b60008054604051600160a060020a03808516939216917f8be0079c531659141344cd1fd0a4f28419497f9722a3daafe3b4186f6b6457e091a36000805473ffffffffffffffffffffffffffffffffffffffff1916600160a060020a0392909216919091179055565b828054600181600116156101000203166002900490600052602060002090601f016020900481019282601f106108f457805160ff1916838001178555610921565b82800160010185558215610921579182015b82811115610921578251825591602001919060010190610906565b5061092d929150610958565b5090565b60408051608081018252606080825260006020830181905292820183905281019190915290565b61097291905b8082111561092d576000815560010161095e565b905600a165627a7a7230582094e99df2a29aaf17f2a8d935833736215ace05439ad2c753506cbf1a3d409a100029",
  "source": "pragma solidity ^0.4.24;\n\nimport \"./Comment.sol\"; \nimport \"./CloneFactory.sol\";\nimport \"./Ownable.sol\";\n\ncontract Post is Ownable, CloneFactory {\n    event CommentCreated (address commentAddress);\n\n    struct PostInfo {\n        string ipfsHash;\n        address creator;\n        uint time;\n        mapping(address => CommentInfo) comments;\n    }  \n\n    struct CommentInfo {\n        string ipfsHash;\n        address creator;\n        address target;\n        uint time;\n    }\n\n    PostInfo public postInfo;\n\n    function initialize(string _ipfsHash, address _postCreator) public {\n        require(owner == address(0), \"Nice try\");\n        owner = msg.sender;\n        postInfo.ipfsHash = _ipfsHash;\n        postInfo.creator = _postCreator;\n        postInfo.time = now;\n    }\n\n    function createComment (string _ipfsHash, address _commentCreator, address _targetAddress, address _cloneComment) public onlyOwner {\n        address clone = createClone(_cloneComment);\n        Comment(clone).initialize();\n        CommentInfo memory newComment = CommentInfo(_ipfsHash, _commentCreator, _targetAddress, now);\n        postInfo.comments[clone] = newComment;\n        emit CommentCreated(clone);\n    }\n\n    function getComment(address _commentAddress) public view returns(string, address, address, uint) {\n        return (\n            postInfo.comments[_commentAddress].ipfsHash,\n            postInfo.comments[_commentAddress].creator,\n            postInfo.comments[_commentAddress].target,\n            postInfo.comments[_commentAddress].time\n        );\n    }\n}",
  "sourcePath": "/Users/jarenlynch/Ethereum/CleanTartarus/contracts/Post.sol",
  "compiler": {
    "name": "solc",
    "version": "0.4.24+commit.e67f0147.Emscripten.clang"
  },
  "schemaVersion": "2.0.1",
  "updatedAt": "2018-12-12T07:37:06.051Z"
}