{
  "contractName": "Comment",
  "abi": [
    {
      "constant": false,
      "inputs": [],
      "name": "renounceOwnership",
      "outputs": [],
      "payable": false,
      "stateMutability": "nonpayable",
      "type": "function"
    },
    {
      "constant": true,
      "inputs": [],
      "name": "owner",
      "outputs": [
        {
          "name": "",
          "type": "address"
        }
      ],
      "payable": false,
      "stateMutability": "view",
      "type": "function"
    },
    {
      "constant": false,
      "inputs": [
        {
          "name": "_newOwner",
          "type": "address"
        }
      ],
      "name": "transferOwnership",
      "outputs": [],
      "payable": false,
      "stateMutability": "nonpayable",
      "type": "function"
    },
    {
      "inputs": [
        {
          "name": "_postAddress",
          "type": "address"
        }
      ],
      "payable": false,
      "stateMutability": "nonpayable",
      "type": "constructor"
    },
    {
      "anonymous": false,
      "inputs": [
        {
          "indexed": true,
          "name": "previousOwner",
          "type": "address"
        }
      ],
      "name": "OwnershipRenounced",
      "type": "event"
    },
    {
      "anonymous": false,
      "inputs": [
        {
          "indexed": true,
          "name": "previousOwner",
          "type": "address"
        },
        {
          "indexed": true,
          "name": "newOwner",
          "type": "address"
        }
      ],
      "name": "OwnershipTransferred",
      "type": "event"
    },
    {
      "constant": false,
      "inputs": [
        {
          "name": "_replyText",
          "type": "string"
        }
      ],
      "name": "createReply",
      "outputs": [],
      "payable": false,
      "stateMutability": "nonpayable",
      "type": "function"
    }
  ],
  "bytecode": "0x608060405234801561001057600080fd5b5060405160208061045283398101604052516000805460018054600160a060020a03909416600160a060020a031994851617905582163390811790921690911790556103f1806100616000396000f3006080604052600436106100615763ffffffff7c010000000000000000000000000000000000000000000000000000000060003504166360367c698114610066578063715018a6146100c15780638da5cb5b146100d6578063f2fde38b14610114575b600080fd5b34801561007257600080fd5b506040805160206004803580820135601f81018490048402850184019095528484526100bf9436949293602493928401919081908401838280828437509497506101429650505050505050565b005b3480156100cd57600080fd5b506100bf61024f565b3480156100e257600080fd5b506100eb6102d5565b6040805173ffffffffffffffffffffffffffffffffffffffff9092168252519081900360200190f35b34801561012057600080fd5b506100bf73ffffffffffffffffffffffffffffffffffffffff600435166102f1565b600154600080546040517f9935d96d000000000000000000000000000000000000000000000000000000008152306004820181815273ffffffffffffffffffffffffffffffffffffffff938416602484018190526060604485019081528851606486015288519590971696639935d96d9693959194899491926084909101916020860191908190849084905b838110156101e65781810151838201526020016101ce565b50505050905090810190601f1680156102135780820380516001836020036101000a031916815260200191505b50945050505050600060405180830381600087803b15801561023457600080fd5b505af1158015610248573d6000803e3d6000fd5b5050505050565b60005473ffffffffffffffffffffffffffffffffffffffff16331461027357600080fd5b6000805460405173ffffffffffffffffffffffffffffffffffffffff909116917ff8df31144d9c2f0f6b59d69b8b98abd5459d07f2742c4df920b25aae33c6482091a26000805473ffffffffffffffffffffffffffffffffffffffff19169055565b60005473ffffffffffffffffffffffffffffffffffffffff1681565b60005473ffffffffffffffffffffffffffffffffffffffff16331461031557600080fd5b61031e81610321565b50565b73ffffffffffffffffffffffffffffffffffffffff8116151561034357600080fd5b6000805460405173ffffffffffffffffffffffffffffffffffffffff808516939216917f8be0079c531659141344cd1fd0a4f28419497f9722a3daafe3b4186f6b6457e091a36000805473ffffffffffffffffffffffffffffffffffffffff191673ffffffffffffffffffffffffffffffffffffffff929092169190911790555600a165627a7a723058206281ab83637d5157d266b7a0cd149eaa3886417cb285fca69e67350437450d560029",
  "source": "pragma solidity ^0.4.24;\n\nimport \"openzeppelin-solidity/contracts/ownership/Ownable.sol\";\nimport \"./User.sol\"; \nimport \"./Post.sol\"; \n\ncontract Comment is Ownable {\n    Post parentPost;\n\n    constructor(address _postAddress) public {\n        parentPost = Post(_postAddress);\n        owner = msg.sender;\n    }\n\n    function createReply(string _replyText) public {\n        parentPost.createComment(address(this), owner, _replyText);\n    }\n}",
  "sourcePath": "/Users/jarenlynch/Ethereum/Tartarus/contracts/Comment.sol",
  "compiler": {
    "name": "solc",
    "version": "0.4.24+commit.e67f0147.Emscripten.clang"
  },
  "schemaVersion": "2.0.1",
  "updatedAt": "2018-11-04T07:31:25.758Z"
}