{
  "contractName": "ForumFactory",
  "abi": [
    {
      "constant": false,
      "inputs": [],
      "name": "renounceOwnership",
      "outputs": [],
      "payable": false,
      "stateMutability": "nonpayable",
      "type": "function"
    },
    {
      "constant": true,
      "inputs": [],
      "name": "owner",
      "outputs": [
        {
          "name": "",
          "type": "address"
        }
      ],
      "payable": false,
      "stateMutability": "view",
      "type": "function"
    },
    {
      "constant": false,
      "inputs": [
        {
          "name": "_newOwner",
          "type": "address"
        }
      ],
      "name": "transferOwnership",
      "outputs": [],
      "payable": false,
      "stateMutability": "nonpayable",
      "type": "function"
    },
    {
      "anonymous": false,
      "inputs": [
        {
          "indexed": false,
          "name": "forumAddress",
          "type": "address"
        },
        {
          "indexed": false,
          "name": "forumName",
          "type": "string"
        },
        {
          "indexed": false,
          "name": "forumOwner",
          "type": "address"
        },
        {
          "indexed": false,
          "name": "timstamp",
          "type": "uint256"
        }
      ],
      "name": "ForumCreated",
      "type": "event"
    },
    {
      "anonymous": false,
      "inputs": [
        {
          "indexed": true,
          "name": "previousOwner",
          "type": "address"
        }
      ],
      "name": "OwnershipRenounced",
      "type": "event"
    },
    {
      "anonymous": false,
      "inputs": [
        {
          "indexed": true,
          "name": "previousOwner",
          "type": "address"
        },
        {
          "indexed": true,
          "name": "newOwner",
          "type": "address"
        }
      ],
      "name": "OwnershipTransferred",
      "type": "event"
    },
    {
      "constant": false,
      "inputs": [
        {
          "name": "_forumName",
          "type": "string"
        }
      ],
      "name": "createForum",
      "outputs": [],
      "payable": false,
      "stateMutability": "nonpayable",
      "type": "function"
    }
  ],
  "bytecode": "0x608060405260008054600160a060020a03191633179055611586806100256000396000f3006080604052600436106100615763ffffffff7c0100000000000000000000000000000000000000000000000000000000600035041663715018a681146100665780638da5cb5b1461007d578063a232e64b146100bb578063f2fde38b14610114575b600080fd5b34801561007257600080fd5b5061007b610142565b005b34801561008957600080fd5b506100926101c8565b6040805173ffffffffffffffffffffffffffffffffffffffff9092168252519081900360200190f35b3480156100c757600080fd5b506040805160206004803580820135601f810184900484028501840190955284845261007b9436949293602493928401919081908401838280828437509497506101e49650505050505050565b34801561012057600080fd5b5061007b73ffffffffffffffffffffffffffffffffffffffff600435166104a8565b60005473ffffffffffffffffffffffffffffffffffffffff16331461016657600080fd5b6000805460405173ffffffffffffffffffffffffffffffffffffffff909116917ff8df31144d9c2f0f6b59d69b8b98abd5459d07f2742c4df920b25aae33c6482091a26000805473ffffffffffffffffffffffffffffffffffffffff19169055565b60005473ffffffffffffffffffffffffffffffffffffffff1681565b60006001826040518082805190602001908083835b602083106102185780518252601f1990920191602091820191016101f9565b51815160209384036101000a600019018019909216911617905292019485525060405193849003019092205473ffffffffffffffffffffffffffffffffffffffff161591506102ca905057604080517f08c379a000000000000000000000000000000000000000000000000000000000815260206004820152601460248201527f466f72756d20616c726561647920657869737473000000000000000000000000604482015290519081900360640190fd5b816102d361057c565b60208082528251818301528251829160408301919085019080838360005b838110156103095781810151838201526020016102f1565b50505050905090810190601f1680156103365780820380516001836020036101000a031916815260200191505b5092505050604051809103906000f080158015610357573d6000803e3d6000fd5b509050806001836040518082805190602001908083835b6020831061038d5780518252601f19909201916020918201910161036e565b51815160209384036101000a6000190180199092169116179052920194855250604080519485900382018520805473ffffffffffffffffffffffffffffffffffffffff191673ffffffffffffffffffffffffffffffffffffffff9788161790559486168452339484018590524260608501819052608085830181815289519187019190915288517f7b3147a6dfee16f790c4a4bb4551647874bceee5636d8eb53938d99a0bc668ef9789978b9750909550929360a08401919087019080838360005b8381101561046757818101518382015260200161044f565b50505050905090810190601f1680156104945780820380516001836020036101000a031916815260200191505b509550505050505060405180910390a15050565b60005473ffffffffffffffffffffffffffffffffffffffff1633146104cc57600080fd5b6104d5816104d8565b50565b73ffffffffffffffffffffffffffffffffffffffff811615156104fa57600080fd5b6000805460405173ffffffffffffffffffffffffffffffffffffffff808516939216917f8be0079c531659141344cd1fd0a4f28419497f9722a3daafe3b4186f6b6457e091a36000805473ffffffffffffffffffffffffffffffffffffffff191673ffffffffffffffffffffffffffffffffffffffff92909216919091179055565b604051610fce8061058d833901905600608060405234801561001057600080fd5b50604051610fce380380610fce83398101604052805160008054600160a060020a0319163317905501805161004c906001906020840190610065565b505060008054600160a060020a03191633179055610100565b828054600181600116156101000203166002900490600052602060002090601f016020900481019282601f106100a657805160ff19168380011785556100d3565b828001600101855582156100d3579182015b828111156100d35782518255916020019190600101906100b8565b506100df9291506100e3565b5090565b6100fd91905b808211156100df57600081556001016100e9565b90565b610ebf8061010f6000396000f3006080604052600436106100775763ffffffff7c010000000000000000000000000000000000000000000000000000000060003504166310d86b1f811461007c578063715018a61461009f5780638da5cb5b146100b4578063908e5a8f146100e5578063c7303c6114610106578063f2fde38b1461015f575b600080fd5b34801561008857600080fd5b5061009d600160a060020a0360043516610180565b005b3480156100ab57600080fd5b5061009d6101d6565b3480156100c057600080fd5b506100c9610242565b60408051600160a060020a039092168252519081900360200190f35b3480156100f157600080fd5b5061009d600160a060020a0360043516610251565b34801561011257600080fd5b506040805160206004803580820135601f810184900484028501840190955284845261009d9436949293602493928401919081908401838280828437509497506102a79650505050505050565b34801561016b57600080fd5b5061009d600160a060020a0360043516610492565b600054600160a060020a0316331461019757600080fd5b60408051600160a060020a038316815290517f8f411ad66fd8225d9c3c7c72fd2429139958913fa5c5114dce1c984e069a4f699181900360200190a150565b600054600160a060020a031633146101ed57600080fd5b60008054604051600160a060020a03909116917ff8df31144d9c2f0f6b59d69b8b98abd5459d07f2742c4df920b25aae33c6482091a26000805473ffffffffffffffffffffffffffffffffffffffff19169055565b600054600160a060020a031681565b600054600160a060020a0316331461026857600080fd5b60408051600160a060020a038316815290517f26d6a37a4abb33fb6e942eb5bf6c659ea2b3031d99159305ec4fdd0adc7551cf9181900360200190a150565b6000806102b2610532565b604051809103906000f0801580156102ce573d6000803e3d6000fd5b50604080517ffe7ec5a5000000000000000000000000000000000000000000000000000000008152600160a060020a0383166004820190815260248201928352865160448301528651939550339450849363fe7ec5a5938793899392606490910190602085019080838360005b8381101561035357818101518382015260200161033b565b50505050905090810190601f1680156103805780820380516001836020036101000a031916815260200191505b509350505050600060405180830381600087803b1580156103a057600080fd5b505af11580156103b4573d6000803e3d6000fd5b505050507f3d40f91fcc750d3265694f14e3f40ca432ef63c0e2ca858eec6a1ae3b6b827e1828433426040518085600160a060020a0316600160a060020a031681526020018060200184600160a060020a0316600160a060020a03168152602001838152602001828103825285818151815260200191508051906020019080838360005b83811015610450578181015183820152602001610438565b50505050905090810190601f16801561047d5780820380516001836020036101000a031916815260200191505b509550505050505060405180910390a1505050565b600054600160a060020a031633146104a957600080fd5b6104b2816104b5565b50565b600160a060020a03811615156104ca57600080fd5b60008054604051600160a060020a03808516939216917f8be0079c531659141344cd1fd0a4f28419497f9722a3daafe3b4186f6b6457e091a36000805473ffffffffffffffffffffffffffffffffffffffff1916600160a060020a0392909216919091179055565b60405161095180610543833901905600608060405234801561001057600080fd5b5060008054600160a060020a0319908116339081179091161790556109178061003a6000396000f3006080604052600436106100615763ffffffff7c0100000000000000000000000000000000000000000000000000000000600035041663715018a681146100665780638da5cb5b1461007d5780639935d96d146100ae578063f2fde38b1461011d575b600080fd5b34801561007257600080fd5b5061007b61013e565b005b34801561008957600080fd5b506100926101aa565b60408051600160a060020a039092168252519081900360200190f35b3480156100ba57600080fd5b50604080516020600460443581810135601f810184900484028501840190955284845261007b948235600160a060020a03908116956024803590921695369594606494929301919081908401838280828437509497506101b99650505050505050565b34801561012957600080fd5b5061007b600160a060020a03600435166103e9565b600054600160a060020a0316331461015557600080fd5b60008054604051600160a060020a03909116917ff8df31144d9c2f0f6b59d69b8b98abd5459d07f2742c4df920b25aae33c6482091a26000805473ffffffffffffffffffffffffffffffffffffffff19169055565b600054600160a060020a031681565b600080846101c5610489565b600160a060020a03909116815260405190819003602001906000f0801580156101f2573d6000803e3d6000fd5b506040517f13abee4d000000000000000000000000000000000000000000000000000000008152600160a060020a038781166004830190815281841660248401523360448401819052608060648501908152885160848601528851959750899650928616946313abee4d948b9489948b93909260a40190602085019080838360005b8381101561028c578181015183820152602001610274565b50505050905090810190601f1680156102b95780820380516001836020036101000a031916815260200191505b5095505050505050600060405180830381600087803b1580156102db57600080fd5b505af11580156102ef573d6000803e3d6000fd5b505050507f94cbbea5a30af22ff1d42cc982a8552d426bf76599962683addabbffb6c03dfc85833386426040518086600160a060020a0316600160a060020a0316815260200185600160a060020a0316600160a060020a0316815260200184600160a060020a0316600160a060020a0316815260200180602001838152602001828103825284818151815260200191508051906020019080838360005b838110156103a457818101518382015260200161038c565b50505050905090810190601f1680156103d15780820380516001836020036101000a031916815260200191505b50965050505050505060405180910390a15050505050565b600054600160a060020a0316331461040057600080fd5b6104098161040c565b50565b600160a060020a038116151561042157600080fd5b60008054604051600160a060020a03808516939216917f8be0079c531659141344cd1fd0a4f28419497f9722a3daafe3b4186f6b6457e091a36000805473ffffffffffffffffffffffffffffffffffffffff1916600160a060020a0392909216919091179055565b6040516104528061049a833901905600608060405234801561001057600080fd5b5060405160208061045283398101604052516000805460018054600160a060020a03909416600160a060020a031994851617905582163390811790921690911790556103f1806100616000396000f3006080604052600436106100615763ffffffff7c010000000000000000000000000000000000000000000000000000000060003504166360367c698114610066578063715018a6146100c15780638da5cb5b146100d6578063f2fde38b14610114575b600080fd5b34801561007257600080fd5b506040805160206004803580820135601f81018490048402850184019095528484526100bf9436949293602493928401919081908401838280828437509497506101429650505050505050565b005b3480156100cd57600080fd5b506100bf61024f565b3480156100e257600080fd5b506100eb6102d5565b6040805173ffffffffffffffffffffffffffffffffffffffff9092168252519081900360200190f35b34801561012057600080fd5b506100bf73ffffffffffffffffffffffffffffffffffffffff600435166102f1565b600154600080546040517f9935d96d000000000000000000000000000000000000000000000000000000008152306004820181815273ffffffffffffffffffffffffffffffffffffffff938416602484018190526060604485019081528851606486015288519590971696639935d96d9693959194899491926084909101916020860191908190849084905b838110156101e65781810151838201526020016101ce565b50505050905090810190601f1680156102135780820380516001836020036101000a031916815260200191505b50945050505050600060405180830381600087803b15801561023457600080fd5b505af1158015610248573d6000803e3d6000fd5b5050505050565b60005473ffffffffffffffffffffffffffffffffffffffff16331461027357600080fd5b6000805460405173ffffffffffffffffffffffffffffffffffffffff909116917ff8df31144d9c2f0f6b59d69b8b98abd5459d07f2742c4df920b25aae33c6482091a26000805473ffffffffffffffffffffffffffffffffffffffff19169055565b60005473ffffffffffffffffffffffffffffffffffffffff1681565b60005473ffffffffffffffffffffffffffffffffffffffff16331461031557600080fd5b61031e81610321565b50565b73ffffffffffffffffffffffffffffffffffffffff8116151561034357600080fd5b6000805460405173ffffffffffffffffffffffffffffffffffffffff808516939216917f8be0079c531659141344cd1fd0a4f28419497f9722a3daafe3b4186f6b6457e091a36000805473ffffffffffffffffffffffffffffffffffffffff191673ffffffffffffffffffffffffffffffffffffffff929092169190911790555600a165627a7a723058205dbd8b98e3ab6d0826d30f1b68adec9c8ba77143d7d5678d2a5136ff9f5684870029a165627a7a723058208780d5970702fee4c00d11367360644eab43b4b99fa73a21407228a5c647465b0029a165627a7a7230582014e0d05a890ddb227604c26bd94e2446dfd7bde1e9cddbbc80f88dd16b3db0a00029a165627a7a72305820fa256720bf4d3634962ed35831ccaa11433aecb62a4c0f796351ca6cdaa764b10029",
  "source": "pragma solidity ^0.4.24;\n\nimport \"./Forum.sol\"; \nimport \"openzeppelin-solidity/contracts/ownership/Ownable.sol\";\n\ncontract ForumFactory is Ownable {\n    event ForumCreated(address forumAddress, string forumName, address forumOwner, uint timstamp);  \n    mapping (string => address) forums;\n\n    function createForum(string _forumName) public {\n        require(forums[_forumName] == 0, \"Forum already exists\");\n        address newForumAddress = new Forum(_forumName);\n        forums[_forumName] = newForumAddress;\n        emit ForumCreated(newForumAddress, _forumName, msg.sender, block.timestamp);\n    }\n}",
  "sourcePath": "/Users/jarenlynch/Ethereum/tartarus/contracts/ForumFactory.sol",
  "compiler": {
    "name": "solc",
    "version": "0.4.24+commit.e67f0147.Emscripten.clang"
  },
  "schemaVersion": "2.0.1",
  "updatedAt": "2018-10-19T02:03:56.987Z"
}