{
  "contractName": "Forum",
  "abi": [
    {
      "constant": false,
      "inputs": [],
      "name": "renounceOwnership",
      "outputs": [],
      "payable": false,
      "stateMutability": "nonpayable",
      "type": "function"
    },
    {
      "constant": true,
      "inputs": [],
      "name": "owner",
      "outputs": [
        {
          "name": "",
          "type": "address"
        }
      ],
      "payable": false,
      "stateMutability": "view",
      "type": "function"
    },
    {
      "constant": true,
      "inputs": [],
      "name": "forumName",
      "outputs": [
        {
          "name": "",
          "type": "string"
        }
      ],
      "payable": false,
      "stateMutability": "view",
      "type": "function"
    },
    {
      "constant": false,
      "inputs": [
        {
          "name": "_newOwner",
          "type": "address"
        }
      ],
      "name": "transferOwnership",
      "outputs": [],
      "payable": false,
      "stateMutability": "nonpayable",
      "type": "function"
    },
    {
      "inputs": [
        {
          "name": "_forumName",
          "type": "string"
        }
      ],
      "payable": false,
      "stateMutability": "nonpayable",
      "type": "constructor"
    },
    {
      "anonymous": false,
      "inputs": [
        {
          "indexed": false,
          "name": "userAddress",
          "type": "address"
        }
      ],
      "name": "UserBanned",
      "type": "event"
    },
    {
      "anonymous": false,
      "inputs": [
        {
          "indexed": false,
          "name": "userAddress",
          "type": "address"
        }
      ],
      "name": "UserUnbanned",
      "type": "event"
    },
    {
      "anonymous": false,
      "inputs": [
        {
          "indexed": false,
          "name": "postAddress",
          "type": "address"
        },
        {
          "indexed": false,
          "name": "postTitle",
          "type": "string"
        },
        {
          "indexed": false,
          "name": "postOwner",
          "type": "address"
        },
        {
          "indexed": false,
          "name": "timestamp",
          "type": "uint256"
        }
      ],
      "name": "PostCreated",
      "type": "event"
    },
    {
      "anonymous": false,
      "inputs": [
        {
          "indexed": true,
          "name": "previousOwner",
          "type": "address"
        }
      ],
      "name": "OwnershipRenounced",
      "type": "event"
    },
    {
      "anonymous": false,
      "inputs": [
        {
          "indexed": true,
          "name": "previousOwner",
          "type": "address"
        },
        {
          "indexed": true,
          "name": "newOwner",
          "type": "address"
        }
      ],
      "name": "OwnershipTransferred",
      "type": "event"
    },
    {
      "constant": false,
      "inputs": [
        {
          "name": "_userAddress",
          "type": "address"
        }
      ],
      "name": "banUser",
      "outputs": [],
      "payable": false,
      "stateMutability": "nonpayable",
      "type": "function"
    },
    {
      "constant": false,
      "inputs": [
        {
          "name": "_userAddress",
          "type": "address"
        }
      ],
      "name": "unBanUser",
      "outputs": [],
      "payable": false,
      "stateMutability": "nonpayable",
      "type": "function"
    },
    {
      "constant": false,
      "inputs": [
        {
          "name": "_postTitle",
          "type": "string"
        }
      ],
      "name": "createPost",
      "outputs": [],
      "payable": false,
      "stateMutability": "nonpayable",
      "type": "function"
    }
  ],
  "bytecode": "0x608060405234801561001057600080fd5b50604051610ffc380380610ffc8339810160405280516000805433600160a060020a0319918216811790911617905501805161005390600190602084019061005a565b50506100f5565b828054600181600116156101000203166002900490600052602060002090601f016020900481019282601f1061009b57805160ff19168380011785556100c8565b828001600101855582156100c8579182015b828111156100c85782518255916020019190600101906100ad565b506100d49291506100d8565b5090565b6100f291905b808211156100d457600081556001016100de565b90565b610ef8806101046000396000f3006080604052600436106100825763ffffffff7c010000000000000000000000000000000000000000000000000000000060003504166310d86b1f8114610087578063715018a6146100aa5780638da5cb5b146100bf578063908e5a8f146100f0578063c7303c6114610111578063ee00e4a61461016a578063f2fde38b146101f4575b600080fd5b34801561009357600080fd5b506100a8600160a060020a0360043516610215565b005b3480156100b657600080fd5b506100a861026b565b3480156100cb57600080fd5b506100d46102d7565b60408051600160a060020a039092168252519081900360200190f35b3480156100fc57600080fd5b506100a8600160a060020a03600435166102e6565b34801561011d57600080fd5b506040805160206004803580820135601f81018490048402850184019095528484526100a894369492936024939284019190819084018382808284375094975061033c9650505050505050565b34801561017657600080fd5b5061017f61043e565b6040805160208082528351818301528351919283929083019185019080838360005b838110156101b95781810151838201526020016101a1565b50505050905090810190601f1680156101e65780820380516001836020036101000a031916815260200191505b509250505060405180910390f35b34801561020057600080fd5b506100a8600160a060020a03600435166104cb565b600054600160a060020a0316331461022c57600080fd5b60408051600160a060020a038316815290517f8f411ad66fd8225d9c3c7c72fd2429139958913fa5c5114dce1c984e069a4f699181900360200190a150565b600054600160a060020a0316331461028257600080fd5b60008054604051600160a060020a03909116917ff8df31144d9c2f0f6b59d69b8b98abd5459d07f2742c4df920b25aae33c6482091a26000805473ffffffffffffffffffffffffffffffffffffffff19169055565b600054600160a060020a031681565b600054600160a060020a031633146102fd57600080fd5b60408051600160a060020a038316815290517f26d6a37a4abb33fb6e942eb5bf6c659ea2b3031d99159305ec4fdd0adc7551cf9181900360200190a150565b600061034661056b565b604051809103906000f080158015610362573d6000803e3d6000fd5b5090507f3d40f91fcc750d3265694f14e3f40ca432ef63c0e2ca858eec6a1ae3b6b827e1818333426040518085600160a060020a0316600160a060020a031681526020018060200184600160a060020a0316600160a060020a03168152602001838152602001828103825285818151815260200191508051906020019080838360005b838110156103fd5781810151838201526020016103e5565b50505050905090810190601f16801561042a5780820380516001836020036101000a031916815260200191505b509550505050505060405180910390a15050565b60018054604080516020600284861615610100026000190190941693909304601f810184900484028201840190925281815292918301828280156104c35780601f10610498576101008083540402835291602001916104c3565b820191906000526020600020905b8154815290600101906020018083116104a657829003601f168201915b505050505081565b600054600160a060020a031633146104e257600080fd5b6104eb816104ee565b50565b600160a060020a038116151561050357600080fd5b60008054604051600160a060020a03808516939216917f8be0079c531659141344cd1fd0a4f28419497f9722a3daafe3b4186f6b6457e091a36000805473ffffffffffffffffffffffffffffffffffffffff1916600160a060020a0392909216919091179055565b6040516109518061057c833901905600608060405234801561001057600080fd5b5060008054600160a060020a0319908116339081179091161790556109178061003a6000396000f3006080604052600436106100615763ffffffff7c0100000000000000000000000000000000000000000000000000000000600035041663715018a681146100665780638da5cb5b1461007d5780639935d96d146100ae578063f2fde38b1461011d575b600080fd5b34801561007257600080fd5b5061007b61013e565b005b34801561008957600080fd5b506100926101aa565b60408051600160a060020a039092168252519081900360200190f35b3480156100ba57600080fd5b50604080516020600460443581810135601f810184900484028501840190955284845261007b948235600160a060020a03908116956024803590921695369594606494929301919081908401838280828437509497506101b99650505050505050565b34801561012957600080fd5b5061007b600160a060020a03600435166103e9565b600054600160a060020a0316331461015557600080fd5b60008054604051600160a060020a03909116917ff8df31144d9c2f0f6b59d69b8b98abd5459d07f2742c4df920b25aae33c6482091a26000805473ffffffffffffffffffffffffffffffffffffffff19169055565b600054600160a060020a031681565b600080846101c5610489565b600160a060020a03909116815260405190819003602001906000f0801580156101f2573d6000803e3d6000fd5b506040517f13abee4d000000000000000000000000000000000000000000000000000000008152600160a060020a038781166004830190815281841660248401523360448401819052608060648501908152885160848601528851959750899650928616946313abee4d948b9489948b93909260a40190602085019080838360005b8381101561028c578181015183820152602001610274565b50505050905090810190601f1680156102b95780820380516001836020036101000a031916815260200191505b5095505050505050600060405180830381600087803b1580156102db57600080fd5b505af11580156102ef573d6000803e3d6000fd5b505050507f94cbbea5a30af22ff1d42cc982a8552d426bf76599962683addabbffb6c03dfc85833386426040518086600160a060020a0316600160a060020a0316815260200185600160a060020a0316600160a060020a0316815260200184600160a060020a0316600160a060020a0316815260200180602001838152602001828103825284818151815260200191508051906020019080838360005b838110156103a457818101518382015260200161038c565b50505050905090810190601f1680156103d15780820380516001836020036101000a031916815260200191505b50965050505050505060405180910390a15050505050565b600054600160a060020a0316331461040057600080fd5b6104098161040c565b50565b600160a060020a038116151561042157600080fd5b60008054604051600160a060020a03808516939216917f8be0079c531659141344cd1fd0a4f28419497f9722a3daafe3b4186f6b6457e091a36000805473ffffffffffffffffffffffffffffffffffffffff1916600160a060020a0392909216919091179055565b6040516104528061049a833901905600608060405234801561001057600080fd5b5060405160208061045283398101604052516000805460018054600160a060020a03909416600160a060020a031994851617905582163390811790921690911790556103f1806100616000396000f3006080604052600436106100615763ffffffff7c010000000000000000000000000000000000000000000000000000000060003504166360367c698114610066578063715018a6146100c15780638da5cb5b146100d6578063f2fde38b14610114575b600080fd5b34801561007257600080fd5b506040805160206004803580820135601f81018490048402850184019095528484526100bf9436949293602493928401919081908401838280828437509497506101429650505050505050565b005b3480156100cd57600080fd5b506100bf61024f565b3480156100e257600080fd5b506100eb6102d5565b6040805173ffffffffffffffffffffffffffffffffffffffff9092168252519081900360200190f35b34801561012057600080fd5b506100bf73ffffffffffffffffffffffffffffffffffffffff600435166102f1565b600154600080546040517f9935d96d000000000000000000000000000000000000000000000000000000008152306004820181815273ffffffffffffffffffffffffffffffffffffffff938416602484018190526060604485019081528851606486015288519590971696639935d96d9693959194899491926084909101916020860191908190849084905b838110156101e65781810151838201526020016101ce565b50505050905090810190601f1680156102135780820380516001836020036101000a031916815260200191505b50945050505050600060405180830381600087803b15801561023457600080fd5b505af1158015610248573d6000803e3d6000fd5b5050505050565b60005473ffffffffffffffffffffffffffffffffffffffff16331461027357600080fd5b6000805460405173ffffffffffffffffffffffffffffffffffffffff909116917ff8df31144d9c2f0f6b59d69b8b98abd5459d07f2742c4df920b25aae33c6482091a26000805473ffffffffffffffffffffffffffffffffffffffff19169055565b60005473ffffffffffffffffffffffffffffffffffffffff1681565b60005473ffffffffffffffffffffffffffffffffffffffff16331461031557600080fd5b61031e81610321565b50565b73ffffffffffffffffffffffffffffffffffffffff8116151561034357600080fd5b6000805460405173ffffffffffffffffffffffffffffffffffffffff808516939216917f8be0079c531659141344cd1fd0a4f28419497f9722a3daafe3b4186f6b6457e091a36000805473ffffffffffffffffffffffffffffffffffffffff191673ffffffffffffffffffffffffffffffffffffffff929092169190911790555600a165627a7a723058206281ab83637d5157d266b7a0cd149eaa3886417cb285fca69e67350437450d560029a165627a7a72305820472b9491ed13dadeaf65c1ab2d6e63b5ae1b6ea630c41302206e808c3e5812bb0029a165627a7a72305820e7217721cc083820cfdc96aeb9298853837a94873802313fc4a10d19eb1dfa0e0029",
  "source": "pragma solidity ^0.4.24;\n\nimport \"openzeppelin-solidity/contracts/ownership/Ownable.sol\";\nimport \"./Post.sol\"; \nimport \"./User.sol\"; \n\ncontract Forum is Ownable {\n    event UserBanned(address userAddress);\n    event UserUnbanned(address userAddress);\n    event PostCreated (address postAddress, string postTitle, address postOwner, uint timestamp);  \n\n    string public forumName;\n\n    constructor(string _forumName) public {\n        owner = msg.sender;\n        forumName = _forumName;\n    }\n\n    function banUser(address _userAddress) public onlyOwner {\n        emit UserBanned(_userAddress);\n    }\n\n    function unBanUser(address _userAddress) public onlyOwner {\n        emit UserUnbanned(_userAddress);\n    }\n\n    function createPost(string _postTitle) public {\n        address newPostAddress = new Post();\n        // User postCreator = User(msg.sender);\n        // postCreator.createPost(newPostAddress, _postTitle);\n        emit PostCreated(newPostAddress, _postTitle, msg.sender, block.timestamp);\n    }\n}",
  "sourcePath": "/Users/jarenlynch/Ethereum/Tartarus/contracts/Forum.sol",
  "compiler": {
    "name": "solc",
    "version": "0.4.24+commit.e67f0147.Emscripten.clang"
  },
  "schemaVersion": "2.0.1",
  "updatedAt": "2018-11-14T06:09:36.805Z"
}