{
  "contractName": "PostFactory",
  "abi": [
    {
      "constant": false,
      "inputs": [],
      "name": "renounceOwnership",
      "outputs": [],
      "payable": false,
      "stateMutability": "nonpayable",
      "type": "function"
    },
    {
      "constant": true,
      "inputs": [],
      "name": "owner",
      "outputs": [
        {
          "name": "",
          "type": "address"
        }
      ],
      "payable": false,
      "stateMutability": "view",
      "type": "function"
    },
    {
      "constant": false,
      "inputs": [
        {
          "name": "_newOwner",
          "type": "address"
        }
      ],
      "name": "transferOwnership",
      "outputs": [],
      "payable": false,
      "stateMutability": "nonpayable",
      "type": "function"
    },
    {
      "anonymous": false,
      "inputs": [
        {
          "indexed": false,
          "name": "postAddress",
          "type": "address"
        },
        {
          "indexed": false,
          "name": "posttitle",
          "type": "string"
        },
        {
          "indexed": false,
          "name": "postOwner",
          "type": "address"
        },
        {
          "indexed": false,
          "name": "timestamp",
          "type": "uint256"
        }
      ],
      "name": "PostCreated",
      "type": "event"
    },
    {
      "anonymous": false,
      "inputs": [
        {
          "indexed": true,
          "name": "previousOwner",
          "type": "address"
        }
      ],
      "name": "OwnershipRenounced",
      "type": "event"
    },
    {
      "anonymous": false,
      "inputs": [
        {
          "indexed": true,
          "name": "previousOwner",
          "type": "address"
        },
        {
          "indexed": true,
          "name": "newOwner",
          "type": "address"
        }
      ],
      "name": "OwnershipTransferred",
      "type": "event"
    },
    {
      "constant": false,
      "inputs": [
        {
          "name": "_postTitle",
          "type": "string"
        }
      ],
      "name": "createPost",
      "outputs": [],
      "payable": false,
      "stateMutability": "nonpayable",
      "type": "function"
    }
  ],
  "bytecode": "0x608060405260008054600160a060020a03191633179055610e71806100256000396000f3006080604052600436106100615763ffffffff7c0100000000000000000000000000000000000000000000000000000000600035041663715018a681146100665780638da5cb5b1461007d578063c7303c61146100bb578063f2fde38b14610114575b600080fd5b34801561007257600080fd5b5061007b610142565b005b34801561008957600080fd5b506100926101c8565b6040805173ffffffffffffffffffffffffffffffffffffffff9092168252519081900360200190f35b3480156100c757600080fd5b506040805160206004803580820135601f810184900484028501840190955284845261007b9436949293602493928401919081908401838280828437509497506101e49650505050505050565b34801561012057600080fd5b5061007b73ffffffffffffffffffffffffffffffffffffffff60043516610410565b60005473ffffffffffffffffffffffffffffffffffffffff16331461016657600080fd5b6000805460405173ffffffffffffffffffffffffffffffffffffffff909116917ff8df31144d9c2f0f6b59d69b8b98abd5459d07f2742c4df920b25aae33c6482091a26000805473ffffffffffffffffffffffffffffffffffffffff19169055565b60005473ffffffffffffffffffffffffffffffffffffffff1681565b6000806101ef6104e4565b604051809103906000f08015801561020b573d6000803e3d6000fd5b50604080517ffe7ec5a500000000000000000000000000000000000000000000000000000000815273ffffffffffffffffffffffffffffffffffffffff83166004820190815260248201928352865160448301528651939550339450849363fe7ec5a5938793899392606490910190602085019080838360005b8381101561029d578181015183820152602001610285565b50505050905090810190601f1680156102ca5780820380516001836020036101000a031916815260200191505b509350505050600060405180830381600087803b1580156102ea57600080fd5b505af11580156102fe573d6000803e3d6000fd5b505050507f3d40f91fcc750d3265694f14e3f40ca432ef63c0e2ca858eec6a1ae3b6b827e182843342604051808573ffffffffffffffffffffffffffffffffffffffff1673ffffffffffffffffffffffffffffffffffffffff168152602001806020018473ffffffffffffffffffffffffffffffffffffffff1673ffffffffffffffffffffffffffffffffffffffff168152602001838152602001828103825285818151815260200191508051906020019080838360005b838110156103ce5781810151838201526020016103b6565b50505050905090810190601f1680156103fb5780820380516001836020036101000a031916815260200191505b509550505050505060405180910390a1505050565b60005473ffffffffffffffffffffffffffffffffffffffff16331461043457600080fd5b61043d81610440565b50565b73ffffffffffffffffffffffffffffffffffffffff8116151561046257600080fd5b6000805460405173ffffffffffffffffffffffffffffffffffffffff808516939216917f8be0079c531659141344cd1fd0a4f28419497f9722a3daafe3b4186f6b6457e091a36000805473ffffffffffffffffffffffffffffffffffffffff191673ffffffffffffffffffffffffffffffffffffffff92909216919091179055565b604051610951806104f5833901905600608060405234801561001057600080fd5b5060008054600160a060020a0319908116339081179091161790556109178061003a6000396000f3006080604052600436106100615763ffffffff7c0100000000000000000000000000000000000000000000000000000000600035041663715018a681146100665780638da5cb5b1461007d5780639935d96d146100ae578063f2fde38b1461011d575b600080fd5b34801561007257600080fd5b5061007b61013e565b005b34801561008957600080fd5b506100926101aa565b60408051600160a060020a039092168252519081900360200190f35b3480156100ba57600080fd5b50604080516020600460443581810135601f810184900484028501840190955284845261007b948235600160a060020a03908116956024803590921695369594606494929301919081908401838280828437509497506101b99650505050505050565b34801561012957600080fd5b5061007b600160a060020a03600435166103e9565b600054600160a060020a0316331461015557600080fd5b60008054604051600160a060020a03909116917ff8df31144d9c2f0f6b59d69b8b98abd5459d07f2742c4df920b25aae33c6482091a26000805473ffffffffffffffffffffffffffffffffffffffff19169055565b600054600160a060020a031681565b600080846101c5610489565b600160a060020a03909116815260405190819003602001906000f0801580156101f2573d6000803e3d6000fd5b506040517f13abee4d000000000000000000000000000000000000000000000000000000008152600160a060020a038781166004830190815281841660248401523360448401819052608060648501908152885160848601528851959750899650928616946313abee4d948b9489948b93909260a40190602085019080838360005b8381101561028c578181015183820152602001610274565b50505050905090810190601f1680156102b95780820380516001836020036101000a031916815260200191505b5095505050505050600060405180830381600087803b1580156102db57600080fd5b505af11580156102ef573d6000803e3d6000fd5b505050507f94cbbea5a30af22ff1d42cc982a8552d426bf76599962683addabbffb6c03dfc85833386426040518086600160a060020a0316600160a060020a0316815260200185600160a060020a0316600160a060020a0316815260200184600160a060020a0316600160a060020a0316815260200180602001838152602001828103825284818151815260200191508051906020019080838360005b838110156103a457818101518382015260200161038c565b50505050905090810190601f1680156103d15780820380516001836020036101000a031916815260200191505b50965050505050505060405180910390a15050505050565b600054600160a060020a0316331461040057600080fd5b6104098161040c565b50565b600160a060020a038116151561042157600080fd5b60008054604051600160a060020a03808516939216917f8be0079c531659141344cd1fd0a4f28419497f9722a3daafe3b4186f6b6457e091a36000805473ffffffffffffffffffffffffffffffffffffffff1916600160a060020a0392909216919091179055565b6040516104528061049a833901905600608060405234801561001057600080fd5b5060405160208061045283398101604052516000805460018054600160a060020a03909416600160a060020a031994851617905582163390811790921690911790556103f1806100616000396000f3006080604052600436106100615763ffffffff7c010000000000000000000000000000000000000000000000000000000060003504166360367c698114610066578063715018a6146100c15780638da5cb5b146100d6578063f2fde38b14610114575b600080fd5b34801561007257600080fd5b506040805160206004803580820135601f81018490048402850184019095528484526100bf9436949293602493928401919081908401838280828437509497506101429650505050505050565b005b3480156100cd57600080fd5b506100bf61024f565b3480156100e257600080fd5b506100eb6102d5565b6040805173ffffffffffffffffffffffffffffffffffffffff9092168252519081900360200190f35b34801561012057600080fd5b506100bf73ffffffffffffffffffffffffffffffffffffffff600435166102f1565b600154600080546040517f9935d96d000000000000000000000000000000000000000000000000000000008152306004820181815273ffffffffffffffffffffffffffffffffffffffff938416602484018190526060604485019081528851606486015288519590971696639935d96d9693959194899491926084909101916020860191908190849084905b838110156101e65781810151838201526020016101ce565b50505050905090810190601f1680156102135780820380516001836020036101000a031916815260200191505b50945050505050600060405180830381600087803b15801561023457600080fd5b505af1158015610248573d6000803e3d6000fd5b5050505050565b60005473ffffffffffffffffffffffffffffffffffffffff16331461027357600080fd5b6000805460405173ffffffffffffffffffffffffffffffffffffffff909116917ff8df31144d9c2f0f6b59d69b8b98abd5459d07f2742c4df920b25aae33c6482091a26000805473ffffffffffffffffffffffffffffffffffffffff19169055565b60005473ffffffffffffffffffffffffffffffffffffffff1681565b60005473ffffffffffffffffffffffffffffffffffffffff16331461031557600080fd5b61031e81610321565b50565b73ffffffffffffffffffffffffffffffffffffffff8116151561034357600080fd5b6000805460405173ffffffffffffffffffffffffffffffffffffffff808516939216917f8be0079c531659141344cd1fd0a4f28419497f9722a3daafe3b4186f6b6457e091a36000805473ffffffffffffffffffffffffffffffffffffffff191673ffffffffffffffffffffffffffffffffffffffff929092169190911790555600a165627a7a7230582064b95429b45656cf87a7ef98ad7989685dd1f73f792558d254616a44aaa78aa20029a165627a7a72305820f06dd189c566c9714a240dbc5e258ae348eb11107c22b991485d80d5d2ae25070029a165627a7a723058201d7801707ce11c9523c5310d6d215348bd8a68e9d59c7e3d0a2e1c860202da670029",
  "source": "pragma solidity ^0.4.24;\n\nimport \"./Post.sol\"; \nimport \"./User.sol\"; \nimport \"openzeppelin-solidity/contracts/ownership/Ownable.sol\";\n\ncontract PostFactory is Ownable {\n    event PostCreated (address postAddress, string posttitle, address postOwner, uint timestamp);  \n\n    function createPost(string _postTitle) public {\n        address newPostAddress = new Post();\n        User postCreator = User(msg.sender);\n        postCreator.createPost(newPostAddress, _postTitle);\n        emit PostCreated(newPostAddress, _postTitle, msg.sender, block.timestamp);\n    }\n}",
  "sourcePath": "/Users/jarenlynch/Ethereum/Tartarus/contracts/PostFactory.sol",
  "compiler": {
    "name": "solc",
    "version": "0.4.24+commit.e67f0147.Emscripten.clang"
  },
  "schemaVersion": "2.0.1",
  "updatedAt": "2018-11-03T09:23:27.613Z"
}