{
  "contractName": "Post",
  "abi": [
    {
      "constant": false,
      "inputs": [],
      "name": "renounceOwnership",
      "outputs": [],
      "payable": false,
      "stateMutability": "nonpayable",
      "type": "function"
    },
    {
      "constant": true,
      "inputs": [],
      "name": "owner",
      "outputs": [
        {
          "name": "",
          "type": "address"
        }
      ],
      "payable": false,
      "stateMutability": "view",
      "type": "function"
    },
    {
      "constant": false,
      "inputs": [
        {
          "name": "_newOwner",
          "type": "address"
        }
      ],
      "name": "transferOwnership",
      "outputs": [],
      "payable": false,
      "stateMutability": "nonpayable",
      "type": "function"
    },
    {
      "inputs": [],
      "payable": false,
      "stateMutability": "nonpayable",
      "type": "constructor"
    },
    {
      "anonymous": false,
      "inputs": [
        {
          "indexed": false,
          "name": "parentAddress",
          "type": "address"
        },
        {
          "indexed": false,
          "name": "commentAddress",
          "type": "address"
        },
        {
          "indexed": false,
          "name": "senderAddress",
          "type": "address"
        },
        {
          "indexed": false,
          "name": "commentText",
          "type": "string"
        },
        {
          "indexed": false,
          "name": "timestamp",
          "type": "uint256"
        }
      ],
      "name": "CommentCreated",
      "type": "event"
    },
    {
      "anonymous": false,
      "inputs": [
        {
          "indexed": true,
          "name": "previousOwner",
          "type": "address"
        }
      ],
      "name": "OwnershipRenounced",
      "type": "event"
    },
    {
      "anonymous": false,
      "inputs": [
        {
          "indexed": true,
          "name": "previousOwner",
          "type": "address"
        },
        {
          "indexed": true,
          "name": "newOwner",
          "type": "address"
        }
      ],
      "name": "OwnershipTransferred",
      "type": "event"
    },
    {
      "constant": false,
      "inputs": [
        {
          "name": "_parentAddress",
          "type": "address"
        },
        {
          "name": "_parentAddressOwner",
          "type": "address"
        },
        {
          "name": "_commentText",
          "type": "string"
        }
      ],
      "name": "createComment",
      "outputs": [],
      "payable": false,
      "stateMutability": "nonpayable",
      "type": "function"
    }
  ],
  "bytecode": "0x608060405234801561001057600080fd5b5060008054600160a060020a0319908116339081179091161790556109178061003a6000396000f3006080604052600436106100615763ffffffff7c0100000000000000000000000000000000000000000000000000000000600035041663715018a681146100665780638da5cb5b1461007d5780639935d96d146100ae578063f2fde38b1461011d575b600080fd5b34801561007257600080fd5b5061007b61013e565b005b34801561008957600080fd5b506100926101aa565b60408051600160a060020a039092168252519081900360200190f35b3480156100ba57600080fd5b50604080516020600460443581810135601f810184900484028501840190955284845261007b948235600160a060020a03908116956024803590921695369594606494929301919081908401838280828437509497506101b99650505050505050565b34801561012957600080fd5b5061007b600160a060020a03600435166103e9565b600054600160a060020a0316331461015557600080fd5b60008054604051600160a060020a03909116917ff8df31144d9c2f0f6b59d69b8b98abd5459d07f2742c4df920b25aae33c6482091a26000805473ffffffffffffffffffffffffffffffffffffffff19169055565b600054600160a060020a031681565b600080846101c5610489565b600160a060020a03909116815260405190819003602001906000f0801580156101f2573d6000803e3d6000fd5b506040517f13abee4d000000000000000000000000000000000000000000000000000000008152600160a060020a038781166004830190815281841660248401523360448401819052608060648501908152885160848601528851959750899650928616946313abee4d948b9489948b93909260a40190602085019080838360005b8381101561028c578181015183820152602001610274565b50505050905090810190601f1680156102b95780820380516001836020036101000a031916815260200191505b5095505050505050600060405180830381600087803b1580156102db57600080fd5b505af11580156102ef573d6000803e3d6000fd5b505050507f94cbbea5a30af22ff1d42cc982a8552d426bf76599962683addabbffb6c03dfc85833386426040518086600160a060020a0316600160a060020a0316815260200185600160a060020a0316600160a060020a0316815260200184600160a060020a0316600160a060020a0316815260200180602001838152602001828103825284818151815260200191508051906020019080838360005b838110156103a457818101518382015260200161038c565b50505050905090810190601f1680156103d15780820380516001836020036101000a031916815260200191505b50965050505050505060405180910390a15050505050565b600054600160a060020a0316331461040057600080fd5b6104098161040c565b50565b600160a060020a038116151561042157600080fd5b60008054604051600160a060020a03808516939216917f8be0079c531659141344cd1fd0a4f28419497f9722a3daafe3b4186f6b6457e091a36000805473ffffffffffffffffffffffffffffffffffffffff1916600160a060020a0392909216919091179055565b6040516104528061049a833901905600608060405234801561001057600080fd5b5060405160208061045283398101604052516000805460018054600160a060020a03909416600160a060020a031994851617905582163390811790921690911790556103f1806100616000396000f3006080604052600436106100615763ffffffff7c010000000000000000000000000000000000000000000000000000000060003504166360367c698114610066578063715018a6146100c15780638da5cb5b146100d6578063f2fde38b14610114575b600080fd5b34801561007257600080fd5b506040805160206004803580820135601f81018490048402850184019095528484526100bf9436949293602493928401919081908401838280828437509497506101429650505050505050565b005b3480156100cd57600080fd5b506100bf61024f565b3480156100e257600080fd5b506100eb6102d5565b6040805173ffffffffffffffffffffffffffffffffffffffff9092168252519081900360200190f35b34801561012057600080fd5b506100bf73ffffffffffffffffffffffffffffffffffffffff600435166102f1565b600154600080546040517f9935d96d000000000000000000000000000000000000000000000000000000008152306004820181815273ffffffffffffffffffffffffffffffffffffffff938416602484018190526060604485019081528851606486015288519590971696639935d96d9693959194899491926084909101916020860191908190849084905b838110156101e65781810151838201526020016101ce565b50505050905090810190601f1680156102135780820380516001836020036101000a031916815260200191505b50945050505050600060405180830381600087803b15801561023457600080fd5b505af1158015610248573d6000803e3d6000fd5b5050505050565b60005473ffffffffffffffffffffffffffffffffffffffff16331461027357600080fd5b6000805460405173ffffffffffffffffffffffffffffffffffffffff909116917ff8df31144d9c2f0f6b59d69b8b98abd5459d07f2742c4df920b25aae33c6482091a26000805473ffffffffffffffffffffffffffffffffffffffff19169055565b60005473ffffffffffffffffffffffffffffffffffffffff1681565b60005473ffffffffffffffffffffffffffffffffffffffff16331461031557600080fd5b61031e81610321565b50565b73ffffffffffffffffffffffffffffffffffffffff8116151561034357600080fd5b6000805460405173ffffffffffffffffffffffffffffffffffffffff808516939216917f8be0079c531659141344cd1fd0a4f28419497f9722a3daafe3b4186f6b6457e091a36000805473ffffffffffffffffffffffffffffffffffffffff191673ffffffffffffffffffffffffffffffffffffffff929092169190911790555600a165627a7a723058206281ab83637d5157d266b7a0cd149eaa3886417cb285fca69e67350437450d560029a165627a7a72305820472b9491ed13dadeaf65c1ab2d6e63b5ae1b6ea630c41302206e808c3e5812bb0029",
  "source": "pragma solidity ^0.4.24;\n\nimport \"./Comment.sol\"; \nimport \"./User.sol\"; \nimport \"openzeppelin-solidity/contracts/ownership/Ownable.sol\";\n\ncontract Post is Ownable {\n    event CommentCreated (address parentAddress, address commentAddress, address senderAddress, string commentText, uint timestamp);  \n\n    constructor() public {\n        owner = msg.sender;\n    }\n\n    function createComment (address _parentAddress, address _parentAddressOwner, string _commentText) public {\n        address newCommentAddress = new Comment(_parentAddress);\n        User parentUser = User(_parentAddressOwner);\n        parentUser.receiveComment(_parentAddress, newCommentAddress, msg.sender, _commentText);\n        emit CommentCreated(_parentAddress, newCommentAddress, msg.sender, _commentText, block.timestamp);\n    }\n}",
  "sourcePath": "/Users/jarenlynch/Ethereum/Tartarus/contracts/Post.sol",
  "compiler": {
    "name": "solc",
    "version": "0.4.24+commit.e67f0147.Emscripten.clang"
  },
  "schemaVersion": "2.0.1",
  "updatedAt": "2018-11-04T07:31:25.759Z"
}