{
  "contractName": "Tartarus",
  "abi": [
    {
      "constant": false,
      "inputs": [
        {
          "name": "_newCost",
          "type": "uint256"
        }
      ],
      "name": "setCost",
      "outputs": [],
      "payable": false,
      "stateMutability": "nonpayable",
      "type": "function"
    },
    {
      "constant": false,
      "inputs": [
        {
          "name": "_username",
          "type": "string"
        }
      ],
      "name": "createUser",
      "outputs": [],
      "payable": true,
      "stateMutability": "payable",
      "type": "function"
    },
    {
      "constant": true,
      "inputs": [
        {
          "name": "_username",
          "type": "string"
        }
      ],
      "name": "checkUsernameAvailability",
      "outputs": [
        {
          "name": "",
          "type": "bool"
        }
      ],
      "payable": false,
      "stateMutability": "view",
      "type": "function"
    },
    {
      "constant": false,
      "inputs": [],
      "name": "renounceOwnership",
      "outputs": [],
      "payable": false,
      "stateMutability": "nonpayable",
      "type": "function"
    },
    {
      "constant": true,
      "inputs": [],
      "name": "owner",
      "outputs": [
        {
          "name": "",
          "type": "address"
        }
      ],
      "payable": false,
      "stateMutability": "view",
      "type": "function"
    },
    {
      "constant": false,
      "inputs": [
        {
          "name": "_forumName",
          "type": "string"
        }
      ],
      "name": "createForum",
      "outputs": [],
      "payable": false,
      "stateMutability": "nonpayable",
      "type": "function"
    },
    {
      "constant": false,
      "inputs": [
        {
          "name": "_newOwner",
          "type": "address"
        }
      ],
      "name": "transferOwnership",
      "outputs": [],
      "payable": false,
      "stateMutability": "nonpayable",
      "type": "function"
    },
    {
      "anonymous": false,
      "inputs": [
        {
          "indexed": false,
          "name": "adminAddress",
          "type": "address"
        }
      ],
      "name": "AdminCreated",
      "type": "event"
    },
    {
      "anonymous": false,
      "inputs": [
        {
          "indexed": false,
          "name": "userAddress",
          "type": "address"
        },
        {
          "indexed": false,
          "name": "userName",
          "type": "string"
        },
        {
          "indexed": false,
          "name": "timestamp",
          "type": "uint256"
        }
      ],
      "name": "UserCreated",
      "type": "event"
    },
    {
      "anonymous": false,
      "inputs": [
        {
          "indexed": false,
          "name": "forumAddress",
          "type": "address"
        },
        {
          "indexed": false,
          "name": "forumName",
          "type": "string"
        },
        {
          "indexed": false,
          "name": "forumOwner",
          "type": "address"
        },
        {
          "indexed": false,
          "name": "timstamp",
          "type": "uint256"
        }
      ],
      "name": "ForumCreated",
      "type": "event"
    },
    {
      "anonymous": false,
      "inputs": [
        {
          "indexed": true,
          "name": "previousOwner",
          "type": "address"
        }
      ],
      "name": "OwnershipRenounced",
      "type": "event"
    },
    {
      "anonymous": false,
      "inputs": [
        {
          "indexed": true,
          "name": "previousOwner",
          "type": "address"
        },
        {
          "indexed": true,
          "name": "newOwner",
          "type": "address"
        }
      ],
      "name": "OwnershipTransferred",
      "type": "event"
    },
    {
      "constant": false,
      "inputs": [
        {
          "name": "_adminAddress",
          "type": "address"
        }
      ],
      "name": "createAdmin",
      "outputs": [],
      "payable": false,
      "stateMutability": "nonpayable",
      "type": "function"
    }
  ],
  "bytecode": "0x6080604052600060028190558054600160a060020a031916331790556123fd8061002a6000396000f30060806040526004361061008d5763ffffffff7c010000000000000000000000000000000000000000000000000000000060003504166304020595811461009257806344a0d68a146100b5578063507ffba5146100cd5780635c1638a414610119578063715018a6146101865780638da5cb5b1461019b578063a232e64b146101cc578063f2fde38b14610225575b600080fd5b34801561009e57600080fd5b506100b3600160a060020a0360043516610246565b005b3480156100c157600080fd5b506100b360043561029c565b6040805160206004803580820135601f81018490048402850184019095528484526100b39436949293602493928401919081908401838280828437509497506102b89650505050505050565b34801561012557600080fd5b506040805160206004803580820135601f81018490048402850184019095528484526101729436949293602493928401919081908401838280828437509497506105619650505050505050565b604080519115158252519081900360200190f35b34801561019257600080fd5b506100b36105e5565b3480156101a757600080fd5b506101b0610651565b60408051600160a060020a039092168252519081900360200190f35b3480156101d857600080fd5b506040805160206004803580820135601f81018490048402850184019095528484526100b39436949293602493928401919081908401838280828437509497506106609650505050505050565b34801561023157600080fd5b506100b3600160a060020a03600435166107cb565b600054600160a060020a0316331461025d57600080fd5b60408051600160a060020a038316815290517f068138ab5baa0a8a7aadb0e73d78b0b40417344c7bba0f4387479260cc462d669181900360200190a150565b600054600160a060020a031633146102b357600080fd5b600255565b60025460009034101561032c57604080517f08c379a000000000000000000000000000000000000000000000000000000000815260206004820152601560248201527f496e73756666696369656e74204574682053656e740000000000000000000000604482015290519081900360640190fd5b6001826040518082805190602001908083835b6020831061035e5780518252601f19909201916020918201910161033f565b51815160209384036101000a6000190180199092169116179052920194855250604051938490030190922054600160a060020a0316159150610403905057604080517f08c379a000000000000000000000000000000000000000000000000000000000815260206004820152600e60248201527f557365726e616d652074616b656e000000000000000000000000000000000000604482015290519081900360640190fd5b61040b61086b565b604051809103906000f080158015610427573d6000803e3d6000fd5b509050336001836040518082805190602001908083835b6020831061045d5780518252601f19909201916020918201910161043e565b51815160209384036101000a6000190180199092169116179052920194855250604080519485900382018520805473ffffffffffffffffffffffffffffffffffffffff1916600160a060020a03978816179055948616845242948401859052606084820181815288519186019190915287517f196a149a119e63a40fb6cf63cc95b680cc1e42d985ede26ed52f560d7b68f8f39688968a96509094509260808401919086019080838360005b83811015610521578181015183820152602001610509565b50505050905090810190601f16801561054e5780820380516001836020036101000a031916815260200191505b5094505050505060405180910390a15050565b60006001826040518082805190602001908083835b602083106105955780518252601f199092019160209182019101610576565b51815160209384036101000a6000190180199092169116179052920194855250604051938490030190922054600160a060020a0316151591506105dc9050575060016105e0565b5060005b919050565b600054600160a060020a031633146105fc57600080fd5b60008054604051600160a060020a03909116917ff8df31144d9c2f0f6b59d69b8b98abd5459d07f2742c4df920b25aae33c6482091a26000805473ffffffffffffffffffffffffffffffffffffffff19169055565b600054600160a060020a031681565b60008161066b61087b565b60208082528251818301528251829160408301919085019080838360005b838110156106a1578181015183820152602001610689565b50505050905090810190601f1680156106ce5780820380516001836020036101000a031916815260200191505b5092505050604051809103906000f0801580156106ef573d6000803e3d6000fd5b5090507f7b3147a6dfee16f790c4a4bb4551647874bceee5636d8eb53938d99a0bc668ef818333426040518085600160a060020a0316600160a060020a031681526020018060200184600160a060020a0316600160a060020a03168152602001838152602001828103825285818151815260200191508051906020019080838360005b8381101561078a578181015183820152602001610772565b50505050905090810190601f1680156107b75780820380516001836020036101000a031916815260200191505b509550505050505060405180910390a15050565b600054600160a060020a031633146107e257600080fd5b6107eb816107ee565b50565b600160a060020a038116151561080357600080fd5b60008054604051600160a060020a03808516939216917f8be0079c531659141344cd1fd0a4f28419497f9722a3daafe3b4186f6b6457e091a36000805473ffffffffffffffffffffffffffffffffffffffff1916600160a060020a0392909216919091179055565b604051610b788061088c83390190565b604051610fce80611404833901905600608060405260008054600160a060020a03191633179055610b53806100256000396000f3006080604052600436106100a35763ffffffff7c010000000000000000000000000000000000000000000000000000000060003504166313abee4d81146100a85780632f049bf31461011c5780633c65974314610175578063715018a6146101dc5780638da5cb5b146101f15780639935d96d14610222578063cf74f1d514610291578063de6f24bb146102f8578063f2fde38b1461035f578063fe7ec5a514610380575b600080fd5b3480156100b457600080fd5b50604080516020601f60643560048181013592830184900484028501840190955281845261011a94600160a060020a0381358116956024803583169660443590931695369560849492019181908401838280828437509497506103e79650505050505050565b005b34801561012857600080fd5b506040805160206004803580820135601f810184900484028501840190955284845261011a9436949293602493928401919081908401838280828437509497506104d49650505050505050565b34801561018157600080fd5b5060408051602060046024803582810135601f810185900485028601850190965285855261011a958335600160a060020a031695369560449491939091019190819084018382808284375094975061058a9650505050505050565b3480156101e857600080fd5b5061011a610658565b3480156101fd57600080fd5b506102066106c4565b60408051600160a060020a039092168252519081900360200190f35b34801561022e57600080fd5b50604080516020600460443581810135601f810184900484028501840190955284845261011a948235600160a060020a03908116956024803590921695369594606494929301919081908401838280828437509497506106d39650505050505050565b34801561029d57600080fd5b5060408051602060046024803582810135601f810185900485028601850190965285855261011a958335600160a060020a03169536956044949193909101919081908401838280828437509497506107bc9650505050505050565b34801561030457600080fd5b5060408051602060046024803582810135601f810185900485028601850190965285855261011a958335600160a060020a031695369560449491939091019190819084018382808284375094975061084a9650505050505050565b34801561036b57600080fd5b5061011a600160a060020a03600435166109f9565b34801561038c57600080fd5b5060408051602060046024803582810135601f810185900485028601850190965285855261011a958335600160a060020a0316953695604494919390910191908190840183828082843750949750610a1c9650505050505050565b7f410e0ae0680310840c1fae460491cddce9f2f7154f9c4552bf30ed32d46cab0d848484846040518085600160a060020a0316600160a060020a0316815260200184600160a060020a0316600160a060020a0316815260200183600160a060020a0316600160a060020a0316815260200180602001828103825283818151815260200191508051906020019080838360005b83811015610491578181015183820152602001610479565b50505050905090810190601f1680156104be5780820380516001836020036101000a031916815260200191505b509550505050505060405180910390a150505050565b7f15340f1d3815fc99b59e3b9ed010321f64951d6e6a43c97a9e92713e7cd6ad1733826040518083600160a060020a0316600160a060020a0316815260200180602001828103825283818151815260200191508051906020019080838360005b8381101561054c578181015183820152602001610534565b50505050905090810190601f1680156105795780820380516001836020036101000a031916815260200191505b50935050505060405180910390a150565b600054600160a060020a031633146105a157600080fd5b7f488a925e484540bbc4dac0b2ce1897d0ee0cd513455d38975f43012934f510f682826040518083600160a060020a0316600160a060020a0316815260200180602001828103825283818151815260200191508051906020019080838360005b83811015610619578181015183820152602001610601565b50505050905090810190601f1680156106465780820380516001836020036101000a031916815260200191505b50935050505060405180910390a15050565b600054600160a060020a0316331461066f57600080fd5b60008054604051600160a060020a03909116917ff8df31144d9c2f0f6b59d69b8b98abd5459d07f2742c4df920b25aae33c6482091a26000805473ffffffffffffffffffffffffffffffffffffffff19169055565b600054600160a060020a031681565b600054600160a060020a031633146106ea57600080fd5b7f296fe35dc8ce64e09ba7e908a75dd4ed8d5a33b32853dddbaf86889d5d63b6908383836040518084600160a060020a0316600160a060020a0316815260200183600160a060020a0316600160a060020a0316815260200180602001828103825283818151815260200191508051906020019080838360005b8381101561077b578181015183820152602001610763565b50505050905090810190601f1680156107a85780820380516001836020036101000a031916815260200191505b5094505050505060405180910390a1505050565b600054600160a060020a031633146107d357600080fd5b7f8809845659a1ab6919c52382f7914c49c149b6a5a40675e2f8985a30a8d06b0082826040518083600160a060020a0316600160a060020a03168152602001806020018281038252838181518152602001915080519060200190808383600083811015610619578181015183820152602001610601565b60008054600160a060020a0316331461086257600080fd5b82905080600160a060020a0316632f049bf3836040518263ffffffff167c01000000000000000000000000000000000000000000000000000000000281526004018080602001828103825283818151815260200191508051906020019080838360005b838110156108dd5781810151838201526020016108c5565b50505050905090810190601f16801561090a5780820380516001836020036101000a031916815260200191505b5092505050600060405180830381600087803b15801561092957600080fd5b505af115801561093d573d6000803e3d6000fd5b505050507f0d7fccda06d6eb51c23cbd16d49b9b3f3ebafb002dba1b074895cbb35d0e813083836040518083600160a060020a0316600160a060020a0316815260200180602001828103825283818151815260200191508051906020019080838360005b838110156109b95781810151838201526020016109a1565b50505050905090810190601f1680156109e65780820380516001836020036101000a031916815260200191505b50935050505060405180910390a1505050565b600054600160a060020a03163314610a1057600080fd5b610a1981610aaa565b50565b600054600160a060020a03163314610a3357600080fd5b7f60f6a34249e8c81d18200240e021c236fe990a6c8d1f66dd302470bd410587ba82826040518083600160a060020a0316600160a060020a03168152602001806020018281038252838181518152602001915080519060200190808383600083811015610619578181015183820152602001610601565b600160a060020a0381161515610abf57600080fd5b60008054604051600160a060020a03808516939216917f8be0079c531659141344cd1fd0a4f28419497f9722a3daafe3b4186f6b6457e091a36000805473ffffffffffffffffffffffffffffffffffffffff1916600160a060020a03929092169190911790555600a165627a7a723058208159584d3951564f19e53574abb6e3cbfdcc0e23af0983e2b1f55ff5fa0e20880029608060405234801561001057600080fd5b50604051610fce380380610fce83398101604052805160008054600160a060020a0319163317905501805161004c906001906020840190610065565b505060008054600160a060020a03191633179055610100565b828054600181600116156101000203166002900490600052602060002090601f016020900481019282601f106100a657805160ff19168380011785556100d3565b828001600101855582156100d3579182015b828111156100d35782518255916020019190600101906100b8565b506100df9291506100e3565b5090565b6100fd91905b808211156100df57600081556001016100e9565b90565b610ebf8061010f6000396000f3006080604052600436106100775763ffffffff7c010000000000000000000000000000000000000000000000000000000060003504166310d86b1f811461007c578063715018a61461009f5780638da5cb5b146100b4578063908e5a8f146100e5578063c7303c6114610106578063f2fde38b1461015f575b600080fd5b34801561008857600080fd5b5061009d600160a060020a0360043516610180565b005b3480156100ab57600080fd5b5061009d6101d6565b3480156100c057600080fd5b506100c9610242565b60408051600160a060020a039092168252519081900360200190f35b3480156100f157600080fd5b5061009d600160a060020a0360043516610251565b34801561011257600080fd5b506040805160206004803580820135601f810184900484028501840190955284845261009d9436949293602493928401919081908401838280828437509497506102a79650505050505050565b34801561016b57600080fd5b5061009d600160a060020a0360043516610492565b600054600160a060020a0316331461019757600080fd5b60408051600160a060020a038316815290517f8f411ad66fd8225d9c3c7c72fd2429139958913fa5c5114dce1c984e069a4f699181900360200190a150565b600054600160a060020a031633146101ed57600080fd5b60008054604051600160a060020a03909116917ff8df31144d9c2f0f6b59d69b8b98abd5459d07f2742c4df920b25aae33c6482091a26000805473ffffffffffffffffffffffffffffffffffffffff19169055565b600054600160a060020a031681565b600054600160a060020a0316331461026857600080fd5b60408051600160a060020a038316815290517f26d6a37a4abb33fb6e942eb5bf6c659ea2b3031d99159305ec4fdd0adc7551cf9181900360200190a150565b6000806102b2610532565b604051809103906000f0801580156102ce573d6000803e3d6000fd5b50604080517ffe7ec5a5000000000000000000000000000000000000000000000000000000008152600160a060020a0383166004820190815260248201928352865160448301528651939550339450849363fe7ec5a5938793899392606490910190602085019080838360005b8381101561035357818101518382015260200161033b565b50505050905090810190601f1680156103805780820380516001836020036101000a031916815260200191505b509350505050600060405180830381600087803b1580156103a057600080fd5b505af11580156103b4573d6000803e3d6000fd5b505050507f3d40f91fcc750d3265694f14e3f40ca432ef63c0e2ca858eec6a1ae3b6b827e1828433426040518085600160a060020a0316600160a060020a031681526020018060200184600160a060020a0316600160a060020a03168152602001838152602001828103825285818151815260200191508051906020019080838360005b83811015610450578181015183820152602001610438565b50505050905090810190601f16801561047d5780820380516001836020036101000a031916815260200191505b509550505050505060405180910390a1505050565b600054600160a060020a031633146104a957600080fd5b6104b2816104b5565b50565b600160a060020a03811615156104ca57600080fd5b60008054604051600160a060020a03808516939216917f8be0079c531659141344cd1fd0a4f28419497f9722a3daafe3b4186f6b6457e091a36000805473ffffffffffffffffffffffffffffffffffffffff1916600160a060020a0392909216919091179055565b60405161095180610543833901905600608060405234801561001057600080fd5b5060008054600160a060020a0319908116339081179091161790556109178061003a6000396000f3006080604052600436106100615763ffffffff7c0100000000000000000000000000000000000000000000000000000000600035041663715018a681146100665780638da5cb5b1461007d5780639935d96d146100ae578063f2fde38b1461011d575b600080fd5b34801561007257600080fd5b5061007b61013e565b005b34801561008957600080fd5b506100926101aa565b60408051600160a060020a039092168252519081900360200190f35b3480156100ba57600080fd5b50604080516020600460443581810135601f810184900484028501840190955284845261007b948235600160a060020a03908116956024803590921695369594606494929301919081908401838280828437509497506101b99650505050505050565b34801561012957600080fd5b5061007b600160a060020a03600435166103e9565b600054600160a060020a0316331461015557600080fd5b60008054604051600160a060020a03909116917ff8df31144d9c2f0f6b59d69b8b98abd5459d07f2742c4df920b25aae33c6482091a26000805473ffffffffffffffffffffffffffffffffffffffff19169055565b600054600160a060020a031681565b600080846101c5610489565b600160a060020a03909116815260405190819003602001906000f0801580156101f2573d6000803e3d6000fd5b506040517f13abee4d000000000000000000000000000000000000000000000000000000008152600160a060020a038781166004830190815281841660248401523360448401819052608060648501908152885160848601528851959750899650928616946313abee4d948b9489948b93909260a40190602085019080838360005b8381101561028c578181015183820152602001610274565b50505050905090810190601f1680156102b95780820380516001836020036101000a031916815260200191505b5095505050505050600060405180830381600087803b1580156102db57600080fd5b505af11580156102ef573d6000803e3d6000fd5b505050507f94cbbea5a30af22ff1d42cc982a8552d426bf76599962683addabbffb6c03dfc85833386426040518086600160a060020a0316600160a060020a0316815260200185600160a060020a0316600160a060020a0316815260200184600160a060020a0316600160a060020a0316815260200180602001838152602001828103825284818151815260200191508051906020019080838360005b838110156103a457818101518382015260200161038c565b50505050905090810190601f1680156103d15780820380516001836020036101000a031916815260200191505b50965050505050505060405180910390a15050505050565b600054600160a060020a0316331461040057600080fd5b6104098161040c565b50565b600160a060020a038116151561042157600080fd5b60008054604051600160a060020a03808516939216917f8be0079c531659141344cd1fd0a4f28419497f9722a3daafe3b4186f6b6457e091a36000805473ffffffffffffffffffffffffffffffffffffffff1916600160a060020a0392909216919091179055565b6040516104528061049a833901905600608060405234801561001057600080fd5b5060405160208061045283398101604052516000805460018054600160a060020a03909416600160a060020a031994851617905582163390811790921690911790556103f1806100616000396000f3006080604052600436106100615763ffffffff7c010000000000000000000000000000000000000000000000000000000060003504166360367c698114610066578063715018a6146100c15780638da5cb5b146100d6578063f2fde38b14610114575b600080fd5b34801561007257600080fd5b506040805160206004803580820135601f81018490048402850184019095528484526100bf9436949293602493928401919081908401838280828437509497506101429650505050505050565b005b3480156100cd57600080fd5b506100bf61024f565b3480156100e257600080fd5b506100eb6102d5565b6040805173ffffffffffffffffffffffffffffffffffffffff9092168252519081900360200190f35b34801561012057600080fd5b506100bf73ffffffffffffffffffffffffffffffffffffffff600435166102f1565b600154600080546040517f9935d96d000000000000000000000000000000000000000000000000000000008152306004820181815273ffffffffffffffffffffffffffffffffffffffff938416602484018190526060604485019081528851606486015288519590971696639935d96d9693959194899491926084909101916020860191908190849084905b838110156101e65781810151838201526020016101ce565b50505050905090810190601f1680156102135780820380516001836020036101000a031916815260200191505b50945050505050600060405180830381600087803b15801561023457600080fd5b505af1158015610248573d6000803e3d6000fd5b5050505050565b60005473ffffffffffffffffffffffffffffffffffffffff16331461027357600080fd5b6000805460405173ffffffffffffffffffffffffffffffffffffffff909116917ff8df31144d9c2f0f6b59d69b8b98abd5459d07f2742c4df920b25aae33c6482091a26000805473ffffffffffffffffffffffffffffffffffffffff19169055565b60005473ffffffffffffffffffffffffffffffffffffffff1681565b60005473ffffffffffffffffffffffffffffffffffffffff16331461031557600080fd5b61031e81610321565b50565b73ffffffffffffffffffffffffffffffffffffffff8116151561034357600080fd5b6000805460405173ffffffffffffffffffffffffffffffffffffffff808516939216917f8be0079c531659141344cd1fd0a4f28419497f9722a3daafe3b4186f6b6457e091a36000805473ffffffffffffffffffffffffffffffffffffffff191673ffffffffffffffffffffffffffffffffffffffff929092169190911790555600a165627a7a723058205dbd8b98e3ab6d0826d30f1b68adec9c8ba77143d7d5678d2a5136ff9f5684870029a165627a7a723058208780d5970702fee4c00d11367360644eab43b4b99fa73a21407228a5c647465b0029a165627a7a723058202c4c2879ba33a8e657b50a4c29f18582e34e770a0e9a6c15b205f1d6ba0808600029a165627a7a7230582076f1f6700c8c3952a480efd32e29de77cb6da35d1c988b780822845972b1e3220029",
  "source": "pragma solidity ^0.4.24;\n\nimport \"./ForumFactory.sol\"; \nimport \"./UserFactory.sol\"; \n\ncontract Tartarus is ForumFactory, UserFactory {\n    event AdminCreated (address adminAddress);\n\n    function createAdmin(address _adminAddress) public onlyOwner {\n        emit AdminCreated(_adminAddress);\n    }\n}",
  "sourcePath": "/Users/jarenlynch/Ethereum/tartarus/contracts/Tartarus.sol",
  "compiler": {
    "name": "solc",
    "version": "0.4.24+commit.e67f0147.Emscripten.clang"
  },
  "schemaVersion": "2.0.1",
  "updatedAt": "2018-09-24T22:46:33.663Z"
}