{
  "contractName": "Tartarus",
  "abi": [
    {
      "constant": false,
      "inputs": [],
      "name": "renounceOwnership",
      "outputs": [],
      "payable": false,
      "stateMutability": "nonpayable",
      "type": "function"
    },
    {
      "constant": true,
      "inputs": [],
      "name": "owner",
      "outputs": [
        {
          "name": "",
          "type": "address"
        }
      ],
      "payable": false,
      "stateMutability": "view",
      "type": "function"
    },
    {
      "constant": false,
      "inputs": [
        {
          "name": "_newOwner",
          "type": "address"
        }
      ],
      "name": "transferOwnership",
      "outputs": [],
      "payable": false,
      "stateMutability": "nonpayable",
      "type": "function"
    },
    {
      "anonymous": false,
      "inputs": [
        {
          "indexed": false,
          "name": "adminAddress",
          "type": "address"
        }
      ],
      "name": "AdminCreated",
      "type": "event"
    },
    {
      "anonymous": false,
      "inputs": [
        {
          "indexed": false,
          "name": "forumAddress",
          "type": "address"
        },
        {
          "indexed": false,
          "name": "forumName",
          "type": "string"
        },
        {
          "indexed": false,
          "name": "forumOwner",
          "type": "address"
        },
        {
          "indexed": false,
          "name": "timstamp",
          "type": "uint256"
        }
      ],
      "name": "ForumCreated",
      "type": "event"
    },
    {
      "anonymous": false,
      "inputs": [
        {
          "indexed": true,
          "name": "ownerAddress",
          "type": "address"
        },
        {
          "indexed": false,
          "name": "userAddress",
          "type": "address"
        },
        {
          "indexed": false,
          "name": "timestamp",
          "type": "uint256"
        }
      ],
      "name": "UserCreated",
      "type": "event"
    },
    {
      "anonymous": false,
      "inputs": [
        {
          "indexed": true,
          "name": "previousOwner",
          "type": "address"
        }
      ],
      "name": "OwnershipRenounced",
      "type": "event"
    },
    {
      "anonymous": false,
      "inputs": [
        {
          "indexed": true,
          "name": "previousOwner",
          "type": "address"
        },
        {
          "indexed": true,
          "name": "newOwner",
          "type": "address"
        }
      ],
      "name": "OwnershipTransferred",
      "type": "event"
    },
    {
      "constant": false,
      "inputs": [
        {
          "name": "_adminAddress",
          "type": "address"
        }
      ],
      "name": "createAdmin",
      "outputs": [],
      "payable": false,
      "stateMutability": "nonpayable",
      "type": "function"
    },
    {
      "constant": false,
      "inputs": [
        {
          "name": "_forumName",
          "type": "string"
        }
      ],
      "name": "createForum",
      "outputs": [],
      "payable": false,
      "stateMutability": "nonpayable",
      "type": "function"
    },
    {
      "constant": false,
      "inputs": [],
      "name": "createUser",
      "outputs": [],
      "payable": true,
      "stateMutability": "payable",
      "type": "function"
    },
    {
      "constant": true,
      "inputs": [],
      "name": "authenticateUser",
      "outputs": [
        {
          "name": "",
          "type": "address"
        }
      ],
      "payable": false,
      "stateMutability": "view",
      "type": "function"
    },
    {
      "constant": false,
      "inputs": [
        {
          "name": "_newCost",
          "type": "uint256"
        }
      ],
      "name": "setCost",
      "outputs": [],
      "payable": false,
      "stateMutability": "nonpayable",
      "type": "function"
    }
  ],
  "bytecode": "0x6080604052600060048190558054600160a060020a031916331790556121e48061002a6000396000f30060806040526004361061008c5763ffffffff7c01000000000000000000000000000000000000000000000000000000006000350416625ce66f811461009157806304020595146100c257806325ad91ce146100e557806344a0d68a146100ed578063715018a6146101055780638da5cb5b1461011a578063a232e64b1461012f578063f2fde38b14610188575b600080fd5b34801561009d57600080fd5b506100a66101a9565b60408051600160a060020a039092168252519081900360200190f35b3480156100ce57600080fd5b506100e3600160a060020a03600435166101c5565b005b6100e361021b565b3480156100f957600080fd5b506100e36004356103b6565b34801561011157600080fd5b506100e36103d2565b34801561012657600080fd5b506100a661043e565b34801561013b57600080fd5b506040805160206004803580820135601f81018490048402850184019095528484526100e394369492936024939284019190819084018382808284375094975061044d9650505050505050565b34801561019457600080fd5b506100e3600160a060020a036004351661079e565b33600090815260026020526040902054600160a060020a031690565b600054600160a060020a031633146101dc57600080fd5b60408051600160a060020a038316815290517f068138ab5baa0a8a7aadb0e73d78b0b40417344c7bba0f4387479260cc462d669181900360200190a150565b60045460009034101561028f57604080517f08c379a000000000000000000000000000000000000000000000000000000000815260206004820152601560248201527f496e73756666696369656e74204574682053656e740000000000000000000000604482015290519081900360640190fd5b33600090815260026020526040902054600160a060020a03161561031457604080517f08c379a000000000000000000000000000000000000000000000000000000000815260206004820152600e60248201527f557365726e616d652074616b656e000000000000000000000000000000000000604482015290519081900360640190fd5b61031c61083e565b604051809103906000f080158015610338573d6000803e3d6000fd5b5033600081815260026020908152604091829020805473ffffffffffffffffffffffffffffffffffffffff1916600160a060020a03861690811790915582519081524291810191909152815193945091927f7107a713762ecd5e08b3bdb3d17ed0d2052df5349f8da5ff0b1c796ab98a96b09281900390910190a250565b600054600160a060020a031633146103cd57600080fd5b600455565b600054600160a060020a031633146103e957600080fd5b60008054604051600160a060020a03909116917ff8df31144d9c2f0f6b59d69b8b98abd5459d07f2742c4df920b25aae33c6482091a26000805473ffffffffffffffffffffffffffffffffffffffff19169055565b600054600160a060020a031681565b6000806001836040518082805190602001908083835b602083106104825780518252601f199092019160209182019101610463565b51815160209384036101000a6000190180199092169116179052920194855250604051938490030190922054600160a060020a0316159150610527905057604080517f08c379a000000000000000000000000000000000000000000000000000000000815260206004820152601460248201527f466f72756d20616c726561647920657869737473000000000000000000000000604482015290519081900360640190fd5b61052f61084e565b604051809103906000f08015801561054b573d6000803e3d6000fd5b509150816001846040518082805190602001908083835b602083106105815780518252601f199092019160209182019101610562565b51815160209384036101000a6000190180199092169116179052920194855250604080519485900382018520805473ffffffffffffffffffffffffffffffffffffffff1916600160a060020a0397881617905533600090815260028352818120547f3c65974300000000000000000000000000000000000000000000000000000000875289881660048801908152602488019384528b5160448901528b519190981698508897633c659743978b97508c9650909460649091019290860191908190849084905b8381101561065f578181015183820152602001610647565b50505050905090810190601f16801561068c5780820380516001836020036101000a031916815260200191505b509350505050600060405180830381600087803b1580156106ac57600080fd5b505af11580156106c0573d6000803e3d6000fd5b505050507f7b3147a6dfee16f790c4a4bb4551647874bceee5636d8eb53938d99a0bc668ef828433426040518085600160a060020a0316600160a060020a031681526020018060200184600160a060020a0316600160a060020a03168152602001838152602001828103825285818151815260200191508051906020019080838360005b8381101561075c578181015183820152602001610744565b50505050905090810190601f1680156107895780820380516001836020036101000a031916815260200191505b509550505050505060405180910390a1505050565b600054600160a060020a031633146107b557600080fd5b6107be816107c1565b50565b600160a060020a03811615156107d657600080fd5b60008054604051600160a060020a03808516939216917f8be0079c531659141344cd1fd0a4f28419497f9722a3daafe3b4186f6b6457e091a36000805473ffffffffffffffffffffffffffffffffffffffff1916600160a060020a0392909216919091179055565b604051610b4a8061085f83390190565b604051610e10806113a9833901905600608060405260008054600160a060020a03191633179055610b25806100256000396000f3006080604052600436106100a35763ffffffff7c010000000000000000000000000000000000000000000000000000000060003504166313abee4d81146100a85780632f049bf31461011c5780633c65974314610175578063715018a6146101dc5780638da5cb5b146101f15780639935d96d14610222578063cf74f1d514610291578063de6f24bb146102f8578063f2fde38b1461035f578063fe7ec5a514610380575b600080fd5b3480156100b457600080fd5b50604080516020601f60643560048181013592830184900484028501840190955281845261011a94600160a060020a0381358116956024803583169660443590931695369560849492019181908401838280828437509497506103e79650505050505050565b005b34801561012857600080fd5b506040805160206004803580820135601f810184900484028501840190955284845261011a9436949293602493928401919081908401838280828437509497506104d49650505050505050565b34801561018157600080fd5b5060408051602060046024803582810135601f810185900485028601850190965285855261011a958335600160a060020a031695369560449491939091019190819084018382808284375094975061058a9650505050505050565b3480156101e857600080fd5b5061011a610641565b3480156101fd57600080fd5b506102066106ad565b60408051600160a060020a039092168252519081900360200190f35b34801561022e57600080fd5b50604080516020600460443581810135601f810184900484028501840190955284845261011a948235600160a060020a03908116956024803590921695369594606494929301919081908401838280828437509497506106bc9650505050505050565b34801561029d57600080fd5b5060408051602060046024803582810135601f810185900485028601850190965285855261011a958335600160a060020a03169536956044949193909101919081908401838280828437509497506107a59650505050505050565b34801561030457600080fd5b5060408051602060046024803582810135601f810185900485028601850190965285855261011a958335600160a060020a03169536956044949193909101919081908401838280828437509497506108339650505050505050565b34801561036b57600080fd5b5061011a600160a060020a03600435166109e2565b34801561038c57600080fd5b5060408051602060046024803582810135601f810185900485028601850190965285855261011a958335600160a060020a0316953695604494919390910191908190840183828082843750949750610a059650505050505050565b7f410e0ae0680310840c1fae460491cddce9f2f7154f9c4552bf30ed32d46cab0d848484846040518085600160a060020a0316600160a060020a0316815260200184600160a060020a0316600160a060020a0316815260200183600160a060020a0316600160a060020a0316815260200180602001828103825283818151815260200191508051906020019080838360005b83811015610491578181015183820152602001610479565b50505050905090810190601f1680156104be5780820380516001836020036101000a031916815260200191505b509550505050505060405180910390a150505050565b7f15340f1d3815fc99b59e3b9ed010321f64951d6e6a43c97a9e92713e7cd6ad1733826040518083600160a060020a0316600160a060020a0316815260200180602001828103825283818151815260200191508051906020019080838360005b8381101561054c578181015183820152602001610534565b50505050905090810190601f1680156105795780820380516001836020036101000a031916815260200191505b50935050505060405180910390a150565b7f488a925e484540bbc4dac0b2ce1897d0ee0cd513455d38975f43012934f510f682826040518083600160a060020a0316600160a060020a0316815260200180602001828103825283818151815260200191508051906020019080838360005b838110156106025781810151838201526020016105ea565b50505050905090810190601f16801561062f5780820380516001836020036101000a031916815260200191505b50935050505060405180910390a15050565b600054600160a060020a0316331461065857600080fd5b60008054604051600160a060020a03909116917ff8df31144d9c2f0f6b59d69b8b98abd5459d07f2742c4df920b25aae33c6482091a26000805473ffffffffffffffffffffffffffffffffffffffff19169055565b600054600160a060020a031681565b600054600160a060020a031633146106d357600080fd5b7f296fe35dc8ce64e09ba7e908a75dd4ed8d5a33b32853dddbaf86889d5d63b6908383836040518084600160a060020a0316600160a060020a0316815260200183600160a060020a0316600160a060020a0316815260200180602001828103825283818151815260200191508051906020019080838360005b8381101561076457818101518382015260200161074c565b50505050905090810190601f1680156107915780820380516001836020036101000a031916815260200191505b5094505050505060405180910390a1505050565b600054600160a060020a031633146107bc57600080fd5b7f8809845659a1ab6919c52382f7914c49c149b6a5a40675e2f8985a30a8d06b0082826040518083600160a060020a0316600160a060020a031681526020018060200182810382528381815181526020019150805190602001908083836000838110156106025781810151838201526020016105ea565b60008054600160a060020a0316331461084b57600080fd5b82905080600160a060020a0316632f049bf3836040518263ffffffff167c01000000000000000000000000000000000000000000000000000000000281526004018080602001828103825283818151815260200191508051906020019080838360005b838110156108c65781810151838201526020016108ae565b50505050905090810190601f1680156108f35780820380516001836020036101000a031916815260200191505b5092505050600060405180830381600087803b15801561091257600080fd5b505af1158015610926573d6000803e3d6000fd5b505050507f0d7fccda06d6eb51c23cbd16d49b9b3f3ebafb002dba1b074895cbb35d0e813083836040518083600160a060020a0316600160a060020a0316815260200180602001828103825283818151815260200191508051906020019080838360005b838110156109a257818101518382015260200161098a565b50505050905090810190601f1680156109cf5780820380516001836020036101000a031916815260200191505b50935050505060405180910390a1505050565b600054600160a060020a031633146109f957600080fd5b610a0281610a7c565b50565b7f60f6a34249e8c81d18200240e021c236fe990a6c8d1f66dd302470bd410587ba82826040518083600160a060020a0316600160a060020a031681526020018060200182810382528381815181526020019150805190602001908083836000838110156106025781810151838201526020016105ea565b600160a060020a0381161515610a9157600080fd5b60008054604051600160a060020a03808516939216917f8be0079c531659141344cd1fd0a4f28419497f9722a3daafe3b4186f6b6457e091a36000805473ffffffffffffffffffffffffffffffffffffffff1916600160a060020a03929092169190911790555600a165627a7a72305820ff2585f0fe1a94ad54a6ab7406665aaf2980540d77b2d8bc648756442eea88890029608060405234801561001057600080fd5b5060008054600160a060020a031990811633908117909116179055610dd68061003a6000396000f3006080604052600436106100775763ffffffff7c010000000000000000000000000000000000000000000000000000000060003504166310d86b1f811461007c578063715018a61461009f5780638da5cb5b146100b4578063908e5a8f146100e5578063c7303c6114610106578063f2fde38b1461015f575b600080fd5b34801561008857600080fd5b5061009d600160a060020a0360043516610180565b005b3480156100ab57600080fd5b5061009d6101d6565b3480156100c057600080fd5b506100c9610242565b60408051600160a060020a039092168252519081900360200190f35b3480156100f157600080fd5b5061009d600160a060020a0360043516610251565b34801561011257600080fd5b506040805160206004803580820135601f810184900484028501840190955284845261009d9436949293602493928401919081908401838280828437509497506102a79650505050505050565b34801561016b57600080fd5b5061009d600160a060020a03600435166103a9565b600054600160a060020a0316331461019757600080fd5b60408051600160a060020a038316815290517f8f411ad66fd8225d9c3c7c72fd2429139958913fa5c5114dce1c984e069a4f699181900360200190a150565b600054600160a060020a031633146101ed57600080fd5b60008054604051600160a060020a03909116917ff8df31144d9c2f0f6b59d69b8b98abd5459d07f2742c4df920b25aae33c6482091a26000805473ffffffffffffffffffffffffffffffffffffffff19169055565b600054600160a060020a031681565b600054600160a060020a0316331461026857600080fd5b60408051600160a060020a038316815290517f26d6a37a4abb33fb6e942eb5bf6c659ea2b3031d99159305ec4fdd0adc7551cf9181900360200190a150565b60006102b1610449565b604051809103906000f0801580156102cd573d6000803e3d6000fd5b5090507f3d40f91fcc750d3265694f14e3f40ca432ef63c0e2ca858eec6a1ae3b6b827e1818333426040518085600160a060020a0316600160a060020a031681526020018060200184600160a060020a0316600160a060020a03168152602001838152602001828103825285818151815260200191508051906020019080838360005b83811015610368578181015183820152602001610350565b50505050905090810190601f1680156103955780820380516001836020036101000a031916815260200191505b509550505050505060405180910390a15050565b600054600160a060020a031633146103c057600080fd5b6103c9816103cc565b50565b600160a060020a03811615156103e157600080fd5b60008054604051600160a060020a03808516939216917f8be0079c531659141344cd1fd0a4f28419497f9722a3daafe3b4186f6b6457e091a36000805473ffffffffffffffffffffffffffffffffffffffff1916600160a060020a0392909216919091179055565b6040516109518061045a833901905600608060405234801561001057600080fd5b5060008054600160a060020a0319908116339081179091161790556109178061003a6000396000f3006080604052600436106100615763ffffffff7c0100000000000000000000000000000000000000000000000000000000600035041663715018a681146100665780638da5cb5b1461007d5780639935d96d146100ae578063f2fde38b1461011d575b600080fd5b34801561007257600080fd5b5061007b61013e565b005b34801561008957600080fd5b506100926101aa565b60408051600160a060020a039092168252519081900360200190f35b3480156100ba57600080fd5b50604080516020600460443581810135601f810184900484028501840190955284845261007b948235600160a060020a03908116956024803590921695369594606494929301919081908401838280828437509497506101b99650505050505050565b34801561012957600080fd5b5061007b600160a060020a03600435166103e9565b600054600160a060020a0316331461015557600080fd5b60008054604051600160a060020a03909116917ff8df31144d9c2f0f6b59d69b8b98abd5459d07f2742c4df920b25aae33c6482091a26000805473ffffffffffffffffffffffffffffffffffffffff19169055565b600054600160a060020a031681565b600080846101c5610489565b600160a060020a03909116815260405190819003602001906000f0801580156101f2573d6000803e3d6000fd5b506040517f13abee4d000000000000000000000000000000000000000000000000000000008152600160a060020a038781166004830190815281841660248401523360448401819052608060648501908152885160848601528851959750899650928616946313abee4d948b9489948b93909260a40190602085019080838360005b8381101561028c578181015183820152602001610274565b50505050905090810190601f1680156102b95780820380516001836020036101000a031916815260200191505b5095505050505050600060405180830381600087803b1580156102db57600080fd5b505af11580156102ef573d6000803e3d6000fd5b505050507f94cbbea5a30af22ff1d42cc982a8552d426bf76599962683addabbffb6c03dfc85833386426040518086600160a060020a0316600160a060020a0316815260200185600160a060020a0316600160a060020a0316815260200184600160a060020a0316600160a060020a0316815260200180602001838152602001828103825284818151815260200191508051906020019080838360005b838110156103a457818101518382015260200161038c565b50505050905090810190601f1680156103d15780820380516001836020036101000a031916815260200191505b50965050505050505060405180910390a15050505050565b600054600160a060020a0316331461040057600080fd5b6104098161040c565b50565b600160a060020a038116151561042157600080fd5b60008054604051600160a060020a03808516939216917f8be0079c531659141344cd1fd0a4f28419497f9722a3daafe3b4186f6b6457e091a36000805473ffffffffffffffffffffffffffffffffffffffff1916600160a060020a0392909216919091179055565b6040516104528061049a833901905600608060405234801561001057600080fd5b5060405160208061045283398101604052516000805460018054600160a060020a03909416600160a060020a031994851617905582163390811790921690911790556103f1806100616000396000f3006080604052600436106100615763ffffffff7c010000000000000000000000000000000000000000000000000000000060003504166360367c698114610066578063715018a6146100c15780638da5cb5b146100d6578063f2fde38b14610114575b600080fd5b34801561007257600080fd5b506040805160206004803580820135601f81018490048402850184019095528484526100bf9436949293602493928401919081908401838280828437509497506101429650505050505050565b005b3480156100cd57600080fd5b506100bf61024f565b3480156100e257600080fd5b506100eb6102d5565b6040805173ffffffffffffffffffffffffffffffffffffffff9092168252519081900360200190f35b34801561012057600080fd5b506100bf73ffffffffffffffffffffffffffffffffffffffff600435166102f1565b600154600080546040517f9935d96d000000000000000000000000000000000000000000000000000000008152306004820181815273ffffffffffffffffffffffffffffffffffffffff938416602484018190526060604485019081528851606486015288519590971696639935d96d9693959194899491926084909101916020860191908190849084905b838110156101e65781810151838201526020016101ce565b50505050905090810190601f1680156102135780820380516001836020036101000a031916815260200191505b50945050505050600060405180830381600087803b15801561023457600080fd5b505af1158015610248573d6000803e3d6000fd5b5050505050565b60005473ffffffffffffffffffffffffffffffffffffffff16331461027357600080fd5b6000805460405173ffffffffffffffffffffffffffffffffffffffff909116917ff8df31144d9c2f0f6b59d69b8b98abd5459d07f2742c4df920b25aae33c6482091a26000805473ffffffffffffffffffffffffffffffffffffffff19169055565b60005473ffffffffffffffffffffffffffffffffffffffff1681565b60005473ffffffffffffffffffffffffffffffffffffffff16331461031557600080fd5b61031e81610321565b50565b73ffffffffffffffffffffffffffffffffffffffff8116151561034357600080fd5b6000805460405173ffffffffffffffffffffffffffffffffffffffff808516939216917f8be0079c531659141344cd1fd0a4f28419497f9722a3daafe3b4186f6b6457e091a36000805473ffffffffffffffffffffffffffffffffffffffff191673ffffffffffffffffffffffffffffffffffffffff929092169190911790555600a165627a7a72305820356e405878f58d1bf35d00ae18ba48cf1238616a8fd896dbae80b230539b95760029a165627a7a723058205f89f7ec746195f56cc29dd9c92261d87751d5e5445fe81a38f0b465c337f8180029a165627a7a72305820e046f40a98d66b0b1a800f81c4b1a466d5512d695ad2b7bd5a8a4e5d41e55b980029a165627a7a72305820ce444886c441a8f2e5baf62cb9662f262e03f462c090fd56181c18f530457fd90029",
  "source": "pragma solidity ^0.4.24;\r\n\r\n// import \"./ForumFactory.sol\"; \r\n// import \"./UserFactory.sol\"; \r\nimport \"./User.sol\"; \r\nimport \"./Forum.sol\"; \r\nimport \"openzeppelin-solidity/contracts/ownership/Ownable.sol\";\r\n\r\ncontract Tartarus is Ownable {\r\n    event AdminCreated (address adminAddress);\r\n    event ForumCreated(address forumAddress, string forumName, address forumOwner, uint timstamp);  \r\n    event UserCreated (address indexed ownerAddress, address userAddress, uint timestamp);  \r\n    \r\n    mapping (string => address) forums;\r\n    mapping (address => address) users;\r\n    mapping (address => address) admins;\r\n\r\n    uint createUserCost = 0;\r\n\r\n    function createAdmin(address _adminAddress) public onlyOwner {\r\n        emit AdminCreated(_adminAddress);\r\n    }\r\n\r\n    function createForum(string _forumName) public {\r\n        require(forums[_forumName] == 0, \"Forum already exists\");\r\n        address newForumAddress = new Forum();\r\n        forums[_forumName] = newForumAddress;\r\n        User creator = User(users[msg.sender]);\r\n        creator.subscribe(newForumAddress, _forumName);\r\n        emit ForumCreated(newForumAddress, _forumName, msg.sender, block.timestamp);\r\n    }\r\n\r\n    function createUser() public payable {\r\n        require((msg.value >= createUserCost), \"Insufficient Eth Sent\");\r\n        require((users[msg.sender] == 0), \"Username taken\");\r\n        address newUserAddress = new User();\r\n        users[msg.sender] = newUserAddress;\r\n        emit UserCreated(msg.sender, newUserAddress, block.timestamp);\r\n    }\r\n\r\n    function authenticateUser() public view returns(address) {\r\n        return users[msg.sender];\r\n    }\r\n\r\n    function setCost(uint _newCost) public onlyOwner {\r\n        createUserCost = _newCost;\r\n    }\r\n}",
  "sourcePath": "C:\\Users\\Jack\\Desktop\\csc648\\Tartarus\\contracts\\Tartarus.sol",
  "compiler": {
    "name": "solc",
    "version": "0.4.24+commit.e67f0147.Emscripten.clang"
  },
  "schemaVersion": "2.0.1",
  "updatedAt": "2018-11-04T05:05:01.431Z"
}