{
  "contractName": "User",
  "abi": [
    {
      "constant": false,
      "inputs": [],
      "name": "renounceOwnership",
      "outputs": [],
      "payable": false,
      "stateMutability": "nonpayable",
      "type": "function"
    },
    {
      "constant": true,
      "inputs": [],
      "name": "owner",
      "outputs": [
        {
          "name": "",
          "type": "address"
        }
      ],
      "payable": false,
      "stateMutability": "view",
      "type": "function"
    },
    {
      "constant": false,
      "inputs": [
        {
          "name": "_newOwner",
          "type": "address"
        }
      ],
      "name": "transferOwnership",
      "outputs": [],
      "payable": false,
      "stateMutability": "nonpayable",
      "type": "function"
    },
    {
      "anonymous": false,
      "inputs": [
        {
          "indexed": false,
          "name": "forumAddress",
          "type": "address"
        },
        {
          "indexed": false,
          "name": "forumName",
          "type": "string"
        }
      ],
      "name": "SubscribeForum",
      "type": "event"
    },
    {
      "anonymous": false,
      "inputs": [
        {
          "indexed": false,
          "name": "forumAddress",
          "type": "address"
        },
        {
          "indexed": false,
          "name": "forumName",
          "type": "string"
        }
      ],
      "name": "UnsubscribeForum",
      "type": "event"
    },
    {
      "anonymous": false,
      "inputs": [
        {
          "indexed": false,
          "name": "targetAddress",
          "type": "address"
        },
        {
          "indexed": false,
          "name": "messageText",
          "type": "string"
        }
      ],
      "name": "MessageSent",
      "type": "event"
    },
    {
      "anonymous": false,
      "inputs": [
        {
          "indexed": false,
          "name": "senderAddress",
          "type": "address"
        },
        {
          "indexed": false,
          "name": "messageText",
          "type": "string"
        }
      ],
      "name": "MessageReceived",
      "type": "event"
    },
    {
      "anonymous": false,
      "inputs": [
        {
          "indexed": false,
          "name": "commentAddress",
          "type": "address"
        },
        {
          "indexed": false,
          "name": "commentReplyAddress",
          "type": "address"
        },
        {
          "indexed": false,
          "name": "commentReplySender",
          "type": "address"
        },
        {
          "indexed": false,
          "name": "commentReplyText",
          "type": "string"
        }
      ],
      "name": "CommentReceived",
      "type": "event"
    },
    {
      "anonymous": false,
      "inputs": [
        {
          "indexed": false,
          "name": "parentAddresss",
          "type": "address"
        },
        {
          "indexed": false,
          "name": "commentAddress",
          "type": "address"
        },
        {
          "indexed": false,
          "name": "commentText",
          "type": "string"
        }
      ],
      "name": "CommentCreated",
      "type": "event"
    },
    {
      "anonymous": false,
      "inputs": [
        {
          "indexed": false,
          "name": "postAddress",
          "type": "address"
        },
        {
          "indexed": false,
          "name": "postText",
          "type": "string"
        }
      ],
      "name": "PostCreated",
      "type": "event"
    },
    {
      "anonymous": false,
      "inputs": [
        {
          "indexed": true,
          "name": "previousOwner",
          "type": "address"
        }
      ],
      "name": "OwnershipRenounced",
      "type": "event"
    },
    {
      "anonymous": false,
      "inputs": [
        {
          "indexed": true,
          "name": "previousOwner",
          "type": "address"
        },
        {
          "indexed": true,
          "name": "newOwner",
          "type": "address"
        }
      ],
      "name": "OwnershipTransferred",
      "type": "event"
    },
    {
      "constant": false,
      "inputs": [
        {
          "name": "_forumAddress",
          "type": "address"
        },
        {
          "name": "_forumName",
          "type": "string"
        }
      ],
      "name": "subscribe",
      "outputs": [],
      "payable": false,
      "stateMutability": "nonpayable",
      "type": "function"
    },
    {
      "constant": false,
      "inputs": [
        {
          "name": "_forumAddress",
          "type": "address"
        },
        {
          "name": "_forumName",
          "type": "string"
        }
      ],
      "name": "unsubscribe",
      "outputs": [],
      "payable": false,
      "stateMutability": "nonpayable",
      "type": "function"
    },
    {
      "constant": false,
      "inputs": [
        {
          "name": "_messageText",
          "type": "string"
        }
      ],
      "name": "receiveMessage",
      "outputs": [],
      "payable": false,
      "stateMutability": "nonpayable",
      "type": "function"
    },
    {
      "constant": false,
      "inputs": [
        {
          "name": "_targetAddress",
          "type": "address"
        },
        {
          "name": "_messageText",
          "type": "string"
        }
      ],
      "name": "sendMessage",
      "outputs": [],
      "payable": false,
      "stateMutability": "nonpayable",
      "type": "function"
    },
    {
      "constant": false,
      "inputs": [
        {
          "name": "_commentAddress",
          "type": "address"
        },
        {
          "name": "_commentReplyAddress",
          "type": "address"
        },
        {
          "name": "_replySender",
          "type": "address"
        },
        {
          "name": "_replyText",
          "type": "string"
        }
      ],
      "name": "receiveComment",
      "outputs": [],
      "payable": false,
      "stateMutability": "nonpayable",
      "type": "function"
    },
    {
      "constant": false,
      "inputs": [
        {
          "name": "_parentAddress",
          "type": "address"
        },
        {
          "name": "_commentAddress",
          "type": "address"
        },
        {
          "name": "_commentText",
          "type": "string"
        }
      ],
      "name": "createComment",
      "outputs": [],
      "payable": false,
      "stateMutability": "nonpayable",
      "type": "function"
    },
    {
      "constant": false,
      "inputs": [
        {
          "name": "_postAddress",
          "type": "address"
        },
        {
          "name": "_postTitle",
          "type": "string"
        }
      ],
      "name": "createPost",
      "outputs": [],
      "payable": false,
      "stateMutability": "nonpayable",
      "type": "function"
    }
  ],
  "bytecode": "0x608060405260008054600160a060020a03191633179055610b25806100256000396000f3006080604052600436106100a35763ffffffff7c010000000000000000000000000000000000000000000000000000000060003504166313abee4d81146100a85780632f049bf31461011c5780633c65974314610175578063715018a6146101dc5780638da5cb5b146101f15780639935d96d14610222578063cf74f1d514610291578063de6f24bb146102f8578063f2fde38b1461035f578063fe7ec5a514610380575b600080fd5b3480156100b457600080fd5b50604080516020601f60643560048181013592830184900484028501840190955281845261011a94600160a060020a0381358116956024803583169660443590931695369560849492019181908401838280828437509497506103e79650505050505050565b005b34801561012857600080fd5b506040805160206004803580820135601f810184900484028501840190955284845261011a9436949293602493928401919081908401838280828437509497506104d49650505050505050565b34801561018157600080fd5b5060408051602060046024803582810135601f810185900485028601850190965285855261011a958335600160a060020a031695369560449491939091019190819084018382808284375094975061058a9650505050505050565b3480156101e857600080fd5b5061011a610641565b3480156101fd57600080fd5b506102066106ad565b60408051600160a060020a039092168252519081900360200190f35b34801561022e57600080fd5b50604080516020600460443581810135601f810184900484028501840190955284845261011a948235600160a060020a03908116956024803590921695369594606494929301919081908401838280828437509497506106bc9650505050505050565b34801561029d57600080fd5b5060408051602060046024803582810135601f810185900485028601850190965285855261011a958335600160a060020a03169536956044949193909101919081908401838280828437509497506107a59650505050505050565b34801561030457600080fd5b5060408051602060046024803582810135601f810185900485028601850190965285855261011a958335600160a060020a03169536956044949193909101919081908401838280828437509497506108339650505050505050565b34801561036b57600080fd5b5061011a600160a060020a03600435166109e2565b34801561038c57600080fd5b5060408051602060046024803582810135601f810185900485028601850190965285855261011a958335600160a060020a0316953695604494919390910191908190840183828082843750949750610a059650505050505050565b7f410e0ae0680310840c1fae460491cddce9f2f7154f9c4552bf30ed32d46cab0d848484846040518085600160a060020a0316600160a060020a0316815260200184600160a060020a0316600160a060020a0316815260200183600160a060020a0316600160a060020a0316815260200180602001828103825283818151815260200191508051906020019080838360005b83811015610491578181015183820152602001610479565b50505050905090810190601f1680156104be5780820380516001836020036101000a031916815260200191505b509550505050505060405180910390a150505050565b7f15340f1d3815fc99b59e3b9ed010321f64951d6e6a43c97a9e92713e7cd6ad1733826040518083600160a060020a0316600160a060020a0316815260200180602001828103825283818151815260200191508051906020019080838360005b8381101561054c578181015183820152602001610534565b50505050905090810190601f1680156105795780820380516001836020036101000a031916815260200191505b50935050505060405180910390a150565b7f488a925e484540bbc4dac0b2ce1897d0ee0cd513455d38975f43012934f510f682826040518083600160a060020a0316600160a060020a0316815260200180602001828103825283818151815260200191508051906020019080838360005b838110156106025781810151838201526020016105ea565b50505050905090810190601f16801561062f5780820380516001836020036101000a031916815260200191505b50935050505060405180910390a15050565b600054600160a060020a0316331461065857600080fd5b60008054604051600160a060020a03909116917ff8df31144d9c2f0f6b59d69b8b98abd5459d07f2742c4df920b25aae33c6482091a26000805473ffffffffffffffffffffffffffffffffffffffff19169055565b600054600160a060020a031681565b600054600160a060020a031633146106d357600080fd5b7f296fe35dc8ce64e09ba7e908a75dd4ed8d5a33b32853dddbaf86889d5d63b6908383836040518084600160a060020a0316600160a060020a0316815260200183600160a060020a0316600160a060020a0316815260200180602001828103825283818151815260200191508051906020019080838360005b8381101561076457818101518382015260200161074c565b50505050905090810190601f1680156107915780820380516001836020036101000a031916815260200191505b5094505050505060405180910390a1505050565b600054600160a060020a031633146107bc57600080fd5b7f8809845659a1ab6919c52382f7914c49c149b6a5a40675e2f8985a30a8d06b0082826040518083600160a060020a0316600160a060020a031681526020018060200182810382528381815181526020019150805190602001908083836000838110156106025781810151838201526020016105ea565b60008054600160a060020a0316331461084b57600080fd5b82905080600160a060020a0316632f049bf3836040518263ffffffff167c01000000000000000000000000000000000000000000000000000000000281526004018080602001828103825283818151815260200191508051906020019080838360005b838110156108c65781810151838201526020016108ae565b50505050905090810190601f1680156108f35780820380516001836020036101000a031916815260200191505b5092505050600060405180830381600087803b15801561091257600080fd5b505af1158015610926573d6000803e3d6000fd5b505050507f0d7fccda06d6eb51c23cbd16d49b9b3f3ebafb002dba1b074895cbb35d0e813083836040518083600160a060020a0316600160a060020a0316815260200180602001828103825283818151815260200191508051906020019080838360005b838110156109a257818101518382015260200161098a565b50505050905090810190601f1680156109cf5780820380516001836020036101000a031916815260200191505b50935050505060405180910390a1505050565b600054600160a060020a031633146109f957600080fd5b610a0281610a7c565b50565b7f60f6a34249e8c81d18200240e021c236fe990a6c8d1f66dd302470bd410587ba82826040518083600160a060020a0316600160a060020a031681526020018060200182810382528381815181526020019150805190602001908083836000838110156106025781810151838201526020016105ea565b600160a060020a0381161515610a9157600080fd5b60008054604051600160a060020a03808516939216917f8be0079c531659141344cd1fd0a4f28419497f9722a3daafe3b4186f6b6457e091a36000805473ffffffffffffffffffffffffffffffffffffffff1916600160a060020a03929092169190911790555600a165627a7a72305820ff2585f0fe1a94ad54a6ab7406665aaf2980540d77b2d8bc648756442eea88890029",
  "source": "pragma solidity ^0.4.24;\r\n\r\nimport \"openzeppelin-solidity/contracts/ownership/Ownable.sol\";\r\nimport \"./User.sol\"; \r\n\r\ncontract User is Ownable {\r\n    event SubscribeForum (address forumAddress, string forumName); \r\n    event UnsubscribeForum (address forumAddress, string forumName); \r\n    event MessageSent (address targetAddress, string messageText);\r\n    event MessageReceived (address senderAddress, string messageText);\r\n    event CommentReceived (address commentAddress, address commentReplyAddress, address commentReplySender, string commentReplyText);\r\n    event CommentCreated (address parentAddresss, address commentAddress, string commentText);\r\n    event PostCreated (address postAddress, string postText);\r\n\r\n    //needs \"onlyowner\" equivalent, perhaps only desired forumaddress can call. \r\n    function subscribe(address _forumAddress, string _forumName) public {\r\n        emit SubscribeForum(_forumAddress, _forumName);\r\n    }\r\n\r\n    function unsubscribe(address _forumAddress, string _forumName) public onlyOwner {\r\n        emit UnsubscribeForum(_forumAddress, _forumName);\r\n    }\r\n\r\n    function receiveMessage(string _messageText) public {\r\n        emit MessageReceived(msg.sender, _messageText);   \r\n    }\r\n\r\n    function sendMessage(address _targetAddress, string _messageText) public onlyOwner {\r\n        User targetUser = User(_targetAddress);\r\n        targetUser.receiveMessage(_messageText);\r\n        emit MessageSent(_targetAddress, _messageText);\r\n    }\r\n\r\n    function receiveComment(address _commentAddress, address _commentReplyAddress, address _replySender, string _replyText) public {\r\n        emit CommentReceived(_commentAddress, _commentReplyAddress, _replySender, _replyText);\r\n    }\r\n\r\n    function createComment(address _parentAddress, address _commentAddress, string _commentText) public onlyOwner {\r\n        emit CommentCreated(_parentAddress, _commentAddress, _commentText);\r\n    }\r\n\r\n    //needs \"onlyowner\" equivalent, perhaps only desired forumaddress can call. \r\n    function createPost(address _postAddress, string _postTitle) public {\r\n        emit PostCreated(_postAddress, _postTitle);\r\n    }\r\n}",
  "sourcePath": "C:\\Users\\Jack\\Desktop\\csc648\\Tartarus\\contracts\\User.sol",
  "compiler": {
    "name": "solc",
    "version": "0.4.24+commit.e67f0147.Emscripten.clang"
  },
  "schemaVersion": "2.0.1",
  "updatedAt": "2018-11-04T05:04:53.829Z"
}