{
  "contractName": "UserFactory",
  "abi": [
    {
      "constant": false,
      "inputs": [],
      "name": "renounceOwnership",
      "outputs": [],
      "payable": false,
      "stateMutability": "nonpayable",
      "type": "function"
    },
    {
      "constant": true,
      "inputs": [],
      "name": "owner",
      "outputs": [
        {
          "name": "",
          "type": "address"
        }
      ],
      "payable": false,
      "stateMutability": "view",
      "type": "function"
    },
    {
      "constant": false,
      "inputs": [
        {
          "name": "_newOwner",
          "type": "address"
        }
      ],
      "name": "transferOwnership",
      "outputs": [],
      "payable": false,
      "stateMutability": "nonpayable",
      "type": "function"
    },
    {
      "anonymous": false,
      "inputs": [
        {
          "indexed": true,
          "name": "ownerAddress",
          "type": "address"
        },
        {
          "indexed": false,
          "name": "userAddress",
          "type": "address"
        },
        {
          "indexed": false,
          "name": "timestamp",
          "type": "uint256"
        }
      ],
      "name": "UserCreated",
      "type": "event"
    },
    {
      "anonymous": false,
      "inputs": [
        {
          "indexed": true,
          "name": "previousOwner",
          "type": "address"
        }
      ],
      "name": "OwnershipRenounced",
      "type": "event"
    },
    {
      "anonymous": false,
      "inputs": [
        {
          "indexed": true,
          "name": "previousOwner",
          "type": "address"
        },
        {
          "indexed": true,
          "name": "newOwner",
          "type": "address"
        }
      ],
      "name": "OwnershipTransferred",
      "type": "event"
    },
    {
      "constant": false,
      "inputs": [],
      "name": "createUser",
      "outputs": [],
      "payable": true,
      "stateMutability": "payable",
      "type": "function"
    },
    {
      "constant": true,
      "inputs": [],
      "name": "authenticateUser",
      "outputs": [
        {
          "name": "",
          "type": "address"
        }
      ],
      "payable": false,
      "stateMutability": "view",
      "type": "function"
    },
    {
      "constant": false,
      "inputs": [
        {
          "name": "_newCost",
          "type": "uint256"
        }
      ],
      "name": "setCost",
      "outputs": [],
      "payable": false,
      "stateMutability": "nonpayable",
      "type": "function"
    }
  ],
  "bytecode": "0x6080604052600060028190558054600160a060020a0319163317905561104d8061002a6000396000f3006080604052600436106100765763ffffffff7c01000000000000000000000000000000000000000000000000000000006000350416625ce66f811461007b57806325ad91ce146100b957806344a0d68a146100c3578063715018a6146100db5780638da5cb5b146100f0578063f2fde38b14610105575b600080fd5b34801561008757600080fd5b50610090610133565b6040805173ffffffffffffffffffffffffffffffffffffffff9092168252519081900360200190f35b6100c161015c565b005b3480156100cf57600080fd5b506100c1600435610311565b3480156100e757600080fd5b506100c161033a565b3480156100fc57600080fd5b506100906103c0565b34801561011157600080fd5b506100c173ffffffffffffffffffffffffffffffffffffffff600435166103dc565b3360009081526001602052604090205473ffffffffffffffffffffffffffffffffffffffff1690565b6002546000903410156101d057604080517f08c379a000000000000000000000000000000000000000000000000000000000815260206004820152601560248201527f496e73756666696369656e74204574682053656e740000000000000000000000604482015290519081900360640190fd5b3360009081526001602052604090205473ffffffffffffffffffffffffffffffffffffffff161561026257604080517f08c379a000000000000000000000000000000000000000000000000000000000815260206004820152600e60248201527f557365726e616d652074616b656e000000000000000000000000000000000000604482015290519081900360640190fd5b61026a6104b0565b604051809103906000f080158015610286573d6000803e3d6000fd5b5033600081815260016020908152604091829020805473ffffffffffffffffffffffffffffffffffffffff191673ffffffffffffffffffffffffffffffffffffffff861690811790915582519081524291810191909152815193945091927f7107a713762ecd5e08b3bdb3d17ed0d2052df5349f8da5ff0b1c796ab98a96b09281900390910190a250565b60005473ffffffffffffffffffffffffffffffffffffffff16331461033557600080fd5b600255565b60005473ffffffffffffffffffffffffffffffffffffffff16331461035e57600080fd5b6000805460405173ffffffffffffffffffffffffffffffffffffffff909116917ff8df31144d9c2f0f6b59d69b8b98abd5459d07f2742c4df920b25aae33c6482091a26000805473ffffffffffffffffffffffffffffffffffffffff19169055565b60005473ffffffffffffffffffffffffffffffffffffffff1681565b60005473ffffffffffffffffffffffffffffffffffffffff16331461040057600080fd5b6104098161040c565b50565b73ffffffffffffffffffffffffffffffffffffffff8116151561042e57600080fd5b6000805460405173ffffffffffffffffffffffffffffffffffffffff808516939216917f8be0079c531659141344cd1fd0a4f28419497f9722a3daafe3b4186f6b6457e091a36000805473ffffffffffffffffffffffffffffffffffffffff191673ffffffffffffffffffffffffffffffffffffffff92909216919091179055565b604051610b61806104c1833901905600608060405260008054600160a060020a03191633179055610b3c806100256000396000f3006080604052600436106100a35763ffffffff7c010000000000000000000000000000000000000000000000000000000060003504166313abee4d81146100a85780632f049bf31461011c5780633c65974314610175578063715018a6146101dc5780638da5cb5b146101f15780639935d96d14610222578063cf74f1d514610291578063de6f24bb146102f8578063f2fde38b1461035f578063fe7ec5a514610380575b600080fd5b3480156100b457600080fd5b50604080516020601f60643560048181013592830184900484028501840190955281845261011a94600160a060020a0381358116956024803583169660443590931695369560849492019181908401838280828437509497506103e79650505050505050565b005b34801561012857600080fd5b506040805160206004803580820135601f810184900484028501840190955284845261011a9436949293602493928401919081908401838280828437509497506104d49650505050505050565b34801561018157600080fd5b5060408051602060046024803582810135601f810185900485028601850190965285855261011a958335600160a060020a031695369560449491939091019190819084018382808284375094975061058a9650505050505050565b3480156101e857600080fd5b5061011a610641565b3480156101fd57600080fd5b506102066106ad565b60408051600160a060020a039092168252519081900360200190f35b34801561022e57600080fd5b50604080516020600460443581810135601f810184900484028501840190955284845261011a948235600160a060020a03908116956024803590921695369594606494929301919081908401838280828437509497506106bc9650505050505050565b34801561029d57600080fd5b5060408051602060046024803582810135601f810185900485028601850190965285855261011a958335600160a060020a03169536956044949193909101919081908401838280828437509497506107a59650505050505050565b34801561030457600080fd5b5060408051602060046024803582810135601f810185900485028601850190965285855261011a958335600160a060020a03169536956044949193909101919081908401838280828437509497506108339650505050505050565b34801561036b57600080fd5b5061011a600160a060020a03600435166109e2565b34801561038c57600080fd5b5060408051602060046024803582810135601f810185900485028601850190965285855261011a958335600160a060020a0316953695604494919390910191908190840183828082843750949750610a059650505050505050565b7f410e0ae0680310840c1fae460491cddce9f2f7154f9c4552bf30ed32d46cab0d848484846040518085600160a060020a0316600160a060020a0316815260200184600160a060020a0316600160a060020a0316815260200183600160a060020a0316600160a060020a0316815260200180602001828103825283818151815260200191508051906020019080838360005b83811015610491578181015183820152602001610479565b50505050905090810190601f1680156104be5780820380516001836020036101000a031916815260200191505b509550505050505060405180910390a150505050565b7f15340f1d3815fc99b59e3b9ed010321f64951d6e6a43c97a9e92713e7cd6ad1733826040518083600160a060020a0316600160a060020a0316815260200180602001828103825283818151815260200191508051906020019080838360005b8381101561054c578181015183820152602001610534565b50505050905090810190601f1680156105795780820380516001836020036101000a031916815260200191505b50935050505060405180910390a150565b7f488a925e484540bbc4dac0b2ce1897d0ee0cd513455d38975f43012934f510f682826040518083600160a060020a0316600160a060020a0316815260200180602001828103825283818151815260200191508051906020019080838360005b838110156106025781810151838201526020016105ea565b50505050905090810190601f16801561062f5780820380516001836020036101000a031916815260200191505b50935050505060405180910390a15050565b600054600160a060020a0316331461065857600080fd5b60008054604051600160a060020a03909116917ff8df31144d9c2f0f6b59d69b8b98abd5459d07f2742c4df920b25aae33c6482091a26000805473ffffffffffffffffffffffffffffffffffffffff19169055565b600054600160a060020a031681565b600054600160a060020a031633146106d357600080fd5b7f296fe35dc8ce64e09ba7e908a75dd4ed8d5a33b32853dddbaf86889d5d63b6908383836040518084600160a060020a0316600160a060020a0316815260200183600160a060020a0316600160a060020a0316815260200180602001828103825283818151815260200191508051906020019080838360005b8381101561076457818101518382015260200161074c565b50505050905090810190601f1680156107915780820380516001836020036101000a031916815260200191505b5094505050505060405180910390a1505050565b600054600160a060020a031633146107bc57600080fd5b7f8809845659a1ab6919c52382f7914c49c149b6a5a40675e2f8985a30a8d06b0082826040518083600160a060020a0316600160a060020a031681526020018060200182810382528381815181526020019150805190602001908083836000838110156106025781810151838201526020016105ea565b60008054600160a060020a0316331461084b57600080fd5b82905080600160a060020a0316632f049bf3836040518263ffffffff167c01000000000000000000000000000000000000000000000000000000000281526004018080602001828103825283818151815260200191508051906020019080838360005b838110156108c65781810151838201526020016108ae565b50505050905090810190601f1680156108f35780820380516001836020036101000a031916815260200191505b5092505050600060405180830381600087803b15801561091257600080fd5b505af1158015610926573d6000803e3d6000fd5b505050507f0d7fccda06d6eb51c23cbd16d49b9b3f3ebafb002dba1b074895cbb35d0e813083836040518083600160a060020a0316600160a060020a0316815260200180602001828103825283818151815260200191508051906020019080838360005b838110156109a257818101518382015260200161098a565b50505050905090810190601f1680156109cf5780820380516001836020036101000a031916815260200191505b50935050505060405180910390a1505050565b600054600160a060020a031633146109f957600080fd5b610a0281610a93565b50565b600054600160a060020a03163314610a1c57600080fd5b7f60f6a34249e8c81d18200240e021c236fe990a6c8d1f66dd302470bd410587ba82826040518083600160a060020a0316600160a060020a031681526020018060200182810382528381815181526020019150805190602001908083836000838110156106025781810151838201526020016105ea565b600160a060020a0381161515610aa857600080fd5b60008054604051600160a060020a03808516939216917f8be0079c531659141344cd1fd0a4f28419497f9722a3daafe3b4186f6b6457e091a36000805473ffffffffffffffffffffffffffffffffffffffff1916600160a060020a03929092169190911790555600a165627a7a723058206217bb2169e1a292823b9ff60e18075829e3e4aa9e94e14377d5a2c21a4e2cb20029a165627a7a72305820ee8e6e0383281b15e4bed7bf4380c69a625f604f35d0d544d3520a7bf8f0a35b0029",
  "source": "pragma solidity ^0.4.24;\n\nimport \"openzeppelin-solidity/contracts/ownership/Ownable.sol\";\nimport \"./User.sol\"; \n\ncontract UserFactory is Ownable {\n    event UserCreated (address indexed ownerAddress, address userAddress, uint timestamp);  \n    mapping (address => address) usernames;\n    uint createUserCost = 0;\n\n    function createUser() public payable {\n        require((msg.value >= createUserCost), \"Insufficient Eth Sent\");\n        require((usernames[msg.sender] == 0), \"Username taken\");\n        address newUserAddress = new User();\n        usernames[msg.sender] = newUserAddress;\n        emit UserCreated(msg.sender, newUserAddress, block.timestamp);\n    }\n\n    function authenticateUser() public view returns(address) {\n        return usernames[msg.sender];\n    }\n\n    function setCost(uint _newCost) public onlyOwner {\n        createUserCost = _newCost;\n    }\n}",
  "sourcePath": "/Users/jarenlynch/Ethereum/tartarus/contracts/UserFactory.sol",
  "compiler": {
    "name": "solc",
    "version": "0.4.24+commit.e67f0147.Emscripten.clang"
  },
  "schemaVersion": "2.0.1",
  "updatedAt": "2018-10-28T11:17:02.691Z"
}