{
  "contractName": "UserFactory",
  "abi": [
    {
      "constant": false,
      "inputs": [],
      "name": "renounceOwnership",
      "outputs": [],
      "payable": false,
      "stateMutability": "nonpayable",
      "type": "function"
    },
    {
      "constant": true,
      "inputs": [],
      "name": "owner",
      "outputs": [
        {
          "name": "",
          "type": "address"
        }
      ],
      "payable": false,
      "stateMutability": "view",
      "type": "function"
    },
    {
      "constant": false,
      "inputs": [
        {
          "name": "_newOwner",
          "type": "address"
        }
      ],
      "name": "transferOwnership",
      "outputs": [],
      "payable": false,
      "stateMutability": "nonpayable",
      "type": "function"
    },
    {
      "anonymous": false,
      "inputs": [
        {
          "indexed": false,
          "name": "userAddress",
          "type": "address"
        },
        {
          "indexed": false,
          "name": "userName",
          "type": "string"
        },
        {
          "indexed": false,
          "name": "timestamp",
          "type": "uint256"
        }
      ],
      "name": "UserCreated",
      "type": "event"
    },
    {
      "anonymous": false,
      "inputs": [
        {
          "indexed": true,
          "name": "previousOwner",
          "type": "address"
        }
      ],
      "name": "OwnershipRenounced",
      "type": "event"
    },
    {
      "anonymous": false,
      "inputs": [
        {
          "indexed": true,
          "name": "previousOwner",
          "type": "address"
        },
        {
          "indexed": true,
          "name": "newOwner",
          "type": "address"
        }
      ],
      "name": "OwnershipTransferred",
      "type": "event"
    },
    {
      "constant": false,
      "inputs": [
        {
          "name": "_username",
          "type": "string"
        }
      ],
      "name": "createUser",
      "outputs": [],
      "payable": true,
      "stateMutability": "payable",
      "type": "function"
    },
    {
      "constant": true,
      "inputs": [
        {
          "name": "_username",
          "type": "string"
        }
      ],
      "name": "checkUsernameAvailability",
      "outputs": [
        {
          "name": "",
          "type": "bool"
        }
      ],
      "payable": false,
      "stateMutability": "view",
      "type": "function"
    },
    {
      "constant": false,
      "inputs": [
        {
          "name": "_newCost",
          "type": "uint256"
        }
      ],
      "name": "setCost",
      "outputs": [],
      "payable": false,
      "stateMutability": "nonpayable",
      "type": "function"
    }
  ],
  "bytecode": "0x6080604052600060028190558054600160a060020a031916331790556112778061002a6000396000f3006080604052600436106100775763ffffffff7c010000000000000000000000000000000000000000000000000000000060003504166344a0d68a811461007c578063507ffba5146100965780635c1638a4146100e2578063715018a61461014f5780638da5cb5b14610164578063f2fde38b146101a2575b600080fd5b34801561008857600080fd5b506100946004356101d0565b005b6040805160206004803580820135601f81018490048402850184019095528484526100949436949293602493928401919081908401838280828437509497506101f99650505050505050565b3480156100ee57600080fd5b506040805160206004803580820135601f810184900484028501840190955284845261013b9436949293602493928401919081908401838280828437509497506104bc9650505050505050565b604080519115158252519081900360200190f35b34801561015b57600080fd5b5061009461054d565b34801561017057600080fd5b506101796105d3565b6040805173ffffffffffffffffffffffffffffffffffffffff9092168252519081900360200190f35b3480156101ae57600080fd5b5061009473ffffffffffffffffffffffffffffffffffffffff600435166105ef565b60005473ffffffffffffffffffffffffffffffffffffffff1633146101f457600080fd5b600255565b60025460009034101561026d57604080517f08c379a000000000000000000000000000000000000000000000000000000000815260206004820152601560248201527f496e73756666696369656e74204574682053656e740000000000000000000000604482015290519081900360640190fd5b6001826040518082805190602001908083835b6020831061029f5780518252601f199092019160209182019101610280565b51815160209384036101000a600019018019909216911617905292019485525060405193849003019092205473ffffffffffffffffffffffffffffffffffffffff16159150610351905057604080517f08c379a000000000000000000000000000000000000000000000000000000000815260206004820152600e60248201527f557365726e616d652074616b656e000000000000000000000000000000000000604482015290519081900360640190fd5b6103596106c3565b604051809103906000f080158015610375573d6000803e3d6000fd5b509050336001836040518082805190602001908083835b602083106103ab5780518252601f19909201916020918201910161038c565b51815160209384036101000a6000190180199092169116179052920194855250604080519485900382018520805473ffffffffffffffffffffffffffffffffffffffff191673ffffffffffffffffffffffffffffffffffffffff978816179055948616845242948401859052606084820181815288519186019190915287517f196a149a119e63a40fb6cf63cc95b680cc1e42d985ede26ed52f560d7b68f8f39688968a96509094509260808401919086019080838360005b8381101561047c578181015183820152602001610464565b50505050905090810190601f1680156104a95780820380516001836020036101000a031916815260200191505b5094505050505060405180910390a15050565b60006001826040518082805190602001908083835b602083106104f05780518252601f1990920191602091820191016104d1565b51815160209384036101000a600019018019909216911617905292019485525060405193849003019092205473ffffffffffffffffffffffffffffffffffffffff1615159150610544905057506001610548565b5060005b919050565b60005473ffffffffffffffffffffffffffffffffffffffff16331461057157600080fd5b6000805460405173ffffffffffffffffffffffffffffffffffffffff909116917ff8df31144d9c2f0f6b59d69b8b98abd5459d07f2742c4df920b25aae33c6482091a26000805473ffffffffffffffffffffffffffffffffffffffff19169055565b60005473ffffffffffffffffffffffffffffffffffffffff1681565b60005473ffffffffffffffffffffffffffffffffffffffff16331461061357600080fd5b61061c8161061f565b50565b73ffffffffffffffffffffffffffffffffffffffff8116151561064157600080fd5b6000805460405173ffffffffffffffffffffffffffffffffffffffff808516939216917f8be0079c531659141344cd1fd0a4f28419497f9722a3daafe3b4186f6b6457e091a36000805473ffffffffffffffffffffffffffffffffffffffff191673ffffffffffffffffffffffffffffffffffffffff92909216919091179055565b604051610b78806106d4833901905600608060405260008054600160a060020a03191633179055610b53806100256000396000f3006080604052600436106100a35763ffffffff7c010000000000000000000000000000000000000000000000000000000060003504166313abee4d81146100a85780632f049bf31461011c5780633c65974314610175578063715018a6146101dc5780638da5cb5b146101f15780639935d96d14610222578063cf74f1d514610291578063de6f24bb146102f8578063f2fde38b1461035f578063fe7ec5a514610380575b600080fd5b3480156100b457600080fd5b50604080516020601f60643560048181013592830184900484028501840190955281845261011a94600160a060020a0381358116956024803583169660443590931695369560849492019181908401838280828437509497506103e79650505050505050565b005b34801561012857600080fd5b506040805160206004803580820135601f810184900484028501840190955284845261011a9436949293602493928401919081908401838280828437509497506104d49650505050505050565b34801561018157600080fd5b5060408051602060046024803582810135601f810185900485028601850190965285855261011a958335600160a060020a031695369560449491939091019190819084018382808284375094975061058a9650505050505050565b3480156101e857600080fd5b5061011a610658565b3480156101fd57600080fd5b506102066106c4565b60408051600160a060020a039092168252519081900360200190f35b34801561022e57600080fd5b50604080516020600460443581810135601f810184900484028501840190955284845261011a948235600160a060020a03908116956024803590921695369594606494929301919081908401838280828437509497506106d39650505050505050565b34801561029d57600080fd5b5060408051602060046024803582810135601f810185900485028601850190965285855261011a958335600160a060020a03169536956044949193909101919081908401838280828437509497506107bc9650505050505050565b34801561030457600080fd5b5060408051602060046024803582810135601f810185900485028601850190965285855261011a958335600160a060020a031695369560449491939091019190819084018382808284375094975061084a9650505050505050565b34801561036b57600080fd5b5061011a600160a060020a03600435166109f9565b34801561038c57600080fd5b5060408051602060046024803582810135601f810185900485028601850190965285855261011a958335600160a060020a0316953695604494919390910191908190840183828082843750949750610a1c9650505050505050565b7f410e0ae0680310840c1fae460491cddce9f2f7154f9c4552bf30ed32d46cab0d848484846040518085600160a060020a0316600160a060020a0316815260200184600160a060020a0316600160a060020a0316815260200183600160a060020a0316600160a060020a0316815260200180602001828103825283818151815260200191508051906020019080838360005b83811015610491578181015183820152602001610479565b50505050905090810190601f1680156104be5780820380516001836020036101000a031916815260200191505b509550505050505060405180910390a150505050565b7f15340f1d3815fc99b59e3b9ed010321f64951d6e6a43c97a9e92713e7cd6ad1733826040518083600160a060020a0316600160a060020a0316815260200180602001828103825283818151815260200191508051906020019080838360005b8381101561054c578181015183820152602001610534565b50505050905090810190601f1680156105795780820380516001836020036101000a031916815260200191505b50935050505060405180910390a150565b600054600160a060020a031633146105a157600080fd5b7f488a925e484540bbc4dac0b2ce1897d0ee0cd513455d38975f43012934f510f682826040518083600160a060020a0316600160a060020a0316815260200180602001828103825283818151815260200191508051906020019080838360005b83811015610619578181015183820152602001610601565b50505050905090810190601f1680156106465780820380516001836020036101000a031916815260200191505b50935050505060405180910390a15050565b600054600160a060020a0316331461066f57600080fd5b60008054604051600160a060020a03909116917ff8df31144d9c2f0f6b59d69b8b98abd5459d07f2742c4df920b25aae33c6482091a26000805473ffffffffffffffffffffffffffffffffffffffff19169055565b600054600160a060020a031681565b600054600160a060020a031633146106ea57600080fd5b7f296fe35dc8ce64e09ba7e908a75dd4ed8d5a33b32853dddbaf86889d5d63b6908383836040518084600160a060020a0316600160a060020a0316815260200183600160a060020a0316600160a060020a0316815260200180602001828103825283818151815260200191508051906020019080838360005b8381101561077b578181015183820152602001610763565b50505050905090810190601f1680156107a85780820380516001836020036101000a031916815260200191505b5094505050505060405180910390a1505050565b600054600160a060020a031633146107d357600080fd5b7f8809845659a1ab6919c52382f7914c49c149b6a5a40675e2f8985a30a8d06b0082826040518083600160a060020a0316600160a060020a03168152602001806020018281038252838181518152602001915080519060200190808383600083811015610619578181015183820152602001610601565b60008054600160a060020a0316331461086257600080fd5b82905080600160a060020a0316632f049bf3836040518263ffffffff167c01000000000000000000000000000000000000000000000000000000000281526004018080602001828103825283818151815260200191508051906020019080838360005b838110156108dd5781810151838201526020016108c5565b50505050905090810190601f16801561090a5780820380516001836020036101000a031916815260200191505b5092505050600060405180830381600087803b15801561092957600080fd5b505af115801561093d573d6000803e3d6000fd5b505050507f0d7fccda06d6eb51c23cbd16d49b9b3f3ebafb002dba1b074895cbb35d0e813083836040518083600160a060020a0316600160a060020a0316815260200180602001828103825283818151815260200191508051906020019080838360005b838110156109b95781810151838201526020016109a1565b50505050905090810190601f1680156109e65780820380516001836020036101000a031916815260200191505b50935050505060405180910390a1505050565b600054600160a060020a03163314610a1057600080fd5b610a1981610aaa565b50565b600054600160a060020a03163314610a3357600080fd5b7f60f6a34249e8c81d18200240e021c236fe990a6c8d1f66dd302470bd410587ba82826040518083600160a060020a0316600160a060020a03168152602001806020018281038252838181518152602001915080519060200190808383600083811015610619578181015183820152602001610601565b600160a060020a0381161515610abf57600080fd5b60008054604051600160a060020a03808516939216917f8be0079c531659141344cd1fd0a4f28419497f9722a3daafe3b4186f6b6457e091a36000805473ffffffffffffffffffffffffffffffffffffffff1916600160a060020a03929092169190911790555600a165627a7a723058208159584d3951564f19e53574abb6e3cbfdcc0e23af0983e2b1f55ff5fa0e20880029a165627a7a7230582016236e3485bea031421a5a9067392ff167234b6e149520cc71719175edf43e8e0029",
  "source": "pragma solidity ^0.4.24;\n\nimport \"openzeppelin-solidity/contracts/ownership/Ownable.sol\";\nimport \"./User.sol\"; \n\ncontract UserFactory is Ownable {\n    event UserCreated (address userAddress, string userName, uint timestamp);  \n    mapping (string => address) usernames;\n    uint createUserCost = 0;\n\n    function createUser(string _username) public payable {\n        require((msg.value >= createUserCost), \"Insufficient Eth Sent\");\n        require((usernames[_username] == 0), \"Username taken\");\n        address newUserAddress = new User();\n        usernames[_username] = msg.sender;\n        emit UserCreated(newUserAddress, _username, block.timestamp);\n    }\n\n    function checkUsernameAvailability(string _username) public view returns(bool) {\n        if (usernames[_username] == 0) {\n            return true;\n        } else {\n            return false;\n        }\n    }\n\n    function setCost(uint _newCost) public onlyOwner {\n        createUserCost = _newCost;\n    }\n}",
  "sourcePath": "/Users/jarenlynch/Ethereum/tartarus/contracts/UserFactory.sol",
  "compiler": {
    "name": "solc",
    "version": "0.4.24+commit.e67f0147.Emscripten.clang"
  },
  "schemaVersion": "2.0.1",
  "updatedAt": "2018-09-24T22:46:33.665Z"
}